:10007C0010E810931E0410E010931F0414E010936A
:10008C00200410E01093330210E01093910210E062
:10009C00109390021FEF109384031FEF10938303B0
:1000AC001FEF1093860310E010934A031FE7109381
:1000BC0044031FE7109345031FE710934303089570
:1000CC0018811F9316E11F93E89440F8EEE7F3E0D4
:1000DC00A4E0B0E03F914F9150E00E94A9430895F5
:1000EC0000E010E020E030E000937E0310937F03EB
:1000FC002093800330938103CF93DF9318811A935D
:10010C000E946600DF91CF9118811F9312E01F931C
:10011C00E89440F8E6E1F0E03F914F91A1E0B0E0C7
:10012C0060E050E00E94A94318811F9313E01F93D5
:10013C00E89440F8E6E1F0E03F914F91A1E0B0E0A7
:10014C0068E250E00E94A94318811F9314E01F93AA
:10015C00E89440F8E6E1F0E03F914F91A1E0B0E087
:10016C0064E150E00E94A94318811F9315E01F938E
:10017C00E89440F8E6E1F0E03F914F91A1E0B0E067
:10018C0060E850E00E94A9430AEA1AEA2AEA3AEA2D
:10019C0000937E0310937F0320938003309381039D
:1001AC00CF93DF9318811A930E946600DF91CF9151
:1001BC00089523971B811095E894112309F06894F6
:1001CC001BB112F91BB91B8110951F9348E331E049
:1001DC000E94F7420F91002311F0106801C01F77A5
:1001EC0048E331E00E94EE4208952197CF93DF93CC
:1001FC001FEF1A930E94DF00DF91CF91E8E0F0E04F
:10020C00FA93EA9310E010831FE01A93108108818F
:10021C0001171FEF08F01127112311F00C9447015F
:10022C00E2E3F0E0EF93FF931C81012F1127A0E193
:10023C00B0E0E89445F80E9439490F931F93182DAC
:10024C00012F11273F912F91020F131FFF91EF9157
:10025C00E00FF11F0E9482441B83182D1F931B81FA
:10026C00E0E7F2E0AF91AF73BB27EA0FFB1F1083FF
:10027C00E981FA81108113951083112311F00C94EC
:10028C000D01239610E00AE00E943944CF93DF93CE
:10029C0010E01A930E94DF00DF91CF91089521970F
:1002AC00CF93DF931FEF1A930E94DF00DF91CF9162
:1002BC00E8E0F0E0FA93EA9310E010831FE01A9361
:1002CC001081088101171FEF08F01127112311F07D
:1002DC000C94A201E2E3F1E0EF93FF931C81012F58
:1002EC001127A0E1B0E0E89445F80E9439490F933A
:1002FC001F93182D012F11273F912F91020F131FC0
:10030C00FF91EF91E00FF11F0E9482441B83182D87
:10031C00105F1F931B81E0E7F2E0AF91AF73BB2737
:10032C00EA0FFB1F1083E981FA811081139510836A
:10033C00112311F00C946701239610E00AE00E943F
:10034C003944CF93DF9310E01A930E94DF00DF91C2
:10035C00CF9108952197E8E0F0E0FA93EA9310E04A
:10036C0010831FE11A931081088101171FEF08F009
:10037C001127112311F00C94E401182D105E1F931A
:10038C00E2E1F0E0EF93FF93182D012F1127FF917D
:10039C00EF91E00FF11F0E948244E0E7F2E0AF9191
:1003AC00AF73BB27EA0FFB1F1083E981FA81108121
:1003BC0013951083112311F00C94BA01239610910C
:1003CC009A02133010E011F008F01FEF10934E0357
:1003DC0008952197CF93DF931FEF1A930E94DF00AC
:1003EC00DF91CF91E8E0F0E0FA93EA9310E010830C
:1003FC001FE01A931081088101171FEF08F01127D5
:10040C00112311F00C943D02182DE0E7F2E01F735C
:10041C000027E10FF01F10811B83E2E3F0E0EF9364
:10042C00FF931C81012F1127A0E1B0E0E89445F85F
:10043C000E9439490F931F93182D012F11273F91BB
:10044C002F91020F131FFF91EF91E00FF11FEF930C
:10045C00FF931B81FF91EF910E946044E981FA8127
:10046C00108113951083112311F00C940102239623
:10047C00CF93DF9310E01A930E94DF00DF91CF91AE
:10048C0008952197CF93DF931FEF1A930E94DF00FB
:10049C00DF91CF91E8E0F0E0FA93EA9310E010835B
:1004AC001FE01A931081088101171FEF08F0112724
:1004BC00112311F00C949602182D105FE0E7F2E076
:1004CC001F730027E10FF01F10811B83E2E3F1E0A3
:1004DC00EF93FF931C81012F1127A0E1B0E0E8946A
:1004EC0045F80E9439490F931F93182D012F11279E
:1004FC003F912F91020F131FFF91EF91E00FF11F0E
:10050C00EF93FF931B81FF91EF910E946044E9816F
:10051C00FA81108113951083112311F00C94590258
:10052C002396CF93DF9310E01A930E94DF00DF91A4
:10053C00CF9108952197E8E0F0E0FA93EA9310E068
:10054C0010831FE11A931081088101171FEF08F027
:10055C001127112311F00C94D802182D105EE0E72E
:10056C00F2E01F730027E10FF01F10811B83E2E103
:10057C00F0E0EF93FF93182D012F1127FF91EF91CE
:10058C00E00FF11FEF93FF931B81FF91EF910E94FE
:10059C006044E981FA81108113951083112311F0C5
:1005AC000C94AA02239608952197E8E0F0E0FA93C0
:1005BC00EA9310E010831CE01A9310810881011754
:1005CC001FEF08F01127112311F00C940D03182DB7
:1005DC001F93E2E5F2E0EF93FF93182D012F112703
:1005EC00FF91EF91E00FF11F0E948244E0EDF2E0E9
:1005FC00AF91AF70BB27EA0FFB1F1083E981FA8123
:10060C00108113951083112311F00C94E40223969E
:10061C00E8E0F0E0FA93EA9310E010831FE01A93FD
:10062C001081088101171FEF08F01127112311F019
:10063C000C944003182D1F93E2EAF2E0EF93FF9322
:10064C00182D012F1127FF91EF91E00FF11F0E9440
:10065C008244EAE2F3E0AF91AF70BB27EA0FFB1FD5
:10066C001083E981FA81108113951083112311F005
:10067C000C9417032396E8E0F0E0FA93EA9310E069
:10068C0010831FE11A931081088101171FEF08F0E6
:10069C001127112311F00C948F03182D1F93E2E6F0
:1006AC00F2E0EF93FF93182D012F1127000F111F6C
:1006BC00FF91EF91E00FF11F0E948B44EAEEF2E004
:1006CC00AF91AF71BB27AA0FBB1FEA0FFB1F1183A2
:1006DC000083182D1F93E2E3F2E0EF93FF93182DA4
:1006EC00012F1127FF91EF91E00FF11F0E9482441F
:1006FC00E0EBF2E0AF91AF71BB27EA0FFB1F108369
:10070C00E981FA81108113951083112311F00C9457
:10071C004A0323961091DB021093BB021091DC026A
:10072C00103010E009F01FEFE894112309F06894E1
:10073C0010917A0316F910937A0310E01093DD02EE
:10074C0010E01093DE02109179031F771093790358
:10075C00109179031F7B109379030895219710E56D
:10076C001F9309811A811F93E89440F809811A811B
:10077C00102FE6E1F0E0612FA1E0B0E03F914F9146
:10078C0050E00E94A94310E51F93FE01A1E0B0E0E8
:10079C004F910E94864318810895CF93DF9310E503
:1007AC001A930A811B811A930A93FE0133968F01C7
:1007BC001A930A9310E001E01A930A930E949F4344
:1007CC00DF91CF9110E007E00E9439440895229701
:1007DC00CF93DF9310E51A930F8118851A930A9320
:1007EC00FE0135968F011A930A9310E004E01A93D8
:1007FC000A930E949F43DF91CF9110E007E00E9483
:10080C003944089513E910937A0011E00E9448448A
:10081C0013EC10937A0010917A001071103010E0E4
:10082C0009F01FEF112311F40C94110413E8109329
:10083C007A001091790010932804089510914502C4
:10084C002B981EBD1DB517FFFDCF1EB5109346028C
:10085C002B9A0895109142022B981EBD1DB517FFBF
:10086C00FDCF1EB510934402109141021EBD1DB563
:10087C0017FFFDCF1EB5109343022B9A08951091CC
:10088C003C022B981EBD1DB517FFFDCF1EB5109356
:10089C00400210913B021EBD1DB517FFFDCF1EB5CA
:1008AC0010933F0210913A021EBD1DB517FFFDCFEC
:1008BC001EB510933E02109139021EBD1DB517FFD7
:1008CC00FDCF1EB510933D022B9A0895109137025F
:1008DC0029981EBD1DB517FFFDCF109136021EBD08
:1008EC001DB517FFFDCF299A089510911C0408E03F
:1008FC00449817FD449A459A110F45980A95C1F7EB
:10090C000895E0E0F7E01081459808B117FB04F971
:10091C0008B9459A16FB04F908B9459A15FB04F970
:10092C0008B9459A14FB04F908B9459A13FB04F964
:10093C0008B9459A12FB04F908B9459A11FB04F958
:10094C0008B9459A10FB04F908B9459A4598E395FE
:10095C00D1F60895109121041EBD1DB517FFFDCFD2
:10096C001EB5109322040895289815E010932104C5
:10097C000E94B0040E94B004289A10912204089599
:10098C00289815E0109321040E94B0040E94B00432
:10099C00109122041170103010E009F41FEF112394
:1009AC0011F40C94CC04289A0895289816E010930E
:1009BC0021040E94B004289A08950E94DB04289810
:1009CC0011E0109321040E94B00410E01093210454
:1009DC000E94B004289A0E94C60408950E94DB0469
:1009EC00289811E0109321040E94B0041FE3109387
:1009FC0021040E94B004289A0E94C60408950E9403
:100A0C00DB0428983B812A811981088100932304F7
:100A1C0010932404209325043093260410E21093A1
:100A2C0021040E94B00410912504109321040E940B
:100A3C00B00410912404109321040E94B00410916E
:100A4C002304109321040E94B004289A0E94C60427
:100A5C00109122041072103010E009F01FEFE8948E
:100A6C00112309F068941091110412F910931104D8
:100A7C0000911104112702FD1FEF109508950E949B
:100A8C00DB04289817EC109321040E94B004289AD8
:100A9C000E94C604109122041072103010E009F06C
:100AAC001FEFE894112309F068941091110412F9C6
:100ABC001093110400911104112702FD1FEF1095E2
:100ACC000895219709811A8101501040102F188325
:100ADC000E94DB0428983E812D811C810B810093A0
:100AEC00230410932404209325043093260412E04D
:100AFC00109321040E94B00410912504109321043A
:100B0C000E94B00410912404109321040E94B0049C
:100B1C0010912304109321040E94B004E7E0F0E04C
:100B2C00FA93EA9310E01083EF93FF931A81FF91ED
:100B3C00EF911A931081088101171FEF08F011270C
:100B4C00112311F00C94BF05172DE0E0F7E01F7F87
:100B5C000027E10FF01F1081109321040E94B004B4
:100B6C00E981FA81108113951083112311F00C94F3
:100B7C00A1052396289A0E94C60410912204107293
:100B8C00103010E009F01FEFE894112309F068947D
:100B9C001091110412F910931104009111041127F2
:100BAC0002FD1FEF1095089521970E94C6040A813B
:100BBC001B8101501040102F18833F812E811D8105
:100BCC000C81009323041093240420932504309368
:100BDC00260428981BE0109321040E94B004109165
:100BEC002504109321040E94B00410912404109346
:100BFC0021040E94B00410912304109321040E943C
:100C0C00B00410E0109321040E94B004E7E0F0E07F
:100C1C00FA93EA9310E01083EF93FF931A81FF91FC
:100C2C00EF911A931081088101171FEF08F011271B
:100C3C00112311F00C944C060E94B0041C8111235A
:100C4C0011F40C943706172D1F9310912204E0E039
:100C5C00F6E0AF91AF7FBB27EA0FFB1F10830C941C
:100C6C004306172D1F9310912204E0E0F7E0AF919B
:100C7C00AF7FBB27EA0FFB1F1083E981FA8110813C
:100C8C0013951083112311F00C9419062396289AAE
:100C9C000895E6E3F2E0EF93FF931881FF91EF9153
:100CAC001193E7E3F2E010E011930E946C040E94B0
:100CBC00450400913D0210913E0220913F0230917B
:100CCC0040020895E6E3F2E0EF93FF931881FF9161
:100CDC00EF911193E7E3F2E010E811930E946C049A
:100CEC00E1E4F2E0EF93FF931981FF91EF911193FF
:100CFC00E2E4F2E010E011930E9430040895E6E380
:100D0C00F2E0EF93FF931881FF91EF911193E7E3DA
:100D1C00F2E010E811930E946C0409811A8100938F
:100D2C004102109342020E9430040895E6E3F2E07F
:100D3C00EF93FF931881FF91EF911193E7E3F2E0AA
:100D4C0010E811930E946C043C812B811A8109815B
:100D5C000093390210933A0220933B0230933C02E9
:100D6C000E9445040895CF93DF9310EF1A930E94CD
:100D7C004F06DF91CF9100935B0210935C0220939E
:100D8C005D0230935E02EAE0F0E00E949044009332
:100D9C005B0210935C0220935D0230935E02CF9352
:100DAC00DF9300915B0210915C0220915D02309107
:100DBC005E023A932A931A930A9310EF1A930E94A5
:100DCC009C06DF91CF91EEE0F0E00E9490440093FE
:100DDC005B0210935C0220935D0230935E02CF9312
:100DEC00DF9300915B0210915C0220915D023091C7
:100DFC005E023A932A931A930A9311EF1A930E9464
:100E0C009C06DF91CF9108952297CF93DF931FEF2C
:100E1C001A930E94DF00DF91CF911091AE021370F4
:100E2C001883E8E0F0E0FA93EA9310E0108313E003
:100E3C001A931081088101171FEF08F01127112355
:100E4C0011F00C945907182D1F931B81110F110FC2
:100E5C000F91100FEAE2F3E01F700027E10FF01F73
:100E6C0010811C83182D133010E009F41FEF11238F
:100E7C0011F40C9445071C8108E010271C83CF93B8
:100E8C00DF931C811A93182D1B5B1A930E94680622
:100E9C00DF91CF91E981FA81108113951083112391
:100EAC0011F00C942007239610E002E30E943944C1
:100EBC00CF93DF9310E01A930E94DF00DF91CF9164
:100ECC00089510E004E60E943944CF93DF9310E0BC
:100EDC001A9318E41A930E946806DF91CF9110E0E0
:100EEC0004E60E943944CF93DF931FEF1A930E94BC
:100EFC00DF00DF91CF91CF93DF930E940A07DF9140
:100F0C00CF91CF93DF9310E01A930E94DF00DF9113
:100F1C00CF9108952797CF93DF931FEF1A930E94D9
:100F2C00DF00DF91CF91E8E0F0E0FA93EA9310E074
:100F3C0010831FE11A931081088101171FEF08F02D
:100F4C001127112311F00C94CE07182DEAEEF2E0C4
:100F5C001F710027110F001FE10FF01F008111817D
:100F6C0018870F83CF93DF930F8118851A930A93F9
:100F7C00182D10561A930E948506DF91CF91E981A6
:100F8C00FA81108113951083112311F00C94A20790
:100F9C002396E8E0F0E0FA93EA9310E010831FE167
:100FAC001A931081088101171FEF08F011271123E4
:100FBC0011F00C94FE07182DE0EBF2E01F710027E6
:100FCC00E10FF01F10811987CF93DF9319851A93C6
:100FDC00182D10541A930E946806DF91CF91E98165
:100FEC00FA81108113951083112311F00C94D807FA
:100FFC002396CF93DF9310E01A9317EF1A930E9466
:10100C006806DF91CF91FE013496FA93EA9310E0D3
:10101C0000E01183008311E00FEF1A930A93A08173
:10102C00B18128813981B31709F4A21710E011F0AE
:10103C0008F01FEF112311F00C945A08EBEDF2E0BD
:10104C00EF93FF9308851985000F111FFF91EF9106
:10105C00E00FF11F0E948B4417FF03C03FEF2FEFEF
:10106C0002C0332722273F832E831D830C83CF930B
:10107C00DF933F812E811D810C813A932A931A9321
:10108C000A9316EF1A930E949C06DF91CF91EA8186
:10109C00FB81A081B1811196A083B183BB2311F494
:1010AC00AA2311F00C9417082496CF93DF93109178
:1010BC00B9021A9319E41A930E946806DF91CF9132
:1010CC00CF93DF9310E01A930E94DF00DF91CF9152
:1010DC0008951DE00E9409441AE00E9409440895F5
:1010EC0013E20E94094410913302105D0E940944DE
:1010FC001AE30E940944CF93DF9318E0412A09E0D8
:10110C0014E41A930A930091530210915402CF9352
:10111C00DF931A930A9310E01A9310E01A9310E2DB
:10112C001A93689443F8689445F8E89454F855F881
:10113C000E946448DF91CF91DF91CF911DE30E9413
:10114C0009440895CF93DF9318E0412A09E014E491
:10115C001A930A93E5ECF3E00E941346DF91CF91CA
:10116C000E946F080895229710916202112311F4C6
:10117C000C94CE0816E00E9409441A810E9409447E
:10118C0010E00E94094410E00E9409440C941209DA
:10119C0010E00FEF00935302109354020E94760854
:1011AC00CF93DF9318E0412A09E014E41A930A93D1
:1011BC001C81CF93DF931A9310E01A9310E01A93CB
:1011CC0010E21A93689443F80E942B46DF91CF915A
:1011DC00DF91CF9110E20E940944CF93DF9318E086
:1011EC00412A09E014E41A930A93ECE5F7E9EF932A
:1011FC00FF931C81012F1127ADE0B0E0E89445F876
:10120C000E943949FF91EF91E00FF11F0E940A46AD
:10121C00DF91CF910E946F0808950E947608CF93BA
:10122C00DF9318E0412A09E014E41A930A93ECE9DD
:10123C00F3E00E941346DF91CF910E946F0808954E
:10124C0010916202112311F40C94410916E00E94D2
:10125C00094410E00E94094400915802109159026F
:10126C000E9409440091580210915902102F0E94BB
:10127C0009440C947809ECE9F3E0EF93FF93319671
:10128C00FA93EA9318E21A9317EF41221FEB4122CB
:10129C0000915B0210915C0220915D0230915E0224
:1012AC00CF93DF933A932A931A930A9310E01A93ED
:1012BC0010E01A9310E21A93689445F8E89454F8E5
:1012CC0055F842F80E946B46DF91CF9118E21F93BC
:1012DC0018810F91011B102FFF91EF911083239612
:1012EC000E9413090895009158021091590217FF9A
:1012FC0003C03FEF2FEF02C03327222700935B027E
:10130C0010935C0220935D0230935E020E942609CA
:10131C00089510916102012F112700935802109328
:10132C0059020E94790908950E947608ECE9F3E0CD
:10133C00EF93FF933196FA93EA9318E21A9317EF0F
:10134C0041221FEB412200915B0210915C02209123
:10135C005D0230915E02CF93DF933A932A931A93F6
:10136C000A9310E01A9310E01A9310E21A936894FF
:10137C0045F8E89454F855F842F80E946B46DF9112
:10138C00CF9118E21F9318810F91011B102FFF9121
:10139C00EF9110832396CF93DF9318E0412A09E055
:1013AC0014E41A930A93ECE9F3E00E941346DF91DC
:1013BC00CF9110E20E9409441BE50E94094414E2FB
:1013CC000E940944ECE9F3E0EF93FF933196FA9312
:1013DC00EA9318E21A9317EF41221FEB4122009176
:1013EC005B0210915C0220915D0230915E02B801AB
:1013FC00C901492F0E94D348482F0E94D348472F38
:10140C000E94D348462F0E94D34818E21F9318819C
:10141C000F91011B102FFF91EF9110832396CF9307
:10142C00DF9318E0412A09E014E41A930A93ECE9DB
:10143C00F3E00E941346DF91CF911DE50E94094411
:10144C000E946F0808950E947608ECE9F3E0EF9390
:10145C00FF933196FA93EA9318E21A9317EF41220D
:10146C001FEB412200915B0210915C0220915D0206
:10147C0030915E02CF93DF933A932A931A930A9397
:10148C0010E01A9310E01A9310E21A93689445F83E
:10149C00E89454F855F842F80E946B46DF91CF91CE
:1014AC0018E21F9318810F91011B102FFF91EF91E0
:1014BC0010832396CF93DF9318E0412A09E014E4BC
:1014CC001A930A93ECE9F3E00E941346DF91CF9153
:1014DC00CF93DF9318E0412A09E014E41A930A939E
:1014EC00E1E7F4E90E940A46DF91CF91CF93DF93B5
:1014FC0018E0412A09E014E41A930A93E5EEF3E0AC
:10150C000E941346DF91CF911DE50E9409440E9471
:10151C006F0808950E94BA041F7E103010E009F085
:10152C001FEF112311F40C94B60A0E947608CF9386
:10153C00DF9318E0412A09E014E41A930A93E4E7D4
:10154C00F4E90E940A461DE00E94E0481AE00E945D
:10155C00E048DF91CF911FEF0C94B90A0C94B90AB3
:10156C0010E00C94B90A089510910704112311F49A
:10157C000C94F70ACF93DF9310E01A9310E01A93B0
:10158C0010E01A930E948A42DF91CF91CF93DF93A0
:10159C0018E0412A04E612E41A930A93ECE8F4E901
:1015AC000E940A46DF91CF91CF93DF9310E01A93FC
:1015BC0010E01A9311E01A930E948A42DF91CF91A6
:1015CC00CF93DF9318E0412A04E612E41A930A93AE
:1015DC00E5E9F4E90E940A46DF91CF9110E00E9400
:1015EC00AB42089510910704112311F40C941A0BBB
:1015FC00CF93DF9310E01A9310E01A9311E01A9333
:10160C000E948A42DF91CF91CF93DF9318E0412A59
:10161C0004E612E41A930A93EEE9F4E90E940A46EE
:10162C00DF91CF910C941E0B10E002E00E94394424
:10163C00089510910704112311F40C94550BCF93BA
:10164C00DF9310E01A9310E01A9311E01A930E94A2
:10165C008A42DF91CF91CF93DF9318E0412A04E6C1
:10166C0012E41A930A93E7EAF4E90E940A46DF911E
:10167C00CF91CF93DF9310E01A9310E01A9310E000
:10168C001A930E948A42DF91CF9110E00E94AB42E4
:10169C0010E004E6E8E4F2E0B1E00E94F1490895BC
:1016AC001127062D017009F41095112311F40C94D7
:1016BC00B20B10E004E6E8E4F2E0B1E00E94F1497C
:1016CC0010910704112311F40C94A50BCF93DF9305
:1016DC0010E01A9310E01A9310E01A930E948A42B9
:1016EC00DF91CF91CF93DF9318E0412A04E612E407
:1016FC001A930A930091170410911804209119045D
:10170C0030911A04CF93DF933A932A931A930A9346
:10171C0018E01A9300E00A9310E21A93689443F8C5
:10172C00689445F8E89454F855F842F80E946B46D2
:10173C00DF91CF91DF91CF9110E00E94AB42CF931C
:10174C00DF9318E0412A09E014E41A930A931EE28D
:10175C000E94E048DF91CF9108952497CF93DF93B7
:10176C0013E01A930E944F06DF91CF9100913D0236
:10177C0010913E0220913F02309140023B832A831C
:10178C0019830883CF93DF9318E0412A09E014E40E
:10179C001A930A93E0EBF4E90E940A46DF91CF9189
:1017AC00CF93DF9318E0412A09E014E41A930A93CB
:1017BC003D812C811B810A81689443F8B801C901D1
:1017CC00492F0E94D348482F0E94D348472F0E948C
:1017DC00D348462F0E94D348DF91CF91CF93DF930C
:1017EC0018E0412A09E014E41A930A93E9E6F4E9B3
:1017FC000E940A46DF91CF910E946F0808952897A6
:10180C001AE314B91FE915B910E717B91FEC18B989
:10181C00109111041B7F10931104469815E00E943F
:10182C004844469A15E00E94484410E317B916E262
:10183C0006EB009353021093540211E004EF0E9444
:10184C0039441BEB14B91FE915B90E94760811270E
:10185C0037991FEF112311F40C94440CCF93DF93A1
:10186C0018E0412A09E014E41A930A93EDEBF4E929
:10187C000E940A46DF91CF910C94570CCF93DF93C3
:10188C0018E0412A09E014E41A930A93EDECF4E908
:10189C000E940A46DF91CF911091110414601093AD
:1018AC0011040E94B906CF93DF930E94B30BDF9112
:1018BC00CF910895E7E3F2E010E81193E6E3F2E04C
:1018CC00EF93FF9310911E041F5FFF91EF91119303
:1018DC000E946C0410911F04109345020E94240472
:1018EC00E6E3F2E010911E0411930E946C0408953B
:1018FC00E7E3F2E010E81193E6E3F2E0EF93FF93F5
:10190C0010911E041F5FFF91EF9111930E946C04C4
:10191C0010911F04109345020E94240408956597AA
:10192C000E947608CF93DF9318E0412A09E014E473
:10193C001A930A93EDEEF4E90E940A461DE00E9408
:10194C00E0481AE00E94E048DF91CF9110E01A873E
:10195C0010E0188710E01C8B10E0198B1FEF188B10
:10196C0000E010E020E030E000931704109318041E
:10197C002093190430931A0410E000E01C870B87A5
:10198C000E94BA0A10E000E01983088310E000E01E
:10199C001B830A83388D2F891E890D893F832E83E3
:1019AC001D830C831A851095112311F40C94470D8B
:1019BC0010E000E01C870B8711275A991FEF109538
:1019CC00E894112309F068941BB112F91BB9CF9359
:1019DC00DF93FE017496FA93EA9314E61A930E942D
:1019EC00D243DF91CF911A871A85112311F40C94ED
:1019FC00180D1C89113010E009F41FEF1F931C897E
:101A0C00143010E009F41FEF0F91102B112311F477
:101A1C000C94160D10E000E01C870B870C94470DFE
:101A2C000C94220D15E10E940944FE013B96A08105
:101A3C00B1811196A083B1831C89113010E009F497
:101A4C001FEF1F931C89143010E009F41FEF0F9146
:101A5C00102B1F931C89183110E009F41FEF0F9104
:101A6C00102B1F930B851C85103009F4043110E0EA
:101A7C0011F008F01FEF0F91102B112311F40C949F
:101A8C00ED0C18851095112311F40C94510D0E9436
:101A9C00F80A1FEF18871C89113010E009F41FEFAA
:101AAC00112311F40C94830ECF93DF93FE017396E4
:101ABC00FA93EA9314E61A930E94D243DF91CF91E2
:101ACC0019871985112311F40C947D0ECF93DF9394
:101ADC00FE017296FA93EA931AE01A930E94D2438B
:101AEC00DF91CF9119871B890FEF011B102F1F93CB
:101AFC001A890F91011710E009F41FEF112311F44B
:101B0C000C947B0E10E0198BE8E0F0E0FA93EA936A
:101B1C0010E010831FE71A931081088101171FEF43
:101B2C0008F01127112311F00C94C30DCF93DF9300
:101B3C00EAE0F0E0FA93EA931AE01A930E94D24397
:101B4C00DF91CF911C871C891F931A2D0F91100FB9
:101B5C001C8B182D1F931A2DE0E0F7E0AF91AF7F8F
:101B6C00BB27EA0FFB1F1083E981FA8110811395C3
:101B7C001083112311F00C94930D2396CF93DF93C4
:101B8C00FE017096FA93EA931AE01A930E94D243DC
:101B9C00DF91CF911987CF93DF933F812E811D81E8
:101BAC000C813A932A931A930A9310E000E81A9343
:101BBC000A930E946705DF91CF911095112311F4C0
:101BCC000C94EF0DFE013296A081B1811196A08389
:101BDC00B183CF93DF933F812E811D810C813A938A
:101BEC002A931A930A9310E000E81A930A931FEFB2
:101BFC001A930E94DA05DF91CF91E8E0F0E0FA93B6
:101C0C00EA9310E010831FE71A93108108810117E3
:101C1C001FEF08F01127112311F00C943F0E182D13
:101C2C00E0E0F6E01F7F0027E10FF01F10811F930B
:101C3C00182DE0E0F7E01F7F0027E10FF01F108167
:101C4C000F91011710E009F01FEF112311F40C9400
:101C5C00360EFE013396A081B1811196A083B1831B
:101C6C00E981FA81108113951083112311F00C94E2
:101C7C000C0E239619891F9318890F91011710E0E8
:101C8C0009F41FEF112311F40C94710E16E00E944D
:101C9C0009443F812E811D810C8100581F4F2F4F0D
:101CAC003F4F3F832E831D830C83009117041091AB
:101CBC0018042091190430911A0400581F4F2F4F0B
:101CCC003F4F00931704109318042093190430937A
:101CDC001A040C947B0EFE013B96A081B1811196E7
:101CEC00A083B18315E10E9409440C94810E10E08D
:101CFC000FEF1C870B8710E01C8B10E01A871C89D8
:101D0C00143010E009F41FEF1F931C89183110E0F8
:101D1C0009F41FEF0F91102B1F930B851C851030AE
:101D2C0009F4043110E011F008F01FEF0F91102BA3
:101D3C00112311F40C94D80C16E00E940944188954
:101D4C001F9319890F91011710E009F01FEF112350
:101D5C0011F40C94D50E0FEF1FEF2FEF3FEF009304
:101D6C005B0210935C0220935D0230935E020E9432
:101D7C007608CF93DF9318E0412A09E014E41A9314
:101D8C000A93E0E0F5E90E940A461DE00E94E04853
:101D9C001AE00E94E048DF91CF910C94E50E00917F
:101DAC001704109118042091190430911A0400930F
:101DBC005B0210935C0220935D0230935E020881FB
:101DCC001981103009F4003010E009F01FEF1123D5
:101DDC0011F40C94420F0FEF1FEF2FEF3FEF009316
:101DEC005B0210935C0220935D0230935E020E94B2
:101DFC007608CF93DF9318E0412A09E014E41A9394
:101E0C000A93EBE1F5E90E940A46DF91CF91CF935B
:101E1C00DF9318E0412A09E014E41A930A930A812B
:101E2C001B81CF93DF931A930A9310E01A9310E05F
:101E3C001A9310E21A93689443F8E89445F8E894DE
:101E4C0054F855F80E946448DF91CF91DF91CF91FF
:101E5C00CF93DF9318E0412A09E014E41A930A9314
:101E6C00E1E3F5E90E940A461DE00E94E0481AE011
:101E7C000E94E048DF91CF910A811B81103009F458
:101E8C00003010E009F01FEF112311F40C949F0F98
:101E9C000FEF1FEF2FEF3FEF00935B0210935C02ED
:101EAC0020935D0230935E020E947608CF93DF93FD
:101EBC0018E0412A09E014E41A930A93E2E4F5E9E4
:101ECC000E940A46DF91CF91CF93DF9318E0412A0D
:101EDC0009E014E41A930A930C811D81CF93DF93CC
:101EEC001A930A9310E01A9310E01A9310E21A93C3
:101EFC00689443F8E89445F8E89454F855F80E942F
:101F0C006448DF91CF91DF91CF91CF93DF9318E0AD
:101F1C00412A09E014E41A930A93E1E3F5E90E94DB
:101F2C000A461DE00E94E0481AE00E94E048DF915A
:101F3C00CF9108952297CF93DF9312E01A930E94CA
:101F4C004F06DF91CF9111271A991FEF112311F42E
:101F5C000C94A10F10913F021A3A10E009F41FEFF4
:101F6C00112311F40C94841010913D02103511F0D2
:101F7C000C94D00FCF93DF9318E0412A09E014E4BE
:101F8C001A930A93E7E5F5E90E940A46DF91CF918F
:101F9C000C945310113511F00C94E40FCF93DF9384
:101FAC0018E0412A09E014E41A930A93E8E6F5E9EB
:101FBC000E940A46DF91CF910C945310123511F008
:101FCC000C94F80FCF93DF9318E0412A09E014E446
:101FDC001A930A93E6E7F5E90E940A46DF91CF913E
:101FEC000C945310133511F00C940C10CF93DF9309
:101FFC0018E0412A09E014E41A930A93E0E8F5E9A1
:10200C000E940A46DF91CF910C945310143511F0B5
:10201C000C942010CF93DF9318E0412A09E014E4CC
:10202C001A930A93EEE8F5E90E940A46DF91CF91E4
:10203C000C9453101F3511F00C943410CF93DF9384
:10204C0018E0412A09E014E41A930A93ECE9F5E943
:10205C000E940A46DF91CF910C945310CF93DF93DB
:10206C0018E0412A09E014E41A930A93E5EAF5E929
:10207C000E940A46DF91CF91CF93DF9318E0412A5B
:10208C0009E014E41A930A9310913D02689443F802
:10209C00412F0E94D348DF91CF91CF93DF9318E06B
:1020AC00412A09E014E41A930A93E0EBF5E90E9443
:1020BC000A46DF91CF91CF93DF9318E0412A09E0D4
:1020CC0014E41A930A9310913E02689443F8412F3A
:1020DC000E94D348DF91CF91CF93DF9318E0412A30
:1020EC0009E014E41A930A93E9E6F4E90E940A461B
:1020FC00DF91CF910E946F080C949410CF93DF93D3
:10210C0018E0412A09E014E41A930A93ECEBF5E980
:10211C000E940A46DF91CF910E946F08089525977F
:10212C000E9476081E81145510931F040E94600CA7
:10213C00CF93DF9318E0412A09E014E41A930A9331
:10214C0010911F04CF93DF931A9310E01A9310E0B1
:10215C001A9310E21A93689443F80E942B46DF916D
:10216C00CF91DF91CF91CF93DF9318E0412A09E013
:10217C0014E41A930A93E2EDF5E90E940A46DF9102
:10218C00CF911E81012F11273327222740E050E1E8
:10219C0060E070E0689445F80E9495493C832B837D
:1021AC001A83098300E010E020E030E0009317046C
:1021BC00109318042093190430931A04E8E0F0E00B
:1021CC00FA93EA9310E010831FE01A9310810881B0
:1021DC0001171FEF08F01127112311F00C94BF11F8
:1021EC00CF93DF933F812E811D810C813A932A93EB
:1021FC001A930A9311E000E01A930A9310E01A93D1
:10220C000E94DA05DF91CF911885112311F40C94FB
:10221C004611EAE0F0E0FA93EA9310E010831FEF26
:10222C001A931081088101171FEF08F01127112351
:10223C0011F00C9443111A2DE0E0F7E01F7F0027FA
:10224C00E10FF01F10811E83CF93DF9318E0412A1A
:10225C0009E014E41A930A931885689443F8412F03
:10226C000E94D348DF91CF91E981FA8110811395B7
:10227C001083112311F00C94181123960C945D11FA
:10228C00182D1170113010E009F41FEF112311F407
:10229C000C945D11CF93DF9318E0412A09E014E40C
:1022AC001A930A931EE20E94E048DF91CF91EAE074
:1022BC00F0E0FA93EA9310E010831FE31A93108175
:1022CC00088101171FEF08F01127112311F00C944E
:1022DC009511E0E0F7E0EF93FF931A2D012F1127F2
:1022EC00000F111F000F111FFF91EF91E00FF11F55
:1022FC0001911191219131910093390210933A027D
:10230C0020933B0230933C020E944504E981FA8100
:10231C00108113951083112311F00C9466112396E0
:10232C003F812E811D810C8100501F4F2F4F3F4F3D
:10233C003F832E831D830C83009117041091180486
:10234C002091190430911A0400501F4F2F4F3F4F0A
:10235C0000931704109318042093190430931A0453
:10236C00E981FA81108113951083112311F00C94DB
:10237C00ED1023960E947E0C0E94560B11E004EF88
:10238C00E8E4F2E0B1E00E94F149009117041091E9
:10239C0018042091190430911A0400935B021093D5
:1023AC005C0220935D0230935E021FEF1093850355
:1023BC0010E002E30E943944CF93DF930E94A00FF8
:1023CC00DF91CF9108952D970E947608CF93DF93DC
:1023DC0018E0412A09E014E41A930A931F85CF935D
:1023EC00DF931A9310E01A9310E01A9310E21A93E9
:1023FC00689443F80E942B46DF91CF91DF91CF91E7
:10240C00CF93DF9318E0412A09E014E41A930A935E
:10241C00E2EEF5E90E940A46DF91CF91CF93DF936C
:10242C0010E01A9318E41A930E946806DF91CF917A
:10243C0010E004E60E9439441D851C5A012F112717
:10244C003327222740E050E160E070E0689445F8C3
:10245C000E9495493C872B871A87098710E000E07A
:10246C0018870F8310E000E019830883E8E0F0E0A0
:10247C00FA93EA9310E010831FE01A9310810881FD
:10248C0001171FEF08F01127112311F00C944013C2
:10249C00CF93DF933F852E851D850C853A932A9328
:1024AC001A930A9311E000E01A930A9310E01A931E
:1024BC000E94DA05DF91CF9110E000E01E830D83BE
:1024CC0010E000E01C830B830A851B8519870887A5
:1024DC00EAE0F0E0FA93EA9310E0108317E01A9325
:1024EC001081088101171FEF08F01127112311F03B
:1024FC000C94B512CF93DF9310E51A930E851F85BC
:10250C001A930A9317E000E00F931F930B851C8519
:10251C003F912F91020F131F1A930A9310E000E2C0
:10252C001A930A930E949F43DF91CF9110E00AE027
:10253C000E94394408851985005E1F4F198708874A
:10254C000D851E85005E1F4F1E870D87E981FA8160
:10255C00108113951083112311F00C94771223968C
:10256C0010E51F93088519851F93E89440F808859A
:10257C001985102FE6E1F0E0612FA1E0B0E03F916A
:10258C004F9150E00E94A943CF93DF9310E51A932B
:10259C0016E000E01A930A9311E000E01A930A93F4
:1025AC000E948143DF91CF91EAE0F0E0FA93EA9345
:1025BC0010E010831FEF1A931081088101171FEF91
:1025CC0008F01127112311F00C9416131A2DE0E0CA
:1025DC00F7E01F7F0027E10FF01F10811F931A2DCA
:1025EC00E0E0F6E01F7F0027E10FF01F10810F9154
:1025FC00011710E009F01FEF112311F40C940D13C7
:10260C00FE013696A081B1811196A083B183E98138
:10261C00FA81108113951083112311F00C94E3129D
:10262C0023960B811C81103009F4003010E009F462
:10263C001FEF112311F40C9428131EE20E9409447D
:10264C000C942B1313E20E9409443F852E851D85A3
:10265C000C8500501F4F2F4F3F4F3F872E871D87F4
:10266C000C87E981FA81108113951083112311F0E5
:10267C000C9445122396CF93DF9318E0412A09E07E
:10268C0014E41A930A931DE50E94E0481DE00E9491
:10269C00E0481AE00E94E048DF91CF9111E004EF8E
:1026AC00E8E4F2E0B1E00E94F149009117041091C6
:1026BC0018042091190430911A0400935B021093B2
:1026CC005C0220935D0230935E021FEF1093850332
:1026DC00CF93DF930E940A07DF91CF910881198174
:1026EC00103009F4003010E009F01FEF112311F441
:1026FC000C94C5130E947608CF93DF9318E0412AFF
:10270C0009E014E41A930A93E1E0F6E90E940A4600
:10271C00DF91CF91CF93DF9318E0412A09E014E4C5
:10272C001A930A930A811B81CF93DF931A930A930E
:10273C0010E01A9310E01A9310E21A93689443F87D
:10274C00E89445F8E89454F855F80E946448DF91F1
:10275C00CF91DF91CF91CF93DF9318E0412A09E01D
:10276C0014E41A930A93E1E3F5E90E940A461DE08A
:10277C000E94E0481AE00E94E048DF91CF91089552
:10278C000E947608CF93DF9318E0412A09E014E405
:10279C001A930A93EBE1F6E90E940A46DF91CF9176
:1027AC000E946F0810910A04112311F40C940F1459
:1027BC0001E010E020E030E000935B0210935C023B
:1027CC0020935D0230935E02E5EEF3E0EF93FF930E
:1027DC003196FA93EA931FE11A9317EF41221FEBFC
:1027EC004122E8E2F6E90E940A461FE11F93188194
:1027FC000F91011B102FFF91EF91108323960E94D4
:10280C00290ACF93DF9312E61A930E947600DF9188
:10281C00CF9110910804112311F40C94461402E08A
:10282C0010E020E030E000935B0210935C022093F8
:10283C005D0230935E02E5EEF3E0EF93FF93319689
:10284C00FA93EA931FE11A9317EF41221FEB4122EF
:10285C00E8E3F6E90E940A461FE11F9318810F91E5
:10286C00011B102FFF91EF91108323960E94290AD0
:10287C00CF93DF9310E61A930E947600DF91CF91ED
:10288C0010910904112311F40C947D1403E010E051
:10289C0020E030E000935B0210935C0220935D0219
:1028AC0030935E02E5EEF3E0EF93FF933196FA93EB
:1028BC00EA931FE11A9317EF41221FEB4122ECE43C
:1028CC00F6E90E940A461FE11F9318810F91011B24
:1028DC00102FFF91EF91108323960E94290ACF931A
:1028EC00DF9311E61A930E947600DF91CF9100E0FE
:1028FC0010E020E030E000937E0310937F032093E0
:10290C0080033093810310910D04112311F40C9466
:10291C00B81404E010E020E030E000935B02109368
:10292C005C0220935D0230935E02E5EEF3E0EF93E0
:10293C00FF933196FA93EA931FE11A9317EF412212
:10294C001FEB4122E0E6F6E90E940A461FE11F93C5
:10295C0018810F91011B102FFF91EF91108323967B
:10296C000E94290A10910C04112311F40C94ED14FB
:10297C0010E8109548E333E00E94EE4205E010E0C9
:10298C0020E030E000935B0210935C0220935D0228
:10299C0030935E02E5EEF3E0EF93FF933196FA93FA
:1029AC00EA931FE11A9317EF41221FEB4122E1E753
:1029BC00F6E90E940A461FE11F9318810F91011B33
:1029CC00102FFF91EF91108323960E94290A1091EA
:1029DC000704112311F40C941C1506E010E020E000
:1029EC0030E000935B0210935C0220935D02309305
:1029FC005E02E5EEF3E0EF93FF933196FA93EA93E0
:102A0C001FE11A9317EF41221FEB4122E4E8F6E98C
:102A1C000E940A461FE11F9318810F91011B102F72
:102A2C00FF91EF91108323960E94290A0E94760849
:102A3C00CF93DF9318E0412A09E014E41A930A9328
:102A4C00E0E9F6E90E940A46DF91CF910E946F08F7
:102A5C00089521970091A502112701FD1FEF112365
:102A6C0011F40C943B150C949A15009179031127D1
:102A7C0004FD1FEF10937A0200917903112700FDDA
:102A8C001FEF10937B0200917903112701FD1FEFBB
:102A9C0010937C0200917903112702FD1FEF109314
:102AAC007D0200917903112703FD1FEF10937E0225
:102ABC0010E0188300917B03112700FD1FEF1123F9
:102ACC0011F40C946B1511E0188300917B03112702
:102ADC0001FD1FEF112311F40C94761512E01883ED
:102AEC0000917B03112702FD1FEF112311F40C94AD
:102AFC00811513E0188300917B03112703FD1FEF51
:102B0C00112311F40C948C1514E0188300917B03A1
:102B1C00112704FD1FEF112311F40C94971515E0E8
:102B2C001883188110937902089521970091A502BA
:102B3C00112701FD1FEF112311F40C94A7150C9410
:102B4C00AE1500917903112705FD1FEF10938D022F
:102B5C00089500917903112707FD1FEF1F93109122
:102B6C00DD020F91102B1F93112732991FEF109537
:102B7C000F9110271093E20200917903112706FDA3
:102B8C001FEF1F931091DE020F91102B1F93112733
:102B9C0033991FEF10950F9110271093E3021091AA
:102BAC00E2021F931091E3020F911023E89411237A
:102BBC0009F068941091E00211F91093E002109161
:102BCC00E20210951F931091E3020F911023E894E9
:102BDC00112309F068941091E00210F91093E002AF
:102BEC001091E0021F931091AD020F9110271093DA
:102BFC00E102CF93DF9311E21A9313E01A9312E0E0
:102C0C0001EE1A930A9310E001E01A930A930E94C2
:102C1C009543DF91CF910091A502112701FD1FEF84
:102C2C001095112311F40C943A1610E01093AE0287
:102C3C0000917A03112704FD1FEF112311F40C945A
:102C4C002C161091AE0213951093AE0200917A03DC
:102C5C00112705FD1FEF112311F40C943A16109156
:102C6C00AE021E5F1093AE02089521970091A5024B
:102C7C00112701FD1FEF112311F40C9447160C942E
:102C8C008F1610E000E00093660210936702E8E0F4
:102C9C00F0E0FA93EA9310E0108318E01A93108195
:102CAC00088101171FEF08F01127112311F00C9464
:102CBC008E16182DE9E2F4E01F710027E10FF01FCA
:102CCC00108116951B83182D1F931B81E0E7F2E0F2
:102CDC00AF91AF73BB27EA0FFB1F10830091660205
:102CEC00109167020F931F931B81012F11273F91A6
:102CFC002F91020F131F0093660210936702E98154
:102D0C00FA81108113951083112311F00C9456162F
:102D1C002396089521970091A502112701FD1FEF1D
:102D2C00112311F40C949C160C94E61610E000E0A0
:102D3C0000936A0210936B02E8E0F0E0FA93EA93D6
:102D4C0010E0108318E01A931081088101171FEF0F
:102D5C0008F01127112311F00C94E516182D145FAF
:102D6C00E9E2F4E01F710027E10FF01F10811695C6
:102D7C001B83182D105F1F931B81E0E7F2E0AF91CE
:102D8C00AF73BB27EA0FFB1F108300916A021091EF
:102D9C006B020F931F931B81012F11273F912F91D2
:102DAC00020F131F00936A0210936B02E981FA81E0
:102DBC00108113951083112311F00C94AB162396EC
:102DCC00089521970091A502112701FD1FEF1123F2
:102DDC0011F40C94F3160C944C1715E1E9E2F4E0A1
:102DEC001F710027E10FF01F1081169510938902B7
:102DFC0010918902169510938A0216E1E9E2F4E02B
:102E0C001F710027E10FF01F1081169510938B0294
:102E1C0017E1E9E2F4E01F710027E10FF01F1081C8
:102E2C001695169518831881EEEEF7E91F73002797
:102E3C00E10FF01F149110938C0210918902103243
:102E4C001FEF08F011271F9310918B0210321FEF08
:102E5C0008F011270F911023112311F40C943B1738
:102E6C0010918C021A9510938C0200917A03112701
:102E7C0007FD1FEF112311F40C94491713E0109365
:102E8C008E020C944C1710E010938E020895259727
:102E9C00CF93DF9310E01A930E944F06DF91CF91EE
:102EAC0010913D021F7010936F0310913D0212950B
:102EBC001F7010937003109170031F9310916F0388
:102ECC000F91011710E011F008F01FEF1093710330
:102EDC00CF93DF93109189021A9319E21A930E94EF
:102EEC006806DF91CF91CF93DF9310918A021A93EA
:102EFC001AE21A930E946806DF91CF91CF93DF9369
:102F0C0010918B021A931BE21A930E946806DF91B0
:102F1C00CF91CF93DF9310918C021A931CE21A93EA
:102F2C000E946806DF91CF911091A40217701F9335
:102F3C0010918E02110F110F110F110F0F91102BF9
:102F4C001A83CF93DF931A811A931BE01A930E9472
:102F5C006806DF91CF9110917B021F9310917C0238
:102F6C0010950F9110231F931091AB020F9110230A
:102F7C00112311F40C94F717E8E0F0E0FA93EA93BC
:102F8C0010E0108317E01A931081088101171FEFCE
:102F9C0008F01127112311F00C94F417182D105F61
:102FAC001F83182DE0E7F2E01F730027E10FF01FDD
:102FBC00108116951D83CF93DF931D811A9318856D
:102FCC001A930E946806DF91CF91E981FA811081F2
:102FDC0013951083112311F00C94CB1723960C949A
:102FEC002918E8E0F0E0FA93EA9310E0108317E078
:102FFC001A931081088101171FEF08F01127112374
:10300C0011F00C942818182D105F1F83182DE0E771
:10301C00F2E01F730027E10FF01F10811D83CF9387
:10302C00DF931D811A9318851A930E946806DF910D
:10303C00CF91E981FA81108113951083112311F03E
:10304C000C9400182396E8E0F0E0FA93EA9310E170
:10305C00108318E11A931081088101171FEF08F0F3
:10306C001127112311F00C945A18182D105F1F837F
:10307C00182DE0E7F2E01F730027E10FF01F10811D
:10308C001D83CF93DF931D811A9318851A930E9489
:10309C006806DF91CF91E981FA8110811395108335
:1030AC00112311F00C943218239610917B021123EA
:1030BC0011F40C94F2181091AB02112311F40C942E
:1030CC007318CF93DF9310E01A9318E11A930E94B0
:1030DC006806DF91CF910C94981810917C02112303
:1030EC0011F40C94841818E0E0E7F2E01F73002749
:1030FC00E10FF01F10811A830C948E1818E0E0E792
:10310C00F2E01F730027E10FF01F108116951A8350
:10311C00CF93DF931A811A9318E11A930E946806D1
:10312C00DF91CF9110917E02112311F40C94AA1807
:10313C00CF93DF9311E01A931BE11A930E94680658
:10314C00DF91CF910C94B418CF93DF9310E01A93C6
:10315C001BE11A930E946806DF91CF9110917C02BB
:10316C00112311F40C94C718CF93DF9310919D0287
:10317C001A931AE11A930E946806DF91CF910C946E
:10318C00D218CF93DF9310919C021A931AE11A93E1
:10319C000E946806DF91CF9110917D02112311F4EA
:1031AC000C94E518CF93DF9310919F021A9319E1B9
:1031BC001A930E946806DF91CF910C94F018CF936C
:1031CC00DF9310919E021A9319E11A930E946806DC
:1031DC00DF91CF910C940F1918E0E0E7F2E01F7328
:1031EC000027E10FF01F10811A83CF93DF931A8110
:1031FC001A9318E11A930E946806DF91CF91CF932E
:10320C00DF9310E01A931AE11A930E946806DF917B
:10321C00CF9110E01A8310917A02112311F40C94BF
:10322C001C19FE01329610811395108310918D029A
:10323C00112311F40C942C19FE0132961081139564
:10324C001083FE013296108113951083CF93DF9378
:10325C001A811A931DE01A930E946806DF91CF9190
:10326C0010917902103011F00C943E190C944819FD
:10327C00123011F00C9444190C944819143011F0BC
:10328C000C945E19CF93DF9312ED1A9315E01A93F9
:10329C000E946806DF91CF91CF93DF9310E01A93D1
:1032AC0016E01A930E946806DF91CF910C94861950
:1032BC00113011F00C9464190C946E19133011F038
:1032CC000C946A190C946E19153011F00C94861923
:1032DC00CF93DF93109199021A9315E01A930E94E1
:1032EC006806DF91CF91CF93DF93109198021A93D8
:1032FC0016E01A930E946806DF91CF910C94861900
:10330C0010917902103011F00C948E190C949219C2
:10331C00113011F00C94AA19CF93DF9310919202F3
:10332C001A9318E01A930E946806DF91CF91CF93FD
:10333C00DF93109195021A9314E01A930E94680679
:10334C00DF91CF910C94EE19123011F00C94B0194E
:10335C000C94B419133011F00C94CC19CF93DF9357
:10336C00109193021A9318E01A930E946806DF9149
:10337C00CF91CF93DF93109196021A9314E01A9386
:10338C000E946806DF91CF910C94EE19143011F065
:10339C000C94D2190C94D619153011F00C94EE191A
:1033AC00CF93DF93109194021A9318E01A930E9412
:1033BC006806DF91CF91CF93DF93109197021A9308
:1033CC0014E01A930E946806DF91CF910C94EE19C9
:1033DC001091E7021F931091AE020F91011710E0AC
:1033EC0009F01FEF1F93109186030F91102B1123DF
:1033FC0011F40C940E1ACF93DF930E940A07DF91FD
:10340C00CF911091AE021093E70210E01093860357
:10341C0010918503112311F40C94621ACF93DF934E
:10342C001091AC0211701A9317E01A930E9468065F
:10343C00DF91CF9110919A0213701F9310919B0200
:10344C00110F110F110F110F0F91102B1A83CF9316
:10345C00DF931A811A9319E01A930E946806DF9180
:10346C00CF911091A0021F931091A20225E00E940F
:10347C001F490F91102B1F931091A10226E00E945F
:10348C001F490F91102B1A83CF93DF931A811A9334
:10349C001CE01A930E946806DF91CF91CF93DF93C3
:1034AC001091A5021A931EE01A930E946806DF91F0
:1034BC00CF9110E010938503089524970091530247
:1034CC0010915402D8012AE030E0689445F80E942B
:1034DC005B498F01507821F0019509F41A951095EC
:1034EC00102F1A830091530210915402689442F8E1
:1034FC00A0E0B0E05FEF0E94044A55233AF4A9EF34
:10350C00B0E055270E94044A55230AF418C0CF9303
:10351C00DF930091530210915402102F1A930E94C2
:10352C004F06DF91CF9100935B0210935C022093C6
:10353C005D0230935E020E949A090C94051F1030B4
:10354C0011F00C94B91A0B3F11F00C94B91A0091AC
:10355C0013041091140400935802109359020E9402
:10356C0079090C94051F103011F00C94C51A0C3FFE
:10357C0011F00C94C51A0E94C6130C94051F103040
:10358C0011F00C94E11A0D3F11F00C94E11ACF9349
:10359C00DF9318E0412A09E014E41A930A93E5EC4E
:1035AC00F3E00E941346DF91CF910E946F080C94B8
:1035BC00051F0C94051F103011F00C94181B0E3FB6
:1035CC0011F00C94181B0E947608CF93DF9318E02F
:1035DC00412A09E014E41A930A93E6E2F4E90E9402
:1035EC000A46DF91CF91CF93DF9318E0412A09E08F
:1035FC0014E41A930A93EAE5F4E90E940A46DF916F
:10360C00CF91CF93DF9318E0412A09E014E41A9389
:10361C000A931DE50E94E048DF91CF910E946F084C
:10362C000C94051F103011F00C942A1B0F3F11F055
:10363C000C942A1BCF93DF9310E01A930E94B908C5
:10364C00DF91CF910C94051F689442F8ACE2B1E085
:10365C005FEF0E94044A55233AF4A3E4B1E05527E6
:10366C000E94044A55230AF416C00091530210918B
:10367C0054020C521140102F1B831B81E9E2F4E021
:10368C001F710027E10FF01F1081109361020E943F
:10369C008F090C94051F113011F00C94611B04342C
:1036AC0011F00C94611B10917203109361020E9433
:1036BC008F090C94051F113011F00C94711B0534FB
:1036CC0011F00C94711B10917303109361020E9402
:1036DC008F090C94051F113011F00C94811B0634CA
:1036EC0011F00C94811B10917603109361020E94CF
:1036FC008F090C94051F113011F00C94911B073499
:10370C0011F00C94911B10917403109361020E94A0
:10371C008F090C94051F113011F00C94A11B083467
:10372C0011F00C94A11B10917503109361020E946F
:10373C008F090C94051F113011F00C94B11B0E3530
:10374C0011F00C94B11B10919002109361020E9425
:10375C008F090C94051F113011F00C94C11B0F35FF
:10376C0011F00C94C11B10919102109361020E94F4
:10377C008F090C94051F113011F00C94D11B0036DD
:10378C0011F00C94D11B1091AE02109361020E94A7
:10379C008F090C94051F689442F8A0E9B1E05FEF23
:1037AC000E94044A55233AF4AFEAB1E055270E942F
:1037BC00044A55230AF416C0009153021091540286
:1037CC0000591140102F1A831A81E0E7F2E01F73A1
:1037DC000027E10FF01F1081109361020E948F09E6
:1037EC000C94051F689442F8A4EFB1E05FEF0E94BF
:1037FC00044A55233AF4A3E1B2E055270E94044A47
:10380C0055230AF417C00091530210915402045F1F
:10381C001140102F105E1A831A81E0E7F2E01F733B
:10382C000027E10FF01F1081109361020E948F0995
:10383C000C94051F689442F8A8E5B2E05FEF0E9473
:10384C00044A55233AF4A7E7B2E055270E94044AEC
:10385C0055230AF416C000915302109154020855D6
:10386C001240102F1A831A81E0EBF2E01F7100272F
:10387C00E10FF01F1081109361020E948F090C94CC
:10388C00051F689442F8A0E8B2E05FEF0E94044A7A
:10389C0055233AF4AFE8B2E055270E94044A552369
:1038AC000AF416C0009153021091540200581240B1
:1038BC00102F1A831A81E0EDF2E01F700027E10F40
:1038CC00F01F1081109361020E948F090C94051F48
:1038DC00689442F8A4E9B2E05FEF0E94044A5523D1
:1038EC003AF4A3EBB2E055270E94044A55230AF49C
:1038FC001BC0009153021091540204591240102F16
:10390C001A831A81EAEEF2E01F710027110F001FD3
:10391C00E10FF01F0081118100935802109359029E
:10392C000E9479090C94051F689442F8ACEBB2E044
:10393C005FEF0E94044A55233AF4ACECB2E05527F1
:10394C000E94044A55230AF416C0009153021091A8
:10395C0054020C5B1240102F1A831A81EAE2F3E036
:10396C001F700027E10FF01F1081109361020E945D
:10397C008F090C94051F133011F00C94D41C063EC7
:10398C0011F00C94D41C0091A502112701FD1FEF1E
:10399C00109361020E948F090C94051F133011F0D3
:1039AC000C94E41C073E11F00C94E41C1091E402FE
:1039BC00109361020E948F090C94051F689442F8C1
:1039CC00A8EEB3E05FEF0E94044A55233AF4A7EE49
:1039DC00B4E055270E94044A55230AF41CC00091F8
:1039EC00530210915402085E1340102F1A83E2E325
:1039FC00F0E0EF93FF931A81012F1127FF91EF91C4
:103A0C00E00FF11F0E9482443196109361020E94D4
:103A1C008F090C94051F689442F8A8EEB4E05FEF90
:103A2C000E94044A55233AF4A7EEB5E055270E94AC
:103A3C00044A55230AF41CC00091530210915402FD
:103A4C00085E1440102F1A83E2E3F1E0EF93FF932A
:103A5C001A81012F1127FF91EF91E00FF11F0E94A6
:103A6C0082443196109361020E948F090C94051FB9
:103A7C00689442F8A0EDB7E05FEF0E94044A55232A
:103A8C003AF4AFECB9E055270E94044A55230AF4E6
:103A9C001EC00091530210915402005D174019830F
:103AAC000883EBEDF2E0EF93FF9308811981000F8F
:103ABC00111FFF91EF91E00FF11F0E948B440093B7
:103ACC005802109359020E9479090C94051F163262
:103ADC0011F00C94831D0C3A11F00C94831DCF93B0
:103AEC00DF931091A3021C5A1A9310E01A930E94B0
:103AFC009510DF91CF910C94051F163211F00C9498
:103B0C00AF1D063B11F00C94AF1DCF93DF930E94B9
:103B1C00050CDF91CF9110911104103010E009F0D9
:103B2C001FEF112311F40C94A51DCF93DF9318E014
:103B3C001A930E94B908DF91CF910C94AD1DCF93CD
:103B4C00DF9310E01A930E94B908DF91CF910C9487
:103B5C00051F163211F00C94BF1D003C11F00C9493
:103B6C00BF1D0E94BA04109361020E948F090C942D
:103B7C00051F163211F00C94F21D0E3D11F00C9431
:103B8C00F21DEAE0F0E00E94904400935B02109377
:103B9C005C0220935D0230935E02E5EEF3E0EF935E
:103BAC00FF933196FA93EA931FE11A9317EF412290
:103BBC001FEB4122E8EAF6E90E940A461FE11F9337
:103BCC0018810F91011B102FFF91EF9110832396F9
:103BDC000E94290A0C94051F163211F00C94251E14
:103BEC000F3D11F00C94251EEEE0F0E00E94904485
:103BFC0000935B0210935C0220935D0230935E0293
:103C0C00E5EEF3E0EF93FF933196FA93EA931FE11D
:103C1C001A9317EF41221FEB4122E6EBF6E90E94C3
:103C2C000A461FE11F9318810F91011B102FFF9162
:103C3C00EF91108323960E94290A0C94051F1632CB
:103C4C0011F00C945C1E003E11F00C945C1ECF9392
:103C5C00DF9312EF1A930E944F06DF91CF910093DE
:103C6C005B0210935C0220935D0230935E02E5EEE2
:103C7C00F3E0EF93FF933196FA93EA931FE11A93D3
:103C8C0017EF41221FEB4122E5ECF6E90E940A46B0
:103C9C001FE11F9318810F91011B102FFF91EF91C2
:103CAC00108323960E94290A0C94051F173211F0D9
:103CBC000C94931E063011F00C94931E00E010E04F
:103CCC0020E030E000935B0210935C0220935D02D5
:103CDC0030935E02E5EEF3E0EF93FF933196FA93A7
:103CEC00EA931FE11A9317EF41221FEB4122E3EDF8
:103CFC00F6E90E940A46E2EBF2E00E941D461FE143
:103D0C001F9318810F91011B102FFF91EF911083BE
:103D1C0023960E94290A0C94051F173211F00C945B
:103D2C00EB1E0E3011F00C94EB1EE5E2F0E00E945D
:103D3C0082441C5A812ECF93DF93182D1A9310E0D6
:103D4C001A930E949510DF91CF91CF93DF930E942D
:103D5C00DA02DF91CF91CF93DF930E949007DF912E
:103D6C00CF911FEF109385031FEF109383031FEF69
:103D7C001093840300E010E020E030E000935B023D
:103D8C0010935C0220935D0230935E02E5EEF3E04B
:103D9C00EF93FF933196FA93EA931FE11A9317EF7F
:103DAC0041221FEB4122EBEDF6E90E940A461FE18E
:103DBC001F9318810F91011B102FFF91EF9110830E
:103DCC0023960E94290A0C94051F173211F00C94AB
:103DDC00FD1E0F3011F00C94FD1EF8941FE74122CC
:103DEC0004B7037F04BF0C9451400C94051FCF9370
:103DFC00DF9315E01A930E94B908DF91CF910895D3
:103E0C0025970091530210915402D8012AE030E01A
:103E1C00689445F80E945B498F01507821F0019518
:103E2C0009F41A951095102F1B8310916102103014
:103E3C0010E009F01FEF1883009153021091540207
:103E4C00689442F8A0E0B0E05FEF0E94044A55236A
:103E5C003AF4AFEEB0E055270E94044A55230AF419
:103E6C0014C0CF93DF9300915802109159021A930A
:103E7C000A930091530210915402102F1A930E942E
:103E8C008506DF91CF910C947B25689442F8A0EFC6
:103E9C00B0E05FEF0E94044A55233AF4A9EFB0E07A
:103EAC0055270E94044A55230AF41AC0CF93DF9376
:103EBC0000915B0210915C0220915D0230915E02D8
:103ECC003A932A931A930A93009153021091540235
:103EDC00102F1A930E949C06DF91CF910C947B2596
:103EEC00103011F00C948F1F0A3F11F00C948F1F9F
:103EFC0010916102103010E009F01FEFE8941123CB
:103F0C0009F068941091100414F9109310040C9497
:103F1C007B25113011F00C94A91F0E3511F00C9467
:103F2C00A91F10916102109390021FEF109383034D
:103F3C00CF93DF93109161021A930E94FB00DF91E3
:103F4C00CF910C947B25113011F00C94C31F0F35BD
:103F5C0011F00C94C31F10916102109391021FEF8A
:103F6C0010938403CF93DF93109161021A930E94F4
:103F7C005501DF91CF910C947B25113011F00C94ED
:103F8C00D41F003611F00C94D41F109161021093C1
:103F9C00AE021FEF109386030C947B25113011F0A9
:103FAC000C94E21F0C3711F00C94E21F109161027B
:103FBC001093A7020C947B25113011F00C94F01F78
:103FCC000D3711F00C94F01F109161021093BB028D
:103FDC000C947B25113011F00C941820063811F03C
:103FEC000C94182000911004112704FD1FEF1123CD
:103FFC0011F40C940C20CF93DF93109161021A935F
:10400C000E94EF01DF91CF910C941620CF93DF9398
:10401C0016E01A930E94B908DF91CF910C94892570
:10402C000C947B25113011F00C944020073811F0C2
:10403C000C94402000911004112704FD1FEF112354
:10404C0011F40C943420CF93DF93109161021A93E6
:10405C000E944702DF91CF910C943E20CF93DF93C7
:10406C0016E01A930E94B908DF91CF910C94892520
:10407C000C947B25689442F8A0E9B1E05FEF0E94B4
:10408C00044A55233AF4AFEAB1E055270E94044A9A
:10409C0055230AF416C00091530210915402005992
:1040AC001140102F1B831B811F9310916102E0E7BD
:1040BC00F2E0AF91AF73BB27EA0FFB1F10830C9498
:1040CC007B25689442F8A4EFB1E05FEF0E94044AAC
:1040DC0055233AF4A3E1B2E055270E94044A552334
:1040EC000AF431C00091530210915402045F114044
:1040FC00102F1B831B811F9310916102E0E9F2E0EA
:10410C00AF91AF71BB27EA0FFB1F10830091100416
:10411C00112704FD1FEF112311F40C94A420E2E1EC
:10412C00F0E0EF93FF931B81012F1127FF91EF918B
:10413C00E00FF11F109161020E9460441FEF109379
:10414C0085030C947B25689442F8A8E5B2E05FEFF8
:10415C000E94044A55233AF4A7E7B2E055270E947F
:10416C00044A55230AF431C00091530210915402B1
:10417C0008551240102F1B831B811F931091610255
:10418C00E0EBF2E0AF91AF71BB27EA0FFB1F10839E
:10419C0000911004112704FD1FEF112311F40C944E
:1041AC00E620E2E3F2E0EF93FF931B81012F11274E
:1041BC00FF91EF91E00FF11F109161020E9460449A
:1041CC001FEF10933A030C947B25689442F8A0E8F7
:1041DC00B2E05FEF0E94044A55233AF4AFE8B2E034
:1041EC0055270E94044A55230AF42EC0009153020D
:1041FC001091540200581240102F1B831B811F93E7
:10420C0010916102E0EDF2E0AF91AF70BB27EA0FC5
:10421C00FB1F108300911004112704FD1FEF1123C5
:10422C0011F40C942821E2E5F2E0EF93FF931B814B
:10423C00012F1127FF91EF91E00FF11F10916102F7
:10424C000E9460440C947B25689442F8A4E9B2E087
:10425C005FEF0E94044A55233AF4A3EBB2E05527D2
:10426C000E94044A55230AF447C00091530210914E
:10427C00540204591240102F1B831B811F93009171
:10428C005B0210915C0220915D0230915E02EAEEBD
:10429C00F2E0AF91AF71BB27AA0FBB1FEA0FFB1F58
:1042AC001183008300911004112704FD1FEF1123CB
:1042BC0011F40C947D21E2E6F2E0EF93FF931B8165
:1042CC00012F1127000F111FFF91EF91E00FF11F2C
:1042DC00EF93FF9300915B0210915C0220915D02C1
:1042EC0030915E02FF91EF9198010E9470441FEF94
:1042FC0010933A030C947B25689442F8ACEBB2E033
:10430C005FEF0E94044A55233AF4ABECB2E0552718
:10431C000E94044A55230AF42EC0009153021091B6
:10432C0054020C5B1240102F1B831B811F931091A6
:10433C006102EAE2F3E0AF91AF70BB27EA0FFB1F1B
:10434C00108300911004112704FD1FEF112311F4A9
:10435C000C94BF21E2EAF2E0EF93FF931B81012F53
:10436C001127FF91EF91E00FF11F109161020E9454
:10437C0060440C947B25133011F00C94D321073E30
:10438C0011F00C94D32110916102103010E009F05F
:10439C001FEF1093E4020C947B25689442F8A8EE6E
:1043AC00B3E05FEF0E94044A55233AF4A7EEB4E061
:1043BC0055270E94044A55230AF422C00091100488
:1043CC00112704FD1FEF112311F40C94042200910A
:1043DC00530210915402085E1340102F1B83E2E32A
:1043EC00F0E0EF93FF931B81012F1127FF91EF91C9
:1043FC00E00FF11F109161020E9460440C947B2528
:10440C00689442F8A8EEB4E05FEF0E94044A55238A
:10441C003AF4A7EEB5E055270E94044A55230AF456
:10442C0022C000911004112704FD1FEF112311F479
:10443C000C9437220091530210915402085E1440E0
:10444C00102F1B83E2E3F1E0EF93FF931B81012F0D
:10445C001127FF91EF91E00FF11F109161020E9463
:10446C0060440C947B25689442F8A0EDB7E05FEFB4
:10447C000E94044A55233AF4AFECB9E055270E9448
:10448C00044A55230AF425C000915302109154029A
:10449C00005D17401A830983EBEDF2E0EF93FF9375
:1044AC0009811A81000F111FFF91EF91E00FF11F8D
:1044BC00EF93FF9300915B0210915C0220915D02DF
:1044CC0030915E02FF91EF9198010E9470440C9420
:1044DC007B25163211F00C94AB220C3A11F00C9493
:1044EC00AB22109161021093A302009110041127CA
:1044FC0004FD1FEF112311F40C948B221091610217
:10450C00E5E2F0E00E9460443196109138021123EC
:10451C0011F40C94A122109161021C5A812ECF939C
:10452C00DF93182D1A9310E01A930E949510DF91C7
:10453C00CF910C94A922CF93DF9318E01A930E9489
:10454C00B908DF91CF910C947B25163211F00C94A5
:10455C00C522003C11F00C94C52210916102103060
:10456C0010E009F41FEF112311F40C94C1220E94E6
:10457C00E3040C94C3220E94F4040C947B251632A1
:10458C0011F00C9426230A3C11F00C9426230E9463
:10459C00900A1095112311F40C94242300915B02C2
:1045AC0010915C0220915D0230915E02ECE00E9461
:1045BC00E14900935B0210935C0220935D023093FF
:1045CC005E02CF93DF9300915B0210915C0220910D
:1045DC005D0230915E023A932A931A930A930E94D9
:1045EC00950CDF91CF9100915B0210915C022091B0
:1045FC005D0230915E0240E83427303829F42030D7
:10460C0019F4103009F400301FEF08F011271123B2
:10461C0011F40C94182310911104146010931104CC
:10462C000C94242311E004EF0E9439440E949A094F
:10463C00CF93DF930E94050CDF91CF910C947B25D7
:10464C00163211F00C949D230B3C11F00C949D230D
:10465C000E94900A1095112311F40C949B23009145
:10466C005B0210915C0220915D0230915E020C5A4B
:10467C001F4F2F4F3F4F00935B0210935C02209310
:10468C005D0230935E0200915B0210915C022091FE
:10469C005D0230915E02ECE00E94E14900935B0206
:1046AC0010935C0220935D0230935E02CF93DF93F4
:1046BC0000915B0210915C0220915D0230915E02D0
:1046CC003A932A931A930A930E94950CDF91CF91F7
:1046DC0000915B0210915C0220915D0230915E02B0
:1046EC0040E83427303829F4203019F4103009F41C
:1046FC0000301FEF08F01127112311F40C949523AF
:10470C00CF93DF9318E01A930E94B908DF91CF91F1
:10471C00109111041460109311040C949B2311E05C
:10472C0004EF0E9439440E949A090C947B2516329E
:10473C0011F00C94F423043D11F00C94F4230E941A
:10474C00900A1095112311F40C94F22300915B0242
:10475C0010915C0220915D0230915E02ECE00E94AF
:10476C00E14900935B0210935C0220935D0230934D
:10477C005E02CF93DF9300915B0210915C0220915B
:10478C005D0230915E023A932A931A930A930E9427
:10479C000505DF91CF911095112311F40C94F023A2
:1047AC000E947608CF93DF9318E0412A09E014E4C5
:1047BC001A930A93E7EEF6E90E940A461DE00E945E
:1047CC00E0481AE00E94E048DF91CF910C948925D3
:1047DC000C94F2230E949A090C947B25163211F04A
:1047EC000C945F24053D11F00C945F240E94900AF8
:1047FC001095112311F40C945D2400915B0210911F
:10480C005C0220915D0230915E020C5A1F4F2F4FBB
:10481C003F4F00935B0210935C0220935D02309338
:10482C005E0200915B0210915C0220915D0230915E
:10483C005E02ECE00E94E14900935B0210935C0283
:10484C0020935D0230935E02CF93DF9300915B0265
:10485C0010915C0220915D0230915E023A932A9392
:10486C001A930A930E940505DF91CF91109511239D
:10487C0011F40C945B240E947608CF93DF9318E01C
:10488C00412A09E014E41A930A93E7EEF6E90E9430
:10489C000A461DE00E94E0481AE00E94E048DF91C1
:1048AC00CF910C9489250C945D240E949A090C9448
:1048BC007B25163211F00C949F24063D11F00C94BC
:1048CC009F240E94900A1095112311F40C949D249E
:1048DC000E9445051095112311F40C948F240E940D
:1048EC007608CF93DF9318E0412A09E014E41A9379
:1048FC000A93E0E0F7E90E940A461DE00E94E048B6
:10490C001AE00E94E048DF91CF910C9489250C9419
:10491C009D2400E010E020E030E000935B02109357
:10492C005C0220935D0230935E020E949A090C9403
:10493C007B25163211F00C94A9240E3D11F00C9429
:10494C00A9240C94B124163211F00C94F7240F3DC9
:10495C0011F00C94F72400911004112704FD1FEFA3
:10496C00112311F40C94EB241B81103010E009F48A
:10497C001FEF112311F40C94D52400915B021091BC
:10498C005C0220915D0230915E02EAE0F0E0D80119
:10499C000E94764431960E94B9060C94E52400914D
:1049AC005B0210915C0220915D0230915E02EEE0A0
:1049BC00F0E0D8010E94764431960E94B90613E0CB
:1049CC0008EE0E9439440C94F524CF93DF9316E043
:1049DC001A930E94B908DF91CF910C9489250C94FD
:1049EC007B25163211F00C940A25083E11F00C941C
:1049FC000A25CF93DF93109161021A930E94E9115B
:104A0C00DF91CF910C947B25163211F00C94242558
:104A1C00023F11F00C942425CF93DF9300915802A0
:104A2C00109159021A930A930E94B403DF91CF910B
:104A3C00109361020E948F090C947B25173211F0A0
:104A4C000C947125063011F00C9471250091100412
:104A5C00112704FD1FEF112311F40C9465251091FF
:104A6C005A02112311F40C945925E2EBF2E0EF9366
:104A7C00FF933196FA93EA9318E21A9317EF4122B7
:104A8C0010E4412AECE9F3E00E94134618E21F936C
:104A9C0018810F91011B102FFF91EF910E94604420
:104AAC0023960C946325CF93DF9315E01A930E9401
:104ABC00B908DF91CF910C9489250C946F25CF9375
:104ACC00DF9316E01A930E94B908DF91CF910C94F2
:104ADC0089250C947B25CF93DF9315E01A930E94C4
:104AEC00B908DF91CF910C948925109157021123AD
:104AFC0011F40C948925CF93DF9310E01A930E9444
:104B0C00B908DF91CF9108952197ECE9F3E0EF9389
:104B1C00FF933196FA93EA9318E21A9317EF412216
:104B2C001FEB4122ECE9F3E00E94E74518E21F93EA
:104B3C0018810F91011B102FFF91EF911083239679
:104B4C00FE01FA93EA9310E010831EE01A93108191
:104B5C00088101171FEF08F01127112311F00C9495
:104B6C00E625ECE9F3E0EF93FF93EEE2F8E9EF933F
:104B7C00FF931B81012F1127A4E0B0E0E89445F8C6
:104B8C000E943949FF91EF91E00FF11FBF91AF9156
:104B9C00689444F80E94BA4810E009F41FEF1123FE
:104BAC0011F40C94DD251B8123960C94E825E981E6
:104BBC00FA81108113951083112311F00C94AE25FA
:104BCC0023961FE008952297ECE9F3E0EF93FF930F
:104BDC003196FA93EA9318E21A9317EF41221FEBDE
:104BEC00412218E21F9318810F91011B102FFF9186
:104BFC00EF911083239610E010935A0210E0188363
:104C0C00E5ECF3E010910604012F1127E00FF11FE2
:104C1C001191103210E009F41FEF112311F40C94D0
:104C2C001E26109106041395109306040C94062668
:104C3C00E5ECF3E010910604012F1127E00FF11FB2
:104C4C001191193339F028F41A3218F040E0189405
:104C5C0001C041E010E009F41FEF112311F40C9492
:104C6C0091261FEF1883E8E0F0E0FA93EA93109195
:104C7C0006041083EF93FF93E5ECF3E01081FF91B2
:104C8C00EF911A931081088101171FEF08F011277B
:104C9C00112311F00C948E26E5ECF3E0182D012F66
:104CAC001127E00FF11F11911C831C81193339F06E
:104CBC0028F41A3218F040E0189401C041E010E0DA
:104CCC0009F41FEF112311F40C947E261C81712F13
:104CDC0061E010E006E10F931F93ECE9F3E0EF9332
:104CEC00FF9318E21F9390E00E94A7440C94852632
:104CFC00182D109306041B8123960C941127E9811F
:104D0C00FA81108113951083112311F00C9449260C
:104D1C0023960C941027E8E0F0E0FA93EA931091B4
:104D2C0006041083EF93FF93E5ECF3E01081FF9101
:104D3C00EF911A931081088101171FEF08F01127CA
:104D4C00112311F00C940F27E5ECF3E0182D012F33
:104D5C001127E00FF11F11911C831C81123210E0FE
:104D6C0009F41FEF112311F40C94C1261FEF1093BB
:104D7C005A020C9406271C81113410E008F01FEF26
:104D8C001F9310915A020F91102B112311F40C94B4
:104D9C0000271C81113221F01F3311F0143201F065
:104DAC0010E009F41FEF112311F40C94E626182DD2
:104DBC00109306041B8123960C9411270C94F62651
:104DCC001C81712F61E010E006E10F931F93ECE959
:104DDC00F3E0EF93FF9318E21F9390E00E94A74437
:104DEC001D81112311F40C94FE261FEF10935A020F
:104DFC000C940627182D109306041B810C94112774
:104E0C00E981FA81108113951083112311F00C9410
:104E1C00A1262396188108952197ECE9F3E01FEB66
:104E2C004122E89441F800E00E94264500935B0281
:104E3C0010935C0220935D0230935E0200915B0242
:104E4C0010915C0220915D0230915E020093580239
:104E5C00109359020091580210915902102F10937F
:104E6C00610208952C97E5ECF3E0EF93FF93E8E1F2
:104E7C00F7E9BF91AF91689444F80E94BA4810E0EA
:104E8C0009F41FEF112311F40C945627CF93DF93E1
:104E9C0010E01A930E94B908DF91CF910C94192954
:104EAC0011E21F93E5ECF3E0EF93FF9361E0FF91C8
:104EBC00EF910F910E94D145103010E011F008F0E5
:104ECC001FEF109357021AE31F93E5ECF3E0EF93F7
:104EDC00FF9361E0FF91EF910F910E94D14510304B
:104EEC0010E011F008F01FEF1C831DE31F93E5EC9D
:104EFC00F3E0EF93FF9361E0FF91EF910F910E942C
:104F0C00D1451B871B85103010E009F41FEF188367
:104F1C00E5ECF3E0319611911D831D811A3210E0FE
:104F2C0009F41FEF19831D81133210E009F41FEFF0
:104F3C001A8311E0109306041A81112311F40C94B6
:104F4C00AA2712E0109306041C81112311F40C946F
:104F5C00D127CF93DF9310E01A930E94E925DF91BC
:104F6C00CF91109106041395109306041981112307
:104F7C0011F40C94C5270E94A8080C94D127ECE9D5
:104F8C00F3E01FEB4122E89441F800E00E94264533
:104F9C00102F10935502198110951F9310915502E3
:104FAC001F93109133020F91011710E009F01FEFBE
:104FBC000F9110231F931C810F911023112311F4B7
:104FCC000C94EC270E94A8080C94192914E21F9346
:104FDC00E5ECF3E0EF93FF9361E0FF91EF910F911C
:104FEC000E94D1451A871A85103010E011F008F094
:104FFC001FEF1B831B81112311F40C947C28ECE90B
:10500C00F3E0EF93FF933196FA93EA9318E21A9335
:10501C0017EF41221FEB4122E5ECF3E0EF93FF93F6
:10502C001D851F5F1F9312E00F91FF91EF910E945E
:10503C00F64518E21F9318810F91011B102FFF9159
:10504C00EF9110832396ECE9F3E01FEB4122E894F7
:10505C0041F80FEF0E942645102F188710E0198792
:10506C00E8E0F0E0FA93EA9311E01083EF93FF93FA
:10507C001C851150FF91EF911A9310810881011733
:10508C001FEF08F01127112311F00C946528E5ECA3
:10509C00F3E0182D012F1127E00FF11F1191188744
:1050AC001C851F9318850F9110271C87E981FA81A5
:1050BC00108113951083112311F00C94442823961E
:1050CC0019851F9318850F91011710E009F01FEF38
:1050DC00112311F40C947C28CF93DF9317E01A93CF
:1050EC000E94B908DF91CF910C941929CF93DF93CB
:1050FC0010E01A930E94E925DF91CF91112311F44E
:10510C000C948E2810E000E01F830E830C94C428AE
:10511C00CF93DF930E948A25DF91CF9110934E029B
:10512C0010914E021F3010E009F41FEF112311F4FF
:10513C000C94AA28CF93DF9314E01A930E94B90819
:10514C00DF91CF910C941929EAE6F8E9EF93FF93DC
:10515C0010914E02012F1127000F111FFF91EF919B
:10516C00E00FF11F059114911F830E83CF93DF93F2
:10517C0010E01A930E94E925DF91CF91ECE9F3E05E
:10518C001FEB4122E89441F800E00E9426450F9362
:10519C001F930E811F813F912F91020F131F0093BC
:1051AC005302109354021881112311F40C94E62825
:1051BC00CF93DF930E94631ADF91CF910C9419293E
:1051CC001B851F5F10930604CF93DF931FEF1A9379
:1051DC000E94E925DF91CF91112311F40C94FE2844
:1051EC00CF93DF930E941227DF91CF910C94132958
:1051FC0000E010E020E030E000935B0210935C02D2
:10520C0020935D0230935E0210E000E000935802A0
:10521C001093590210E010936102CF93DF930E9418
:10522C00061FDF91CF9108952B971091A602103095
:10523C0010E009F41FEF112311F40C942B29109199
:10524C00A70216951A870C942F29109134041695E1
:10525C001A871A851F93109142030F91011B102F6F
:10526C001B831B811A3010E011F008F01FEF112383
:10527C0011F40C94442910E010934A031A851093EE
:10528C00420310914A03112311F40C9478291091C4
:10529C0043031F93109141030F91011710E011F07C
:1052AC0008F01FEF112311F40C94632910914103A2
:1052BC001395109341030C947629109143031F937B
:1052CC00109141030F9101171FEF08F011271123C3
:1052DC0011F40C947629109141031A951093410303
:1052EC000C947B291A851093410310914103169558
:1052FC001F831F8116951E831091A802103010E099
:10530C0009F41FEF112311F40C9491291091A902A7
:10531C0018830C949B2919E0E9E2F4E01F71002733
:10532C00E10FF01F1081169518831091AA021695A3
:10533C001695185F1F93CF93DF93109141031A9327
:10534C001091AA021A9318EC1A930E942B44DF9125
:10535C00CF910F91100F1A831A811F931091410353
:10536C000F91100F1983109141031F931A811695F9
:10537C0016950F91100F18871E811E5F1D831091BB
:10538C007A021F9310918D020F91102B112311F49F
:10539C000C94042A109179021170113010E009F468
:1053AC001FEF112311F40C94F329CF93DF93109179
:1053BC0041031A9319811A931AE51A930E942B44EC
:1053CC00DF91CF91185F19871D811F931E81169550
:1053DC000F91100F1D830C94022ACF93DF93109121
:1053EC0041031A9319811A9318E71A930E942B44BC
:1053FC00DF91CF911A5F19870C94122ACF93DF9308
:10540C001F811A9319811A931CE81A930E942B443A
:10541C00DF91CF911A5F198710914103105F1F9391
:10542C001F810F91100F1C83CF93DF931D811A9353
:10543C0010E41A930E946806DF91CF91CF93DF930B
:10544C0019811A9311E41A930E946806DF91CF9187
:10545C00CF93DF9318851A9312E41A930E9468066F
:10546C00DF91CF91CF93DF9319851A9313E41A939D
:10547C000E946806DF91CF91CF93DF931C811A9322
:10548C0014E41A930E946806DF91CF910895219736
:10549C001091E4021F930091A502112701FD1FEF4B
:1054AC000F91102B1095112311F40C94792A109153
:1054BC00DA02103010E009F01FEF112311F40C94F4
:1054CC006D2A109133041093BB020C94712A109125
:1054DC00DB021093BB0200917A03112706FD1FEF2C
:1054EC0011701093DC021091E202112311F40C9450
:1054FC00892A1091D40210933F031091D502109376
:10550C0040030C94912A1091D20210933F031091F6
:10551C00D302109340031091E3021095112311F460
:10552C000C949E2A10E010933F0310E0109340035C
:10553C001FEF00914B02002309F01095112311F479
:10554C000C94D92A10913D031F9310913F030F9196
:10555C00011710E009F01FEF112311F40C94D92A54
:10556C0010913F031F9310913D030F91011710E011
:10557C0011F008F01FEF112311F40C94D02A1091A4
:10558C003D03139510933D031091D60210934B02DB
:10559C000C94D92A10913D031A9510933D03109148
:1055AC00D80210934B021FEF00914C02002309F01C
:1055BC001095112311F40C94142B10913E031F938E
:1055CC00109140030F91011710E009F01FEF112308
:1055DC0011F40C94142B109140031F9310913E0363
:1055EC000F91011710E011F008F01FEF112311F4C7
:1055FC000C940B2B10913E03139510933E031091BA
:10560C00D70210934C020C94142B10913E031A9554
:10561C0010933E031091D90210934C0200913B035E
:10562C0010913C030F931F9310913D03012F1127F1
:10563C003F912F91020F131F00933B0310933C03D8
:10564C0010913D031093B00210913E031093C002D1
:10565C0010913A03112311F40C943F2BCF93DF9349
:10566C000E949007DF91CF9110E010933A030C94B5
:10567C006B2BCF93DF931091BB021A931BEC1A93F5
:10568C000E946806DF91CF91CF93DF931091DC02DB
:10569C001A931CEC1A930E946806DF91CF91CF935A
:1056AC00DF931091B0021A9310EC1A930E946806C3
:1056BC00DF91CF91CF93DF931091C0021A9310ED2D
:1056CC001A930E946806DF91CF9108951BB11F7049
:1056DC001F9310912704110F110F110F110F0F9120
:1056EC00102B1BB90E9408041091280414301FEFD2
:1056FC0008F01127112311F40C94872B10E0109350
:10570C002804109127041F9310912804E9E2F4E077
:10571C00AF91AF71BB27EA0FFB1F1083089514984C
:10572C00159A169AE7E2F4E0FA93EA9310E01083E4
:10573C0017E01A931081088101171FEF08F0112749
:10574C00112311F00C94B52B0E946C2BE981FA817A
:10575C00108113951083112311F00C94A12B239617
:10576C00149A1598169AE7E2F4E0FA93EA9318E083
:10577C0010831FE01A931081088101171FEF08F0A6
:10578C001127112311F00C94D62B0E946C2BE9815C
:10579C00FA81108113951083112311F00C94C22BF4
:1057AC002396149A159A1698E7E2F4E0FA93EA9382
:1057BC0010E1108317E11A931081088101171FEF74
:1057CC0008F01127112311F00C94F72B0E946C2B6D
:1057DC00E981FA81108113951083112311F00C9437
:1057EC00E32B2396089519E1109347025A980895D4
:1057FC001AE0109347025A98089522971127062D04
:10580C00017009F410951F93109165020F911023EC
:10581C00112311F40C943E2D10E002E3E8E4F2E0C5
:10582C00B1E00E94F149CF93DF9310E01A9310E09E
:10583C001A9310E01A930E948A42DF91CF91109133
:10584C009002105D198319810E946442109190029C
:10585C00103010E009F41FEF1F93109190021F30CD
:10586C0010E009F41FEF0F91102B112311F40C947D
:10587C004F2CCF93DF9318E0412A04E612E41A93DD
:10588C000A93E9E1F7E90E940A46DF91CF910C9463
:10589C005D2CCF93DF9318E0412A04E612E41A93AF
:1058AC000A93EEE1F7E90E940A46DF91CF9110913D
:1058BC004D02103010E009F41FEF112311F40C9479
:1058CC006C2C16E00E9464420C946F2C10E20E9427
:1058DC00644210E20E946442E8E0F0E0FA93EA933A
:1058EC0010E0108318E01A931081088101171FEF44
:1058FC0008F01127112311F00C94A92C182DE0E7B6
:10590C00F2E01F730027E10FF01F10811B83CF9370
:10591C00DF931B811A9310E11A931EEF1A930E94C6
:10592C002B44DF91CF911B831B81105D1C831C8149
:10593C000E946442E981FA8110811395108311232E
:10594C0011F00C947B2C2396CF93DF9310E01A93D9
:10595C0010E01A9311E01A930E948A42DF91CF91C2
:10596C0010919102105D198319810E94644210916B
:10597C009102103010E009F41FEF1F931091910267
:10598C001F3010E009F41FEF0F91102B112311F4AD
:10599C000C94E02CCF93DF9318E0412A04E612E438
:1059AC001A930A93E3E2F7E90E940A46DF91CF913A
:1059BC000C94EE2CCF93DF9318E0412A04E612E40A
:1059CC001A930A93E8E2F7E90E940A46DF91CF9115
:1059DC0010914D02113010E009F41FEF112311F456
:1059EC000C94FD2C16E00E9464420C94002D10E2E5
:1059FC000E94644210E20E946442E8E0F0E0FA93F4
:105A0C00EA9310E1108318E11A93108108810117B1
:105A1C001FEF08F01127112311F00C943A2D182DBB
:105A2C00E0E7F2E01F730027E10FF01F10811B83EA
:105A3C00CF93DF931B811A9310E11A931EEF1A93E5
:105A4C000E942B44DF91CF911B831B81105D1C8323
:105A5C001C810E946442E981FA81108113951083A4
:105A6C00112311F00C940C2D239610E01093650269
:105A7C000895219719811F70EEEDF7E91F7000272B
:105A8C00E10FF01F1491188300917903112700FD89
:105A9C001FEF1095112311F40C94572D1881110F31
:105AAC0018831881089522971A811F70EEEDF7E97B
:105ABC001F700027E10FF01F149119831981110F2A
:105ACC00188300913C03112704FD1FEF112311F4DF
:105ADC000C94782D19811F7C1F93188110730F91D2
:105AEC00102B198319810895279710E01C8314E655
:105AFC00198310E0109389031985103010E009F018
:105B0C001FEF112311F40C948F2D18E11A830C94B0
:105B1C00912D16E11A8310E000E01E830D831A8587
:105B2C001F931A811F93E89440F8FE013596A2E06A
:105B3C00B0E03F914F9150E00E94A9431A851F930A
:105B4C001985312FE89440F84F91A0E0B0E050E077
