:10007C0010B11370B12E1B2D1F931C2D0F91011756
:10008C0010E009F01FEF112311F40C9481001B2DCB
:10009C00103010E009F41FEF112311F40C947D00C3
:1000AC001D2D133010E009F41FEF112311F40C94E3
:1000BC007D001C2D113010E009F41FEF112311F4F9
:1000CC000C946F0010913C02139510933C020C940D
:1000DC007D001C2D123010E009F41FEF112311F4D8
:1000EC000C947D0010913C021A9510933C021C2D2F
:1000FC00D12E1B2DC12E089518811F9316E11F932D
:10010C00E89440F8E8E2F4E0A4E0B0E03F914F91CD
:10011C0050E00E946069089500E010E020E030E0BB
:10012C00009328041093290420932A0430932B0461
:10013C00CF93DF9318811A930E948200DF91CF91A5
:10014C0018811F9312E01F93E89440F8E6E1F0E069
:10015C003F914F91A1E0B0E060E050E00E946069F7
:10016C0018811F9313E01F93E89440F8E6E1F0E048
:10017C003F914F91A1E0B0E068E250E00E946069CD
:10018C0018811F9314E01F93E89440F8E6E1F0E027
:10019C003F914F91A1E0B0E064E150E00E946069B2
:1001AC0018811F9315E01F93E89440F8E6E1F0E006
:1001BC003F914F91A1E0B0E060E850E00E9460698F
:1001CC0000E010E020E030E00093280410932904B4
:1001DC0020932A0430932B04CF93DF9318811A9326
:1001EC000E948200DF91CF91089519E110933302A0
:1001FC005A9808951AE0109333025A98089521974B
:10020C0010E51F9309811A811F93E89440F8098126
:10021C001A81102FE6E1F0E0612FA1E0B0E03F91F0
:10022C004F9150E00E94606910E51F93FE01A1E020
:10023C00B0E04F910E943D6918810895CF93DF93F0
:10024C0010E51A930A811B811A930A93FE013396C7
:10025C008F011A930A9310E001E01A930A930E94FB
:10026C005669DF91CF9110E007E00E94F069089584
:10027C002297CF93DF9310E51A930F8118851A9369
:10028C000A93FE0135968F011A930A9310E004E04D
:10029C001A930A930E945669DF91CF9110E007E000
:1002AC000E94F06908952B971BB11F701F931C853A
:1002BC00110F110F110F110F0F91102B1BB913E907
:1002CC0010937A0011E00E94FF6913EC10937A00EE
:1002DC0010917A001071103010E009F01FEF11230B
:1002EC0011F40C946E0113E810937A001C85E9E468
:1002FC00F3E01F710027E10FF01F108118831881A4
:10030C00012F11271E830D830D811E81015010407A
:10031C001C830B831C85E9E2F3E01F710027E10FBE
:10032C00F01F1081012F112718870F83109179006E
:10033C00012F11270F931F930B811C81019509F439
:10034C001A9510953F912F91020F131F1A87098749
:10035C0009851A85A0E81A27103809F400301FEF18
:10036C0008F01127112311F40C94C00110E000E0E7
:10037C001A87098709851A850F931F930F81188592
:10038C000F931F930D811E813F912F91020F131F0D
:10039C0098011F910F91A0E81A273A27131709F417
:1003AC00021710E011F008F01FEF1F9309851A8552
:1003BC000F931F930F8118850F931F930B811C8133
:1003CC00019509F41A9510953F912F91020F131F67
:1003DC0098011F910F91A0E81A273A27131709F4D7
:1003EC0002171FEF08F011270F91102B112311F496
:1003FC000C94250212E319831C851F931981E9E8DB
:10040C00F3E0AF91AF71BB27EA0FFB1F10831C8584
:10041C001F931B85E9E6F3E0AF91AF71BB27EA0FA1
:10042C00FB1F10831C851F9313E0E9E4F3E0AF91ED
:10043C00AF71BB27EA0FFB1F10830C942E021C8597
:10044C00E9E8F3E01F710027E10FF01F1081198319
:10045C0009851A850F931F930F8118853F912F9152
:10046C00020F131F112312F40F5F1F4F15950795E1
:10047C001A8709871981103010E009F41FEF112336
:10048C0011F40C945F02188115301FEF08F011273E
:10049C00112311F40C945D021C851F9315E0E9E403
:1004AC00F3E0AF91AF71BB27EA0FFB1F10830C94E5
:1004BC008D0209851A850F931F930F81188598015A
:1004CC001F910F91A0E81A273A27131709F4021766
:1004DC0010E009F01FEF112311F40C948D021C8510
:1004EC001F931B85E9E6F3E0AF91AF71BB27EA0FD1
:1004FC00FB1F10831C851F9309851A85102FE9E2B9
:10050C00F3E0AF91AF71BB27EA0FFB1F1083089587
:10051C002397149A1598169ACF93DF931BE01A938E
:10052C001FEF1A930E945901DF91CF911091A903EB
:10053C0013951093A9031091A903113011F00C9489
:10054C00D2021498159A169AFE013296FA93EA93EF
:10055C0010E0108317E01A931081088101171FEF28
:10056C0008F01127112311F00C94CF02CF93DF93D5
:10057C001D811A931F811A930E945901DF91CF910B
:10058C00E981FA81108113951083112311F00C94D9
:10059C00B30223960C94A603123011F00C9427038B
:1005AC00149A1598169AFE013296FA93EA9318E06B
:1005BC0010831AE01A931081088101171FEF08F0BD
:1005CC001127112311F00C94FE02CF93DF931D81A0
:1005DC001A931F811A930E945901DF91CF91E981DF
:1005EC00FA81108113951083112311F00C94E202FF
:1005FC002396FE013296FA93EA931CE010831FE0D7
:10060C001A931081088101171FEF08F0112711238D
:10061C0011F00C942403CF93DF931D811A931F8147
:10062C001A930E945901DF91CF91E981FA811081CF
:10063C0013951083112311F00C94080323960C943A
:10064C00A603133011F00C945603149A159A1698AD
:10065C00FE013296FA93EA9310E1108317E11A9394
:10066C001081088101171FEF08F01127112311F0D9
:10067C000C945303CF93DF931D811A931F811A930C
:10068C000E945901DF91CF91E981FA811081139574
:10069C001083112311F00C94370323960C94A603AA
:1006AC00143011F00C94A3031FEF009136020023B9
:1006BC0009F01095112311F40C94A10314E110937B
:1006CC003602FE013296FA93EA9310E0108317E19A
:1006DC001A931081088101171FEF08F011271123BD
:1006EC0011F00C94A0031D81E9E8F3E01F710027C1
:1006FC00E10FF01F10811C83FE013496112700813D
:10070C0070E0701718F40A9500831FEF1D811F937A
:10071C001C81E9E8F3E0AF91AF71BB27EA0FFB1F37
:10072C001083E981FA81108113951083112311F044
:10073C000C94700323960C94A60310E01093A90359
:10074C0008951091EC042B981EBD1DB517FFFDCF1D
:10075C001EB51093ED042B9A08951091E9042B9873
:10076C001EBD1DB517FFFDCF1EB51093EB041091E8
:10077C00E8041EBD1DB517FFFDCF1EB51093EA048E
:10078C002B9A08951091E3042B981EBD1DB517FFED
:10079C00FDCF1EB51093E7041091E2041EBD1DB5EC
:1007AC0017FFFDCF1EB51093E6041091E1041EBD9A
:1007BC001DB517FFFDCF1EB51093E5041091E00495
:1007CC001EBD1DB517FFFDCF1EB51093E4042B9A6B
:1007DC0008951091DE0429981EBD1DB517FFFDCF9D
:1007EC001091DD041EBD1DB517FFFDCF299A08958C
:1007FC001091EE0408E0449817FD449A459A110FA5
:10080C0045980A95C1F70895E0E0FFE010814598FE
:10081C0008B117FB04F908B9459A16FB04F908B995
:10082C00459A15FB04F908B9459A14FB04F908B963
:10083C00459A13FB04F908B9459A12FB04F908B957
:10084C00459A11FB04F908B9459A10FB04F908B94B
:10085C00459A4598E395D1F608951091EF041EBD85
:10086C001DB517FFFDCF1EB51093F0040895289801
:10087C0015E01093EF040E9433040E943304289A6D
:10088C001091F0040895289815E01093EF040E943D
:10089C0033040E9433041091F0041170103010E0F6
:1008AC0009F41FEF112311F40C944F04289A0895A6
:1008BC00289816E01093EF040E943304289A0895A8
:1008CC000E945E04289811E01093EF040E943304F8
:1008DC0010E01093EF040E943304289A0E944904FC
:1008EC0008950E945E04289811E01093EF040E9472
:1008FC0033041FE31093EF040E943304289A0E94E0
:10090C00490408950E945E0428983B812A8119812C
:10091C0008810093F1041093F2042093F3043093B4
:10092C00F40410E21093EF040E9433041091F304CA
:10093C001093EF040E9433041091F2041093EF040F
:10094C000E9433041091F1041093EF040E943304BD
:10095C00289A0E9449041091F0041072103010E093
:10096C0009F01FEFE894112309F068941091D40456
:10097C0012F91093D4040091D404112702FD1FEF37
:10098C00109508950E945E04289817EC1093EF04BC
:10099C000E943304289A0E9449041091F0041072AA
:1009AC00103010E009F01FEFE894112309F068945F
:1009BC001091D40412F91093D4040091D40411278B
:1009CC0002FD1FEF10950895219709811A8101509E
:1009DC001040102F18830E945E0428983E812D81B0
:1009EC001C810B810093F1041093F2042093F30407
:1009FC003093F40412E01093EF040E94330410912E
:100A0C00F3041093EF040E9433041091F20410933A
:100A1C00EF040E9433041091F1041093EF040E9430
:100A2C003304E7E0F0E0FA93EA9310E01083EF93DD
:100A3C00FF931A81FF91EF911A931081088101178E
:100A4C001FEF08F01127112311F00C944205172DFC
:100A5C00E0E0FFE01F7F0027E10FF01F10811093F3
:100A6C00EF040E943304E981FA81108113951083FD
:100A7C00112311F00C9424052396289A0E94490402
:100A8C001091F0041072103010E009F01FEFE89490
:100A9C00112309F068941091D40412F91093D40422
:100AAC000091D404112702FD1FEF10950895219792
:100ABC000E9449040A811B8101501040102F188399
:100ACC003F812E811D810C810093F1041093F2045F
:100ADC002093F3043093F40428981BE01093EF0454
:100AEC000E9433041091F3041093EF040E9433041A
:100AFC001091F2041093EF040E9433041091F1044E
:100B0C001093EF040E94330410E01093EF040E9442
:100B1C003304E7E0F0E0FA93EA9310E01083EF93EC
:100B2C00FF931A81FF91EF911A931081088101179D
:100B3C001FEF08F01127112311F00C94CF050E9420
:100B4C0033041C81112311F40C94BA05172D1F9337
:100B5C001091F004E0E0FEE0AF91AF7FBB27EA0F0D
:100B6C00FB1F10830C94C605172D1F931091F004D6
:100B7C00E0E0FFE0AF91AF7FBB27EA0FFB1F1083D4
:100B8C00E981FA81108113951083112311F00C94D3
:100B9C009C052396289A0895EDEDF4E0EF93FF93CE
:100BAC001881FF91EF911193EEEDF4E010E01193A9
:100BBC000E94EF030E94C8030091E4041091E50425
:100BCC002091E6043091E7040895EDEDF4E0EF9305
:100BDC00FF931881FF91EF911193EEEDF4E010E883
:100BEC0011930E94EF03E8EEF4E0EF93FF93198169
:100BFC00FF91EF911193E9EEF4E010E011930E9454
:100C0C00B3030895EDEDF4E0EF93FF931881FF919A
:100C1C00EF911193EEEDF4E010E811930E94EF03C5
:100C2C0009811A810093E8041093E9040E94B3032C
:100C3C000895EDEDF4E0EF93FF931881FF91EF91A0
:100C4C001193EEEDF4E010E811930E94EF033C8158
:100C5C002B811A8109810093E0041093E104209305
:100C6C00E2043093E3040E94C8030895CF93DF930A
:100C7C0010EF1A930E94D205DF91CF910093B40428
:100C8C001093B5042093B6043093B704E8E0F0E079
:100C9C000E94476A0093B4041093B5042093B604E1
:100CAC003093B704CF93DF930091B4041091B50443
:100CBC002091B6043091B7043A932A931A930A936D
:100CCC0010EF1A930E941F06DF91CF91ECE0F0E039
:100CDC000E94476A0093B4041093B5042093B604A1
:100CEC003093B704CF93DF930091B4041091B50403
:100CFC002091B6043091B7043A932A931A930A932D
:100D0C0011EF1A930E941F06DF91CF9108951DE0F9
:100D1C000E94C0691AE00E94C069089513E20E9403
:100D2C00C06910914602105D0E94C0691AE30E94CE
:100D3C00C069CF93DF9318E0412A00EC19E61A93AF
:100D4C000A930091AD041091AE04CF93DF931A93E4
:100D5C000A9310E01A9310E01A9310E21A93689415
:100D6C0043F8689445F8E89454F855F80E941B6EC3
:100D7C00DF91CF91DF91CF911DE30E94C06908955F
:100D8C00CF93DF9318E0412A00EC19E61A930A93EB
:100D9C00E6E6F4E00E94CA6BDF91CF910E948D06CB
:100DAC00089522971091BB04112311F40C94EC06B6
:100DBC0016E00E94C0691A810E94C06910E00E946E
:100DCC00C06910E00E94C0690C94300710E00FEF6E
:100DDC000093AD041093AE040E949406CF93DF935E
:100DEC0018E0412A00EC19E61A930A931C81CF9360
:100DFC00DF931A9310E01A9310E01A9310E21A93EF
:100E0C00689443F80E94E26BDF91CF91DF91CF9110
:100E1C0010E20E94C069CF93DF9318E0412A00ECE6
:100E2C0019E61A930A93E4ECF3EEEF93FF931C810B
:100E3C00012F1127ADE0B0E0E89445F80E94056F52
:100E4C00FF91EF91E00FF11F0E94C16BDF91CF91E9
:100E5C000E948D0608950E949406CF93DF9318E0AC
:100E6C00412A00EC19E61A930A93EDE3F4E00E9490
:100E7C00CA6BDF91CF910E948D0608951091BB042F
:100E8C00112311F40C945F0716E00E94C06910E066
:100E9C000E94C0690091B1041091B2040E94C06913
:100EAC000091B1041091B204102F0E94C0690C94EF
:100EBC009607EDE3F4E0EF93FF933196FA93EA9300
:100ECC0018E21A9317EF41221FEB41220091B40450
:100EDC001091B5042091B6043091B704CF93DF93F1
:100EEC003A932A931A930A9310E01A9310E01A93E8
:100EFC0010E21A93689445F8E89454F855F842F8BF
:100F0C000E94226CDF91CF9118E21F9318810F91F0
:100F1C00011B102FFF91EF91108323960E94310734
:100F2C0008950091B1041091B20417FF03C03FEF74
:100F3C002FEF02C0332722270093B4041093B5047B
:100F4C002093B6043093B7040E944407089510917F
:100F5C00BA04012F11270093B1041093B2040E941C
:100F6C00970708950E949406EDE3F4E0EF93FF9346
:100F7C003196FA93EA9318E21A9317EF41221FEB7A
:100F8C0041220091B4041091B5042091B604309123
:100F9C00B704CF93DF933A932A931A930A9310E0F2
:100FAC001A9310E01A9310E21A93689445F8E89497
:100FBC0054F855F842F80E94226CDF91CF9118E258
:100FCC001F9318810F91011B102FFF91EF9110832C
:100FDC002396CF93DF9318E0412A00EC19E61A937D
:100FEC000A93EDE3F4E00E94CA6BDF91CF9110E21B
:100FFC000E94C0691BE50E94C06914E20E94C0698E
:10100C00EDE3F4E0EF93FF933196FA93EA9318E251
:10101C001A9317EF41221FEB41220091B404109157
:10102C00B5042091B6043091B704B801C901492F19
:10103C000E948A6E482F0E948A6E472F0E948A6EE9
:10104C00462F0E948A6E18E21F9318810F91011B84
:10105C00102FFF91EF9110832396CF93DF9318E01D
:10106C00412A00EC19E61A930A93EDE3F4E00E948E
:10107C00CA6BDF91CF911DE50E94C0690E948D065D
:10108C0008950E949406EDE3F4E0EF93FF933196FC
:10109C00FA93EA9318E21A9317EF41221FEB4122BD
:1010AC000091B4041091B5042091B6043091B704AA
:1010BC00CF93DF933A932A931A930A9310E01A93DF
:1010CC0010E01A9310E21A93689445F8E89454F8D7
:1010DC0055F842F80E94226CDF91CF9118E21F93D1
:1010EC0018810F91011B102FFF91EF911083239604
:1010FC00CF93DF9318E0412A00EC19E61A930A9378
:10110C00EDE3F4E00E94CA6BDF91CF91CF93DF93B4
:10111C0018E0412A00EC19E61A930A93E6E7F0EE80
:10112C000E94C16BDF91CF91CF93DF9318E0412ADE
:10113C0000EC19E61A930A93E6E8F4E00E94CA6BF5
:10114C00DF91CF911DE50E94C0690E948D06089524
:10115C000E943D041F7E103010E009F01FEF112398
:10116C0011F40C94D4080E949406CF93DF9318E0EA
:10117C00412A00EC19E61A930A93E9E7F0EE0E9473
:10118C00C16B1DE00E94976E1AE00E94976EDF9172
:10119C00CF911FEF0C94D7080C94D70810E00C9447
:1011AC00D70808952C971AE314B91FE915B910E75D
:1011BC0017B91FEC18B91091D4041B7F1093D404E9
:1011CC00469815E00E94FF69469A15E00E94FF6957
:1011DC0010E317B916E206EB0093AD041093AE04BE
:1011EC0011E004EF0E94F0691BEB14B91FE915B96B
:1011FC000E949406112737991FEF112311F40C94B8
:10120C005B09CF93DF9313E01A930E94D205DF9111
:10121C00CF910091E4041091E5042091E604309103
:10122C00E7043F832E831D830C83CF93DF9318E059
:10123C00412A00EC19E61A930A93EAE8F0EE0E94B0
:10124C00C16BDF91CF91CF93DF9318E0412A00EC73
:10125C0019E61A930A93398528851F810E816894A3
:10126C0043F8B801C901492F0E948A6E482F0E9489
:10127C008A6E472F0E948A6E462F0E948A6EDF91DB
:10128C00CF91CF93DF9318E0412A00EC19E61A9323
:10129C000A93E5E9F0EE0E94C16BDF91CF910E94B9
:1012AC003C060E948D060C947009CF93DF9318E0D6
:1012BC00412A00EC19E61A930A93EAE9F0EE0E942F
:1012CC00C16BDF91CF911091D40414601093D404AE
:1012DC000E948D060895EEEDF4E010E81193EDED0B
:1012EC00F4E0EF93FF931091F5041F5FFF91EF91E2
:1012FC0011930E94EF031091F6041093EC040E94DA
:10130C00A703EDEDF4E01091F50411930E94EF03A7
:10131C000895EEEDF4E010E81193EDEDF4E0EF93A9
:10132C00FF931091F5041F5FFF91EF9111930E94B1
:10133C00EF031091F6041093EC040E94A703089598
:10134C001091CC04112311F40C94DA0910E00E94D2
:10135C007568CF93DF9318E0412A07E318E61A93D8
:10136C000A93E5EBF0EE0E94C16BDF91CF91CF9326
:10137C00DF9310E01A9310E01A9311E01A930E9475
:10138C005D68DF91CF91CF93DF9318E0412A07E39B
:10139C0018E61A930A93EEEBF0EE0E94C16BDF9104
:1013AC00CF9110E00E947E6808951091CC04112317
:1013BC0011F40C943A0A1127062D017009F41095BA
:1013CC00112311F40C94380ACF93DF9310E01A9385
:1013DC0010E01A9311E01A930E945D68DF91CF918F
:1013EC00CF93DF9318E0412A07E318E61A930A9388
:1013FC00E7ECF0EE0E94C16BDF91CF91CF93DF93BE
:10140C0018E0412A07E318E61A930A930091D804CE
:10141C001091D9042091DA043091DB04CF93DF933F
:10142C003A932A931A930A9318E01A9300E00A93BA
:10143C0010E21A93689443F8689445F8E89454F8C9
:10144C0055F842F80E94226CDF91CF91DF91CF9139
:10145C0010E00E947E6810E002E3E4E3F2E0B1E009
:10146C000E94D76F0C943E0A10E002E00E94F069D3
:10147C0008951091CC04112311F40C945F0ACF93AE
:10148C00DF9310E01A9310E01A9311E01A930E9464
:10149C005D68DF91CF91CF93DF9318E0412A07E38A
:1014AC0018E61A930A93E0EDF0EE0E94C16BDF91FF
:1014BC00CF9108951091CC04112311F40C94800A4F
:1014CC00CF93DF9310E01A9310E01A9311E01A9364
:1014DC000E945D68DF91CF91CF93DF9318E0412A92
:1014EC0007E318E61A930A93EAEDF0EE0E94C16B3B
:1014FC00DF91CF91089565970E949406CF93DF9367
:10150C0018E0412A00EC19E61A930A93E1EEF0EE8A
:10151C000E94C16B1DE00E94976E1AE00E94976EAC
:10152C00DF91CF9110E01A8710E0188710E01C8B28
:10153C0010E0198B1FEF188B00E010E020E030E07A
:10154C000093D8041093D9042093DA043093DB046D
:10155C0010E000E01C870B870E94A60910E000E059
:10156C001983088310E000E01B830A83388D2F89D0
:10157C001E890D893F832E831D830C831A8510953C
:10158C00112311F40C94330B10E000E01C870B8733
:10159C0011275A991FEF1095E894112309F06894BC
:1015AC001BB112F91BB9CF93DF93FE017496FA931A
:1015BC00EA9314E61A930E948969DF91CF911A87F6
:1015CC001A85112311F40C94040B1C89113010E0B2
:1015DC0009F41FEF1F931C89143010E009F41FEF5E
:1015EC000F91102B112311F40C94020B10E000E05E
:1015FC001C870B870C94330B0C940E0B15E10E947B
:10160C00C069FE013B96A081B1811196A083B18384
:10161C001C89113010E009F41FEF1F931C89143042
:10162C0010E009F41FEF0F91102B1F931C89183138
:10163C0010E009F41FEF0F91102B1F930B851C85E5
:10164C00103009F4043110E011F008F01FEF0F9185
:10165C00102B112311F40C94D90A18851095112311
:10166C0011F40C943D0B0E94DB091FEF18871C89A9
:10167C00113010E009F41FEF112311F40C94710CCC
:10168C00CF93DF93FE017396FA93EA9314E61A93C1
:10169C000E948969DF91CF9119871985112311F463
:1016AC000C946B0CCF93DF93FE017296FA93EA9332
:1016BC001AE01A930E948969DF91CF9119871B89CF
:1016CC000FEF011B102F1F931A890F91011710E0B8
:1016DC0009F41FEF112311F40C94690C10E0198B11
:1016EC00E8E0F0E0FA93EA9310E010831FE71A9316
:1016FC001081088101171FEF08F01127112311F039
:10170C000C94AF0BCF93DF93EAE0F0E0FA93EA93FB
:10171C001AE01A930E948969DF91CF911C871C896A
:10172C001F931A2D0F91100F1C8B182D1F931A2D10
:10173C00E0E0FFE0AF91AF7FBB27EA0FFB1F108308
:10174C00E981FA81108113951083112311F00C9407
:10175C007F0B2396CF93DF93FE017096FA93EA9357
:10176C001AE01A930E948969DF91CF911987CF9360
:10177C00DF933F812E811D810C813A932A931A931A
:10178C000A9310E000E81A930A930E94EA04DF918E
:10179C00CF911095112311F40C94DB0BFE013296B2
:1017AC00A081B1811196A083B183CF93DF933F8148
:1017BC002E811D810C813A932A931A930A9310E07F
:1017CC0000E81A930A931FEF1A930E945D05DF91AC
:1017DC00CF91E8E0F0E0FA93EA9310E010831FE772
:1017EC001A931081088101171FEF08F0112711239C
:1017FC0011F00C942B0C182DE0E0FEE01F7F00275D
:10180C00E10FF01F10811F93182DE0E0FFE01F7F08
:10181C000027E10FF01F10810F91011710E009F064
:10182C001FEF112311F40C94220CFE013396A081AE
:10183C00B1811196A083B183E981FA81108113954E
:10184C001083112311F00C94F80B239619891F9314
:10185C0018890F91011710E009F41FEF112311F4EF
:10186C000C945F0C16E00E94C0693F812E811D8193
:10187C000C8100581F4F2F4F3F4F3F832E831D83EA
:10188C000C830091D8041091D9042091DA04309182
:10189C00DB0400581F4F2F4F3F4F0093D804109379
:1018AC00D9042093DA043093DB040E94DB090C94F6
:1018BC00690CFE013B96A081B1811196A083B18386
:1018CC0015E10E94C0690C946F0C10E00FEF1C879F
:1018DC000B8710E01C8B10E01A871C89143010E069
:1018EC0009F41FEF1F931C89183110E009F41FEF46
:1018FC000F91102B1F930B851C85103009F40431AC
:10190C0010E011F008F01FEF0F91102B112311F4C0
:10191C000C94C40A16E00E94C06918891F93198997
:10192C000F91011710E009F01FEF112311F40C9423
:10193C00C50C0FEF1FEF2FEF3FEF0093B404109384
:10194C00B5042093B6043093B7040E949406CF9349
:10195C00DF9318E0412A00EC19E61A930A93E4EF9E
:10196C00F0EE0E94C16B1DE00E94976E1AE00E947F
:10197C00976EDF91CF910E943F0A0C94DF0C00917F
:10198C00D8041091D9042091DA043091DB0400932F
:10199C00B4041093B5042093B6043093B704E4E375
:1019AC00F2E00EEF0E94CD6F0E94DB0910E0109365
:1019BC003D0208811981103009F4003010E009F063
:1019CC001FEF112311F40C94410D0FEF1FEF2FEFAC
:1019DC003FEF0093B4041093B5042093B6043093F6
:1019EC00B7040E949406CF93DF9318E0412A00ECD1
:1019FC0019E61A930A93EBE0F1EE0E94C16BDF91AA
:101A0C00CF91CF93DF9318E0412A00EC19E61A939B
:101A1C000A930A811B81CF93DF931A930A9310E0E8
:101A2C001A9310E01A9310E21A93689443F8E8940E
:101A3C0045F8E89454F855F80E941B6EDF91CF914D
:101A4C00DF91CF91CF93DF9318E0412A00EC19E698
:101A5C001A930A93ECE1F1EE0E94C16B1DE00E9417
:101A6C00976E1AE00E94976EDF91CF910E94600AE8
:101A7C0010E010933D020A811B81103009F40030F4
:101A8C0010E009F01FEF112311F40C94A30D0FEFCC
:101A9C001FEF2FEF3FEF0093B4041093B504209386
:101AAC00B6043093B7040E949406CF93DF9318E0EA
:101ABC00412A00EC19E61A930A93E5E2F1EE0E9432
:101ACC00C16BDF91CF91CF93DF9318E0412A00ECEB
:101ADC0019E61A930A930C811D81CF93DF931A9305
:101AEC000A9310E01A9310E01A9310E21A93689478
:101AFC0043F8E89445F8E89454F855F80E941B6EA6
:101B0C00DF91CF91DF91CF91CF93DF9318E0412AF2
:101B1C0000EC19E61A930A93ECE1F1EE0E94C16B0A
:101B2C001DE00E94976E1AE00E94976EDF91CF9194
:101B3C000E94600A10E010933D0208952297CF9303
:101B4C00DF9312E01A930E94D205DF91CF911127F7
:101B5C001A991FEF112311F40C94A50D0E949406F1
:101B6C00CF93DF9318E0412A00EC19E61A930A93FD
:101B7C001091F604CF93DF931A9310E01A9310E0B0
:101B8C001A9310E21A93689443F80E94E26BDF9167
:101B9C00CF91DF91CF91CF93DF9318E0412A00ECE6
:101BAC0019E61A930A93E5E3F1EE0E94C16BDF91FB
:101BBC00CF911091E6041A3A10E009F41FEF1123AB
:101BCC0011F40C94C70E1091E404103511F00C9420
:101BDC00FF0DCF93DF9318E0412A00EC19E61A931E
:101BEC000A93EEE3F1EE0E94C16BDF91CF910C945E
:101BFC00960E113511F00C94130ECF93DF9318E061
:101C0C00412A00EC19E61A930A93E5E4F1EE0E94DE
:101C1C00C16BDF91CF910C94960E123511F00C9490
:101C2C00270ECF93DF9318E0412A00EC19E61A93A4
:101C3C000A93EBE4F1EE0E94C16BDF91CF910C940F
:101C4C00960E133511F00C943B0ECF93DF9318E0E6
:101C5C00412A00EC19E61A930A93E0E5F1EE0E9492
:101C6C00C16BDF91CF910C94960E143511F00C943E
:101C7C004F0ECF93DF9318E0412A00EC19E61A932C
:101C8C000A93E9E5F1EE0E94C16BDF91CF910C94C0
:101C9C00960E183511F00C94630ECF93DF9318E069
:101CAC00412A00EC19E61A930A93E0E6F1EE0E9441
:101CBC00C16BDF91CF910C94960E1F3511F00C94E3
:101CCC00770ECF93DF9318E0412A00EC19E61A93B4
:101CDC000A93E5E6F1EE0E94C16BDF91CF910C9473
:101CEC00960ECF93DF9318E0412A00EC19E61A9375
:101CFC000A93EDE6F1EE0E94C16BDF91CF91CF9389
:101D0C00DF9318E0412A00EC19E61A930A9310911C
:101D1C00E404689443F8412F0E948A6EDF91CF91BE
:101D2C00CF93DF9318E0412A00EC19E61A930A933B
:101D3C00E7E7F1EE0E94C16BDF91CF91CF93DF9378
:101D4C0018E0412A00EC19E61A930A931091E50465
:101D5C00689443F8412F0E948A6EDF91CF91CF9304
:101D6C00DF9318E0412A00EC19E61A930A93E5E98F
:101D7C00F0EE0E94C16BDF91CF910E948D060C9406
:101D8C00D70ECF93DF9318E0412A00EC19E61A9393
:101D9C000A93EEE7F1EE0E94C16BDF91CF910E94A6
:101DAC008D06089525971E8114551093F6040E94F4
:101DBC0071091E81012F11273327222740E050E1A2
:101DCC0060E070E0689445F80E94616F3C832B835F
:101DDC001A83098300E010E020E030E00093D8047F
:101DEC001093D9042093DA043093DB04E8E0F0E09C
:101DFC00FA93EA9310E010831FE01A931081088184
:101E0C0001171FEF08F01127112311F00C94BE0FCE
:101E1C00CF93DF933F812E811D810C813A932A93BE
:101E2C001A930A9311E000E01A930A9310E01A93A4
:101E3C000E945D05DF91CF911885112311F40C944C
:101E4C005C0FEAE0F0E0FA93EA9310E010831FEFE6
:101E5C001A931081088101171FEF08F01127112325
:101E6C0011F00C945B0F1A2DE0E0FFE01F7F0027B0
:101E7C00E10FF01F10811E83CF93DF9318E0412AEE
:101E8C0000EC19E61A930A931885689443F8412FCD
:101E9C000E948A6EDF91CF91E981FA8110811395AE
:101EAC001083112311F00C94300F2396EAE0F0E02C
:101EBC00FA93EA9310E010831FE31A9310810881C0
:101ECC0001171FEF08F01127112311F00C94940F38
:101EDC00E0E0FFE0EF93FF931A2D012F1127000F85
:101EEC00111F000F111FFF91EF91E00FF11F0191D6
:101EFC001191219131910093E0041093E10420930E
:101F0C00E2043093E3040E94C803E981FA81108152
:101F1C0013951083112311F00C94650F23963F81B8
:101F2C002E811D810C8100501F4F2F4F3F4F3F833F
:101F3C002E831D830C830091D8041091D904209119
:101F4C00DA043091DB0400501F4F2F4F3F4F0093AA
:101F5C00D8041093D9042093DA043093DB04E9817C
:101F6C00FA81108113951083112311F00C94050F35
:101F7C0023960E948F0911E004EFE4E3F2E0B1E054
:101F8C000E94D76F0091D8041091D9042091DA04E3
:101F9C003091DB040093B4041093B5042093B60481
:101FAC003093B7041FEF1093C60310E002E30E94B6
:101FBC00F069CF93DF930E94A40DDF91CF91089528
:101FCC002D970E949406CF93DF9318E0412A00ECE2
:101FDC0019E61A930A931F85CF93DF931A9310E097
:101FEC001A9310E01A9310E21A93689443F80E9423
:101FFC00E26BDF91CF91DF91CF91CF93DF9318E01C
:10200C00412A00EC19E61A930A93E8E8F1EE0E94D3
:10201C00C16BDF91CF91CF93DF9310E01A9318E44B
:10202C001A930E94EB05DF91CF9110E004E60E9419
:10203C00F0691D851C5A012F11273327222740E0F8
:10204C0050E160E070E0689445F80E94616F3C8755
:10205C002B871A87098710E000E018870F8310E0A0
:10206C0000E019830883E8E0F0E0FA93EA9310E0CB
:10207C0010831FE01A931081088101171FEF08F0DD
:10208C001127112311F00C943D11CF93DF933F8551
:10209C002E851D850C853A932A931A930A9311E089
:1020AC0000E01A930A9310E01A930E945D05DF91E9
:1020BC00CF9110E000E01E830D8310E000E01C8344
:1020CC000B830A851B8519870887EAE0F0E0FA93F1
:1020DC00EA9310E0108317E01A931081088101171E
:1020EC001FEF08F01127112311F00C94B210CF93AD
:1020FC00DF9310E51A930E851F851A930A931FE040
:10210C0000E00F931F930B851C853F912F91020FBD
:10211C00131F1A930A9310E000E21A930A930E9479
:10212C005669DF91CF9110E00AE00E94F0690885B2
:10213C001985005E1F4F198708870D851E85005E67
:10214C001F4F1E870D87E981FA811081139510832B
:10215C00112311F00C947410239610E51F9308852D
:10216C0019851F93E89440F808851985102FE6E12E
:10217C00F0E0612FA1E0B0E03F914F9150E00E9460
:10218C006069CF93DF9310E51A931EE000E01A9379
:10219C000A9311E000E01A930A930E943869DF91C8
:1021AC00CF91EAE0F0E0FA93EA9310E010831FEF8E
:1021BC001A931081088101171FEF08F011271123C2
:1021CC0011F00C9413111A2DE0E0FFE01F7F002793
:1021DC00E10FF01F10811F931A2DE0E0FEE01F7F2E
:1021EC000027E10FF01F10810F91011710E009F08B
:1021FC001FEF112311F40C940A11FE013696A081E5
:10220C00B1811196A083B183E981FA811081139574
:10221C001083112311F00C94E01023960B811C8178
:10222C00103009F4003010E009F41FEF112311F401
:10223C000C9425111EE20E94C0690C94281113E223
:10224C000E94C0693F852E851D850C8500501F4F4F
:10225C002F4F3F4F3F872E871D870C87E981FA81CF
:10226C00108113951083112311F00C9442102396B6
:10227C00CF93DF9318E0412A00EC19E61A930A93E6
:10228C001DE50E94976E1DE00E94976E1AE00E9459
:10229C00976EDF91CF9111E004EFE4E3F2E0B1E04F
:1022AC000E94D76F0091D8041091D9042091DA04C0
:1022BC003091DB040093B4041093B5042093B6045E
:1022CC003093B7041FEF1093C603088119811030A7
:1022DC0009F4003010E009F01FEF112311F40C94F5
:1022EC00BC110E949406CF93DF9318E0412A00ECB6
:1022FC0019E61A930A93E4EAF1EE0E94C16BDF919E
:10230C00CF91CF93DF9318E0412A00EC19E61A9392
:10231C000A930A811B81CF93DF931A930A9310E0DF
:10232C001A9310E01A9310E21A93689443F8E89405
:10233C0045F8E89454F855F80E941B6EDF91CF9144
:10234C00DF91CF91CF93DF9318E0412A00EC19E68F
:10235C001A930A93ECE1F1EE0E94C16B1DE00E940E
:10236C00976E1AE00E94976EDF91CF910895219796
:10237C0010E018830091AC03112704FD1FEF11230B
:10238C0011F40C94CD11FE01108113951083009162
:10239C00AC03112705FD1FEF112311F40C94DE1172
:1023AC00FE01108113951083FE011081139510838B
:1023BC00CF93DF9318811A931DE01A930E94EB05BB
:1023CC00DF91CF9110915102103011F00C94F0115B
:1023DC000C94FA11123011F00C94F6110C94FA11B1
:1023EC00143011F00C941012CF93DF9312ED1A935A
:1023FC0015E01A930E94EB05DF91CF91CF93DF93F9
:10240C0010E01A9316E01A930E94EB05DF91CF911E
:10241C000C943812113011F00C9416120C942012EA
:10242C00133011F00C941C120C942012153011F076
:10243C000C943812CF93DF93109171021A9315E01C
:10244C001A930E94EB05DF91CF91CF93DF931091FC
:10245C0070021A9316E01A930E94EB05DF91CF914C
:10246C000C94381210915102103011F00C9440124F
:10247C000C944412113011F00C945C12CF93DF9336
:10248C0010916A021A9318E01A930E94EB05DF91DF
:10249C00CF91CF93DF9310916D021A9314E01A939E
:1024AC000E94EB05DF91CF910C94A012123011F029
:1024BC000C9462120C946612133011F00C947E1270
:1024CC00CF93DF9310916B021A9318E01A930E942A
:1024DC00EB05DF91CF91CF93DF9310916E021A939E
:1024EC0014E01A930E94EB05DF91CF910C94A0128B
:1024FC00143011F00C9484120C948812153011F0D5
:10250C000C94A012CF93DF9310916C021A9318E0E5
:10251C001A930E94EB05DF91CF91CF93DF9310912B
:10252C006F021A9314E01A930E94EB05DF91CF917E
:10253C000C94A012089523970091AC03112700FD71
:10254C001FEF1F930091AC03112701FD1FEF109596
:10255C000F9110231F93109183020F9110231123BD
:10256C0011F40C94EC12E8E0F0E0FA93EA9310E02A
:10257C00108317E01A931081088101171FEF08F0E0
:10258C001127112311F00C94E912182DE8E4F2E054
:10259C001F770027E10FF01F108116951B83CF9337
:1025AC00DF931B811A93182D105F1A930E94EB0571
:1025BC00DF91CF91E981FA8110811395108311235A
:1025CC0011F00C94C21223960C941C13E8E0F0E06A
:1025DC00FA93EA9310E0108317E01A9310810881A4
:1025EC0001171FEF08F01127112311F00C941B1386
:1025FC00182DE8E4F2E01F770027E10FF01F10819F
:10260C001B83CF93DF931B811A93182D105F1A93A2
:10261C000E94EB05DF91CF91E981FA81108113952E
:10262C001083112311F00C94F51223960091AC0336
:10263C00112700FD1FEF1F931091C0031F3010E0F6
:10264C0009F01FEF0F911023112311F40C94CB13ED
:10265C0010918302112311F40C944013CF93DF9348
:10266C0010E01A9318E11A930E94EB05DF91CF91B9
:10267C000C9468130091AC03112701FD1FEF11237B
:10268C0011F40C94541318E0E8E4F2E01F770027DF
:10269C00E10FF01F108118830C945E1318E0E8E42E
:1026AC00F2E01F770027E10FF01F108116951883B9
:1026BC00CF93DF9318811A9318E11A930E94EB05BC
:1026CC00DF91CF910091AC03112703FD1FEF112374
:1026DC0011F40C947D13CF93DF9311E01A931BE14B
:1026EC001A930E94EB05DF91CF910C948713CF9333
:1026FC00DF9310E01A931BE11A930E94EB05DF9114
:10270C00CF910091AC03112701FD1FEF112311F4A0
:10271C000C949D13CF93DF93109175021A931AE1C9
:10272C001A930E94EB05DF91CF910C94A813CF93D1
:10273C00DF93109174021A931AE11A930E94EB051D
:10274C00DF91CF910091AC03112702FD1FEF1123F4
:10275C0011F40C94BE13CF93DF93109177021A935C
:10276C0019E11A930E94EB05DF91CF910C94C913D8
:10277C00CF93DF93109176021A9319E11A930E946A
:10278C00EB05DF91CF910C94E81318E0E8E4F2E04C
:10279C001F770027E10FF01F10811883CF93DF9371
:1027AC0018811A9318E11A930E94EB05DF91CF91CF
:1027BC00CF93DF9310E01A931AE11A930E94EB0562
:1027CC00DF91CF9108952197E8E0F0E0FA93EA9336
:1027DC0010E1108318E11A931081088101171FEF83
:1027EC0008F01127112311F00C941914182DE8E49A
:1027FC00F2E01F770027E10FF01F10811B83CF93AE
:10280C00DF931B811A93182D105F1A930E94EB050E
:10281C00DF91CF91E981FA811081139510831123F7
:10282C0011F00C94F313239608952197CF93DF9313
:10283C00109161021A9319E21A930E94EB05DF9131
:10284C00CF91CF93DF93109162021A931AE21A93ED
:10285C000E94EB05DF91CF91CF93DF931091630230
:10286C001A931BE21A930E94EB05DF91CF91109102
:10287C0064021695EBEFF9EE1F730027E10FF01FC2
:10288C00149118831091610210321FEF08F0112778
:10289C001F931091630210321FEF08F011270F9154
:1028AC001023112311F40C945F14FE0110811A955E
:1028BC001083CF93DF9318811A931CE21A930E9412
:1028CC00EB05DF91CF9110917C0217701F93109143
:1028DC00650210730F91102B1883CF93DF9318811F
:1028EC001A931BE01A930E94EB05DF91CF91CF93C3
:1028FC00DF931091B4021A931CEC1A930E94EB050F
:10290C00DF91CF91CF93DF93109168021A931EE061
:10291C001A930E94EB05DF91CF91089522971091A5
:10292C00860213701983E8E0F0E0FA93EA9310E062
:10293C00108313E01A931081088101171FEF08F020
:10294C001127112311F00C94DB14182D1F931C81EB
:10295C00110F110F0F91100FE8EBF2E01F70002711
:10296C00E10FF01F10811B83182D133010E009F4B8
:10297C001FEF112311F40C94C7141B8108E01027CE
:10298C001B83CF93DF931B811A93182D1B5B1A9318
:10299C000E94EB05DF91CF91E981FA8110811395AB
:1029AC001083112311F00C94A214239610E002E36F
:1029BC000E94F06908952597CF93DF9310918402BC
:1029CC0011701A9317E01A930E94EB05DF91CF91C7
:1029DC001091720213701F9310917302110F110F4B
:1029EC00110F110F0F91102B1A83CF93DF931A81B4
:1029FC001A9319E01A930E94EB05DF91CF91CF93B4
:102A0C00DF93109185021A931AE01A930E94EB053A
:102A1C00DF91CF91109178021F9310917A0211706F
:102A2C0025E00E94D66E0F91102B1F931091790206
:102A3C0026E00E94D66E0F91102B1A83CF93DF9352
:102A4C001A811A931CE01A930E94EB05DF91CF9127
:102A5C00CF93DF93109168021A931EE01A930E9491
:102A6C00EB05DF91CF9108952797CF93DF931FEF5D
:102A7C001A930E94ED2FDF91CF91E8E0F0E0FA93EA
:102A8C00EA9310E010831FE11A931081088101175B
:102A9C001FEF08F01127112311F00C947815182D45
:102AAC00E8ECF2E01F710027110F001FE10FF01F7F
:102ABC000081118118870F83CF93DF930F811885C5
:102ACC001A930A93182D10561A930E940806DF9138
:102ADC00CF91E981FA81108113951083112311F0A4
:102AEC000C944C152396E8E0F0E0FA93EA9310E08E
:102AFC0010831FE11A931081088101171FEF08F052
:102B0C001127112311F00C94A815182DE8E8F2E008
:102B1C001F710027E10FF01F10811987CF93DF93EE
:102B2C0019851A93182D10541A930E94EB05DF91F6
:102B3C00CF91E981FA81108113951083112311F043
:102B4C000C9482152396CF93DF9310E01A9317EF12
:102B5C001A930E94EB05DF91CF91FE013496FA9304
:102B6C00EA9310E000E01183008311E00FEF1A9359
:102B7C000A93A081B18128813981B31709F4A21776
:102B8C0010E011F008F01FEF112311F00C94041653
:102B9C00EFEDF2E0EF93FF9308851985000F111FFD
:102BAC00FF91EF91E00FF11F0E94426A17FF03C0E3
:102BBC003FEF2FEF02C0332722273F832E831D8345
:102BCC000C83CF93DF933F812E811D810C813A932F
:102BDC002A931A930A9316EF1A930E941F06DF91F9
:102BEC00CF91EA81FB81A081B1811196A083B18341
:102BFC00BB2311F4AA2311F00C94C1152496CF9386
:102C0C00DF93109191021A9319E41A930E94EB0529
:102C1C00DF91CF91CF93DF9310E01A930E94ED2FA9
:102C2C00DF91CF910895239710E01883E8E0F0E04E
:102C3C00FA93EA9310E0108318E01A93108108813C
:102C4C0001171FEF08F01127112311F00C947516C2
:102C5C001E811F93182DE9E6F3E01F700027E10F8A
:102C6C00F01F10810F91102B112311F40C946C1682
:102C7C00182DE9E2F3E01F700027E10FF01F10811F
:102C8C0016951D83182D1F931D81E8E4F2E0AF917A
:102C9C00AF77BB27EA0FFB1F1083182D1F9310E093
:102CAC00E9E6F3E0AF91AF70BB27EA0FFB1F10838F
:102CBC001DE0109340021FEF1B831E811095112302
:102CCC0011F40C946C161FEF10934102E981FA81F8
:102CDC00108113951083112311F00C942516239653
:102CEC001881112311F40C948116CF93DF930E9459
:102CFC00A112DF91CF910895229710E01883E8E09C
:102D0C00F0E0FA93EA9310E0108318E01A93108124
:102D1C00088101171FEF08F01127112311F00C94F3
:102D2C00DF161D811F93182DE5E7F3E01F700027B8
:102D3C00E10FF01F10810F91102B112311F40C9443
:102D4C00D616182DE5E3F3E01F700027E10FF01FF6
:102D5C00108116951C83182D105F1F931C81E8E4BD
:102D6C00F2E0AF91AF77BB27EA0FFB1F1083182D52
:102D7C001F9310E0E5E7F3E0AF91AF70BB27EA0FCC
:102D8C00FB1F10831EE0109340021FEF1B831D815D
:102D9C001095112311F40C94D6161FEF10934202C8
:102DAC00E981FA81108113951083112311F00C9491
:102DBC008E1623961881112311F40C94EB16CF93D5
:102DCC00DF930E94E913DF91CF91089522971A8126
:102DDC001F9310917E030F91102B112311F40C945F
:102DEC000D1710913E03169510936102109161021C
:102DFC0016951093620210E010937E03CF93DF932D
:102E0C000E941B14DF91CF9119E1109340021A819B
:102E1C001F9310917F030F91102B112311F40C941D
:102E2C00281710913F0316951093630210E010932E
:102E3C007F03CF93DF930E941B14DF91CF911BE193
:102E4C00109340021A811F93109180030F91102B45
:102E5C00112311F40C944317109140031695109301
:102E6C00640210E010938003CF93DF930E941B1435
:102E7C00DF91CF911CE11093400208951091B6039D
:102E8C00112311F40C9457171091B703109351029E
:102E9C0010E01093B6031AE0109340021FEF10934A
:102EAC007203CF93DF930E94BD11DF91CF910895F0
:102EBC0023971091B3031F931091B4030F91102B10
:102ECC00103010E009F41FEF112311F40C9470175B
:102EDC000C9465180091B303112700FD1FEF11230B
:102EEC0011F40C948217CF93DF930E94A112DF91FF
:102EFC00CF911CE0109340020091B303112701FD08
:102F0C001FEF112311F40C949417CF93DF930E94AD
:102F1C00A112DF91CF911CE0109340020091B303FA
:102F2C00112702FD1FEF112311F40C94A617CF9358
:102F3C00DF930E94A112DF91CF911CE0109340020D
:102F4C000091B303112703FD1FEF112311F40C940F
:102F5C00B817CF93DF930E94A112DF91CF911CE0A1
:102F6C00109340020091B303112704FD1FEF1123AE
:102F7C0011F40C94CD17CF93DF930E94BD11DF9108
:102F8C00CF911FEF109372031BE01093400200913E
:102F9C00B303112705FD1FEF112311F40C94E21755
:102FAC00CF93DF930E94BD11DF91CF911FEF109350
:102FBC0072031FE0109340020091B403112704FD2B
:102FCC001FEF1F930091B403112705FD1FEF0F9105
:102FDC00102B1F931091C7030F91102B112311F479
:102FEC000C94231810E0109386020091B103112762
:102FFC0004FD1FEF112311F40C9409181091860293
:10300C001395109386020091B103112705FD1FEF54
:10301C00112311F40C941718109186021E5F109353
:10302C008602CF93DF930E949414DF91CF9110E02E
:10303C001093C70310E2109340020091B4031127C0
:10304C0006FD1FEF112311F40C9446180091B103E7
:10305C00112706FD1FEF112311F40C943A1811E0FF
:10306C001093B4020C943D1810E01093B402CF935B
:10307C00DF930E941B14DF91CF911DE1109340024E
:10308C000091B403112707FD1FEF112311F40C94C9
:10309C005F180091B103112707FD1FEF1093650214
:1030AC00CF93DF930E941B14DF91CF911EE11093FD
:1030BC00400210E01093B30310E01093B403089592
:1030CC002197E8E0F0E0FA93EA9310E0108319E01E
:1030DC001A931081088101171FEF08F01127112393
:1030EC0011F00C94A118182DE8E0F3E01F700027E4
:1030FC00E10FF01F10811B83182D1F931B81E8E437
:10310C00F2E0AF91AF70BB27EA0FFB1F1083182DB5
:10311C001F9319E0E9E4F3E0AF91AF70BB27EA0F1E
:10312C00FB1F1083E981FA81108113951083112301
:10313C0011F00C94701823961091AC03107E1F9311
:10314C00109112030F91102B1093AC031FE11093ED
:10315C00B30308952197E8E0F0E0FA93EA9310E0C6
:10316C00108319E01A931081088101171FEF08F0E2
:10317C001127112311F00C94E018182DE8E4F2E05B
:10318C001F700027E10FF01F10811B83182D1F9358
:10319C001B81E8E0F3E0AF91AF70BB27EA0FFB1F98
:1031AC001083E981FA81108113951083112311F09A
:1031BC000C94BA1823961091AC031F711093120340
:1031CC00CF93DF9310E01A930E94ED2FDF91CF91F4
:1031DC0008952197E8E0F0E0FA93EA9310E0108369
:1031EC001CE01A931081088101171FEF08F01127BA
:1031FC00112311F00C942A19182DE8E1F3E01F703B
:10320C000027E10FF01F10811B83182D1F931B81CA
:10321C00E8E5F2E0AF91AF70BB27EA0FFB1F10831C
:10322C00182D1F9319E0E5E5F3E0AF91AF70BB27C4
:10323C00EA0FFB1F1083E981FA811081139510832B
:10324C00112311F00C94F91823961091AC031F7DE7
:10325C001F93109125030F91102B1093AC0310E2C8
:10326C001093B3031091B1031F731F931091260396
:10327C000F91102B1093B10310EC1093B40308951D
:10328C002197E8E0F0E0FA93EA9310E010831CE059
:10329C001A931081088101171FEF08F011271123D1
:1032AC0011F00C947619182DE8E5F2E01F70002748
:1032BC00E10FF01F10811B83182D1F931B81E8E178
:1032CC00F3E0AF91AF70BB27EA0FFB1F1083E981CE
:1032DC00FA81108113951083112311F00C9450195D
:1032EC0023961091AC031072109325031091B10327
:1032FC00107C1093260308952197CF93DF931FEF33
:10330C001A930E94ED2FDF91CF91E8E0F0E0FA9351
:10331C00EA9310E0108319E01A93108108810117C9
:10332C001FEF08F01127112311F00C94D919E2EBBF
:10333C00F0E0EF93FF931C81012F1127A0E1B0E087
:10334C00E89445F80E94056F0F931F93182D012FD9
:10335C0011273F912F91020F131FFF91EF91E00F57
:10336C00F11F0E94396A1B83182D1F931B81E8E4FF
:10337C00F2E0AF91AF70BB27EA0FFB1F1083182D43
:10338C001F9319E0E9E4F3E0AF91AF70BB27EA0FAC
:10339C00FB1F1083E981FA8110811395108311238F
:1033AC0011F00C94941923961091AC03107E1F937A
:1033BC00E2EBF0E0EF93FF931981012F1127A0E1CD
:1033CC00B0E0E89445F80E94056F065F1F4FFF912F
:1033DC00EF91E00FF11F0E94396A0F91102B10939F
:1033EC00AC031FE11093B30310E00AE00E94F069F4
:1033FC00CF93DF9310E01A930E94ED2FDF91CF91C2
:10340C0008952197CF93DF931FEF1A930E94ED2F0E
:10341C00DF91CF9119811F701983E8E0F0E0FA93E6
:10342C00EA9310E0108319E01A93108108810117B8
:10343C001FEF08F01127112311F00C94581A182DB6
:10344C00E8E4F2E01F700027E10FF01F10811B83EE
:10345C00E2EBF0E0EF93FF931C81012F1127A0E129
:10346C00B0E0E89445F80E94056F0F931F93182D58
:10347C00012F11273F912F91020F131FFF91EF91F5
:10348C00E00FF11FEF93FF931B81FF91EF910E94CF
:10349C00176AE981FA81108113951083112311F0B9
:1034AC000C941C1A2396E2EBF0E0EF93FF93198136
:1034BC00012F1127A0E1B0E0E89445F80E94056FB8
:1034CC00065F1F4FFF91EF91E00FF11FEF93FF93FA
:1034DC001091AC031F71FF91EF910E94176ACF936B
:1034EC00DF9310E01A930E94ED2FDF91CF91089596
:1034FC002197CF93DF931FEF1A930E94ED2FDF914B
:10350C00CF91E8E0F0E0FA93EA9310E010831CE02E
:10351C001A931081088101171FEF08F0112711234E
:10352C0011F00C94D51AE2EBF1E0EF93FF931C81B0
:10353C00012F1127A0E1B0E0E89445F80E94056F37
:10354C000F931F93182D012F11273F912F91020FCD
:10355C00131FFF91EF91E00FF11F0E94396A1B833B
:10356C00182D1F931B81E8E5F2E0AF91AF70BB27DC
:10357C00EA0FFB1F1083182D1F9319E0E5E5F3E00C
:10358C00AF91AF70BB27EA0FFB1F1083E981FA8163
:10359C00108113951083112311F00C94901A23961B
:1035AC001091AC031F7D1F93E2EBF1E0EF93FF93BF
:1035BC001981012F1127A0E1B0E0E89445F80E9491
:1035CC00056F035F1F4FFF91EF91E00FF11F0E94FA
:1035DC00396A0F91102B1093AC0310E21093B303C4
:1035EC001091B1031F731F93E2EBF1E0EF93FF9384
:1035FC001981012F1127A0E1B0E0E89445F80E9451
:10360C00056F025F1F4FFF91EF91E00FF11F0E94BA
:10361C00396A0F91102B1093B10310EC1093B40373
:10362C0010E00AE00E94F069CF93DF9310E01A9348
:10363C000E94ED2FDF91CF9108952197CF93DF93C7
:10364C001FEF1A930E94ED2FDF91CF9119811F70FC
:10365C001983E8E0F0E0FA93EA9310E010831CE0A1
:10366C001A931081088101171FEF08F011271123FD
:10367C0011F00C94741B182DE8E5F2E01F70002774
:10368C00E10FF01F10811B83E2EBF1E0EF93FF934E
:10369C001C81012F1127A0E1B0E0E89445F80E94AD
:1036AC00056F0F931F93182D012F11273F912F9109
:1036BC00020F131FFF91EF91E00FF11FEF93FF9398
:1036CC001B81FF91EF910E94176AE981FA811081A9
:1036DC0013951083112311F00C94381B2396E2EBF5
:1036EC00F1E0EF93FF931981012F1127A0E1B0E0D6
:1036FC00E89445F80E94056F035F1F4FFF91EF910F
:10370C00E00FF11FEF93FF931091AC031072FF9138
:10371C00EF910E94176AE2EBF1E0EF93FF931981AE
:10372C00012F1127A0E1B0E0E89445F80E94056F45
:10373C00025F1F4FFF91EF91E00FF11FEF93FF938B
:10374C001091B103107CFF91EF910E94176ACF93F7
:10375C00DF9310E01A930E94ED2FDF91CF91089523
:10376C00E8E0F0E0FA93EA9310E010831FE11A937B
:10377C001081088101171FEF08F01127112311F098
:10378C000C94E81B182D1F93E2E1F0E0EF93FF93EC
:10379C00182D012F1127FF91EF91E00FF11F0E94BF
:1037AC00396AE8E6F2E0AF91AF71BB27EA0FFB1F75
:1037BC001083E981FA81108113951083112311F084
:1037CC000C94BF1B2396109186021170113010E0DF
:1037DC0009F41FEF112311F40C94F91B1091B10390
:1037EC0010611093B103109186021270123010E028
:1037FC0009F41FEF112311F40C94091C1091B1035F
:10380C0010621093B103109175021093E1031091A3
:10381C0074021093E203109185021F7010931D0423
:10382C0010918502169516951695169510931C04F5
:10383C000895E8E0F0E0FA93EA9310E010831FE0BB
:10384C001A931081088101171FEF08F0112711231B
:10385C0011F00C94681C182D1F93E2E5F0E0EF9327
:10386C00FF93182D012F1127FF91EF91E00FF11FFE
:10387C000E94396AE8EAF2E0AF91AF70BB27EA0F19
:10388C00FB1F1083182D1F93E2EAF0E0EF93FF93D8
:10389C00182D012F1127FF91EF91E00FF11F0E94BE
:1038AC00396AE8EBF2E0AF91AF70BB27EA0FFB1F70
:1038BC001083E981FA81108113951083112311F083
:1038CC000C94281C2396E8E0F0E0FA93EA9310E0BD
:1038DC0010831FE11A931081088101171FEF08F064
:1038EC001127112311F00C94B71C182D1F93E2E62D
:1038FC00F0E0EF93FF93182D012F1127000F111FEC
:10390C00FF91EF91E00FF11F0E94426AE8ECF2E0A8
:10391C00AF91AF71BB27AA0FBB1FEA0FFB1F11831F
:10392C000083182D1F93E2E3F0E0EF93FF93182D23
:10393C00012F1127FF91EF91E00FF11F0E94396ABF
:10394C00E8E8F2E0AF91AF71BB27EA0FFB1F1083E1
:10395C00E981FA81108113951083112311F00C94D5
:10396C00721C23961091B3021093930208952A9718
:10397C001091DC031F93109174030F91102B1F9364
:10398C00109172030F91102B1095112311F40C94BC
:10399C00D11C0C94D31D10917E02103010E009F450
:1039AC001FEF112311F40C94E21C10917F02169559
:1039BC001093D2030C94ED1C10917403112311F489
:1039CC000C94ED1C1091340316951093D2031091A6
:1039DC00DC03112311F40C94F71C1091D3031093F6
:1039EC00D20310E01093720310E01093740310E0F4
:1039FC001093DC031091D20316951F831F8116952B
:103A0C001E8310918002103010E009F41FEF112377
:103A1C0011F40C94161D1091810218830C941A1D2C
:103A2C0010913203169518831091820216951695F3
:103A3C001C5F1F93CF93DF931091D2031A931091B5
:103A4C0082021A9314EB1A930E94E269DF91CF91D0
:103A5C000F91100F1A831A811F931091D2030F919B
:103A6C00100F19831091D2031F931A811695169576
:103A7C000F91100F18870091AC03112704FD1FEF55
:103A8C001F930091AC03112705FD1FEF0F91102B15
:103A9C00112311F40C94881D1091510211701130E6
:103AAC0010E009F41FEF112311F40C94751DCF9342
:103ABC00DF931091D2031A9319811A931AE51A9372
:103ACC000E94E269DF91CF91165F19871E811F93C7
:103ADC001E8116950F91100F1D830C94861DCF938C
:103AEC00DF931F811A9319811A9318E71A930E9476
:103AFC00E269DF91CF91165F19871E811C5F1D83D0
:103B0C000C94991DCF93DF931F811A9319811A93EB
:103B1C0016E91A930E94E269DF91CF911A5F198717
:103B2C001E811E5F1D831091D203105F1F931F8196
:103B3C000F91100F1C83CF93DF931D811A9310E408
:103B4C001A930E94EB05DF91CF91CF93DF931981EC
:103B5C001A9311E41A930E94EB05DF91CF91CF9346
:103B6C00DF9318851A9312E41A930E94EB05DF91E8
:103B7C00CF91CF93DF9319851A9313E41A930E9474
:103B8C00EB05DF91CF91CF93DF931C811A9314E453
:103B9C001A930E94EB05DF91CF9108952197109114
:103BAC00B202103010E009F41FEF112311F40C9441
:103BBC00E51D1091B302109393020C94FA1D109111
:103BCC007303112311F40C94FA1DCF93DF9310910E
:103BDC0033031A9310EA1A931FEF1A930E94E269A7
:103BEC00DF91CF911093930210E010937303109117
:103BFC00BD03112311F40C940D1E1091AC02109303
:103C0C00D0031091AD021093D1030C94151E10919A
:103C1C00AA021093D0031091AB021093D103109110
:103C2C00BE031095112311F40C94221E10E0109376
:103C3C00D00310E01093D1031FEF00913702002343
:103C4C0009F01095112311F40C945D1E1091CE0304
:103C5C001F931091D0030F91011710E009F01FEF83
:103C6C00112311F40C945D1E1091D0031F9310912D
:103C7C00CE030F91011710E011F008F01FEF112384
:103C8C0011F40C94541E1091CE0313951093CE0383
:103C9C001091AE02109337020C945D1E1091CE035E
:103CAC001A951093CE031091B002109337021FEFA8
:103CBC0000913802002309F01095112311F40C9493
:103CCC00981E1091CF031F931091D1030F910117E0
:103CDC0010E009F01FEF112311F40C94981E1091B1
:103CEC00D1031F931091CF030F91011710E011F026
:103CFC0008F01FEF112311F40C948F1E1091CF03B9
:103D0C0013951093CF031091AF02109338020C94BB
:103D1C00981E1091CF031A951093CF031091B102F6
:103D2C00109338020091CC031091CD030F931F9385
:103D3C001091CE03012F11273F912F91020F131FCA
:103D4C000093CC031093CD031091CE0310938802F3
:103D5C001091CF0310939802CF93DF93109193029D
:103D6C001A931BEC1A930E94EB05DF91CF91CF9322
:103D7C00DF93109188021A9310EC1A930E94EB05B2
:103D8C00DF91CF91CF93DF93109198021A9310ED9E
:103D9C001A930E94EB05DF91CF911091BD031F93F5
:103DAC001091BE030F911023E894112309F068942D
:103DBC001091B90311F91093B9031091BD0310952B
:103DCC001F931091BE030F911023E894112309F057
:103DDC0068941091B90310F91093B9031091B903B9
:103DEC001093BA03CF93DF9311E21A9313E01A9353
:103DFC0013E00AEB1A930A9310E001E01A930A936A
:103E0C000E944C69DF91CF9108952597CF93DF9352
:103E1C000E94E114DF91CF91CF93DF930E943A156A
:103E2C00DF91CF91CF93DF930E94A112DF91CF91BD
:103E3C00CF93DF930E94E913DF91CF91CF93DF9360
:103E4C000E941B14DF91CF91CF93DF930E94BD1181
:103E5C00DF91CF91CF93DF930E949414DF91CF9198
:103E6C00CF93DF930E94BD1CDF91CF91CF93DF9353
:103E7C000E94D41DDF91CF9108950E949406CF9398
:103E8C00DF9318E0412A00EC19E61A930A93E9EB48
:103E9C00F1EE0E94C16BDF91CF910E948D061091C3
:103EAC00CF04112311F40C948C1F01E010E020E0DE
:103EBC0030E00093B4041093B5042093B60430930F
:103ECC00B704E6E8F4E0EF93FF933196FA93EA93A4
:103EDC001FE11A9317EF41221FEB4122E6ECF1EEA2
:103EEC000E94C16B1FE11F9318810F91011B102FB2
:103EFC00FF91EF91108323960E944708CF93DF9395
:103F0C0012E61A930E949200DF91CF911091CD048A
:103F1C00112311F40C94C31F02E010E020E030E0F8
:103F2C000093B4041093B5042093B6043093B704F3
:103F3C00E6E8F4E0EF93FF933196FA93EA931FE1EE
:103F4C001A9317EF41221FEB4122E6EDF1EE0E948E
:103F5C00C16B1FE11F9318810F91011B102FFF9153
:103F6C00EF91108323960E944708CF93DF9310E6BE
:103F7C001A930E949200DF91CF911091CE041123DD
:103F8C0011F40C94FA1F03E010E020E030E00093F1
:103F9C00B4041093B5042093B6043093B704E6E848
:103FAC00F4E0EF93FF933196FA93EA931FE11A939F
:103FBC0017EF41221FEB4122EAEEF1EE0E94C16B9A
:103FCC001FE11F9318810F91011B102FFF91EF918F
:103FDC00108323960E944708CF93DF9311E61A9320
:103FEC000E949200DF91CF9100E010E020E030E0E1
:103FFC00009328041093290420932A0430932B0453
:10400C001091D204112311F40C94352004E010E02B
:10401C0020E030E00093B4041093B5042093B60470
:10402C003093B704E6E8F4E0EF93FF933196FA93FC
:10403C00EA931FE11A9317EF41221FEB4122EEEF97
:10404C00F1EE0E94C16B1FE11F9318810F91011BB0
:10405C00102FFF91EF91108323960E944708109127
:10406C00D104112311F40C946A2010E8109548E344
:10407C0033E00E94A56805E010E020E030E00093FA
:10408C00B4041093B5042093B6043093B704E6E857
:10409C00F4E0EF93FF933196FA93EA931FE11A93AE
:1040AC0017EF41221FEB4122EFE0F2EE0E94C16BB1
:1040BC001FE11F9318810F91011B102FFF91EF919E
:1040CC00108323960E9447081091CC04112311F4FD
:1040DC000C94992006E010E020E030E00093B4044A
:1040EC001093B5042093B6043093B704E6E8F4E0DB
:1040FC00EF93FF933196FA93EA931FE11A9317EF1C
:10410C0041221FEB4122E0E2F2EE0E94C16B1FE163
:10411C001F9318810F91011B102FFF91EF911083AA
:10412C0023960E9447081091CB04112311F40C9490
:10413C00C82007E010E020E030E00093B4041093B6
:10414C00B5042093B6043093B704E6E8F4E0EF939B
:10415C00FF933196FA93EA931FE11A9317EF4122DA
:10416C001FEB4122EBE2F2EE0E94C16B1FE11F93A9
:10417C0018810F91011B102FFF91EF911083239643
:10418C000E944708089510E004E60E94F069CF935E
:10419C00DF9310E01A9318E41A930E94EB05DF9159
:1041AC00CF9110E004E60E94F069CF93DF931FEFEC
:1041BC001A930E94ED2FDF91CF91CF93DF930E9442
:1041CC009414DF91CF91CF93DF9310E01A930E9458
:1041DC00ED2FDF91CF910895CF93DF9310E01A93D9
:1041EC0010E01A9310E01A930E945D68DF91CF9152
:1041FC00CF93DF9318E0412A07E318E61A930A934A
:10420C00E2EDF4EEEF93FF931A81012F1127AEE04C
:10421C00B0E0E89445F80E94056FFF91EF91E00F34
:10422C00F11F0E94C16BDF91CF9110E20E943768A1
:10423C0010E20E943768CF93DF9310E01A9310E0DE
:10424C001A9311E01A930E945D68DF91CF91089543
:10425C00CF93DF9310E01A9310E01A9311E01A93A6
:10426C000E945D68DF91CF91CF93DF9318E0412AD4
:10427C0007E318E61A930A93E6EAF8EEEF93FF9336
:10428C001A81012F1127ADE0B0E0E89445F80E94A7
:10429C00056FFF91EF91E00FF11F0E94C16BDF9151
:1042AC00CF9116E00E94376810E00E947E68089556
:1042BC001881112311F40C947321CF93DF9318E020
:1042CC00412A07E318E61A930A93E8E3F2EE0E94F8
:1042DC00C16BDF91CF910C948121CF93DF9318E0C8
:1042EC00412A07E318E61A930A93ECE3F2EE0E94D4
:1042FC00C16BDF91CF910895E8E0F0E0FA93EA9377
:10430C0010E0108315E01A931081088101171FEF3C
:10431C0008F01127112311F00C94A9215A9A5B98DB
:10432C0010E004E60E94F0695A985B9A10E004E6EB
:10433C000E94F069E981FA81108113951083112391
:10434C0011F00C948B2123965A9A5B9A0895109134
:10435C00CC04112311F40C94952210E00E94756882
:10436C00EDE3F4E0EF93FF933196FA93EA9318E2BE
:10437C001A9317EF41221FEB41221C81CF93DF933D
:10438C001A9312E01A9300E00A9310E21A930E9417
:10439C00E26BDF91CF9118E21F9318810F91011BF3
:1043AC00102FFF91EF9110832396CF93DF9318E09A
:1043BC00412A07E318E61A930A93E0E4F2EE0E940E
:1043CC00C16BDF91CF9119811F9318810F91011748
:1043DC0010E009F01FEF112311F40C940622CF9377
:1043EC00DF9318E0412A07E318E61A930A93EDE3EA
:1043FC00F4E00E94CA6BDF91CF9110E20E94376803
:10440C00CF93DF9318E0412A07E318E61A930A9337
:10441C00E7E4F2EE0E94C16BDF91CF91CF93DF9373
:10442C0010E01A9310E01A9311E01A930E945D6841
:10443C00DF91CF91CF93DF9318E0412A07E318E681
:10444C001A930A93EAE4F2EE0E94C16BDF91CF91CA
:10445C00EDE3F4E0EF93FF933196FA93EA9318E2CD
:10446C001A9317EF41221FEB41221B81CF93DF934D
:10447C001A9312E01A9300E00A9310E21A930E9426
:10448C00E26BDF91CF9118E21F9318810F91011B02
:10449C00102FFF91EF9110832396CF93DF9310E0B1
:1044AC001A9316E01A9311E01A930E945D68DF913B
:1044BC00CF91CF93DF9318E0412A07E318E61A93C4
:1044CC000A93EDE3F4E00E94CA6BDF91CF91109157
:1044DC002803103010E009F41FEF112311F40C9491
:1044EC008722CF93DF9318E0412A07E318E61A934B
:1044FC000A93E1E5F2EE0E94C16BDF91CF910C942F
:10450C009522CF93DF9318E0412A07E318E61A931C
:10451C000A93E8E5F2EE0E94C16BDF91CF910E9405
:10452C00822108951091CC04112311F40C94C9220A
:10453C0010E00E947568CF93DF9318E0412A07E3DF
:10454C0018E61A930A93EFE5F2EE0E94C16BDF9125
:10455C00CF91CF93DF9310E01A9310E01A9311E0F0
:10456C001A930E945D68DF91CF91CF93DF9318E08F
:10457C00412A07E318E61A930A93E1E7F2EE0E9448
:10458C00C16BDF91CF9108951091CC04109511233C
:10459C0011F40C94D3220C942723CF93DF9310E0C7
:1045AC001A930E94F220DF91CF911881112311F4FC
:1045BC000C941323CF93DF9318E0412A07E318E6FA
:1045CC001A930A93E0E8F2EE0E94C16BDF91CF914F
:1045DC001981112311F40C940323CF93DF9318E06A
:1045EC00412A07E318E61A930A93E5E8F2EE0E94D3
:1045FC00C16BDF91CF910C941123CF93DF9318E013
:10460C00412A07E318E61A930A93EAE8F2EE0E94AD
:10461C00C16BDF91CF910C942123CF93DF9318E0E2
:10462C00412A07E318E61A930A93EFE8F2EE0E9488
:10463C00C16BDF91CF9110E00E947E6815E0109362
:10464C003D020895CF93DF9318811A930E945E2147
:10465C00DF91CF9116E00E94376810E00E947E68CF
:10466C000895CF93DF9318E0412A07E318E61A93D5
:10467C000A931A81CF93DF931A9313E01A9300E0F5
:10468C000A9310E21A93689443F80E94E26BDF914C
:10469C00CF91DF91CF9116E00E94376810E00E9415
:1046AC007E680895CF93DF9318E0412A07E318E65C
:1046BC001A930A930A811B81CF93DF931A930A935F
:1046CC0013E01A9300E00A9310E21A93689443F8EB
:1046DC00689445F8E89454F855F80E941B6EDF91E5
:1046EC00CF91DF91CF9116E00E94376810E00E94C5
:1046FC007E680895CF93DF930091AC03112700FDE2
:10470C001FEF1A930E945E21DF91CF910091AC03B1
:10471C00112700FD1FEF1095112311F40C949B230E
:10472C0010E00E947E680C94132410E20E943768FB
:10473C000091AC03112701FD1FEF112311F40C9410
:10474C00B723CF93DF9318E0412A07E318E61A93B7
:10475C000A93E4E9F2EE0E94C16BDF91CF910C94C5
:10476C00C523CF93DF9318E0412A07E318E61A9389
:10477C000A93E9E9F2EE0E94C16BDF91CF910091AF
:10478C00AC03112702FD1FEF112311F40C94DE234F
:10479C00CF93DF9318E0412A07E318E61A930A93A4
:1047AC00EEE9F2EE0E94C16BDF91CF910C94EC23F9
:1047BC00CF93DF9318E0412A07E318E61A930A9384
:1047CC00E3EAF2EE0E94C16BDF91CF910091AC0352
:1047DC00112703FD1FEF112311F40C940524CF9323
:1047EC00DF9318E0412A07E318E61A930A93E8EAE4
:1047FC00F2EE0E94C16BDF91CF910C941324CF93F6
:10480C00DF9318E0412A07E318E61A930A93ECEABF
:10481C00F2EE0E94C16BDF91CF9108952197CF9357
:10482C00DF930091AC03112704FD1FEF1A930E9434
:10483C005E21DF91CF9110E20E943768CF93DF9316
:10484C000091AC03112705FD1FEF1A930E945E2106
:10485C00DF91CF9110E20E943768109151021170D4
:10486C00113010E009F41FEF112311F40C944324C0
:10487C0013E40E9437680C94462416E50E943768AE
:10488C001091510216951F5C188318810E9437688D
:10489C0010E00E947E6808952197198111701130E3
:1048AC0010E009F41FEF112311F40C94A8241981C2
:1048BC0016951983E8E0F0E0FA93EA9310E0108380
:1048CC00EF93FF931B81FF91EF911A931081088155
:1048DC0001171FEF08F01127112311F00C948224FB
:1048EC0010E00E943768E981FA81108113951083DA
:1048FC00112311F00C946D242396E8E0F0E0FA9368
:10490C00EA93EF93FF931B81FF91EF91108316E0D5
:10491C001A931081088101171FEF08F0112711233A
:10492C0011F00C94A52417E00E943768E981FA81F4
:10493C00108113951083112311F00C94902423965D
:10494C000C94F424198116951983E8E0F0E0FA939D
:10495C00EA9311E01083EF93FF931B81FF91EF918A
:10496C001A931081088101171FEF08F011271123EA
:10497C0011F00C94CD2410E00E943768E981FA8183
:10498C00108113951083112311F00C94B8242396E5
:10499C0011E00E943768E8E0F0E0FA93EA93EF93B5
:1049AC00FF931B81FF91EF91108316E01A931081F6
:1049BC00088101171FEF08F01127112311F00C9437
:1049CC00F32417E00E943768E981FA81108113956E
:1049DC001083112311F00C94DE24239612E00E9414
:1049EC00376816E00E94376810E00E947E68CF930B
:1049FC00DF9310E01A931AE01A9311E01A930E94B5
:104A0C005D68DF91CF9108952297CF93DF9310E0EB
:104A1C001A9310E01A9310E01A930E945D68DF91CC
:104A2C00CF91CF93DF9318E0412A07E318E61A934E
:104A3C000A931091C003CF93DF931A9312E01A9349
:104A4C0000E00A9310E21A93689443F80E94E26B18
:104A5C00DF91CF91DF91CF9110E20E943768CF9315
:104A6C00DF9310E01A9312E01A9310E01A930E944D
:104A7C005D68DF91CF9110912803103010E009F49C
:104A8C001FEF112311F40C94502516E00E94376887
:104A9C000C94532510E20E943768CF93DF9318E0F3
:104AAC00412A07E318E61A930A93E0EBF2EE0E9410
:104ABC00C16BDF91CF91E8E0F0E0FA93EA9310E05C
:104ACC00108318E01A931081088101171FEF08F06A
:104ADC001127112311F00C949925182DE8E4F2E01C
:104AEC001F770027E10FF01F1081195F1B83CF93F5
:104AFC00DF931B811A9310E11A9310EF1A930E9403
:104B0C00E269DF91CF911B831B81105D1C831C819B
:104B1C000E943768E981FA81108113951083112363
:104B2C0011F00C946A252396CF93DF9310E01A931F
:104B3C0010E01A9311E01A930E945D68DF91CF91F7
:104B4C00CF93DF9318E0412A07E318E61A930A93F0
:104B5C001091C103CF93DF931A9312E01A9300E0E4
:104B6C000A9310E21A93689443F80E94E26BDF9167
:104B7C00CF91DF91CF9110E20E943768CF93DF93F2
:104B8C0010E01A9312E01A9311E01A930E945D68D8
:104B9C00DF91CF9110912803103010E009F41FEF32
:104BAC00112311F40C94DF2510E20E9437680C9449
:104BBC00E22516E00E94376810E50E9437681091D4
:104BCC006102195F1883CF93DF9318811A9310E158
:104BDC001A9310EF1A930E94E269DF91CF91188318
:104BEC001881105D198319810E9437681091630236
:104BFC00195F1883CF93DF9318811A9310E11A93DE
:104C0C0010EF1A930E94E269DF91CF9118831881FB
:104C1C00105D198319810E9437681CE40E94376863
:104C2C00E8E0F0E0FA93EA9310E1108318E11A93AC
:104C3C001081088101171FEF08F01127112311F0C3
:104C4C000C944E26182DE8E4F2E01F770027E10FB4
:104C5C00F01F1081195F1B83CF93DF931B811A9375
:104C6C0010E11A9310EF1A930E94E269DF91CF9131
:104C7C001B831B81105D1C831C810E943768E9819A
:104C8C00FA81108113951083112311F00C941F26B7
:104C9C002396089526971985143610E008F01FEF17
:104CAC00112311F40C94602610E00AE01D830C8390
:104CBC000C9482261985123310E008F01FEF112393
:104CCC0011F40C946F2610E005E01D830C830C94FA
:104CDC0082261985143110E008F01FEF112311F40E
:104CEC000C947E2610E002E01D830C830C9482262B
:104CFC0010E001E01D830C83FE01EF93FF931E81F6
:104D0C00FF91EF9111931E811F3710E011F008F005
:104D1C001FEF112311F40C949926FE0131961FEF0D
:104D2C0011930C949D26FE01319610E0119308818D
:104D3C0019810F931F930C811D81689445F8BF91C5
:104D4C00AF910E94056F198308831985012F1127D4
:104D5C000F931F93088119813F912F91020F131FFD
:104D6C001B830A830A811B810F931F930C811D8166
:104D7C00689445F8BF91AF910E94266F0F931F93D3
:104D8C000C811D81689445F8BF91AF910E94056F0D
:104D9C001B830A830A811B811A930A931A85012F9C
:104DAC0011271A930A931B85012F11271A930A9323
:104DBC000E940D702696102F0895CF93DF9310E06C
:104DCC001A931FE01A9310E01A930E945D68DF910A
:104DDC00CF911A811F9318810F9101171FEF08F0C3
:104DEC001127112311F40C94002713E00E9437684B
:104DFC000C94032710E20E943768CF93DF9310E0E6
:104E0C001A931FE01A9311E01A930E945D68DF91C8
:104E1C00CF911A811F9319810F91011710E011F096
:104E2C0008F01FEF112311F40C94212714E00E94B9
:104E3C0037680C94242710E20E9437680895229753
:104E4C0010E00E948F68176C109339020A811B8145
:104E5C00103009F4003010E011F008F01FEF1123AE
:104E6C0011F40C943D270A811B810E94F06910916A
:104E7C0039021F3F10E009F41FEF112311F40C94B9
:104E8C004C2710E00C944F270C944F271FEF0C94D9
:104E9C004F270895229710913C021983198118838A
:104EAC0019811F9310913B020F91011B102F198335
:104EBC00188110933B021981089524971C8110309E
:104ECC0010E009F01FEF18831881112311F40C94D2
:104EDC0077271D811E3110E011F008F01FEF1093A1
:104EEC00C6031D811A3011F00C94C027CF93DF93A9
:104EFC00109151021A9310E01A9315E01A931F8126
:104F0C001A930E945026DF91CF9110935102CF93A8
:104F1C00DF930E941424DF91CF91CF93DF9310E0A5
:104F2C001A931FE01A9310E01A930E945D68DF91A8
:104F3C00CF9110E20E943768CF93DF9310E01A9361
:104F4C001AE01A9311E01A930E945D68DF91CF91D9
:104F5C0016E00E943768CF93DF93109151021A9399
:104F6C0010E01A9315E01A930E94E326DF91CF917B
:104F7C000C94DB291B3011F00C94FB2718811123A6
:104F8C0011F40C94D8270091AC03112704FD1FEFEA
:104F9C001095E894112309F068941091AC0314F95E
:104FAC001093AC03CF93DF930E941424DF91CF9125
:104FBC00CF93DF9310E01A9313E01A9311E01A9336
:104FCC000E945D68DF91CF9116E00E943768CF9305
:104FDC00DF9311E01A9310E01A9312E01A930E94D7
:104FEC00E326DF91CF910C94DB291C3011F00C944B
:104FFC0065281091AC031F701B831B81012F11E0DE
:10500C000695111FE8F716951695169516951B83A0
:10501C00CF93DF931B811A9317E01A931FE01A9317
:10502C001F811A930E945026DF91CF911B831B8105
:10503C001A831B81012F11E00695111FE8F71695B5
:10504C001695169516951B831881112311F40C9443
:10505C0038281091AC03107F1F931B810F91102BDC
:10506C001093AC030E948023CF93DF931A811A9381
:10507C0017E01A931FE01A930E94E326DF91CF9159
:10508C00CF93DF9310E01A9313E01A9311E01A9365
:10509C000E945D68DF91CF910091AC03112700FD58
:1050AC001FEF112311F40C94602815E00E9437684F
:1050BC000C94632816E00E9437680C94DB291F308F
:1050CC0011F00C94A0281881112311F40C947D2854
:1050DC000091AC03112705FD1FEF1095E8941123E7
:1050EC0009F068941091AC0315F91093AC03CF93AD
:1050FC00DF930E941424DF91CF91CF93DF9310E0C4
:10510C001A9317E01A9311E01A930E945D68DF91CD
:10511C00CF9116E00E943768CF93DF9311E01A937A
:10512C0010E01A9312E01A930E94E326DF91CF91BC
:10513C000C94DB291D3111F00C94D2281881112309
:10514C0011F40C94B8280091B103112706FD1FEF40
:10515C001095E894112309F068941091B10316F995
:10516C001093B103CF93DF930091B103112706FD88
:10517C001FEF1A930E942823DF91CF91CF93DF93D7
:10518C0011E01A9310E01A9312E01A930E94E3268E
:10519C00DF91CF910C94DB291E3111F00C94042972
:1051AC001881112311F40C94EA280091B1031127F2
:1051BC0007FD1FEF1095E894112309F068941091E6
:1051CC00B10317F91093B103CF93DF930091B1039F
:1051DC00112707FD1FEF1A930E942823DF91CF910F
:1051EC00CF93DF9311E01A9310E01A9312E01A9305
:1051FC000E94E326DF91CF910C94DB29103211F041
:10520C000C9442291091B1031073169516951695AE
:10521C0016951B83CF93DF931B811A9310E01A937F
:10522C0013E01A931F811A930E945026DF91CF919D
:10523C001B83CF93DF931B811A930E943723DF913B
:10524C00CF911091B1031F7C1F931B81110F110F74
:10525C00110F110F0F91102B1093B103CF93DF93FC
:10526C001B811A9310E01A9313E01A930E94E32601
:10527C00DF91CF910C94DB29193311F00C94802918
:10528C00CF93DF931091850216951695169516956A
:10529C001A9310E01A931FE01A931F811A930E941D
:1052AC005026DF91CF9110931C04CF93DF93109174
:1052BC001C041A930E943723DF91CF91CF93DF9375
:1052CC0010911C041A9310E01A931FE01A930E9479
:1052DC00E326DF91CF9110911C04110F110F110FC8
:1052EC00110F1F9310911D040F91102B1093850219
:1052FC000C94DB291A3311F00C94BB29CF93DF9358
:10530C00109185021F701A9310E01A931FE01A93E4
:10531C001F811A930E945026DF91CF9110931D0488
:10532C00CF93DF9310911D041A930E943723DF91C2
:10533C00CF91CF93DF9310911D041A9310E01A9321
:10534C001FE01A930E94E326DF91CF9110911C0469
:10535C00110F110F110F110F1F9310911D040F91AD
:10536C00102B109385020C94DB29153411F00C943E
:10537C00DB29CF93DF9310E01A9310E01A9311E01E
:10538C001A930E945D68DF91CF91CF93DF9318E061
:10539C00412A07E318E61A930A93E5EBF2EE0E9412
:1053AC00C16BDF91CF910C94DB2908952797109155
:1053BC00CC0410951F931885103010E009F41FEFE2
:1053CC000F91102B112311F40C94EE290C943A2C00
:1053DC001F81103010E009F01FEF1883E6E4F4EEA3
:1053EC00EF93FF931885012F1127FF91EF91E00F99
:1053FC00F11F14911B83ECE8F4EEEF93FF931885E7
:10540C00012F1127FF91EF91E00FF11F14911C83D5
:10541C0018851D3010E009F41FEF112311F40C94C2
:10542C003F2ACF93DF931091C0031A9310E01A9385
:10543C001FE01A931A851A930E945026DF91CF9180
:10544C001093C003CF93DF930E940A25DF91CF9175
:10545C00CF93DF931091C0031A9310E01A931FE0BF
:10546C001A930E94E326DF91CF910C943A2C0C9462
:10547C006E2A18851E3010E009F41FEF112311F469
:10548C000C946E2ACF93DF931091C1031A9310E002
:10549C001A931FE01A931A851A930E945026DF91D3
:1054AC00CF911093C103CF93DF930E940A25DF9114
:1054BC00CF91CF93DF931091C1031A9310E01A93FD
:1054CC001FE01A930E94E326DF91CF910C943A2CA3
:1054DC00CF93DF9318851A930E94F220DF91CF911E
:1054EC001B811F3F10E009F41FEF112311F40C94E2
:1054FC008B2ACF93DF9318851A9318851A930E94E1
:10550C006327DF91CF910C94C92B1B81103810E0CD
:10551C0008F01FEF112311F40C94DB2A1B811F7769
:10552C001B831B81E8E4F2E01F770027E10FF01FDB
:10553C0010811695169516951E83CF93DF931E81B9
:10554C001A9310E01A931FE01A931A851A930E946B
:10555C005026DF91CF911E83CF93DF931E811A9338
:10556C000E945224DF91CF91CF93DF931E811A9327
:10557C0010E01A931FE01A930E94E326DF91CF915B
:10558C001881112311F40C94D92A1B811F931E81AD
:10559C00110F110F110FE8E4F2E0AF91AF77BB27B9
:1055AC00EA0FFB1F10830C94C92B1C81113010E0E7
:1055BC0009F41FEF112311F40C941C2B1B81E8E44C
:1055CC00F2E01F770027E10FF01F1081112309F083
:1055DC001FEF19831FEF1093C6031881112311F4C9
:1055EC000C94FB2A198110951983CF93DF931981A1
:1055FC001A930E942823DF91CF91CF93DF9311E070
:10560C001A9310E01A9312E01A930E94E326DF918A
:10561C00CF911B811F931981E8E4F2E0AF91AF7732
:10562C00BB27EA0FFB1F10830C94C92B1B81E8E4EA
:10563C00F2E01F770027E10FF01F10811E83188501
:10564C00153210E009F41FEF112311F40C94312BD7
:10565C001E811A5F1E83CF93DF931E811A9310E075
:10566C001A931E811A931A851A930E945026DF9161
:10567C00CF911E831B811F931E81E8E4F2E0AF9152
:10568C00AF77BB27EA0FFB1F10831885113211F07F
:10569C000C945D2BCF93DF931E811F5F1A930E9496
:1056AC003723DF91CF911FEF812E0C94A82B123250
:1056BC0011F00C94652B15E1812E0C94A82B133250
:1056CC0011F00C946D2B10E0812E0C94A82B14323D
:1056DC0011F00C94752B16E0812E0C94A82B15321E
:1056EC0011F00C948E2B1E81165010936802CF93E0
:1056FC00DF931E81012F1127065010401A930A9335
:10570C000E945823DF91CF911FEF812E0C94A82B70
:10571C00133311F00C94962B11E1812E0C94A82BC1
:10572C001F3311F00C949E2B19E0812E0C94A82B96
:10573C00CF93DF931E811A930E943723DF91CF9171
:10574C001FEF812E182D1F3F10E009F01FEF1123C2
:10575C0011F40C94BD2BCF93DF93182D1F931E8146
:10576C000F91100F1A930E942E21DF91CF91CF939E
:10577C00DF931E811A9310E01A931E811A930E94D4
:10578C00E326DF91CF91CF93DF9310E01A931DE0C6
:10579C001A9310E01A930E945D68DF91CF911885DF
:1057AC001F3110E008F01FEF112311F40C94E32BC0
:1057BC0014E40E9437680C94FE2B18851E3010E000
:1057CC0011F008F01FEF112311F40C94F22B1CE4D0
:1057DC000E9437680C94FE2B18851D301FEF08F0C3
:1057EC001127112311F40C94FE2B15E50E94376838
:1057FC001881112311F40C943A2C109193021093EC
:10580C00B3021FEF10937203CF93DF930E94A11288
:10581C00DF91CF91CF93DF930E94E913DF91CF916A
:10582C00CF93DF930E941B14DF91CF91CF93DF9323
:10583C000E94BD11DF91CF911B81103210E008F056
:10584C001FEF112311F40C942E2C1FEF1093C60391
:10585C001B81103410E008F01FEF112311F40C948D
:10586C003A2C1FEF1093CB030895219710E0188367
:10587C00CF93DF9310917D0210951A930E948E02A4
:10588C00DF91CF91CF93DF930E94BD1CDF91CF911D
:10589C00CF93DF930E94D41DDF91CF91FE01108135
:1058AC0013951083CF93DF9310E00AE01A930A93B9
:1058BC000E942527DF91CF9110951F9318811336E5
:1058CC0010E011F008F01FEF0F91102B112311F4C1
:1058DC000C943E2C188114361FEF08F0112711235D
:1058EC0011F40C94AD2C10913E021A931DE01A93F6
:1058FC001EE01A930E94F46F2396112311F40C945A
:10590C008D2C10913F0210933E020C949D2C109103
:10591C003E0210933F0210913E021A931DE01A931F
:10592C001EE01A930E94EA6F239610933E02CF93C7
:10593C00DF9310913E021A9310E01A930E94DC2917
:10594C00DF91CF9111E010933D020C94132E109126
:10595C003E02103010F40C94D22C1D3019F010F0C3
:10596C000C94D22CCF93DF931091C0031A93109107
:10597C00C0031A930E94AD21DF91CF91CF93DF9397
:10598C001091C0031A930E94071ADF91CF911FEF59
:10599C001093C9030C94E72D1E3010F40C94F52CC5
:1059AC001E3119F010F00C94F52CCF93DF9310915D
:1059BC00C1031A931091C1031A930E94AD21DF9178
:1059CC00CF91CF93DF931091C1031A930E94231BA5
:1059DC00DF91CF911FEF1093CA030C94E72D1F3169
:1059EC0011F00C940B2D0E949822E2E3F0E03B9610
:1059FC00109193020E94176AE2E5F0E03B96109139
:105A0C00B3020E94176A0C94E72D103211F00C941B
:105A1C001A2D0E949822E2E1F0E07E961091860207
:105A2C000E94176A0C94E72D113210F40C94252D5A
:105A3C00183319F010F00C94252D0C942E2D1F33C7
:105A4C0010F40C945A2D133419F010F00C945A2DA8
:105A5C000E949822E6E4F4EEEF93FF9310913E023D
:105A6C00012F1127FF91EF91E00FF11F14911F717E
:105A7C00812EE2E1F0E0EF93FF93182D012F112717
:105A8C00FF91EF91E00FF11FEF93FF93182DE8E6D4
:105A9C00F2E01F710027E10FF01F1081FF91EF91D1
:105AAC000E94176A0C94E72D193311F00C94602D99
:105ABC000C94642D1A3311F00C947C2D0E949822B6
:105ACC0010911C04110F110F110F110F1F93109136
:105ADC001D040F91102B10938502E2E1F0E07D96EE
:105AEC00109185020E94176A0C94E72D1B3310F459
:105AFC000C94872D1E3319F010F00C94872D0C94F8
:105B0C008B2D143411F00C94B72D0E949822E6E4DE
:105B1C00F4EEEF93FF9310913E02012F1127FF91AA
:105B2C00EF91E00FF11F14911F70812EE2E5F0E070
:105B3C00EF93FF93182D012F1127FF91EF91E00F99
:105B4C00F11FEF93FF93182DE8EAF2E01F70002786
