:10007C0018811F9316E11F93E89440F8EFEDF3E01D
:10008C00A4E0B0E03F914F9150E00E945E5E089575
:10009C0000E010E020E030E00093DF031093E00379
:1000AC002093E1033093E203CF93DF9318811A93EB
:1000BC000E943E00DF91CF9118811F9312E01F9395
:1000CC00E89440F8E6E1F0E03F914F91A1E0B0E018
:1000DC0060E050E00E945E5E18811F9313E01F9356
:1000EC00E89440F8E6E1F0E03F914F91A1E0B0E0F8
:1000FC0068E250E00E945E5E18811F9314E01F932B
:10010C00E89440F8E6E1F0E03F914F91A1E0B0E0D7
:10011C0064E150E00E945E5E18811F9315E01F930E
:10012C00E89440F8E6E1F0E03F914F91A1E0B0E0B7
:10013C0060E850E00E945E5E00E010E020E030E0FD
:10014C000093DF031093E0032093E1033093E20369
:10015C00CF93DF9318811A930E943E00DF91CF91C9
:10016C00089519E1109332025A9808951AE01093E9
:10017C0032025A980895219710E51F9309811A812C
:10018C001F93E89440F809811A81102FE6E1F0E002
:10019C00612FA1E0B0E03F914F9150E00E945E5E74
:1001AC0010E51F93FE01A1E0B0E04F910E943B5E71
:1001BC0018810895CF93DF9310E51A930A811B8160
:1001CC001A930A93FE0133968F011A930A9310E047
:1001DC0001E01A930A930E94545EDF91CF9110E0D4
:1001EC0007E00E94EE5E08952297CF93DF9310E50F
:1001FC001A930F8118851A930A93FE0135968F0175
:10020C001A930A9310E004E01A930A930E94545E26
:10021C00DF91CF9110E007E00E94EE5E08952B97DE
:10022C001BB11F701F931C85110F110F110F110F94
:10023C000F91102B1BB913E910937A0011E00E9457
:10024C00FD5E13EC10937A0010917A00107110304F
:10025C0010E009F01FEF112311F40C942A0113E89C
:10026C0010937A001C85E2E2F3E01F710027E10F86
:10027C00F01F108118831881012F11271E830D8305
:10028C000D811E81015010401C830B831C85E2E004
:10029C00F3E01F710027E10FF01F1081012F1127D0
:1002AC0018870F8310917900012F11270F931F933B
:1002BC000B811C81019509F41A9510953F912F9192
:1002CC00020F131F1A87098709851A85A0E81A27B8
:1002DC00103809F400301FEF08F01127112311F426
:1002EC000C947C0110E000E01A87098709851A85B7
:1002FC000F931F930F8118850F931F930D811E81F0
:10030C003F912F91020F131F98011F910F91A0E89D
:10031C001A273A27131709F4021710E011F008F006
:10032C001FEF1F9309851A850F931F930F81188553
:10033C000F931F930B811C81019509F41A9510954D
:10034C003F912F91020F131F98011F910F91A0E85D
:10035C001A273A27131709F402171FEF08F0112771
:10036C000F91102B112311F40C94E10112E319835A
:10037C001C851F931981E2E6F3E0AF91AF71BB27A7
:10038C00EA0FFB1F10831C851F931B85E2E4F3E02F
:10039C00AF91AF71BB27EA0FFB1F10831C851F9316
:1003AC0013E0E2E2F3E0AF91AF71BB27EA0FFB1F62
:1003BC0010830C94EA011C85E2E6F3E01F71002720
:1003CC00E10FF01F1081198309851A850F931F9374
:1003DC000F8118853F912F91020F131F112312F4D7
:1003EC000F5F1F4F159507951A87098719811030D4
:1003FC0010E009F41FEF112311F40C941B02188167
:10040C0015301FEF08F01127112311F40C94190269
:10041C001C851F9315E0E2E2F3E0AF91AF71BB27AF
:10042C00EA0FFB1F10830C94490209851A850F9360
:10043C001F930F81188598011F910F91A0E81A271F
:10044C003A27131709F4021710E009F01FEF1123D4
:10045C0011F40C9449021C851F931B85E2E4F3E014
:10046C00AF91AF71BB27EA0FFB1F10831C851F9345
:10047C0009851A85102FE2E0F3E0AF91AF71BB272D
:10048C00EA0FFB1F108308952397149A1598169A58
:10049C00CF93DF931BE01A931FEF1A930E94150161
:1004AC00DF91CF91109182031395109382031091D9
:1004BC008203113011F00C948E021498159A169A2E
:1004CC00FE013296FA93EA9310E0108317E01A9328
:1004DC001081088101171FEF08F01127112311F06B
:1004EC000C948B02CF93DF931D811A931F811A9367
:1004FC000E941501DF91CF91E981FA81108113954A
:10050C001083112311F00C946F0223960C94620348
:10051C00123011F00C94E302149A1598169AFE01FD
:10052C003296FA93EA9318E010831AE01A9310812A
:10053C00088101171FEF08F01127112311F00C94FB
:10054C00BA02CF93DF931D811A931F811A930E94D5
:10055C001501DF91CF91E981FA81108113951083F8
:10056C00112311F00C949E022396FE013296FA93FD
:10057C00EA931CE010831FE01A9310810881011785
:10058C001FEF08F01127112311F00C94E002CF9308
:10059C00DF931D811A931F811A930E941501DF911D
:1005AC00CF91E981FA81108113951083112311F0F9
:1005BC000C94C40223960C946203133011F00C9427
:1005CC001203149A159A1698FE013296FA93EA932E
:1005DC0010E1108317E11A931081088101171FEFA6
:1005EC0008F01127112311F00C940F03CF93DF9314
:1005FC001D811A931F811A930E941501DF91CF91CF
:10060C00E981FA81108113951083112311F00C9458
:10061C00F30223960C946203143011F00C945F03D4
:10062C001FEF00913502002309F01095112311F4EE
:10063C000C945D0314E110933502FE013296FA938B
:10064C00EA9310E0108317E11A93108108810117C7
:10065C001FEF08F01127112311F00C945C031D817E
:10066C00E2E6F3E01F710027E10FF01F10811C83FD
:10067C00FE0134961127008170E0701718F40A956A
:10068C0000831FEF1D811F931C81E2E6F3E0AF9105
:10069C00AF71BB27EA0FFB1F1083E981FA81108130
:1006AC0013951083112311F00C942C0323960C94A6
:1006BC00620310E01093820308951091A8042B9804
:1006CC001EBD1DB517FFFDCF1EB51093A9042B9AA7
:1006DC0008951091A5042B981EBD1DB517FFFDCFD5
:1006EC001EB51093A7041091A4041EBD1DB517FFD1
:1006FC00FDCF1EB51093A6042B9A089510919F045C
:10070C002B981EBD1DB517FFFDCF1EB51093A3046E
:10071C0010919E041EBD1DB517FFFDCF1EB5109385
:10072C00A20410919D041EBD1DB517FFFDCF1EB573
:10073C001093A10410919C041EBD1DB517FFFDCF95
:10074C001EB51093A0042B9A089510919A04299821
:10075C001EBD1DB517FFFDCF109199041EBD1DB513
:10076C0017FFFDCF299A08951091AA0408E0449828
:10077C0017FD449A459A110F45980A95C1F70895AB
:10078C00E0E0FFE01081459808B117FB04F908B9C7
:10079C00459A16FB04F908B9459A15FB04F908B9F2
:1007AC00459A14FB04F908B9459A13FB04F908B9E6
:1007BC00459A12FB04F908B9459A11FB04F908B9DA
:1007CC00459A10FB04F908B9459A4598E395D1F67A
:1007DC0008951091AB041EBD1DB517FFFDCF1EB5BE
:1007EC001093AC040895289815E01093AB040E9464
:1007FC00EF030E94EF03289A1091AC0408952898F7
:10080C0015E01093AB040E94EF030E94EF031091CC
:10081C00AC041170103010E009F41FEF112311F427
:10082C000C940B04289A0895289816E01093AB04A6
:10083C000E94EF03289A08950E941A04289811E048
:10084C001093AB040E94EF0310E01093AB040E94D2
:10085C00EF03289A0E94050408950E941A04289810
:10086C0011E01093AB040E94EF031FE31093AB0451
:10087C000E94EF03289A0E94050408950E941A040E
:10088C0028983B812A81198108810093AD0410932B
:10089C00AE042093AF043093B00410E21093AB0479
:1008AC000E94EF031091AF041093AB040E94EF036E
:1008BC001091AE041093AB040E94EF031091AD04A1
:1008CC001093AB040E94EF03289A0E940504109128
:1008DC00AC041072103010E009F01FEFE8941123F3
:1008EC0009F068941091900412F9109390040091FF
:1008FC009004112702FD1FEF109508950E941A0411
:10090C00289817EC1093AB040E94EF03289A0E94CE
:10091C0005041091AC041072103010E009F01FEFB8
:10092C00E894112309F068941091900412F9109333
:10093C00900400919004112702FD1FEF109508956B
:10094C00219709811A8101501040102F18830E94A1
:10095C001A0428983E812D811C810B810093AD04D3
:10096C001093AE042093AF043093B00412E01093B4
:10097C00AB040E94EF031091AF041093AB040E94E0
:10098C00EF031091AE041093AB040E94EF0310918F
:10099C00AD041093AB040E94EF03E7E0F0E0FA9390
:1009AC00EA9310E01083EF93FF931A81FF91EF917C
:1009BC001A931081088101171FEF08F011271123DA
:1009CC0011F00C94FE04172DE0E0FFE01F7F0027D0
:1009DC00E10FF01F10811093AB040E94EF03E9812B
:1009EC00FA81108113951083112311F00C94E004FB
:1009FC002396289A0E9405041091AC0410721030B2
:100A0C0010E009F01FEFE894112309F0689410919D
:100A1C00900412F91093900400919004112702FD98
:100A2C001FEF1095089521970E9405040A811B81E0
:100A3C0001501040102F18833F812E811D810C8195
:100A4C000093AD041093AE042093AF043093B00424
:100A5C0028981BE01093AB040E94EF031091AF0495
:100A6C001093AB040E94EF031091AE041093AB04EF
:100A7C000E94EF031091AD041093AB040E94EF039E
:100A8C0010E01093AB040E94EF03E7E0F0E0FA9360
:100A9C00EA9310E01083EF93FF931A81FF91EF918B
:100AAC001A931081088101171FEF08F011271123E9
:100ABC0011F00C948B050E94EF031C81112311F48F
:100ACC000C947605172D1F931091AC04E0E0FEE01A
:100ADC00AF91AF7FBB27EA0FFB1F10830C948205ED
:100AEC00172D1F931091AC04E0E0FFE0AF91AF7FA6
:100AFC00BB27EA0FFB1F1083E981FA811081139544
:100B0C001083112311F00C9458052396289A0895FC
:100B1C00E9E9F4E0EF93FF931881FF91EF911193C2
:100B2C00EAE9F4E010E011930E94AB030E94840305
:100B3C000091A0041091A1042091A2043091A3046F
:100B4C000895E9E9F4E0EF93FF931881FF91EF9199
:100B5C001193EAE9F4E010E811930E94AB03E4EA84
:100B6C00F4E0EF93FF931981FF91EF911193E5EA74
:100B7C00F4E010E011930E946F030895E9E9F4E0AA
:100B8C00EF93FF931881FF91EF911193EAE9F4E051
:100B9C0010E811930E94AB0309811A810093A404FD
:100BAC001093A5040E946F030895E9E9F4E0EF9314
:100BBC00FF931881FF91EF911193EAE9F4E010E8AB
:100BCC0011930E94AB033C812B811A810981009304
:100BDC009C0410939D0420939E0430939F040E94C8
:100BEC0084030895CF93DF9310EF1A930E948E0520
:100BFC00DF91CF91009370041093710420937204D1
:100C0C0030937304E8E0F0E00E94455F00937004B9
:100C1C00109371042093720430937304CF93DF9379
:100C2C00009170041091710420917204309173043E
:100C3C003A932A931A930A9310EF1A930E94DB05A6
:100C4C00DF91CF91ECE0F0E00E94455F00937004DF
:100C5C00109371042093720430937304CF93DF9339
:100C6C0000917004109171042091720430917304FE
:100C7C003A932A931A930A9311EF1A930E94DB0565
:100C8C00DF91CF9108951DE00E94BE5E1AE00E9494
:100C9C00BE5E089513E20E94BE5E10913902105D93
:100CAC000E94BE5E1AE30E94BE5ECF93DF9318E0F3
:100CBC00412A0EEB1EE51A930A93009169041091D8
:100CCC006A04CF93DF931A930A9310E01A9310E0FF
:100CDC001A9310E21A93689443F8689445F8E894D0
:100CEC0054F855F80E941963DF91CF91DF91CF91A1
:100CFC001DE30E94BE5E0895CF93DF9318E0412A56
:100D0C000EEB1EE51A930A93E2E2F4E00E94C8602F
:100D1C00DF91CF910E944906089522971091770494
:100D2C00112311F40C94A80616E00E94BE5E1A81E1
:100D3C000E94BE5E10E00E94BE5E10E00E94BE5E8D
:100D4C000C94EC0610E00FEF0093690410936A0406
:100D5C000E945006CF93DF9318E0412A0EEB1EE55C
:100D6C001A930A931C81CF93DF931A9310E01A9372
:100D7C0010E01A9310E21A93689443F80E94E06012
:100D8C00DF91CF91DF91CF9110E20E94BE5ECF93A5
:100D9C00DF9318E0412A0EEB1EE51A930A93E8EA5A
:100DAC00FEECEF93FF931C81012F1127ADE0B0E017
:100DBC00E89445F80E940364FF91EF91E00FF11F56
:100DCC000E94BF60DF91CF910E94490608950E9456
:100DDC005006CF93DF9318E0412A0EEB1EE51A93D1
:100DEC000A93E9EFF3E00E94C860DF91CF910E9473
:100DFC004906089510917704112311F40C941B07E4
:100E0C0016E00E94BE5E10E00E94BE5E00916D0472
:100E1C0010916E040E94BE5E00916D0410916E04E0
:100E2C00102F0E94BE5E0C945207E9EFF3E0EF9393
:100E3C00FF933196FA93EA9318E21A9317EF412233
:100E4C001FEB4122009170041091710420917204E7
:100E5C0030917304CF93DF933A932A931A930A93A6
:100E6C0010E01A9310E01A9310E21A93689445F864
:100E7C00E89454F855F842F80E942061DF91CF9124
:100E8C0018E21F9318810F91011B102FFF91EF9106
:100E9C00108323960E94ED06089500916D04109125
:100EAC006E0417FF03C03FEF2FEF02C0332722273A
:100EBC0000937004109371042093720430937304A4
:100ECC000E940007089510917604012F11270093BA
:100EDC006D0410936E040E94530708950E945006EF
:100EEC00E9EFF3E0EF93FF933196FA93EA9318E26C
:100EFC001A9317EF41221FEB4122009170041091BD
:100F0C0071042091720430917304CF93DF933A9360
:100F1C002A931A930A9310E01A9310E01A9310E292
:100F2C001A93689445F8E89454F855F842F80E94DE
:100F3C002061DF91CF9118E21F9318810F91011B53
:100F4C00102FFF91EF9110832396CF93DF9318E02E
:100F5C00412A0EEB1EE51A930A93E9EFF3E00E9487
:100F6C00C860DF91CF9110E20E94BE5E1BE50E942B
:100F7C00BE5E14E20E94BE5EE9EFF3E0EF93FF93D6
:100F8C003196FA93EA9318E21A9317EF41221FEB6A
:100F9C0041220091700410917104209172043091DF
:100FAC007304B801C901492F0E948863482F0E941D
:100FBC008863472F0E948863462F0E94886318E23B
:100FCC001F9318810F91011B102FFF91EF9110832C
:100FDC002396CF93DF9318E0412A0EEB1EE51A936C
:100FEC000A93E9EFF3E00E94C860DF91CF911DE511
:100FFC000E94BE5E0E94490608950E945006E9EFC9
:10100C00F3E0EF93FF933196FA93EA9318E21A9375
:10101C0017EF41221FEB41220091700410917104D3
:10102C002091720430917304CF93DF933A932A93F7
:10103C001A930A9310E01A9310E01A9310E21A9381
:10104C00689445F8E89454F855F842F80E942061E9
:10105C00DF91CF9118E21F9318810F91011B102F74
:10106C00FF91EF9110832396CF93DF9318E0412AE1
:10107C000EEB1EE51A930A93E9EFF3E00E94C860A9
:10108C00DF91CF91CF93DF9318E0412A0EEB1EE551
:10109C001A930A93E2E2FAEC0E94BF60DF91CF91BF
:1010AC00CF93DF9318E0412A0EEB1EE51A930A93B7
:1010BC00E2E4F4E00E94C860DF91CF911DE50E944C
:1010CC00BE5E0E94490608950E94F9031F7E1030EF
:1010DC0010E009F01FEF112311F40C9490080E94FA
:1010EC005006CF93DF9318E0412A0EEB1EE51A93BE
:1010FC000A93E5E2FAEC0E94BF601DE00E94956342
:10110C001AE00E949563DF91CF911FEF0C94930826
:10111C000C94930810E00C94930808951091880493
:10112C00112311F40C94D108CF93DF9310E01A9390
:10113C0010E01A9310E01A930E943F5DDF91CF915B
:10114C00CF93DF9318E0412A09E11DE51A930A9326
:10115C00EDE3FAEC0E94BF60DF91CF91CF93DF9368
:10116C0010E01A9310E01A9311E01A930E943F5D5D
:10117C00DF91CF91CF93DF9318E0412A09E11DE570
:10118C001A930A93E6E4FAEC0E94BF60DF91CF91C8
:10119C0010E00E94605D089510918804112311F4F1
:1011AC000C94F408CF93DF9310E01A9310E01A9389
:1011BC0011E01A930E943F5DDF91CF91CF93DF93A3
:1011CC0018E0412A09E11DE51A930A93EFE4FAECC1
:1011DC000E94BF60DF91CF910C94F80810E002E000
:1011EC000E94EE5E089510918804112311F40C9462
:1011FC002F09CF93DF9310E01A9310E01A9311E0AC
:10120C001A930E943F5DDF91CF91CF93DF9318E04B
:10121C00412A09E11DE51A930A93E8E5FAEC0E94CC
:10122C00BF60DF91CF91CF93DF9310E01A9310E062
:10123C001A9310E01A930E943F5DDF91CF9110E05A
:10124C000E94605D10E004E6E3E3F2E0B1E00E948E
:10125C00CB6408951127062D017009F41095112304
:10126C0011F40C948C0910E004E6E3E3F2E0B1E035
:10127C000E94CB6410918804112311F40C947F0903
:10128C00CF93DF9310E01A9310E01A9310E01A93A7
:10129C000E943F5DDF91CF91CF93DF9318E0412AFD
:1012AC0009E11DE51A930A93009194041091950499
:1012BC002091960430919704CF93DF933A932A931D
:1012CC001A930A9318E01A9300E00A9310E21A9307
:1012DC00689443F8689445F8E89454F855F842F843
:1012EC000E942061DF91CF91DF91CF9110E00E949D
:1012FC00605DCF93DF9318E0412A0EEB1EE51A9345
:10130C000A931EE20E949563DF91CF910895249772
:10131C00CF93DF9313E01A930E948E05DF91CF9148
:10132C000091A0041091A1042091A2043091A30477
:10133C003B832A8319830883CF93DF9318E0412AD8
:10134C000EEB1EE51A930A93E1E6FAEC0E94BF60DD
:10135C00DF91CF91CF93DF9318E0412A0EEB1EE57E
:10136C001A930A933D812C811B810A81689443F85E
:10137C00B801C901492F0E948863482F0E948863D5
:10138C00472F0E948863462F0E948863DF91CF917C
:10139C00CF93DF9318E0412A0EEB1EE51A930A93C4
:1013AC00EAE1FAEC0E94BF60DF91CF910E944906FE
:1013BC00089528971AE314B91FE915B910E717B95E
:1013CC001FEC18B9109190041B7F10939004469851
:1013DC0015E00E94FD5E469A15E00E94FD5E10E34A
:1013EC0017B916E206EB0093690410936A0411E036
:1013FC0004EF0E94EE5E1BEB14B91FE915B90E94B5
:10140C005006112737991FEF112311F40C941E0A63
:10141C00CF93DF9318E0412A0EEB1EE51A930A9343
:10142C00EEE6FAEC0E94BF60DF91CF910C94310A8A
:10143C00CF93DF9318E0412A0EEB1EE51A930A9323
:10144C00EEE7FAEC0E94BF60DF91CF91109190040F
:10145C001460109390040E94F805CF93DF930E94C0
:10146C008D09DF91CF910895EAE9F4E010E811932A
:10147C00E9E9F4E0EF93FF931091B1041F5FFF9142
:10148C00EF9111930E94AB031091B2041093A80436
:10149C000E946303E9E9F4E01091B10411930E94F6
:1014AC00AB030895EAE9F4E010E81193E9E9F4E0FC
:1014BC00EF93FF931091B1041F5FFF91EF91119384
:1014CC000E94AB031091B2041093A8040E94630312
:1014DC00089565970E945006CF93DF9318E0412A38
:1014EC000EEB1EE51A930A93EEE9FAEC0E94BF602C
:1014FC001DE00E9495631AE00E949563DF91CF91E5
:10150C0010E01A8710E0188710E01C8B10E0198B84
:10151C001FEF188B00E010E020E030E00093940403
:10152C0010939504209396043093970410E000E0F8
:10153C001C870B870E94940810E000E01983088335
:10154C0010E000E01B830A83388D2F891E890D89DA
:10155C003F832E831D830C831A851095112311F460
:10156C000C94210B10E000E01C870B8711275A9973
:10157C001FEF1095E894112309F068941BB112F930
:10158C001BB9CF93DF93FE017496FA93EA9314E69A
:10159C001A930E94875EDF91CF911A871A851123C7
:1015AC0011F40C94F20A1C89113010E009F41FEFAD
:1015BC001F931C89143010E009F41FEF0F91102BAE
:1015CC00112311F40C94F00A10E000E01C870B8737
:1015DC000C94210B0C94FC0A15E10E94BE5EFE01DA
:1015EC003B96A081B1811196A083B1831C891130E7
:1015FC0010E009F41FEF1F931C89143010E009F45C
:10160C001FEF0F91102B1F931C89183110E009F458
:10161C001FEF0F91102B1F930B851C85103009F4B5
:10162C00043110E011F008F01FEF0F91102B112373
:10163C0011F40C94C70A18851095112311F40C940D
:10164C002B0B0E94D2081FEF18871C89113010E059
:10165C0009F41FEF112311F40C945D0CCF93DF935D
:10166C00FE017396FA93EA9314E61A930E94875E2E
:10167C00DF91CF9119871985112311F40C94570C14
:10168C00CF93DF93FE017296FA93EA931AE01A93C2
:10169C000E94875EDF91CF9119871B890FEF011B89
:1016AC00102F1F931A890F91011710E009F41FEFE7
:1016BC00112311F40C94550C10E0198BE8E0F0E0B8
:1016CC00FA93EA9310E010831FE71A9310810881B4
:1016DC0001171FEF08F01127112311F00C949D0B2B
:1016EC00CF93DF93EAE0F0E0FA93EA931AE01A93CF
:1016FC000E94875EDF91CF911C871C891F931A2D46
:10170C000F91100F1C8B182D1F931A2DE0E0FFE08A
:10171C00AF91AF7FBB27EA0FFB1F1083E981FA81E2
:10172C00108113951083112311F00C946D0B2396DB
:10173C00CF93DF93FE017096FA93EA931AE01A9313
:10174C000E94875EDF91CF911987CF93DF933F8102
:10175C002E811D810C813A932A931A930A9310E0DF
:10176C0000E81A930A930E94A604DF91CF9110957A
:10177C00112311F40C94C90BFE013296A081B18196
:10178C001196A083B183CF93DF933F812E811D816E
:10179C000C813A932A931A930A9310E000E81A9357
:1017AC000A931FEF1A930E941905DF91CF91E8E07D
:1017BC00F0E0FA93EA9310E010831FE71A9310817C
:1017CC00088101171FEF08F01127112311F00C9459
:1017DC00190C182DE0E0FEE01F7F0027E10FF01F31
:1017EC0010811F93182DE0E0FFE01F7F0027E10F11
:1017FC00F01F10810F91011710E009F01FEF11235A
:10180C0011F40C94100CFE013396A081B181119649
:10181C00A083B183E981FA81108113951083112380
:10182C0011F00C94E60B239619891F9318890F91CC
:10183C00011710E009F41FEF112311F40C944B0C59
:10184C0016E00E94BE5E3F812E811D810C810058E6
:10185C001F4F2F4F3F4F3F832E831D830C830091CF
:10186C00940410919504209196043091970400589B
:10187C001F4F2F4F3F4F00939404109395042093C8
:10188C009604309397040C94550CFE013B96A08162
:10189C00B1811196A083B18315E10E94BE5E0C94B8
:1018AC005B0C10E00FEF1C870B8710E01C8B10E01B
:1018BC001A871C89143010E009F41FEF1F931C8940
:1018CC00183110E009F41FEF0F91102B1F930B85AB
:1018DC001C85103009F4043110E011F008F01FEFF2
:1018EC000F91102B112311F40C94B20A16E00E94E4
:1018FC00BE5E18891F9319890F91011710E009F02A
:10190C001FEF112311F40C94AF0C0FEF1FEF2FEFFF
:10191C003FEF009370041093710420937204309382
:10192C0073040E945006CF93DF9318E0412A0EEB0C
:10193C001EE51A930A93E1EBFAEC0E94BF601DE0DE
:10194C000E9495631AE00E949563DF91CF910C94ED
:10195C00BF0C009194041091950420919604309141
:10196C0097040093700410937104209372043093C5
:10197C00730408811981103009F4003010E009F06B
:10198C001FEF112311F40C941C0D0FEF1FEF2FEF11
:10199C003FEF009370041093710420937204309302
:1019AC0073040E945006CF93DF9318E0412A0EEB8C
:1019BC001EE51A930A93ECECFAEC0E94BF60DF91DF
:1019CC00CF91CF93DF9318E0412A0EEB1EE51A93CB
:1019DC000A930A811B81CF93DF931A930A9310E029
:1019EC001A9310E01A9310E21A93689443F8E8944F
:1019FC0045F8E89454F855F80E941963DF91CF919B
:101A0C00DF91CF91CF93DF9318E0412A0EEB1EE5C7
:101A1C001A930A93E2EEFAEC0E94BF601DE00E945A
:101A2C0095631AE00E949563DF91CF910A811B8127
:101A3C00103009F4003010E009F01FEF112311F4FD
:101A4C000C94790D0FEF1FEF2FEF3FEF0093700405
:101A5C001093710420937204309373040E94500607
:101A6C00CF93DF9318E0412A0EEB1EE51A930A93ED
:101A7C00E3EFFAEC0E94BF60DF91CF91CF93DF933D
:101A8C0018E0412A0EEB1EE51A930A930C811D8176
:101A9C00CF93DF931A930A9310E01A9310E01A93E2
:101AAC0010E21A93689443F8E89445F8E89454F8D3
:101ABC0055F80E941963DF91CF91DF91CF91CF93AD
:101ACC00DF9318E0412A0EEB1EE51A930A93E2EE1F
:101ADC00FAEC0E94BF601DE00E9495631AE00E9420
:101AEC009563DF91CF9108952297CF93DF9312E006
:101AFC001A930E948E05DF91CF9111271A991FEF2F
:101B0C00112311F40C947B0D1091A2041A3A10E0DD
:101B1C0009F41FEF112311F40C94720E1091A00410
:101B2C00103511F00C94AA0DCF93DF9318E0412AD5
:101B3C000EEB1EE51A930A93E8E0FBEC0E94BF60E3
:101B4C00DF91CF910C94410E113511F00C94BE0D18
:101B5C00CF93DF9318E0412A0EEB1EE51A930A93FC
:101B6C00E9E1FBEC0E94BF60DF91CF910C94410E38
:101B7C00123511F00C94D20DCF93DF9318E0412A5B
:101B8C000EEB1EE51A930A93E7E2FBEC0E94BF6092
:101B9C00DF91CF910C94410E133511F00C94E60D9E
:101BAC00CF93DF9318E0412A0EEB1EE51A930A93AC
:101BBC00E1E3FBEC0E94BF60DF91CF910C94410EEE
:101BCC00143511F00C94FA0DCF93DF9318E0412AE1
:101BDC000EEB1EE51A930A93EFE3FBEC0E94BF6039
:101BEC00DF91CF910C94410E183511F00C940E0E20
:101BFC00CF93DF9318E0412A0EEB1EE51A930A935C
:101C0C00EDE4FBEC0E94BF60DF91CF910C94410E90
:101C1C001F3511F00C94220ECF93DF9318E0412A5C
:101C2C000EEB1EE51A930A93EAE5FBEC0E94BF60EB
:101C3C00DF91CF910C94410ECF93DF9318E0412AA2
:101C4C000EEB1EE51A930A93E3E6FBEC0E94BF60D1
:101C5C00DF91CF91CF93DF9318E0412A0EEB1EE575
:101C6C001A930A931091A004689443F8412F0E9490
:101C7C008863DF91CF91CF93DF9318E0412A0EEB6D
:101C8C001EE51A930A93EEE6FBEC0E94BF60DF910F
:101C9C00CF91CF93DF9318E0412A0EEB1EE51A93F8
:101CAC000A931091A104689443F8412F0E94886311
:101CBC00DF91CF91CF93DF9318E0412A0EEB1EE515
:101CCC001A930A93EAE1FAEC0E94BF60DF91CF917C
:101CDC000E9449060C94820ECF93DF9318E0412AA0
:101CEC000EEB1EE51A930A93EAE7FBEC0E94BF6029
:101CFC00DF91CF910E944906089525970E945006C6
:101D0C001E8114551093B2040E943A0ACF93DF93AC
:101D1C0018E0412A0EEB1EE51A930A931091B204B7
:101D2C00CF93DF931A9310E01A9310E01A9310E2FA
:101D3C001A93689443F80E94E060DF91CF91DF9191
:101D4C00CF91CF93DF9318E0412A0EEB1EE51A9347
:101D5C000A93E0E9FBEC0E94BF60DF91CF911E81FA
:101D6C00012F11273327222740E050E160E070E07B
:101D7C00689445F80E945F643C832B831A83098323
:101D8C0000E010E020E030E0009394041093950400
:101D9C002093960430939704E8E0F0E0FA93EA93EA
:101DAC0010E010831FE01A931081088101171FEFB8
:101DBC0008F01127112311F00C94AD0FCF93DF9382
:101DCC003F812E811D810C813A932A931A930A9399
:101DDC0011E000E01A930A9310E01A930E9419057F
:101DEC00DF91CF911885112311F40C94340FEAE094
:101DFC00F0E0FA93EA9310E010831FEF1A9310812E
:101E0C00088101171FEF08F01127112311F00C9412
:101E1C00310F1A2DE0E0FFE01F7F0027E10FF01FCC
:101E2C0010811E83CF93DF9318E0412A0EEB1EE541
:101E3C001A930A931885689443F8412F0E9488637B
:101E4C00DF91CF91E981FA811081139510831123D1
:101E5C0011F00C94060F23960C944B0F182D117047
:101E6C00113010E009F41FEF112311F40C944B0FF7
:101E7C00CF93DF9318E0412A0EEB1EE51A930A93D9
:101E8C001EE20E949563DF91CF91EAE0F0E0FA93B5
:101E9C00EA9310E010831FE31A9310810881011755
:101EAC001FEF08F01127112311F00C94830FE0E0C1
:101EBC00FFE0EF93FF931A2D012F1127000F111F35
:101ECC00000F111FFF91EF91E00FF11F0191119184
:101EDC002191319100939C0410939D0420939E04B6
:101EEC0030939F040E948403E981FA811081139539
:101EFC001083112311F00C94540F23963F812E81E3
:101F0C001D810C8100501F4F2F4F3F4F3F832E835D
:101F1C001D830C83009194041091950420919604D8
:101F2C003091970400501F4F2F4F3F4F0093940454
:101F3C00109395042093960430939704E981FA81C9
:101F4C00108113951083112311F00C94DB0E239642
:101F5C000E94580A0E94300911E004EFE3E3F2E01A
:101F6C00B1E00E94CB6400919404109195042091EF
:101F7C00960430919704009370041093710420938D
:101F8C007204309373041FEF1093E40310E002E328
:101F9C000E94EE5ECF93DF930E947A0DDF91CF917A
:101FAC0008952D970E945006CF93DF9318E0412A95
:101FBC000EEB1EE51A930A931F85CF93DF931A93AA
:101FCC0010E01A9310E01A9310E21A93689443F8F5
:101FDC000E94E060DF91CF91DF91CF91CF93DF939F
:101FEC0018E0412A0EEB1EE51A930A93E0EAFBEC8B
:101FFC000E94BF60DF91CF91CF93DF9310E01A93D3
:10200C0018E41A930E94A705DF91CF9110E004E623
:10201C000E94EE5E1D851C5A012F112733272227A3
:10202C0040E050E160E070E0689445F80E945F6425
:10203C003C872B871A87098710E000E018870F83ED
:10204C0010E000E019830883E8E0F0E0FA93EA93EB
:10205C0010E010831FE01A931081088101171FEF05
:10206C0008F01127112311F00C942E11CF93DF934C
:10207C003F852E851D850C853A932A931A930A93D6
:10208C0011E000E01A930A9310E01A930E941905CC
:10209C00DF91CF9110E000E01E830D8310E000E093
:1020AC001C830B830A851B8519870887EAE0F0E0FF
:1020BC00FA93EA9310E0108317E01A9310810881C9
:1020CC0001171FEF08F01127112311F00C94A31026
:1020DC00CF93DF9310E51A930E851F851A930A93FD
:1020EC001FE000E00F931F930B851C853F912F91F0
:1020FC00020F131F1A930A9310E000E21A930A932B
:10210C000E94545EDF91CF9110E00AE00E94EE5ED7
:10211C0008851985005E1F4F198708870D851E8558
:10212C00005E1F4F1E870D87E981FA811081139580
:10213C001083112311F00C946510239610E51F9356
:10214C00088519851F93E89440F808851985102F88
:10215C00E6E1F0E0612FA1E0B0E03F914F9150E05B
:10216C000E945E5ECF93DF9310E51A931EE000E0B1
:10217C001A930A9311E000E01A930A930E94365EB8
:10218C00DF91CF91EAE0F0E0FA93EA9310E010834C
:10219C001FEF1A931081088101171FEF08F0112708
:1021AC00112311F00C9404111A2DE0E0FFE01F7FB5
:1021BC000027E10FF01F10811F931A2DE0E0FEE0C5
:1021CC001F7F0027E10FF01F10810F91011710E006
:1021DC0009F01FEF112311F40C94FB10FE0136963D
:1021EC00A081B1811196A083B183E981FA8110811C
:1021FC0013951083112311F00C94D11023960B819D
:10220C001C81103009F4003010E009F41FEF112389
:10221C0011F40C9416111EE20E94BE5E0C9419115E
:10222C0013E20E94BE5E3F852E851D850C850050F5
:10223C001F4F2F4F3F4F3F872E871D870C87E981FC
:10224C00FA81108113951083112311F00C94331023
:10225C002396CF93DF9318E0412A0EEB1EE51A93D9
:10226C000A931DE50E9495631DE00E9495631AE098
:10227C000E949563DF91CF9111E004EFE3E3F2E06C
:10228C00B1E00E94CB6400919404109195042091CC
:10229C00960430919704009370041093710420936A
:1022AC007204309373041FEF1093E40308811981B7
:1022BC00103009F4003010E009F01FEF112311F475
:1022CC000C94AD110E945006CF93DF9318E0412A75
:1022DC000EEB1EE51A930A93EFEBFBEC0E94BF602A
:1022EC00DF91CF91CF93DF9318E0412A0EEB1EE5DF
:1022FC001A930A930A811B81CF93DF931A930A9343
:10230C0010E01A9310E01A9310E21A93689443F8B1
:10231C00E89445F8E89454F855F80E941963DF9155
:10232C00CF91DF91CF91CF93DF9318E0412A0EEB41
:10233C001EE51A930A93E2EEFAEC0E94BF601DE0D0
:10234C000E9495631AE00E949563DF91CF910895E6
:10235C00219719811095E894112309F068941BB109
:10236C0012F91BB919811F9348E331E00E94AC5D4F
:10237C000F91002311F0106801C01F7748E331E082
:10238C000E94A35D0895E8E0F0E0FA93EA9310E070
:10239C001083EF93FF931A81FF91EF911A931081A1
:1023AC00088101171FEF08F01127112311F00C946D
:1023BC000012CF93DF931FEF1A930E94AE11DF919F
:1023CC00CF9110E004E60E94EE5ECF93DF9310E015
:1023DC001A930E94AE11DF91CF9110E004E60E9497
:1023EC00EE5EE981FA81108113951083112311F0AF
:1023FC000C94D611239608952397009185031127E9
:10240C0000FD1FEF1F9300918503112701FD1FEFA6
:10241C0010950F9110231F93109176020F9110239A
:10242C00112311F40C944D12E8E0F0E0FA93EA93C6
:10243C0010E0108317E01A931081088101171FEF29
:10244C0008F01127112311F00C944A12182DEBE30C
:10245C00F2E01F730027E10FF01F108116951B830C
:10246C00CF93DF931B811A93182D105F1A930E9440
:10247C00A705DF91CF91E981FA8110811395108323
:10248C00112311F00C94231223960C947D12E8E086
:10249C00F0E0FA93EA9310E0108317E01A9310819E
:1024AC00088101171FEF08F01127112311F00C946C
:1024BC007C12182DEBE3F2E01F730027E10FF01FE5
:1024CC0010811B83CF93DF931B811A93182D105F00
:1024DC001A930E94A705DF91CF91E981FA811081AF
:1024EC0013951083112311F00C945612239600911E
:1024FC008503112700FD1FEF1F9310919F031F30C1
:10250C0010E009F01FEF0F911023112311F40C941C
:10251C002C1310917602112311F40C94A112CF9369
:10252C00DF9310E01A9318E11A930E94A705DF912C
:10253C00CF910C94C91200918503112701FD1FEF57
:10254C00112311F40C94B51218E0EBE3F2E01F73B5
:10255C000027E10FF01F108118830C94BF1218E0B4
:10256C00EBE3F2E01F730027E10FF01F10811695CB
:10257C001883CF93DF9318811A9318E11A930E9452
:10258C00A705DF91CF9100918503112703FD1FEF64
:10259C00112311F40C94DE12CF93DF9311E01A93F4
:1025AC001BE11A930E94A705DF91CF910C94E812BE
:1025BC00CF93DF9310E01A931BE11A930E94A705A7
:1025CC00DF91CF9100918503112701FD1FEF11239E
:1025DC0011F40C94FE12CF93DF93109168021A93AE
:1025EC001AE11A930E94A705DF91CF910C9409135D
:1025FC00CF93DF93109167021A931AE11A930E94FA
:10260C00A705DF91CF9100918503112702FD1FEFE4
:10261C00112311F40C941F13CF93DF9310916A02C2
:10262C001A9319E11A930E94A705DF91CF910C948C
:10263C002A13CF93DF93109169021A9319E11A931D
:10264C000E94A705DF91CF910C94491318E0EBE39E
:10265C00F2E01F730027E10FF01F10811883CF9356
:10266C00DF9318811A9318E11A930E94A705DF9142
:10267C00CF91CF93DF9310E01A931AE11A930E9433
:10268C00A705DF91CF9110E01883009185031127E6
:10269C0004FD1FEF112311F40C945813FE0110814B
:1026AC001395108300918503112705FD1FEF11234E
:1026BC0011F40C946913FE01108113951083FE0123
:1026CC00108113951083CF93DF9318811A931DE01B
:1026DC001A930E94A705DF91CF91109144021030FC
:1026EC0011F00C947B130C948513123011F00C9494
:1026FC0081130C948513143011F00C949B13CF930D
:10270C00DF9312ED1A9315E01A930E94A705DF913F
:10271C00CF91CF93DF9310E01A9316E01A930E9497
:10272C00A705DF91CF910C94C313113011F00C94C9
:10273C00A1130C94AB13133011F00C94A7130C943D
:10274C00AB13153011F00C94C313CF93DF9310918E
:10275C0064021A9315E01A930E94A705DF91CF919A
:10276C00CF93DF93109163021A9316E01A930E9491
:10277C00A705DF91CF910C94C31310914402103034
:10278C0011F00C94CB130C94CF13113011F00C945A
:10279C00E713CF93DF9310915D021A9318E01A930D
:1027AC000E94A705DF91CF91CF93DF931091600228
:1027BC001A9314E01A930E94A705DF91CF910C9401
:1027CC002B14123011F00C94ED130C94F1131330F4
:1027DC0011F00C940914CF93DF9310915E021A93AD
:1027EC0018E01A930E94A705DF91CF91CF93DF9346
:1027FC00109161021A9314E01A930E94A705DF91BD
:10280C00CF910C942B14143011F00C940F140C94D5
:10281C001314153011F00C942B14CF93DF931091EB
:10282C005F021A9318E01A930E94A705DF91CF91CB
:10283C00CF93DF93109162021A9314E01A930E94C3
:10284C00A705DF91CF910C942B1408952197E8E004
:10285C00F0E0FA93EA9310E1108318E11A931081D7
:10286C00088101171FEF08F01127112311F00C94A8
:10287C005C14182DEBE3F2E01F730027E10FF01F3F
:10288C0010811B83CF93DF931B811A93182D105F3C
:10289C001A930E94A705DF91CF91E981FA811081EB
:1028AC0013951083112311F00C943614239610E019
:1028BC00188300918503112704FD1FEF112311F4D8
:1028CC000C946C14FE0110811395108300918503F8
:1028DC00112705FD1FEF112311F40C947D14FE013B
:1028EC00108113951083FE01108113951083CF93E3
:1028FC00DF9318811A931DE01A930E94A705DF91AC
:10290C00CF9108952197CF93DF93109154021A938E
:10291C0019E21A930E94A705DF91CF91CF93DF9311
:10292C00109155021A931AE21A930E94A705DF918F
:10293C00CF91CF93DF93109156021A931BE21A9307
:10294C000E94A705DF91CF91109157021695EAE3EB
:10295C00FFEC1F730027E10FF01F149118831091E7
:10296C00540210321FEF08F011271F9310915602DA
:10297C0010321FEF08F011270F911023112311F4BF
:10298C000C94CC14FE0110811A951083CF93DF9315
:10299C0018811A931CE21A930E94A705DF91CF911C
:1029AC0010916F0217701F9310915902110F110F94
:1029BC00110F110F0F91102B1883CF93DF931881E8
:1029CC001A931BE01A930E94A705DF91CF91CF9326
:1029DC00DF931091A7021A931CEC1A930E94A7057F
:1029EC00DF91CF9108952297CF93DF931FEF1A9326
:1029FC000E94AE11DF91CF9110917902137019835F
:102A0C00E8E0F0E0FA93EA9310E0108313E01A93F5
:102A1C001081088101171FEF08F01127112311F005
:102A2C000C944815182D1F931C81110F110F0F9129
:102A3C00100FEBEEF2E01F700027E10FF01F10817A
:102A4C001B83182D133010E009F41FEF112311F420
:102A5C000C9434151B8108E010271B83CF93DF9354
:102A6C001B811A93182D1B5B1A930E94A705DF91EB
:102A7C00CF91E981FA81108113951083112311F004
:102A8C000C940F15239610E002E30E94EE5ECF9398
:102A9C00DF9310E01A930E94AE11DF91CF9108954D
:102AAC002597CF93DF931091770211701A9317E04B
:102ABC001A930E94A705DF91CF91109165021370B4
:102ACC001F9310916602110F110F110F110F0F911F
:102ADC00102B1A83CF93DF931A811A9319E01A9350
:102AEC000E94A705DF91CF9110916B021F9310915B
:102AFC006D0225E00E94D4630F91102B1F9310914F
:102B0C006C0226E00E94D4630F91102B1A83CF9392
:102B1C00DF931A811A931CE01A930E94A705DF9188
:102B2C00CF9108952797CF93DF931FEF1A930E94AD
:102B3C00AE11DF91CF91E8E0F0E0FA93EA9310E068
:102B4C0010831FE11A931081088101171FEF08F001
:102B5C001127112311F00C94D615182DEBEAF2E085
:102B6C001F710027110F001FE10FF01F0081118151
:102B7C0018870F83CF93DF930F8118851A930A93CD
:102B8C00182D10561A930E94C405DF91CF91E9813C
:102B9C00FA81108113951083112311F00C94AA154E
:102BAC002396E8E0F0E0FA93EA9310E010831FE13B
:102BBC001A931081088101171FEF08F011271123B8
:102BCC0011F00C940616182DEBE7F2E01F7100279C
:102BDC00E10FF01F10811987CF93DF9319851A939A
:102BEC00182D10541A930E94A705DF91CF91E981FB
:102BFC00FA81108113951083112311F00C94E015B8
:102C0C002396CF93DF9310E01A9317EF1A930E9439
:102C1C00A705DF91CF91FE013496FA93EA9310E069
:102C2C0000E01183008311E00FEF1A930A93A08147
:102C3C00B18128813981B31709F4A21710E011F082
:102C4C0008F01FEF112311F00C946216EFEDF2E077
:102C5C00EF93FF9308851985000F111FFF91EF91DA
:102C6C00E00FF11F0E94405F17FF03C03FEF2FEFF3
:102C7C0002C0332722273F832E831D830C83CF93DF
:102C8C00DF933F812E811D810C813A932A931A93F5
:102C9C000A9316EF1A930E94DB05DF91CF91EA811C
:102CAC00FB81A081B1811196A083B183BB2311F468
:102CBC00AA2311F00C941F162496CF93DF93109136
:102CCC0084021A9319E41A930E94A705DF91CF91FD
:102CDC00CF93DF9310E01A930E94AE11DF91CF9146
:102CEC000895239710E018831091FB02103010E028
:102CFC0009F41FEF112311F40C94D816E8E0F0E05E
:102D0C00FA93EA9310E0108318E01A93108108816B
:102D1C0001171FEF08F01127112311F00C94D7168F
:102D2C001E811F93182DE2E4F3E01F700027E10FC2
:102D3C00F01F10810F91102B112311F40C94CE164F
:102D4C00182DE2E0F3E01F700027E10FF01F108157
:102D5C0016951D83182D1F931D81EBE3F2E0AF91A7
:102D6C00AF73BB27EA0FFB1F1083182D1F9310E0C6
:102D7C00E2E4F3E0AF91AF70BB27EA0FFB1F1083C7
:102D8C001FEF109391031FEF1B831FEF1093910301
:102D9C00E981FA81108113951083112311F00C94A1
:102DAC008D1623961B811F9310918E030F91102B60
:102DBC00112311F40C94EB161FEF188310918F0351
:102DCC001093440210E010938E031881112311F418
:102DDC000C94F616CF93DF930E940212DF91CF91E1
:102DEC000895229710E018831091FB02113010E027
:102DFC0009F41FEF112311F40C945917E8E0F0E0DB
:102E0C00FA93EA9310E0108318E01A93108108816A
:102E1C0001171FEF08F01127112311F00C9458170C
:102E2C001D811F93182DE2E4F3E01F700027E10FC2
:102E3C00F01F10810F91102B112311F40C944F17CC
:102E4C00182DE2E0F3E01F700027E10FF01F108156
:102E5C0016951C83182D105F1F931C81EBE3F2E079
:102E6C00AF91AF73BB27EA0FFB1F1083182D1F9375
:102E7C0010E0E2E4F3E0AF91AF70BB27EA0FFB1F69
:102E8C0010831FEF109391031FEF1B831FEF109301
:102E9C009103E981FA81108113951083112311F0AC
:102EAC000C940D1723961A811F9318810F91102BD8
:102EBC00112311F40C946817CF93DF930E942C14F8
:102ECC00DF91CF9108950895239710918B031F9351
:102EDC0010918C030F91102B103010E009F41FEFA0
:102EEC00112311F40C947C170C948F1800918B0304
:102EFC00112700FD1FEF112311F40C948E17CF93A3
:102F0C00DF930E940212DF91CF911FEF1093920377
:102F1C0000918B03112701FD1FEF112311F40C9469
:102F2C00A017CF93DF930E940212DF91CF911FEF76
:102F3C001093920300918B03112702FD1FEF1123B5
:102F4C0011F40C94B217CF93DF930E940212DF910D
:102F5C00CF911FEF1093920300918B03112703FD68
:102F6C001FEF112311F40C94C417CF93DF930E941D
:102F7C000212DF91CF911FEF1093920300918B03FC
:102F8C00112704FD1FEF112311F40C94D917CF93C3
:102F9C00DF930E940212DF91CF911FEF10939303E6
:102FAC001FEF10934B0300918B03112705FD1FEFAF
:102FBC00112311F40C94EE17CF93DF930E942C1471
:102FCC00DF91CF911FEF109393031FEF10934B03DF
:102FDC0000918C03112707FD1FEF112311F40C94A2
:102FEC00111800918A03112707FD1FEF112311F40B
:102FFC000C94051813E0109359020C94081810E067
:10300C0010935902CF93DF930E948814DF91CF91D4
:10301C001FEF1093940300918C03112706FD1FEFF3
:10302C00112311F40C94341800918A03112706FD16
:10303C001FEF112311F40C94281811E01093A70220
:10304C000C942B1810E01093A702CF93DF930E94DF
:10305C008814DF91CF911FEF1093960300918C038E
:10306C00112704FD1FEF1F9300918C03112705FD01
:10307C001FEF0F91102B1F931091E5030F91102B45
:10308C00112311F40C94751810E01093790200912F
:10309C008A03112704FD1FEF112311F40C945B1804
:1030AC001091790213951093790200918A031127DC
:1030BC0005FD1FEF112311F40C946918109179027E
:1030CC001E5F10937902CF93DF930E94F914DF9166
:1030DC00CF911FEF1093950310E01093E50300912F
:1030EC008B03112706FD1FEF1F9300918B031127F4
:1030FC0007FD1FEF0F91102B112311F40C9489185D
:10310C001FEF1093960310E010938B0310E01093B5
:10311C008C0308952197CF93DF931FEF1A930E948E
:10312C00AE11DF91CF91E8E0F0E0FA93EA9310E072
:10313C00108319E01A931081088101171FEF08F012
:10314C001127112311F00C94E718E2E3F0E0EF9350
:10315C00FF931C81012F1127A0E1B0E0E89445F802
:10316C000E9403640F931F93182D012F11273F9179
:10317C002F91020F131FFF91EF91E00FF11F0E948F
:10318C00375F1B83182D1F931B81EBE3F2E0AF918C
:10319C00AF73BB27EA0FFB1F1083182D1F9319E089
:1031AC00E2E2F3E0AF91AF70BB27EA0FFB1F108395
:1031BC00E981FA81108113951083112311F00C947D
:1031CC00A218239610918503107E1F93E2E3F0E082
:1031DC00EF93FF931981012F1127A0E1B0E0E89440
:1031EC0045F80E940364065F1F4FFF91EF91E00FBB
:1031FC00F11F0E94375F0F91102B109385031FE175
:10320C0010938B0310E00AE00E94EE5ECF93DF93E5
:10321C0010E01A930E94AE11DF91CF911FEF109323
:10322C00910308952197CF93DF931FEF1A930E9478
:10323C00AE11DF91CF9119811F701983E8E0F0E096
:10324C00FA93EA9310E0108319E01A931081088125
:10325C0001171FEF08F01127112311F00C946919B5
:10326C00182DEBE3F2E01F730027E10FF01F108124
:10327C001B83E2E3F0E0EF93FF931C81012F1127F6
:10328C00A0E1B0E0E89445F80E9403640F931F930B
:10329C00182D012F11273F912F91020F131FFF9112
:1032AC00EF91E00FF11FEF93FF931B81FF91EF91D3
:1032BC000E94155FE981FA81108113951083112307
:1032CC0011F00C942D192396E2E3F0E0EF93FF93A9
:1032DC001981012F1127A0E1B0E0E89445F80E9474
:1032EC000364065F1F4FFF91EF91E00FF11FEF9307
:1032FC00FF93109185031F71FF91EF910E94155F51
:10330C00CF93DF9310E01A930E94AE11DF91CF910F
:10331C0008952197CF93DF931FEF1A930E94AE115C
:10332C00DF91CF91E8E0F0E0FA93EA9310E010839C
:10333C001CE01A931081088101171FEF08F0112768
:10334C00112311F00C94E719E2E3F1E0EF93FF93F2
:10335C001C81012F1127A0E1B0E0E89445F80E94F0
:10336C0003640F931F93182D012F11273F912F9159
:10337C00020F131FFF91EF91E00FF11F0E94375FB7
:10338C001B83182D105F1F931B81EBE3F2E0AF91B1
:10339C00AF73BB27EA0FFB1F1083182D1F9319E087
:1033AC00EEE2F3E0AF91AF70BB27EA0FFB1F108387
:1033BC00E981FA81108113951083112311F00C947B
:1033CC00A1192396109185031F7D1F93E2E3F0E072
:1033DC00EF93FF931981012F1127A0E1B0E0E8943E
:1033EC0045F80E940364035F1F4FFF91EF91E00FBC
:1033FC00F11F0E94375F0F91102B1093850310E083
:10340C0010938B0310E00AE00E94EE5ECF93DF93E3
:10341C0010E01A930E94AE11DF91CF911FEF109321
:10342C00910308952197CF93DF931FEF1A930E9476
:10343C00AE11DF91CF9119811F701983E8E0F0E094
:10344C00FA93EA9310E010831CE01A931081088120
:10345C0001171FEF08F01127112311F00C946A1AB1
:10346C00182D105FEBE3F2E01F730027E10FF01F44
:10347C0010811B83E2E3F1E0EF93FF931C81012F9A
:10348C001127A0E1B0E0E89445F80E9403640F9383
:10349C001F93182D012F11273F912F91020F131FEE
:1034AC00FF91EF91E00FF11FEF93FF931B81FF91C1
:1034BC00EF910E94155FE981FA81108113951083B9
:1034CC00112311F00C942D1A2396E2E3F0E0EF9304
:1034DC00FF931981012F1127A0E1B0E0E89445F882
:1034EC000E940364035F1F4FFF91EF91E00FF11FE8
:1034FC00EF93FF93109185031072FF91EF910E944F
:10350C00155FCF93DF9310E01A930E94AE11DF91F9
:10351C00CF910895E8E0F0E0FA93EA9310E010837D
:10352C001FE11A931081088101171FEF08F0112772
:10353C00112311F00C94C31A182D105E1F93E2E1A5
:10354C00F0E0EF93FF93182D012F1127FF91EF91CE
:10355C00E00FF11F0E94375FEBE3F2E0AF91AF7326
:10356C00BB27EA0FFB1F1083E981FA8110811395A9
:10357C001083112311F00C94991A23961091650263
:10358C00133010E011F008F01FEF1093BC031091F2
:10359C0068021093BD03109167021093BE03089547
:1035AC002197E8E0F0E0FA93EA9310E010831FE132
:1035BC001A931081088101171FEF08F011271123AE
:1035CC0011F00C940E1B182D105EEBE3F2E01F7340
:1035DC000027E10FF01F10811B83E2E1F0E0EF9375
:1035EC00FF93182D012F1127FF91EF91E00FF11F81
:1035FC00EF93FF931B81FF91EF910E94155FE9817F
:10360C00FA81108113951083112311F00C94E01A98
:10361C0023960895E8E0F0E0FA93EA9310E0108323
:10362C001CE01A931081088101171FEF08F0112775
:10363C00112311F00C94421B182D1F93E2E5F2E0BC
:10364C00EF93FF93182D012F1127FF91EF91E00FAE
:10365C00F11F0E94375FEBE9F2E0AF91AF70BB272F
:10366C00EA0FFB1F1083E981FA81108113951083F7
:10367C00112311F00C94191B2396E8E0F0E0FA9357
:10368C00EA9310E010831FE01A9310810881011750
:10369C001FEF08F01127112311F00C94751B182D36
:1036AC001F93E2EAF2E0EF93FF93182D012F1127FD
:1036BC00FF91EF91E00FF11F0E94375FEBEEF2E00C
:1036CC00AF91AF70BB27EA0FFB1F1083E981FA8122
:1036DC00108113951083112311F00C944C1B23961D
:1036EC00E8E0F0E0FA93EA9310E010831FE11A93FC
:1036FC001081088101171FEF08F01127112311F019
:10370C000C94C41B182D1F93E2E6F2E0EF93FF9389
:10371C00182D012F1127000F111FFF91EF91E00FB2
:10372C00F11F0E94405FEBEAF2E0AF91AF71BB2753
:10373C00AA0FBB1FEA0FFB1F11830083182D1F93C9
:10374C00E2E3F2E0EF93FF93182D012F1127FF9185
:10375C00EF91E00FF11F0E94375FEBE7F2E0AF91C2
:10376C00AF71BB27EA0FFB1F1083E981FA8110812F
:10377C0013951083112311F00C947F1B2396109139
:10378C00A6021093860208952A971091B8031F93EE
:10379C0010914D030F91102B1F9310914B030F9110
:1037AC00102B1095112311F40C94DE1B0C94DD1CC2
:1037BC0010917102103010E009F41FEF112311F475
:1037CC000C94EF1B1091720216951093AC030C9491
:1037DC00FA1B10914D03112311F40C94FA1B109148
:1037EC000D0316951093AC031091B803112311F42B
:1037FC000C94041C1091AD031093AC0310E01093C7
:10380C004B0310E010934D0310E01093B80310918C
:10381C00AC0316951F831F8116951E83109173029E
:10382C00103010E009F41FEF112311F40C94231C39
:10383C001091740218830C94271C10910B0316958D
:10384C00188310917502169516951C5F1F93CF93D4
:10385C00DF931091AC031A93109175021A9314EB29
:10386C001A930E94E05EDF91CF910F91100F1A8393
:10387C001A811F931091AC030F91100F19831091A3
:10388C00AC031F931A81169516950F91100F18877C
:10389C001E811E5F1D8300918503112704FD1FEF00
:1038AC001F9300918503112705FD1FEF0F91102B1E
:1038BC00112311F40C94951C1091440211701130C9
:1038CC0010E009F41FEF112311F40C94851CCF9315
:1038DC00DF931091AC031A9319811A9316E41A937F
:1038EC000E94E05EDF91CF91165F19871D811F93B7
:1038FC001E8116950F91100F1D830C94931CCF9362
:10390C00DF931F811A9319811A9314E61A930E945C
:10391C00E05EDF91CF91165F19870C94A31CCF93B7
:10392C00DF931F811A9319811A9312E81A930E943C
:10393C00E05EDF91CF911A5F19871091AC03105F95
:10394C001F931F810F91100F1C83CF93DF931D8149
:10395C001A9310E41A930E94A705DF91CF91CF938D
:10396C00DF9319811A9311E41A930E94A705DF9132
:10397C00CF91CF93DF9318851A9312E41A930E9478
:10398C00A705DF91CF91CF93DF9319851A9313E499
:10399C001A930E94A705DF91CF91CF93DF931C81DF
:1039AC001A9314E41A930E94A705DF91CF910895FE
:1039BC0021971091A502103010E009F01FEF112390
:1039CC0011F40C94001D10914C03112311F40C9460
:1039DC00FE1CCF93DF9310910C031A9310EA1A93E9
:1039EC001FEF1A930E94E05EDF91CF911093860235
:1039FC000C94071D1091A602109386021FEF1093D2
:103A0C004C0310919C03112311F40C94171D10916D
:103A1C009F021093AA031091A0021093AB030C9475
:103A2C001F1D10919D021093AA0310919E021093DA
:103A3C00AB0310919D031095112311F40C942C1DC4
:103A4C0010E01093AA0310E01093AB031FEF00914A
:103A5C003602002309F01095112311F40C94671D04
:103A6C001091A8031F931091AA030F91011710E056
:103A7C0009F01FEF112311F40C94671D1091AA0388
:103A8C001F931091A8030F91011710E011F008F08B
:103A9C001FEF112311F40C945E1D1091A8031395C4
:103AAC001093A8031091A102109336020C94671D79
:103ABC001091A8031A951093A8031091A3021093C8
:103ACC0036021FEF00913702002309F010951123E5
:103ADC0011F40C94A21D1091A9031F931091AB0328
:103AEC000F91011710E009F01FEF112311F40C9442
:103AFC00A21D1091AB031F931091A9030F910117F5
:103B0C0010E011F008F01FEF112311F40C94991D23
:103B1C001091A90313951093A9031091A20210936D
:103B2C0037020C94A21D1091A9031A951093A903A6
:103B3C001091A402109337020091A6031091A703D1
:103B4C000F931F931091A803012F11273F912F91D1
:103B5C00020F131F0093A6031093A7031091A80341
:103B6C0010937B021091A90310938B021091A50363
:103B7C00112311F40C94CB1DCF93DF930E94981555
:103B8C00DF91CF9110E01093A503CF93DF931091A9
:103B9C0086021A931BEC1A930E94A705DF91CF9112
:103BAC00CF93DF9310917B021A9310EC1A930E941F
:103BBC00A705DF91CF91CF93DF9310918B021A93CE
:103BCC0010ED1A930E94A705DF91CF9110919C03E1
:103BDC001F9310919D030F911023E894112309F06A
:103BEC0068941091980311F91093980310919C0309
:103BFC0010951F9310919D030F911023E89411239E
:103C0C0009F068941091980310F91093980310918F
:103C1C0098031F93109178020F911027109399031A
:103C2C00CF93DF9311E21A9313E01A9313E009E98F
:103C3C001A930A9310E001E01A930A930E944A5EC9
:103C4C00DF91CF9110E010934C0308952597CF93FB
:103C5C00DF930E945615DF91CF91CF93DF930E9493
:103C6C009815DF91CF91CF93DF930E940212DF91D1
:103C7C00CF91CF93DF930E942C14DF91CF91CF93F0
:103C8C00DF930E948814DF91CF91CF93DF930E9432
:103C9C00F914DF91CF91CF93DF930E94CA1BDF9170
:103CAC00CF91CF93DF930E94DE1CDF91CF910895CB
:103CBC000E945006CF93DF9318E0412A0EEB1EE5CD
:103CCC001A930A93E9EDFBEC0E94BF60DF91CF9150
:103CDC000E94490610918B04112311F40C94A71E19
:103CEC0001E010E020E030E00093700410937104C8
:103CFC002093720430937304E2E4F4E0EF93FF93A7
:103D0C003196FA93EA931FE11A9317EF41221FEBB6
:103D1C004122E6EEFBEC0E94BF601FE11F9318816D
:103D2C000F91011B102FFF91EF91108323960E948E
:103D3C000308CF93DF9312E61A930E944E00DF9193
:103D4C00CF9110918904112311F40C94DE1E02E022
:103D5C0010E020E030E00093700410937104209385
:103D6C00720430937304E2E4F4E0EF93FF93319622
:103D7C00FA93EA931FE11A9317EF41221FEB4122AA
:103D8C00E6EFFBEC0E94BF601FE11F9318810F91BF
:103D9C00011B102FFF91EF91108323960E940308B3
:103DAC00CF93DF9310E61A930E944E00DF91CF91D0
:103DBC0010918A04112311F40C94151F03E010E0E8
:103DCC0020E030E00093700410937104209372048F
:103DDC0030937304E2E4F4E0EF93FF933196FA939B
:103DEC00EA931FE11A9317EF41221FEB4122EAE0FD
:103DFC00FCEC0E94BF601FE11F9318810F91011B07
:103E0C00102FFF91EF91108323960E940308CF93FC
:103E1C00DF9311E61A930E944E00DF91CF9100E0E0
:103E2C0010E020E030E00093DF031093E0032093D8
:103E3C00E1033093E20310918E04112311F40C94DE
:103E4C00501F04E010E020E030E000937004109369
:103E5C0071042093720430937304E2E4F4E0EF9362
:103E6C00FF933196FA93EA931FE11A9317EF4122CD
:103E7C001FEB4122EEE1FCEC0E94BF601FE11F939F
:103E8C0018810F91011B102FFF91EF911083239636
:103E9C000E94030810918D04112311F40C94851FBA
:103EAC0013EC109548E333E00E94A35D05E010E0AD
:103EBC0020E030E00093700410937104209372049E
:103ECC0030937304E2E4F4E0EF93FF933196FA93AA
:103EDC00EA931FE11A9317EF41221FEB4122EFE205
:103EEC00FCEC0E94BF601FE11F9318810F91011B16
:103EFC00102FFF91EF91108323960E9403081091CD
:103F0C008804112311F40C94B41F06E010E020E097
:103F1C0030E000937004109371042093720430937A
:103F2C007304E2E4F4E0EF93FF933196FA93EA938F
:103F3C001FE11A9317EF41221FEB4122E2E4FCEC44
:103F4C000E94BF601FE11F9318810F91011B102F5E
:103F5C00FF91EF91108323960E9403081091870420
:103F6C00112311F40C94E31F07E010E020E030E083
:103F7C0000937004109371042093720430937304B3
:103F8C00E2E4F4E0EF93FF933196FA93EA931FE1A6
:103F9C001A9317EF41221FEB4122EDE4FCEC0E9437
:103FAC00BF601FE11F9318810F91011B102FFF9110
:103FBC00EF91108323960E94030808952297109185
:103FCC0088041095112311F40C94EE1F0C945C21B1
:103FDC001127062D017009F410951F931091910370
:103FEC000F911023112311F40C945C2110E002E3C7
:103FFC00E3E3F2E0B1E00E94CB64CF93DF9310E0F7
:10400C001A9310E01A9310E01A930E943F5DDF910F
:10401C00CF9110919F03193010E011F008F01FEFB1
:10402C00112311F40C94262011E30E94195D1091B8
:10403C009F031A5D198319810E94195D0C9430201D
:10404C0010919F03105D198319810E94195D10E274
:10405C000E94195D10919F03103010E009F41FEFBE
:10406C001F9310919F031F3010E009F41FEF0F9165
:10407C00102B112311F40C945320CF93DF9318E0E1
:10408C00412A09E11DE51A930A93EAE5FCEC0E942A
:10409C00BF60DF91CF910C946120CF93DF9318E038
:1040AC00412A09E11DE51A930A93EEE5FCEC0E9406
:1040BC00BF60DF91CF911091FB02103010E009F43A
:1040CC001FEF112311F40C94702016E00E94195D5F
:1040DC000C94732010E20E94195D10E20E94195D8D
:1040EC00E8E0F0E0FA93EA9310E0108318E01A93FA
:1040FC001081088101171FEF08F01127112311F00F
:10410C000C94AD20182DEBE3F2E01F730027E10FA8
:10411C00F01F10811B83CF93DF931B811A9310E147
:10412C001A9310EF1A930E94E05EDF91CF911B83DC
:10413C001B81105D1C831C810E94195DE981FA8131
:10414C00108113951083112311F00C947F2023966A
:10415C00CF93DF9310E01A9310E01A9311E01A93A7
:10416C000E943F5DDF91CF911091A003193010E0B8
:10417C0011F008F01FEF112311F40C94D12011E36E
:10418C000E94195D1091A0031A5D198319810E9478
:10419C00195D0C94DB201091A003105D198319811B
:1041AC000E94195D10E20E94195D1091A00310305D
:1041BC0010E009F41FEF1F931091A0031F3010E0C3
:1041CC0009F41FEF0F91102B112311F40C94FE2006
:1041DC00CF93DF9318E0412A09E11DE51A930A9366
:1041EC00E2E6FCEC0E94BF60DF91CF910C940C21B5
:1041FC00CF93DF9318E0412A09E11DE51A930A9346
:10420C00E6E6FCEC0E94BF60DF91CF911091FB02BF
:10421C00103010E009F41FEF112311F40C941B2142
:10422C0010E20E94195D0C941E2116E00E94195D8B
:10423C0010E20E94195DE8E0F0E0FA93EA9310E1D5
:10424C00108318E11A931081088101171FEF08F0F1
:10425C001127112311F00C945821182DEBE3F2E0E7
:10426C001F730027E10FF01F10811B83CF93DF9387
:10427C001B811A9310E11A9310EF1A930E94E05EBF
:10428C00DF91CF911B831B81105D1C831C810E94CD
:10429C00195DE981FA81108113951083112311F0B6
:1042AC000C942A21239610E010939103089510E0AA
:1042BC0004E60E94EE5ECF93DF9310E01A9318E4AD
:1042CC001A930E94A705DF91CF9110E004E60E949B
:1042DC00EE5ECF93DF931FEF1A930E94AE11DF9126
:1042EC00CF91CF93DF930E94F914DF91CF91CF93AD
:1042FC00DF9310E01A930E94AE11DF91CF910895D5
:10430C0024970091690410916A04D8012AE030E0E6
:10431C00689445F80E9425648F01507821F001952E
:10432C0009F41A951095102F1A83009169041091B5
:10433C006A04689442F8A0E0B0E05FEF0E94DE648B
:10434C0055233AF4A9EFB0E055270E94DE645523BB
:10435C000AF418C0CF93DF930091690410916A049A
:10436C00102F1A930E948E05DF91CF910093700449
:10437C001093710420937204309373040E94740799
:10438C000C941C26103011F00C94DC210B3F11F016
:10439C000C94DC21009191041091920400936D0413
:1043AC0010936E040E9453070C941C26103011F0CD
:1043BC000C94E8210C3F11F00C94E8210E945E1E35
:1043CC000C941C26103011F00C9404220D3F11F0AB
:1043DC000C940422CF93DF9318E0412A0EEB1EE5D8
:1043EC001A930A93E2E2F4E00E94C860DF91CF9145
:1043FC000E9449060C941C260C941C26103011F0BB
:10440C000C943B220E3F11F00C943B220E94500660
:10441C00CF93DF9318E0412A0EEB1EE51A930A9313
:10442C00EAEDF9EC0E94BF60DF91CF91CF93DF935F
:10443C0018E0412A0EEB1EE51A930A93EEE0FAEC13
:10444C000E94BF60DF91CF91CF93DF9318E0412A98
:10445C000EEB1EE51A930A931DE50E949563DF91FE
:10446C00CF910E9449060C941C26103011F00C942C
:10447C004D220F3F11F00C944D22CF93DF9310E09F
:10448C001A930E949306DF91CF910C941C2668948A
:10449C0042F8ACE2B1E05FEF0E94DE6455233AF4DF
:1044AC00A3E4B1E055270E94DE6455230AF416C03C
:1044BC000091690410916A040C521140102F1B8357
:1044CC001B81E2E0F3E01F710027E10FF01F108168
:1044DC00109376040E9469070C941C26113011F07D
:1044EC000C9484220E3511F00C94842210919F03AD
:1044FC00109376040E9469070C941C26113011F05D
:10450C000C9494220F3511F00C9494221091A0036A
:10451C00109376040E9469070C941C26113011F03C
:10452C000C94A422003611F00C94A4221091790260
:10453C00109376040E9469070C941C26689442F828
:10454C00A0E9B1E05FEF0E94DE6455233AF4AFECD2
:10455C00B1E055270E94DE6455230AF416C0009181
:10456C00690410916A0400591140102F1A831A81A2
:10457C00EBE3F2E01F730027E10FF01F10811093A3
:10458C0076040E9469070C941C26689442F8A4EFE8
:10459C00B1E05FEF0E94DE6455233AF4A3E1B2E090
:1045AC0055270E94DE6455230AF417C00091690454
:1045BC0010916A04045F1140102F105E1A831A8147
:1045CC00EBE3F2E01F730027E10FF01F1081109353
:1045DC0076040E9469070C941C26689442F8A8E59E
:1045EC00B2E05FEF0E94DE6455233AF4A7E7B2E035
:1045FC0055270E94DE6455230AF416C00091690405
:10460C0010916A0408551240102F1A831A81EBE797
:10461C00F2E01F710027E10FF01F10811093760458
:10462C000E9469070C941C26689442F8A0E8B2E03A
:10463C005FEF0E94DE6455233AF4AFE8B2E05527F1
:10464C000E94DE6455230AF416C00091690410918F
:10465C006A0400581240102F1A831A81EBE9F2E019
:10466C001F700027E10FF01F1081109376040E9439
:10467C0069070C941C26689442F8A4E9B2E05FEF39
:10468C000E94DE6455233AF4A3EBB2E055270E9456
:10469C00DE6455230AF41BC00091690410916A046E
:1046AC0004591240102F1A831A81EBEAF2E01F71A1
:1046BC000027110F001FE10FF01F008111810093E3
:1046CC006D0410936E040E9453070C941C2668947E
:1046DC0042F8ACEBB2E05FEF0E94DE6455233AF493
:1046EC00ACECB2E055270E94DE6455230AF416C0E8
:1046FC000091690410916A040C5B1240102F1A830C
:10470C001A81EBEEF2E01F700027E10FF01F108111
:10471C00109376040E9469070C941C26133011F038
:10472C000C94A423043811F00C94A4231091850349
:10473C00109376040E9469070C941C26133011F018
:10474C000C94B423053811F00C94B42310918A0303
:10475C00109376040E9469070C941C26133011F0F8
:10476C000C94C423063811F00C94C42310918D03BF
:10477C00109376040E9469070C941C26133011F0D8
:10478C000C94D4230E3811F00C94D42310918B0379
:10479C00109376040E9469070C941C26133011F0B8
:1047AC000C94E4230F3811F00C94E42310918C0337
:1047BC00109376040E9469070C941C26133011F098
:1047CC000C94F423073E11F00C94F42310919E03E7
:1047DC00109376040E9469070C941C26689442F886
:1047EC00A8EEB3E05FEF0E94DE6455233AF4A7EE27
:1047FC00B4E055270E94DE6455230AF41CC00091D6
:10480C00690410916A04085E1340102F1A83E2E3C6
:10481C00F0E0EF93FF931A81012F1127FF91EF9195
:10482C00E00FF11F0E94375F3196109376040E94BF
:10483C0069070C941C26689442F8A8EEB4E05FEF6C
:10484C000E94DE6455233AF4A7EEB5E055270E948A
:10485C00DE6455230AF41CC00091690410916A04AB
:10486C00085E1440102F1A83E2E3F1E0EF93FF93FC
:10487C001A81012F1127FF91EF91E00FF11F0E9478
:10488C00375F3196109376040E9469070C941C26AE
:10489C00689442F8A0EDB7E05FEF0E94DE64552308
:1048AC003AF4AFECB9E055270E94DE6455230AF4C4
:1048BC001EC00091690410916A04005D17401983B1
:1048CC000883EFEDF2E0EF93FF9308811981000F5D
:1048DC00111FFF91EF91E00FF11F0E94405F0093B9
:1048EC006D0410936E040E9453070C941C26163210
:1048FC0011F00C9493240C3A11F00C949324CF9354
:10490C00DF9310916E021C5A1A9310E01A930E94B6
:10491C00830EDF91CF910C941C26163211F00C945F
:10492C00BF24063B11F00C94BF24CF93DF930E945D
:10493C00DF09DF91CF9110919004103010E009F055
:10494C001FEF112311F40C94B524CF93DF9318E0CF
:10495C001A930E949306DF91CF910C94BD24CF93B0
:10496C00DF9310E01A930E949306DF91CF910C9481
:10497C001C26163211F00C94CF24003C11F00C9430
:10498C00CF240E94F903109376040E9469070C94BB
:10499C001C26163211F00C9402250E3D11F00C94CD
:1049AC000225E8E0F0E00E94455F0093700410934C
:1049BC0071042093720430937304E2E4F4E0EF93F7
:1049CC00FF933196FA93EA931FE11A9317EF412262
:1049DC001FEB4122EAE6FCEC0E94BF601FE11F9333
:1049EC0018810F91011B102FFF91EF9110832396CB
:1049FC000E9403080C941C26163211F00C943525D9
:104A0C000F3D11F00C943525ECE0F0E00E94455F71
:104A1C000093700410937104209372043093730408
:104A2C00E2E4F4E0EF93FF933196FA93EA931FE1FB
:104A3C001A9317EF41221FEB4122E8E7FCEC0E948E
:104A4C00BF601FE11F9318810F91011B102FFF9165
:104A5C00EF91108323960E9403080C941C261632A7
:104A6C0011F00C946C25003E11F00C946C25CF9336
:104A7C00DF9312EF1A930E948E05DF91CF91009372
:104A8C007004109371042093720430937304E2E465
:104A9C00F4E0EF93FF933196FA93EA931FE11A93A4
:104AAC0017EF41221FEB4122E7E8FCEC0E94BF60AC
:104ABC001FE11F9318810F91011B102FFF91EF9194
:104ACC00108323960E9403080C941C26173211F0B5
:104ADC000C94A325063011F00C94A32500E010E0F3
:104AEC0020E030E000937004109371042093720462
:104AFC0030937304E2E4F4E0EF93FF933196FA936E
:104B0C00EA931FE11A9317EF41221FEB4122E5E9CB
:104B1C00FCEC0E94BF60E6EBF2E00E94D2601FE169
:104B2C001F9318810F91011B102FFF91EF91108390
:104B3C0023960E9403080C941C26173211F00C9437
:104B4C0002260E3011F00C940226E5E2F0E00E94F1
:104B5C00375F1C5A812ECF93DF93182D1A9310E0D8
:104B6C001A930E94830EDF91CF911FEF1093A50330
:104B7C000E94101BCF93DF930E949815DF91CF9169
:104B8C000E94901A1FEF1093E403CF93DF930E94BF
:104B9C005615DF91CF91CF93DF930E942C1EDF919E
:104BAC00CF9100E010E020E030E00093700410930F
:104BBC0071042093720430937304E2E4F4E0EF93F5
:104BCC00FF933196FA93EA931FE11A9317EF412260
:104BDC001FEB4122EDE9FCEC0E94BF601FE11F932B
:104BEC0018810F91011B102FFF91EF9110832396C9
:104BFC000E9403080C941C26173211F00C941426F6
:104C0C000F3011F00C941426F8941FE7412204B7CE
:104C1C00037F04BF0C94045B0C941C26CF93DF938E
:104C2C0015E01A930E949306DF91CF910895259772
:104C3C000091690410916A04D8012AE030E068946C
:104C4C0045F80E9425648F01507821F0019509F4F4
:104C5C001A951095102F1B8310917604103010E0CC
:104C6C0009F01FEF18830091690410916A0468948D
:104C7C0042F8A0E0B0E05FEF0E94DE6455233AF406
:104C8C00AFEEB0E055270E94DE6455230AF414C041
:104C9C00CF93DF9300916D0410916E041A930A93D5
:104CAC000091690410916A04102F1A930E94C40594
:104CBC00DF91CF910C94802D689442F8A0EFB0E076
:104CCC005FEF0E94DE6455233AF4A9EFB0E055275C
:104CDC000E94DE6455230AF41AC0CF93DF9300912F
:104CEC0070041091710420917204309173043A9302
:104CFC002A931A930A930091690410916A04102F55
:104D0C001A930E94DB05DF91CF910C94802D10300B
:104D1C0011F00C9497260A3F11F00C9497260C94E2
:104D2C00802D113011F00C94B4260E3511F00C942A
:104D3C00B4261091760410939F03CF93DF931091B8
:104D4C0076041A930E949018DF91CF91CF93DF9342
:104D5C000E940212DF91CF910C94802D113011F032
:104D6C000C94D1260F3511F00C94D12610917604A9
:104D7C001093A003CF93DF93109176041A930E94A3
:104D8C008F19DF91CF91CF93DF930E942C14DF9179
:104D9C00CF910C94802D113011F00C94E22600363A
:104DAC0011F00C94E22610917604109379021FEF07
:104DBC001093E5030C94802D113011F00C94F02617
:104DCC000C3711F00C94F0261091760410937202AB
:104DDC000C94802D113011F00C94FE260D3711F02F
:104DEC000C94FE2610917604109386020C94802D60
:104DFC00113011F00C942627063811F00C9426274C
:104E0C0000918F04112704FD1FEF112311F40C9452
:104E1C001A27CF93DF93109176041A930E941819D6
:104E2C00DF91CF910C942427CF93DF9316E01A9344
:104E3C000E949306DF91CF910C94AD2D0C94802D94
:104E4C00113011F00C944E27073811F00C944E27AA
:104E5C0000918F04112704FD1FEF112311F40C9402
:104E6C004227CF93DF93109176041A930E94181A5D
:104E7C00DF91CF910C944C27CF93DF9316E01A93CC
:104E8C000E949306DF91CF910C94AD2D0C94802D44
:104E9C00689442F8A0E9B1E05FEF0E94DE6455230C
:104EAC003AF4A9E9B1E055270E94DE6455230AF4CF
:104EBC001CC00091690410916A0400591140102F14
:104ECC001B831B811F9310917604EBE3F2E0AF91EF
:104EDC00AF73BB27EA0FFB1F1083CF93DF930E94A6
:104EEC000212DF91CF910C94802D113011F00C94A3
:104EFC0092270A3911F00C9492271881E894112307
:104F0C0009F068941091850314F9109385031FEF31
:104F1C0010934B030C94802D113011F00C94A62798
:104F2C000B3911F00C94A6271881E894112309F081
:104F3C0068941091850310F9109385030C94802DBF
:104F4C00113011F00C94BA270C3911F00C94BA27CB
:104F5C001881E894112309F068941091850311F9D4
:104F6C00109385030C94802D113011F00C94CE27E6
:104F7C000D3911F00C94CE271881E894112309F007
:104F8C0068941091850312F9109385030C94802D6D
:104F9C00113011F00C94E2270E3911F00C94E22729
:104FAC001881E894112309F068941091850313F982
:104FBC00109385030C94802D689442F8A0EAB1E01C
:104FCC005FEF0E94DE6455233AF4ACEAB1E055275A
:104FDC000E94DE6455230AF422C0009169041091EA
:104FEC006A0400591140102F1B831B811F931091D1
:104FFC007604EBE3F2E0AF91AF73BB27EA0FFB1F34
:10500C001083CF93DF930E942C14DF91CF91CF9319
:10501C00DF930E948814DF91CF910C94802D113076
:10502C0011F00C942C280D3A11F00C942C281881AA
:10503C00E894112309F068941091850315F91093E5
:10504C0085031FEF10934B030C94802D689442F84A
:10505C00A4EFB1E05FEF0E94DE6455233AF4A3E1C4
:10506C00B2E055270E94DE6455230AF434C0009147
:10507C00690410916A04045F1140102F1B831B817B
:10508C001F9310917604EBE5F2E0AF91AF71BB2763
:10509C00EA0FFB1F108300918F04112704FD1FEFF3
:1050AC00112311F40C946928E2E1F0E0EF93FF93E3
:1050BC001B81012F1127FF91EF91E00FF11F109130
:1050CC0076040E94155F1FEF1093E4031FEF1093FB
:1050DC004B030C94802D689442F8A8E5B2E05FEF86
:1050EC000E94DE6455233AF4A7E7B2E055270E94EC
:1050FC00DE6455230AF431C00091690410916A04EE
:10510C0008551240102F1B831B811F93109176049E
:10511C00EBE7F2E0AF91AF71BB27EA0FFB1F1083F7
:10512C0000918F04112704FD1FEF112311F40C942F
:10513C00AE28E2E3F2E0EF93FF931B81012F1127DE
:10514C00FF91EF91E00FF11F109176040E94155F13
:10515C001FEF1093A5030C94802D689442F8A0E8DF
:10516C00B2E05FEF0E94DE6455233AF4AFE8B2E0A0
:10517C0055270E94DE6455230AF431C0009169045E
:10518C0010916A0400581240102F1B831B811F932F
:10519C0010917604EBE9F2E0AF91AF70BB27EA0F08
:1051AC00FB1F108300918F04112704FD1FEF1123A7
:1051BC0011F40C94F028E2E5F2E0EF93FF931B81DD
:1051CC00012F1127FF91EF91E00FF11F1091760441
:1051DC000E94155F1FEF1093A5030C94802D68940B
:1051EC0042F8A4E9B2E05FEF0E94DE6455233AF482
:1051FC00A3EBB2E055270E94DE6455230AF447C0A6
:10520C000091690410916A0404591240102F1B83F9
:10521C001B811F93009170041091710420917204F2
:10522C0030917304EBEAF2E0AF91AF71BB27AA0F98
:10523C00BB1FEA0FFB1F1183008300918F04112702
:10524C0004FD1FEF112311F40C944829E2E6F2E05F
:10525C00EF93FF931B81012F1127000F111FFF915B
:10526C00EF91E00FF11FEF93FF93009170041091F9
:10527C0071042091720430917304FF91EF919801A5
:10528C000E94255F1FEF1093A5030C94802D68944A
:10529C0042F8ACEBB2E05FEF0E94DE6455233AF4C7
:1052AC00ABECB2E055270E94DE6455230AF42EC005
:1052BC000091690410916A040C5B1240102F1B833F
:1052CC001B811F9310917604EBEEF2E0AF91AF705F
:1052DC00BB27EA0FFB1F108300918F04112704FDDD
:1052EC001FEF112311F40C948A29E2EAF2E0EF93F8
:1052FC00FF931B81012F1127FF91EF91E00FF11FFD
:10530C00109176040E94155F0C94802D133011F0CF
:10531C000C949A29043811F00C949A291091760463
:10532C00109385030C94802D133011F00C94A82944
:10533C00053811F00C94A8291091760410938A0367
:10534C000C94802D133011F00C94BA29073E11F0F7
:10535C000C94BA2910917604103010E009F01FEF6C
:10536C0010939E030C94802D689442F8A8EEB3E041
:10537C005FEF0E94DE6455233AF4A7EEB4E05527A4
:10538C000E94DE6455230AF42EC000918F0411276D
:10539C0004FD1FEF112311F40C94ED290091690405
:1053AC0010916A04085E1340102F1B83E2E3F0E0B7
:1053BC00EF93FF931B81012F1127FF91EF91E00FCA
:1053CC00F11F109176040E94155F0C94F729CF936E
:1053DC00DF9316E01A930E949306DF91CF910C9401
:1053EC00AD2D0C94802D689442F8A8EEB4E05FEFDC
:1053FC000E94DE6455233AF4A7EEB5E055270E94CF
:10540C00DE6455230AF42EC000918F04112704FD8D
:10541C001FEF112311F40C942C2A009169041091A4
:10542C006A04085E1440102F1B83E2E3F1E0EF9353
:10543C00FF931B81012F1127FF91EF91E00FF11FBB
:10544C00109176040E94155F0C94362ACF93DF934B
:10545C0016E01A930E949306DF91CF910C94AD2D18
:10546C000C94802D689442F8A0EDB7E05FEF0E9499
:10547C00DE6455233AF4AFECB9E055270E94DE64A4
:10548C0055230AF425C00091690410916A04005D4B
:10549C0017401A830983EFEDF2E0EF93FF93098134
:1054AC001A81000F111FFF91EF91E00FF11FEF9385
:1054BC00FF9300917004109171042091720430914B
:1054CC007304FF91EF9198010E94255F0C94802D3D
:1054DC00163211F00C94AA2A0C3A11F00C94AA2A48
:1054EC001091760410936E0200918F04112704FD25
:1054FC001FEF112311F40C948A2A10917604E5E223
:10550C00F0E00E94155F319610919B04112311F469
:10551C000C94A02A109176041C5A812ECF93DF9301
:10552C00182D1A9310E01A930E94830EDF91CF91DD
:10553C000C94A82ACF93DF9318E01A930E94930639
:10554C00DF91CF910C94802D163211F00C94C42A5B
:10555C00003C11F00C94C42A10917604103010E029
:10556C0009F41FEF112311F40C94C02A0E94220499
:10557C000C94C22A0E9433040C94802D163211F024
:10558C000C94252B0A3C11F00C94252B0E946A08D4
:10559C001095112311F40C94232B0091700410918D
:1055AC0071042091720430917304ECE00E94BB648E
:1055BC00009370041093710420937204309373045D
:1055CC00CF93DF93009170041091710420917204B9
:1055DC00309173043A932A931A930A930E946F0A98
:1055EC00DF91CF910091700410917104209172049D
:1055FC003091730440E83427303829F4203019F402
:10560C00103009F400301FEF08F01127112311F4AA
:10561C000C94172B109190041460109390040C941C
:10562C00232B11E004EF0E94EE5E0E947407CF93CF
:10563C00DF930E94DF09DF91CF910C94802D1632FD
:10564C0011F00C949C2B0B3C11F00C949C2B0E9495
:10565C006A081095112311F40C949A2B0091700484
:10566C001091710420917204309173040C5A1F4FE5
:10567C002F4F3F4F009370041093710420937204CA
:10568C003093730400917004109171042091720492
:10569C0030917304ECE00E94BB640093700410938F
:1056AC0071042093720430937304CF93DF930091B1
:1056BC0070041091710420917204309173043A9328
:1056CC002A931A930A930E946F0ADF91CF9100914B
:1056DC00700410917104209172043091730440E8AD
:1056EC003427303829F4203019F4103009F4003004
:1056FC001FEF08F01127112311F40C94942BCF9366
:10570C00DF9318E01A930E949306DF91CF911091CA
:10571C0090041460109390040C949A2B11E004EFF5
:10572C000E94EE5E0E9474070C94802D163211F0CC
:10573C000C94F32B043D11F00C94F32B0E946A088B
:10574C001095112311F40C94F12B0091700410910D
:10575C0071042091720430917304ECE00E94BB64DC
:10576C0000937004109371042093720430937304AB
:10577C00CF93DF9300917004109171042091720407
:10578C00309173043A932A931A930A930E94440417
:10579C00DF91CF911095112311F40C94EF2B0E94F3
:1057AC005006CF93DF9318E0412A0EEB1EE51A93B7
:1057BC000A93E9EAFCEC0E94BF601DE00E9495632D
:1057CC001AE00E949563DF91CF910C94AD2D0C944F
:1057DC00F12B0E9474070C94802D163211F00C944E
:1057EC005E2C053D11F00C945E2C0E946A081095FD
:1057FC00112311F40C945C2C009170041091710421
:10580C0020917204309173040C5A1F4F2F4F3F4F4D
:10581C0000937004109371042093720430937304FA
:10582C0000917004109171042091720430917304F2
:10583C00ECE00E94BB6400937004109371042093FD
:10584C00720430937304CF93DF9300917004109122
:10585C00710420917204309173043A932A931A9331
:10586C000A930E944404DF91CF911095112311F4F7
:10587C000C945A2C0E945006CF93DF9318E0412AC7
:10588C000EEB1EE51A930A93E9EAFCEC0E94BF604A
:10589C001DE00E9495631AE00E949563DF91CF9101
:1058AC000C94AD2D0C945C2C0E9474070C94802DE0
:1058BC00163211F00C949E2C063D11F00C949E2C7B
:1058CC000E946A081095112311F40C949C2C0E94D0
:1058DC0084041095112311F40C948E2C0E94500604
:1058EC00CF93DF9318E0412A0EEB1EE51A930A932F
:1058FC00E2ECFCEC0E94BF601DE00E9495631AE094
:10590C000E949563DF91CF910C94AD2D0C949C2C3F
:10591C0000E010E020E030E000937004109371047C
:10592C0020937204309373040E9474070C94802D9E
:10593C00163211F00C94A82C0E3D11F00C94A82CDE
:10594C000C94B02C163211F00C94F62C0F3D11F077
:10595C000C94F62C00918F04112704FD1FEF1123DA
:10596C0011F40C94EA2C1B81103010E009F41FEF99
:10597C00112311F40C94D42C009170041091710427
:10598C002091720430917304E8E0F0E0D8010E9499
:10599C002B5F31960E94F8050C94E42C0091700456
:1059AC00109171042091720430917304ECE0F0E0DA
:1059BC00D8010E942B5F31960E94F80513E008EE87
:1059CC000E94EE5E0C94F42CCF93DF9316E01A93A6
:1059DC000E949306DF91CF910C94AD2D0C94802DE9
:1059EC00163211F00C940F2D083E11F00C940F2D63
:1059FC00CF93DF93109176041A930E94D70FDF9107
:105A0C00CF91CF93DF930E94F914DF91CF910C9437
:105A1C00802D163211F00C94292D023F11F00C94AC
:105A2C00292DCF93DF9300916D0410916E041A937E
:105A3C000A930E94C100DF91CF91109376040E94CB
:105A4C0069070C94802D173211F00C94762D0630CA
:105A5C0011F00C94762D00918F04112704FD1FEF8B
:105A6C00112311F40C946A2D10916F04112311F46D
:105A7C000C945E2DE6EBF2E0EF93FF933196FA93E4
:105A8C00EA9318E21A9317EF412210E4412AE9EF46
:105A9C00F3E00E94C86018E21F9318810F91011B5C
:105AAC00102FFF91EF910E94155F23960C94682D97
:105ABC00CF93DF9315E01A930E949306DF91CF9159
:105ACC000C94AD2D0C94742DCF93DF9316E01A9398
:105ADC000E949306DF91CF910C94AD2D0C94802DE8
:105AEC00CF93DF9315E01A930E949306DF91CF9129
:105AFC000C94AD2D10918F041F7E10938F04009188
:105B0C00690410916A04A0E81A27103809F40A3FB6
:105B1C0010E009F41FEF112311F40C949F2D188140
:105B2C00E894112309F0689410918F0414F91093E0
:105B3C008F0410916C04112311F40C94AD2DCF93A0
:105B4C00DF9310E01A930E949306DF91CF91089592
