:10007C0018811F9316E11F93E89440F8EEE8F3E023
:10008C00A4E0B0E03F914F9150E00E94845108955C
:10009C0000E010E020E030E000938E0310938F031B
:1000AC002093900330939103CF93DF9318811A938D
:1000BC000E943E00DF91CF9118811F9312E01F9395
:1000CC00E89440F8E6E1F0E03F914F91A1E0B0E018
:1000DC0060E050E00E94845118811F9313E01F933D
:1000EC00E89440F8E6E1F0E03F914F91A1E0B0E0F8
:1000FC0068E250E00E94845118811F9314E01F9312
:10010C00E89440F8E6E1F0E03F914F91A1E0B0E0D7
:10011C0064E150E00E94845118811F9315E01F93F5
:10012C00E89440F8E6E1F0E03F914F91A1E0B0E0B7
:10013C0060E850E00E9484510AEA1AEA2AEA3AEA94
:10014C0000938E0310938F032093900330939103AD
:10015C00CF93DF9318811A930E943E00DF91CF91C9
:10016C00089519E1109347025A9808951AE01093D4
:10017C0047025A980895219710E51F9309811A8117
:10018C001F93E89440F809811A81102FE6E1F0E002
:10019C00612FA1E0B0E03F914F9150E00E9484515B
:1001AC0010E51F93FE01A1E0B0E04F910E94615158
:1001BC0018810895CF93DF9310E51A930A811B8160
:1001CC001A930A93FE0133968F011A930A9310E047
:1001DC0001E01A930A930E947A51DF91CF9110E0BB
:1001EC0007E00E94145208952297CF93DF9310E5F5
:1001FC001A930F8118851A930A93FE0135968F0175
:10020C001A930A9310E004E01A930A930E947A510D
:10021C00DF91CF9110E007E00E941452089513E98A
:10022C0010937A0011E00E94235213EC10937A0081
:10023C0010917A001071103010E009F01FEF1123AB
:10024C0011F40C941E0113E810937A0010917900AC
:10025C001093370408951BB11F701F93109136042F
:10026C00110F110F110F110F0F91102B1BB90E94B1
:10027C0015011091370414301FEF08F011271123CA
:10028C0011F40C944C0110E01093370410913604C7
:10029C001F9310913704E8E3F4E0AF91AF71BB27E3
:1002AC00EA0FFB1F108308951498159A169AE6E32B
:1002BC00F4E0FA93EA9310E0108317E01A9310819C
:1002CC00088101171FEF08F01127112311F00C946E
:1002DC007A010E943101E981FA8110811395108312
:1002EC00112311F00C9466012396149A1598169A02
:1002FC00E6E3F4E0FA93EA9318E010831FE01A9314
:10030C001081088101171FEF08F01127112311F03C
:10031C000C949B010E943101E981FA8110811395A3
:10032C001083112311F00C9487012396149A159ABB
:10033C001698E6E3F4E0FA93EA9310E1108317E1E0
:10034C001A931081088101171FEF08F01127112350
:10035C0011F00C94BC010E943101E981FA811081E9
:10036C0013951083112311F00C94A8012396089572
:10037C00109145022B981EBD1DB517FFFDCF1EB564
:10038C00109346022B9A0895109142022B981EBD91
:10039C001DB517FFFDCF1EB51093440210914102FD
:1003AC001EBD1DB517FFFDCF1EB5109343022B9A32
:1003BC00089510913C022B981EBD1DB517FFFDCF63
:1003CC001EB51093400210913B021EBD1DB517FFC8
:1003DC00FDCF1EB510933F0210913A021EBD1DB504
:1003EC0017FFFDCF1EB510933E02109139021EBDB2
:1003FC001DB517FFFDCF1EB510933D022B9A089526
:10040C001091370229981EBD1DB517FFFDCF109115
:10041C0036021EBD1DB517FFFDCF299A0895109108
:10042C002B0408E0449817FD449A459A110F4598FF
:10043C000A95C1F70895E0E0F7E01081459808B1FE
:10044C0017FB04F908B9459A16FB04F908B9459A43
:10045C0015FB04F908B9459A14FB04F908B9459A37
:10046C0013FB04F908B9459A12FB04F908B9459A2B
:10047C0011FB04F908B9459A10FB04F908B9459A1F
:10048C004598E395D1F60895109130041EBD1DB525
:10049C0017FFFDCF1EB5109331040895289815E071
:1004AC00109330040E944A020E944A02289A10912A
:1004BC0031040895289815E0109330040E944A02E4
:1004CC000E944A02109131041170103010E009F4AE
:1004DC001FEF112311F40C946602289A08952898A2
:1004EC0016E0109330040E944A02289A08950E9444
:1004FC007502289811E0109330040E944A0210E013
:10050C00109330040E944A02289A0E9460020895B7
:10051C000E947502289811E0109330040E944A0240
:10052C001FE3109330040E944A02289A0E94600232
:10053C0008950E94750228983B812A8119810881AF
:10054C000093320410933304209334043093350415
:10055C0010E2109330040E944A021091340410935C
:10056C0030040E944A0210913304109330040E940C
:10057C004A0210913204109330040E944A02289AC5
:10058C000E946002109131041072103010E009F0DA
:10059C001FEFE894112309F068941091210412F9CB
:1005AC001093210400912104112702FD1FEF1095D7
:1005BC0008950E947502289817EC109330040E943D
:1005CC004A02289A0E946002109131041072103075
:1005DC0010E009F01FEFE894112309F068941091D2
:1005EC00210412F91093210400912104112702FD1A
:1005FC001FEF10950895219709811A810150104021
:10060C00102F18830E94750228983E812D811C8121
:10061C000B810093320410933304209334043093F1
:10062C00350412E0109330040E944A0210913404F5
:10063C00109330040E944A0210913304109330043A
:10064C000E944A0210913204109330040E944A0214
:10065C00E7E0F0E0FA93EA9310E01083EF93FF9356
:10066C001A81FF91EF911A931081088101171FEFE6
:10067C0008F01127112311F00C945903172DE0E009
:10068C00F7E01F7F0027E10FF01F1081109330045B
:10069C000E944A02E981FA8110811395108311237B
:1006AC0011F00C943B032396289A0E94600210913F
:1006BC0031041072103010E009F01FEFE894112390
:1006CC0009F068941091210412F9109321040091FF
:1006DC002104112702FD1FEF1095089521970E9408
:1006EC0060020A811B8101501040102F18833F813A
:1006FC002E811D810C8100933204109333042093BE
:10070C0034043093350428981BE0109330040E9475
:10071C004A0210913404109330040E944A02109142
:10072C003304109330040E944A0210913204109347
:10073C0030040E944A0210E0109330040E944A02D6
:10074C00E7E0F0E0FA93EA9310E01083EF93FF9365
:10075C001A81FF91EF911A931081088101171FEFF5
:10076C0008F01127112311F00C94E6030E944A02A1
:10077C001C81112311F40C94D103172D1F9310918C
:10078C003104E0E0F6E0AF91AF7FBB27EA0FFB1F2F
:10079C0010830C94DD03172D1F9310913104E0E0AE
:1007AC00F7E0AF91AF7FBB27EA0FFB1F1083E98106
:1007BC00FA81108113951083112311F00C94B3035B
:1007CC002396289A0895E6E3F2E0EF93FF931881BD
:1007DC00FF91EF911193E7E3F2E010E011930E9487
:1007EC0006020E94DF0100913D0210913E02209111
:1007FC003F02309140020895E6E3F2E0EF93FF935D
:10080C001881FF91EF911193E7E3F2E010E8119357
:10081C000E940602E1E4F2E0EF93FF931981FF914D
:10082C00EF911193E2E4F2E010E011930E94CA01FF
:10083C000895E6E3F2E0EF93FF931881FF91EF91B7
:10084C001193E7E3F2E010E811930E94060209818C
:10085C001A8100934102109342020E94CA0108952A
:10086C00E6E3F2E0EF93FF931881FF91EF91119380
:10087C00E7E3F2E010E811930E9406023C812B8121
:10088C001A8109810093390210933A0220933B029A
:10089C0030933C020E94DF010895CF93DF9310EF59
:1008AC001A930E94E903DF91CF9100935A0210939F
:1008BC005B0220935C0230935D02EAE0F0E00E9460
:1008CC006B5200935A0210935B0220935C0230939C
:1008DC005D02CF93DF9300915A0210915B0220913D
:1008EC005C0230915D023A932A931A930A9310EFAB
:1008FC001A930E943604DF91CF91EEE0F0E00E9453
:10090C006B5200935A0210935B0220935C0230935B
:10091C005D02CF93DF9300915A0210915B022091FC
:10092C005C0230915D023A932A931A930A9311EF69
:10093C001A930E943604DF91CF9108951DE00E9416
:10094C00E4511AE00E94E451089513E20E94E4512C
:10095C0010913302105D0E94E4511AE30E94E4519D
:10096C00CF93DF9318E0412A04EE11E51A930A9312
:10097C000091520210915302CF93DF931A930A9372
:10098C0010E01A9310E01A9310E21A93689443F84B
:10099C00689445F8E89454F855F80E943F56DF9156
:1009AC00CF91DF91CF911DE30E94E4510895CF9335
:1009BC00DF9318E0412A04EE11E51A930A93E5ED52
:1009CC00F3E00E94EE53DF91CF910E94A4040895AE
:1009DC00229710916102112311F40C94030516E077
:1009EC000E94E4511A810E94E45110E00E94E451EB
:1009FC0010E00E94E4510C94470510E00FEF0093B7
:100A0C005202109353020E94AB04CF93DF9318E071
:100A1C00412A04EE11E51A930A931C81CF93DF93BC
:100A2C001A9310E01A9310E01A9310E21A93689438
:100A3C0043F80E940654DF91CF91DF91CF9110E2E1
:100A4C000E94E451CF93DF9318E0412A04EE11E5A4
:100A5C001A930A93ECECF3EBEF93FF931C81012FA9
:100A6C001127ADE0B0E0E89445F80E942957FF91BA
:100A7C00EF91E00FF11F0E94E553DF91CF910E949F
:100A8C00A40408950E94AB04CF93DF9318E0412A8D
:100A9C0004EE11E51A930A93ECEAF3E00E94EE538C
:100AAC00DF91CF910E94A40408951091610211234B
:100ABC0011F40C94760516E00E94E45110E00E94AB
:100ACC00E45100915702109158020E94E451009198
:100ADC00570210915802102F0E94E4510C94AD054E
:100AEC00ECEAF3E0EF93FF933196FA93EA9318E272
:100AFC001A9317EF41221FEB412200915A021091D9
:100B0C005B0220915C0230915D02CF93DF933A93AC
:100B1C002A931A930A9310E01A9310E01A9310E296
:100B2C001A93689445F8E89454F855F842F80E94E2
:100B3C004654DF91CF9118E21F9318810F91011B3E
:100B4C00102FFF91EF91108323960E944805089572
:100B5C00009157021091580217FF03C03FEF2FEF7F
:100B6C0002C03327222700935A0210935B02209372
:100B7C005C0230935D020E945B0508951091600247
:100B8C00012F112700935702109358020E94AE05B3
:100B9C0008950E94AB04ECEAF3E0EF93FF933196D7
:100BAC00FA93EA9318E21A9317EF41221FEB4122B2
:100BBC0000915A0210915B0220915C0230915D020F
:100BCC00CF93DF933A932A931A930A9310E01A93D4
:100BDC0010E01A9310E21A93689445F8E89454F8CC
:100BEC0055F842F80E944654DF91CF9118E21F93BA
:100BFC0018810F91011B102FFF91EF9110832396F9
:100C0C00CF93DF9318E0412A04EE11E51A930A936F
:100C1C00ECEAF3E00E94EE53DF91CF9110E20E94D8
:100C2C00E4511BE50E94E45114E20E94E451ECEA09
:100C3C00F3E0EF93FF933196FA93EA9318E21A9349
:100C4C0017EF41221FEB412200915A0210915B02D7
:100C5C0020915C0230915D02B801C901492F0E94BC
:100C6C00AE56482F0E94AE56472F0E94AE56462FC6
:100C7C000E94AE5618E21F9318810F91011B102F82
:100C8C00FF91EF9110832396CF93DF9318E0412AC5
:100C9C0004EE11E51A930A93ECEAF3E00E94EE538A
:100CAC00DF91CF911DE50E94E4510E94A4040895A8
:100CBC000E94AB04ECEAF3E0EF93FF933196FA93C6
:100CCC00EA9318E21A9317EF41221FEB412200918D
:100CDC005A0210915B0220915C0230915D02CF931D
:100CEC00DF933A932A931A930A9310E01A9310E025
:100CFC001A9310E21A93689445F8E89454F855F84E
:100D0C0042F80E944654DF91CF9118E21F9318814C
:100D1C000F91011B102FFF91EF9110832396CF930E
:100D2C00DF9318E0412A04EE11E51A930A93ECEADA
:100D3C00F3E00E94EE53DF91CF91CF93DF9318E055
:100D4C00412A04EE11E51A930A93EEE4F0EB0E94AB
:100D5C00E553DF91CF91CF93DF9318E0412A04EE56
:100D6C0011E51A930A93E5EFF3E00E94EE53DF913D
:100D7C00CF911DE50E94E4510E94A40408950E94A5
:100D8C0054021F7E103010E009F01FEF112311F4F4
:100D9C000C94EB060E94AB04CF93DF9318E0412A2E
:100DAC0004EE11E51A930A93E1E5F0EB0E94E5538A
:100DBC001DE00E94BB561AE00E94BB56DF91CF91FA
:100DCC001FEF0C94EE060C94EE0610E00C94EE065D
:100DDC00089510911704112311F40C942C07CF9340
:100DEC00DF9310E01A9310E01A9310E01A930E940C
:100DFC006550DF91CF91CF93DF9318E0412A0FE339
:100E0C0010E51A930A93E9E6F0EB0E94E553DF91A3
:100E1C00CF91CF93DF9310E01A9310E01A9311E067
:100E2C001A930E946550DF91CF91CF93DF9318E016
:100E3C00412A0FE310E51A930A93E2E7F0EB0E94C4
:100E4C00E553DF91CF9110E00E94865008951091E8
:100E5C001704112311F40C944F07CF93DF9310E078
:100E6C001A9310E01A9311E01A930E946550DF91C7
:100E7C00CF91CF93DF9318E0412A0FE310E51A933B
:100E8C000A93EBE7F0EB0E94E553DF91CF910C94C2
:100E9C00530710E002E00E941452089510911704B9
:100EAC00112311F40C948A07CF93DF9310E01A935B
:100EBC0010E01A9311E01A930E946550DF91CF91C4
:100ECC00CF93DF9318E0412A0FE310E51A930A93AE
:100EDC00E4E8F0EB0E94E553DF91CF91CF93DF93E1
:100EEC0010E01A9310E01A9310E01A930E946550C8
:100EFC00DF91CF9110E00E94865010E004E6E8E408
:100F0C00F2E0B1E00E94E15708951127062D01701F
:100F1C0009F41095112311F40C94E70710E004E682
:100F2C00E8E4F2E0B1E00E94E157109117041123BC
:100F3C0011F40C94DA07CF93DF9310E01A9310E0BE
:100F4C001A9310E01A930E946550DF91CF91CF93C2
:100F5C00DF9318E0412A0FE310E51A930A930091EE
:100F6C002604109127042091280430912904CF9352
:100F7C00DF933A932A931A930A9318E01A9300E09A
:100F8C000A9310E21A93689443F8689445F8E8942D
:100F9C0054F855F842F80E944654DF91CF91DF91F6
:100FAC00CF9110E00E948650CF93DF9318E0412A36
:100FBC0004EE11E51A930A931EE20E94BB56DF91D0
:100FCC00CF9108952497CF93DF9313E01A930E9447
:100FDC00E903DF91CF9100913D0210913E022091E7
:100FEC003F02309140023B832A8319830883CF93BD
:100FFC00DF9318E0412A04EE11E51A930A93EDE809
:10100C00F0EB0E94E553DF91CF91CF93DF9318E083
:10101C00412A04EE11E51A930A933D812C811B8120
:10102C000A81689443F8B801C901492F0E94AE5651
:10103C00482F0E94AE56472F0E94AE56462F0E9454
:10104C00AE56DF91CF91CF93DF9318E0412A04EE97
:10105C0011E51A930A93E6E4F0EB0E94E553DF9155
:10106C00CF910E94A404089528971AE314B91FE99C
:10107C0015B910E717B91FEC18B9109121041B7F93
:10108C0010932104469815E00E942352469A15E0CD
:10109C000E94235210E317B916E206EB009352029A
:1010AC001093530211E004EF0E9414521BEB14B97D
:1010BC001FE915B90E94AB04112737991FEF1123B3
:1010CC0011F40C947908CF93DF9318E0412A04EEC5
:1010DC0011E51A930A93EAE9F0EB0E94E553DF91CC
:1010EC00CF910C948C08CF93DF9318E0412A04EE37
:1010FC0011E51A930A93EAEAF0EB0E94E553DF91AB
:10110C00CF91109121041460109321040E94530478
:10111C00CF93DF930E94E807DF91CF910895E7E327
:10112C00F2E010E81193E6E3F2E0EF93FF931091F5
:10113C002D041F5FFF91EF9111930E9406021091F5
:10114C002E04109345020E94BE01E6E3F2E01091DA
:10115C002D0411930E9406020895E7E3F2E010E8D3
:10116C001193E6E3F2E0EF93FF9310912D041F5FD0
:10117C00FF91EF9111930E94060210912E0410938F
:10118C0045020E94BE01089565970E94AB04CF935F
:10119C00DF9318E0412A04EE11E51A930A93EAEC66
:1011AC00F0EB0E94E5531DE00E94BB561AE00E9432
:1011BC00BB56DF91CF9110E01A8710E0188710E032
:1011CC001C8B10E0198B1FEF188B00E010E020E057
:1011DC0030E00093260410932704209328043093C6
:1011EC00290410E000E01C870B870E94EF0610E03A
:1011FC0000E01983088310E000E01B830A83388D1C
:10120C002F891E890D893F832E831D830C831A859C
:10121C001095112311F40C947C0910E000E01C874C
:10122C000B8711275A991FEF1095E894112309F099
:10123C0068941BB112F91BB9CF93DF93FE0174961E
:10124C00FA93EA9314E61A930E94AD51DF91CF9171
:10125C001A871A85112311F40C944D091C8911302D
:10126C0010E009F41FEF1F931C89143010E009F4EF
:10127C001FEF0F91102B112311F40C944B0910E05C
:10128C0000E01C870B870C947C090C94570915E122
:10129C000E94E451FE013B96A081B1811196A0837E
:1012AC00B1831C89113010E009F41FEF1F931C89C6
:1012BC00143010E009F41FEF0F91102B1F931C89B1
:1012CC00183110E009F41FEF0F91102B1F930B85B1
:1012DC001C85103009F4043110E011F008F01FEFF8
:1012EC000F91102B112311F40C94220918851095D1
:1012FC00112311F40C9486090E942D071FEF1887F7
:10130C001C89113010E009F41FEF112311F40C9417
:10131C00B80ACF93DF93FE017396FA93EA9314E61F
:10132C001A930E94AD51DF91CF9119871985112322
:10133C0011F40C94B20ACF93DF93FE017296FA93D8
:10134C00EA931AE01A930E94AD51DF91CF9119875D
:10135C001B890FEF011B102F1F931A890F91011777
:10136C0010E009F41FEF112311F40C94B00A10E0F3
:10137C00198BE8E0F0E0FA93EA9310E010831FE792
:10138C001A931081088101171FEF08F01127112300
:10139C0011F00C94F809CF93DF93EAE0F0E0FA93A4
:1013AC00EA931AE01A930E94AD51DF91CF911C87FA
:1013BC001C891F931A2D0F91100F1C8B182D1F9326
:1013CC001A2DE0E0F7E0AF91AF7FBB27EA0FFB1FD0
:1013DC001083E981FA81108113951083112311F088
:1013EC000C94C8092396CF93DF93FE017096FA9361
:1013FC00EA931AE01A930E94AD51DF91CF911987AD
:10140C00CF93DF933F812E811D810C813A932A93D8
:10141C001A930A9310E000E81A930A930E940103AE
:10142C00DF91CF911095112311F40C94240AFE0135
:10143C003296A081B1811196A083B183CF93DF93B3
:10144C003F812E811D810C813A932A931A930A9322
:10145C0010E000E81A930A931FEF1A930E9474038A
:10146C00DF91CF91E8E0F0E0FA93EA9310E010837B
:10147C001FE71A931081088101171FEF08F011273D
:10148C00112311F00C94740A182DE0E0F6E01F7F84
:10149C000027E10FF01F10811F93182DE0E0F7E0FB
:1014AC001F7F0027E10FF01F10810F91011710E033
:1014BC0009F01FEF112311F40C946B0AFE01339603
:1014CC00A081B1811196A083B183E981FA81108149
:1014DC0013951083112311F00C94410A239619894A
:1014EC001F9318890F91011710E009F41FEF1123B6
:1014FC0011F40C94A60A16E00E94E4513F812E814F
:10150C001D810C8100581F4F2F4F3F4F3F832E835F
:10151C001D830C830091260410912704209128042C
:10152C003091290400581F4F2F4F3F4F0093260432
:10153C001093270420932804309329040C94B00AA8
:10154C00FE013B96A081B1811196A083B18315E178
:10155C000E94E4510C94B60A10E00FEF1C870B8725
:10156C0010E01C8B10E01A871C89143010E009F471
:10157C001FEF1F931C89183110E009F41FEF0F9116
:10158C00102B1F930B851C85103009F4043110E0CF
:10159C0011F008F01FEF0F91102B112311F40C9484
:1015AC000D0916E00E94E45118891F9319890F91B7
:1015BC00011710E009F01FEF112311F40C940A0B22
:1015CC000FEF1FEF2FEF3FEF00935A0210935B02C8
:1015DC0020935C0230935D020E94AB04CF93DF93A7
:1015EC0018E0412A04EE11E51A930A93EDEDF0EBA5
:1015FC000E94E5531DE00E94BB561AE00E94BB56A8
:10160C00DF91CF910C941A0B0091260410912704B2
:10161C00209128043091290400935A0210935B0204
:10162C0020935C0230935D0208811981103009F41B
:10163C00003010E009F01FEF112311F40C94770B1C
:10164C000FEF1FEF2FEF3FEF00935A0210935B0247
:10165C0020935C0230935D020E94AB04CF93DF9326
:10166C0018E0412A04EE11E51A930A93E8EFF0EB27
:10167C000E94E553DF91CF91CF93DF9318E0412A7D
:10168C0004EE11E51A930A930A811B81CF93DF9321
:10169C001A930A9310E01A9310E01A9310E21A931B
:1016AC00689443F8E89445F8E89454F855F80E9487
:1016BC003F56DF91CF91DF91CF91CF93DF9318E01D
:1016CC00412A04EE11E51A930A93EEE0F1EB0E9425
:1016DC00E5531DE00E94BB561AE00E94BB56DF91F9
:1016EC00CF910A811B81103009F4003010E009F011
:1016FC001FEF112311F40C94D40B0FEF1FEF2FEFEE
:10170C003FEF00935A0210935B0220935C023093DC
:10171C005D020E94AB04CF93DF9318E0412A04EEE4
:10172C0011E51A930A93EFE1F1EB0E94E553DF9177
:10173C00CF91CF93DF9318E0412A04EE11E51A9371
:10174C000A930C811D81CF93DF931A930A9310E0B7
:10175C001A9310E01A9310E21A93689443F8E894E1
:10176C0045F8E89454F855F80E943F56DF91CF9114
:10177C00DF91CF91CF93DF9318E0412A04EE11E56E
:10178C001A930A93EEE0F1EB0E94E5531DE00E94E0
:10179C00BB561AE00E94BB56DF91CF910895229759
:1017AC00CF93DF9312E01A930E94E903DF91CF915C
:1017BC0011271A991FEF112311F40C94D60B1091C9
:1017CC003F021A3A10E009F41FEF112311F40C94A4
:1017DC00B90C10913D02103511F00C94050CCF93FF
:1017EC00DF9318E0412A04EE11E51A930A93E4E31F
:1017FC00F1EB0E94E553DF91CF910C94880C1135DD
:10180C0011F00C94190CCF93DF9318E0412A04EEDD
:10181C0011E51A930A93E5E4F1EB0E94E553DF918D
:10182C00CF910C94880C123511F00C942D0CCF9395
:10183C00DF9318E0412A04EE11E51A930A93E3E5CD
:10184C00F1EB0E94E553DF91CF910C94880C13358A
:10185C0011F00C94410CCF93DF9318E0412A04EE65
:10186C0011E51A930A93EDE5F1EB0E94E553DF9134
:10187C00CF910C94880C143511F00C94550CCF931B
:10188C00DF9318E0412A04EE11E51A930A93EBE674
:10189C00F1EB0E94E553DF91CF910C94880C1F352E
:1018AC0011F00C94690CCF93DF9318E0412A04EEED
:1018BC0011E51A930A93E9E7F1EB0E94E553DF91E6
:1018CC00CF910C94880CCF93DF9318E0412A04EE4F
:1018DC0011E51A930A93E2E8F1EB0E94E553DF91CC
:1018EC00CF91CF93DF9318E0412A04EE11E51A93C0
:1018FC000A9310913D02689443F8412F0E94AE5612
:10190C00DF91CF91CF93DF9318E0412A04EE11E5DC
:10191C001A930A93EDE8F1EB0E94E553DF91CF9116
:10192C00CF93DF9318E0412A04EE11E51A930A9342
:10193C0010913E02689443F8412F0E94AE56DF91FD
:10194C00CF91CF93DF9318E0412A04EE11E51A935F
:10195C000A93E6E4F0EB0E94E553DF91CF910E94ED
:10196C00A4040C94C90CCF93DF9318E0412A04EE25
:10197C0011E51A930A93E9E9F1EB0E94E553DF9123
:10198C00CF910E94A404089525970E94AB041E8158
:10199C00145510932E040E949508CF93DF9318E0F2
:1019AC00412A04EE11E51A930A9310912E04CF9359
:1019BC00DF931A9310E01A9310E01A9310E21A9323
:1019CC00689443F80E940654DF91CF91DF91CF9138
:1019DC00CF93DF9318E0412A04EE11E51A930A9392
:1019EC00EFEAF1EB0E94E553DF91CF911E81012FBD
:1019FC0011273327222740E050E160E070E0689423
:101A0C0045F80E9485573C832B831A83098300E099
:101A1C0010E020E030E0009326041093270420937C
:101A2C00280430932904E8E0F0E0FA93EA9310E0FC
:101A3C0010831FE01A931081088101171FEF08F023
:101A4C001127112311F00C94F40DCF93DF933F81E8
:101A5C002E811D810C813A932A931A930A9311E0DB
:101A6C0000E01A930A9310E01A930E947403DF911A
:101A7C00CF911885112311F40C947B0DEAE0F0E062
:101A8C00FA93EA9310E010831FEF1A9310810881E8
:101A9C0001171FEF08F01127112311F00C94780D8A
:101AAC001A2DE0E0F7E01F7F0027E10FF01F1081F7
:101ABC001E83CF93DF9318E0412A04EE11E51A93AD
:101ACC000A931885689443F8412F0E94AE56DF9113
:101ADC00CF91E981FA81108113951083112311F0B4
:101AEC000C944D0D23960C94920D182D11701130F1
:101AFC0010E009F41FEF112311F40C94920DCF9305
:101B0C00DF9318E0412A04EE11E51A930A931EE2C2
:101B1C000E94BB56DF91CF91EAE0F0E0FA93EA9392
:101B2C0010E010831FE31A931081088101171FEF37
:101B3C0008F01127112311F00C94CA0DE0E0F7E026
:101B4C00EF93FF931A2D012F1127000F111F000F78
:101B5C00111FFF91EF91E00FF11F01911191219154
:101B6C0031910093390210933A0220933B02309347
:101B7C003C020E94DF01E981FA81108113951083E8
:101B8C00112311F00C949B0D23963F812E811D8106
:101B9C000C8100501F4F2F4F3F4F3F832E831D83CF
:101BAC000C83009126041091270420912804309175
:101BBC00290400501F4F2F4F3F4F009326041093C2
:101BCC0027042093280430932904E981FA81108199
:101BDC0013951083112311F00C94220D23960E945F
:101BEC00B3080E948B0711E004EFE8E4F2E0B1E0E7
:101BFC000E94E1570091260410912704209128049B
:101C0C003091290400935A0210935B0220935C02DA
:101C1C0030935D021FEF1093950310E002E30E94D6
:101C2C001452CF93DF930E94D50BDF91CF9108957F
:101C3C002D970E94AB04CF93DF9318E0412A04EE5A
:101C4C0011E51A930A931F85CF93DF931A9310E033
:101C5C001A9310E01A9310E21A93689443F80E94B6
:101C6C000654DF91CF91DF91CF91CF93DF9318E0A2
:101C7C00412A04EE11E51A930A93EFEBF1EB0E9463
:101C8C00E553DF91CF91CF93DF9310E01A9318E4D3
:101C9C001A930E940204DF91CF9110E004E60E9497
:101CAC0014521D851C5A012F11273327222740E07F
:101CBC0050E160E070E0689445F80E9485573C87DD
:101CCC002B871A87098710E000E018870F8310E034
:101CDC0000E019830883E8E0F0E0FA93EA9310E05F
:101CEC0010831FE01A931081088101171FEF08F071
:101CFC001127112311F00C94750FCF93DF933F85AF
:101D0C002E851D850C853A932A931A930A9311E01C
:101D1C0000E01A930A9310E01A930E947403DF9167
:101D2C00CF9110E000E01E830D8310E000E01C83D7
:101D3C000B830A851B8519870887EAE0F0E0FA9384
:101D4C00EA9310E0108317E01A93108108810117B1
:101D5C001FEF08F01127112311F00C94EA0ECF930A
:101D6C00DF9310E51A930E851F851A930A9317E0DB
:101D7C0000E00F931F930B851C853F912F91020F51
:101D8C00131F1A930A9310E000E21A930A930E940D
:101D9C007A51DF91CF9110E00AE00E94145208852D
:101DAC001985005E1F4F198708870D851E85005EFB
:101DBC001F4F1E870D87E981FA81108113951083BF
:101DCC00112311F00C94AC0E239610E51F9308858B
:101DDC0019851F93E89440F808851985102FE6E1C2
:101DEC00F0E0612FA1E0B0E03F914F9150E00E94F4
:101DFC008451CF93DF9310E51A9316E000E01A9309
:101E0C000A9311E000E01A930A930E945C51DF914F
:101E1C00CF91EAE0F0E0FA93EA9310E010831FEF21
:101E2C001A931081088101171FEF08F01127112355
:101E3C0011F00C944B0F1A2DE0E0F7E01F7F0027F8
:101E4C00E10FF01F10811F931A2DE0E0F6E01F7FC9
:101E5C000027E10FF01F10810F91011710E009F01E
:101E6C001FEF112311F40C94420FFE013696A08142
:101E7C00B1811196A083B183E981FA811081139508
:101E8C001083112311F00C94180F23960B811C81D5
:101E9C00103009F4003010E009F41FEF112311F495
:101EAC000C945D0F1EE20E94E4510C94600F13E23F
:101EBC000E94E4513F852E851D850C8500501F4FD7
:101ECC002F4F3F4F3F872E871D870C87E981FA8163
:101EDC00108113951083112311F00C947A0E239614
:101EEC00CF93DF9318E0412A04EE11E51A930A937D
:101EFC001DE50E94BB561DE00E94BB561AE00E94D5
:101F0C00BB56DF91CF9111E004EFE8E4F2E0B1E0D1
:101F1C000E94E15700912604109127042091280477
:101F2C003091290400935A0210935B0220935C02B7
:101F3C0030935D021FEF10939503088119811030C7
:101F4C0009F4003010E009F01FEF112311F40C9488
:101F5C00F40F0E94AB04CF93DF9318E0412A04EEF8
:101F6C0011E51A930A93EEEDF1EB0E94E553DF9124
:101F7C00CF91CF93DF9318E0412A04EE11E51A9329
:101F8C000A930A811B81CF93DF931A930A9310E073
:101F9C001A9310E01A9310E21A93689443F8E89499
:101FAC0045F8E89454F855F80E943F56DF91CF91CC
:101FBC00DF91CF91CF93DF9318E0412A04EE11E526
:101FCC001A930A93EEE0F1EB0E94E5531DE00E9498
:101FDC00BB561AE00E94BB56DF91CF910895239710
:101FEC001B811095E894112309F068941BB112F928
:101FFC001BB91B811F9348E331E00E94D2500F9113
:10200C00002311F0106801C01F7748E331E00E94F3
:10201C00C9500895E8E0F0E0FA93EA9310E01083D9
:10202C00EF93FF931A81FF91EF911A93108108811E
:10203C0001171FEF08F01127112311F00C94471012
:10204C00CF93DF931FEF1A930E94F50FDF91CF917F
:10205C0010E006E90E941452CF93DF9310E01A931C
:10206C000E94F50FDF91CF9110E006E90E94145207
:10207C00E981FA81108113951083112311F00C94CE
:10208C001D10239608952197CF93DF931FEF1A937A
:10209C000E94F50FDF91CF91E8E0F0E0FA93EA931C
:1020AC0010E010831FE01A931081088101171FEFB5
:1020BC0008F01127112311F00C949510E2E3F0E0D5
:1020CC00EF93FF931C81012F1127A0E1B0E0E8945E
:1020DC0045F80E9429570F931F93182D012F112794
:1020EC003F912F91020F131FFF91EF91E00FF11F02
:1020FC000E945D521B83182D1F931B81E4E6F2E0B6
:10210C00AF91AF73BB27EA0FFB1F1083E981FA81F4
:10211C00108113951083112311F00C945B102396EE
:10212C0010E00AE00E941452CF93DF9310E01A9350
:10213C000E94F50FDF91CF9108952197CF93DF93F4
:10214C001FEF1A930E94F50FDF91CF91E8E0F0E0BA
:10215C00FA93EA9310E010831FE01A931081088120
:10216C0001171FEF08F01127112311F00C94F01038
:10217C00E2E3F1E0EF93FF931C81012F1127A0E123
:10218C00B0E0E89445F80E9429570F931F93182D3F
:10219C00012F11273F912F91020F131FFF91EF91E8
:1021AC00E00FF11F0E945D521B83182D105F1F93CF
:1021BC001B81E4E6F2E0AF91AF73BB27EA0FFB1F84
:1021CC001083E981FA81108113951083112311F08A
:1021DC000C94B510239610E00AE00E941452CF9391
:1021EC00DF9310E01A930E94F50FDF91CF910895C1
:1021FC002197E8E0F0E0FA93EA9310E010831FE1F6
:10220C001A931081088101171FEF08F01127112371
:10221C0011F00C943211182D105E1F93E2E1F0E0D6
:10222C00EF93FF93182D012F1127FF91EF91E00FE2
:10223C00F11F0E945D52E4E6F2E0AF91AF73BB2751
:10224C00EA0FFB1F1083E981FA811081139510832B
:10225C00112311F00C940811239610918E02133057
:10226C0010E011F008F01FEF10935E030895219712
:10227C00CF93DF931FEF1A930E94F50FDF91CF914D
:10228C00E8E0F0E0FA93EA9310E010831FE01A9371
:10229C001081088101171FEF08F01127112311F08D
:1022AC000C948B11182DE4E6F2E01F730027E10F5C
:1022BC00F01F10811B83E2E3F0E0EF93FF931C818E
:1022CC00012F1127A0E1B0E0E89445F80E942957AE
:1022DC000F931F93182D012F11273F912F91020F50
:1022EC00131FFF91EF91E00FF11FEF93FF931B81F1
:1022FC00FF91EF910E943B52E981FA811081139575
:10230C001083112311F00C944F112396CF93DF936C
:10231C0010E01A930E94F50FDF91CF910895219749
:10232C00CF93DF931FEF1A930E94F50FDF91CF919C
:10233C00E8E0F0E0FA93EA9310E010831FE01A93C0
:10234C001081088101171FEF08F01127112311F0DC
:10235C000C94E411182D105FE4E6F2E01F730027D3
:10236C00E10FF01F10811B83E2E3F1E0EF93FF9389
:10237C001C81012F1127A0E1B0E0E89445F80E94E0
:10238C0029570F931F93182D012F11273F912F9130
:10239C00020F131FFF91EF91E00FF11FEF93FF93CB
:1023AC001B81FF91EF910E943B52E981FA811081D0
:1023BC0013951083112311F00C94A7112396CF932E
:1023CC00DF9310E01A930E94F50FDF91CF910895DF
:1023DC002197E8E0F0E0FA93EA9310E010831FE114
:1023EC001A931081088101171FEF08F01127112390
:1023FC0011F00C942612182D105EE4E6F2E01F7317
:10240C000027E10FF01F10811B83E2E1F0E0EF9356
:10241C00FF93182D012F1127FF91EF91E00FF11F62
:10242C00EF93FF931B81FF91EF910E943B52E98147
:10243C00FA81108113951083112311F00C94F8116B
:10244C00239608952197E8E0F0E0FA93EA9310E0E0
:10245C0010831CE01A931081088101171FEF08F0FC
:10246C001127112311F00C945B12182D1F93E2E528
:10247C00F2E0EF93FF93182D012F1127FF91EF91AD
:10248C00E00FF11F0E945D52E4ECF2E0AF91AF70EF
:10249C00BB27EA0FFB1F1083E981FA81108113958A
:1024AC001083112311F00C9432122396E8E0F0E023
:1024BC00FA93EA9310E010831FE01A9310810881BD
:1024CC0001171FEF08F01127112311F00C948E1235
:1024DC00182D1F93E2EAF2E0EF93FF93182D012FD2
:1024EC001127FF91EF91E00FF11F0E945D52E5E380
:1024FC00F3E0AF91AF70BB27EA0FFB1F1083E981AC
:10250C00FA81108113951083112311F00C9465122C
:10251C002396E8E0F0E0FA93EA9310E010831FE1D1
:10252C001A931081088101171FEF08F0112711234E
:10253C0011F00C94DD12182D1F93E2E6F2E0EF93EC
:10254C00FF93182D012F1127000F111FFF91EF91F1
:10255C00E00FF11F0E946652E5EFF2E0AF91AF7110
:10256C00BB27AA0FBB1FEA0FFB1F11830083182D7B
:10257C001F93E2E3F2E0EF93FF93182D012F112745
:10258C00FF91EF91E00FF11F0E945D52E4EAF2E03F
:10259C00AF91AF71BB27EA0FFB1F1083E981FA8162
:1025AC00108113951083112311F00C94981223961B
:1025BC001091CF021093AF021091D002103010E0A6
:1025CC0009F01FEFE894112309F0689410918A0325
:1025DC0016F910938A0310E01093D10210E01093B7
:1025EC00D202109189031F771093890310918903EC
:1025FC001F7B1093890308952297CF93DF931FEFCE
:10260C001A930E94F50FDF91CF911091A2021370D3
:10261C001883E8E0F0E0FA93EA9310E0108313E0FB
:10262C001A931081088101171FEF08F0112711234D
:10263C0011F00C945113182D1F931B81110F110FB6
:10264C000F91100FE5E3F3E01F700027E10FF01F6F
:10265C0010811C83182D133010E009F41FEF112387
:10266C0011F40C943D131C8108E010271C83CF93AC
:10267C00DF931C811A93182D1B5B1A930E94020482
:10268C00DF91CF91E981FA81108113951083112389
:10269C0011F00C941813239610E002E30E941452CC
:1026AC00CF93DF9310E01A930E94F50FDF91CF9137
:1026BC0008952797CF93DF931FEF1A930E94F50F7E
:1026CC00DF91CF91E8E0F0E0FA93EA9310E0108309
:1026DC001FE11A931081088101171FEF08F01127D1
:1026EC00112311F00C949D13182DE5EFF2E01F71DE
:1026FC000027110F001FE10FF01F008111811887B7
:10270C000F83CF93DF930F8118851A930A93182D9B
:10271C0010561A930E941F04DF91CF91E981FA8120
:10272C00108113951083112311F00C9471132396BF
:10273C00E8E0F0E0FA93EA9310E010831FE11A93BB
:10274C001081088101171FEF08F01127112311F0D8
:10275C000C94CD13182DE4EAF2E01F710027E10F61
:10276C00F01F10811987CF93DF9319851A93182DB9
:10277C0010541A930E940204DF91CF91E981FA81DF
:10278C00108113951083112311F00C94A713239629
:10279C00CF93DF9310E01A9317EF1A930E94020461
:1027AC00DF91CF91FE013496FA93EA9310E000E0AA
:1027BC001183008311E00FEF1A930A93A081B1816A
:1027CC0028813981B31709F4A21710E011F008F031
:1027DC001FEF112311F00C942914EBEDF2E0EF93A1
:1027EC00FF9308851985000F111FFF91EF91E00FE2
:1027FC00F11F0E94665217FF03C03FEF2FEF02C07C
:10280C00332722273F832E831D830C83CF93DF93A3
:10281C003F812E811D810C813A932A931A930A933E
:10282C0016EF1A930E943604DF91CF91EA81FB8157
:10283C00A081B1811196A083B183BB2311F4AA238B
:10284C0011F00C94E6132496CF93DF931091AD0204
:10285C001A9319E41A930E940204DF91CF91CF933B
:10286C00DF9310E01A930E94F50FDF91CF9108953A
:10287C0010E004E60E941452CF93DF9310E01A93F9
:10288C0018E41A930E940204DF91CF9110E004E641
:10289C000E941452CF93DF931FEF1A930E94F50FEF
:1028AC00DF91CF91CF93DF930E940213DF91CF91F1
:1028BC00CF93DF9310E01A930E94F50FDF91CF9125
:1028CC0008952597CF93DF9310E01A930E94E903A4
:1028DC00DF91CF9110913D021F7010937F031091E7
:1028EC003D0212951F7010938003109180031F936B
:1028FC0010917F030F91011710E011F008F01FEFFA
:10290C0010938103CF93DF9310917D021A9319E2F8
:10291C001A930E940204DF91CF91CF93DF93109111
:10292C007E021A931AE21A930E940204DF91CF914D
:10293C00CF93DF9310917F021A931BE21A930E949C
:10294C000204DF91CF91CF93DF93109180021A9301
:10295C001CE21A930E940204DF91CF91109198020D
:10296C0017701F9310918202110F110F110F110F7D
:10297C000F91102B1A83CF93DF931A811A931BE0BC
:10298C001A930E940204DF91CF9110916F021F9352
:10299C001091700210950F9110231F9310919F02AC
:1029AC000F911023112311F40C941115E8E0F0E0B1
:1029BC00FA93EA9310E0108317E01A9310810881C0
:1029CC0001171FEF08F01127112311F00C940E15AD
:1029DC00182D105F1F83182DE4E6F2E01F730027FB
:1029EC00E10FF01F108116951D83CF93DF931D818E
:1029FC001A9318851A930E940204DF91CF91E981F2
:102A0C00FA81108113951083112311F00C94E514A5
:102A1C0023960C944315E8E0F0E0FA93EA9310E067
:102A2C00108317E01A931081088101171FEF08F02B
:102A3C001127112311F00C944215182D105F1F83D0
:102A4C00182DE4E6F2E01F730027E10FF01F108150
:102A5C001D83CF93DF931D811A9318851A930E94BF
:102A6C000204DF91CF91E981FA81108113951083D3
:102A7C00112311F00C941A152396E8E0F0E0FA9368
:102A8C00EA9310E1108318E11A9310810881011761
:102A9C001FEF08F01127112311F00C947415182D49
:102AAC00105F1F83182DE4E6F2E01F730027E10F7F
:102ABC00F01F10811D83CF93DF931D811A9318850E
:102ACC001A930E940204DF91CF91E981FA8110815F
:102ADC0013951083112311F00C944C15239610911F
:102AEC006F02112311F40C940C1610919F021123F8
:102AFC0011F40C948D15CF93DF9310E01A9318E119
:102B0C001A930E940204DF91CF910C94B21510918C
:102B1C007002112311F40C949E1518E0E4E6F2E017
:102B2C001F730027E10FF01F10811A830C94A81556
:102B3C0018E0E4E6F2E01F730027E10FF01F1081AC
:102B4C0016951A83CF93DF931A811A9318E11A936F
:102B5C000E940204DF91CF9110917202112311F4A3
:102B6C000C94C415CF93DF9311E01A931BE11A93C5
:102B7C000E940204DF91CF910C94CE15CF93DF937A
:102B8C0010E01A931BE11A930E940204DF91CF917B
:102B9C0010917002112311F40C94E115CF93DF9373
:102BAC00109191021A931AE11A930E940204DF9178
:102BBC00CF910C94EC15CF93DF93109190021A9354
:102BCC001AE11A930E940204DF91CF9110917102C5
:102BDC00112311F40C94FF15CF93DF9310919302F2
:102BEC001A9319E11A930E940204DF91CF910C946D
:102BFC000A16CF93DF93109192021A9319E11A934C
:102C0C000E940204DF91CF910C94291618E0E4E69F
:102C1C00F2E01F730027E10FF01F10811A83CF938E
:102C2C00DF931A811A9318E11A930E940204DF9120
:102C3C00CF91CF93DF9310E01A931AE11A930E946D
:102C4C000204DF91CF9110E01A8310916E021123D0
:102C5C0011F40C943616FE013296108113951083E4
:102C6C0010918102112311F40C944616FE01329638
:102C7C00108113951083FE013296108113951083E9
:102C8C00CF93DF931A811A931DE01A930E940204CA
:102C9C00DF91CF9110916D02103011F00C945816F9
:102CAC000C946216123011F00C945E160C94621691
:102CBC00143011F00C947816CF93DF9312ED1A9315
:102CCC0015E01A930E940204DF91CF91CF93DF930A
:102CDC0010E01A9316E01A930E940204DF91CF9130
:102CEC000C94A016113011F00C947E160C948816CE
:102CFC00133011F00C9484160C948816153011F0C6
:102D0C000C94A016CF93DF9310918D021A9315E0BB
:102D1C001A930E940204DF91CF91CF93DF9310910D
:102D2C008C021A9316E01A930E940204DF91CF9141
:102D3C000C94A01610916D02103011F00C94A81682
:102D4C000C94AC16113011F00C94C416CF93DF9385
:102D5C00109186021A9318E01A930E940204DF91D4
:102D6C00CF91CF93DF93109189021A9314E01A93A9
:102D7C000E940204DF91CF910C940817123011F0CD
:102D8C000C94CA160C94CE16133011F00C94E61653
:102D9C00CF93DF93109187021A9318E01A930E9435
:102DAC000204DF91CF91CF93DF9310918A021A9393
:102DBC0014E01A930E940204DF91CF910C9408172F
:102DCC00143011F00C94EC160C94F016153011F024
:102DDC000C940817CF93DF93109188021A9318E084
:102DEC001A930E940204DF91CF91CF93DF9310913D
:102DFC008B021A9314E01A930E940204DF91CF9174
:102E0C000C9408171091F2021F931091A2020F91CB
:102E1C00011710E009F01FEF1F93109196030F910B
:102E2C00102B112311F40C942817CF93DF930E94CD
:102E3C000213DF91CF911091A2021093F20210E0D5
:102E4C001093960310919503112311F40C947C1795
:102E5C00CF93DF931091A00211701A9317E01A937D
:102E6C000E940204DF91CF9110918E0213701F9378
:102E7C0010918F02110F110F110F110F0F91102BB9
:102E8C001A83CF93DF931A811A9319E01A930E9435
:102E9C000204DF91CF91109194021F93109196022E
:102EAC0025E00E94FA560F91102B1F93109195025A
:102EBC0026E00E94FA560F91102B1A83CF93DF93C2
:102ECC001A811A931CE01A930E940204DF91CF918D
:102EDC00CF93DF93109199021A931EE01A930E94DC
:102EEC000204DF91CF9110E01093950308952B9776
:102EFC0010919A02103010E009F41FEF112311F415
:102F0C000C948E1710919B0216951A870C9492179D
:102F1C001091430416951A871A851F9310914D032F
:102F2C000F91011B102F1B831B811A3010E011F025
:102F3C0008F01FEF112311F40C94A71710E0109355
:102F4C0059031A8510934D0310915903112311F451
:102F5C000C94DB1710914E031F9310914C030F919F
:102F6C00011710E011F008F01FEF112311F40C946D
:102F7C00C61710914C03139510934C030C94D9174E
:102F8C0010914E031F9310914C030F9101171FEFDB
:102F9C0008F01127112311F40C94D91710914C033C
:102FAC001A9510934C030C94DE171A8510934C034E
:102FBC0010914C0316951F831F8116951E8310913B
:102FCC009C02103010E009F41FEF112311F40C9443
:102FDC00F41710919D0218830C94FE1719E0E8E386
:102FEC00F4E01F710027E10FF01F10811695188374
:102FFC0010919E0216951695185F1F93CF93DF9331
:10300C0010914C031A9310919E021A9318EC1A9378
:10301C000E940652DF91CF910F91100F1A831A81E3
:10302C001F9310914C030F91100F198310914C03A7
:10303C001F931A81169516950F91100F18871E81E4
:10304C001E5F1D8310916E021F93109181020F91D0
:10305C00102B112311F40C94671810916D02117040
:10306C00113010E009F41FEF112311F40C945618D1
:10307C00CF93DF9310914C031A9319811A931AE58D
:10308C001A930E940652DF91CF91185F19871D8108
:10309C001F931E8116950F91100F1D830C946518AC
:1030AC00CF93DF9310914C031A9319811A9318E75D
:1030BC001A930E940652DF91CF911A5F19870C94D4
:1030CC007518CF93DF931F811A9319811A931CE8FB
:1030DC001A930E940652DF91CF911A5F19871091B3
:1030EC004C03105F1F931F810F91100F1C83CF9304
:1030FC00DF931D811A9310E41A930E940204DF914E
:10310C00CF91CF93DF9319811A9311E41A930E94F4
:10311C000204DF91CF91CF93DF9318851A9312E4B9
:10312C001A930E940204DF91CF91CF93DF931985FC
:10313C001A9313E41A930E940204DF91CF91CF9358
:10314C00DF931C811A9314E41A930E940204DF91FA
:10315C00CF91089521971091EF021F93009199023E
:10316C00112701FD1FEF0F91102B1095112311F456
:10317C000C94DC181091CE02103010E009F01FEF07
:10318C00112311F40C94D018109142041093AF0237
:10319C000C94D4181091CF021093AF0200918A03B3
:1031AC00112706FD1FEF11701093D0021091ED0244
:1031BC00112311F40C94EC181091C80210934A03CB
:1031CC001091C90210934B030C94F4181091C60281
:1031DC0010934A031091C70210934B031091EE0207
:1031EC001095112311F40C94011910E010934A035B
:1031FC0010E010934B031FEF00914B02002309F0DA
:10320C001095112311F40C943C19109148031F9341
:10321C0010914A030F91011710E009F01FEF1123D1
:10322C0011F40C943C1910914A031F93109148030C
:10323C000F91011710E011F008F01FEF112311F49A
:10324C000C94331910914803139510934803109163
:10325C00CA0210934B020C943C19109148031A9516
:10326C00109348031091CC0210934B021FEF009166
:10327C004C02002309F01095112311F40C947719CA
:10328C00109149031F9310914B030F91011710E0FC
:10329C0009F01FEF112311F40C94771910914B03C3
:1032AC001F93109149030F91011710E011F008F0D2
:1032BC001FEF112311F40C946E19109149031395FF
:1032CC00109349031091CB0210934C020C94771974
:1032DC00109149031A95109349031091CD02109344
:1032EC004C0200914603109147030F931F931091CA
:1032FC004803012F11273F912F91020F131F0093A9
:10330C00460310934703109148031093A4021091A5
:10331C0049031093B40210914503112311F40C943A
:10332C00A219CF93DF930E945F13DF91CF9110E02E
:10333C00109345030C94CE19CF93DF931091AF02E9
:10334C001A931BEC1A930E940204DF91CF91CF9336
:10335C00DF931091D0021A931CEC1A930E94020472
:10336C00DF91CF91CF93DF931091A4021A9310ECBD
:10337C001A930E940204DF91CF91CF93DF931091A7
:10338C00B4021A9310ED1A930E940204DF91CF91AC
:10339C0008950E94AB04CF93DF9318E0412A04EE0A
:1033AC0011E51A930A93E8EFF1EB0E94E553DF91D4
:1033BC00CF910E94A40410911A04112311F40C94BF
:1033CC00181A01E010E020E030E000935A0210934C
:1033DC005B0220935C0230935D02E5EFF3E0EF9328
:1033EC00FF933196FA93EA931FE11A9317EF412258
:1033FC001FEB4122E5E0F2EB0E94E5531FE11F9326
:10340C0018810F91011B102FFF91EF9110832396C0
:10341C000E945E06CF93DF9312E61A930E944E0031
:10342C00DF91CF9110911804112311F40C944F1AC1
:10343C0002E010E020E030E000935A0210935B02AF
:10344C0020935C0230935D02E5EFF3E0EF93FF9382
:10345C003196FA93EA931FE11A9317EF41221FEB6F
:10346C004122E5E1F2EB0E94E5531FE11F93188125
:10347C000F91011B102FFF91EF91108323960E9447
:10348C005E06CF93DF9310E61A930E944E00DF91F5
:10349C00CF9110911904112311F40C94861A03E0A6
:1034AC0010E020E030E000935A0210935B0220936E
:1034BC005C0230935D02E5EFF3E0EF93FF933196FE
:1034CC00FA93EA931FE11A9317EF41221FEB412263
:1034DC00E9E2F2EB0E94E5531FE11F9318810F9173
:1034EC00011B102FFF91EF91108323960E945E0613
:1034FC00CF93DF9311E61A930E944E00DF91CF9188
:10350C0000E010E020E030E000938E0310938F0376
:10351C00209390033093910310911D04112311F407
:10352C000C94C11A04E010E020E030E000935A0241
:10353C0010935B0220935C0230935D02E5EFF3E0A5
:10354C00EF93FF933196FA93EA931FE11A9317EFD7
:10355C0041221FEB4122EDE3F2EB0E94E5531FE108
:10356C001F9318810F91011B102FFF91EF91108366
:10357C0023960E945E0610911C04112311F40C94E6
:10358C00F61A10E8109548E333E00E94C95005E0A4
:10359C0010E020E030E000935A0210935B0220937D
:1035AC005C0230935D02E5EFF3E0EF93FF9331960D
:1035BC00FA93EA931FE11A9317EF41221FEB412272
:1035CC00EEE4F2EB0E94E5531FE11F9318810F917B
:1035DC00011B102FFF91EF91108323960E945E0622
:1035EC0010911704112311F40C94251B06E010E024
:1035FC0020E030E000935A0210935B0220935C02AF
:10360C0030935D02E5EFF3E0EF93FF933196FA937D
:10361C00EA931FE11A9317EF41221FEB4122E1E6D7
:10362C00F2EB0E94E5531FE11F9318810F91011BD0
:10363C00102FFF91EF91108323960E945E06089540
:10364C0024970091520210915302D8012AE030E0E5
:10365C00689445F80E944B578F01507821F00195E2
:10366C0009F41A951095102F1A830091520210919B
:10367C005302689442F8A0E0B0E05FEF0E94F45768
:10368C0055233AF4A9EFB0E055270E94F45755237F
:10369C000AF418C0CF93DF93009152021091530299
:1036AC00102F1A930E94E903DF91CF9100935A02D5
:1036BC0010935B0220935C0230935D020E94CF0555
:1036CC000C94C81F103011F00C947C1B0B3F11F0A4
:1036DC000C947C1B0091220410912304009357023C
:1036EC00109358020E94AE050C94C81F103011F0B4
:1036FC000C94881B0C3F11F00C94881B0E94CF1962
:10370C000C94C81F103011F00C94A41B0D3F11F039
:10371C000C94A41BCF93DF9318E0412A04EE11E51F
:10372C001A930A93E5EDF3E00E94EE53DF91CF91EB
:10373C000E94A4040C94C81F0C94C81F103011F0E4
:10374C000C94DB1B0E3F11F00C94DB1B0E94AB04A2
:10375C00CF93DF9318E0412A04EE11E51A930A93F4
:10376C00E6E0F0EB0E94E553DF91CF91CF93DF932E
:10377C0018E0412A04EE11E51A930A93EAE3F0EB00
:10378C000E94E553DF91CF91CF93DF9318E0412A4C
:10379C0004EE11E51A930A931DE50E94BB56DF91C6
:1037AC00CF910E94A4040C94C81F103011F00C94FB
:1037BC00ED1B0F3F11F00C94ED1BCF93DF9310E03A
:1037CC001A930E94EE04DF91CF910C94C81F689459
:1037DC0042F8ACE2B1E05FEF0E94F45755233AF4A3
:1037EC00A3E4B1E055270E94F45755230AF416C000
:1037FC0000915202109153020C521140102F1B8356
:10380C001B81E8E3F4E01F710027E10FF01F10812A
:10381C00109360020E94C4050C94C81F113011F063
:10382C000C94241C043411F00C94241C109182036D
:10383C00109360020E94C4050C94C81F113011F043
:10384C000C94341C053411F00C94341C109183032B
:10385C00109360020E94C4050C94C81F113011F023
:10386C000C94441C063411F00C94441C10918603E7
:10387C00109360020E94C4050C94C81F113011F003
:10388C000C94541C073411F00C94541C10918403A8
:10389C00109360020E94C4050C94C81F113011F0E3
:1038AC000C94641C083411F00C94641C1091850366
:1038BC00109360020E94C4050C94C81F113011F0C3
:1038CC000C94741C0E3511F00C94741C1091840221
:1038DC00109360020E94C4050C94C81F113011F0A3
:1038EC000C94841C0F3511F00C94841C10918502DF
:1038FC00109360020E94C4050C94C81F113011F083
:10390C000C94941C003611F00C94941C1091A2028F
:10391C00109360020E94C4050C94C81F689442F86E
:10392C00A0E9B1E05FEF0E94F45755233AF4AFEAF7
:10393C00B1E055270E94F45755230AF416C00091A4
:10394C0052021091530200591140102F1A831A8100
:10395C00E4E6F2E01F730027E10FF01F10811093D3
:10396C0060020E94C4050C94C81F689442F8A4EF2E
:10397C00B1E05FEF0E94F45755233AF4A3E1B2E0B3
:10398C0055270E94F45755230AF417C00091520290
:10399C0010915302045F1140102F105E1A831A818C
:1039AC00E4E6F2E01F730027E10FF01F1081109383
:1039BC0060020E94C4050C94C81F689442F8A8E5E4
:1039CC00B2E05FEF0E94F45755233AF4A7E7B2E058
:1039DC0055270E94F45755230AF416C00091520241
:1039EC001091530208551240102F1A831A81E4EAE1
:1039FC00F2E01F710027E10FF01F1081109360029D
:103A0C000E94C4050C94C81F689442F8A0E8B2E068
:103A1C005FEF0E94F45755233AF4AFE8B2E0552714
:103A2C000E94F45755230AF416C0009152021091CB
:103A3C00530200581240102F1A831A81E4ECF2E062
:103A4C001F700027E10FF01F1081109360020E947D
:103A5C00C4050C94C81F689442F8A4E9B2E05FEF67
:103A6C000E94F45755233AF4A3EBB2E055270E9479
:103A7C00F45755230AF41BC00091520210915302C3
:103A8C0004591240102F1A831A81E5EFF2E01F71CE
:103A9C000027110F001FE10FF01F0081118100930F
:103AAC005702109358020E94AE050C94C81F6894DC
:103ABC0042F8ACEBB2E05FEF0E94F45755233AF4B6
:103ACC00ACECB2E055270E94F45755230AF416C00B
:103ADC0000915202109153020C5B1240102F1A836A
:103AEC001A81E5E3F3E01F700027E10FF01F10814E
:103AFC00109360020E94C4050C94C81F133011F07F
:103B0C000C94971D063E11F00C94971D0091990290
:103B1C00112701FD1FEF109360020E94C4050C9445
:103B2C00C81F133011F00C94A71D073E11F00C9414
:103B3C00A71D1091EF02109360020E94C4050C9413
:103B4C00C81F689442F8A8EEB3E05FEF0E94F457E8
:103B5C0055233AF4A7EEB4E055270E94F4575523A9
:103B6C000AF41CC00091520210915302085E1340DB
:103B7C00102F1A83E2E3F0E0EF93FF931A81012FE9
:103B8C001127FF91EF91E00FF11F0E945D523196CA
:103B9C00109360020E94C4050C94C81F689442F8EC
:103BAC00A8EEB4E05FEF0E94F45755233AF4A7EE69
:103BBC00B5E055270E94F45755230AF41CC0009118
:103BCC00520210915302085E1440102F1A83E2E344
:103BDC00F1E0EF93FF931A81012F1127FF91EF91E1
:103BEC00E00FF11F0E945D523196109360020E940B
:103BFC00C4050C94C81F689442F8A0EDB7E05FEFC1
:103C0C000E94F45755233AF4AFECB9E055270E94C3
:103C1C00F45755230AF41EC000915202109153021E
:103C2C00005D174019830883EBEDF2E0EF93FF93EF
:103C3C0008811981000F111FFF91EF91E00FF11F07
:103C4C000E94665200935702109358020E94AE05D0
:103C5C000C94C81F163211F00C94461E0C3A11F03D
:103C6C000C94461ECF93DF93109197021C5A1A9313
:103C7C0010E01A930E94CA0CDF91CF910C94C81FCC
:103C8C00163211F00C94721E063B11F00C94721E3D
:103C9C00CF93DF930E943A08DF91CF9110912104CA
:103CAC00103010E009F01FEF112311F40C94681E72
:103CBC00CF93DF9318E01A930E94EE04DF91CF911B
:103CCC000C94701ECF93DF9310E01A930E94EE04B5
:103CDC00DF91CF910C94C81F163211F00C94821EF8
:103CEC00003C11F00C94821E0E945402109360024E
:103CFC000E94C4050C94C81F163211F00C94B51E0A
:103D0C000E3D11F00C94B51EEAE0F0E00E946B52EF
:103D1C0000935A0210935B0220935C0230935D0275
:103D2C00E5EFF3E0EF93FF933196FA93EA931FE1FB
:103D3C001A9317EF41221FEB4122EDE6F2EB0E94A2
:103D4C00E5531FE11F9318810F91011B102FFF9159
:103D5C00EF91108323960E945E060C94C81F1632B6
:103D6C0011F00C94E81E0F3D11F00C94E81EEEE0DF
:103D7C00F0E00E946B5200935A0210935B02209366
:103D8C005C0230935D02E5EFF3E0EF93FF93319625
:103D9C00FA93EA931FE11A9317EF41221FEB41228A
:103DAC00EBE7F2EB0E94E5531FE11F9318810F9193
:103DBC00011B102FFF91EF91108323960E945E063A
:103DCC000C94C81F163211F00C941F1F003E11F0FA
:103DDC000C941F1FCF93DF9312EF1A930E94E903E9
:103DEC00DF91CF9100935A0210935B0220935C02F7
:103DFC0030935D02E5EFF3E0EF93FF933196FA9386
:103E0C00EA931FE11A9317EF41221FEB4122EAE8D4
:103E1C00F2EB0E94E5531FE11F9318810F91011BD8
:103E2C00102FFF91EF91108323960E945E060C9445
:103E3C00C81F173211F00C94561F063011F00C9459
:103E4C00561F00E010E020E030E000935A0210937F
:103E5C005B0220935C0230935D02E5EFF3E0EF939D
:103E6C00FF933196FA93EA931FE11A9317EF4122CD
:103E7C001FEB4122E8E9F2EB0E94E553E2EBF2E0A2
:103E8C000E94F8531FE11F9318810F91011B102FF3
:103E9C00FF91EF91108323960E945E060C94C81F2D
:103EAC00173211F00C94AE1F0E3011F00C94AE1FA3
:103EBC00E5E2F0E00E945D521C5A812ECF93DF9315
:103ECC00182D1A9310E01A930E94CA0CDF91CF910F
:103EDC00CF93DF930E942812DF91CF91CF93DF9382
:103EEC000E945F13DF91CF911FEF109395031FEF8B
:103EFC00109393031FEF1093940300E010E020E065
:103F0C0030E000935A0210935B0220935C023093D2
:103F1C005D02E5EFF3E0EF93FF933196FA93EA93AA
:103F2C001FE11A9317EF41221FEB4122E0EAF2EB5B
:103F3C000E94E5531FE11F9318810F91011B102F55
:103F4C00FF91EF91108323960E945E060C94C81F7C
:103F5C00173211F00C94C01F0F3011F00C94C01FCD
:103F6C00F8941FE7412204B7037F04BF0C942C4E36
:103F7C000C94C81FCF93DF9315E01A930E94EE04A4
:103F8C00DF91CF9108952597009152021091530221
:103F9C00D8012AE030E0689445F80E944B578F0115
:103FAC00507821F0019509F41A951095102F1B8368
:103FBC0010916002103010E009F01FEF188300918F
:103FCC00520210915302689442F8A0E0B0E05FEF07
:103FDC000E94F45755233AF4AFEEB0E055270E94F7
:103FEC00F45755230AF414C0CF93DF930091570272
:103FFC00109158021A930A93009152021091530295
:10400C00102F1A930E941F04DF91CF910C94442619
:10401C00689442F8A0EFB0E05FEF0E94F45755238C
:10402C003AF4A9EFB0E055270E94F45755230AF44F
:10403C001AC0CF93DF9300915A0210915B0220912A
:10404C005C0230915D023A932A931A930A93009181
:10405C00520210915302102F1A930E943604DF91D2
:10406C00CF910C944426103011F00C9452200A3F3E
:10407C0011F00C94522010916002103010E009F0F5
:10408C001FEFE894112309F068941091200414F99F
:10409C00109320040C944426113011F00C946C20D5
:1040AC000E3511F00C946C20109160021093840268
:1040BC001FEF10939303CF93DF93109160021A9329
:1040CC000E944910DF91CF910C944426113011F0CD
:1040DC000C9486200F3511F00C9486201091600200
:1040EC00109385021FEF10939403CF93DF931091DD
:1040FC0060021A930E94A310DF91CF910C94442676
:10410C00113011F00C949720003611F00C9497207C
:10411C00109160021093A2021FEF109396030C945F
:10412C004426113011F00C94A5200C3711F00C948E
:10413C00A5201091600210939B020C944426113020
:10414C0011F00C94B3200D3711F00C94B320109196
:10415C0060021093AF020C944426113011F00C94B1
:10416C00DB20063811F00C94DB2000912004112781
:10417C0004FD1FEF112311F40C94CF20CF93DF9388
:10418C00109160021A930E943D11DF91CF910C9413
:10419C00D920CF93DF9316E01A930E94EE04DF919F
:1041AC00CF910C9452260C944426113011F00C949F
:1041BC000321073811F00C940321009120041127DE
:1041CC0004FD1FEF112311F40C94F720CF93DF9310
:1041DC00109160021A930E949511DF91CF910C946B
:1041EC000121CF93DF9316E01A930E94EE04DF9126
:1041FC00CF910C9452260C944426689442F8A0E972
:10420C00B1E05FEF0E94F45755233AF4AFEAB1E006
:10421C0055270E94F45755230AF416C000915202F8
:10422C001091530200591140102F1B831B811F93B7
:10423C0010916002E4E6F2E0AF91AF73BB27EA0F96
:10424C00FB1F10830C944426689442F8A4EFB1E051
:10425C005FEF0E94F45755233AF4A3E1B2E05527DF
:10426C000E94F45755230AF431C000915202109168
:10427C005302045F1140102F1B831B811F9310915D
:10428C006002E4E8F2E0AF91AF71BB27EA0FFB1FCD
:10429C00108300912004112704FD1FEF112311F44A
:1042AC000C946721E2E1F0E0EF93FF931B81012F67
:1042BC001127FF91EF91E00FF11F109160020E9406
:1042CC003B521FEF109395030C944426689442F8CC
:1042DC00A8E5B2E05FEF0E94F45755233AF4A7E744
:1042EC00B2E055270E94F45755230AF431C00091CF
:1042FC0052021091530208551240102F1B831B8140
:10430C001F9310916002E4EAF2E0AF91AF71BB270A
:10431C00EA0FFB1F108300912004112704FD1FEFEF
:10432C00112311F40C94A921E2E3F2E0EF93FF9333
:10433C001B81012F1127FF91EF91E00FF11F1091BD
:10434C0060020E943B521FEF109345030C944426CD
:10435C00689442F8A0E8B2E05FEF0E94F45755234E
:10436C003AF4AFE8B2E055270E94F45755230AF40B
:10437C002EC0009152021091530200581240102F7F
:10438C001B831B811F9310916002E4ECF2E0AF9150
:10439C00AF70BB27EA0FFB1F10830091200411277D
:1043AC0004FD1FEF112311F40C94EB21E2E5F2E074
:1043BC00EF93FF931B81012F1127FF91EF91E00FDA
:1043CC00F11F109160020E943B520C944426689499
:1043DC0042F8A4E9B2E05FEF0E94F45755233AF497
:1043EC00A3EBB2E055270E94F45755230AF447C0BB
:1043FC00009152021091530204591240102F1B834A
:10440C001B811F9300915A0210915B0220915C0258
:10441C0030915D02E5EFF2E0AF91AF71BB27AA0FCF
:10442C00BB1FEA0FFB1F118300830091200411278F
:10443C0004FD1FEF112311F40C944022E2E6F2E08C
:10444C00EF93FF931B81012F1127000F111FFF9179
:10445C00EF91E00FF11FEF93FF9300915A0210912F
:10446C005B0220915C0230915D02FF91EF9198010B
:10447C000E944B521FEF109345030C9444266894F2
:10448C0042F8ACEBB2E05FEF0E94F45755233AF4DC
:10449C00ABECB2E055270E94F45755230AF42EC01A
:1044AC0000915202109153020C5B1240102F1B838F
:1044BC001B811F9310916002E5E3F3E0AF91AF70A5
:1044CC00BB27EA0FFB1F108300912004112704FD6A
:1044DC001FEF112311F40C948222E2EAF2E0EF9325
:1044EC00FF931B81012F1127FF91EF91E00FF11F1B
:1044FC00109160020E943B520C944426133011F030
:10450C000C949622073E11F00C94962210916002A6
:10451C00103010E009F01FEF1093EF020C944426BA
:10452C00689442F8A8EEB3E05FEF0E94F45755236D
:10453C003AF4A7EEB4E055270E94F45755230AF439
:10454C0022C000912004112704FD1FEF112311F448
:10455C000C94C7220091520210915302085E134032
:10456C00102F1B83E2E3F0E0EF93FF931B81012FED
:10457C001127FF91EF91E00FF11F109160020E9443
:10458C003B520C944426689442F8A8EEB4E05FEFDA
:10459C000E94F45755233AF4A7EEB5E055270E9434
:1045AC00F45755230AF422C000912004112704FD6E
:1045BC001FEF112311F40C94FA2200915202109166
:1045CC005302085E1440102F1B83E2E3F1E0EF93DB
:1045DC00FF931B81012F1127FF91EF91E00FF11F2A
:1045EC00109160020E943B520C944426689442F84D
:1045FC00A0EDB7E05FEF0E94F45755233AF4AFEC0F
:10460C00B9E055270E94F45755230AF425C00091B0
:10461C00520210915302005D17401A830983EBED8F
:10462C00F2E0EF93FF9309811A81000F111FFF91A4
:10463C00EF91E00FF11FEF93FF9300915A0210914D
:10464C005B0220915C0230915D02FF91EF91980129
:10465C000E944B520C944426163211F00C946E238B
:10466C000C3A11F00C946E23109160021093970287
:10467C0000912004112704FD1FEF112311F40C9459
:10468C004E2310916002E5E2F0E00E943B5231961D
:10469C0010913802112311F40C94642310916002D0
:1046AC001C5A812ECF93DF93182D1A9310E01A9376
:1046BC000E94CA0CDF91CF910C946C23CF93DF93A3
:1046CC0018E01A930E94EE04DF91CF910C944426CB
:1046DC00163211F00C948823003C11F00C948823B2
:1046EC0010916002103010E009F41FEF112311F447
:1046FC000C9484230E947D020C9486230E948E02CB
:10470C000C944426163211F00C94E9230A3C11F057
:10471C000C94E9230E94C5061095112311F40C94F6
:10472C00E72300915A0210915B0220915C023091B8
:10473C005D02ECE00E94D15700935A0210935B0289
:10474C0020935C0230935D02CF93DF9300915A0269
:10475C0010915B0220915C0230915D023A932A9396
:10476C001A930A930E94CA08DF91CF9100915A02C2
:10477C0010915B0220915C0230915D0240E834277D
:10478C00303829F4203019F4103009F400301FEFC0
:10479C0008F01127112311F40C94DB231091210440
:1047AC001460109321040C94E72311E004EF0E9491
:1047BC0014520E94CF05CF93DF930E943A08DF91E9
:1047CC00CF910C944426163211F00C9460240B3CBF
:1047DC0011F00C9460240E94C5061095112311F45D
:1047EC000C945E2400915A0210915B0220915C02A1
:1047FC0030915D020C5A1F4F2F4F3F4F00935A02BE
:10480C0010935B0220935C0230935D0200915A027C
:10481C0010915B0220915C0230915D02ECE00E94F1
:10482C00D15700935A0210935B0220935C02309391
:10483C005D02CF93DF9300915A0210915B0220919D
:10484C005C0230915D023A932A931A930A930E9468
:10485C00CA08DF91CF9100915A0210915B0220910E
:10486C005C0230915D0240E83427303829F4203066
:10487C0019F4103009F400301FEF08F01127112340
:10488C0011F40C945824CF93DF9318E01A930E94E0
:10489C00EE04DF91CF911091210414601093210448
:1048AC000C945E2411E004EF0E9414520E94CF0578
:1048BC000C944426163211F00C94B724043D11F0DC
:1048CC000C94B7240E94C5061095112311F40C9476
:1048DC00B52400915A0210915B0220915C02309138
:1048EC005D02ECE00E94D15700935A0210935B02D8
:1048FC0020935C0230935D02CF93DF9300915A02B8
:10490C0010915B0220915C0230915D023A932A93E4
:10491C001A930A930E949F02DF91CF911095112355
:10492C0011F40C94B3240E94AB04CF93DF9318E0E2
:10493C00412A04EE11E51A930A93ECEAF2EB0E9479
:10494C00E5531DE00E94BB561AE00E94BB56DF9156
:10495C00CF910C9452260C94B5240E94CF050C9444
:10496C004426163211F00C942225053D11F00C94BE
:10497C0022250E94C5061095112311F40C942025B4
:10498C0000915A0210915B0220915C0230915D0201
:10499C000C5A1F4F2F4F3F4F00935A0210935B023C
:1049AC0020935C0230935D0200915A0210915B02DD
:1049BC0020915C0230915D02ECE00E94D157009393
:1049CC005A0210935B0220935C0230935D02CF93EA
:1049DC00DF9300915A0210915B0220915C0230919E
:1049EC005D023A932A931A930A930E949F02DF91D5
:1049FC00CF911095112311F40C941E250E94AB0439
:104A0C00CF93DF9318E0412A04EE11E51A930A9331
:104A1C00ECEAF2EB0E94E5531DE00E94BB561AE053
:104A2C000E94BB56DF91CF910C9452260C942025FA
:104A3C000E94CF050C944426163211F00C9462257A
:104A4C00063D11F00C9462250E94C50610951123A9
:104A5C0011F40C9460250E94DF021095112311F4BF
:104A6C000C9452250E94AB04CF93DF9318E0412A9B
:104A7C0004EE11E51A930A93E5ECF2EB0E94E55370
:104A8C001DE00E94BB561AE00E94BB56DF91CF91ED
:104A9C000C9452260C94602500E010E020E030E0ED
:104AAC0000935A0210935B0220935C0230935D02D8
:104ABC000E94CF050C944426163211F00C946C25F0
:104ACC000E3D11F00C946C250C947425163211F0DB
:104ADC000C94BA250F3D11F00C94BA2500912004CA
:104AEC00112704FD1FEF112311F40C94AE251B812B
:104AFC00103010E009F41FEF112311F40C949825D9
:104B0C0000915A0210915B0220915C0230915D027F
:104B1C00EAE0F0E0D8010E94515231960E94530411
:104B2C000C94A82500915A0210915B0220915C0212
:104B3C0030915D02EEE0F0E0D8010E9451523196C6
:104B4C000E94530413E008EE0E9414520C94B825F2
:104B5C00CF93DF9316E01A930E94EE04DF91CF916E
:104B6C000C9452260C944426163211F00C94D32536
:104B7C00083E11F00C94D325CF93DF931091600273
:104B8C001A930E941E0EDF91CF91CF93DF930E9458
:104B9C000213DF91CF910C944426163211F00C9431
:104BAC00ED25023F11F00C94ED25CF93DF9300918E
:104BBC005702109158021A930A930E94C100DF9178
:104BCC00CF91109360020E94C4050C9444261732B6
:104BDC0011F00C943A26063011F00C943A26009100
:104BEC002004112704FD1FEF112311F40C942E2621
:104BFC0010915902112311F40C942226E2EBF2E0ED
:104C0C00EF93FF933196FA93EA9318E21A9317EF06
:104C1C00412210E4412AECEAF3E00E94EE5318E240
:104C2C001F9318810F91011B102FFF91EF910E9480
:104C3C003B5223960C942C26CF93DF9315E01A93BA
:104C4C000E94EE04DF91CF910C9452260C943826DE
:104C5C00CF93DF9316E01A930E94EE04DF91CF916D
:104C6C000C9452260C944426CF93DF9315E01A93A0
:104C7C000E94EE04DF91CF910C94522610915602B3
:104C8C00112311F40C945226CF93DF9310E01A9356
:104C9C000E94EE04DF91CF9108952197ECEAF3E0A6
:104CAC00EF93FF933196FA93EA9318E21A9317EF66
:104CBC0041221FEB4122ECEAF3E00E94C25318E2BE
:104CCC001F9318810F91011B102FFF91EF911083EF
:104CDC002396FE01FA93EA9310E010831EE01A93D8
:104CEC001081088101171FEF08F01127112311F013
:104CFC000C94AF26ECEAF3E0EF93FF93EEE5F4EBC4
:104D0C00EF93FF931B81012F1127A4E0B0E0E894EF
:104D1C0045F80E942957FF91EF91E00FF11FBF91C9
:104D2C00AF91689444F80E94955610E009F41FEF77
:104D3C00112311F40C94A6261B8123960C94B126F6
:104D4C00E981FA81108113951083112311F00C94D1
:104D5C00772623961FE008952297ECEAF3E0EF9371
:104D6C00FF933196FA93EA9318E21A9317EF4122C4
:104D7C001FEB412218E21F9318810F91011B102F7A
:104D8C00FF91EF911083239610E01093590210E0DD
:104D9C001883E5EDF3E010911604012F1127E00FB5
:104DAC00F11F1191103210E009F41FEF112311F4CF
:104DBC000C94E726109116041395109316040C947A
:104DCC00CF26E5EDF3E010911604012F1127E00F2B
:104DDC00F11F1191193339F028F41A3218F040E010
:104DEC00189401C041E010E009F41FEF112311F4F5
:104DFC000C945A271FEF1883E8E0F0E0FA93EA933B
:104E0C00109116041083EF93FF93E5EDF3E01081FE
:104E1C00FF91EF911A931081088101171FEF08F091
:104E2C001127112311F00C945727E5EDF3E0182D01
:104E3C00012F1127E00FF11F11911C831C811933D5
:104E4C0039F028F41A3218F040E0189401C041E00F
:104E5C0010E009F41FEF112311F40C9447271C8167
:104E6C00712F61E010E006E10F931F93ECEAF3E081
:104E7C00EF93FF9318E21F9390E00E9482520C94E0
:104E8C004E27182D109316041B8123960C94DA27A9
:104E9C00E981FA81108113951083112311F00C9480
:104EAC00122723960C94D927E8E0F0E0FA93EA93C2
:104EBC00109116041083EF93FF93E5EDF3E010814E
:104ECC00FF91EF911A931081088101171FEF08F0E1
:104EDC001127112311F00C94D827E5EDF3E0182DD0
:104EEC00012F1127E00FF11F11911C831C8112322D
:104EFC0010E009F41FEF112311F40C948A271FEF13
:104F0C00109359020C94CF271C81113410E008F037
:104F1C001FEF1F93109159020F91102B112311F4B5
:104F2C000C94C9271C81113221F01F3311F014325B
:104F3C0001F010E009F41FEF112311F40C94AF27CA
:104F4C00182D109316041B8123960C94DA270C94BD
:104F5C00BF271C81712F61E010E006E10F931F93B6
:104F6C00ECEAF3E0EF93FF9318E21F9390E00E94BA
:104F7C0082521D81112311F40C94C7271FEF10933B
:104F8C0059020C94CF27182D109316041B810C94E6
:104F9C00DA27E981FA81108113951083112311F01E
:104FAC000C946A272396188108952197ECEAF3E074
:104FBC001FEB4122E89441F800E00E94015300935A
:104FCC005A0210935B0220935C0230935D020091B5
:104FDC005A0210915B0220915C0230915D020093A9
:104FEC005702109358020091570210915802102F3B
:104FFC001093600208952C97E5EDF3E0EF93FF9387
:10500C00EDEDF2EBBF91AF91689444F80E94955688
:10501C0010E009F41FEF112311F40C941F28CF9307
:10502C00DF9310E01A930E94EE04DF91CF910C9461
:10503C00E22911E21F93E5EDF3E0EF93FF9361E0BA
:10504C00FF91EF910F910E94AC53103010E011F0D2
:10505C0008F01FEF109356021AE31F93E5EDF3E0EF
:10506C00EF93FF9361E0FF91EF910F910E94AC538E
:10507C00103010E011F008F01FEF1C831DE31F939C
:10508C00E5EDF3E0EF93FF9361E0FF91EF910F916A
:10509C000E94AC531B871B85103010E009F41FEFE6
:1050AC001883E5EDF3E0319611911D831D811A32C1
:1050BC0010E009F41FEF19831D81133210E009F47D
:1050CC001FEF1A8311E0109316041A81112311F4A7
:1050DC000C94732812E0109316041C81112311F404
:1050EC000C949A28CF93DF9310E01A930E94B22667
:1050FC00DF91CF911091160413951093160419811A
:10510C00112311F40C948E280E94DD040C949A281F
:10511C00ECEAF3E01FEB4122E89441F800E00E9436
:10512C000153102F10935402198110951F93109155
:10513C0054021F93109133020F91011710E009F0E4
:10514C001FEF0F9110231F931C810F91102311231C
:10515C0011F40C94B5280E94DD040C94E22914E29D
:10516C001F93E5EDF3E0EF93FF9361E0FF91EF9177
:10517C000F910E94AC531A871A85103010E011F071
:10518C0008F01FEF1B831B81112311F40C9445298C
:10519C00ECEAF3E0EF93FF933196FA93EA9318E27B
:1051AC001A9317EF41221FEB4122E5EDF3E0EF9349
:1051BC00FF931D851F5F1F9312E00F91FF91EF91DD
:1051CC000E94D15318E21F9318810F91011B102FCD
:1051DC00FF91EF9110832396ECEAF3E01FEB412251
:1051EC00E89441F80FEF0E940153102F188710E03C
:1051FC001987E8E0F0E0FA93EA9311E01083EF935B
:10520C00FF931C851150FF91EF911A931081088127
:10521C0001171FEF08F01127112311F00C942E2900
:10522C00E5EDF3E0182D012F1127E00FF11F11917F
:10523C0018871C851F9318850F9110271C87E981EF
:10524C00FA81108113951083112311F00C940D2900
:10525C00239619851F9318850F91011710E009F0FB
:10526C001FEF112311F40C944529CF93DF9317E012
:10527C001A930E94EE04DF91CF910C94E229CF9304
:10528C00DF9310E01A930E94B226DF91CF91112385
:10529C0011F40C94572910E000E01F830E830C943A
:1052AC008D29CF93DF930E945326DF91CF911093DA
:1052BC004D0210914D021F3010E009F41FEF112325
:1052CC0011F40C947329CF93DF9314E01A930E947A
:1052DC00EE04DF91CF910C94E229EAE9F4EBEF9321
:1052EC00FF9310914D02012F1127000F111FFF91F9
:1052FC00EF91E00FF11F059114911F830E83CF9353
:10530C00DF9310E01A930E94B226DF91CF91ECEA62
:10531C00F3E01FEB4122E89441F800E00E940153B6
:10532C000F931F930E811F813F912F91020F131F1B
:10533C0000935202109353021881112311F40C9410
:10534C00AF29CF93DF930E94261BDF91CF910C9452
:10535C00E2291B851F5F10931604CF93DF931FEF79
:10536C001A930E94B226DF91CF91112311F40C9461
:10537C00C729CF93DF930E94DB27DF91CF910C9449
:10538C00DC2900E010E020E030E000935A0210939A
:10539C005B0220935C0230935D0210E000E000930E
:1053AC0057021093580210E010936002CF93DF93D2
:1053BC000E94C91FDF91CF91089521970091990206
:1053CC00112701FD1FEF112311F40C94EF290C94FC
:1053DC003C2A00918903112704FD1FEF10936E02E4
:1053EC0000918903112700FD1FEF10936F020091AC
:1053FC008903112701FD1FEF10937002009189039F
:10540C00112702FD1FEF10937102009189031127E0
:10541C0003FD1FEF1093720210E0188300918A03B2
:10542C00112701FD1FEF112311F40C94212A12E016
:10543C0018830C942C2A00918A03112702FD1FEF6C
:10544C00112311F40C942C2A14E0188300918A0374
:10545C00112703FD1FEF112311F40C94392AFE01BF
:10546C00108113951083188110936D020895219764
:10547C0000919902112701FD1FEF112311F40C94D7
:10548C00492A0C94502A00918903112705FD1FEF1E
:10549C00109381020895219700919902112701FD23
:1054AC001FEF112311F40C945D2A0C949B2A10917C
:1054BC00D402103010E009F41FEF112311F40C94F6
:1054CC00982AE8E0F0E0FA93EA9310E0108318E0F1
:1054DC001A931081088101171FEF08F0112711236F
:1054EC0011F00C94972A182DE8E3F4E01F710027B3
:1054FC00E10FF01F108116951B83182D1F931B8134
:10550C00E4E6F2E0AF91AF73BB27EA0FFB1F108309
:10551C00E981FA81108113951083112311F00C94F9
:10552C00702A239610E01093E402089521970091BD
:10553C009902112701FD1FEF112311F40C94A82AD5
:10554C000C94E72A1091D402113010E009F41FEFEB
:10555C00112311F40C94E42AE8E0F0E0FA93EA93B6
:10556C0010E0108318E01A931081088101171FEFC7
:10557C0008F01127112311F00C94E32A182DE8E3FD
:10558C00F4E01F710027E10FF01F108116951B83AB
:10559C00182D105F1F931B81E4E6F2E0AF91AF73FF
:1055AC00BB27EA0FFB1F1083E981FA811081139549
:1055BC001083112311F00C94BB2A239610E0109346
:1055CC00E5020895219700919902112701FD1FEF23
:1055DC00112311F40C94F42A0C94112B10E5109354
:1055EC007D021CE310937E0216E410937F021AE0F6
:1055FC001093800200918A03112707FD1FEF1123DE
:10560C0011F40C940E2B11E0109382020C94112BBC
:10561C0010E010938202089500918903112707FD71
:10562C001FEF1F931091D1020F91102B1F93112775
:10563C0032991FEF10950F9110271093ED020091E6
:10564C008903112706FD1FEF1F931091D2020F91B2
:10565C00102B1F93112733991FEF10950F911027C3
:10566C001093EE021091ED021F931091EE020F9128
:10567C001023E894112309F068941091EB0211F9AE
:10568C001093EB021091ED0210951F931091EE0206
:10569C000F911023E894112309F068941091EB02F8
:1056AC0010F91093EB021091EB021F931091A102D1
:1056BC000F9110271093EC02CF93DF9311E21A9302
:1056CC0013E01A9312E00CEE1A930A9310E001E027
:1056DC001A930A930E947051DF91CF910091990215
:1056EC00112701FD1FEF1095112311F40C949D2B24
:1056FC0010E01093A20200918A03112704FD1FEF02
:10570C00112311F40C948F2B1091A202139510936A
:10571C00A20200918A03112705FD1FEF112311F43A
:10572C000C949D2B1091A2021E5F1093A20208955F
:10573C0022971127062D017009F410951F931091D3
:10574C00E6020F9110231F931091D50210950F9123
:10575C001023112311F40C94DF2C10E002E3E8E485
:10576C00F2E0B1E00E94E157CF93DF9310E01A937F
:10577C0010E01A9310E01A930E946550DF91CF91BC
:10578C0010918402105D198319810E943F50109171
:10579C008402103010E009F41FEF1F931091840263
:1057AC001F3010E009F41FEF0F91102B112311F48F
:1057BC000C94F02BCF93DF9318E0412A0FE310E504
:1057CC001A930A93EEEDF2EB0E94E553DF91CF9121
:1057DC000C94FE2BCF93DF9318E0412A0FE310E5D6
:1057EC001A930A93E3EEF2EB0E94E553DF91CF910B
:1057FC001091D402103010E009F41FEF112311F4B2
:10580C000C940D2C16E00E943F500C94102C10E2BE
:10581C000E943F5010E20E943F50E8E0F0E0FA9303
:10582C00EA9310E0108318E01A9310810881011795
:10583C001FEF08F01127112311F00C944A2C182D8E
:10584C00E4E6F2E01F730027E10FF01F10811B83C9
:10585C00CF93DF931B811A9310E11A931EEF1A93C7
:10586C000E940652DF91CF911B831B81105D1C831C
:10587C001C810E943F50E981FA811081139510839D
:10588C00112311F00C941C2C2396CF93DF9310E072
:10589C001A9310E01A9311E01A930E946550DF914D
:1058AC00CF9110918502105D198319810E943F5090
:1058BC0010918502103010E009F41FEF1F93109126
:1058CC0085021F3010E009F41FEF0F91102B1123EC
:1058DC0011F40C94812CCF93DF9318E0412A0FE341
:1058EC0010E51A930A93E8EEF2EB0E94E553DF9170
:1058FC00CF910C948F2CCF93DF9318E0412A0FE3B8
:10590C0010E51A930A93EDEEF2EB0E94E553DF914A
:10591C00CF911091D402113010E009F41FEF112334
:10592C0011F40C949E2C16E00E943F500C94A12C68
:10593C0010E20E943F5010E20E943F50E8E0F0E07D
:10594C00FA93EA9310E1108318E11A9310810881FD
:10595C0001171FEF08F01127112311F00C94DB2C09
:10596C00182DE4E6F2E01F730027E10FF01F108101
:10597C001B83CF93DF931B811A9310E11A931EEFB5
:10598C001A930E940652DF91CF911B831B81105DED
:10599C001C831C810E943F50E981FA811081139570
:1059AC001083112311F00C94AD2C239610E010935E
:1059BC00E60208951881112311F40C94F52CCF9361
:1059CC00DF9318E0412A0FE310E51A930A93E2EFF4
:1059DC00F2EB0E94E553DF91CF910C94032DCF9302
:1059EC00DF9318E0412A0FE310E51A930A93E7EFCF
:1059FC00F2EB0E94E553DF91CF91089511E004EF93
:105A0C00E8E4F2E0B1E00E94E15710E00E947D5022
:105A1C00CF93DF9318E0412A0FE310E51A930A9312
:105A2C00FE0133960E94EE53DF91CF91CF93DF931B
:105A3C0010E01A9310E01A9311E01A930E9465502B
:105A4C00DF91CF91CF93DF9318811A930E94E02CB2
:105A5C00DF91CF91089511E004EFE8E4F2E0B1E0BA
:105A6C000E94E15710E00E947D50CF93DF9318E025
:105A7C00412A0FE310E51A930A93ECEFF2EB0E9424
:105A8C00E553DF91CF91CF93DF9310E01A9310E0A1
:105A9C001A9311E01A930E946550DF91CF911881EF
:105AAC00112311F40C946A2DCF93DF9318E0412A43
:105ABC000FE310E51A930A93E3E0F3EB0E94E5532E
:105ACC00DF91CF910C94782DCF93DF9318E0412A7E
:105ADC000FE310E51A930A93E8E0F3EB0E94E55309
:105AEC00DF91CF91089511E004EFE8E4F2E0B1E02A
:105AFC000E94E15710E00E947D50CF93DF9318E095
:105B0C00412A0FE310E51A930A93EDE0F3EB0E94A0
:105B1C00E553DF91CF91CF93DF9310E01A9310E010
:105B2C001A9311E01A930E946550DF91CF91CF9395
:105B3C00DF931B811A930E94E02CDF91CF911A8185
:105B4C00112311F40C94BA2DCF93DF9318E0412A52
