:10007C0010B11370B12E1B2D1F931C2D0F91011756
:10008C0010E009F01FEF112311F40C9481001B2DCB
:10009C00103010E009F41FEF112311F40C947D00C3
:1000AC001D2D133010E009F41FEF112311F40C94E3
:1000BC007D001C2D113010E009F41FEF112311F4F9
:1000CC000C946F0010913C02139510933C020C940D
:1000DC007D001C2D123010E009F41FEF112311F4D8
:1000EC000C947D0010913C021A9510933C021C2D2F
:1000FC00D12E1B2DC12E089518811F9316E11F932D
:10010C00E89440F8EAE2F4E0A4E0B0E03F914F91CB
:10011C0050E00E948269089500E010E020E030E099
:10012C0000932A0410932B0420932C0430932D0459
:10013C00CF93DF9318811A930E948200DF91CF91A5
:10014C0018811F9312E01F93E89440F8E6E1F0E069
:10015C003F914F91A1E0B0E060E050E00E948269D5
:10016C0018811F9313E01F93E89440F8E6E1F0E048
:10017C003F914F91A1E0B0E068E250E00E948269AB
:10018C0018811F9314E01F93E89440F8E6E1F0E027
:10019C003F914F91A1E0B0E064E150E00E94826990
:1001AC0018811F9315E01F93E89440F8E6E1F0E006
:1001BC003F914F91A1E0B0E060E850E00E9482696D
:1001CC0000E010E020E030E000932A0410932B04B0
:1001DC0020932C0430932D04CF93DF9318811A9322
:1001EC000E948200DF91CF91089519E110933302A0
:1001FC005A9808951AE0109333025A98089521974B
:10020C0010E51F9309811A811F93E89440F8098126
:10021C001A81102FE6E1F0E0612FA1E0B0E03F91F0
:10022C004F9150E00E94826910E51F93FE01A1E0FE
:10023C00B0E04F910E945F6918810895CF93DF93CE
:10024C0010E51A930A811B811A930A93FE013396C7
:10025C008F011A930A9310E001E01A930A930E94FB
:10026C007869DF91CF9110E007E00E94126A08953F
:10027C002297CF93DF9310E51A930F8118851A9369
:10028C000A93FE0135968F011A930A9310E004E04D
:10029C001A930A930E947869DF91CF9110E007E0DE
:1002AC000E94126A08952B971BB11F701F931C8517
:1002BC00110F110F110F110F0F91102B1BB913E907
:1002CC0010937A0011E00E94216A13EC10937A00CB
:1002DC0010917A001071103010E009F01FEF11230B
:1002EC0011F40C946E0113E810937A001C85E9E468
:1002FC00F3E01F710027E10FF01F108118831881A4
:10030C00012F11271E830D830D811E81015010407A
:10031C001C830B831C85E9E2F3E01F710027E10FBE
:10032C00F01F1081012F112718870F83109179006E
:10033C00012F11270F931F930B811C81019509F439
:10034C001A9510953F912F91020F131F1A87098749
:10035C0009851A85A0E81A27103809F400301FEF18
:10036C0008F01127112311F40C94C00110E000E0E7
:10037C001A87098709851A850F931F930F81188592
:10038C000F931F930D811E813F912F91020F131F0D
:10039C0098011F910F91A0E81A273A27131709F417
:1003AC00021710E011F008F01FEF1F9309851A8552
:1003BC000F931F930F8118850F931F930B811C8133
:1003CC00019509F41A9510953F912F91020F131F67
:1003DC0098011F910F91A0E81A273A27131709F4D7
:1003EC0002171FEF08F011270F91102B112311F496
:1003FC000C94250212E319831C851F931981E9E8DB
:10040C00F3E0AF91AF71BB27EA0FFB1F10831C8584
:10041C001F931B85E9E6F3E0AF91AF71BB27EA0FA1
:10042C00FB1F10831C851F9313E0E9E4F3E0AF91ED
:10043C00AF71BB27EA0FFB1F10830C942E021C8597
:10044C00E9E8F3E01F710027E10FF01F1081198319
:10045C0009851A850F931F930F8118853F912F9152
:10046C00020F131F112312F40F5F1F4F15950795E1
:10047C001A8709871981103010E009F41FEF112336
:10048C0011F40C945F02188115301FEF08F011273E
:10049C00112311F40C945D021C851F9315E0E9E403
:1004AC00F3E0AF91AF71BB27EA0FFB1F10830C94E5
:1004BC008D0209851A850F931F930F81188598015A
:1004CC001F910F91A0E81A273A27131709F4021766
:1004DC0010E009F01FEF112311F40C948D021C8510
:1004EC001F931B85E9E6F3E0AF91AF71BB27EA0FD1
:1004FC00FB1F10831C851F9309851A85102FE9E2B9
:10050C00F3E0AF91AF71BB27EA0FFB1F1083089587
:10051C002397149A1598169ACF93DF931BE01A938E
:10052C001FEF1A930E945901DF91CF911091A903EB
:10053C0013951093A9031091A903113011F00C9489
:10054C00D2021498159A169AFE013296FA93EA93EF
:10055C0010E0108317E01A931081088101171FEF28
:10056C0008F01127112311F00C94CF02CF93DF93D5
:10057C001D811A931F811A930E945901DF91CF910B
:10058C00E981FA81108113951083112311F00C94D9
:10059C00B30223960C94A603123011F00C9427038B
:1005AC00149A1598169AFE013296FA93EA9318E06B
:1005BC0010831AE01A931081088101171FEF08F0BD
:1005CC001127112311F00C94FE02CF93DF931D81A0
:1005DC001A931F811A930E945901DF91CF91E981DF
:1005EC00FA81108113951083112311F00C94E202FF
:1005FC002396FE013296FA93EA931CE010831FE0D7
:10060C001A931081088101171FEF08F0112711238D
:10061C0011F00C942403CF93DF931D811A931F8147
:10062C001A930E945901DF91CF91E981FA811081CF
:10063C0013951083112311F00C94080323960C943A
:10064C00A603133011F00C945603149A159A1698AD
:10065C00FE013296FA93EA9310E1108317E11A9394
:10066C001081088101171FEF08F01127112311F0D9
:10067C000C945303CF93DF931D811A931F811A930C
:10068C000E945901DF91CF91E981FA811081139574
:10069C001083112311F00C94370323960C94A603AA
:1006AC00143011F00C94A3031FEF009136020023B9
:1006BC0009F01095112311F40C94A10314E110937B
:1006CC003602FE013296FA93EA9310E0108317E19A
:1006DC001A931081088101171FEF08F011271123BD
:1006EC0011F00C94A0031D81E9E8F3E01F710027C1
:1006FC00E10FF01F10811C83FE013496112700813D
:10070C0070E0701718F40A9500831FEF1D811F937A
:10071C001C81E9E8F3E0AF91AF71BB27EA0FFB1F37
:10072C001083E981FA81108113951083112311F044
:10073C000C94700323960C94A60310E01093A90359
:10074C0008951091EE042B981EBD1DB517FFFDCF1B
:10075C001EB51093EF042B9A08951091EB042B986F
:10076C001EBD1DB517FFFDCF1EB51093ED041091E6
:10077C00EA041EBD1DB517FFFDCF1EB51093EC048A
:10078C002B9A08951091E5042B981EBD1DB517FFEB
:10079C00FDCF1EB51093E9041091E4041EBD1DB5E8
:1007AC0017FFFDCF1EB51093E8041091E3041EBD96
:1007BC001DB517FFFDCF1EB51093E7041091E20491
:1007CC001EBD1DB517FFFDCF1EB51093E6042B9A69
:1007DC0008951091E00429981EBD1DB517FFFDCF9B
:1007EC001091DF041EBD1DB517FFFDCF299A08958A
:1007FC001091F00408E0449817FD449A459A110FA3
:10080C0045980A95C1F70895E0E0FFE010814598FE
:10081C0008B117FB04F908B9459A16FB04F908B995
:10082C00459A15FB04F908B9459A14FB04F908B963
:10083C00459A13FB04F908B9459A12FB04F908B957
:10084C00459A11FB04F908B9459A10FB04F908B94B
:10085C00459A4598E395D1F608951091F1041EBD83
:10086C001DB517FFFDCF1EB51093F20408952898FF
:10087C0015E01093F1040E9433040E943304289A6B
:10088C001091F2040895289815E01093F1040E9439
:10089C0033040E9433041091F2041170103010E0F4
:1008AC0009F41FEF112311F40C944F04289A0895A6
:1008BC00289816E01093F1040E943304289A0895A6
:1008CC000E945E04289811E01093F1040E943304F6
:1008DC0010E01093F1040E943304289A0E944904FA
:1008EC0008950E945E04289811E01093F1040E9470
:1008FC0033041FE31093F1040E943304289A0E94DE
:10090C00490408950E945E0428983B812A8119812C
:10091C0008810093F3041093F4042093F5043093AE
:10092C00F60410E21093F1040E9433041091F504C4
:10093C001093F1040E9433041091F4041093F10409
:10094C000E9433041091F3041093F1040E943304B9
:10095C00289A0E9449041091F2041072103010E091
:10096C0009F01FEFE894112309F068941091D60454
:10097C0012F91093D6040091D604112702FD1FEF33
:10098C00109508950E945E04289817EC1093F104BA
:10099C000E943304289A0E9449041091F2041072A8
:1009AC00103010E009F01FEFE894112309F068945F
:1009BC001091D60412F91093D6040091D604112785
:1009CC0002FD1FEF10950895219709811A8101509E
:1009DC001040102F18830E945E0428983E812D81B0
:1009EC001C810B810093F3041093F4042093F50401
:1009FC003093F60412E01093F1040E94330410912A
:100A0C00F5041093F1040E9433041091F404109334
:100A1C00F1040E9433041091F3041093F1040E942A
:100A2C003304E7E0F0E0FA93EA9310E01083EF93DD
:100A3C00FF931A81FF91EF911A931081088101178E
:100A4C001FEF08F01127112311F00C944205172DFC
:100A5C00E0E0FFE01F7F0027E10FF01F10811093F3
:100A6C00F1040E943304E981FA81108113951083FB
:100A7C00112311F00C9424052396289A0E94490402
:100A8C001091F2041072103010E009F01FEFE8948E
:100A9C00112309F068941091D60412F91093D6041E
:100AAC000091D604112702FD1FEF10950895219790
:100ABC000E9449040A811B8101501040102F188399
:100ACC003F812E811D810C810093F3041093F4045B
:100ADC002093F5043093F60428981BE01093F1044E
:100AEC000E9433041091F5041093F1040E94330416
:100AFC001091F4041093F1040E9433041091F30448
:100B0C001093F1040E94330410E01093F1040E943E
:100B1C003304E7E0F0E0FA93EA9310E01083EF93EC
:100B2C00FF931A81FF91EF911A931081088101179D
:100B3C001FEF08F01127112311F00C94CF050E9420
:100B4C0033041C81112311F40C94BA05172D1F9337
:100B5C001091F204E0E0FEE0AF91AF7FBB27EA0F0B
:100B6C00FB1F10830C94C605172D1F931091F204D4
:100B7C00E0E0FFE0AF91AF7FBB27EA0FFB1F1083D4
:100B8C00E981FA81108113951083112311F00C94D3
:100B9C009C052396289A0895EFEDF4E0EF93FF93CC
:100BAC001881FF91EF911193E0EEF4E010E01193B6
:100BBC000E94EF030E94C8030091E6041091E70421
:100BCC002091E8043091E9040895EFEDF4E0EF93FF
:100BDC00FF931881FF91EF911193E0EEF4E010E890
:100BEC0011930E94EF03EAEEF4E0EF93FF93198167
:100BFC00FF91EF911193EBEEF4E010E011930E9452
:100C0C00B3030895EFEDF4E0EF93FF931881FF9198
:100C1C00EF911193E0EEF4E010E811930E94EF03D2
:100C2C0009811A810093EA041093EB040E94B30328
:100C3C000895EFEDF4E0EF93FF931881FF91EF919E
:100C4C001193E0EEF4E010E811930E94EF033C8165
:100C5C002B811A8109810093E2041093E304209301
:100C6C00E4043093E5040E94C8030895CF93DF9306
:100C7C0010EF1A930E94D205DF91CF910093B60426
:100C8C001093B7042093B8043093B904E8E0F0E073
:100C9C000E94696A0093B6041093B7042093B804B9
:100CAC003093B904CF93DF930091B6041091B7043D
:100CBC002091B8043091B9043A932A931A930A9369
:100CCC0010EF1A930E941F06DF91CF91ECE0F0E039
:100CDC000E94696A0093B6041093B7042093B80479
:100CEC003093B904CF93DF930091B6041091B704FD
:100CFC002091B8043091B9043A932A931A930A9329
:100D0C0011EF1A930E941F06DF91CF9108951DE0F9
:100D1C000E94E2691AE00E94E269089513E20E94BF
:100D2C00E26910914602105D0E94E2691AE30E948A
:100D3C00E269CF93DF9318E0412A02EE19E61A9389
:100D4C000A930091AF041091B004CF93DF931A93E0
:100D5C000A9310E01A9310E01A9310E21A93689415
:100D6C0043F8689445F8E89454F855F80E943D6EA1
:100D7C00DF91CF91DF91CF911DE30E94E26908953D
:100D8C00CF93DF9318E0412A02EE19E61A930A93E7
:100D9C00E8E6F4E00E94EC6BDF91CF910E948D06A7
:100DAC00089522971091BD04112311F40C94EC06B4
:100DBC0016E00E94E2691A810E94E26910E00E942A
:100DCC00E26910E00E94E2690C94300710E00FEF2A
:100DDC000093AF041093B0040E949406CF93DF935A
:100DEC0018E0412A02EE19E61A930A931C81CF935C
:100DFC00DF931A9310E01A9310E01A9310E21A93EF
:100E0C00689443F80E94046CDF91CF91DF91CF91ED
:100E1C0010E20E94E269CF93DF9318E0412A02EEC0
:100E2C0019E61A930A93EEECF4EEEF93FF931C8100
:100E3C00012F1127ADE0B0E0E89445F80E94276F30
:100E4C00FF91EF91E00FF11F0E94E36BDF91CF91C7
:100E5C000E948D0608950E949406CF93DF9318E0AC
:100E6C00412A02EE19E61A930A93EFE3F4E00E948A
:100E7C00EC6BDF91CF910E948D0608951091BD040B
:100E8C00112311F40C945F0716E00E94E26910E044
:100E9C000E94E2690091B3041091B4040E94E269CB
:100EAC000091B3041091B404102F0E94E2690C94C9
:100EBC009607EFE3F4E0EF93FF933196FA93EA93FE
:100ECC0018E21A9317EF41221FEB41220091B6044E
:100EDC001091B7042091B8043091B904CF93DF93EB
:100EEC003A932A931A930A9310E01A9310E01A93E8
:100EFC0010E21A93689445F8E89454F855F842F8BF
:100F0C000E94446CDF91CF9118E21F9318810F91CE
:100F1C00011B102FFF91EF91108323960E94310734
:100F2C0008950091B3041091B40417FF03C03FEF70
:100F3C002FEF02C0332722270093B6041093B70477
:100F4C002093B8043093B9040E944407089510917B
:100F5C00BC04012F11270093B3041093B4040E9416
:100F6C00970708950E949406EFE3F4E0EF93FF9344
:100F7C003196FA93EA9318E21A9317EF41221FEB7A
:100F8C0041220091B6041091B7042091B80430911D
:100F9C00B904CF93DF933A932A931A930A9310E0F0
:100FAC001A9310E01A9310E21A93689445F8E89497
:100FBC0054F855F842F80E94446CDF91CF9118E236
:100FCC001F9318810F91011B102FFF91EF9110832C
:100FDC002396CF93DF9318E0412A02EE19E61A9379
:100FEC000A93EFE3F4E00E94EC6BDF91CF9110E2F7
:100FFC000E94E2691BE50E94E26914E20E94E26928
:10100C00EFE3F4E0EF93FF933196FA93EA9318E24F
:10101C001A9317EF41221FEB41220091B604109155
:10102C00B7042091B8043091B904B801C901492F13
:10103C000E94AC6E482F0E94AC6E472F0E94AC6E83
:10104C00462F0E94AC6E18E21F9318810F91011B62
:10105C00102FFF91EF9110832396CF93DF9318E01D
:10106C00412A02EE19E61A930A93EFE3F4E00E9488
:10107C00EC6BDF91CF911DE50E94E2690E948D0619
:10108C0008950E949406EFE3F4E0EF93FF933196FA
:10109C00FA93EA9318E21A9317EF41221FEB4122BD
:1010AC000091B6041091B7042091B8043091B904A2
:1010BC00CF93DF933A932A931A930A9310E01A93DF
:1010CC0010E01A9310E21A93689445F8E89454F8D7
:1010DC0055F842F80E94446CDF91CF9118E21F93AF
:1010EC0018810F91011B102FFF91EF911083239604
:1010FC00CF93DF9318E0412A02EE19E61A930A9374
:10110C00EFE3F4E00E94EC6BDF91CF91CF93DF9390
:10111C0018E0412A02EE19E61A930A93EAECF0EE73
:10112C000E94E36BDF91CF91CF93DF9318E0412ABC
:10113C0002EE19E61A930A93E8E8F4E00E94EC6BCD
:10114C00DF91CF911DE50E94E2690E948D06089502
:10115C000E943D041F7E103010E009F01FEF112398
:10116C0011F40C94D4080E949406CF93DF9318E0EA
:10117C00412A02EE19E61A930A93EDECF0EE0E9466
:10118C00E36B1DE00E94B96E1AE00E94B96EDF910C
:10119C00CF911FEF0C94D7080C94D70810E00C9447
:1011AC00D70808952497CF93DF9313E01A930E94E6
:1011BC00D205DF91CF910091E6041091E7042091C4
:1011CC00E8043091E9043B832A8319830883CF9385
:1011DC00DF9318E0412A02EE19E61A930A93E5EE22
:1011EC00F0EE0E94E36BDF91CF91CF93DF9318E089
:1011FC00412A02EE19E61A930A933D812C811B8138
:10120C000A81689443F8B801C901492F0E94AC6E59
:10121C00482F0E94AC6E472F0E94AC6E462F0E9446
:10122C00AC6EDF91CF91CF93DF9318E0412A02EEA1
:10123C0019E61A930A93E2ECF0EE0E94E36BDF914D
:10124C00CF910E948D06089528971AE314B91FE9CF
:10125C0015B910E717B91FEC18B91091D6041B7FFC
:10126C001093D604469815E00E94216A469A15E020
:10127C000E94216A10E317B916E206EB0093AF0443
:10128C001093B00411E004EF0E94126A1BEB14B926
:10129C001FE915B90E949406112737991FEF1123E6
:1012AC0011F40C946909CF93DF9318E0412A02EEF4
:1012BC0019E61A930A93E2EFF0EE0E94E36BDF91CA
:1012CC00CF910C947C09CF93DF9318E0412A02EE66
:1012DC0019E61A930A93E2E0F1EE0E94E36BDF91B8
:1012EC00CF911091D60414601093D6040E943C0642
:1012FC00CF93DF930E94D808DF91CF910895E0EE51
:10130C00F4E010E81193EFEDF4E0EF93FF931091FC
:10131C00F7041F5FFF91EF9111930E94EF0310915F
:10132C00F8041093EE040E94A703EFEDF4E0109183
:10133C00F70411930E94EF030895E0EEF4E010E837
:10134C001193EFEDF4E0EF93FF931091F7041F5F0F
:10135C00FF91EF9111930E94EF031091F8041093F9
:10136C00EE040E94A70308951091CE04112311F4EA
:10137C000C94EE0910E00E949768CF93DF9318E06D
:10138C00412A09E518E61A930A93E2E2F1EE0E946B
:10139C00E36BDF91CF91CF93DF9310E01A9310E0C2
:1013AC001A9311E01A930E947F68DF91CF91CF932B
:1013BC00DF9318E0412A09E518E61A930A93EBE249
:1013CC00F1EE0E94E36BDF91CF9110E00E94A068D8
:1013DC0008951091CE04112311F40C944E0A112788
:1013EC00062D017009F41095112311F40C944C0A7C
:1013FC00CF93DF9310E01A9310E01A9311E01A9335
:10140C000E947F68DF91CF91CF93DF9318E0412A40
:10141C0009E518E61A930A93E4E3F1EE0E94E36BF4
:10142C00DF91CF91CF93DF9318E0412A09E518E6BD
:10143C001A930A930091DA041091DB042091DC04D6
:10144C003091DD04CF93DF933A932A931A930A9346
:10145C0018E01A9300E00A9310E21A93689443F888
:10146C00689445F8E89454F855F842F80E94446C96
:10147C00DF91CF91DF91CF9110E00E94A06810E036
:10148C0002E3E4E3F2E0B1E00E94F96F0C94520A3B
:10149C0010E002E00E94126A08951091CE0411230C
:1014AC0011F40C94730ACF93DF9310E01A9310E0AD
:1014BC001A9311E01A930E947F68DF91CF91CF931A
:1014CC00DF9318E0412A09E518E61A930A93EDE335
:1014DC00F1EE0E94E36BDF91CF9108951091CE0451
:1014EC00112311F40C94940ACF93DF9310E01A9308
:1014FC0010E01A9311E01A930E947F68DF91CF914C
:10150C00CF93DF9318E0412A09E518E61A930A9362
:10151C00E9E4F1EE0E94E36BDF91CF9108956597BA
:10152C000E949406CF93DF9318E0412A02EE19E64D
:10153C001A930A93E5E5F1EE0E94E36B1DE00E941D
:10154C00B96E1AE00E94B96EDF91CF9110E01A8744
:10155C0010E0188710E01C8B10E0198B1FEF188B14
:10156C0000E010E020E030E00093DA041093DB049C
:10157C002093DC043093DD0410E000E01C870B8723
:10158C000E94BA0910E000E01983088310E000E023
:10159C001B830A83388D2F891E890D893F832E83E7
:1015AC001D830C831A851095112311F40C94470B91
:1015BC0010E000E01C870B8711275A991FEF10953C
:1015CC00E894112309F068941BB112F91BB9CF935D
:1015DC00DF93FE017496FA93EA9314E61A930E9431
:1015EC00AB69DF91CF911A871A85112311F40C94F2
:1015FC00180B1C89113010E009F41FEF1F931C8984
:10160C00143010E009F41FEF0F91102B112311F47B
:10161C000C94160B10E000E01C870B870C94470B06
:10162C000C94220B15E10E94E269FE013B96A0810D
:10163C00B1811196A083B1831C89113010E009F49B
:10164C001FEF1F931C89143010E009F41FEF0F914A
:10165C00102B1F931C89183110E009F41FEF0F9108
:10166C00102B1F930B851C85103009F4043110E0EE
:10167C0011F008F01FEF0F91102B112311F40C94A3
:10168C00ED0A18851095112311F40C94510B0E943E
:10169C00EF091FEF18871C89113010E009F41FEFB8
:1016AC00112311F40C94850CCF93DF93FE017396E8
:1016BC00FA93EA9314E61A930E94AB69DF91CF91E7
:1016CC0019871985112311F40C947F0CCF93DF9398
:1016DC00FE017296FA93EA931AE01A930E94AB6990
:1016EC00DF91CF9119871B890FEF011B102F1F93CF
:1016FC001A890F91011710E009F41FEF112311F44F
:10170C000C947D0C10E0198BE8E0F0E0FA93EA936E
:10171C0010E010831FE71A931081088101171FEF47
:10172C0008F01127112311F00C94C30BCF93DF9306
:10173C00EAE0F0E0FA93EA931AE01A930E94AB699C
:10174C00DF91CF911C871C891F931A2D0F91100FBD
:10175C001C8B182D1F931A2DE0E0FFE0AF91AF7F8B
:10176C00BB27EA0FFB1F1083E981FA8110811395C7
:10177C001083112311F00C94930B2396CF93DF93CA
:10178C00FE017096FA93EA931AE01A930E94AB69E1
:10179C00DF91CF911987CF93DF933F812E811D81EC
:1017AC000C813A932A931A930A9310E000E81A9347
:1017BC000A930E94EA04DF91CF911095112311F442
:1017CC000C94EF0BFE013296A081B1811196A0838F
:1017DC00B183CF93DF933F812E811D810C813A938E
:1017EC002A931A930A9310E000E81A930A931FEFB6
:1017FC001A930E945D05DF91CF91E8E0F0E0FA9337
:10180C00EA9310E010831FE71A93108108810117E7
:10181C001FEF08F01127112311F00C943F0C182D19
:10182C00E0E0FEE01F7F0027E10FF01F10811F9307
:10183C00182DE0E0FFE01F7F0027E10FF01F108163
:10184C000F91011710E009F01FEF112311F40C9404
:10185C00360CFE013396A081B1811196A083B18321
:10186C00E981FA81108113951083112311F00C94E6
:10187C000C0C239619891F9318890F91011710E0EE
:10188C0009F41FEF112311F40C94730C16E00E9451
:10189C00E2693F812E811D810C8100581F4F2F4F13
:1018AC003F4F3F832E831D830C830091DA041091EC
:1018BC00DB042091DC043091DD0400581F4F2F4FC6
:1018CC003F4F0093DA041093DB042093DC04309335
:1018DC00DD040E94EF090C947D0CFE013B96A08167
:1018EC00B1811196A083B18315E10E94E2690C9439
:1018FC00830C10E00FEF1C870B8710E01C8B10E0A3
:10190C001A871C89143010E009F41FEF1F931C89EF
:10191C00183110E009F41FEF0F91102B1F930B855A
:10192C001C85103009F4043110E011F008F01FEFA1
:10193C000F91102B112311F40C94D80A16E00E946D
:10194C00E26918891F9319890F91011710E009F0AA
:10195C001FEF112311F40C94D90C0FEF1FEF2FEF85
:10196C003FEF0093B6041093B7042093B804309360
:10197C00B9040E949406CF93DF9318E0412A02EE3B
:10198C0019E61A930A93E8E6F1EE0E94E36B1DE068
:10199C000E94B96E1AE00E94B96EDF91CF910E943D
:1019AC00530A0C94F30C0091DA041091DB0420918F
:1019BC00DC043091DD040093B6041093B70420933B
:1019CC00B8043093B904E4E3F2E00EEF0E94EF6F39
:1019DC000E94EF0910E010933D020881198110302C
:1019EC0009F4003010E009F01FEF112311F40C94EE
:1019FC00550D0FEF1FEF2FEF3FEF0093B604109331
:101A0C00B7042093B8043093B9040E949406CF9382
:101A1C00DF9318E0412A02EE19E61A930A93E3E8E1
:101A2C00F1EE0E94E36BDF91CF91CF93DF9318E03F
:101A3C00412A02EE19E61A930A930A811B81CF936D
:101A4C00DF931A930A9310E01A9310E01A9310E2A2
:101A5C001A93689443F8E89445F8E89454F855F8C8
:101A6C000E943D6EDF91CF91DF91CF91CF93DF93A9
:101A7C0018E0412A02EE19E61A930A93E9E9F1EE0D
:101A8C000E94E36B1DE00E94B96E1AE00E94B96ED1
:101A9C00DF91CF910E94740A10E010933D020A81ED
:101AAC001B81103009F4003010E009F01FEF1123F6
:101ABC0011F40C94B70D0FEF1FEF2FEF3FEF0093C6
:101ACC00B6041093B7042093B8043093B9040E9461
:101ADC009406CF93DF9318E0412A02EE19E61A938D
:101AEC000A93EAEAF1EE0E94E36BDF91CF91CF9378
:101AFC00DF9318E0412A02EE19E61A930A930C813F
:101B0C001D81CF93DF931A930A9310E01A9310E080
:101B1C001A9310E21A93689443F8E89445F8E89401
:101B2C0054F855F80E943D6EDF91CF91DF91CF9123
:101B3C00CF93DF9318E0412A02EE19E61A930A9329
:101B4C00E9E9F1EE0E94E36B1DE00E94B96E1AE028
:101B5C000E94B96EDF91CF910E94740A10E010932D
:101B6C003D0208952297CF93DF9312E01A930E94BF
:101B7C00D205DF91CF9111271A991FEF112311F480
:101B8C000C94B90D1091E8041A3A10E009F41FEF07
:101B9C00112311F40C94B00E1091E604103511F0D1
:101BAC000C94E80DCF93DF9318E0412A02EE19E66E
:101BBC001A930A93EFEBF1EE0E94E36BDF91CF9156
:101BCC000C947F0E113511F00C94FC0DCF93DF9318
:101BDC0018E0412A02EE19E61A930A93E0EDF1EEB1
:101BEC000E94E36BDF91CF910C947F0E123511F0B4
:101BFC000C94100ECF93DF9318E0412A02EE19E6F5
:101C0C001A930A93EEEDF1EE0E94E36BDF91CF9104
:101C1C000C947F0E133511F00C94240ECF93DF939C
:101C2C0018E0412A02EE19E61A930A93E8EEF1EE57
:101C3C000E94E36BDF91CF910C947F0E143511F061
:101C4C000C94380ECF93DF9318E0412A02EE19E67C
:101C5C001A930A93E6EFF1EE0E94E36BDF91CF91BA
:101C6C000C947F0E183511F00C944C0ECF93DF931F
:101C7C0018E0412A02EE19E61A930A93E4E0F2EE18
:101C8C000E94E36BDF91CF910C947F0E1F3511F006
:101C9C000C94600ECF93DF9318E0412A02EE19E604
:101CAC001A930A93E1E1F2EE0E94E36BDF91CF917C
:101CBC000C947F0ECF93DF9318E0412A02EE19E6C5
:101CCC001A930A93EAE1F2EE0E94E36BDF91CF9153
:101CDC00CF93DF9318E0412A02EE19E61A930A9388
:101CEC001091E604689443F8412F0E94AC6EDF918A
:101CFC00CF91CF93DF9318E0412A02EE19E61A93A5
:101D0C000A93E5E2F2EE0E94E36BDF91CF91CF9361
:101D1C00DF9318E0412A02EE19E61A930A93109108
:101D2C00E704689443F8412F0E94AC6EDF91CF9189
:101D3C00CF93DF9318E0412A02EE19E61A930A9327
:101D4C00E2ECF0EE0E94E36BDF91CF910E948D06E6
:101D5C000C94C00ECF93DF9318E0412A02EE19E6E3
:101D6C001A930A93E1E3F2EE0E94E36BDF91CF91B9
:101D7C000E948D06089525970E9494061E81145585
:101D8C001093F8040E948509CF93DF9318E0412A41
:101D9C0002EE19E61A930A931091F804CF93DF938D
:101DAC001A9310E01A9310E01A9310E21A936894A5
:101DBC0043F80E94046CDF91CF91DF91CF91CF93C8
:101DCC00DF9318E0412A02EE19E61A930A93E7E42E
:101DDC00F2EE0E94E36BDF91CF911E81012F112750
:101DEC003327222740E050E160E070E0689445F82A
:101DFC000E94836F3C832B831A83098300E010E0DD
:101E0C0020E030E00093DA041093DB042093DC0430
:101E1C003093DD04E8E0F0E0FA93EA9310E01083ED
:101E2C001FE01A931081088101171FEF08F011278A
:101E3C00112311F00C94EB0FCF93DF933F812E8184
:101E4C001D810C813A932A931A930A9311E000E0B6
:101E5C001A930A9310E01A930E945D05DF91CF91BB
:101E6C001885112311F40C94720FEAE0F0E0FA9348
:101E7C00EA9310E010831FEF1A9310810881011769
:101E8C001FEF08F01127112311F00C946F0F1A2D6E
:101E9C00E0E0FFE01F7F0027E10FF01F10811E83A1
:101EAC00CF93DF9318E0412A02EE19E61A930A93B6
:101EBC001885689443F8412F0E94AC6EDF91CF9146
:101ECC00E981FA81108113951083112311F00C9480
:101EDC00440F23960C94890F182D1170113010E0BB
:101EEC0009F41FEF112311F40C94890FCF93DF9396
:101EFC0018E0412A02EE19E61A930A931EE20E9498
:101F0C00B96EDF91CF91EAE0F0E0FA93EA9310E03A
:101F1C0010831FE31A931081088101171FEF08F03B
:101F2C001127112311F00C94C10FE0E0FFE0EF93A7
:101F3C00FF931A2D012F1127000F111F000F111FD6
:101F4C00FF91EF91E00FF11F0191119121913191CE
:101F5C000093E2041093E3042093E4043093E5042B
:101F6C000E94C803E981FA81108113951083112313
:101F7C0011F00C94920F23963F812E811D810C81C0
:101F8C0000501F4F2F4F3F4F3F832E831D830C83D9
:101F9C000091DA041091DB042091DC043091DD0413
:101FAC0000501F4F2F4F3F4F0093DA041093DB0468
:101FBC002093DC043093DD04E981FA8110811395C0
:101FCC001083112311F00C94190F23960E94A3096E
:101FDC0011E004EFE4E3F2E0B1E00E94F96F00914C
:101FEC00DA041091DB042091DC043091DD040093C1
:101FFC00B6041093B7042093B8043093B9041FEFC0
:10200C001093C60310E002E30E94126ACF93DF9391
:10201C000E94B80DDF91CF9108952D970E949406E0
:10202C00CF93DF9318E0412A02EE19E61A930A9334
:10203C001F85CF93DF931A9310E01A9310E01A9335
:10204C0010E21A93689443F80E94046CDF91CF91CC
:10205C00DF91CF91CF93DF9318E0412A02EE19E67E
:10206C001A930A93E7E5F2EE0E94E36BDF91CF91AE
:10207C00CF93DF9310E01A9318E41A930E94EB05A8
:10208C00DF91CF9110E004E60E94126A1D851C5A64
:10209C00012F11273327222740E050E160E070E048
:1020AC00689445F80E94836F3C872B871A870987B1
:1020BC0010E000E018870F8310E000E0198308831C
:1020CC00E8E0F0E0FA93EA9310E010831FE01A9333
:1020DC001081088101171FEF08F01127112311F04F
:1020EC000C946A11CF93DF933F852E851D850C854B
:1020FC003A932A931A930A9311E000E01A930A93E5
:10210C0010E01A930E945D05DF91CF9110E000E082
:10211C001E830D8310E000E01C830B830A851B8556
:10212C0019870887EAE0F0E0FA93EA9310E010834D
:10213C0017E01A931081088101171FEF08F011277F
:10214C00112311F00C94DF10CF93DF9310E51A9349
:10215C000E851F851A930A931FE000E00F931F93BF
:10216C000B851C853F912F91020F131F1A930A9315
:10217C0010E000E21A930A930E947869DF91CF91E4
:10218C0010E00AE00E94126A08851985005E1F4F54
:10219C00198708870D851E85005E1F4F1E870D87CA
:1021AC00E981FA81108113951083112311F00C949D
:1021BC00A110239610E51F93088519851F93E894A9
:1021CC0040F808851985102FE6E1F0E0612FA1E0B9
:1021DC00B0E03F914F9150E00E948269CF93DF9322
:1021EC0010E51A931EE000E01A930A9311E000E048
:1021FC001A930A930E945A69DF91CF91EAE0F0E0BA
:10220C00FA93EA9310E010831FEF1A931081088160
:10221C0001171FEF08F01127112311F00C94401136
:10222C001A2DE0E0FFE01F7F0027E10FF01F108167
:10223C001F931A2DE0E0FEE01F7F0027E10FF01F37
:10224C0010810F91011710E009F01FEF112311F409
:10225C000C943711FE013696A081B1811196A083A2
:10226C00B183E981FA81108113951083112311F048
:10227C000C940D1123960B811C81103009F4003045
:10228C0010E009F41FEF112311F40C9452111EE20B
:10229C000E94E2690C94551113E20E94E2693F8599
:1022AC002E851D850C8500501F4F2F4F3F4F3F87AC
:1022BC002E871D870C87E981FA8110811395108375
:1022CC00112311F00C946F102396CF93DF9318E029
:1022DC00412A02EE19E61A930A931DE50E94B96E83
:1022EC001DE00E94B96E1AE00E94B96EDF91CF9189
:1022FC0011E004EFE4E3F2E0B1E00E94F96F009129
:10230C00DA041091DB042091DC043091DD0400939D
:10231C00B6041093B7042093B8043093B9041FEF9C
:10232C001093C60308811981103009F4003010E0B5
:10233C0009F01FEF112311F40C94E9110E9494067B
:10234C00CF93DF9318E0412A02EE19E61A930A9311
:10235C00E6E7F2EE0E94E36BDF91CF91CF93DF9330
:10236C0018E0412A02EE19E61A930A930A811B819E
:10237C00CF93DF931A930A9310E01A9310E01A93F9
:10238C0010E21A93689443F8E89445F8E89454F8EA
:10239C0055F80E943D6EDF91CF91DF91CF91CF9395
:1023AC00DF9318E0412A02EE19E61A930A93E9E941
:1023BC00F1EE0E94E36B1DE00E94B96E1AE00E94E0
:1023CC00B96EDF91CF910895219710E01883009199
:1023DC00AC03112704FD1FEF112311F40C94FA1117
:1023EC00FE011081139510830091AC03112705FD9C
:1023FC001FEF112311F40C940B12FE011081139595
:10240C001083FE01108113951083CF93DF931881F5
:10241C001A931DE01A930E94EB05DF91CF91109156
:10242C005102103011F00C941D120C942712123022
:10243C0011F00C9423120C942712143011F00C94FC
:10244C003D12CF93DF9312ED1A9315E01A930E946D
:10245C00EB05DF91CF91CF93DF9310E01A9316E049
:10246C001A930E94EB05DF91CF910C9465121130F9
:10247C0011F00C9443120C944D12133011F00C9477
:10248C0049120C944D12153011F00C946512CF9327
:10249C00DF93109171021A9315E01A930E94EB05C9
:1024AC00DF91CF91CF93DF93109170021A9316E0C6
:1024BC001A930E94EB05DF91CF910C946512109149
:1024CC005102103011F00C946D120C9471121130E9
:1024DC0011F00C948912CF93DF9310916A021A9326
:1024EC0018E01A930E94EB05DF91CF91CF93DF9305
:1024FC0010916D021A9314E01A930E94EB05DF9170
:10250C00CF910C94CD12123011F00C948F120C94BC
:10251C009312133011F00C94AB12CF93DF931091F4
:10252C006B021A9318E01A930E94EB05DF91CF917E
:10253C00CF93DF9310916E021A9314E01A930E94BA
:10254C00EB05DF91CF910C94CD12143011F00C945B
:10255C00B1120C94B512153011F00C94CD12CF931E
:10256C00DF9310916C021A9318E01A930E94EB05FA
:10257C00DF91CF91CF93DF9310916F021A9314E0F8
:10258C001A930E94EB05DF91CF910C94CD12089514
:10259C0023970091AC03112700FD1FEF1F930091AF
:1025AC00AC03112701FD1FEF10950F9110231F9302
:1025BC00109183020F911023112311F40C94191311
:1025CC00E8E0F0E0FA93EA9310E0108317E01A9336
:1025DC001081088101171FEF08F01127112311F04A
:1025EC000C941613182DE8E4F2E01F770027E10F86
:1025FC00F01F108116951B83CF93DF931B811A93C9
:10260C00182D105F1A930E94EB05DF91CF91E98191
:10261C00FA81108113951083112311F00C94EF1291
:10262C0023960C944913E8E0F0E0FA93EA9310E057
:10263C00108317E01A931081088101171FEF08F01F
:10264C001127112311F00C944813182DE8E4F2E033
:10265C001F770027E10FF01F10811B83CF93DF93AF
:10266C001B811A93182D105F1A930E94EB05DF91B2
:10267C00CF91E981FA81108113951083112311F008
:10268C000C94221323960091AC03112700FD1FEF2D
:10269C001F931091C0031F3010E009F01FEF0F9132
:1026AC001023112311F40C94F813109183021123AD
:1026BC0011F40C946D13CF93DF9310E01A9318E17F
:1026CC001A930E94EB05DF91CF910C949513009116
:1026DC00AC03112701FD1FEF112311F40C9481138E
:1026EC0018E0E8E4F2E01F770027E10FF01F1081FB
:1026FC0018830C948B1318E0E8E4F2E01F770027A2
:10270C00E10FF01F108116951883CF93DF9318817A
:10271C001A9318E11A930E94EB05DF91CF91009167
:10272C00AC03112703FD1FEF112311F40C94AA1312
:10273C00CF93DF9311E01A931BE11A930E94EB05E0
:10274C00DF91CF910C94B413CF93DF9310E01A93D5
:10275C001BE11A930E94EB05DF91CF910091AC0322
:10276C00112701FD1FEF112311F40C94CA13CF9301
:10277C00DF93109175021A931AE11A930E94EB05DC
:10278C00DF91CF910C94D513CF93DF9310917402FA
:10279C001A931AE11A930E94EB05DF91CF910091E5
:1027AC00AC03112702FD1FEF112311F40C94EB1352
:1027BC00CF93DF93109177021A9319E11A930E9429
:1027CC00EB05DF91CF910C94F613CF93DF9310911F
:1027DC0076021A9319E11A930E94EB05DF91CF91BF
:1027EC000C94151418E0E8E4F2E01F770027E10FD1
:1027FC00F01F10811883CF93DF9318811A9318E17F
:10280C001A930E94EB05DF91CF91CF93DF9310E0E9
:10281C001A931AE11A930E94EB05DF91CF91089558
:10282C002197E8E0F0E0FA93EA9310E1108318E1C5
:10283C001A931081088101171FEF08F0112711233B
:10284C0011F00C944614182DE8E4F2E01F770027E1
:10285C00E10FF01F10811B83CF93DF931B811A9321
:10286C00182D105F1A930E94EB05DF91CF91E9812F
:10287C00FA81108113951083112311F00C942014FC
:10288C00239608952197CF93DF93109161021A93A9
:10289C0019E21A930E94EB05DF91CF91CF93DF934E
:1028AC00109162021A931AE21A930E94EB05DF91BF
:1028BC00CF91CF93DF93109163021A931BE21A937B
:1028CC000E94EB05DF91CF91109164021695E8EF11
:1028DC00FAEE1F730027E10FF01F1491188310916B
:1028EC00610210321FEF08F011271F931091630241
:1028FC0010321FEF08F011270F911023112311F440
:10290C000C948C14FE0110811A951083CF93DF93D5
:10291C0018811A931CE21A930E94EB05DF91CF9158
:10292C0010917C0217701F931091650210730F9118
:10293C00102B1883CF93DF9318811A931BE01A93F3
:10294C000E94EB05DF91CF91CF93DF931091B402EE
:10295C001A931CEC1A930E94EB05DF91CF91CF9345
:10296C00DF93109168021A931EE01A930E94EB05F4
:10297C00DF91CF91089522971091860213701983DD
:10298C00E8E0F0E0FA93EA9310E0108313E01A9376
:10299C001081088101171FEF08F01127112311F086
:1029AC000C940815182D1F931C81110F110F0F91EA
:1029BC00100FE8EBF2E01F700027E10FF01F108101
:1029CC001B83182D133010E009F41FEF112311F4A1
:1029DC000C94F4141B8108E010271B83CF93DF9316
:1029EC001B811A93182D1B5B1A930E94EB05DF9128
:1029FC00CF91E981FA81108113951083112311F085
:102A0C000C94CF14239610E002E30E94126A0895EE
:102A1C002597CF93DF931091840211701A9317E0CE
:102A2C001A930E94EB05DF91CF91109172021370F3
:102A3C001F9310917302110F110F110F110F0F91A2
:102A4C00102B1A83CF93DF931A811A9319E01A93E0
:102A5C000E94EB05DF91CF91CF93DF93109185020C
:102A6C001A931AE01A930E94EB05DF91CF91109103
:102A7C0078021F9310917A02117025E00E94F86E73
:102A8C000F91102B1F931091790226E00E94F86E83
:102A9C000F91102B1A83CF93DF931A811A931CE09A
:102AAC001A930E94EB05DF91CF91CF93DF93109196
:102ABC0068021A931EE01A930E94EB05DF91CF91E6
:102ACC0008952797CF93DF931FEF1A930E942B3013
:102ADC00DF91CF91E8E0F0E0FA93EA9310E01083F5
:102AEC001FE11A931081088101171FEF08F01127BD
:102AFC00112311F00C94A515182DE8ECF2E01F71C0
:102B0C000027110F001FE10FF01F008111811887A2
:102B1C000F83CF93DF930F8118851A930A93182D87
:102B2C0010561A930E940806DF91CF91E981FA8121
:102B3C00108113951083112311F00C9479152396A1
:102B4C00E8E0F0E0FA93EA9310E010831FE11A93A7
:102B5C001081088101171FEF08F01127112311F0C4
:102B6C000C94D515182DE8E8F2E01F710027E10F41
:102B7C00F01F10811987CF93DF9319851A93182DA5
:102B8C0010541A930E94EB05DF91CF91E981FA81E1
:102B9C00108113951083112311F00C94AF1523960B
:102BAC00CF93DF9310E01A9317EF1A930E94EB0563
:102BBC00DF91CF91FE013496FA93EA9310E000E096
:102BCC001183008311E00FEF1A930A93A081B18156
:102BDC0028813981B31709F4A21710E011F008F01D
:102BEC001FEF112311F00C943116EFEDF2E0EF937F
:102BFC00FF9308851985000F111FFF91EF91E00FCE
:102C0C00F11F0E94646A17FF03C03FEF2FEF02C051
:102C1C00332722273F832E831D830C83CF93DF938F
:102C2C003F812E811D810C813A932A931A930A932A
:102C3C0016EF1A930E941F06DF91CF91EA81FB8158
:102C4C00A081B1811196A083B183BB2311F4AA2377
:102C5C0011F00C94EE152496CF93DF931091910202
:102C6C001A9319E41A930E94EB05DF91CF91CF933D
:102C7C00DF9310E01A930E942B30DF91CF910895CF
:102C8C00239710E01883E8E0F0E0FA93EA9310E061
:102C9C00108318E01A931081088101171FEF08F0B8
:102CAC001127112311F00C94A2161E811F93182DBD
:102CBC00E9E6F3E01F700027E10FF01F10810F9180
:102CCC00102B112311F40C949916182DE9E2F3E052
:102CDC001F700027E10FF01F108116951D83182D12
:102CEC001F931D81E8E4F2E0AF91AF77BB27EA0FA9
:102CFC00FB1F1083182D1F9310E0E9E6F3E0AF9152
:102D0C00AF70BB27EA0FFB1F10831DE0109340022E
:102D1C001FEF1B831E811095112311F40C9499162F
:102D2C001FEF10934102E981FA81108113951083F2
:102D3C00112311F00C94521623961881112311F4BF
:102D4C000C94AE16CF93DF930E94CE12DF91CF91ED
:102D5C000895229710E01883E8E0F0E0FA93EA93E4
:102D6C0010E0108318E01A931081088101171FEFEF
:102D7C0008F01127112311F00C940C171D811F93CF
:102D8C00182DE5E7F3E01F700027E10FF01F10810D
:102D9C000F91102B112311F40C940317182DE5E34C
:102DAC00F3E01F700027E10FF01F108116951C83B4
:102DBC00182D105F1F931C81E8E4F2E0AF91AF7700
:102DCC00BB27EA0FFB1F1083182D1F9310E0E5E7BC
:102DDC00F3E0AF91AF70BB27EA0FFB1F10831EE02F
:102DEC00109340021FEF1B831D811095112311F4CA
:102DFC000C9403171FEF10934202E981FA811081A2
:102E0C0013951083112311F00C94BB162396188183
:102E1C00112311F40C941817CF93DF930E941614FE
:102E2C00DF91CF91089522971A811F9310917E0301
:102E3C000F91102B112311F40C943A1710913E039F
:102E4C00169510936102109161021695109362020F
:102E5C0010E010937E03CF93DF930E944814DF9110
:102E6C00CF9119E1109340021A811F9310917F03A7
:102E7C000F91102B112311F40C94551710913F0343
:102E8C0016951093630210E010937F03CF93DF939A
:102E9C000E944814DF91CF911BE1109340021A81DC
:102EAC001F93109180030F91102B112311F40C948C
:102EBC0070171091400316951093640210E0109354
:102ECC008003CF93DF930E944814DF91CF911CE1D4
:102EDC001093400208951091B603112311F40C9431
:102EEC0084171091B7031093510210E01093B6039E
:102EFC001AE0109340021FEF10937203CF93DF93ED
:102F0C000E94EA11DF91CF91089523971091B3039A
:102F1C001F931091B4030F91102B103010E009F493
:102F2C001FEF112311F40C949D170C94921800911F
:102F3C00B303112700FD1FEF112311F40C94AF17ED
:102F4C00CF93DF930E94CE12DF91CF911CE01093B0
:102F5C0040020091B303112701FD1FEF112311F45F
:102F6C000C94C117CF93DF930E94CE12DF91CF91B7
:102F7C001CE0109340020091B303112702FD1FEFD8
:102F8C00112311F40C94D317CF93DF930E94CE121C
:102F9C00DF91CF911CE0109340020091B3031127F5
:102FAC0003FD1FEF112311F40C94E517CF93DF935E
:102FBC000E94CE12DF91CF911CE010934002009141
:102FCC00B303112704FD1FEF112311F40C94FA170E
:102FDC00CF93DF930E94EA11DF91CF911FEF1093F3
:102FEC0072031BE0109340020091B303112705FDFF
:102FFC001FEF112311F40C940F18CF93DF930E9441
:10300C00EA11DF91CF911FEF109372031FE0109321
:10301C0040020091B403112704FD1FEF1F93009190
:10302C00B403112705FD1FEF0F91102B1F93109167
:10303C00C7030F91102B112311F40C94501810E0AE
:10304C00109386020091B103112704FD1FEF112389
:10305C0011F40C9436181091860213951093860275
:10306C000091B103112705FD1FEF112311F40C94EE
:10307C004418109186021E5F10938602CF93DF9343
:10308C000E94C114DF91CF9110E01093C70310E29E
:10309C00109340020091B403112706FD1FEF11237A
:1030AC0011F40C9473180091B103112706FD1FEF56
:1030BC00112311F40C94671811E01093B4020C94C2
:1030CC006A1810E01093B402CF93DF930E94481457
:1030DC00DF91CF911DE1109340020091B4031127B1
:1030EC0007FD1FEF112311F40C948C180091B10300
:1030FC00112707FD1FEF10936502CF93DF930E94FA
:10310C004814DF91CF911EE11093400210E0109310
:10311C00B30310E01093B40308952197E8E0F0E0B6
:10312C00FA93EA9310E0108319E01A931081088146
:10313C0001171FEF08F01127112311F00C94CE1872
:10314C00182DE8E0F3E01F700027E10FF01F10814D
:10315C001B83182D1F931B81E8E4F2E0AF91AF7035
:10316C00BB27EA0FFB1F1083182D1F9319E0E9E40E
:10317C00F3E0AF91AF70BB27EA0FFB1F1083E9811F
:10318C00FA81108113951083112311F00C949D1862
:10319C0023961091AC03107E1F93109112030F9184
:1031AC00102B1093AC031FE11093B30308952197D8
:1031BC00E8E0F0E0FA93EA9310E0108319E01A9338
:1031CC001081088101171FEF08F01127112311F04E
:1031DC000C940D19182DE8E4F2E01F700027E10F94
:1031EC00F01F10811B83182D1F931B81E8E0F3E067
:1031FC00AF91AF70BB27EA0FFB1F1083E981FA81F7
:10320C00108113951083112311F00C94E718239659
:10321C001091AC031F7110931203CF93DF9310E046
:10322C001A930E942B30DF91CF9108952197E8E0FB
:10323C00F0E0FA93EA9310E010831CE01A931081EB
:10324C00088101171FEF08F01127112311F00C94BE
:10325C005719182DE8E1F3E01F700027E10FF01F5C
:10326C0010811B83182D1F931B81E8E5F2E0AF91B1
:10327C00AF70BB27EA0FFB1F1083182D1F9319E0AB
:10328C00E5E5F3E0AF91AF70BB27EA0FFB1F1083AE
:10329C00E981FA81108113951083112311F00C949C
:1032AC00261923961091AC031F7D1F9310912503B3
:1032BC000F91102B1093AC0310E21093B3031091E9
:1032CC00B1031F731F93109126030F91102B1093B2
:1032DC00B10310EC1093B40308952197E8E0F0E0EB
:1032EC00FA93EA9310E010831CE01A931081088182
:1032FC0001171FEF08F01127112311F00C94A319DB
:10330C00182DE8E5F2E01F700027E10FF01F108187
:10331C001B83182D1F931B81E8E1F3E0AF91AF7075
:10332C00BB27EA0FFB1F1083E981FA8110811395EB
:10333C001083112311F00C947D1923961091AC037A
:10334C001072109325031091B103107C1093260377
:10335C0008952197CF93DF931FEF1A930E942B3080
:10336C00DF91CF91E8E0F0E0FA93EA9310E010835C
:10337C0019E01A931081088101171FEF08F011272B
:10338C00112311F00C94061AE2EBF0E0EF93FF938B
:10339C001C81012F1127A0E1B0E0E89445F80E94B0
:1033AC00276F0F931F93182D012F11273F912F91EA
:1033BC00020F131FFF91EF91E00FF11F0E945B6A48
:1033CC001B83182D1F931B81E8E4F2E0AF91AF70C3
:1033DC00BB27EA0FFB1F1083182D1F9319E0E9E49C
:1033EC00F3E0AF91AF70BB27EA0FFB1F1083E981AD
:1033FC00FA81108113951083112311F00C94C119CB
:10340C0023961091AC03107E1F93E2EBF0E0EF9348
:10341C00FF931981012F1127A0E1B0E0E89445F842
:10342C000E94276F065F1F4FFF91EF91E00FF11F76
:10343C000E945B6A0F91102B1093AC031FE1109349
:10344C00B30310E00AE00E94126ACF93DF9310E0FE
:10345C001A930E942B30DF91CF9108952197CF932F
:10346C00DF931FEF1A930E942B30DF91CF911981BC
:10347C001F701983E8E0F0E0FA93EA9310E01083F0
:10348C0019E01A931081088101171FEF08F011271A
:10349C00112311F00C94851A182DE8E4F2E01F703A
:1034AC000027E10FF01F10811B83E2EBF0E0EF939C
:1034BC00FF931C81012F1127A0E1B0E0E89445F89F
:1034CC000E94276F0F931F93182D012F11273F91E7
:1034DC002F91020F131FFF91EF91E00FF11FEF934C
:1034EC00FF931B81FF91EF910E94396AE981FA8168
:1034FC00108113951083112311F00C94491A239603
:10350C00E2EBF0E0EF93FF931981012F1127A0E17B
:10351C00B0E0E89445F80E94276F065F1F4FFF91BB
:10352C00EF91E00FF11FEF93FF931091AC031F711C
:10353C00FF91EF910E94396ACF93DF9310E01A93B9
:10354C000E942B30DF91CF9108952197CF93DF9379
:10355C001FEF1A930E942B30DF91CF91E8E0F0E03F
:10356C00FA93EA9310E010831CE01A9310810881FF
:10357C0001171FEF08F01127112311F00C94021BF7
:10358C00E2EBF1E0EF93FF931C81012F1127A0E1F7
:10359C00B0E0E89445F80E94276F0F931F93182D05
:1035AC00012F11273F912F91020F131FFF91EF91C4
:1035BC00E00FF11F0E945B6A1B83182D1F931B8168
:1035CC00E8E5F2E0AF91AF70BB27EA0FFB1F108369
:1035DC00182D1F9319E0E5E5F3E0AF91AF70BB2711
:1035EC00EA0FFB1F1083E981FA8110811395108378
:1035FC00112311F00C94BD1A23961091AC031F7D6E
:10360C001F93E2EBF1E0EF93FF931981012F112748
:10361C00A0E1B0E0E89445F80E94276F035F1F4FCC
:10362C00FF91EF91E00FF11F0E945B6A0F91102B3D
:10363C001093AC0310E21093B3031091B1031F73FA
:10364C001F93E2EBF1E0EF93FF931981012F112708
:10365C00A0E1B0E0E89445F80E94276F025F1F4F8D
:10366C00FF91EF91E00FF11F0E945B6A0F91102BFD
:10367C001093B10310EC1093B40310E00AE00E9415
:10368C00126ACF93DF9310E01A930E942B30DF91D4
:10369C00CF9108952197CF93DF931FEF1A930E9438
:1036AC002B30DF91CF9119811F701983E8E0F0E086
:1036BC00FA93EA9310E010831CE01A9310810881AE
:1036CC0001171FEF08F01127112311F00C94A11B07
:1036DC00182DE8E5F2E01F700027E10FF01F1081B4
:1036EC001B83E2EBF1E0EF93FF931C81012F112779
:1036FC00A0E1B0E0E89445F80E94276F0F931F9368
:10370C00182D012F11273F912F91020F131FFF919D
:10371C00EF91E00FF11FEF93FF931B81FF91EF915E
:10372C000E94396AE981FA81108113951083112363
:10373C0011F00C94651B2396E2EBF1E0EF93FF93F1
:10374C001981012F1127A0E1B0E0E89445F80E94FF
:10375C00276F035F1F4FFF91EF91E00FF11FEF9366
:10376C00FF931091AC031072FF91EF910E94396A94
:10377C00E2EBF1E0EF93FF931981012F1127A0E108
:10378C00B0E0E89445F80E94276F025F1F4FFF914D
:10379C00EF91E00FF11FEF93FF931091B103107CA9
:1037AC00FF91EF910E94396ACF93DF9310E01A9347
:1037BC000E942B30DF91CF910895E8E0F0E0FA936E
:1037CC00EA9310E010831FE11A931081088101170E
:1037DC001FEF08F01127112311F00C94151C182D54
:1037EC001F93E2E1F0E0EF93FF93182D012F1127C7
:1037FC00FF91EF91E00FF11F0E945B6AE8E6F2E0A7
:10380C00AF91AF71BB27EA0FFB1F1083E981FA81DF
:10381C00108113951083112311F00C94EC1B23963B
:10382C00109186021170113010E009F41FEF112372
:10383C0011F40C94261C1091B10310611093B10378
:10384C00109186021270123010E009F41FEF112350
:10385C0011F40C94361C1091B10310621093B10347
:10386C00109175021093E303109174021093E4030A
:10387C00109185021F7010931F04109185021695EC
:10388C0016951695169510931E040895E8E0F0E031
:10389C00FA93EA9310E010831FE01A9310810881C9
:1038AC0001171FEF08F01127112311F00C94951C30
:1038BC00182D1F93E2E5F0E0EF93FF93182D012FE5
:1038CC001127FF91EF91E00FF11F0E945B6AE8EA6C
:1038DC00F2E0AF91AF70BB27EA0FFB1F1083182DDE
:1038EC001F93E2EAF0E0EF93FF93182D012F1127BD
:1038FC00FF91EF91E00FF11F0E945B6AE8EBF2E0A1
:10390C00AF91AF70BB27EA0FFB1F1083E981FA81DF
:10391C00108113951083112311F00C94551C2396D0
:10392C00E8E0F0E0FA93EA9310E010831FE11A93B9
:10393C001081088101171FEF08F01127112311F0D6
:10394C000C94E41C182D1F93E2E6F0E0EF93FF9328
:10395C00182D012F1127000F111FFF91EF91E00F70
:10396C00F11F0E94646AE8ECF2E0AF91AF71BB27E3
:10397C00AA0FBB1FEA0FFB1F11830083182D1F9387
:10398C00E2E3F0E0EF93FF93182D012F1127FF9145
:10399C00EF91E00FF11F0E945B6AE8E8F2E0AF9153
:1039AC00AF71BB27EA0FFB1F1083E981FA811081ED
:1039BC0013951083112311F00C949F1C23961091D6
:1039CC00B3021093930208952A971091DE031F936C
:1039DC00109174030F91102B1F93109172030F9180
:1039EC00102B1095112311F40C94FE1C0C94001E3A
:1039FC0010917E02103010E009F41FEF112311F426
:103A0C000C940F1D10917F0216951093D2030C94F9
:103A1C001A1D10917403112311F40C941A1D10919A
:103A2C00340316951093D2031091DE03112311F475
:103A3C000C94241D1091D3031093D20310E0109317
:103A4C00720310E01093740310E01093DE031091D6
:103A5C00D20316951F831F8116951E831091800229
:103A6C00103010E009F41FEF112311F40C94431DD6
:103A7C001091810218830C94471D109132031695F6
:103A8C00188310918202169516951C5F1F93CF9385
:103A9C00DF931091D2031A93109182021A9314EBB4
:103AAC001A930E94046ADF91CF910F91100F1A8321
:103ABC001A811F931091D2030F91100F198310913B
:103ACC00D2031F931A81169516950F91100F188714
:103ADC000091AC03112704FD1FEF1F930091AC0361
:103AEC00112705FD1FEF0F91102B112311F40C94CE
:103AFC00B51D109151021170113010E009F41FEF37
:103B0C00112311F40C94A21DCF93DF931091D203C7
:103B1C001A9319811A931AE51A930E94046ADF9179
:103B2C00CF91165F19871E811F931E8116950F91D9
:103B3C00100F1D830C94B31DCF93DF931F811A9329
:103B4C0019811A9318E71A930E94046ADF91CF9196
:103B5C00165F19871E811C5F1D830C94C61DCF93A5
:103B6C00DF931F811A9319811A9316E91A930E94F5
:103B7C00046ADF91CF911A5F19871E811E5F1D8326
:103B8C001091D203105F1F931F810F91100F1C8394
:103B9C00CF93DF931D811A9310E41A930E94EB05C7
:103BAC00DF91CF91CF93DF9319811A9311E41A937C
:103BBC000E94EB05DF91CF91CF93DF9318851A9379
:103BCC0012E41A930E94EB05DF91CF91CF93DF9310
:103BDC0019851A9313E41A930E94EB05DF91CF9188
:103BEC00CF93DF931C811A9314E41A930E94EB0574
:103BFC00DF91CF91089521971091B202103010E00F
:103C0C0009F01FEF112311F40C94231E1091730370
:103C1C00112311F40C94211ECF93DF9310913303D5
:103C2C001A9310EA1A931FEF1A930E94046ADF91F9
:103C3C00CF91109393020C942A1E1091B3021093FF
:103C4C0093021FEF109373031091BD03112311F412
:103C5C000C943A1E1091AC021093D0031091AD024B
:103C6C001093D1030C94421E1091AA021093D0030E
:103C7C001091AB021093D1031091BE031095112338
:103C8C0011F40C944F1E10E01093D00310E010931D
:103C9C00D1031FEF00913702002309F01095112377
:103CAC0011F40C948A1E1091CE031F931091D00323
:103CBC000F91011710E009F01FEF112311F40C9470
:103CCC008A1E1091D0031F931091CE030F910117F0
:103CDC0010E011F008F01FEF112311F40C94811E69
:103CEC001091CE0313951093CE031091AE02109346
:103CFC0037020C948A1E1091CE031A951093CE03A2
:103D0C001091B002109337021FEF0091380200237C
:103D1C0009F01095112311F40C94C51E1091CF03CA
:103D2C001F931091D1030F91011710E009F01FEFB1
:103D3C00112311F40C94C51E1091D1031F931091F3
:103D4C00CF030F91011710E011F008F01FEF1123B2
:103D5C0011F40C94BC1E1091CF0313951093CF0348
:103D6C001091AF02109338020C94C51E1091CF0322
:103D7C001A951093CF031091B10210933802009151
:103D8C00CC031091CD030F931F931091CE03012FF1
:103D9C0011273F912F91020F131F0093CC03109307
:103DAC00CD031091CE03109388021091CF03109382
:103DBC009802CF93DF93109193021A931BEC1A93F2
:103DCC000E94EB05DF91CF91CF93DF931091880286
:103DDC001A9310EC1A930E94EB05DF91CF91CF93BD
:103DEC00DF93109198021A9310ED1A930E94EB0531
:103DFC00DF91CF911091BD031F931091BE030F91D2
:103E0C001023E894112309F068941091B90311F967
:103E1C001093B9031091BD0310951F931091BE031D
:103E2C000F911023E894112309F068941091B903B1
:103E3C0010F91093B9031091B9031093BA03CF93EF
:103E4C00DF9311E21A9313E01A9313E00AEB1A931F
:103E5C000A9310E001E01A930A930E946E69DF91B5
:103E6C00CF9110E01093730308952597CF93DF93B0
:103E7C000E940E15DF91CF91CF93DF930E946715AF
:103E8C00DF91CF91CF93DF930E94CE12DF91CF9130
:103E9C00CF93DF930E941614DF91CF91CF93DF93D2
:103EAC000E944814DF91CF91CF93DF930E94EA11C7
:103EBC00DF91CF91CF93DF930E94C114DF91CF910B
:103ECC00CF93DF930E94EA1CDF91CF91CF93DF93C6
:103EDC000E94011EDF91CF9108950E949406CF930A
:103EEC00DF9318E0412A02EE19E61A930A93E0E9EF
:103EFC00F2EE0E94E36BDF91CF910E948D06109140
:103F0C00D104112311F40C94BC1F01E010E020E04B
:103F1C0030E00093B6041093B7042093B8043093A8
:103F2C00B904E8E8F4E0EF93FF933196FA93EA933F
:103F3C001FE11A9317EF41221FEB4122EDE9F2EE3C
:103F4C000E94E36B1FE11F9318810F91011B102F2F
:103F5C00FF91EF91108323960E944708CF93DF9334
:103F6C0012E61A930E949200DF91CF911091CF0428
:103F7C00112311F40C94F31F02E010E020E030E068
:103F8C000093B6041093B7042093B8043093B9048B
:103F9C00E8E8F4E0EF93FF933196FA93EA931FE18C
:103FAC001A9317EF41221FEB4122EDEAF2EE0E9429
:103FBC00E36B1FE11F9318810F91011B102FFF91D1
:103FCC00EF91108323960E944708CF93DF9310E65E
:103FDC001A930E949200DF91CF911091D00411237B
:103FEC0011F40C942A2003E010E020E030E0009360
:103FFC00B6041093B7042093B8043093B904E8E8DE
:10400C00F4E0EF93FF933196FA93EA931FE11A933E
:10401C0017EF41221FEB4122E1ECF2EE0E94E36B21
:10402C001FE11F9318810F91011B102FFF91EF912E
:10403C00108323960E944708CF93DF9311E61A93BF
:10404C000E949200DF91CF9100E010E020E030E080
:10405C0000932A0410932B0420932C0430932D04EA
:10406C001091D404112311F40C94652004E010E099
:10407C0020E030E00093B6041093B7042093B8040A
:10408C003093B904E8E8F4E0EF93FF933196FA9398
:10409C00EA931FE11A9317EF41221FEB4122E5ED42
:1040AC00F2EE0E94E36B1FE11F9318810F91011B2D
:1040BC00102FFF91EF91108323960E9447081091C7
:1040CC00D304112311F40C949A2010E8109548E3B2
:1040DC0033E00E94C76805E010E020E030E0009378
:1040EC00B6041093B7042093B8043093B904E8E8ED
:1040FC00F4E0EF93FF933196FA93EA931FE11A934E
:10410C0017EF41221FEB4122E6EEF2EE0E94E36B29
:10411C001FE11F9318810F91011B102FFF91EF913D
:10412C00108323960E9447081091CE04112311F49A
:10413C000C94C92006E010E020E030E00093B604B7
:10414C001093B7042093B8043093B904E8E8F4E072
:10415C00EF93FF933196FA93EA931FE11A9317EFBB
:10416C0041221FEB4122E9EFF2EE0E94E36B1FE1CB
:10417C001F9318810F91011B102FFF91EF9110834A
:10418C0023960E9447081091CD04112311F40C942E
:10419C00F82007E010E020E030E00093B604109324
:1041AC00B7042093B8043093B904E8E8F4E0EF9333
:1041BC00FF933196FA93EA931FE11A9317EF41227A
:1041CC001FEB4122E4E0F3EE0E94E36B1FE11F932F
:1041DC0018810F91011B102FFF91EF9110832396E3
:1041EC000E944708089510E004E60E94126ACF93DB
:1041FC00DF9310E01A9318E41A930E94EB05DF91F9
:10420C00CF9110E004E60E94126ACF93DF931FEF68
:10421C001A930E942B30DF91CF91CF93DF930E94A2
:10422C00C114DF91CF91CF93DF9310E01A930E94CA
:10423C002B30DF91CF910895CF93DF9310E01A9339
:10424C0010E01A9310E01A930E947F68DF91CF91CF
:10425C00CF93DF9318E0412A09E518E61A930A93E5
:10426C00ECEDF5EEEF93FF931A81012F1127AEE0E1
:10427C00B0E0E89445F80E94276FFF91EF91E00FB2
:10428C00F11F0E94E36BDF91CF9110E20E945968FD
:10429C0010E20E945968CF93DF9310E01A9310E05C
:1042AC001A9311E01A930E947F68DF91CF910895C1
:1042BC00CF93DF9310E01A9310E01A9311E01A9346
:1042CC000E947F68DF91CF91CF93DF9318E0412A52
:1042DC0009E518E61A930A93E0EBF9EEEF93FF93D6
:1042EC001A81012F1127ADE0B0E0E89445F80E9447
:1042FC00276FFF91EF91E00FF11F0E94E36BDF91AD
:10430C00CF9116E00E94596810E00E94A0680895B1
:10431C001881112311F40C94A321CF93DF9318E08F
:10432C00412A09E518E61A930A93E1E1F3EE0E949B
:10433C00E36BDF91CF910C94B121CF93DF9318E015
:10434C00412A09E518E61A930A93E5E1F3EE0E9477
:10435C00E36BDF91CF910895E8E0F0E0FA93EA93F4
:10436C0010E0108315E01A931081088101171FEFDC
:10437C0008F01127112311F00C94D9215A9A5B984B
:10438C0010E004E60E94126A5A985B9A10E004E668
:10439C000E94126AE981FA8110811395108311230E
:1043AC0011F00C94BB2123965A9A5B9A08951091A4
:1043BC00CE04112311F40C94C52210E00E949768CE
:1043CC00EFE3F4E0EF93FF933196FA93EA9318E25C
:1043DC001A9317EF41221FEB41221C81CF93DF93DD
:1043EC001A9312E01A9300E00A9310E21A930E94B7
:1043FC00046CDF91CF9118E21F9318810F91011B70
:10440C00102FFF91EF9110832396CF93DF9318E039
:10441C00412A09E518E61A930A93E9E1F3EE0E94A2
:10442C00E36BDF91CF9119811F9318810F910117C5
:10443C0010E009F01FEF112311F40C943622CF93E6
:10444C00DF9318E0412A09E518E61A930A93EFE383
:10445C00F4E00E94EC6BDF91CF9110E20E9459685E
:10446C00CF93DF9318E0412A09E518E61A930A93D3
:10447C00E0E2F3EE0E94E36BDF91CF91CF93DF93F9
:10448C0010E01A9310E01A9311E01A930E947F68BF
:10449C00DF91CF91CF93DF9318E0412A09E518E61D
:1044AC001A930A93E3E2F3EE0E94E36BDF91CF9150
:1044BC00EFE3F4E0EF93FF933196FA93EA9318E26B
:1044CC001A9317EF41221FEB41221B81CF93DF93ED
:1044DC001A9312E01A9300E00A9310E21A930E94C6
:1044EC00046CDF91CF9118E21F9318810F91011B7F
:1044FC00102FFF91EF9110832396CF93DF9310E051
:10450C001A9316E01A9311E01A930E947F68DF91B8
:10451C00CF91CF93DF9318E0412A09E518E61A935F
:10452C000A93EFE3F4E00E94EC6BDF91CF911091D2
:10453C002803103010E009F41FEF112311F40C9430
:10454C00B722CF93DF9318E0412A09E518E61A93B6
:10455C000A93EAE2F3EE0E94E36BDF91CF910C94A5
:10456C00C522CF93DF9318E0412A09E518E61A9388
:10457C000A93E1E3F3EE0E94E36BDF91CF910E948B
:10458C00B22108951091CE04112311F40C94F92248
:10459C0010E00E949768CF93DF9318E0412A09E559
:1045AC0018E61A930A93E8E3F3EE0E94E36BDF91AB
:1045BC00CF91CF93DF9310E01A9310E01A9311E090
:1045CC001A930E947F68DF91CF91CF93DF9318E00D
:1045DC00412A09E518E61A930A93EAE4F3EE0E94DD
:1045EC00E36BDF91CF9108951091CE0410951123B8
:1045FC0011F40C9403230C945723CF93DF9310E006
:10460C001A930E942221DF91CF911881112311F46A
:10461C000C944323CF93DF9318E0412A09E518E665
:10462C001A930A93E9E5F3EE0E94E36BDF91CF91C5
:10463C001981112311F40C943323CF93DF9318E0D9
:10464C00412A09E518E61A930A93EEE5F3EE0E9467
:10465C00E36BDF91CF910C944123CF93DF9318E060
:10466C00412A09E518E61A930A93E3E6F3EE0E9451
:10467C00E36BDF91CF910C945123CF93DF9318E030
:10468C00412A09E518E61A930A93E8E6F3EE0E942C
:10469C00E36BDF91CF9110E00E94A06815E01093BE
:1046AC003D020895CF93DF9318811A930E948E21B7
:1046BC00DF91CF9116E00E94596810E00E94A0682B
:1046CC000895CF93DF9318E0412A09E518E61A9371
:1046DC000A931A81CF93DF931A9313E01A9300E095
:1046EC000A9310E21A93689443F80E94046CDF91C9
:1046FC00CF91DF91CF9116E00E94596810E00E9493
:10470C00A0680895CF93DF9318E0412A09E518E6D5
:10471C001A930A930A811B81CF93DF931A930A93FE
:10472C0013E01A9300E00A9310E21A93689443F88A
:10473C00689445F8E89454F855F80E943D6EDF9162
:10474C00CF91DF91CF9116E00E94596810E00E9442
:10475C00A0680895CF93DF930091AC03112700FD5F
:10476C001FEF1A930E948E21DF91CF910091AC0321
:10477C00112700FD1FEF1095112311F40C94CB237E
:10478C0010E00E94A0680C94432410E20E94596827
:10479C000091AC03112701FD1FEF112311F40C94B0
:1047AC00E723CF93DF9318E0412A09E518E61A9323
:1047BC000A93EDE6F3EE0E94E36BDF91CF910C943C
:1047CC00F523CF93DF9318E0412A09E518E61A93F5
:1047DC000A93E2E7F3EE0E94E36BDF91CF91009135
:1047EC00AC03112702FD1FEF112311F40C940E24BE
:1047FC00CF93DF9318E0412A09E518E61A930A9340
:10480C00E7E7F3EE0E94E36BDF91CF910C941C244D
:10481C00CF93DF9318E0412A09E518E61A930A931F
:10482C00ECE7F3EE0E94E36BDF91CF910091AC03C8
:10483C00112703FD1FEF112311F40C943524CF9392
:10484C00DF9318E0412A09E518E61A930A93E1E888
:10485C00F3EE0E94E36BDF91CF910C944324CF9342
:10486C00DF9318E0412A09E518E61A930A93E5E864
:10487C00F3EE0E94E36BDF91CF9108952197CF93D4
:10488C00DF930091AC03112704FD1FEF1A930E94D4
:10489C008E21DF91CF9110E20E945968CF93DF9364
:1048AC000091AC03112705FD1FEF1A930E948E2176
:1048BC00DF91CF9110E20E94596810915102117052
:1048CC00113010E009F41FEF112311F40C94732430
:1048DC0013E40E9459680C94762416E50E945968DA
:1048EC001091510216951F5C188318810E9459680B
:1048FC0010E00E94A0680895219719811170113061
:10490C0010E009F41FEF112311F40C94D824198131
:10491C0016951983E8E0F0E0FA93EA9310E010831F
:10492C00EF93FF931B81FF91EF911A9310810881F4
:10493C0001171FEF08F01127112311F00C94B2246A
:10494C0010E00E945968E981FA8110811395108357
:10495C00112311F00C949D242396E8E0F0E0FA93D7
:10496C00EA93EF93FF931B81FF91EF91108316E075
:10497C001A931081088101171FEF08F011271123DA
:10498C0011F00C94D52417E00E945968E981FA8142
:10499C00108113951083112311F00C94C0242396CD
:1049AC000C942425198116951983E8E0F0E0FA930C
:1049BC00EA9311E01083EF93FF931B81FF91EF912A
:1049CC001A931081088101171FEF08F0112711238A
:1049DC0011F00C94FD2410E00E945968E981FA81D1
:1049EC00108113951083112311F00C94E824239655
:1049FC0011E00E945968E8E0F0E0FA93EA93EF9333
:104A0C00FF931B81FF91EF91108316E01A93108195
:104A1C00088101171FEF08F01127112311F00C94D6
:104A2C00232517E00E945968E981FA8110811395BA
:104A3C001083112311F00C940E25239612E00E9482
:104A4C00596816E00E94596810E00E94A068CF9344
:104A5C00DF9310E01A931AE01A9311E01A930E9454
:104A6C007F68DF91CF9108952297CF93DF9310E069
:104A7C001A9310E01A9310E01A930E947F68DF914A
:104A8C00CF911091C003193010E011F008F01FEF16
:104A9C00112311F40C945E2511E30E9459681091B6
:104AAC00C0031A5D198319810E9459680C946825FA
:104ABC001091C003105D198319810E94596810E28E
:104ACC000E9459681091C003103010E009F41FEFD8
:104ADC001F931091C0031F3010E009F41FEF0F91CA
:104AEC00102B112311F40C948B25CF93DF9318E02A
:104AFC00412A09E518E61A930A93E9E8F3EE0E94B5
:104B0C00E36BDF91CF910C949925CF93DF9318E051
:104B1C00412A09E518E61A930A93EDE8F3EE0E9490
:104B2C00E36BDF91CF9110912803103010E009F462
:104B3C001FEF112311F40C94A82516E00E9459685C
:104B4C000C94AB2510E20E945968E8E0F0E0FA936F
:104B5C00EA9310E0108318E01A9310810881011772
:104B6C001FEF08F01127112311F00C94E325182DD9
:104B7C00E8E4F2E01F770027E10FF01F1081195FC6
:104B8C001B83CF93DF931B811A9310E11A9310EFC1
:104B9C001A930E94046ADF91CF911B831B81105DD5
:104BAC001C831C810E945968E981FA81108113953C
:104BBC001083112311F00C94B4252396CF93DF931B
:104BCC0010E01A9310E01A9311E01A930E947F6878
:104BDC00DF91CF911091C103193010E011F008F062
:104BEC001FEF112311F40C94072611E30E9459684E
:104BFC001091C1031A5D198319810E9459680C9494
:104C0C0011261091C103105D198319810E945968F6
:104C1C0010E20E9459681091C103103010E009F4A1
:104C2C001FEF1F931091C1031F3010E009F41FEF09
:104C3C000F91102B112311F40C943426CF93DF9386
:104C4C0018E0412A09E518E61A930A93E1E9F3EE14
:104C5C000E94E36BDF91CF910C944226CF93DF93AC
:104C6C0018E0412A09E518E61A930A93E5E9F3EEF0
:104C7C000E94E36BDF91CF9110912803103010E06C
:104C8C0009F41FEF112311F40C94512610E20E9429
:104C9C0059680C94542616E00E945968E8E0F0E03C
:104CAC00FA93EA9310E1108318E11A9310810881AA
:104CBC0001171FEF08F01127112311F00C948C260B
:104CCC00182DE8E4F2E01F770027E10FF01F1081A8
:104CDC00195F1B83CF93DF931B811A9310E11A93F7
:104CEC0010EF1A930E94046ADF91CF911B831B81F2
:104CFC00105D1C831C810E945968E981FA81108126
:104D0C0013951083112311F00C945D2623960895AE
:104D1C0026971985143610E008F01FEF112311F4B3
:104D2C000C949E2610E00AE01D830C830C94C02684
:104D3C001985123310E008F01FEF112311F40C94B5
:104D4C00AD2610E005E01D830C830C94C02619855C
:104D5C00143110E008F01FEF112311F40C94BC2651
:104D6C0010E002E01D830C830C94C02610E001E0DF
:104D7C001D830C83FE01EF93FF931E81FF91EF9136
:104D8C0011931E811F3710E011F008F01FEF112353
:104D9C0011F40C94D726FE0131961FEF11930C944D
:104DAC00DB26FE01319610E01193088119810F93D7
:104DBC001F930C811D81689445F8BF91AF910E949F
:104DCC00276F198308831985012F11270F931F93C0
:104DDC00088119813F912F91020F131F1B830A83A6
:104DEC000A811B810F931F930C811D81689445F8D8
:104DFC00BF91AF910E94486F0F931F930C811D813F
:104E0C00689445F8BF91AF910E94276F1B830A836A
:104E1C000A811B811A930A931A85012F11271A9361
:104E2C000A931B85012F11271A930A930E942F7046
:104E3C002696102F0895CF93DF9310E01A931FE05E
:104E4C001A9310E01A930E947F68DF91CF911A8118
:104E5C001F9318810F9101171FEF08F011271123D1
:104E6C0011F40C943E2713E00E9459680C944127CE
:104E7C0010E20E945968CF93DF9310E01A931FE061
:104E8C001A9311E01A930E947F68DF91CF911A81D7
:104E9C001F9319810F91011710E011F008F01FEF0B
:104EAC00112311F40C945F2714E00E9459680C94A0
:104EBC00622710E20E9459680895229710E00E9420
:104ECC00B168176C109339020A811B81103009F4F8
:104EDC00003010E011F008F01FEF112311F40C94C6
:104EEC007B270A811B810E94126A109139021F3F95
:104EFC0010E009F41FEF112311F40C948A2710E031
:104F0C000C948D270C948D271FEF0C948D270895EE
:104F1C00229710913C0219831981188319811F93D0
:104F2C0010913B020F91011B102F198318811093C4
:104F3C003B021981089524971C81103010E009F070
:104F4C001FEF18831881112311F40C94B5271D81C0
:104F5C001E3110E011F008F01FEF1093C6031D81F5
:104F6C001A3011F00C94FE27CF93DF93109151025D
:104F7C001A9310E01A9315E01A931F811A930E944A
:104F8C008E26DF91CF9110935102CF93DF930E9425
:104F9C004424DF91CF91CF93DF9310E01A931FE05D
:104FAC001A9310E01A930E947F68DF91CF9110E260
:104FBC000E945968CF93DF9310E01A931AE01A936A
:104FCC0011E01A930E947F68DF91CF9116E00E9446
:104FDC005968CF93DF93109151021A9310E01A93F2
:104FEC0015E01A930E942127DF91CF910C94192A76
:104FFC001B3011F00C9439281881112311F40C94E6
:10500C0016280091AC03112704FD1FEF1095E894AE
:10501C00112309F068941091AC0314F91093AC03AC
:10502C00CF93DF930E944424DF91CF91CF93DF93F2
:10503C0010E01A9313E01A9311E01A930E947F6800
:10504C00DF91CF9116E00E945968CF93DF9311E066
:10505C001A9310E01A9312E01A930E942127DF9101
:10506C00CF910C94192A1C3011F00C94A328109198
:10507C00AC031F701B831B81012F11E00695111FC0
:10508C00E8F716951695169516951B83CF93DF9317
:10509C001B811A9317E01A931FE01A931F811A931E
:1050AC000E948E26DF91CF911B831B811A831B815B
:1050BC00012F11E00695111FE8F716951695169518
:1050CC0016951B831881112311F40C9476281091DA
:1050DC00AC03107F1F931B810F91102B1093AC030B
:1050EC000E94B023CF93DF931A811A9317E01A937F
:1050FC001FE01A930E942127DF91CF91CF93DF936A
:10510C0010E01A9313E01A9311E01A930E947F682F
:10511C00DF91CF910091AC03112700FD1FEF1123FC
:10512C0011F40C949E2815E00E9459680C94A12847
:10513C0016E00E9459680C94192A1F3011F00C9437
:10514C00DE281881112311F40C94BB280091AC03B8
:10515C00112705FD1FEF1095E894112309F06894B1
:10516C001091AC0315F91093AC03CF93DF930E940D
:10517C004424DF91CF91CF93DF9310E01A9317E083
:10518C001A9311E01A930E947F68DF91CF9116E079
:10519C000E945968CF93DF9311E01A9310E01A9391
:1051AC0012E01A930E942127DF91CF910C94192AB7
:1051BC001D3111F00C9410291881112311F40C9449
:1051CC00F6280091B103112706FD1FEF1095E89406
:1051DC00112309F068941091B10316F91093B103DF
:1051EC00CF93DF930091B103112706FD1FEF1A93A4
:1051FC000E945823DF91CF91CF93DF9311E01A9344
:10520C0010E01A9312E01A930E942127DF91CF919C
:10521C000C94192A1E3111F00C9442291881112377
:10522C0011F40C9428290091B103112707FD1FEFED
:10523C001095E894112309F068941091B10317F9B3
:10524C001093B103CF93DF930091B103112707FDA6
:10525C001FEF1A930E945823DF91CF91CF93DF93C6
:10526C0011E01A9310E01A9312E01A930E9421276E
:10527C00DF91CF910C94192A103211F00C948029E3
:10528C001091B103107316951695169516951B83F0
:10529C00CF93DF931B811A9310E01A9313E01A93A8
:1052AC001F811A930E948E26DF91CF911B83CF937F
:1052BC00DF931B811A930E946723DF91CF9110918A
:1052CC00B1031F7C1F931B81110F110F110F110FB5
:1052DC000F91102B1093B103CF93DF931B811A9373
:1052EC0010E01A9313E01A930E942127DF91CF91BB
:1052FC000C94192A193311F00C94BE29CF93DF9317
:10530C001091850216951695169516951A9310E020
:10531C001A931FE01A931F811A930E948E26DF9115
:10532C00CF9110931E04CF93DF9310911E041A9308
:10533C000E946723DF91CF91CF93DF9310911E04CE
:10534C001A9310E01A931FE01A930E942127DF9101
:10535C00CF9110911E04110F110F110F110F1F93EC
:10536C0010911F040F91102B109385020C94192A85
:10537C001A3311F00C94F929CF93DF931091850215
:10538C001F701A9310E01A931FE01A931F811A933F
:10539C000E948E26DF91CF9110931F04CF93DF9341
:1053AC0010911F041A930E946723DF91CF91CF9322
:1053BC00DF9310911F041A9310E01A931FE01A93B5
:1053CC000E942127DF91CF9110911E04110F110F14
:1053DC00110F110F1F9310911F040F91102B10938D
:1053EC0085020C94192A153411F00C94192ACF93B8
:1053FC00DF9310E01A9310E01A9311E01A930E94B5
:10540C007F68DF91CF91CF93DF9318E0412A09E5B4
:10541C0018E61A930A93E9E9F3EE0E94E36BDF9125
:10542C00CF910C94192A089527971091CE041095BA
:10543C001F931885103010E009F41FEF0F91102BFB
:10544C00112311F40C942C2A0C94782C1F811030FD
:10545C0010E009F01FEF1883E0E5F5EEEF93FF93F2
:10546C001885012F1127FF91EF91E00FF11F149177
:10547C001B83E6E9F5EEEF93FF931885012F1127B7
:10548C00FF91EF91E00FF11F14911C8318851D30D3
:10549C0010E009F41FEF112311F40C947D2ACF9323
:1054AC00DF931091C0031A9310E01A931FE01A9324
:1054BC001A851A930E948E26DF91CF911093C00308
:1054CC00CF93DF930E943A25DF91CF91CF93DF9357
:1054DC001091C0031A9310E01A931FE01A930E94C4
:1054EC002127DF91CF910C94782C0C94AC2A188541
:1054FC001E3010E009F41FEF112311F40C94AC2AA8
:10550C00CF93DF931091C1031A9310E01A931FE00D
:10551C001A931A851A930E948E26DF91CF911093BD
:10552C00C103CF93DF930E943A25DF91CF91CF93A4
:10553C00DF931091C1031A9310E01A931FE01A9392
:10554C000E942127DF91CF910C94782CCF93DF937D
:10555C0018851A930E942221DF91CF911B811F3F46
:10556C0010E009F41FEF112311F40C94C92ACF9306
:10557C00DF9318851A9318851A930E94A127DF913F
:10558C00CF910C94072C1B81103810E008F01FEF02
:10559C00112311F40C94192B1B811F771B831B8176
:1055AC00E8E4F2E01F770027E10FF01F1081169559
:1055BC00169516951E83CF93DF931E811A9310E0D8
:1055CC001A931FE01A931A851A930E948E26DF9164
:1055DC00CF911E83CF93DF931E811A930E94822456
:1055EC00DF91CF91CF93DF931E811A9310E01A9322
:1055FC001FE01A930E942127DF91CF91188111236C
:10560C0011F40C94172B1B811F931E81110F110F7A
:10561C00110FE8E4F2E0AF91AF77BB27EA0FFB1F65
:10562C0010830C94072C1C81113010E009F41FEF2F
:10563C00112311F40C945A2B1B81E8E4F2E01F7730
:10564C000027E10FF01F1081112309F01FEF1983C0
:10565C001FEF1093C6031881112311F40C94392BEE
:10566C00198110951983CF93DF9319811A930E9496
:10567C005823DF91CF91CF93DF9311E01A9310E071
:10568C001A9312E01A930E942127DF91CF911B816C
:10569C001F931981E8E4F2E0AF91AF77BB27EA0FD3
:1056AC00FB1F10830C94072C1B81E8E4F2E01F779E
:1056BC000027E10FF01F10811E831885153210E0B2
:1056CC0009F41FEF112311F40C946F2B1E811A5F38
:1056DC001E83CF93DF931E811A9310E01A931E81C1
:1056EC001A931A851A930E948E26DF91CF911E83EE
:1056FC001B811F931E81E8E4F2E0AF91AF77BB27CB
:10570C00EA0FFB1F10831885113211F00C949B2BA0
:10571C00CF93DF931E811F5F1A930E946723DF9143
:10572C00CF911FEF812E0C94E62B123211F00C94BA
:10573C00A32B14E1812E0C94E62B133211F00C9454
:10574C00AB2B10E0812E0C94E62B143211F00C9440
:10575C00B32B15E0812E0C94E62B153211F00C9422
:10576C00CC2B1E81165010936802CF93DF931E81B1
:10577C00012F1127065010401A930A930E94882378
:10578C00DF91CF911FEF812E0C94E62B133311F088
:10579C000C94D42B10E1812E0C94E62B1F3311F0BA
:1057AC000C94DC2B18E0812E0C94E62BCF93DF931A
:1057BC001E811A930E946723DF91CF911FEF812ED8
:1057CC00182D1F3F10E009F01FEF112311F40C945A
:1057DC00FB2BCF93DF93182D1F931E810F91100F6E
:1057EC001A930E945E21DF91CF91CF93DF931E819C
:1057FC001A9310E01A931E811A930E942127DF91AD
:10580C00CF91CF93DF9310E01A931DE01A9310E021
:10581C001A930E947F68DF91CF9118851F3110E099
:10582C0008F01FEF112311F40C94212C14E40E94A6
:10583C0059680C943C2C18851E3010E011F008F0BF
:10584C001FEF112311F40C94302C1CE40E945968A6
:10585C000C943C2C18851D301FEF08F011271123D8
:10586C0011F40C943C2C15E50E94596818811123F5
:10587C0011F40C94782C109193021093B3021FEF37
:10588C0010937203CF93DF930E94CE12DF91CF91CE
:10589C00CF93DF930E941614DF91CF91CF93DF93B8
:1058AC000E944814DF91CF91CF93DF930E94EA11AD
:1058BC00DF91CF911B81103210E008F01FEF112304
:1058CC0011F40C946C2C1FEF1093C6031B81103435
:1058DC0010E008F01FEF112311F40C94782C1FEF3B
:1058EC001093CB030895219710E01883CF93DF9387
:1058FC0010917D0210951A930E948E02DF91CF9128
:10590C00CF93DF930E94EA1CDF91CF91CF93DF936B
:10591C000E94011EDF91CF91FE011081139510831F
:10592C00CF93DF9310E00AE01A930A930E94632747
:10593C00DF91CF9110951F931881133610E011F061
:10594C0008F01FEF0F91102B112311F40C947C2CE9
:10595C00188114361FEF08F01127112311F40C9441
:10596C00EB2C10913E021A931DE01A931EE01A9331
:10597C000E9416702396112311F40C94CB2C1091C9
:10598C003F0210933E020C94DB2C10913E021093BC
:10599C003F0210913E021A931DE01A931EE01A93D7
:1059AC000E940C70239610933E02CF93DF931091BC
:1059BC003E021A9310E01A930E941A2ADF91CF919B
:1059CC0011E010933D020C94512E10913E021030B8
:1059DC0010F40C94102D1D3019F010F00C94102DA7
:1059EC00CF93DF931091C0031A931091C0031A93B5
:1059FC000E94DD21DF91CF91CF93DF931091C003F3
:105A0C001A930E94341ADF91CF911FEF1093C903A0
:105A1C000C94252E1E3010F40C94332D1E3119F0DD
:105A2C0010F00C94332DCF93DF931091C1031A9384
:105A3C001091C1031A930E94DD21DF91CF91CF9376
:105A4C00DF931091C1031A930E94501BDF91CF91E9
:105A5C001FEF1093CA030C94252E1F3111F00C94D8
:105A6C00492D0E94C822E2E3F0E03B96109193028C
:105A7C000E94396AE2E5F0E03B961091B3020E9475
:105A8C00396A0C94252E103211F00C94582D0E946A
:105A9C00C822E2E1F0E07E96109186020E94396AFB
:105AAC000C94252E113210F40C94632D183319F02C
:105ABC0010F00C94632D0C946C2D1F3310F40C947B
:105ACC00982D133419F010F00C94982D0E94C822C4
:105ADC00E0E5F5EEEF93FF9310913E02012F1127B5
:105AEC00FF91EF91E00FF11F14911F71812EE2E1F4
:105AFC00F0E0EF93FF93182D012F1127FF91EF91F9
:105B0C00E00FF11FEF93FF93182DE8E6F2E01F7101
:105B1C000027E10FF01F1081FF91EF910E94396A6D
:105B2C000C94252E193311F00C949E2D0C94A22D4F
:105B3C001A3311F00C94BA2D0E94C82210911E0435
:105B4C00110F110F110F110F1F9310911F040F91B3
