:10007C0010E81093120410E01093130414E0109382
:10008C00140410E01093330210E01093850210E07A
:10009C00109384021FEF109378031FEF10937703D4
:1000AC001FEF10937A0310E010933E031FE7109399
:1000BC0038031FE7109339031FE710933703089594
:1000CC0018811F9316E11F93E89440F8E2E7F3E0E0
:1000DC00A4E0B0E03F914F9150E00E94DA3F0895C8
:1000EC0000E010E020E030E0009372031093730303
:1000FC002093740330937503CF93DF9318811A9375
:10010C000E946600DF91CF9118811F9312E01F931C
:10011C00E89440F8E6E1F0E03F914F91A1E0B0E0C7
:10012C0060E050E00E94DA3F18811F9313E01F93A8
:10013C00E89440F8E6E1F0E03F914F91A1E0B0E0A7
:10014C0068E250E00E94DA3F18811F9314E01F937D
:10015C00E89440F8E6E1F0E03F914F91A1E0B0E087
:10016C0064E150E00E94DA3F18811F9315E01F9361
:10017C00E89440F8E6E1F0E03F914F91A1E0B0E067
:10018C0060E850E00E94DA3F0AEA1AEA2AEA3AEA00
:10019C0000937203109373032093740330937503CD
:1001AC00CF93DF9318811A930E946600DF91CF9151
:1001BC00089523971B811095E894112309F06894F6
:1001CC001BB112F91BB91B8110951F9348E331E049
:1001DC000E94283F0F91002311F0106801C01F7777
:1001EC0048E331E00E941F3F08952197CF93DF939E
:1001FC001FEF1A930E94DF00DF91CF91E8E0F0E04F
:10020C00FA93EA9310E010831FE01A93108108818F
:10021C0001171FEF08F01127112311F00C9447015F
:10022C00E2E3F0E0EF93FF931C81012F1127A0E193
:10023C00B0E0E89445F80E946A450F931F93182D7F
:10024C00012F11273F912F91020F131FFF91EF9157
:10025C00E00FF11F0E94B3401B83182D1F931B81CD
:10026C00E4E6F2E0AF91AF73BB27EA0FFB1F1083FC
:10027C00E981FA81108113951083112311F00C94EC
:10028C000D01239610E00AE00E946A40CF93DF93A1
:10029C0010E01A930E94DF00DF91CF91089521970F
:1002AC00CF93DF931FEF1A930E94DF00DF91CF9162
:1002BC00E8E0F0E0FA93EA9310E010831FE01A9361
:1002CC001081088101171FEF08F01127112311F07D
:1002DC000C94A201E2E3F1E0EF93FF931C81012F58
:1002EC001127A0E1B0E0E89445F80E946A450F930D
:1002FC001F93182D012F11273F912F91020F131FC0
:10030C00FF91EF91E00FF11F0E94B3401B83182D5A
:10031C00105F1F931B81E4E6F2E0AF91AF73BB2734
:10032C00EA0FFB1F1083E981FA811081139510836A
:10033C00112311F00C946701239610E00AE00E943F
:10034C006A40CF93DF9310E01A930E94DF00DF9195
:10035C00CF9108952197E8E0F0E0FA93EA9310E04A
:10036C0010831FE11A931081088101171FEF08F009
:10037C001127112311F00C94E401182D105E1F931A
:10038C00E2E1F0E0EF93FF93182D012F1127FF917D
:10039C00EF91E00FF11F0E94B340E4E6F2E0AF9161
:1003AC00AF73BB27EA0FFB1F1083E981FA81108121
:1003BC0013951083112311F00C94BA01239610910C
:1003CC008E02133010E011F008F01FEF109342036F
:1003DC0008952197CF93DF931FEF1A930E94DF00AC
:1003EC00DF91CF91E8E0F0E0FA93EA9310E010830C
:1003FC001FE01A931081088101171FEF08F01127D5
:10040C00112311F00C943D02182DE4E6F2E01F7359
:10041C000027E10FF01F10811B83E2E3F0E0EF9364
:10042C00FF931C81012F1127A0E1B0E0E89445F85F
:10043C000E946A450F931F93182D012F11273F918E
:10044C002F91020F131FFF91EF91E00FF11FEF930C
:10045C00FF931B81FF91EF910E949140E981FA81FA
:10046C00108113951083112311F00C940102239623
:10047C00CF93DF9310E01A930E94DF00DF91CF91AE
:10048C0008952197CF93DF931FEF1A930E94DF00FB
:10049C00DF91CF91E8E0F0E0FA93EA9310E010835B
:1004AC001FE01A931081088101171FEF08F0112724
:1004BC00112311F00C949602182D105FE4E6F2E073
:1004CC001F730027E10FF01F10811B83E2E3F1E0A3
:1004DC00EF93FF931C81012F1127A0E1B0E0E8946A
:1004EC0045F80E946A450F931F93182D012F112771
:1004FC003F912F91020F131FFF91EF91E00FF11F0E
:10050C00EF93FF931B81FF91EF910E949140E98142
:10051C00FA81108113951083112311F00C94590258
:10052C002396CF93DF9310E01A930E94DF00DF91A4
:10053C00CF9108952197E8E0F0E0FA93EA9310E068
:10054C0010831FE11A931081088101171FEF08F027
:10055C001127112311F00C94D802182D105EE4E62B
:10056C00F2E01F730027E10FF01F10811B83E2E103
:10057C00F0E0EF93FF93182D012F1127FF91EF91CE
:10058C00E00FF11FEF93FF931B81FF91EF910E94FE
:10059C009140E981FA81108113951083112311F098
:1005AC000C94AA02239608952197E8E0F0E0FA93C0
:1005BC00EA9310E010831FE01A9310810881011751
:1005CC001FEF08F01127112311F00C942403182DA0
:1005DC001F93E2E5F2E0EF93FF93182D012F112703
:1005EC00FF91EF91E00FF11F0E94B340E4ECF2E0B9
:1005FC00AF91AF70BB27EA0FFB1F1083182D1F9311
:10060C00E2EAF2E0EF93FF93182D012F1127FF91EF
:10061C00EF91E00FF11F0E94B340EEE1F3E0AF91D8
:10062C00AF70BB27EA0FFB1F1083E981FA811081A1
:10063C0013951083112311F00C94E4022396E8E037
:10064C00F0E0FA93EA9310E010831FE11A93108103
:10065C00088101171FEF08F01127112311F00C94DA
:10066C007303182D1F93E2E6F2E0EF93FF93182D1E
:10067C00012F1127000F111FFF91EF91E00FF11FB8
:10068C000E94BC40EEEDF2E0AF91AF71BB27AA0F18
:10069C00BB1FEA0FFB1F11830083182D1F93E2E38E
:1006AC00F2E0EF93FF93182D012F1127FF91EF919B
:1006BC00E00FF11F0E94B340E4EAF2E0AF91AF719A
:1006CC00BB27EA0FFB1F1083E981FA811081139578
:1006DC001083112311F00C942E0323961091CF024A
:1006EC001093AF021091D002103010E009F01FEF00
:1006FC00E894112309F0689410916E0316F9109385
:10070C006E031091D1021F931091D2020F911023FE
:10071C00E894112309F0689410916D0317F9109364
:10072C006D031091D202E894112309F06894109192
:10073C006D0316F910936D030895219710E51F931F
:10074C0009811A811F93E89440F809811A81102FAE
:10075C00E6E1F0E0612FA1E0B0E03F914F9150E075
:10076C000E94DA3F10E51F93FE01A1E0B0E04F912B
:10077C000E94B73F18810895CF93DF9310E51A9329
:10078C000A811B811A930A93FE0133968F011A93E7
:10079C000A9310E001E01A930A930E94D03FDF9174
:1007AC00CF9110E007E00E946A4008952297CF9302
:1007BC00DF9310E51A930F8118851A930A93FE01A3
:1007CC0035968F011A930A9310E004E01A930A935A
:1007DC000E94D03FDF91CF9110E007E00E946A4069
:1007EC00089513E910937A0011E00E94794013ECFC
:1007FC0010937A0010917A001071103010E009F00B
:10080C001FEF112311F40C94000413E810937A00D9
:10081C001091790010931C040895109145022B98A7
:10082C001EBD1DB517FFFDCF1EB5109346022B9AAA
:10083C000895109142022B981EBD1DB517FFFDCFD8
:10084C001EB510934402109141021EBD1DB517FF39
:10085C00FDCF1EB5109343022B9A089510913C02C4
:10086C002B981EBD1DB517FFFDCF1EB51093400272
:10087C0010913B021EBD1DB517FFFDCF1EB5109389
:10088C003F0210913A021EBD1DB517FFFDCF1EB5DC
:10089C0010933E02109139021EBD1DB517FFFDCFFE
:1008AC001EB510933D022B9A08951091370229988A
:1008BC001EBD1DB517FFFDCF109136021EBD1DB517
:1008CC0017FFFDCF299A08951091100408E0449861
:1008DC0017FD449A459A110F45980A95C1F708954A
:1008EC00E0E0F7E01081459808B117FB04F908B96E
:1008FC00459A16FB04F908B9459A15FB04F908B991
:10090C00459A14FB04F908B9459A13FB04F908B984
:10091C00459A12FB04F908B9459A11FB04F908B978
:10092C00459A10FB04F908B9459A4598E395D1F618
:10093C000895109115041EBD1DB517FFFDCF1EB5F2
:10094C00109316040895289815E0109315040E942E
:10095C009F040E949F04289A1091160408952898C9
:10096C0015E0109315040E949F040E949F0410919F
:10097C0016041170103010E009F41FEF112311F45C
:10098C000C94BB04289A0895289816E0109315042B
:10099C000E949F04289A08950E94CA04289811E086
:1009AC00109315040E949F0410E0109315040E94EC
:1009BC009F04289A0E94B50408950E94CA0428989E
:1009CC0011E0109315040E949F041FE3109315046B
:1009DC000E949F04289A0E94B50408950E94CA049C
:1009EC0028983B812A811981088100931704109360
:1009FC0018042093190430931A0410E21093150470
:100A0C000E949F0410911904109315040E949F04D6
:100A1C0010911804109315040E949F041091170450
:100A2C00109315040E949F04289A0E94B5041091FB
:100A3C0016041072103010E009F01FEFE894112327
:100A4C0009F068941091050412F9109305040091B3
:100A5C000504112702FD1FEF109508950E94CA048A
:100A6C00289817EC109315040E949F04289A0E9452
:100A7C00B504109116041072103010E009F01FEF3D
:100A8C00E894112309F068941091050412F910935D
:100A9C00050400910504112702FD1FEF1095089520
:100AAC00219709811A8101501040102F18830E9440
:100ABC00CA0428983E812D811C810B810093170458
:100ACC00109318042093190430931A0412E0109315
:100ADC0015040E949F0410911904109315040E9490
:100AEC009F0410911804109315040E949F041091F8
:100AFC001704109315040E949F04E7E0F0E0FA93AA
:100B0C00EA9310E01083EF93FF931A81FF91EF911A
:100B1C001A931081088101171FEF08F01127112378
:100B2C0011F00C94AE05172DE0E0F7E01F7F0027C5
:100B3C00E10FF01F1081109315040E949F04E981AE
:100B4C00FA81108113951083112311F00C949005E8
:100B5C002396289A0E94B504109116041072103036
:100B6C0010E009F01FEFE894112309F0689410913C
:100B7C00050412F91093050400910504112702FDD8
:100B8C001FEF1095089521970E94B5040A811B81CF
:100B9C0001501040102F18833F812E811D810C8134
:100BAC0000931704109318042093190430931A041B
:100BBC0028981BE0109315040E949F0410911904AF
:100BCC00109315040E949F0410911804109315049F
:100BDC000E949F0410911704109315040E949F0407
:100BEC0010E0109315040E949F04E7E0F0E0FA93E4
:100BFC00EA9310E01083EF93FF931A81FF91EF912A
:100C0C001A931081088101171FEF08F01127112387
:100C1C0011F00C943B060E949F041C81112311F4CB
:100C2C000C942606172D1F9310911604E0E0F6E0A5
:100C3C00AF91AF7FBB27EA0FFB1F10830C943206DA
:100C4C00172D1F9310911604E0E0F7E0AF91AF7FE2
:100C5C00BB27EA0FFB1F1083E981FA8110811395E2
:100C6C001083112311F00C9408062396289A0895EA
:100C7C00E6E3F2E0EF93FF931881FF91EF9111936C
:100C8C00E7E3F2E010E011930E945B040E9434044D
:100C9C0000913D0210913E0220913F0230914002A2
:100CAC000895E6E3F2E0EF93FF931881FF91EF9143
:100CBC001193E7E3F2E010E811930E945B04E1E486
:100CCC00F2E0EF93FF931981FF91EF911193E2E41E
:100CDC00F2E010E011930E941F040895E6E3F2E0A5
:100CEC00EF93FF931881FF91EF911193E7E3F2E0FB
:100CFC0010E811930E945B0409811A810093410250
:100D0C00109342020E941F040895E6E3F2E0EF9371
:100D1C00FF931881FF91EF911193E7E3F2E010E854
:100D2C0011930E945B043C812B811A8109810093F1
:100D3C00390210933A0220933B0230933C020E94FA
:100D4C0034040895CF93DF9310EF1A930E943E065C
:100D5C00DF91CF9100935A0210935B0220935C02B7
:100D6C0030935D02EAE0F0E00E94C14000935A0229
:100D7C0010935B0220935C0230935D02CF93DF9360
:100D8C0000915A0210915B0220915C0230915D023D
:100D9C003A932A931A930A9310EF1A930E948B0694
:100DAC00DF91CF91EEE0F0E00E94C14000935A0237
:100DBC0010935B0220935C0230935D02CF93DF9320
:100DCC0000915A0210915B0220915C0230915D02FD
:100DDC003A932A931A930A9311EF1A930E948B0653
:100DEC00DF91CF9108952297CF93DF931FEF1A9342
:100DFC000E94DF00DF91CF911091A2021370188333
:100E0C00E8E0F0E0FA93EA9310E0108313E01A9311
:100E1C001081088101171FEF08F01127112311F021
:100E2C000C944807182D1F931B81110F110F0F9154
:100E3C00100FEEE1F3E01F700027E10FF01F10819F
:100E4C001C83182D133010E009F41FEF112311F43B
:100E5C000C9434071C8108E010271C83CF93DF937C
:100E6C001C811A93182D1B5B1A930E945706DF9155
:100E7C00CF91E981FA81108113951083112311F020
:100E8C000C940F07239610E002E30E946A40CF9364
:100E9C00DF9310E01A930E94DF00DF91CF91089549
:100EAC0010E004E60E946A40CF93DF9310E01A939F
:100EBC0018E41A930E945706DF91CF9110E004E6D4
:100ECC000E946A40CF93DF931FEF1A930E94DF00BA
:100EDC00DF91CF91CF93DF930E94F906DF91CF91F1
:100EEC00CF93DF9310E01A930E94DF00DF91CF9134
:100EFC0008952397CF93DF931FEF1A930E94DF007F
:100F0C00DF91CF91E8E0F0E0FA93EA9310E01083E0
:100F1C001FE11A931081088101171FEF08F01127A8
:100F2C00112311F00C94BD07182DEEEDF2E01F719A
:100F3C000027110F001FE10FF01F008111811C838E
:100F4C000B83CF93DF930B811C811A930A93182D7B
:100F5C0010561A930E947406DF91CF91E981FA81A1
:100F6C00108113951083112311F00C949107239683
:100F7C00E8E0F0E0FA93EA9310E010831FE11A9393
:100F8C001081088101171FEF08F01127112311F0B0
:100F9C000C94ED07182DE4EAF2E01F710027E10F25
:100FAC00F01F10811D83CF93DF931D811A93182D91
:100FBC0010541A930E945706DF91CF91E981FA8160
:100FCC00108113951083112311F00C94C7072396ED
:100FDC00CF93DF9310E01A930E94DF00DF91CF9143
:100FEC0008951DE00E943A401AE00E943A4008958C
:100FFC0013E20E943A4010913302105D0E943A4075
:10100C001AE30E943A40CF93DF9318E0412A0AE397
:10101C0010E41A930A930091520210915302CF9349
:10102C00DF931A930A9310E01A9310E01A9310E2CC
:10103C001A93689443F8689445F8E89454F855F872
:10104C000E949544DF91CF91DF91CF911DE30E94D7
:10105C003A400895CF93DF9318E0412A0AE310E455
:10106C001A930A93E9EBF3E00E944442DF91CF918B
:10107C000E94F7070895229710916102112311F431
:10108C000C94560816E00E943A401A810E943A408D
:10109C0010E00E943A4010E00E943A400C949A08EA
:1010AC0010E00FEF00935202109353020E94FE07C0
:1010BC00CF93DF9318E0412A0AE310E41A930A93C2
:1010CC001C81CF93DF931A9310E01A9310E01A93BC
:1010DC0010E21A93689443F80E945C42DF91CF911E
:1010EC00DF91CF9110E20E943A40CF93DF9318E04A
:1010FC00412A0AE310E41A930A93EFEAFFE8EF930C
:10110C00FF931C81012F1127ADE0B0E0E89445F866
:10111C000E946A45FF91EF91E00FF11F0E943B4244
:10112C00DF91CF910E94F70708950E94FE07CF939D
:10113C00DF9318E0412A0AE310E41A930A93E0E9DA
:10114C00F3E00E944442DF91CF910E94F70708958B
:10115C0010916102112311F40C94C90816E00E943D
:10116C003A4010E00E943A40009157021091580208
:10117C000E943A400091570210915802102F0E9481
:10118C003A400C940009E0E9F3E0EF93FF933196B9
:10119C00FA93EA9318E21A9317EF41221FEB4122BC
:1011AC0000915A0210915B0220915C0230915D0219
:1011BC00CF93DF933A932A931A930A9310E01A93DE
:1011CC0010E01A9310E21A93689445F8E89454F8D6
:1011DC0055F842F80E949C42DF91CF9118E21F9380
:1011EC0018810F91011B102FFF91EF911083239603
:1011FC000E949B080895009157021091580217FF06
:10120C0003C03FEF2FEF02C03327222700935A026F
:10121C0010935B0220935C0230935D020E94AE0837
:10122C00089510916002012F11270093570210931B
:10123C0058020E94010908950E94FE07E0E9F3E0BC
:10124C00EF93FF933196FA93EA9318E21A9317EF00
:10125C0041221FEB412200915A0210915B02209116
:10126C005C0230915D02CF93DF933A932A931A93E9
:10127C000A9310E01A9310E01A9310E21A936894F0
:10128C0045F8E89454F855F842F80E949C42DF91D6
:10129C00CF9118E21F9318810F91011B102FFF9112
:1012AC00EF9110832396CF93DF9318E0412A0AE342
:1012BC0010E41A930A93E0E9F3E00E944442DF91B0
:1012CC00CF9110E20E943A401BE50E943A4014E292
:1012DC000E943A40E0E9F3E0EF93FF933196FA93E2
:1012EC00EA9318E21A9317EF41221FEB4122009167
:1012FC005A0210915B0220915C0230915D02B801A0
:10130C00C901492F0E940445482F0E940445472FCC
:10131C000E940445462F0E94044518E21F93188131
:10132C000F91011B102FFF91EF9110832396CF93F8
:10133C00DF9318E0412A0AE310E41A930A93E0E9D8
:10134C00F3E00E944442DF91CF911DE50E943A40A8
:10135C000E94F70708950E94FE07E0E9F3E0EF937F
:10136C00FF933196FA93EA9318E21A9317EF4122FE
:10137C001FEB412200915A0210915B0220915C02FA
:10138C0030915D02CF93DF933A932A931A930A9389
:10139C0010E01A9310E01A9310E21A93689445F82F
:1013AC00E89454F855F842F80E949C42DF91CF9192
:1013BC0018E21F9318810F91011B102FFF91EF91D1
:1013CC0010832396CF93DF9318E0412A0AE310E4AD
:1013DC001A930A93E0E9F3E00E944442DF91CF9123
:1013EC00CF93DF9318E0412A0AE310E41A930A938F
:1013FC00EDECFCE80E943B42DF91CF91CF93DF9361
:10140C0018E0412A0AE310E41A930A93E9EDF3E099
:10141C000E944442DF91CF911DE50E943A400E9408
:10142C00F70708950E94A9041F7E103010E009F000
:10143C001FEF112311F40C943E0A0E94FE07CF9368
:10144C00DF9318E0412A0AE310E41A930A93E0EDC3
:10145C00FCE80E943B421DE00E9411451AE00E94EC
:10146C001145DF91CF911FEF0C94410A0C94410A66
:10147C0010E00C94410A08951091FB03112311F410
:10148C000C947F0ACF93DF9310E01A9310E01A9319
:10149C0010E01A930E94E03EDF91CF91CF93DF933F
:1014AC0018E0412A0AEB1EE31A930A93E8EEFCE8D3
:1014BC000E943B42DF91CF91CF93DF9310E01A93C0
:1014CC0010E01A9311E01A930E94E03EDF91CF9145
:1014DC00CF93DF9318E0412A0AEB1EE31A930A9389
:1014EC00E1EFFCE80E943B42DF91CF9110E00E94BB
:1014FC00F83E08951091FB03112311F40C94A20AE9
:10150C00CF93DF9310E01A9310E01A9311E01A9323
:10151C000E94E03EDF91CF91CF93DF9318E0412AF8
:10152C000AEB1EE31A930A93EAEFFCE80E943B4293
:10153C00DF91CF910C94A60A10E002E00E946A4061
:10154C0008951091FB03112311F40C94DD0ACF9331
:10155C00DF9310E01A9310E01A9311E01A930E9493
:10156C00E03EDF91CF91CF93DF9318E0412A0AEB55
:10157C001EE31A930A93E3E0FDE80E943B42DF91DD
:10158C00CF91CF93DF9310E01A9310E01A9310E0F1
:10159C001A930E94E03EDF91CF9110E00E94F83E3A
:1015AC0010E004E6E8E4F2E0B1E00E94224608957F
:1015BC001127062D017009F41095112311F40C94C8
:1015CC003A0B10E004E6E8E4F2E0B1E00E942246B7
:1015DC001091FB03112311F40C942D0BCF93DF937B
:1015EC0010E01A9310E01A9310E01A930E94E03E58
:1015FC00DF91CF91CF93DF9318E0412A0AEB1EE3E2
:10160C001A930A9300910B0410910C0420910D0471
:10161C0030910E04CF93DF933A932A931A930A9343
:10162C0018E01A9300E00A9310E21A93689443F8B6
:10163C00689445F8E89454F855F842F80E949C4296
:10164C00DF91CF91DF91CF9110E00E94F83ECF93C4
:10165C00DF9318E0412A0AE310E41A930A931EE27E
:10166C000E941145DF91CF9108952497CF93DF937A
:10167C0013E01A930E943E06DF91CF9100913D0238
:10168C0010913E0220913F02309140023B832A830D
:10169C0019830883CF93DF9318E0412A0AE310E4FF
:1016AC001A930A93ECE0FDE80E943B42DF91CF9144
:1016BC00CF93DF9318E0412A0AE310E41A930A93BC
:1016CC003D812C811B810A81689443F8B801C901C2
:1016DC00492F0E940445482F0E940445472F0E9421
:1016EC000445462F0E940445DF91CF91CF93DF93A1
:1016FC0018E0412A0AE310E41A930A93E5ECFCE89B
:10170C000E943B42DF91CF910E94F70708952897E2
:10171C001AE314B91FE915B910E717B91FEC18B97A
:10172C00109105041B7F10930504469815E00E9448
:10173C007940469A15E00E94794010E317B916E2F9
:10174C0006EB009352021093530211E004EF0E9437
:10175C006A401BEB14B91FE915B90E94FE0711274B
:10176C0037991FEF112311F40C94CC0BCF93DF930B
:10177C0018E0412A0AE310E41A930A93E9E1FDE820
:10178C000E943B42DF91CF910C94DF0BCF93DF9300
:10179C0018E0412A0AE310E41A930A93E9E2FDE8FF
:1017AC000E943B42DF91CF9110910504146010937D
:1017BC0005040E94A806CF93DF930E943B0BDF9198
:1017CC00CF910895E7E3F2E010E81193E6E3F2E03D
:1017DC00EF93FF93109112041F5FFF91EF91119300
:1017EC000E945B0410911304109345020E94130491
:1017FC00E6E3F2E01091120411930E945B04089549
:10180C00E7E3F2E010E81193E6E3F2E0EF93FF93E5
:10181C00109112041F5FFF91EF9111930E945B04D2
:10182C0010911304109345020E94130408956597B8
:10183C000E94FE07CF93DF9318E0412A0AE310E4DD
:10184C001A930A93E9E4FDE80E943B421DE00E94D2
:10185C0011451AE00E941145DF91CF9110E01A87D3
:10186C0010E0188710E01C8B10E0198B1FEF188B01
:10187C0000E010E020E030E000930B0410930C0427
:10188C0020930D0430930E0410E000E01C870B87AE
:10189C000E94420A10E000E01983088310E000E087
:1018AC001B830A83388D2F891E890D893F832E83D4
:1018BC001D830C831A851095112311F40C94CF0CF5
:1018CC0010E000E01C870B8711275A991FEF109529
:1018DC00E894112309F068941BB112F91BB9CF934A
:1018EC00DF93FE017496FA93EA9314E61A930E941E
:1018FC000340DF91CF911A871A85112311F40C94B0
:10190C00A00C1C89113010E009F41FEF1F931C89E7
:10191C00143010E009F41FEF0F91102B112311F468
:10192C000C949E0C10E000E01C870B870C94CF0CE1
:10193C000C94AA0C15E10E943A40FE013B96A08142
:10194C00B1811196A083B1831C89113010E009F488
:10195C001FEF1F931C89143010E009F41FEF0F9137
:10196C00102B1F931C89183110E009F41FEF0F91F5
:10197C00102B1F930B851C85103009F4043110E0DB
:10198C0011F008F01FEF0F91102B112311F40C9490
:10199C00750C18851095112311F40C94D90C0E9418
:1019AC00800A1FEF18871C89113010E009F41FEF13
:1019BC00112311F40C940B0ECF93DF93FE0173964D
:1019CC00FA93EA9314E61A930E940340DF91CF91A5
:1019DC0019871985112311F40C94050ECF93DF93FD
:1019EC00FE017296FA93EA931AE01A930E9403404E
:1019FC00DF91CF9119871B890FEF011B102F1F93BC
:101A0C001A890F91011710E009F41FEF112311F43B
:101A1C000C94030E10E0198BE8E0F0E0FA93EA93D3
:101A2C0010E010831FE71A931081088101171FEF34
:101A3C0008F01127112311F00C944B0DCF93DF9369
:101A4C00EAE0F0E0FA93EA931AE01A930E9403405A
:101A5C00DF91CF911C871C891F931A2D0F91100FAA
:101A6C001C8B182D1F931A2DE0E0F7E0AF91AF7F80
:101A7C00BB27EA0FFB1F1083E981FA8110811395B4
:101A8C001083112311F00C941B0D2396CF93DF932D
:101A9C00FE017096FA93EA931AE01A930E9403409F
:101AAC00DF91CF911987CF93DF933F812E811D81D9
:101ABC000C813A932A931A930A9310E000E81A9334
:101ACC000A930E945605DF91CF911095112311F4C2
:101ADC000C94770DFE013296A081B1811196A083F2
:101AEC00B183CF93DF933F812E811D810C813A937B
:101AFC002A931A930A9310E000E81A930A931FEFA3
:101B0C001A930E94C905DF91CF91E8E0F0E0FA93B7
:101B1C00EA9310E010831FE71A93108108810117D4
:101B2C001FEF08F01127112311F00C94C70D182D7D
:101B3C00E0E0F6E01F7F0027E10FF01F10811F93FC
:101B4C00182DE0E0F7E01F7F0027E10FF01F108158
:101B5C000F91011710E009F01FEF112311F40C94F1
:101B6C00BE0DFE013396A081B1811196A083B18385
:101B7C00E981FA81108113951083112311F00C94D3
:101B8C00940D239619891F9318890F91011710E052
:101B9C0009F41FEF112311F40C94F90D16E00E94B7
:101BAC003A403F812E811D810C8100581F4F2F4FD1
:101BBC003F4F3F832E831D830C8300910B041091A8
:101BCC000C0420910D0430910E0400581F4F2F4F20
:101BDC003F4F00930B0410930C0420930D0430938F
:101BEC000E040C94030EFE013B96A081B18111965C
:101BFC00A083B18315E10E943A400C94090E10E0C9
:101C0C000FEF1C870B8710E01C8B10E01A871C89C8
:101C1C00143010E009F41FEF1F931C89183110E0E9
:101C2C0009F41FEF0F91102B1F930B851C8510309F
:101C3C0009F4043110E011F008F01FEF0F91102B94
:101C4C00112311F40C94600C16E00E943A40188990
:101C5C001F9319890F91011710E009F01FEF112341
:101C6C0011F40C945D0E0FEF1FEF2FEF3FEF00936D
:101C7C005A0210935B0220935C0230935D020E9427
:101C8C00FE07CF93DF9318E0412A0AE310E41A937E
:101C9C000A93ECE5FDE80E943B421DE00E941145D1
:101CAC001AE00E941145DF91CF910C946D0E0091BA
:101CBC000B0410910C0420910D0430910E04009330
:101CCC005A0210935B0220935C0230935D020881F0
:101CDC001981103009F4003010E009F01FEF1123C6
:101CEC0011F40C94CA0E0FEF1FEF2FEF3FEF009380
:101CFC005A0210935B0220935C0230935D020E94A7
:101D0C00FE07CF93DF9318E0412A0AE310E41A93FD
:101D1C000A93E7E7FDE80E943B42DF91CF91CF9316
:101D2C00DF9318E0412A0AE310E41A930A930A811C
:101D3C001B81CF93DF931A930A9310E01A9310E050
:101D4C001A9310E21A93689443F8E89445F8E894CF
:101D5C0054F855F80E949544DF91CF91DF91CF91C3
:101D6C00CF93DF9318E0412A0AE310E41A930A9305
:101D7C00EDE8FDE80E943B421DE00E9411451AE08F
:101D8C000E941145DF91CF910A811B81103009F41B
:101D9C00003010E009F01FEF112311F40C94270F01
:101DAC000FEF1FEF2FEF3FEF00935A0210935B02E0
:101DBC0020935C0230935D020E94FE07CF93DF9369
:101DCC0018E0412A0AE310E41A930A93EEE9FDE8BD
:101DDC000E943B42DF91CF91CF93DF9318E0412AD1
:101DEC000AE310E41A930A930C811D81CF93DF93BD
:101DFC001A930A9310E01A9310E01A9310E21A93B4
:101E0C00689443F8E89445F8E89454F855F80E941F
:101E1C009544DF91CF91DF91CF91CF93DF9318E071
:101E2C00412A0AE310E41A930A93EDE8FDE80E94B4
:101E3C003B421DE00E9411451AE00E941145DF91C2
:101E4C00CF9108952297CF93DF9312E01A930E94BB
:101E5C003E06DF91CF9111271A991FEF112311F430
:101E6C000C94290F10913F021A3A10E009F41FEF5D
:101E7C00112311F40C940C1010913D02103511F03B
:101E8C000C94580FCF93DF9318E0412A0AE310E427
:101E9C001A930A93E3EBFDE80E943B42DF91CF914A
:101EAC000C94DB0F113511F00C946C0FCF93DF9366
:101EBC0018E0412A0AE310E41A930A93E4ECFDE8D3
:101ECC000E943B42DF91CF910C94DB0F123511F045
:101EDC000C94800FCF93DF9318E0412A0AE310E4AF
:101EEC001A930A93E2EDFDE80E943B42DF91CF91F9
:101EFC000C94DB0F133511F00C94940FCF93DF93EC
:101F0C0018E0412A0AE310E41A930A93ECEDFDE879
:101F1C000E943B42DF91CF910C94DB0F143511F0F2
:101F2C000C94A80FCF93DF9318E0412A0AE310E436
:101F3C001A930A93EAEEFDE80E943B42DF91CF919F
:101F4C000C94DB0F1F3511F00C94BC0FCF93DF9367
:101F5C0018E0412A0AE310E41A930A93E8EFFDE82B
:101F6C000E943B42DF91CF910C94DB0FCF93DF9318
:101F7C0018E0412A0AE310E41A930A93E1E0FEE820
:101F8C000E943B42DF91CF91CF93DF9318E0412A1F
:101F9C000AE310E41A930A9310913D02689443F8F3
:101FAC00412F0E940445DF91CF91CF93DF9318E02E
:101FBC00412A0AE310E41A930A93ECE0FEE80E942B
:101FCC003B42DF91CF91CF93DF9318E0412A0AE394
:101FDC0010E41A930A9310913E02689443F8412F2F
:101FEC000E940445DF91CF91CF93DF9318E0412AF3
:101FFC000AE310E41A930A93E5ECFCE80E943B42D6
:10200C00DF91CF910E94F7070C941C10CF93DF93B4
:10201C0018E0412A0AE310E41A930A93E8E1FEE877
:10202C000E943B42DF91CF910E94F70708952597BC
:10203C000E94FE071E811455109313040E94E80B96
:10204C00CF93DF9318E0412A0AE310E41A930A9322
:10205C0010911304CF93DF931A9310E01A9310E0AE
:10206C001A9310E21A93689443F80E945C42DF9131
:10207C00CF91DF91CF91CF93DF9318E0412A0AE300
:10208C0010E41A930A93EEE2FEE80E943B42DF91C1
:10209C00CF911E81012F11273327222740E050E1D9
:1020AC0060E070E0689445F80E94C6453C832B8341
:1020BC001A83098300E010E020E030E000930B0469
:1020CC0010930C0420930D0430930E04E8E0F0E020
:1020DC00FA93EA9310E010831FE01A9310810881A1
:1020EC0001171FEF08F01127112311F00C94471161
:1020FC00CF93DF933F812E811D810C813A932A93DC
:10210C001A930A9311E000E01A930A9310E01A93C1
:10211C000E94C905DF91CF911885112311F40C94FD
:10212C00CE10EAE0F0E0FA93EA9310E010831FEF90
:10213C001A931081088101171FEF08F01127112342
:10214C0011F00C94CB101A2DE0E0F7E01F7F002764
:10215C00E10FF01F10811E83CF93DF9318E0412A0B
:10216C000AE310E41A930A931885689443F8412FF4
:10217C000E940445DF91CF91E981FA81108113957A
:10218C001083112311F00C94A01023960C94E510DD
:10219C00182D1170113010E009F41FEF112311F4F8
:1021AC000C94E510CF93DF9318E0412A0AE310E476
:1021BC001A930A931EE20E941145DF91CF91EAE037
:1021CC00F0E0FA93EA9310E010831FE31A93108166
:1021DC00088101171FEF08F01127112311F00C943F
:1021EC001D11E0E0F7E0EF93FF931A2D012F11275B
:1021FC00000F111F000F111FFF91EF91E00FF11F46
:10220C0001911191219131910093390210933A026D
:10221C0020933B0230933C020E943404E981FA8102
:10222C00108113951083112311F00C94EE1023964A
:10223C003F812E811D810C8100501F4F2F4F3F4F2E
:10224C003F832E831D830C8300910B0410910C048F
:10225C0020910D0430910E0400501F4F2F4F3F4F13
:10226C0000930B0410930C0420930D0430930E0474
:10227C00E981FA81108113951083112311F00C94CC
:10228C00751023960E94060C0E94DE0A11E004EFE2
:10229C00E8E4F2E0B1E00E94224600910B041091B8
:1022AC000C0420910D0430910E0400935A021093EB
:1022BC005B0220935C0230935D021FEF1093790355
:1022CC0010E002E30E946A40CF93DF930E94280F34
:1022DC00DF91CF9108952D970E94FE07CF93DF9346
:1022EC0018E0412A0AE310E41A930A931F85CF934E
:1022FC00DF931A9310E01A9310E01A9310E21A93DA
:10230C00689443F80E945C42DF91CF91DF91CF91AA
:10231C00CF93DF9318E0412A0AE310E41A930A934F
:10232C00EEE3FEE80E943B42DF91CF91CF93DF9327
:10233C0010E01A9318E41A930E945706DF91CF917C
:10234C0010E004E60E946A401D851C5A012F1127DB
:10235C003327222740E050E160E070E0689445F8B4
:10236C000E94C6453C872B871A87098710E000E03E
:10237C0018870F8310E000E019830883E8E0F0E091
:10238C00FA93EA9310E010831FE01A9310810881EE
:10239C0001171FEF08F01127112311F00C94C8122C
:1023AC00CF93DF933F852E851D850C853A932A9319
:1023BC001A930A9311E000E01A930A9310E01A930F
:1023CC000E94C905DF91CF9110E000E01E830D83C0
:1023DC0010E000E01C830B830A851B851987088796
:1023EC00EAE0F0E0FA93EA9310E0108317E01A9316
:1023FC001081088101171FEF08F01127112311F02C
:10240C000C943D12CF93DF9310E51A930E851F8524
:10241C001A930A9317E000E00F931F930B851C850A
:10242C003F912F91020F131F1A930A9310E000E2B1
:10243C001A930A930E94D03FDF91CF9110E00AE0EB
:10244C000E946A4008851985005E1F4F198708870E
:10245C000D851E85005E1F4F1E870D87E981FA8151
:10246C00108113951083112311F00C94FF112396F6
:10247C0010E51F93088519851F93E89440F808858B
:10248C001985102FE6E1F0E0612FA1E0B0E03F915B
:10249C004F9150E00E94DA3FCF93DF9310E51A93EF
:1024AC0016E000E01A930A9311E000E01A930A93E5
:1024BC000E94B23FDF91CF91EAE0F0E0FA93EA9309
:1024CC0010E010831FEF1A931081088101171FEF82
:1024DC0008F01127112311F00C949E121A2DE0E034
:1024EC00F7E01F7F0027E10FF01F10811F931A2DBB
:1024FC00E0E0F6E01F7F0027E10FF01F10810F9145
:10250C00011710E009F01FEF112311F40C94951230
:10251C00FE013696A081B1811196A083B183E98129
:10252C00FA81108113951083112311F00C946B1206
:10253C0023960B811C81103009F4003010E009F453
:10254C001FEF112311F40C94B0121EE20E943A40BA
:10255C000C94B31213E20E943A403F852E851D85E0
:10256C000C8500501F4F2F4F3F4F3F872E871D87E5
:10257C000C87E981FA81108113951083112311F0D6
:10258C000C94CD112396CF93DF9318E0412A0AE3E4
:10259C0010E41A930A931DE50E9411451DE00E9458
:1025AC0011451AE00E941145DF91CF9111E004EF23
:1025BC00E8E4F2E0B1E00E94224600910B04109195
:1025CC000C0420910D0430910E0400935A021093C8
:1025DC005B0220935C0230935D021FEF1093790332
:1025EC00CF93DF930E94F906DF91CF910881198177
:1025FC00103009F4003010E009F01FEF112311F432
:10260C000C944D130E94FE07CF93DF9318E0412AE0
:10261C000AE310E41A930A93EDE5FEE80E943B42AC
:10262C00DF91CF91CF93DF9318E0412A0AE310E4B6
:10263C001A930A930A811B81CF93DF931A930A93FF
:10264C0010E01A9310E01A9310E21A93689443F86E
:10265C00E89445F8E89454F855F80E949544DF91B5
:10266C00CF91DF91CF91CF93DF9318E0412A0AE30A
:10267C0010E41A930A93EDE8FDE80E943B421DE03A
:10268C000E9411451AE00E941145DF91CF910895E7
:10269C000E94FE07CF93DF9318E0412A0AE310E46F
:1026AC001A930A93E7E7FEE80E943B42DF91CF9131
:1026BC000E94F7071091FE03112311F40C94971349
:1026CC0001E010E020E030E000935A0210935B022E
:1026DC0020935C0230935D02E9EDF3E0EF93FF93FE
:1026EC003196FA93EA931FE11A9317EF41221FEBED
:1026FC004122E4E8FEE80E943B421FE11F9318814F
:10270C000F91011B102FFF91EF91108323960E94C4
:10271C00B109CF93DF9312E61A930E947600DF91F2
:10272C00CF911091FC03112311F40C94CE1302E001
:10273C0010E020E030E000935A0210935B022093EB
:10274C005C0230935D02E9EDF3E0EF93FF93319679
:10275C00FA93EA931FE11A9317EF41221FEB4122E0
:10276C00E4E9FEE80E943B421FE11F9318810F91A0
:10277C00011B102FFF91EF91108323960E94B1093A
:10278C00CF93DF9310E61A930E947600DF91CF91DE
:10279C001091FD03112311F40C94051403E010E0C7
:1027AC0020E030E000935A0210935B0220935C020D
:1027BC0030935D02E9EDF3E0EF93FF933196FA93DA
:1027CC00EA931FE11A9317EF41221FEB4122E8EA2B
:1027DC00FEE80E943B421FE11F9318810F91011BE1
:1027EC00102FFF91EF91108323960E94B109CF9384
:1027FC00DF9311E61A930E947600DF91CF9100E0EF
:10280C0010E020E030E000937203109373032093E8
:10281C0074033093750310910104112311F40C947B
:10282C00401404E010E020E030E000935A021093D2
:10283C005B0220935C0230935D02E9EDF3E0EF93D1
:10284C00FF933196FA93EA931FE11A9317EF412203
:10285C001FEB4122ECEBFEE80E943B421FE11F9371
:10286C0018810F91011B102FFF91EF91108323966C
:10287C000E94B10910910004112311F40C947514E9
:10288C0010E8109548E333E00E941F3F05E010E08C
:10289C0020E030E000935A0210935B0220935C021C
:1028AC0030935D02E9EDF3E0EF93FF933196FA93E9
:1028BC00EA931FE11A9317EF41221FEB4122EDEC33
:1028CC00FEE80E943B421FE11F9318810F91011BF0
:1028DC00102FFF91EF91108323960E94B109109154
:1028EC00FB03112311F40C94A41406E010E020E077
:1028FC0030E000935A0210935B0220935C023093F9
:10290C005D02E9EDF3E0EF93FF933196FA93EA93CE
:10291C001FE11A9317EF41221FEB4122E0EEFEE874
:10292C000E943B421FE11F9318810F91011B102F36
:10293C00FF91EF91108323960E94B1090E94FE072C
:10294C00CF93DF9318E0412A0AE310E41A930A9319
:10295C00ECEEFEE80E943B42DF91CF910E94F7071C
:10296C000895219700916D03112704FD1FEF10931B
:10297C006E0200916D03112700FD1FEF10936F0283
:10298C0000916D03112701FD1FEF10937002009150
:10299C006D03112702FD1FEF1093710200916D035F
:1029AC00112703FD1FEF1093720210E018830091A2
:1029BC006F03112700FD1FEF112311F40C94E81481
:1029CC0011E0188300916F03112701FD1FEF1123F4
:1029DC0011F40C94F31412E0188300916F03112777
:1029EC0002FD1FEF112311F40C94FE1413E0188355
:1029FC0000916F03112703FD1FEF112311F40C94A9
:102A0C00091514E0188300916F03112704FD1FEFC3
:102A1C00112311F40C94141515E0188318811093DC
:102A2C006D020895219700916D03112705FD1FEF8D
:102A3C001093810208952597CF93DF9310E01A939A
:102A4C000E943E06DF91CF9110913D021F701093B2
:102A5C00630310913D0212951F7010936403109143
:102A6C0064031F93109163030F91011710E011F091
:102A7C0008F01FEF10936503CF93DF9310917D0245
:102A8C001A9319E21A930E945706DF91CF91CF93B4
:102A9C00DF9310917E021A931AE21A930E94570642
:102AAC00DF91CF91CF93DF9310917F021A931BE2AA
:102ABC001A930E945706DF91CF91CF93DF93109119
:102ACC0080021A931CE21A930E945706DF91CF9151
:102ADC001091980217701F9310918202110F110F11
:102AEC00110F110F0F91102B1A83CF93DF931A81B3
:102AFC001A931BE01A930E945706DF91CF91109105
:102B0C006F021F931091700210950F9110231F9359
:102B1C0010919F020F911023112311F40C94CB15DB
:102B2C00E8E0F0E0FA93EA9310E0108317E01A93D0
:102B3C001081088101171FEF08F01127112311F0E4
:102B4C000C94C815182D105F1F83182DE4E6F2E0C5
:102B5C001F730027E10FF01F108116951D83CF9373
:102B6C00DF931D811A9318851A930E945706DF91E3
:102B7C00CF91E981FA81108113951083112311F003
:102B8C000C949F1523960C94FD15E8E0F0E0FA9355
:102B9C00EA9310E0108317E01A9310810881011753
:102BAC001FEF08F01127112311F00C94FC15182DB0
:102BBC00105F1F83182DE4E6F2E01F730027E10F6E
:102BCC00F01F10811D83CF93DF931D811A931885FD
:102BDC001A930E945706DF91CF91E981FA811081F7
:102BEC0013951083112311F00C94D4152396E8E05F
:102BFC00F0E0FA93EA9310E1108318E11A93108134
:102C0C00088101171FEF08F01127112311F00C9404
:102C1C002E16182D105F1F83182DE4E6F2E01F739B
:102C2C000027E10FF01F10811D83CF93DF931D81CF
:102C3C001A9318851A930E945706DF91CF91E98158
:102C4C00FA81108113951083112311F00C94061640
:102C5C00239610916F02112311F40C94C616109147
:102C6C009F02112311F40C944716CF93DF9310E0BD
:102C7C001A9318E11A930E945706DF91CF910C9486
:102C8C006C1610917002112311F40C94581618E064
:102C9C00E4E6F2E01F730027E10FF01F10811A83A6
:102CAC000C94621618E0E4E6F2E01F730027E10FC3
:102CBC00F01F108116951A83CF93DF931A811A9304
:102CCC0018E11A930E945706DF91CF91109172026E
:102CDC00112311F40C947E16CF93DF9311E01A9309
:102CEC001BE11A930E945706DF91CF910C94881622
:102CFC00CF93DF9310E01A931BE11A930E945706AF
:102D0C00DF91CF9110917002112311F40C949B164A
:102D1C00CF93DF93109191021A931AE11A930E94A8
:102D2C005706DF91CF910C94A616CF93DF93109199
:102D3C0090021A931AE11A930E945706DF91CF91D1
:102D4C0010917102112311F40C94B916CF93DF93E7
:102D5C00109193021A9319E11A930E945706DF916E
:102D6C00CF910C94C416CF93DF93109192021A93C7
:102D7C0019E11A930E945706DF91CF910C94E31638
:102D8C0018E0E4E6F2E01F730027E10FF01F10815A
:102D9C001A83CF93DF931A811A9318E11A930E9426
:102DAC005706DF91CF91CF93DF9310E01A931AE17E
:102DBC001A930E945706DF91CF9110E01A8310915D
:102DCC006E02112311F40C94F016FE013296108150
:102DDC001395108310918102112311F40C94001798
:102DEC00FE013296108113951083FE0132961081EC
:102DFC0013951083CF93DF931A811A931DE01A93C6
:102E0C000E945706DF91CF9110916D02103011F096
:102E1C000C9412170C941C17123011F00C941817F8
:102E2C000C941C17143011F00C943217CF93DF93C1
:102E3C0012ED1A9315E01A930E945706DF91CF9169
:102E4C00CF93DF9310E01A9316E01A930E94570663
:102E5C00DF91CF910C945A17113011F00C94381754
:102E6C000C944217133011F00C943E170C9442172B
:102E7C00153011F00C945A17CF93DF9310918D02EB
:102E8C001A9315E01A930E945706DF91CF91CF93B6
:102E9C00DF9310918C021A9316E01A930E94570636
:102EAC00DF91CF910C945A1710916D02103011F0E4
:102EBC000C9462170C946617113011F00C947E1759
:102ECC00CF93DF93109186021A9318E01A930E9405
:102EDC005706DF91CF91CF93DF93109189021A930C
:102EEC0014E01A930E945706DF91CF910C94C217ED
:102EFC00123011F00C9484170C948817133011F0C5
:102F0C000C94A017CF93DF93109187021A9318E0BB
:102F1C001A930E945706DF91CF91CF93DF931091B4
:102F2C008A021A9314E01A930E945706DF91CF91EC
:102F3C000C94C217143011F00C94A6170C94AA1709
:102F4C00153011F00C94C217CF93DF9310918802B7
:102F5C001A9318E01A930E945706DF91CF91CF93E2
:102F6C00DF9310918B021A9314E01A930E94570668
:102F7C00DF91CF910C94C21710917903112311F4A6
:102F8C000C941618CF93DF931091A00211701A9322
:102F9C0017E01A930E945706DF91CF9110918E0281
:102FAC0013701F9310918F02110F110F110F110F2E
:102FBC000F91102B1A83CF93DF931A811A9319E078
:102FCC001A930E945706DF91CF91109194021F9390
:102FDC001091960225E00E9450450F91102B1F93E3
:102FEC001091950226E00E9450450F91102B1A83E8
:102FFC00CF93DF931A811A931CE01A930E94570601
:10300C00DF91CF91CF93DF93109199021A931EE029
:10301C001A930E945706DF91CF9110E01093790319
:10302C00089522970091520210915302D8012AE080
:10303C0030E0689445F80E948C458F01507821F05F
:10304C00019509F41A951095102F188300915202CE
:10305C0010915302689442F8A0E0B0E05FEF0E9438
:10306C00354655233AF4A9EFB0E055270E94354672
:10307C0055230AF418C0CF93DF930091520210919C
:10308C005302102F1A930E943E06DF91CF910093AA
:10309C005A0210935B0220935C0230935D020E94F3
:1030AC0022090C947A1C103011F00C946D180B3F03
:1030BC0011F00C946D180091070410910804009302
:1030CC005702109358020E9401090C947A1C10307C
:1030DC0011F00C9479180C3F11F00C9479180E9493
:1030EC004E130C947A1C103011F00C9495180D3F63
:1030FC0011F00C949518CF93DF9318E0412A0AE352
:10310C0010E41A930A93E9EBF3E00E944442DF9136
:10311C00CF910E94F7070C947A1C0C947A1C1030F7
:10312C0011F00C94CC180E3F11F00C94CC180E949A
:10313C00FE07CF93DF9318E0412A0AE310E41A93B9
:10314C000A93E8E8FCE80E943B42DF91CF91CF93D1
:10315C00DF9318E0412A0AE310E41A930A93E5EB93
:10316C00FCE80E943B42DF91CF91CF93DF9318E0B4
:10317C00412A0AE310E41A930A931DE50E941145B3
:10318C00DF91CF910E94F7070C947A1C103011F04C
:10319C000C94DE180F3F11F00C94DE18CF93DF93D4
:1031AC0010E01A930E944108DF91CF910C947A1C85
:1031BC00689442F8ACE2B1E05FEF0E9435465523CB
:1031CC003AF4A3E4B1E055270E94354655230AF49E
:1031DC0016C000915202109153020C521140102F44
:1031EC0019831981EDE1F4E01F710027E10FF01F45
:1031FC001081109360020E9417090C947A1C1130F4
:10320C0011F00C941519043411F00C94151910913B
:10321C006603109360020E9417090C947A1C1130FB
:10322C0011F00C942519053411F00C9425191091FA
:10323C006703109360020E9417090C947A1C1130DA
:10324C0011F00C943519063411F00C9435191091B9
:10325C006A03109360020E9417090C947A1C1130B7
:10326C0011F00C944519073411F00C944519109178
:10327C006803109360020E9417090C947A1C113099
:10328C0011F00C945519083411F00C945519109137
:10329C006903109360020E9417090C947A1C113078
:1032AC0011F00C9465190E3511F00C9465191091F0
:1032BC008402109360020E9417090C947A1C11303E
:1032CC0011F00C9475190F3511F00C9475191091AF
:1032DC008502109360020E9417090C947A1C11301D
:1032EC0011F00C948519003611F00C94851910917D
:1032FC00A202109360020E9417090C947A1C689425
:10330C0042F8A0E9B1E05FEF0E94354655233AF44C
:10331C00AFEAB1E055270E94354655230AF416C092
:10332C00009152021091530200591140102F188332
:10333C001881E4E6F2E01F730027E10FF01F108103
:10334C00109360020E9417090C947A1C689442F83E
:10335C00A4EFB1E05FEF0E94354655233AF4A3E1A8
:10336C00B2E055270E94354655230AF417C0009148
:10337C00520210915302045F1140102F105E1883FB
:10338C001881E4E6F2E01F730027E10FF01F1081B3
:10339C00109360020E9417090C947A1C689442F8EE
:1033AC00A8E5B2E05FEF0E94354655233AF4A7E753
:1033BC00B2E055270E94354655230AF416C00091F9
:1033CC0052021091530208551240102F1883188185
:1033DC00E4EAF2E01F710027E10FF01F1081109357
:1033EC0060020E9417090C947A1C689442F8A0E8B9
:1033FC00B2E05FEF0E94354655233AF4AFE8B2E0F5
:10340C0055270E94354655230AF416C000915202E6
:10341C001091530200581240102F18831881E4ECBD
:10342C00F2E01F700027E10FF01F10811093600273
:10343C000E9417090C947A1C689442F8A4E9B2E033
:10344C005FEF0E94354655233AF4A3EBB2E05527C3
:10345C000E94354655230AF41BC00091520210916C
:10346C00530204591240102F18831881EEEDF2E02C
:10347C001F710027110F001FE10FF01F0081118138
:10348C0000935702109358020E9401090C947A1C65
:10349C00689442F8ACEBB2E05FEF0E9435465523DE
:1034AC003AF4ACECB2E055270E94354655230AF4A9
:1034BC0016C000915202109153020C5B1240102F57
:1034CC0018831881EEE1F3E01F700027E10FF01F65
:1034DC001081109360020E9417090C947A1C13300F
:1034EC0011F00C94881A063E11F00C94881A009175
:1034FC009902112701FD1FEF109360020E9417091A
:10350C000C947A1C133011F00C94981A073E11F09D
:10351C000C94981A1091D802109360020E9417090B
:10352C000C947A1C689442F8A8EEB3E05FEF0E940A
:10353C00354655233AF4A7EEB4E055270E9435469C
:10354C0055230AF41CC00091520210915302085EDC
:10355C001340102F1883E2E3F0E0EF93FF931881F0
:10356C00012F1127FF91EF91E00FF11F0E94B34043
:10357C003196109360020E9417090C947A1C68947F
:10358C0042F8A8EEB4E05FEF0E94354655233AF4BA
:10359C00A7EEB5E055270E94354655230AF41CC00A
:1035AC000091520210915302085E1440102F1883A0
:1035BC00E2E3F1E0EF93FF931881012F1127FF91C4
:1035CC00EF91E00FF11F0E94B3403196109360020F
:1035DC000E9417090C947A1C163211F00C94081BDB
:1035EC000C3A11F00C94081BCF93DF9310919702B7
:1035FC001C5A1A9310E01A930E941D10DF91CF9160
:10360C000C947A1C163211F00C94341B063B11F0FE
:10361C000C94341BCF93DF930E948D0BDF91CF91D1
:10362C0010910504103010E009F01FEF112311F474
:10363C000C942A1BCF93DF9318E01A930E94410835
:10364C00DF91CF910C94321BCF93DF9310E01A9340
:10365C000E944108DF91CF910C947A1C163211F024
:10366C000C94441B003C11F00C94441B0E94A904C4
:10367C00109360020E9417090C947A1C163211F0F8
:10368C000C94771B0E3D11F00C94771BEAE0F0E0E4
:10369C000E94C14000935A0210935B0220935C027B
:1036AC0030935D02E9EDF3E0EF93FF933196FA93DB
:1036BC00EA931FE11A9317EF41221FEB4122E4E03A
:1036CC00FFE80E943B421FE11F9318810F91011BE1
:1036DC00102FFF91EF91108323960E94B1090C9447
:1036EC007A1C163211F00C94AA1B0F3D11F00C949D
:1036FC00AA1BEEE0F0E00E94C14000935A02109326
:10370C005B0220935C0230935D02E9EDF3E0EF93F2
:10371C00FF933196FA93EA931FE11A9317EF412224
:10372C001FEB4122E2E1FFE80E943B421FE11F93A5
:10373C0018810F91011B102FFF91EF91108323968D
:10374C000E94B1090C947A1C163211F00C94E11BF6
:10375C00003E11F00C94E11BCF93DF9312EF1A9300
:10376C000E943E06DF91CF9100935A0210935B02A8
:10377C0020935C0230935D02E9EDF3E0EF93FF934D
:10378C003196FA93EA931FE11A9317EF41221FEB3C
:10379C004122E1E2FFE80E943B421FE11F931881A6
:1037AC000F91011B102FFF91EF91108323960E9414
:1037BC00B1090C947A1C173211F00C94181C0630B9
:1037CC0011F00C94181C00E010E020E030E00093A5
:1037DC005A0210935B0220935C0230935D02E9ED78
:1037EC00F3E0EF93FF933196FA93EA931FE11A9368
:1037FC0017EF41221FEB4122EFE2FFE80E943B4210
:10380C00E2EBF2E00E944E421FE11F9318810F91F0
:10381C00011B102FFF91EF91108323960E94B10989
:10382C000C947A1C173211F00C94601C0E3011F0B1
:10383C000C94601CCF93DF930E94DA02DF91CF913E
:10384C00CF93DF930E947F07DF91CF911FEF1093EF
:10385C0079031FEF109377031FEF1093780300E0A9
:10386C0010E020E030E000935A0210935B022093AA
:10387C005C0230935D02E9EDF3E0EF93FF93319638
:10388C00FA93EA931FE11A9317EF41221FEB41229F
:10389C00E7E3FFE80E943B421FE11F9318810F9161
:1038AC00011B102FFF91EF91108323960E94B109F9
:1038BC000C947A1C173211F00C94721C0F3011F00E
:1038CC000C94721CF8941FE7412204B7037F04BFC9
:1038DC000C94A73C0C947A1CCF93DF9315E01A93AD
:1038EC000E944108DF91CF910895239700915202D5
:1038FC0010915302D8012AE030E0689445F80E94F8
:10390C008C458F01507821F0019509F41A9510958A
:10391C00102F198310916002103010E009F01FEF86
:10392C0018830091520210915302689442F8A0E05F
:10393C00B0E05FEF0E94354655233AF4AFEEB0E0AD
:10394C0055270E94354655230AF414C0CF93DF93B4
:10395C0000915702109158021A930A930091520247
:10396C0010915302102F1A930E947406DF91CF917D
:10397C000C94C722689442F8A0EFB0E05FEF0E946D
:10398C00354655233AF4A9EFB0E055270E94354649
:10399C0055230AF41AC0CF93DF9300915A02109169
:1039AC005B0220915C0230915D023A932A931A9348
:1039BC000A930091520210915302102F1A930E94F5
:1039CC008B06DF91CF910C94C722103011F00C9420
:1039DC00F51C0A3F11F00C94F51C0C94C722103006
:1039EC0011F00C94111D0D3F11F00C94111DCF937F
:1039FC00DF9318E0412A0AE310E41A930A93E9EBE7
:103A0C00F3E00E944442DF91CF910E94F7070C949F
:103A1C00EF220C94C722113011F00C942B1D0E3593
:103A2C0011F00C942B1D10916002109384021FEF67
:103A3C0010937703CF93DF93109160021A930E9437
:103A4C00FB00DF91CF910C94C722113011F00C9434
:103A5C00451D0F3511F00C94451D1091600210930B
:103A6C0085021FEF10937803CF93DF9310916002C0
:103A7C001A930E945501DF91CF910C94C7221130FB
:103A8C0011F00C94561D003611F00C94561D10912B
:103A9C0060021093A2021FEF10937A030C94C722BA
:103AAC00113011F00C94641D0C3711F00C94641D42
:103ABC001091600210939B020C94C722113011F0EC
:103ACC000C94721D0D3711F00C94721D1091600244
:103ADC001093AF020C94C722113011F00C949A1D64
:103AEC00063811F00C949A1D00910404112704FD62
:103AFC001FEF112311F40C948E1DCF93DF931091B3
:103B0C0060021A930E94EF01DF91CF910C94981DE3
:103B1C00CF93DF9316E01A930E944108DF91CF9167
:103B2C000C94EF220C94C722113011F00C94C21D8E
:103B3C00073811F00C94C21D00910404112704FDE8
:103B4C001FEF112311F40C94B61DCF93DF9310913A
:103B5C0060021A930E944702DF91CF910C94C01D12
:103B6C00CF93DF9316E01A930E944108DF91CF9117
:103B7C000C94EF220C94C722689442F8A0E9B1E0AF
:103B8C005FEF0E94354655233AF4AFEAB1E0552772
:103B9C000E94354655230AF416C00091520210912A
:103BAC00530200591140102F198319811F93109142
:103BBC006002E4E6F2E0AF91AF73BB27EA0FFB1FA4
:103BCC0010830C94C722689442F8A4EFB1E05FEF25
:103BDC000E94354655233AF4A3E1B2E055270E94E2
:103BEC00354655230AF431C000915202109153020C
:103BFC00045F1140102F198319811F9310916002DB
:103C0C00E4E8F2E0AF91AF71BB27EA0FFB1F108322
:103C1C0000910404112704FD1FEF112311F40C94DF
:103C2C00261EE2E1F0E0EF93FF931981012F11279B
:103C3C00FF91EF91E00FF11F109160020E949140F3
:103C4C001FEF109379030C94C722689442F8A8E5EF
:103C5C00B2E05FEF0E94354655233AF4A7E7B2E095
:103C6C0055270E94354655230AF431C00091520263
:103C7C001091530208551240102F198319811F936C
:103C8C0010916002E4EAF2E0AF91AF71BB27EA0F4A
:103C9C00FB1F108300910404112704FD1FEF112357
:103CAC0011F40C94681EE2E3F2E0EF93FF93198198
:103CBC00012F1127FF91EF91E00FF11F109160027E
:103CCC000E9491401FEF10932E030C94C72268940E
:103CDC0042F8A0E8B2E05FEF0E94354655233AF473
:103CEC00AFE8B2E055270E94354655230AF42EC0A2
:103CFC00009152021091530200581240102F198358
:103D0C0019811F9310916002E4ECF2E0AF91AF7057
:103D1C00BB27EA0FFB1F108300910404112704FD3D
:103D2C001FEF112311F40C94AA1EE2E5F2E0EF93BD
:103D3C00FF931981012F1127FF91EF91E00FF11FD4
:103D4C00109160020E9491400C94C722689442F832
:103D5C00A4E9B2E05FEF0E94354655233AF4A3EB99
:103D6C00B2E055270E94354655230AF447C000910E
:103D7C0052021091530204591240102F19831981C9
:103D8C001F9300915A0210915B0220915C023091BA
:103D9C005D02EEEDF2E0AF91AF71BB27AA0FBB1F36
:103DAC00EA0FFB1F1183008300910404112704FD0B
:103DBC001FEF112311F40C94FF1EE2E6F2E0EF93D7
:103DCC00FF931981012F1127000F111FFF91EF9104
:103DDC00E00FF11FEF93FF9300915A0210915B02D9
:103DEC0020915C0230915D02FF91EF9198010E944D
:103DFC00A1401FEF10932E030C94C722689442F835
:103E0C00ACEBB2E05FEF0E94354655233AF4ABECD5
:103E1C00B2E055270E94354655230AF42EC0009176
:103E2C005202109153020C5B1240102F198319810E
:103E3C001F9310916002EEE1F3E0AF91AF70BB27DE
:103E4C00EA0FFB1F108300910404112704FD1FEFE0
:103E5C00112311F40C94411FE2EAF2E0EF93FF936B
:103E6C001981012F1127FF91EF91E00FF11F109194
:103E7C0060020E9491400C94C722133011F00C94F4
:103E8C00551F073E11F00C94551F10916002103015
:103E9C0010E009F01FEF1093D8020C94C72268941D
:103EAC0042F8A8EEB3E05FEF0E94354655233AF492
:103EBC00A7EEB4E055270E94354655230AF422C0DC
:103ECC0000910404112704FD1FEF112311F40C942D
:103EDC00861F0091520210915302085E1340102F5E
:103EEC001983E2E3F0E0EF93FF931981012F11277F
:103EFC00FF91EF91E00FF11F109160020E94914031
:103F0C000C94C722689442F8A8EEB4E05FEF0E94CC
:103F1C00354655233AF4A7EEB5E055270E943546B1
:103F2C0055230AF422C000910404112704FD1FEF4D
:103F3C00112311F40C94B91F0091520210915302E9
:103F4C00085E1440102F1983E2E3F1E0EF93FF9326
:103F5C001981012F1127FF91EF91E00FF11F1091A3
:103F6C0060020E9491400C94C722163211F00C94FE
:103F7C00F71F0C3A11F00C94F71F1091600210937C
:103F8C00970200910404112704FD1FEF112311F473
:103F9C000C94D71F10916002E5E2F0E00E94914072
:103FAC00319610913802112311F40C94ED1F1091DD
:103FBC0060021C5A812ECF93DF93182D1A9310E0B8
:103FCC001A930E941D10DF91CF910C94F51FCF9383
:103FDC00DF9318E01A930E944108DF91CF910C9463
:103FEC00C722163211F00C941120003C11F00C94E5
:103FFC00112010916002103010E009F41FEF112312
:10400C0011F40C940D200E94D2040C940F200E94E9
:10401C00E3040C94C722163211F00C9472200A3C63
:10402C0011F00C9472200E94180A1095112311F4AF
:10403C000C94702000915A0210915B0220915C024A
:10404C0030915D02ECE00E94124600935A021093EC
:10405C005B0220935C0230935D02CF93DF9300915F
:10406C005A0210915B0220915C0230915D023A93EE
:10407C002A931A930A930E941D0CDF91CF91009101
:10408C005A0210915B0220915C0230915D0240E873
:10409C003427303829F4203019F4103009F400306A
:1040AC001FEF08F01127112311F40C9464201091C8
:1040BC0005041460109305040C94702011E004EFB7
:1040CC000E946A400E942209CF93DF930E948D0BBD
:1040DC00DF91CF910C94C722163211F00C94E92089
:1040EC000B3C11F00C94E9200E94180A1095112336
:1040FC0011F40C94E72000915A0210915B0220916C
:10410C005C0230915D020C5A1F4F2F4F3F4F0093B2
:10411C005A0210935B0220935C0230935D02009173
:10412C005A0210915B0220915C0230915D02ECE02E
:10413C000E94124600935A0210935B0220935C0279
:10414C0030935D02CF93DF9300915A0210915B0282
:10415C0020915C0230915D023A932A931A930A9350
:10416C000E941D0CDF91CF9100915A0210915B02BD
:10417C0020915C0230915D0240E83427303829F4FC
:10418C00203019F4103009F400301FEF08F011271B
:10419C00112311F40C94E120CF93DF9318E01A93C0
:1041AC000E944108DF91CF91109105041460109387
:1041BC0005040C94E72011E004EF0E946A400E9471
:1041CC0022090C94C722163211F00C944021043DA4
:1041DC0011F00C9440210E94180A1095112311F42F
:1041EC000C943E2100915A0210915B0220915C02CA
:1041FC0030915D02ECE00E94124600935A0210933B
:10420C005B0220935C0230935D02CF93DF930091AD
:10421C005A0210915B0220915C0230915D023A933C
:10422C002A931A930A930E94F404DF91CF9110956C
:10423C00112311F40C943C210E94FE07CF93DF93C1
:10424C0018E0412A0AE310E41A930A93E3E4FFE826
:10425C000E943B421DE00E9411451AE00E9411454C
:10426C00DF91CF910C94EF220C943E210E942209F5
:10427C000C94C722163211F00C94AB21053D11F0B1
:10428C000C94AB210E94180A1095112311F40C9474
:10429C00A92100915A0210915B0220915C0230918D
:1042AC005D020C5A1F4F2F4F3F4F00935A02109331
:1042BC005B0220935C0230935D0200915A021091D4
:1042CC005B0220915C0230915D02ECE00E94124690
:1042DC0000935A0210935B0220935C0230935D02B0
:1042EC00CF93DF9300915A0210915B0220915C02F4
:1042FC0030915D023A932A931A930A930E94F40424
:10430C00DF91CF911095112311F40C94A7210E94E9
:10431C00FE07CF93DF9318E0412A0AE310E41A93C7
:10432C000A93E3E4FFE80E943B421DE00E94114522
:10433C001AE00E941145DF91CF910C94EF220C945E
:10434C00A9210E9422090C94C722163211F00C9458
:10435C00EB21063D11F00C94EB210E94180A1095EC
:10436C00112311F40C94E9210E94340510951123AA
:10437C0011F40C94DB210E94FE07CF93DF9318E01D
:10438C00412A0AE310E41A930A93ECE5FFE80E9431
:10439C003B421DE00E9411451AE00E941145DF913D
:1043AC00CF910C94EF220C94E92100E010E020E076
:1043BC0030E000935A0210935B0220935C0230931E
:1043CC005D020E9422090C94C722163211F00C9443
:1043DC00F5210E3D11F00C94F5210C94FD211632B3
:1043EC0011F00C9443220F3D11F00C9443220091D8
:1043FC000404112704FD1FEF112311F40C94372230
:10440C001981103010E009F41FEF112311F40C94F2
:10441C00212200915A0210915B0220915C02309192
:10442C005D02EAE0F0E0D8010E94A74031960E94BC
:10443C00A8060C94312200915A0210915B02209133
:10444C005C0230915D02EEE0F0E0D8010E94A740E2
:10445C0031960E94A80613E008EE0E946A400C9464
:10446C004122CF93DF9316E01A930E944108DF910B
:10447C00CF910C94EF220C94C722163211F00C94AD
:10448C005622083E11F00C945622CF93DF931091D4
:10449C0060021A930E947111DF91CF910C94C72284
:1044AC00163211F00C947022023F11F00C94702211
:1044BC00CF93DF9300915702109158021A930A93ED
:1044CC000E94A303DF91CF91109360020E94170901
:1044DC000C94C722173211F00C94BD22063011F047
:1044EC000C94BD2200910404112704FD1FEF11232D
:1044FC0011F40C94B12210915902112311F40C9463
:10450C00A522E2EBF2E0EF93FF933196FA93EA9354
:10451C0018E21A9317EF412210E4412AE0E9F3E084
:10452C000E94444218E21F9318810F91011B102F17
:10453C00FF91EF910E94914023960C94AF22CF9360
:10454C00DF9315E01A930E944108DF91CF910C94F0
:10455C00EF220C94BB22CF93DF9316E01A930E94A8
:10456C004108DF91CF910C94EF220C94C722CF938A
:10457C00DF9315E01A930E944108DF91CF910C94C0
:10458C00EF22109104041F7E109304040091520238
:10459C0010915302A0E81A27103809F40A3F10E0D2
:1045AC0009F41FEF112311F40C94E122109104046F
:1045BC0010611093040410915602112311F40C9401
:1045CC00EF22CF93DF9310E01A930E944108DF9102
:1045DC00CF9108952197E0E9F3E0EF93FF933196A3
:1045EC00FA93EA9318E21A9317EF41221FEB412238
:1045FC00E0E9F3E00E94184218E21F9318810F9132
:10460C00011B102FFF91EF9110832396FE01FA935B
:10461C00EA9310E010831EE01A93108108810117B1
:10462C001FEF08F01127112311F00C944C23E0E933
:10463C00F3E0EF93FF93E1E8F0E9EF93FF931B8135
:10464C00012F1127A4E0B0E0E89445F80E946A45D8
:10465C00FF91EF91E00FF11FBF91AF91689444F877
:10466C000E94EB4410E009F41FEF112311F40C9499
:10467C0043231B8123960C944E23E981FA811081EC
:10468C0013951083112311F00C94142323961FE01F
:10469C0008952297E0E9F3E0EF93FF933196FA93B4
:1046AC00EA9318E21A9317EF41221FEB412218E20A
:1046BC001F9318810F91011B102FFF91EF91108305
:1046CC00239610E01093590210E01883E9EBF3E005
:1046DC001091FA03012F1127E00FF11F11911032E5
:1046EC0010E009F41FEF112311F40C9484231091A2
:1046FC00FA0313951093FA030C946C23E9EBF3E093
:10470C001091FA03012F1127E00FF11F11911933AA
:10471C0039F028F41A3218F040E0189401C041E046
:10472C0010E009F41FEF112311F40C94F7231FEF81
:10473C001883E8E0F0E0FA93EA931091FA031083FF
:10474C00EF93FF93E9EBF3E01081FF91EF911A9354
:10475C001081088101171FEF08F01127112311F0A8
:10476C000C94F423E9EBF3E0182D012F1127E00F43
:10477C00F11F11911C831C81193339F028F41A3262
:10478C0018F040E0189401C041E010E009F41FEF6C
:10479C00112311F40C94E4231C81712F61E010E0BF
:1047AC0006E10F931F93E0E9F3E0EF93FF9318E218
:1047BC001F9390E00E94D8400C94EB23182D10937B
:1047CC00FA031B8123960C947724E981FA811081DA
:1047DC0013951083112311F00C94AF2323960C9492
:1047EC007624E8E0F0E0FA93EA931091FA03108350
:1047FC00EF93FF93E9EBF3E01081FF91EF911A93A4
:10480C001081088101171FEF08F01127112311F0F7
:10481C000C947524E9EBF3E0182D012F1127E00F10
:10482C00F11F11911C831C81123210E009F41FEF4F
:10483C00112311F40C9427241FEF109359020C949C
:10484C006C241C81113410E008F01FEF1F931091A1
:10485C0059020F91102B112311F40C9466241C8116
:10486C00113221F01F3311F0143201F010E009F471
:10487C001FEF112311F40C944C24182D1093FA03F0
:10488C001B8123960C9477240C945C241C81712F2F
:10489C0061E010E006E10F931F93E0E9F3E0EF9382
:1048AC00FF9318E21F9390E00E94D8401D811123C2
:1048BC0011F40C9464241FEF109359020C946C2483
:1048CC00182D1093FA031B810C947724E981FA813B
:1048DC00108113951083112311F00C940724239647
:1048EC00188108952197E0E9F3E01FEB4122E89449
:1048FC0041F800E00E94574100935A0210935B026A
:10490C0020935C0230935D0200915A0210915B027D
:10491C0020915C0230915D02009357021093580273
:10492C000091570210915802102F109360020895B5
:10493C002C97E9EBF3E0EF93FF93E4E7FFE8BF91EB
:10494C00AF91689444F80E94EB4410E009F41FEF17
:10495C00112311F40C94BC24CF93DF9310E01A9321
:10496C000E944108DF91CF910C947F2611E21F9396
:10497C00E9EBF3E0EF93FF9361E0FF91EF910F917F
:10498C000E940242103010E011F008F01FEF10935B
:10499C0056021AE31F93E9EBF3E0EF93FF9361E008
:1049AC00FF91EF910F910E940242103010E011F034
:1049BC0008F01FEF1C831DE31F93E9EBF3E0EF936B
:1049CC00FF9361E0FF91EF910F910E9402421B87D0
:1049DC001B85103010E009F41FEF1883E9EBF3E0AE
:1049EC00319611911D831D811A3210E009F41FEFCD
:1049FC0019831D81133210E009F41FEF1A8311E0A3
:104A0C001093FA031A81112311F40C94102512E05F
:104A1C001093FA031C81112311F40C943725CF93B6
:104A2C00DF9310E01A930E944F23DF91CF911091E6
:104A3C00FA0313951093FA031981112311F40C94B2
:104A4C002B250E9430080C943725E0E9F3E01FEB8E
:104A5C004122E89441F800E00E945741102F109336
:104A6C005402198110951F93109154021F931091A9
:104A7C0033020F91011710E009F01FEF0F91102373
:104A8C001F931C810F911023112311F40C945225A8
:104A9C000E9430080C947F2614E21F93E9EBF3E09C
:104AAC00EF93FF9361E0FF91EF910F910E9402420F
:104ABC001A871A85103010E011F008F01FEF1B83D5
:104ACC001B81112311F40C94E225E0E9F3E0EF9340
:104ADC00FF933196FA93EA9318E21A9317EF412257
:104AEC001FEB4122E9EBF3E0EF93FF931D851F5F72
:104AFC001F9312E00F91FF91EF910E94274218E251
:104B0C001F9318810F91011B102FFF91EF911083B0
:104B1C002396E0E9F3E01FEB4122E89441F80FEF14
:104B2C000E945741102F188710E01987E8E0F0E039
:104B3C00FA93EA9311E01083EF93FF931C851150C5
:104B4C00FF91EF911A931081088101171FEF08F064
:104B5C001127112311F00C94CB25E9EBF3E0182D60
:104B6C00012F1127E00FF11F119118871C851F933E
:104B7C0018850F9110271C87E981FA8110811395F4
:104B8C001083112311F00C94AA25239619851F93D9
:104B9C0018850F91011710E009F01FEF112311F484
:104BAC000C94E225CF93DF9317E01A930E944108EF
:104BBC00DF91CF910C947F26CF93DF9310E01A9363
:104BCC000E944F23DF91CF91112311F40C94F42503
:104BDC0010E000E01F830E830C942A26CF93DF9302
:104BEC000E94F022DF91CF9110934D0210914D0253
:104BFC001F3010E009F41FEF112311F40C94102650
:104C0C00CF93DF9314E01A930E944108DF91CF9168
:104C1C000C947F26EDEBF0E9EF93FF9310914D028E
:104C2C00012F1127000F111FFF91EF91E00FF11FC2
:104C3C00059114911F830E83CF93DF9310E01A9389
:104C4C000E944F23DF91CF91E0E9F3E01FEB41226B
:104C5C00E89441F800E00E9457410F931F930E8196
:104C6C001F813F912F91020F131F0093520210933B
:104C7C0053021881112311F40C944C26CF93DF931B
:104C8C000E941718DF91CF910C947F261B851F5F14
:104C9C001093FA03CF93DF931FEF1A930E944F23C5
:104CAC00DF91CF91112311F40C946426CF93DF93F1
:104CBC000E947824DF91CF910C94792600E010E0CB
:104CCC0020E030E000935A0210935B0220935C02C8
:104CDC0030935D0210E000E00093570210935802ED
:104CEC0010E010936002CF93DF930E947B1CDF9146
:104CFC00CF9108952B9710919A02103010E009F47F
:104D0C001FEF112311F40C94912610919B02169510
:104D1C001A870C9495261091280416951A871A85D3
:104D2C001F93109136030F91011B102F1B831B81B6
:104D3C001A3010E011F008F01FEF112311F40C944D
:104D4C00AA2610E010933E031A8510933603109197
:104D5C003E03112311F40C94DE26109137031F939C
:104D6C00109135030F91011710E011F008F01FEFAF
:104D7C00112311F40C94C92610913503139510933B
:104D8C0035030C94DC26109137031F9310913503D7
:104D9C000F9101171FEF08F01127112311F40C9438
:104DAC00DC26109135031A95109335030C94E126EB
:104DBC001A85109335031091350316951F831F81A7
:104DCC0016951E8310919C02103010E009F41FEF11
:104DDC00112311F40C94F72610919D0218830C9456
:104DEC00012719E0EDE1F4E01F710027E10FF01F3E
:104DFC0010811695188310919E0216951695185FC2
:104E0C001F93CF93DF93109135031A9310919E0249
:104E1C001A9318EC1A930E945C40DF91CF910F917A
:104E2C00100F1A831A811F93109135030F91100FD5
:104E3C001983109135031F931A81169516950F91AE
:104E4C00100F18871E811E5F1D8310916E021F9319
:104E5C00109181020F91102B112311F40C946A27DD
:104E6C0010916D021170113010E009F41FEF112335
:104E7C0011F40C945927CF93DF93109135031A93A7
:104E8C0019811A9314E61A930E945C40DF91CF911A
:104E9C00185F19871D811F931E8116950F91100F96
:104EAC001D830C946827CF93DF93109135031A93CD
:104EBC0019811A931CE81A930E945C40DF91CF91E0
:104ECC001A5F19870C947827CF93DF931F811A935D
:104EDC0019811A931AEA1A930E945C40DF91CF91C0
:104EEC001A5F198710913503105F1F931F810F9163
:104EFC00100F1C83CF93DF931D811A9310E41A9328
:104F0C000E945706DF91CF91CF93DF9319811A93AB
:104F1C0011E41A930E945706DF91CF91CF93DF9340
:104F2C0018851A9312E41A930E945706DF91CF91B9
:104F3C00CF93DF9319851A9313E41A930E945706A3
:104F4C00DF91CF91CF93DF931C811A9314E41A93C2
:104F5C000E945706DF91CF91089521971091D802A6
:104F6C001F9300919902112701FD1FEF0F91102B38
:104F7C001095112311F40C94ED271091CE021030E2
:104F8C0010E009F01FEF112311F40C94E12710919C
:104F9C0027041883CF93DF9318811A9310E81A9380
:104FAC001AEA1A930E945C40DF91CF91115C109326
:104FBC00AF020C94E5271091CF021093AF02009131
:104FCC006E03112706FD1FEF11701093D002109184
:104FDC00D602112311F40C94FD271091C8021093E2
:104FEC0033031091C902109334030C9405281091CB
:104FFC00C602109333031091C7021093340310911F
:10500C00D7021095112311F40C94122810E0109370
:10501C00330310E0109334031FEF00914B02002375
:10502C0009F01095112311F40C944D2810913103B3
:10503C001F93109133030F91011710E009F01FEF2C
:10504C00112311F40C944D28109133031F931091DC
:10505C0031030F91011710E011F008F01FEF11232D
:10506C0011F40C94442810913103139510933103CF
:10507C001091CA0210934B020C944D2810913103DD
:10508C001A95109331031091CC0210934B021FEF21
:10509C0000914C02002309F01095112311F40C948B
:1050AC008828109132031F93109134030F9101172C
:1050BC0010E009F01FEF112311F40C9488281091C3
:1050CC0034031F93109132030F91011710E011F06C
:1050DC0008F01FEF112311F40C947F281091320368
:1050EC001395109332031091CB0210934C020C9435
:1050FC008828109132031A95109332031091CD0227
:10510C0010934C0200912F03109130030F931F93B7
:10511C0010913103012F11273F912F91020F131F73
:10512C0000932F0310933003109131031093A402BA
:10513C00109132031093B40210912E03112311F429
:10514C000C94B328CF93DF930E947F07DF91CF910C
:10515C0010E010932E030C94DF28CF93DF93109163
:10516C00AF021A931BEC1A930E945706DF91CF9152
:10517C00CF93DF931091D0021A931CEC1A930E94D8
:10518C005706DF91CF91CF93DF931091A4021A931E
:10519C0010EC1A930E945706DF91CF91CF93DF93B7
:1051AC001091B4021A9310ED1A930E945706DF91D6
:1051BC00CF9108951BB11F701F9310911B04110FF9
:1051CC00110F110F110F0F91102B1BB90E94F70328
:1051DC0010911C0414301FEF08F01127112311F447
:1051EC000C94FB2810E010931C0410911B041F93CB
:1051FC0010911C04EDE1F4E0AF91AF71BB27EA0F05
:10520C00FB1F108308951498159A169AEBE1F4E09D
:10521C00FA93EA9310E0108317E01A931081088137
:10522C0001171FEF08F01127112311F00C942929F5
:10523C000E94E028E981FA811081139510831123D3
:10524C0011F00C9415292396149A1598169AEBE1E3
:10525C00F4E0FA93EA9318E010831FE01A9310819C
:10526C00088101171FEF08F01127112311F00C947E
:10527C004A290E94E028E981FA8110811395108354
:10528C00112311F00C9436292396149A159A16981A
:10529C00EBE1F4E0FA93EA9310E1108317E11A932F
:1052AC001081088101171FEF08F01127112311F04D
:1052BC000C946B290E94E028E981FA8110811395E6
:1052CC001083112311F00C9457292396089519E19A
:1052DC00109347025A9808951AE0109347025A986F
:1052EC000895219719811F70E1E3F0E91F700027E1
:1052FC00E10FF01F1491188300916D03112700FD2D
:10530C001FEF1095112311F40C948F291881110F94
:10531C0018831881089522971A811F70E1E3F0E930
:10532C001F700027E10FF01F149119831981110FC1
:10533C00188300913003112704FD1FEF112311F482
:10534C000C94B02919811F7C1F93188110730F9135
:10535C00102B198319810895279710E01C8314E6EC
:10536C00198310E010937D031985103010E009F0BB
:10537C001FEF112311F40C94C72918E11A830C9414
:10538C00C92916E11A8310E000E01E830D831A85EB
:10539C001F931A811F93E89440F8FE013596A2E002
:1053AC00B0E03F914F9150E00E94DA3F1A851F9375
:1053BC001985312FE89440F84F91A0E0B0E050E00F
:1053CC000E94DA3F1A851F93FE013396A1E0B0E0EC
:1053DC004F910E94B73F1B811F3F10E009F01FEF58
:1053EC0018831A851F931A811F93E89440F8FE01C5
:1053FC003796A2E0B0E03F914F9150E00E94DA3F27
:10540C001881112311F40C943D2A109199021D7FDF
:10541C001093990210E01093D8021B8110951C83F5
:10542C0010E00AE00E946A40FE01319610811A9544
:10543C0010831985103010E009F41FEF1F931C81A5
:10544C001F70103010E009F01FEF0F911023112383
:10545C0011F40C943A2A1981103010E009F41FEF62
:10546C0010937D030C943D2A10E010937D0318815A
:10547C0010951F9310917D030F91102B112311F494
:10548C000C94C9291C81089527971091FE0310953F
:10549C00112311F40C94552A10E00C948D2A1F81C1
:1054AC001F7019831F8116951695169516951883DE
:1054BC00FE013396EF93FF93CF93DF9319811A93E9
:1054CC000E947729DF91CF91FF91EF911193FE010B
:1054DC0033963196EF93FF93CF93DF9318811A9302
:1054EC000E949129DF91CF91FF91EF911193CF936E
:1054FC00DF9312E61A9311E01A930D811E811A9311
:10550C000A930E94B229DF91CF911A831A810895D0
:10551C0027971091FE031095112311F40C94992ADE
:10552C0010E00C94D12A1F811F7019831F811695CE
:10553C001695169516951883FE013396EF93FF93E7
:10554C001981E1E3F0E91F700027E10FF01F1491BE
:10555C00FF91EF911193FE0133963196EF93FF93E8
:10556C001881E1E3F0E91F700027E10FF01F14919F
:10557C00FF91EF911193CF93DF9312E61A9310E002
:10558C001A930D811E811A930A930E94B229DF91FE
:10559C00CF911A831A8108951091FB03112311F4F2
:1055AC000C94912BCF93DF9310E01A9310E01A9385
:1055BC0010E01A930E94E03EDF91CF91E0E9F3E016
:1055CC00EF93FF933196FA93EA9318E21A9317EF3D
:1055DC0041221FEB4122EBEDF0E9EF93FF931C818D
:1055EC001F70012F1127A3E0B0E0E89445F80E944A
:1055FC006A45FF91EF91E00FF11F0E943B4218E2C8
:10560C001F9318810F91011B102FFF91EF911083A5
:10561C002396CF93DF9318E0412A0AEB1EE31A93EB
:10562C000A93E0E9F3E00E944442DF91CF91CF93DB
:10563C00DF9318E0412A0AEB1EE31A930A93E5E77D
:10564C00FFE80E943B42DF91CF9111E004EFE8E4C8
:10565C00F2E0B1E00E942246CF93DF9310E01A9360
:10566C0010E01A9311E01A930E94E03EDF91CF9163
:10567C00CF93DF9318E0412A0AEB1EE31A930A93A7
:10568C00ECE7FFE80E943B42DF91CF91CF93DF9391
:10569C0010E01A9316E01A9311E01A930E94E03E60
:1056AC00DF91CF91E0E9F3E0EF93FF933196FA931A
:1056BC00EA9318E21A9317EF41221FEB4122EBED0C
:1056CC00F0E9EF93FF931B811F70012F1127A3E0CB
:1056DC00B0E0E89445F80E946A45FF91EF91E00F25
:1056EC00F11F0E943B4218E21F9318810F91011B7E
:1056FC00102FFF91EF9110832396CF93DF9318E037
:10570C00412A0AEB1EE31A930A93E0E9F3E00E94A4
:10571C004442DF91CF910895E8E0F0E0FA93EA93E8
:10572C0010E0108313E01A931081088101171FEF0A
:10573C0008F01127112311F00C94C52BCF93DF9394
:10574C001FEF1A930E94DF00DF91CF9110E004E667
:10575C000E946A40CF93DF9310E01A930E94DF00FF
:10576C00DF91CF9110E004E60E946A40E981FA8152
:10577C00108113951083112311F00C949B2B2396FD
:10578C0008950895089528971FEF1C8310E0109337
:10579C007E0310E010937F0314E61B831885105AC8
:1057AC00188318811F9316E11F93E89440F800E0CA
:1057BC0010E020E030E0A4E0B0E0B801C901E6E17F
:1057CC00F0E03F914F9150E00E94DA3F18811F9317
:1057DC0010E0312FE89440F84F91A0E0B0E050E099
:1057EC000E94DA3F18811F93FE013796A1E0B0E0CA
:1057FC004F910E94B73FFE013596EF93FF931F81A7
:10580C00FF91EF91119318811F9311E0312FE894C0
:10581C0040F84F91A0E0B0E050E00E94DA3F1881D0
:10582C001F93FE013796A1E0B0E04F910E94B73F65
:10583C001F811870103010E009F41FEF1983FE015E
:10584C0035963196EF93FF931F811860FF91EF917E
:10585C0011930D811E811F3F09F40F3F10E009F0D9
:10586C001FEF1A831A81112311F40C94712CE8E0A8
:10587C00F0E0FA93EA9310E010831FE01A93108182
:10588C00088101171FEF08F01127112311F00C9458
:10589C00702C0885198501701070103009F40030D7
:1058AC0010E009F41FEF112311F40C94612C182D46
:1058BC001F830C94702C08851985169507951987EC
:1058CC000887E981FA81108113951083112311F057
:1058DC000C94462C23961981112311F40C947F2CD3
:1058EC0010E00AE00E946A40FE01339610811A957E
:1058FC001083198110951F931B81103010E009F44F
:10590C001FEF0F91102B112311F40C94EC2B1B8116
:10591C00103010E009F41FEF112311F40C94B02C8B
:10592C001885103010E009F41FEF112311F40C94BA
:10593C00A42C1FEF10937E030C94B02C18851130FF
:10594C0010E009F41FEF112311F40C94B02C1FEF8D
:10595C0010937F031C8108952B971091FE03112344
:10596C0011F40C94062D109167031F701093D9023B
:10597C0010917D03112311F40C94062D0FEF10E000
:10598C0020E030E0009372031093730320937403B0
:10599C0030937503CF93DF9312E61A930E9466003F
:1059AC00DF91CF91CF93DF931091DA021A9310917C
:1059BC00D9021A930E94D22ADF91CF911091DA0268
:1059CC00103010E009F41FEF112311F40C94F22C99
:1059DC001091D9021093DA020E94922BCF93DF938D
:1059EC001091DA021A930E94EF01DF91CF91CF93BD
:1059FC00DF931091DA021A930E944702DF91CF9144
:105A0C001091FC031F931091FD030F911023112390
:105A1C0011F40C94AF2DCF93DF9310E01A930E94E6
:105A2C00C92BDF91CF911E831E811F3F10E009F01F
:105A3C001FEF112311F40C94542D10917E0311239C
:105A4C0011F40C94512DCF93DF93109184021A937F
:105A5C001F811A930E94D22ADF91CF91CF93DF93AB
:105A6C0010E61A93109184021A9318851A930E94C7
:105A7C00C82BDF91CF91CF93DF930E94B714DF91A6
:105A8C00CF91CF93DF931E811A930E94EF01DF9188
:105A9C00CF910E94922B1E8110938402CF93DF939F
:105AAC0010E61A93109184021A930E94C72BDF916F
:105ABC00CF91CF93DF9311E01A930E94C92BDF9102
:105ACC00CF911E831E811F3F10E009F01FEF1123A1
:105ADC0011F40C94A22D10917F03112311F40C944A
:105AEC009F2DCF93DF93109185021A931F811A93E8
:105AFC000E94D22ADF91CF91CF93DF9311E61A93B4
:105B0C00109185021A9318851A930E94C82BDF9165
:105B1C00CF91CF93DF930E941815DF91CF91CF9344
:105B2C00DF931E811A930E944702DF91CF910E944E
:105B3C00922B1E8110938502CF93DF9311E61A935B
:105B4C00109185021A930E94C72BDF91CF910C9470
