:10007C0018811F9316E11F93E89440F8EEE8F3E023
:10008C00A4E0B0E03F914F9150E00E94B24D089532
:10009C0000E010E020E030E000938E0310938F031B
:1000AC002093900330939103CF93DF9318811A938D
:1000BC000E943E00DF91CF9118811F9312E01F9395
:1000CC00E89440F8E6E1F0E03F914F91A1E0B0E018
:1000DC0060E050E00E94B24D18811F9313E01F9313
:1000EC00E89440F8E6E1F0E03F914F91A1E0B0E0F8
:1000FC0068E250E00E94B24D18811F9314E01F93E8
:10010C00E89440F8E6E1F0E03F914F91A1E0B0E0D7
:10011C0064E150E00E94B24D18811F9315E01F93CB
:10012C00E89440F8E6E1F0E03F914F91A1E0B0E0B7
:10013C0060E850E00E94B24D0AEA1AEA2AEA3AEA6A
:10014C0000938E0310938F032093900330939103AD
:10015C00CF93DF9318811A930E943E00DF91CF91C9
:10016C00089519E1109347025A9808951AE01093D4
:10017C0047025A980895219710E51F9309811A8117
:10018C001F93E89440F809811A81102FE6E1F0E002
:10019C00612FA1E0B0E03F914F9150E00E94B24D31
:1001AC0010E51F93FE01A1E0B0E04F910E948F4D2E
:1001BC0018810895CF93DF9310E51A930A811B8160
:1001CC001A930A93FE0133968F011A930A9310E047
:1001DC0001E01A930A930E94A84DDF91CF9110E091
:1001EC0007E00E94424E08952297CF93DF9310E5CB
:1001FC001A930F8118851A930A93FE0135968F0175
:10020C001A930A9310E004E01A930A930E94A84DE3
:10021C00DF91CF9110E007E00E94424E089513E960
:10022C0010937A0011E00E94514E13EC10937A0057
:10023C0010917A001071103010E009F01FEF1123AB
:10024C0011F40C941E0113E810937A0010917900AC
:10025C001093370408951BB11F701F93109136042F
:10026C00110F110F110F110F0F91102B1BB90E94B1
:10027C0015011091370414301FEF08F011271123CA
:10028C0011F40C944C0110E01093370410913604C7
:10029C001F9310913704E8E3F4E0AF91AF71BB27E3
:1002AC00EA0FFB1F108308951498159A169AE6E32B
:1002BC00F4E0FA93EA9310E0108317E01A9310819C
:1002CC00088101171FEF08F01127112311F00C946E
:1002DC007A010E943101E981FA8110811395108312
:1002EC00112311F00C9466012396149A1598169A02
:1002FC00E6E3F4E0FA93EA9318E010831FE01A9314
:10030C001081088101171FEF08F01127112311F03C
:10031C000C949B010E943101E981FA8110811395A3
:10032C001083112311F00C9487012396149A159ABB
:10033C001698E6E3F4E0FA93EA9310E1108317E1E0
:10034C001A931081088101171FEF08F01127112350
:10035C0011F00C94BC010E943101E981FA811081E9
:10036C0013951083112311F00C94A8012396089572
:10037C00109145022B981EBD1DB517FFFDCF1EB564
:10038C00109346022B9A0895109142022B981EBD91
:10039C001DB517FFFDCF1EB51093440210914102FD
:1003AC001EBD1DB517FFFDCF1EB5109343022B9A32
:1003BC00089510913C022B981EBD1DB517FFFDCF63
:1003CC001EB51093400210913B021EBD1DB517FFC8
:1003DC00FDCF1EB510933F0210913A021EBD1DB504
:1003EC0017FFFDCF1EB510933E02109139021EBDB2
:1003FC001DB517FFFDCF1EB510933D022B9A089526
:10040C001091370229981EBD1DB517FFFDCF109115
:10041C0036021EBD1DB517FFFDCF299A0895109108
:10042C002B0408E0449817FD449A459A110F4598FF
:10043C000A95C1F70895E0E0F7E01081459808B1FE
:10044C0017FB04F908B9459A16FB04F908B9459A43
:10045C0015FB04F908B9459A14FB04F908B9459A37
:10046C0013FB04F908B9459A12FB04F908B9459A2B
:10047C0011FB04F908B9459A10FB04F908B9459A1F
:10048C004598E395D1F60895109130041EBD1DB525
:10049C0017FFFDCF1EB5109331040895289815E071
:1004AC00109330040E944A020E944A02289A10912A
:1004BC0031040895289815E0109330040E944A02E4
:1004CC000E944A02109131041170103010E009F4AE
:1004DC001FEF112311F40C946602289A08952898A2
:1004EC0016E0109330040E944A02289A08950E9444
:1004FC007502289811E0109330040E944A0210E013
:10050C00109330040E944A02289A0E9460020895B7
:10051C000E947502289811E0109330040E944A0240
:10052C001FE3109330040E944A02289A0E94600232
:10053C0008950E94750228983B812A8119810881AF
:10054C000093320410933304209334043093350415
:10055C0010E2109330040E944A021091340410935C
:10056C0030040E944A0210913304109330040E940C
:10057C004A0210913204109330040E944A02289AC5
:10058C000E946002109131041072103010E009F0DA
:10059C001FEFE894112309F068941091210412F9CB
:1005AC001093210400912104112702FD1FEF1095D7
:1005BC0008950E947502289817EC109330040E943D
:1005CC004A02289A0E946002109131041072103075
:1005DC0010E009F01FEFE894112309F068941091D2
:1005EC00210412F91093210400912104112702FD1A
:1005FC001FEF10950895219709811A810150104021
:10060C00102F18830E94750228983E812D811C8121
:10061C000B810093320410933304209334043093F1
:10062C00350412E0109330040E944A0210913404F5
:10063C00109330040E944A0210913304109330043A
:10064C000E944A0210913204109330040E944A0214
:10065C00E7E0F0E0FA93EA9310E01083EF93FF9356
:10066C001A81FF91EF911A931081088101171FEFE6
:10067C0008F01127112311F00C945903172DE0E009
:10068C00F7E01F7F0027E10FF01F1081109330045B
:10069C000E944A02E981FA8110811395108311237B
:1006AC0011F00C943B032396289A0E94600210913F
:1006BC0031041072103010E009F01FEFE894112390
:1006CC0009F068941091210412F9109321040091FF
:1006DC002104112702FD1FEF1095089521970E9408
:1006EC0060020A811B8101501040102F18833F813A
:1006FC002E811D810C8100933204109333042093BE
:10070C0034043093350428981BE0109330040E9475
:10071C004A0210913404109330040E944A02109142
:10072C003304109330040E944A0210913204109347
:10073C0030040E944A0210E0109330040E944A02D6
:10074C00E7E0F0E0FA93EA9310E01083EF93FF9365
:10075C001A81FF91EF911A931081088101171FEFF5
:10076C0008F01127112311F00C94E6030E944A02A1
:10077C001C81112311F40C94D103172D1F9310918C
:10078C003104E0E0F6E0AF91AF7FBB27EA0FFB1F2F
:10079C0010830C94DD03172D1F9310913104E0E0AE
:1007AC00F7E0AF91AF7FBB27EA0FFB1F1083E98106
:1007BC00FA81108113951083112311F00C94B3035B
:1007CC002396289A0895E6E3F2E0EF93FF931881BD
:1007DC00FF91EF911193E7E3F2E010E011930E9487
:1007EC0006020E94DF0100913D0210913E02209111
:1007FC003F02309140020895E6E3F2E0EF93FF935D
:10080C001881FF91EF911193E7E3F2E010E8119357
:10081C000E940602E1E4F2E0EF93FF931981FF914D
:10082C00EF911193E2E4F2E010E011930E94CA01FF
:10083C000895E6E3F2E0EF93FF931881FF91EF91B7
:10084C001193E7E3F2E010E811930E94060209818C
:10085C001A8100934102109342020E94CA0108952A
:10086C00E6E3F2E0EF93FF931881FF91EF91119380
:10087C00E7E3F2E010E811930E9406023C812B8121
:10088C001A8109810093390210933A0220933B029A
:10089C0030933C020E94DF010895CF93DF9310EF59
:1008AC001A930E94E903DF91CF9100935A0210939F
:1008BC005B0220935C0230935D02EAE0F0E00E9460
:1008CC00994E00935A0210935B0220935C02309372
:1008DC005D02CF93DF9300915A0210915B0220913D
:1008EC005C0230915D023A932A931A930A9310EFAB
:1008FC001A930E943604DF91CF91EEE0F0E00E9453
:10090C00994E00935A0210935B0220935C02309331
:10091C005D02CF93DF9300915A0210915B022091FC
:10092C005C0230915D023A932A931A930A9311EF69
:10093C001A930E943604DF91CF9108951DE00E9416
:10094C00124E1AE00E94124E089513E20E94124EAB
:10095C0010913302105D0E94124E1AE30E94124E47
:10096C00CF93DF9318E0412A02E11EE41A930A9315
:10097C000091520210915302CF93DF931A930A9372
:10098C0010E01A9310E01A9310E21A93689443F84B
:10099C00689445F8E89454F855F80E946D52DF912C
:1009AC00CF91DF91CF911DE30E94124E0895CF930A
:1009BC00DF9318E0412A02E11EE41A930A93E5ED55
:1009CC00F3E00E941C50DF91CF910E94A404089583
:1009DC00229710916102112311F40C94030516E077
:1009EC000E94124E1A810E94124E10E00E94124E6A
:1009FC0010E00E94124E0C94470510E00FEF00938C
:100A0C005202109353020E94AB04CF93DF9318E071
:100A1C00412A02E11EE41A930A931C81CF93DF93BF
:100A2C001A9310E01A9310E01A9310E21A93689438
:100A3C0043F80E943450DF91CF91DF91CF9110E2B7
:100A4C000E94124ECF93DF9318E0412A02E11EE47C
:100A5C001A930A93EBECFBEAEF93FF931C81012FA3
:100A6C001127ADE0B0E0E89445F80E945753FF9190
:100A7C00EF91E00FF11F0E941350DF91CF910E9474
:100A8C00A40408950E94AB04CF93DF9318E0412A8D
:100A9C0002E11EE41A930A93ECEAF3E00E941C5064
:100AAC00DF91CF910E94A40408951091610211234B
:100ABC0011F40C94760516E00E94124E10E00E9480
:100ACC00124E00915702109158020E94124E009142
:100ADC00570210915802102F0E94124E0C94AD0523
:100AEC00ECEAF3E0EF93FF933196FA93EA9318E272
:100AFC001A9317EF41221FEB412200915A021091D9
:100B0C005B0220915C0230915D02CF93DF933A93AC
:100B1C002A931A930A9310E01A9310E01A9310E296
:100B2C001A93689445F8E89454F855F842F80E94E2
:100B3C007450DF91CF9118E21F9318810F91011B14
:100B4C00102FFF91EF91108323960E944805089572
:100B5C00009157021091580217FF03C03FEF2FEF7F
:100B6C0002C03327222700935A0210935B02209372
:100B7C005C0230935D020E945B0508951091600247
:100B8C00012F112700935702109358020E94AE05B3
:100B9C0008950E94AB04ECEAF3E0EF93FF933196D7
:100BAC00FA93EA9318E21A9317EF41221FEB4122B2
:100BBC0000915A0210915B0220915C0230915D020F
:100BCC00CF93DF933A932A931A930A9310E01A93D4
:100BDC0010E01A9310E21A93689445F8E89454F8CC
:100BEC0055F842F80E947450DF91CF9118E21F9390
:100BFC0018810F91011B102FFF91EF9110832396F9
:100C0C00CF93DF9318E0412A02E11EE41A930A9372
:100C1C00ECEAF3E00E941C50DF91CF9110E20E94AD
:100C2C00124E1BE50E94124E14E20E94124EECEA88
:100C3C00F3E0EF93FF933196FA93EA9318E21A9349
:100C4C0017EF41221FEB412200915A0210915B02D7
:100C5C0020915C0230915D02B801C901492F0E94BC
:100C6C00DC52482F0E94DC52472F0E94DC52462F48
:100C7C000E94DC5218E21F9318810F91011B102F58
:100C8C00FF91EF9110832396CF93DF9318E0412AC5
:100C9C0002E11EE41A930A93ECEAF3E00E941C5062
:100CAC00DF91CF911DE50E94124E0E94A40408957D
:100CBC000E94AB04ECEAF3E0EF93FF933196FA93C6
:100CCC00EA9318E21A9317EF41221FEB412200918D
:100CDC005A0210915B0220915C0230915D02CF931D
:100CEC00DF933A932A931A930A9310E01A9310E025
:100CFC001A9310E21A93689445F8E89454F855F84E
:100D0C0042F80E947450DF91CF9118E21F93188122
:100D1C000F91011B102FFF91EF9110832396CF930E
:100D2C00DF9318E0412A02E11EE41A930A93ECEADD
:100D3C00F3E00E941C50DF91CF91CF93DF9318E02A
:100D4C00412A02E11EE41A930A93EEEAF8EA0E94A1
:100D5C001350DF91CF91CF93DF9318E0412A02E13A
:100D6C001EE41A930A93E5EFF3E00E941C50DF9106
:100D7C00CF911DE50E94124E0E94A40408950E947A
:100D8C0054021F7E103010E009F01FEF112311F4F4
:100D9C000C94EB060E94AB04CF93DF9318E0412A2E
:100DAC0002E11EE41A930A93E1EBF8EA0E94135055
:100DBC001DE00E94E9521AE00E94E952DF91CF91A6
:100DCC001FEF0C94EE060C94EE0610E00C94EE065D
:100DDC00089510911704112311F40C942C07CF9340
:100DEC00DF9310E01A9310E01A9310E01A930E940C
:100DFC00934CDF91CF91CF93DF9318E0412A0DE60E
:100E0C001CE41A930A93E9ECF8EA0E941350DF9160
:100E1C00CF91CF93DF9310E01A9310E01A9311E067
:100E2C001A930E94934CDF91CF91CF93DF9318E0EC
:100E3C00412A0DE61CE41A930A93E2EDF8EA0E94AB
:100E4C001350DF91CF9110E00E94B44C0895109193
:100E5C001704112311F40C944F07CF93DF9310E078
:100E6C001A9310E01A9311E01A930E94934CDF919D
:100E7C00CF91CF93DF9318E0412A0DE61CE41A932F
:100E8C000A93EBEDF8EA0E941350DF91CF910C948A
:100E9C00530710E002E00E94424E0895109117048F
:100EAC00112311F40C948A07CF93DF9310E01A935B
:100EBC0010E01A9311E01A930E94934CDF91CF919A
:100ECC00CF93DF9318E0412A0DE61CE41A930A93A2
:100EDC00E4EEF8EA0E941350DF91CF91CF93DF93A9
:100EEC0010E01A9310E01A9310E01A930E94934C9E
:100EFC00DF91CF9110E00E94B44C10E004E6E8E4DE
:100F0C00F2E0B1E00E940F5408951127062D0170F4
:100F1C0009F41095112311F40C94E70710E004E682
:100F2C00E8E4F2E0B1E00E940F5410911704112391
:100F3C0011F40C94DA07CF93DF9310E01A9310E0BE
:100F4C001A9310E01A930E94934CDF91CF91CF9398
:100F5C00DF9318E0412A0DE61CE41A930A930091E2
:100F6C002604109127042091280430912904CF9352
:100F7C00DF933A932A931A930A9318E01A9300E09A
:100F8C000A9310E21A93689443F8689445F8E8942D
:100F9C0054F855F842F80E947450DF91CF91DF91CC
:100FAC00CF9110E00E94B44CCF93DF9318E0412A0C
:100FBC0002E11EE41A930A931EE20E94E952DF91A9
:100FCC00CF9108952497CF93DF9313E01A930E9447
:100FDC00E903DF91CF9100913D0210913E022091E7
:100FEC003F02309140023B832A8319830883CF93BD
:100FFC00DF9318E0412A02E11EE41A930A93EDEE06
:10100C00F8EA0E941350DF91CF91CF93DF9318E051
:10101C00412A02E11EE41A930A933D812C811B8123
:10102C000A81689443F8B801C901492F0E94DC5227
:10103C00482F0E94DC52472F0E94DC52462F0E9400
:10104C00DC52DF91CF91CF93DF9318E0412A02E17C
:10105C001EE41A930A93E6EAF8EA0E941350DF9111
:10106C00CF910E94A404089528971AE314B91FE99C
:10107C0015B910E717B91FEC18B9109121041B7F93
:10108C0010932104469815E00E94514E469A15E0A3
:10109C000E94514E10E317B916E206EB0093520270
:1010AC001093530211E004EF0E94424E1BEB14B953
:1010BC001FE915B90E94AB04112737991FEF1123B3
:1010CC0011F40C947908CF93DF9318E0412A02E1D4
:1010DC001EE41A930A93EAEFF8EA0E941350DF9188
:1010EC00CF910C948C08CF93DF9318E0412A02E146
:1010FC001EE41A930A93EAE0F9EA0E941350DF9176
:10110C00CF91109121041460109321040E94530478
:10111C00CF93DF930E94E807DF91CF910895E7E327
:10112C00F2E010E81193E6E3F2E0EF93FF931091F5
:10113C002D041F5FFF91EF9111930E9406021091F5
:10114C002E04109345020E94BE01E6E3F2E01091DA
:10115C002D0411930E9406020895E7E3F2E010E8D3
:10116C001193E6E3F2E0EF93FF9310912D041F5FD0
:10117C00FF91EF9111930E94060210912E0410938F
:10118C0045020E94BE01089565970E94AB04CF935F
:10119C00DF9318E0412A02E11EE41A930A93EAE273
:1011AC00F9EA0E9413501DE00E94E9521AE00E94D5
:1011BC00E952DF91CF9110E01A8710E0188710E008
:1011CC001C8B10E0198B1FEF188B00E010E020E057
:1011DC0030E00093260410932704209328043093C6
:1011EC00290410E000E01C870B870E94EF0610E03A
:1011FC0000E01983088310E000E01B830A83388D1C
:10120C002F891E890D893F832E831D830C831A859C
:10121C001095112311F40C947C0910E000E01C874C
:10122C000B8711275A991FEF1095E894112309F099
:10123C0068941BB112F91BB9CF93DF93FE0174961E
:10124C00FA93EA9314E61A930E94DB4DDF91CF9147
:10125C001A871A85112311F40C944D091C8911302D
:10126C0010E009F41FEF1F931C89143010E009F4EF
:10127C001FEF0F91102B112311F40C944B0910E05C
:10128C0000E01C870B870C947C090C94570915E122
:10129C000E94124EFE013B96A081B1811196A08353
:1012AC00B1831C89113010E009F41FEF1F931C89C6
:1012BC00143010E009F41FEF0F91102B1F931C89B1
:1012CC00183110E009F41FEF0F91102B1F930B85B1
:1012DC001C85103009F4043110E011F008F01FEFF8
:1012EC000F91102B112311F40C94220918851095D1
:1012FC00112311F40C9486090E942D071FEF1887F7
:10130C001C89113010E009F41FEF112311F40C9417
:10131C00B80ACF93DF93FE017396FA93EA9314E61F
:10132C001A930E94DB4DDF91CF91198719851123F8
:10133C0011F40C94B20ACF93DF93FE017296FA93D8
:10134C00EA931AE01A930E94DB4DDF91CF91198733
:10135C001B890FEF011B102F1F931A890F91011777
:10136C0010E009F41FEF112311F40C94B00A10E0F3
:10137C00198BE8E0F0E0FA93EA9310E010831FE792
:10138C001A931081088101171FEF08F01127112300
:10139C0011F00C94F809CF93DF93EAE0F0E0FA93A4
:1013AC00EA931AE01A930E94DB4DDF91CF911C87D0
:1013BC001C891F931A2D0F91100F1C8B182D1F9326
:1013CC001A2DE0E0F7E0AF91AF7FBB27EA0FFB1FD0
:1013DC001083E981FA81108113951083112311F088
:1013EC000C94C8092396CF93DF93FE017096FA9361
:1013FC00EA931AE01A930E94DB4DDF91CF91198783
:10140C00CF93DF933F812E811D810C813A932A93D8
:10141C001A930A9310E000E81A930A930E940103AE
:10142C00DF91CF911095112311F40C94240AFE0135
:10143C003296A081B1811196A083B183CF93DF93B3
:10144C003F812E811D810C813A932A931A930A9322
:10145C0010E000E81A930A931FEF1A930E9474038A
:10146C00DF91CF91E8E0F0E0FA93EA9310E010837B
:10147C001FE71A931081088101171FEF08F011273D
:10148C00112311F00C94740A182DE0E0F6E01F7F84
:10149C000027E10FF01F10811F93182DE0E0F7E0FB
:1014AC001F7F0027E10FF01F10810F91011710E033
:1014BC0009F01FEF112311F40C946B0AFE01339603
:1014CC00A081B1811196A083B183E981FA81108149
:1014DC0013951083112311F00C94410A239619894A
:1014EC001F9318890F91011710E009F41FEF1123B6
:1014FC0011F40C94A60A16E00E94124E3F812E8124
:10150C001D810C8100581F4F2F4F3F4F3F832E835F
:10151C001D830C830091260410912704209128042C
:10152C003091290400581F4F2F4F3F4F0093260432
:10153C001093270420932804309329040C94B00AA8
:10154C00FE013B96A081B1811196A083B18315E178
:10155C000E94124E0C94B60A10E00FEF1C870B87FA
:10156C0010E01C8B10E01A871C89143010E009F471
:10157C001FEF1F931C89183110E009F41FEF0F9116
:10158C00102B1F930B851C85103009F4043110E0CF
:10159C0011F008F01FEF0F91102B112311F40C9484
:1015AC000D0916E00E94124E18891F9319890F918C
:1015BC00011710E009F01FEF112311F40C940A0B22
:1015CC000FEF1FEF2FEF3FEF00935A0210935B02C8
:1015DC0020935C0230935D020E94AB04CF93DF93A7
:1015EC0018E0412A02E11EE41A930A93EDE3F9EAAA
:1015FC000E9413501DE00E94E9521AE00E94E95229
:10160C00DF91CF910C941A0B0091260410912704B2
:10161C00209128043091290400935A0210935B0204
:10162C0020935C0230935D0208811981103009F41B
:10163C00003010E009F01FEF112311F40C94770B1C
:10164C000FEF1FEF2FEF3FEF00935A0210935B0247
:10165C0020935C0230935D020E94AB04CF93DF9326
:10166C0018E0412A02E11EE41A930A93E8E5F9EA2C
:10167C000E941350DF91CF91CF93DF9318E0412A52
:10168C0002E11EE41A930A930A811B81CF93DF9324
:10169C001A930A9310E01A9310E01A9310E21A931B
:1016AC00689443F8E89445F8E89454F855F80E9487
:1016BC006D52DF91CF91DF91CF91CF93DF9318E0F3
:1016CC00412A02E11EE41A930A93EEE6F9EA0E941B
:1016DC0013501DE00E94E9521AE00E94E952DF917A
:1016EC00CF910A811B81103009F4003010E009F011
:1016FC001FEF112311F40C94D40B0FEF1FEF2FEFEE
:10170C003FEF00935A0210935B0220935C023093DC
:10171C005D020E94AB04CF93DF9318E0412A02E1F3
:10172C001EE41A930A93EFE7F9EA0E941350DF9133
:10173C00CF91CF93DF9318E0412A02E11EE41A9374
:10174C000A930C811D81CF93DF931A930A9310E0B7
:10175C001A9310E01A9310E21A93689443F8E894E1
:10176C0045F8E89454F855F80E946D52DF91CF91EA
:10177C00DF91CF91CF93DF9318E0412A02E11EE471
:10178C001A930A93EEE6F9EA0E9413501DE00E94A8
:10179C00E9521AE00E94E952DF91CF910895229705
:1017AC00CF93DF9312E01A930E94E903DF91CF915C
:1017BC0011271A991FEF112311F40C94D60B1091C9
:1017CC003F021A3A10E009F41FEF112311F40C94A4
:1017DC00B90C10913D02103511F00C94050CCF93FF
:1017EC00DF9318E0412A02E11EE41A930A93E4E91C
:1017FC00F9EA0E941350DF91CF910C94880C1135AB
:10180C0011F00C94190CCF93DF9318E0412A02E1EC
:10181C001EE41A930A93E5EAF9EA0E941350DF9149
:10182C00CF910C94880C123511F00C942D0CCF9395
:10183C00DF9318E0412A02E11EE41A930A93E3EBCA
:10184C00F9EA0E941350DF91CF910C94880C133558
:10185C0011F00C94410CCF93DF9318E0412A02E174
:10186C001EE41A930A93EDEBF9EA0E941350DF91F0
:10187C00CF910C94880C143511F00C94550CCF931B
:10188C00DF9318E0412A02E11EE41A930A93EBEC71
:10189C00F9EA0E941350DF91CF910C94880C1F35FC
:1018AC0011F00C94690CCF93DF9318E0412A02E1FC
:1018BC001EE41A930A93E9EDF9EA0E941350DF91A2
:1018CC00CF910C94880CCF93DF9318E0412A02E15E
:1018DC001EE41A930A93E2EEF9EA0E941350DF9188
:1018EC00CF91CF93DF9318E0412A02E11EE41A93C3
:1018FC000A9310913D02689443F8412F0E94DC52E8
:10190C00DF91CF91CF93DF9318E0412A02E11EE4DF
:10191C001A930A93EDEEF9EA0E941350DF91CF91DE
:10192C00CF93DF9318E0412A02E11EE41A930A9345
:10193C0010913E02689443F8412F0E94DC52DF91D3
:10194C00CF91CF93DF9318E0412A02E11EE41A9362
:10195C000A93E6EAF8EA0E941350DF91CF910E94B5
:10196C00A4040C94C90CCF93DF9318E0412A02E134
:10197C001EE41A930A93E9EFF9EA0E941350DF91DF
:10198C00CF910E94A404089525970E94AB041E8158
:10199C00145510932E040E949508CF93DF9318E0F2
:1019AC00412A02E11EE41A930A9310912E04CF935C
:1019BC00DF931A9310E01A9310E01A9310E21A9323
:1019CC00689443F80E943450DF91CF91DF91CF910E
:1019DC00CF93DF9318E0412A02E11EE41A930A9395
:1019EC00EFE0FAEA0E941350DF91CF911E81012F94
:1019FC0011273327222740E050E160E070E0689423
:101A0C0045F80E94B3533C832B831A83098300E06F
:101A1C0010E020E030E0009326041093270420937C
:101A2C00280430932904E8E0F0E0FA93EA9310E0FC
:101A3C0010831FE01A931081088101171FEF08F023
:101A4C001127112311F00C94F40DCF93DF933F81E8
:101A5C002E811D810C813A932A931A930A9311E0DB
:101A6C0000E01A930A9310E01A930E947403DF911A
:101A7C00CF911885112311F40C947B0DEAE0F0E062
:101A8C00FA93EA9310E010831FEF1A9310810881E8
:101A9C0001171FEF08F01127112311F00C94780D8A
:101AAC001A2DE0E0F7E01F7F0027E10FF01F1081F7
:101ABC001E83CF93DF9318E0412A02E11EE41A93B0
:101ACC000A931885689443F8412F0E94DC52DF91E9
:101ADC00CF91E981FA81108113951083112311F0B4
:101AEC000C944D0D23960C94920D182D11701130F1
:101AFC0010E009F41FEF112311F40C94920DCF9305
:101B0C00DF9318E0412A02E11EE41A930A931EE2C5
:101B1C000E94E952DF91CF91EAE0F0E0FA93EA9368
:101B2C0010E010831FE31A931081088101171FEF37
:101B3C0008F01127112311F00C94CA0DE0E0F7E026
:101B4C00EF93FF931A2D012F1127000F111F000F78
:101B5C00111FFF91EF91E00FF11F01911191219154
:101B6C0031910093390210933A0220933B02309347
:101B7C003C020E94DF01E981FA81108113951083E8
:101B8C00112311F00C949B0D23963F812E811D8106
:101B9C000C8100501F4F2F4F3F4F3F832E831D83CF
:101BAC000C83009126041091270420912804309175
:101BBC00290400501F4F2F4F3F4F009326041093C2
:101BCC0027042093280430932904E981FA81108199
:101BDC0013951083112311F00C94220D23960E945F
:101BEC00B3080E948B0711E004EFE8E4F2E0B1E0E7
:101BFC000E940F5400912604109127042091280470
:101C0C003091290400935A0210935B0220935C02DA
:101C1C0030935D021FEF1093950310E002E30E94D6
:101C2C00424ECF93DF930E94D50BDF91CF91089555
:101C3C002D970E94AB04CF93DF9318E0412A02E169
:101C4C001EE41A930A931F85CF93DF931A9310E027
:101C5C001A9310E01A9310E21A93689443F80E94B6
:101C6C003450DF91CF91DF91CF91CF93DF9318E078
:101C7C00412A02E11EE41A930A93EFE1FAEA0E9468
:101C8C001350DF91CF91CF93DF9310E01A9318E4A8
:101C9C001A930E940204DF91CF9110E004E60E9497
:101CAC00424E1D851C5A012F11273327222740E055
:101CBC0050E160E070E0689445F80E94B3533C87B3
:101CCC002B871A87098710E000E018870F8310E034
:101CDC0000E019830883E8E0F0E0FA93EA9310E05F
:101CEC0010831FE01A931081088101171FEF08F071
:101CFC001127112311F00C94750FCF93DF933F85AF
:101D0C002E851D850C853A932A931A930A9311E01C
:101D1C0000E01A930A9310E01A930E947403DF9167
:101D2C00CF9110E000E01E830D8310E000E01C83D7
:101D3C000B830A851B8519870887EAE0F0E0FA9384
:101D4C00EA9310E0108317E01A93108108810117B1
:101D5C001FEF08F01127112311F00C94EA0ECF930A
:101D6C00DF9310E51A930E851F851A930A9317E0DB
:101D7C0000E00F931F930B851C853F912F91020F51
:101D8C00131F1A930A9310E000E21A930A930E940D
:101D9C00A84DDF91CF9110E00AE00E94424E0885D9
:101DAC001985005E1F4F198708870D851E85005EFB
:101DBC001F4F1E870D87E981FA81108113951083BF
:101DCC00112311F00C94AC0E239610E51F9308858B
:101DDC0019851F93E89440F808851985102FE6E1C2
:101DEC00F0E0612FA1E0B0E03F914F9150E00E94F4
:101DFC00B24DCF93DF9310E51A9316E000E01A93DF
:101E0C000A9311E000E01A930A930E948A4DDF9125
:101E1C00CF91EAE0F0E0FA93EA9310E010831FEF21
:101E2C001A931081088101171FEF08F01127112355
:101E3C0011F00C944B0F1A2DE0E0F7E01F7F0027F8
:101E4C00E10FF01F10811F931A2DE0E0F6E01F7FC9
:101E5C000027E10FF01F10810F91011710E009F01E
:101E6C001FEF112311F40C94420FFE013696A08142
:101E7C00B1811196A083B183E981FA811081139508
:101E8C001083112311F00C94180F23960B811C81D5
:101E9C00103009F4003010E009F41FEF112311F495
:101EAC000C945D0F1EE20E94124E0C94600F13E214
:101EBC000E94124E3F852E851D850C8500501F4FAC
:101ECC002F4F3F4F3F872E871D870C87E981FA8163
:101EDC00108113951083112311F00C947A0E239614
:101EEC00CF93DF9318E0412A02E11EE41A930A9380
:101EFC001DE50E94E9521DE00E94E9521AE00E9481
:101F0C00E952DF91CF9111E004EFE8E4F2E0B1E0A7
:101F1C000E940F540091260410912704209128044C
:101F2C003091290400935A0210935B0220935C02B7
:101F3C0030935D021FEF10939503088119811030C7
:101F4C0009F4003010E009F01FEF112311F40C9488
:101F5C00F40F0E94AB04CF93DF9318E0412A02E107
:101F6C001EE41A930A93EEE3FAEA0E941350DF91EF
:101F7C00CF91CF93DF9318E0412A02E11EE41A932C
:101F8C000A930A811B81CF93DF931A930A9310E073
:101F9C001A9310E01A9310E21A93689443F8E89499
:101FAC0045F8E89454F855F80E946D52DF91CF91A2
:101FBC00DF91CF91CF93DF9318E0412A02E11EE429
:101FCC001A930A93EEE6F9EA0E9413501DE00E9460
:101FDC00E9521AE00E94E952DF91CF9108952397BC
:101FEC001B811095E894112309F068941BB112F928
:101FFC001BB91B8110951F9348E331E00E94004DE3
:10200C000F91002311F0106801C01F7748E331E0F5
:10201C000E94F74C0895E8E0F0E0FA93EA9310E0A0
:10202C001083EF93FF931A81FF91EF911A93108114
:10203C00088101171FEF08F01127112311F00C94E0
:10204C004810CF93DF931FEF1A930E94F50FDF9187
:10205C00CF9110E006E90E94424ECF93DF9310E03F
:10206C001A930E94F50FDF91CF9110E006E90E94C0
:10207C00424EE981FA81108113951083112311F0DE
:10208C000C941E10239608952197CF93DF931FEF86
:10209C001A930E94F50FDF91CF91E8E0F0E0FA93EC
:1020AC00EA9310E010831FE01A9310810881011746
:1020BC001FEF08F01127112311F00C949610E2E396
:1020CC00F0E0EF93FF931C81012F1127A0E1B0E00A
:1020DC00E89445F80E9457530F931F93182D012F26
:1020EC0011273F912F91020F131FFF91EF91E00FDA
:1020FC00F11F0E948B4E1B83182D1F931B81E4E64E
:10210C00F2E0AF91AF73BB27EA0FFB1F1083E9819D
:10211C00FA81108113951083112311F00C945C102B
:10212C00239610E00AE00E94424ECF93DF9310E01A
:10213C001A930E94F50FDF91CF9108952197CF93B9
:10214C00DF931FEF1A930E94F50FDF91CF91E8E018
:10215C00F0E0FA93EA9310E010831FE01A931081D9
:10216C00088101171FEF08F01127112311F00C94AF
:10217C00F110E2E3F1E0EF93FF931C81012F1127A3
:10218C00A0E1B0E0E89445F80E9457530F931F93D9
:10219C00182D012F11273F912F91020F131FFF9123
:1021AC00EF91E00FF11F0E948B4E1B83182D105FD7
:1021BC001F931B81E4E6F2E0AF91AF73BB27EA0FEC
:1021CC00FB1F1083E981FA81108113951083112371
:1021DC0011F00C94B610239610E00AE00E94424EC7
:1021EC00CF93DF9310E01A930E94F50FDF91CF91FC
:1021FC0008952197E8E0F0E0FA93EA9310E0108359
:10220C001FE11A931081088101171FEF08F01127A5
:10221C00112311F00C943311182D105E1F93E2E171
:10222C00F0E0EF93FF93182D012F1127FF91EF9101
:10223C00E00FF11F0E948B4EE4E6F2E0AF91AF731A
:10224C00BB27EA0FFB1F1083E981FA8110811395DC
:10225C001083112311F00C940911239610918E0206
:10226C00133010E011F008F01FEF10935E03089587
:10227C002197CF93DF931FEF1A930E94F50FDF91F5
:10228C00CF91E8E0F0E0FA93EA9310E010831FE0BE
:10229C001A931081088101171FEF08F011271123E1
:1022AC0011F00C948C11182DE4E6F2E01F7300274A
:1022BC00E10FF01F10811B83E2E3F0E0EF93FF933B
:1022CC001C81012F1127A0E1B0E0E89445F80E9491
:1022DC0057530F931F93182D012F11273F912F91B7
:1022EC00020F131FFF91EF91E00FF11FEF93FF937C
:1022FC001B81FF91EF910E94694EE981FA81108157
:10230C0013951083112311F00C9450112396CF9335
:10231C00DF9310E01A930E94F50FDF91CF9108958F
:10232C002197CF93DF931FEF1A930E94F50FDF9144
:10233C00CF91E8E0F0E0FA93EA9310E010831FE00D
:10234C001A931081088101171FEF08F01127112330
:10235C0011F00C94E511182D105FE4E6F2E01F73F8
:10236C000027E10FF01F10811B83E2E3F1E0EF93F4
:10237C00FF931C81012F1127A0E1B0E0E89445F8F0
:10238C000E9457530F931F93182D012F11273F9124
:10239C002F91020F131FFF91EF91E00FF11FEF939D
:1023AC00FF931B81FF91EF910E94694EE981FA81A5
:1023BC00108113951083112311F00C94A8112396FE
:1023CC00CF93DF9310E01A930E94F50FDF91CF911A
:1023DC0008952197E8E0F0E0FA93EA9310E0108377
:1023EC001FE11A931081088101171FEF08F01127C4
:1023FC00112311F00C942712182D105EE4E6F2E074
:10240C001F730027E10FF01F10811B83E2E1F0E046
:10241C00EF93FF93182D012F1127FF91EF91E00FF0
:10242C00F11FEF93FF931B81FF91EF910E94694E77
:10243C00E981FA81108113951083112311F00C940A
:10244C00F911239608952197E8E0F0E0FA93EA93C6
:10245C0010E010831CE01A931081088101171FEF04
:10246C0008F01127112311F00C945C12182D1F93F6
:10247C00E2E5F2E0EF93FF93182D012F1127FF9166
:10248C00EF91E00FF11F0E948B4EE4ECF2E0AF9164
:10249C00AF70BB27EA0FFB1F1083E981FA81108113
:1024AC0013951083112311F00C9433122396E8E04A
:1024BC00F0E0FA93EA9310E010831FE01A93108176
:1024CC00088101171FEF08F01127112311F00C944C
:1024DC008F12182D1F93E2EAF2E0EF93FF93182D61
:1024EC00012F1127FF91EF91E00FF11F0E948B4EEE
:1024FC00E5E3F3E0AF91AF70BB27EA0FFB1F10834E
:10250C00E981FA81108113951083112311F00C9439
:10251C0066122396E8E0F0E0FA93EA9310E0108359
:10252C001FE11A931081088101171FEF08F0112782
:10253C00112311F00C94DE12182D1F93E2E6F2E039
:10254C00EF93FF93182D012F1127000F111FFF91EF
:10255C00EF91E00FF11F0E94944EE5EFF2E0AF9186
:10256C00AF71BB27AA0FBB1FEA0FFB1F11830083A0
:10257C00182D1F93E2E3F2E0EF93FF93182D012F38
:10258C001127FF91EF91E00FF11F0E948B4EE4EAAF
:10259C00F2E0AF91AF71BB27EA0FFB1F1083E9810B
:1025AC00FA81108113951083112311F00C94991258
:1025BC0023961091CF021093AF021091D0021030DD
:1025CC0010E009F01FEFE894112309F068941091C2
:1025DC008A0316F910938A0310E01093D10210E0CD
:1025EC001093D202109189031F77109389031091D5
:1025FC0089031F7B1093890308952297CF93DF9350
:10260C001FEF1A930E94F50FDF91CF911091A20248
:10261C0013701883E8E0F0E0FA93EA9310E010836B
:10262C0013E01A931081088101171FEF08F011278E
:10263C00112311F00C945213182D1F931B81110FA1
:10264C00110F0F91100FE5E3F3E01F700027E10F5E
:10265C00F01F10811C83182D133010E009F41FEFAC
:10266C00112311F40C943E131C8108E010271C83D9
:10267C00CF93DF931C811A93182D1B5B1A930E9426
:10268C000204DF91CF91E981FA81108113951083B7
:10269C00112311F00C941913239610E002E30E94FD
:1026AC00424ECF93DF9310E01A930E94F50FDF9107
:1026BC00CF9108952797CF93DF931FEF1A930E9422
:1026CC00F50FDF91CF91E8E0F0E0FA93EA9310E098
:1026DC0010831FE11A931081088101171FEF08F076
:1026EC001127112311F00C949E13182DE5EFF2E035
:1026FC001F710027110F001FE10FF01F00811181C6
:10270C0018870F83CF93DF930F8118851A930A9341
:10271C00182D10561A930E941F04DF91CF91E98156
:10272C00FA81108113951083112311F00C947213FC
:10273C002396E8E0F0E0FA93EA9310E010831FE1AF
:10274C001A931081088101171FEF08F0112711232C
:10275C0011F00C94CE13182DE4EAF2E01F7100274F
:10276C00E10FF01F10811987CF93DF9319851A930E
:10277C00182D10541A930E940204DF91CF91E98115
:10278C00FA81108113951083112311F00C94A81366
:10279C002396CF93DF9310E01A9317EF1A930E94AE
:1027AC000204DF91CF91FE013496FA93EA9310E084
:1027BC0000E01183008311E00FEF1A930A93A081BC
:1027CC00B18128813981B31709F4A21710E011F0F7
:1027DC0008F01FEF112311F00C942A14EBEDF2E02A
:1027EC00EF93FF9308851985000F111FFF91EF914F
:1027FC00E00FF11F0E94944E17FF03C03FEF2FEF25
:10280C0002C0332722273F832E831D830C83CF9353
:10281C00DF933F812E811D810C813A932A931A9369
:10282C000A9316EF1A930E943604DF91CF91EA8136
:10283C00FB81A081B1811196A083B183BB2311F4DC
:10284C00AA2311F00C94E7132496CF93DF931091E5
:10285C00AD021A9319E41A930E940204DF91CF91EE
:10286C00CF93DF9310E01A930E94F50FDF91CF9175
:10287C00089510E004E60E94424ECF93DF9310E0DF
:10288C001A9318E41A930E940204DF91CF9110E07E
:10289C0004E60E94424ECF93DF931FEF1A930E94DF
:1028AC00F50FDF91CF91CF93DF930E940313DF914C
:1028BC00CF91CF93DF9310E01A930E94F50FDF9125
:1028CC00CF9108952597CF93DF9310E01A930E9430
:1028DC00E903DF91CF9110913D021F7010937F039C
:1028EC0010913D0212951F7010938003109180037C
:1028FC001F9310917F030F91011710E011F008F056
:10290C001FEF10938103CF93DF9310917D021A93E5
:10291C0019E21A930E940204DF91CF91CF93DF93B7
:10292C0010917E021A931AE21A930E940204DF910C
:10293C00CF91CF93DF9310917F021A931BE21A93DE
:10294C000E940204DF91CF91CF93DF93109180020C
:10295C001A931CE21A930E940204DF91CF911091FA
:10296C00980217701F9310918202110F110F110F03
:10297C00110F0F91102B1A83CF93DF931A811A9397
:10298C001BE01A930E940204DF91CF9110916F0209
:10299C001F931091700210950F9110231F9310919B
:1029AC009F020F911023112311F40C941215E8E0DF
:1029BC00F0E0FA93EA9310E0108317E01A93108179
:1029CC00088101171FEF08F01127112311F00C9447
:1029DC000F15182D105F1F83182DE4E6F2E01F73FE
:1029EC000027E10FF01F108116951D83CF93DF9305
:1029FC001D811A9318851A930E940204DF91CF91BE
:102A0C00E981FA81108113951083112311F00C9434
:102A1C00E61423960C944415E8E0F0E0FA93EA935C
:102A2C0010E0108317E01A931081088101171FEF33
:102A3C0008F01127112311F00C944315182D105F79
:102A4C001F83182DE4E6F2E01F730027E10FF01F3F
:102A5C0010811D83CF93DF931D811A9318851A93D0
:102A6C000E940204DF91CF91E981FA8110811395C4
:102A7C001083112311F00C941B152396E8E0F0E061
:102A8C00FA93EA9310E1108318E11A9310810881EC
:102A9C0001171FEF08F01127112311F00C94751575
:102AAC00182D105F1F83182DE4E6F2E01F7300272A
:102ABC00E10FF01F10811D83CF93DF931D811A93BB
:102ACC0018851A930E940204DF91CF91E981FA8153
:102ADC00108113951083112311F00C944D1523962E
:102AEC0010916F02112311F40C940D1610919F028A
:102AFC00112311F40C948E15CF93DF9310E01A93DD
:102B0C0018E11A930E940204DF91CF910C94B31533
:102B1C0010917002112311F40C949F1518E0E4E647
:102B2C00F2E01F730027E10FF01F10811A830C9441
:102B3C00A91518E0E4E6F2E01F730027E10FF01F7F
:102B4C00108116951A83CF93DF931A811A9318E18B
:102B5C001A930E940204DF91CF91109172021123FB
:102B6C0011F40C94C515CF93DF9311E01A931BE16C
:102B7C001A930E940204DF91CF910C94CF15CF933E
:102B8C00DF9310E01A931BE11A930E940204DF9169
:102B9C00CF9110917002112311F40C94E215CF9384
:102BAC00DF93109191021A931AE11A930E94020476
:102BBC00DF91CF910C94ED15CF93DF931091900290
:102BCC001A931AE11A930E940204DF91CF9110918B
:102BDC007102112311F40C940016CF93DF93109112
:102BEC0093021A9319E11A930E940204DF91CF9178
:102BFC000C940B16CF93DF93109192021A9319E158
:102C0C001A930E940204DF91CF910C942A1618E0BB
:102C1C00E4E6F2E01F730027E10FF01F10811A8326
:102C2C00CF93DF931A811A9318E11A930E9402042E
:102C3C00DF91CF91CF93DF9310E01A931AE11A939F
:102C4C000E940204DF91CF9110E01A8310916E0262
:102C5C00112311F40C943716FE0132961081139542
:102C6C00108310918102112311F40C944716FE016C
:102C7C003296108113951083FE01329610811395B4
:102C8C001083CF93DF931A811A931DE01A930E943D
:102C9C000204DF91CF9110916D02103011F00C9461
:102CAC0059160C946316123011F00C945F160C9498
:102CBC006316143011F00C947916CF93DF9312ED48
:102CCC001A9315E01A930E940204DF91CF91CF93CF
:102CDC00DF9310E01A9316E01A930E940204DF911E
:102CEC00CF910C94A116113011F00C947F160C940A
:102CFC008916133011F00C9485160C948916153026
:102D0C0011F00C94A116CF93DF9310918D021A93AE
:102D1C0015E01A930E940204DF91CF91CF93DF93B9
:102D2C0010918C021A9316E01A930E940204DF9100
:102D3C00CF910C94A11610916D02103011F00C94DF
:102D4C00A9160C94AD16113011F00C94C516CF9336
:102D5C00DF93109186021A9318E01A930E940204D2
:102D6C00DF91CF91CF93DF93109189021A9314E0E6
:102D7C001A930E940204DF91CF910C940917123020
:102D8C0011F00C94CB160C94CF16133011F00C944C
:102D9C00E716CF93DF93109187021A9318E01A93DA
:102DAC000E940204DF91CF91CF93DF9310918A029E
:102DBC001A9314E01A930E940204DF91CF910C94A1
:102DCC000917143011F00C94ED160C94F116153003
:102DDC0011F00C940917CF93DF93109188021A937A
:102DEC0018E01A930E940204DF91CF91CF93DF93E6
:102DFC0010918B021A9314E01A930E940204DF9133
:102E0C00CF910C9409171091F2021F931091A2020A
:102E1C000F91011710E009F01FEF1F93109196030B
:102E2C000F91102B112311F40C942917CF93DF93CE
:102E3C000E940313DF91CF911091A2021093F20222
:102E4C0010E01093960310919503112311F40C9438
:102E5C007D17CF93DF931091A00211701A9317E096
:102E6C001A930E940204DF91CF9110918E0213707D
:102E7C001F9310918F02110F110F110F110F0F9142
:102E8C00102B1A83CF93DF931A811A9319E01A939C
:102E9C000E940204DF91CF91109194021F93109124
:102EAC00960225E00E9428530F91102B1F9310912E
:102EBC00950226E00E9428530F91102B1A83CF9372
:102ECC00DF931A811A931CE01A930E940204DF917B
:102EDC00CF91CF93DF93109199021A931EE01A931E
:102EEC000E940204DF91CF9110E010939503089596
:102EFC002B9710919A02103010E009F41FEF112358
:102F0C0011F40C948F1710919B0216951A870C9440
:102F1C0093171091430416951A871A851F931091D5
:102F2C004D030F91011B102F1B831B811A3010E0D6
:102F3C0011F008F01FEF112311F40C94A81710E0F6
:102F4C00109359031A8510934D03109159031123B3
:102F5C0011F40C94DC1710914E031F9310914C0339
:102F6C000F91011710E011F008F01FEF112311F46D
:102F7C000C94C71710914C03139510934C030C949D
:102F8C00DA1710914E031F9310914C030F910117F8
:102F9C001FEF08F01127112311F40C94DA1710917C
:102FAC004C031A9510934C030C94DF171A8510934D
:102FBC004C0310914C0316951F831F8116951E838D
:102FCC0010919C02103010E009F41FEF112311F442
:102FDC000C94F51710919D0218830C94FF1719E0AF
:102FEC00E8E3F4E01F710027E10FF01F1081169544
:102FFC00188310919E0216951695185F1F93CF9308
:10300C00DF9310914C031A9310919E021A9318ECB3
:10301C001A930E94344EDF91CF910F91100F1A83A7
:10302C001A811F9310914C030F91100F198310915B
:10303C004C031F931A81169516950F91100F188734
:10304C001E811E5F1D8310916E021F9310918102D1
:10305C000F91102B112311F40C94681810916D0220
:10306C001170113010E009F41FEF112311F40C94BE
:10307C005718CF93DF9310914C031A9319811A931D
:10308C001AE51A930E94344EDF91CF91185F19877D
:10309C001D811F931E8116950F91100F1D830C948B
:1030AC006618CF93DF9310914C031A9319811A93DE
:1030BC0018E71A930E94344EDF91CF911A5F19874B
:1030CC000C947618CF93DF931F811A9319811A935E
:1030DC001CE81A930E94344EDF91CF911A5F198726
:1030EC0010914C03105F1F931F810F91100F1C83C5
:1030FC00CF93DF931D811A9310E41A930E9402045C
:10310C00DF91CF91CF93DF9319811A9311E41A9326
:10311C000E940204DF91CF91CF93DF9318851A930D
:10312C0012E41A930E940204DF91CF91CF93DF93A4
:10313C0019851A9313E41A930E940204DF91CF911C
:10314C00CF93DF931C811A9314E41A930E94020408
:10315C00DF91CF91089521971091EF021F93009169
:10316C009902112701FD1FEF0F91102B10951123C0
:10317C0011F40C94DD181091CE02103010E009F00F
:10318C001FEF112311F40C94D118109142041093D9
:10319C00AF020C94D5181091CF021093AF0200918E
:1031AC008A03112706FD1FEF11701093D0021091A6
:1031BC00ED02112311F40C94ED181091C802109328
:1031CC004A031091C90210934B030C94F5181091FB
:1031DC00C60210934A031091C70210934B0310912F
:1031EC00EE021095112311F40C94021910E01093B7
:1031FC004A0310E010934B031FEF00914B02002386
:10320C0009F01095112311F40C943D1910914803F9
:10321C001F9310914A030F91011710E009F01FEF53
:10322C00112311F40C943D1910914A031F93109122
:10323C0048030F91011710E011F008F01FEF112354
:10324C0011F40C94341910914803139510934803FE
:10325C001091CA0210934B020C943D191091480323
:10326C001A95109348031091CC0210934B021FEF48
:10327C0000914C02002309F01095112311F40C94C9
:10328C007819109149031F9310914B030F9101175B
:10329C0010E009F01FEF112311F40C947819109120
:1032AC004B031F93109149030F91011710E011F07C
:1032BC0008F01FEF112311F40C946F1910914903AE
:1032CC001395109349031091CB0210934C020C945C
:1032DC007819109149031A95109349031091CD0256
:1032EC0010934C0200914603109147030F931F93C8
:1032FC0010914803012F11273F912F91020F131F9B
:10330C000093460310934703109148031093A402B3
:10331C00109149031093B40210914503112311F439
:10332C000C94A319CF93DF930E946013DF91CF917C
:10333C0010E0109345030C94CF19CF93DF931091A9
:10334C00AF021A931BEC1A930E940204DF91CF91E7
:10335C00CF93DF931091D0021A931CEC1A930E9416
:10336C000204DF91CF91CF93DF931091A4021A93B3
:10337C0010EC1A930E940204DF91CF91CF93DF934C
:10338C001091B4021A9310ED1A930E940204DF916B
:10339C00CF9108950E94AB04CF93DF9318E0412A9C
:1033AC0002E11EE41A930A93E8E5FAEA0E9413502C
:1033BC00DF91CF910E94A40410911A04112311F4EF
:1033CC000C94191A01E010E020E030E000935A024E
:1033DC0010935B0220935C0230935D02E5EFF3E007
:1033EC00EF93FF933196FA93EA931FE11A9317EF39
:1033FC0041221FEB4122E5E6FAEA0E9413501FE13D
:10340C001F9318810F91011B102FFF91EF911083C7
:10341C0023960E945E06CF93DF9312E61A930E94C6
:10342C004E00DF91CF9110911804112311F40C94DC
:10343C00501A02E010E020E030E000935A021093A2
:10344C005B0220935C0230935D02E5EFF3E0EF93B7
:10345C00FF933196FA93EA931FE11A9317EF4122E7
:10346C001FEB4122E5E7FAEA0E9413501FE11F937C
:10347C0018810F91011B102FFF91EF911083239650
:10348C000E945E06CF93DF9310E61A930E944E00C3
:10349C00DF91CF9110911904112311F40C94871A18
:1034AC0003E010E020E030E000935A0210935B023E
:1034BC0020935C0230935D02E5EFF3E0EF93FF9312
:1034CC003196FA93EA931FE11A9317EF41221FEBFF
:1034DC004122E9E8FAEA0E9413501FE11F93188178
:1034EC000F91011B102FFF91EF91108323960E94D7
:1034FC005E06CF93DF9311E61A930E944E00DF9184
:10350C00CF9100E010E020E030E000938E031093A8
:10351C008F03209390033093910310911D0411237A
:10352C0011F40C94C21A04E010E020E030E0009397
:10353C005A0210935B0220935C0230935D02E5EF1C
:10354C00F3E0EF93FF933196FA93EA931FE11A930A
:10355C0017EF41221FEB4122EDE9FAEA0E941350CA
:10356C001FE11F9318810F91011B102FFF91EF91F9
:10357C00108323960E945E0610911C04112311F4F3
:10358C000C94F71A10E8109548E333E00E94F74CBE
:10359C0005E010E020E030E000935A0210935B024B
:1035AC0020935C0230935D02E5EFF3E0EF93FF9321
:1035BC003196FA93EA931FE11A9317EF41221FEB0E
:1035CC004122EEEAFAEA0E9413501FE11F93188180
:1035DC000F91011B102FFF91EF91108323960E94E6
:1035EC005E0610911704112311F40C94261B06E0AF
:1035FC0010E020E030E000935A0210935B0220931D
:10360C005C0230935D02E5EFF3E0EF93FF933196AC
:10361C00FA93EA931FE11A9317EF41221FEB412211
:10362C00E1ECFAEA0E9413501FE11F9318810F91ED
:10363C00011B102FFF91EF91108323960E945E06C1
:10364C00089524970091520210915302D8012AE058
:10365C0030E0689445F80E9479538F01507821F03E
:10366C00019509F41A951095102F1A8300915202A6
:10367C0010915302689442F8A0E0B0E05FEF0E9412
:10368C00225455233AF4A9EFB0E055270E94225456
:10369C0055230AF418C0CF93DF9300915202109176
:1036AC005302102F1A930E94E903DF91CF910093DC
:1036BC005A0210935B0220935C0230935D020E94CD
:1036CC00CF050C94C91F103011F00C947D1B0B3FCF
:1036DC0011F00C947D1B0091220410912304009393
:1036EC005702109358020E94AE050C94C91F10305B
:1036FC0011F00C94891B0C3F11F00C94891B0E9447
:10370C00D0190C94C91F103011F00C94A51B0D3F4F
:10371C0011F00C94A51BCF93DF9318E0412A02E122
:10372C001EE41A930A93E5EDF3E00E941C50DF911E
:10373C00CF910E94A4040C94C91F0C94C91F103083
:10374C0011F00C94DC1B0E3F11F00C94DC1B0E944E
:10375C00AB04CF93DF9318E0412A02E11EE41A93E5
:10376C000A93E2E6F8EA0E941350DF91CF91CF93CF
:10377C00DF9318E0412A02E11EE41A930A93E6E96A
:10378C00F8EA0E941350DF91CF91CF93DF9318E0AA
:10379C00412A02E11EE41A930A931DE50E94E952A4
:1037AC00DF91CF910E94A4040C94C91F103011F02A
:1037BC000C94EE1B0F3F11F00C94EE1BCF93DF9388
:1037CC0010E01A930E94EE04DF91CF910C94C91F64
:1037DC00689442F8ACE2B1E05FEF0E9422545523AA
:1037EC003AF4A3E4B1E055270E94225455230AF47D
:1037FC0016C000915202109153020C521140102F1E
:10380C001B831B81E8E3F4E01F710027E10FF01F1D
:10381C001081109360020E94C4050C94C91F1130D2
:10382C0011F00C94251C043411F00C94251C1091EF
:10383C008203109360020E94C4050C94C91F1130BE
:10384C0011F00C94351C053411F00C94351C1091AE
:10385C008303109360020E94C4050C94C91F11309D
:10386C0011F00C94451C063411F00C94451C10916D
:10387C008603109360020E94C4050C94C91F11307A
:10388C0011F00C94551C073411F00C94551C10912C
:10389C008403109360020E94C4050C94C91F11305C
:1038AC0011F00C94651C083411F00C94651C1091EB
:1038BC008503109360020E94C4050C94C91F11303B
:1038CC0011F00C94751C0E3511F00C94751C1091A4
:1038DC008402109360020E94C4050C94C91F11301D
:1038EC0011F00C94851C0F3511F00C94851C109163
:1038FC008502109360020E94C4050C94C91F1130FC
:10390C0011F00C94951C003611F00C94951C109130
:10391C00A202109360020E94C4050C94C91F689403
:10392C0042F8A0E9B1E05FEF0E94225455233AF42B
:10393C00AFEAB1E055270E94225455230AF416C071
:10394C00009152021091530200591140102F1A830A
:10395C001A81E4E6F2E01F730027E10FF01F1081DB
:10396C00109360020E94C4050C94C91F689442F81D
:10397C00A4EFB1E05FEF0E94225455233AF4A3E187
:10398C00B2E055270E94225455230AF417C0009127
:10399C00520210915302045F1140102F105E1A83D3
:1039AC001A81E4E6F2E01F730027E10FF01F10818B
:1039BC00109360020E94C4050C94C91F689442F8CD
:1039CC00A8E5B2E05FEF0E94225455233AF4A7E732
:1039DC00B2E055270E94225455230AF416C00091D8
:1039EC0052021091530208551240102F1A831A815B
:1039FC00E4EAF2E01F710027E10FF01F1081109331
:103A0C0060020E94C4050C94C91F689442F8A0E897
:103A1C00B2E05FEF0E94225455233AF4AFE8B2E0D3
:103A2C0055270E94225455230AF416C000915202C5
:103A3C001091530200581240102F1A831A81E4EC93
:103A4C00F2E01F700027E10FF01F1081109360024D
:103A5C000E94C4050C94C91F689442F8A4E9B2E012
:103A6C005FEF0E94225455233AF4A3EBB2E05527A2
:103A7C000E94225455230AF41BC00091520210914B
:103A8C00530204591240102F1A831A81E5EFF2E009
:103A9C001F710027110F001FE10FF01F0081118112
:103AAC0000935702109358020E94AE050C94C91F44
:103ABC00689442F8ACEBB2E05FEF0E9422545523BD
:103ACC003AF4ACECB2E055270E94225455230AF488
:103ADC0016C000915202109153020C5B1240102F31
:103AEC001A831A81E5E3F3E01F700027E10FF01F42
:103AFC001081109360020E94C4050C94C91F1330EE
:103B0C0011F00C94981D063E11F00C94981D009128
:103B1C009902112701FD1FEF109360020E94C4054A
:103B2C000C94C91F133011F00C94A81D073E11F012
:103B3C000C94A81D1091EF02109360020E94C40512
:103B4C000C94C91F689442F8A8EEB3E05FEF0E9492
:103B5C00225455233AF4A7EEB4E055270E94225480
:103B6C0055230AF41CC00091520210915302085EB6
:103B7C001340102F1A83E2E3F0E0EF93FF931A81C6
:103B8C00012F1127FF91EF91E00FF11F0E948B4E37
:103B9C003196109360020E94C4050C94C91F68945E
:103BAC0042F8A8EEB4E05FEF0E94225455233AF499
:103BBC00A7EEB5E055270E94225455230AF41CC0E9
:103BCC000091520210915302085E1440102F1A8378
:103BDC00E2E3F1E0EF93FF931A81012F1127FF919C
:103BEC00EF91E00FF11F0E948B4E31961093600203
:103BFC000E94C4050C94C91F689442F8A0EDB7E06C
:103C0C005FEF0E94225455233AF4AFECB9E05527EC
:103C1C000E94225455230AF41EC0009152021091A6
:103C2C005302005D174019830883EBEDF2E0EF932C
:103C3C00FF9308811981000F111FFF91EF91E00F85
:103C4C00F11F0E94944E00935702109358020E9449
:103C5C00AE050C94C91F163211F00C94471E0C3A89
:103C6C0011F00C94471ECF93DF93109197021C5ABE
:103C7C001A9310E01A930E94CA0CDF91CF910C9406
:103C8C00C91F163211F00C94731E063B11F00C94E4
:103C9C00731ECF93DF930E943A08DF91CF9110915E
:103CAC002104103010E009F01FEF112311F40C94D3
:103CBC00691ECF93DF9318E01A930E94EE04DF91F4
:103CCC00CF910C94711ECF93DF9310E01A930E9446
:103CDC00EE04DF91CF910C94C91F163211F00C94A5
:103CEC00831E003C11F00C94831E0E94540210930E
:103CFC0060020E94C4050C94C91F163211F00C947A
:103D0C00B61E0E3D11F00C94B61EEAE0F0E00E94D7
:103D1C00994E00935A0210935B0220935C023093ED
:103D2C005D02E5EFF3E0EF93FF933196FA93EA939C
:103D3C001FE11A9317EF41221FEB4122EDECFAEA37
:103D4C000E9413501FE11F9318810F91011B102F1C
:103D5C00FF91EF91108323960E945E060C94C91F6D
:103D6C00163211F00C94E91E0F3D11F00C94E91E63
:103D7C00EEE0F0E00E94994E00935A0210935B0221
:103D8C0020935C0230935D02E5EFF3E0EF93FF9339
:103D9C003196FA93EA931FE11A9317EF41221FEB26
:103DAC004122EBEDFAEA0E9413501FE11F93188198
:103DBC000F91011B102FFF91EF91108323960E94FE
:103DCC005E060C94C91F163211F00C94201F003E95
:103DDC0011F00C94201FCF93DF9312EF1A930E94D3
:103DEC00E903DF91CF9100935A0210935B02209369
:103DFC005C0230935D02E5EFF3E0EF93FF933196B5
:103E0C00FA93EA931FE11A9317EF41221FEB412219
:103E1C00EAEEFAEA0E9413501FE11F9318810F91EA
:103E2C00011B102FFF91EF91108323960E945E06C9
:103E3C000C94C91F173211F00C94571F063011F057
:103E4C000C94571F00E010E020E030E000935A0281
:103E5C0010935B0220935C0230935D02E5EFF3E07C
:103E6C00EF93FF933196FA93EA931FE11A9317EFAE
:103E7C0041221FEB4122E8EFFAEA0E941350E2EBD9
:103E8C00F2E00E9426501FE11F9318810F91011B35
:103E9C00102FFF91EF91108323960E945E060C94D5
:103EAC00C91F173211F00C94AF1F0E3011F00C9487
:103EBC00AF1FE5E2F0E00E948B4E1C5A812ECF938F
:103ECC00DF93182D1A9310E01A930E94CA0CDF91FD
:103EDC00CF91CF93DF930E942912DF91CF91CF9393
:103EEC00DF930E946013DF91CF911FEF1093950326
:103EFC001FEF109393031FEF1093940300E010E057
:103F0C0020E030E000935A0210935B0220935C0295
:103F1C0030935D02E5EFF3E0EF93FF933196FA9364
:103F2C00EA931FE11A9317EF41221FEB4122E0E0C5
:103F3C00FBEA0E9413501FE11F9318810F91011B84
:103F4C00102FFF91EF91108323960E945E060C9424
:103F5C00C91F173211F00C94C11F0F3011F00C94C3
:103F6C00C11FF8941FE7412204B7037F04BF0C94D0
:103F7C005A4A0C94C91FCF93DF9315E01A930E94F1
:103F8C00EE04DF91CF910895259700915202109184
:103F9C005302D8012AE030E0689445F80E94795326
:103FAC008F01507821F0019509F41A951095102F76
:103FBC001B8310916002103010E009F01FEF188382
:103FCC000091520210915302689442F8A0E0B0E0C4
:103FDC005FEF0E94225455233AF4AFEEB0E0552720
:103FEC000E94225455230AF414C0CF93DF930091FE
:103FFC005702109158021A930A9300915202109191
:10400C005302102F1A930E941F04DF91CF910C942E
:10401C004526689442F8A0EFB0E05FEF0E9422546E
:10402C0055233AF4A9EFB0E055270E9422545523AA
:10403C000AF41AC0CF93DF9300915A0210915B02DD
:10404C0020915C0230915D023A932A931A930A9361
:10405C000091520210915302102F1A930E943604B1
:10406C00DF91CF910C944526103011F00C94532015
:10407C000A3F11F00C94532010916002103010E0A4
:10408C0009F01FEFE894112309F0689410912004B3
:10409C0014F9109320040C944526113011F00C9453
:1040AC006D200E3511F00C946D2010916002109360
:1040BC0084021FEF10939303CF93DF931091600250
:1040CC001A930E944A10DF91CF910C94452611301F
:1040DC0011F00C9487200F3511F00C94872010915F
:1040EC006002109385021FEF10939403CF93DF931C
:1040FC00109160021A930E94A410DF91CF910C943E
:10410C004526113011F00C949820003611F00C94C7
:10411C009820109160021093A2021FEF1093960347
:10412C000C944526113011F00C94A6200C3711F08C
:10413C000C94A6201091600210939B020C944526BF
:10414C00113011F00C94B4200D3711F00C94B420F4
:10415C00109160021093AF020C944526113011F0AF
:10416C000C94DC20063811F00C94DC200091200417
:10417C00112704FD1FEF112311F40C94D020CF93C1
:10418C00DF93109160021A930E943E11DF91CF9140
:10419C000C94DA20CF93DF9316E01A930E94EE046E
:1041AC00DF91CF910C9453260C944526113011F0CD
:1041BC000C940421073811F00C9404210091200474
:1041CC00112704FD1FEF112311F40C94F820CF9349
:1041DC00DF93109160021A930E949611DF91CF9198
:1041EC000C940221CF93DF9316E01A930E94EE04F5
:1041FC00DF91CF910C9453260C944526689442F889
:10420C00A0E9B1E05FEF0E94225455233AF4AFEAE3
:10421C00B1E055270E94225455230AF416C0009190
:10422C0052021091530200591140102F1B831B8115
:10423C001F9310916002E4E6F2E0AF91AF73BB27DD
:10424C00EA0FFB1F10830C944526689442F8A4EFE8
:10425C00B1E05FEF0E94225455233AF4A3E1B2E09F
:10426C0055270E94225455230AF431C00091520262
:10427C0010915302045F1140102F1B831B811F935D
:10428C0010916002E4E8F2E0AF91AF71BB27EA0F46
:10429C00FB1F108300912004112704FD1FEF112335
:1042AC0011F40C946821E2E1F0E0EF93FF931B8191
:1042BC00012F1127FF91EF91E00FF11F1091600278
:1042CC000E94694E1FEF109395030C944526689439
:1042DC0042F8A8E5B2E05FEF0E94225455233AF46D
:1042EC00A7E7B2E055270E94225455230AF431C0A7
:1042FC00009152021091530208551240102F1B834B
:10430C001B811F9310916002E4EAF2E0AF91AF7150
:10431C00BB27EA0FFB1F108300912004112704FD1B
:10432C001FEF112311F40C94AA21E2E3F2E0EF93B6
:10433C00FF931B81012F1127FF91EF91E00FF11FCC
:10434C00109160020E94694E1FEF109345030C946C
:10435C004526689442F8A0E8B2E05FEF0E94225430
:10436C0055233AF4AFE8B2E055270E942254552366
:10437C000AF42EC0009152021091530200581240C0
:10438C00102F1B831B811F9310916002E4ECF2E051
:10439C00AF91AF70BB27EA0FFB1F10830091200475
:1043AC00112704FD1FEF112311F40C94EC21E2E50D
:1043BC00F2E0EF93FF931B81012F1127FF91EF91F7
:1043CC00E00FF11F109160020E94694E0C9445267B
:1043DC00689442F8A4E9B2E05FEF0E94225455239E
:1043EC003AF4A3EBB2E055270E94225455230AF469
:1043FC0047C0009152021091530204591240102FE1
:10440C001B831B811F9300915A0210915B02209118
:10441C005C0230915D02E5EFF2E0AF91AF71BB272A
:10442C00AA0FBB1FEA0FFB1F11830083009120040E
:10443C00112704FD1FEF112311F40C944122E2E625
:10444C00F2E0EF93FF931B81012F1127000F111F37
:10445C00FF91EF91E00FF11FEF93FF9300915A0240
:10446C0010915B0220915C0230915D02FF91EF9103
:10447C0098010E94794E1FEF109345030C9445262A
:10448C00689442F8ACEBB2E05FEF0E9422545523E3
:10449C003AF4ABECB2E055270E94225455230AF4AF
:1044AC002EC000915202109153020C5B1240102F3F
:1044BC001B831B811F9310916002E5E3F3E0AF9126
:1044CC00AF70BB27EA0FFB1F10830091200411274C
:1044DC0004FD1FEF112311F40C948322E2EAF2E0A5
:1044EC00EF93FF931B81012F1127FF91EF91E00FA9
:1044FC00F11F109160020E94694E0C9445261330F6
:10450C0011F00C949722073E11F00C949722109105
:10451C006002103010E009F01FEF1093EF020C94C2
:10452C004526689442F8A8EEB3E05FEF0E9422544F
:10453C0055233AF4A7EEB4E055270E942254552394
:10454C000AF422C000912004112704FD1FEF11234F
:10455C0011F40C94C8220091520210915302085E7F
:10456C001340102F1B83E2E3F0E0EF93FF931B81CA
:10457C00012F1127FF91EF91E00FF11F10916002B5
:10458C000E94694E0C944526689442F8A8EEB4E05B
:10459C005FEF0E94225455233AF4A7EEB5E055275D
:1045AC000E94225455230AF422C0009120041127A2
:1045BC0004FD1FEF112311F40C94FB220091520205
:1045CC0010915302085E1440102F1B83E2E3F1E0BC
:1045DC00EF93FF931B81012F1127FF91EF91E00FB8
:1045EC00F11F109160020E94694E0C94452668944C
:1045FC0042F8A0EDB7E05FEF0E94225455233AF445
:10460C00AFECB9E055270E94225455230AF425C07B
:10461C000091520210915302005D17401A830983D6
:10462C00EBEDF2E0EF93FF9309811A81000F111F5C
:10463C00FF91EF91E00FF11FEF93FF9300915A025E
:10464C0010915B0220915C0230915D02FF91EF9121
:10465C0098010E94794E0C944526163211F00C9458
:10466C006F230C3A11F00C946F231091600210938D
:10467C00970200912004112704FD1FEF112311F460
:10468C000C944F2310916002E5E2F0E00E94694E19
:10469C00319610913802112311F40C94652310916A
:1046AC0060021C5A812ECF93DF93182D1A9310E0C1
:1046BC001A930E94CA0CDF91CF910C946D23CF9367
:1046CC00DF9318E01A930E94EE04DF91CF910C94C3
:1046DC004526163211F00C948923003C11F00C94F1
:1046EC00892310916002103010E009F41FEF1123A0
:1046FC0011F40C9485230E947D020C9487230E9454
:10470C008E020C944526163211F00C94EA230A3CC6
:10471C0011F00C94EA230E94C5061095112311F494
:10472C000C94E82300915A0210915B0220915C02D8
:10473C0030915D02ECE00E94FF5300935A021093FB
:10474C005B0220935C0230935D02CF93DF93009168
:10475C005A0210915B0220915C0230915D023A93F7
:10476C002A931A930A930E94CA08DF91CF91009161
:10477C005A0210915B0220915C0230915D0240E87C
:10478C003427303829F4203019F4103009F4003073
:10479C001FEF08F01127112311F40C94DC23109156
:1047AC0021041460109321040C94E82311E004EF0D
:1047BC000E94424E0E94CF05CF93DF930E943A088D
:1047CC00DF91CF910C944526163211F00C94612494
:1047DC000B3C11F00C9461240E94C506109511231A
:1047EC0011F40C945F2400915A0210915B022091F9
:1047FC005C0230915D020C5A1F4F2F4F3F4F0093BC
:10480C005A0210935B0220935C0230935D0200917C
:10481C005A0210915B0220915C0230915D02ECE037
:10482C000E94FF5300935A0210935B0220935C0288
:10483C0030935D02CF93DF9300915A0210915B028B
:10484C0020915C0230915D023A932A931A930A9359
:10485C000E94CA08DF91CF9100915A0210915B021D
:10486C0020915C0230915D0240E83427303829F405
:10487C00203019F4103009F400301FEF08F0112724
:10488C00112311F40C945924CF93DF9318E01A934D
:10489C000E94EE04DF91CF911091210414601093CB
:1048AC0021040C945F2411E004EF0E94424E0E94FC
:1048BC00CF050C944526163211F00C94B824043D07
:1048CC0011F00C94B8240E94C5061095112311F414
:1048DC000C94B62400915A0210915B0220915C0258
:1048EC0030915D02ECE00E94FF5300935A0210934A
:1048FC005B0220935C0230935D02CF93DF930091B7
:10490C005A0210915B0220915C0230915D023A9345
:10491C002A931A930A930E949F02DF91CF911095CC
:10492C00112311F40C94B4240E94AB04CF93DF93A5
:10493C0018E0412A02E11EE41A930A93ECE0FBEA28
:10494C000E9413501DE00E94E9521AE00E94E952A5
:10495C00DF91CF910C9453260C94B6240E94CF0572
:10496C000C944526163211F00C942325053D11F0BC
:10497C000C9423250E94C5061095112311F40C9458
:10498C00212500915A0210915B0220915C0230911A
:10499C005D020C5A1F4F2F4F3F4F00935A0210933A
:1049AC005B0220935C0230935D0200915A021091DD
:1049BC005B0220915C0230915D02ECE00E94FF539F
:1049CC0000935A0210935B0220935C0230935D02B9
:1049DC00CF93DF9300915A0210915B0220915C02FD
:1049EC0030915D023A932A931A930A930E949F0284
:1049FC00DF91CF911095112311F40C941F250E9477
:104A0C00AB04CF93DF9318E0412A02E11EE41A9322
:104A1C000A93ECE0FBEA0E9413501DE00E94E9525D
:104A2C001AE00E94E952DF91CF910C9453260C941A
:104A3C0021250E94CF050C944526163211F00C94BA
:104A4C006325063D11F00C9463250E94C506109554
:104A5C00112311F40C9461250E94DF02109511238F
:104A6C0011F40C9453250E94AB04CF93DF9318E000
:104A7C00412A02E11EE41A930A93E5E2FBEA0E9442
:104A8C0013501DE00E94E9521AE00E94E952DF9196
:104A9C00CF910C9453260C94612500E010E020E09B
:104AAC0030E000935A0210935B0220935C02309327
:104ABC005D020E94CF050C944526163211F00C9421
:104ACC006D250E3D11F00C946D250C947525163248
:104ADC0011F00C94BB250F3D11F00C94BB250091EB
:104AEC002004112704FD1FEF112311F40C94AF25A2
:104AFC001B81103010E009F41FEF112311F40C94FA
:104B0C00992500915A0210915B0220915C02309120
:104B1C005D02EAE0F0E0D8010E947F4E31960E94DF
:104B2C0053040C94A92500915A0210915B02209118
:104B3C005C0230915D02EEE0F0E0D8010E947F4E05
:104B4C0031960E94530413E008EE0E94424E0C94DE
:104B5C00B925CF93DF9316E01A930E94EE04DF91F0
:104B6C00CF910C9453260C944526163211F00C94CC
:104B7C00D425083E11F00C94D425CF93DF931091DB
:104B8C0060021A930E941E0EDF91CF91CF93DF9398
:104B9C000E940313DF91CF910C944526163211F02D
:104BAC000C94EE25023F11F00C94EE25CF93DF937D
:104BBC0000915702109158021A930A930E94C10057
:104BCC00DF91CF91109360020E94C4050C9445268E
:104BDC00173211F00C943B26063011F00C943B2646
:104BEC0000912004112704FD1FEF112311F40C94E4
:104BFC002F2610915902112311F40C942326E2EB69
:104C0C00F2E0EF93FF933196FA93EA9318E21A933A
:104C1C0017EF412210E4412AECEAF3E00E941C5009
:104C2C0018E21F9318810F91011B102FFF91EF9128
:104C3C000E94694E23960C942D26CF93DF9315E09A
:104C4C001A930E94EE04DF91CF910C9453260C948E
:104C5C003926CF93DF9316E01A930E94EE04DF916E
:104C6C00CF910C9453260C944526CF93DF9315E0EB
:104C7C001A930E94EE04DF91CF910C94532610915D
:104C8C005602112311F40C945326CF93DF9310E0AA
:104C9C001A930E94EE04DF91CF9108952197ECEACC
:104CAC00F3E0EF93FF933196FA93EA9318E21A9399
:104CBC0017EF41221FEB4122ECEAF3E00E94F04F88
:104CCC0018E21F9318810F91011B102FFF91EF9188
:104CDC0010832396FE01FA93EA9310E010831EE0F2
:104CEC001A931081088101171FEF08F01127112367
:104CFC0011F00C94B026ECEAF3E0EF93FF93EDE99E
:104D0C00FCEAEF93FF931B81012F1127A4E0B0E085
:104D1C00E89445F80E945753FF91EF91E00FF11F73
:104D2C00BF91AF91689444F80E94C35210E009F40B
:104D3C001FEF112311F40C94A7261B8123960C94BE
:104D4C00B226E981FA81108113951083112311F099
:104D5C000C94782623961FE008952297ECEAF3E052
:104D6C00EF93FF933196FA93EA9318E21A9317EFA5
:104D7C0041221FEB412218E21F9318810F91011B56
:104D8C00102FFF91EF911083239610E0109359028E
:104D9C0010E01883E5EDF3E010911604012F1127B4
:104DAC00E00FF11F1191103210E009F41FEF1123E5
:104DBC0011F40C94E8261091160413951093160414
:104DCC000C94D026E5EDF3E010911604012F112779
:104DDC00E00FF11F1191193339F028F41A3218F041
:104DEC0040E0189401C041E010E009F41FEF1123DA
:104DFC0011F40C945B271FEF1883E8E0F0E0FA93B2
:104E0C00EA93109116041083EF93FF93E5EDF3E012
:104E1C001081FF91EF911A931081088101171FEFF8
:104E2C0008F01127112311F00C945827E5EDF3E04D
:104E3C00182D012F1127E00FF11F11911C831C81DC
:104E4C00193339F028F41A3218F040E0189401C0E4
:104E5C0041E010E009F41FEF112311F40C944827E2
:104E6C001C81712F61E010E006E10F931F93ECEAB7
:104E7C00F3E0EF93FF9318E21F9390E00E94B04E83
:104E8C000C944F27182D109316041B8123960C9409
:104E9C00DB27E981FA81108113951083112311F01E
:104EAC000C94132723960C94DA27E8E0F0E0FA939D
:104EBC00EA93109116041083EF93FF93E5EDF3E062
:104ECC001081FF91EF911A931081088101171FEF48
:104EDC0008F01127112311F00C94D927E5EDF3E01C
:104EEC00182D012F1127E00FF11F11911C831C812C
:104EFC00123210E009F41FEF112311F40C948B27DC
:104F0C001FEF109359020C94D0271C81113410E020
:104F1C0008F01FEF1F93109159020F91102B1123C2
:104F2C0011F40C94CA271C81113221F01F3311F09B
:104F3C00143201F010E009F41FEF112311F40C945A
:104F4C00B027182D109316041B8123960C94DB2785
:104F5C000C94C0271C81712F61E010E006E10F93C7
:104F6C001F93ECEAF3E0EF93FF9318E21F9390E0AA
:104F7C000E94B04E1D81112311F40C94C8271FEF11
:104F8C00109359020C94D027182D109316041B81E2
:104F9C000C94DB27E981FA8110811395108311237E
:104FAC0011F00C946B272396188108952197ECEA45
:104FBC00F3E01FEB4122E89441F800E00E942F4FF0
:104FCC0000935A0210935B0220935C0230935D02B3
:104FDC0000915A0210915B0220915C0230915D02AB
:104FEC0000935702109358020091570210915802E7
:104FFC00102F1093600208952C97E5EDF3E0EF93DA
:10500C00FF93EDE3FBEABF91AF91689444F80E94E3
:10501C00C35210E009F41FEF112311F40C94202853
:10502C00CF93DF9310E01A930E94EE04DF91CF919F
:10503C000C94E32911E21F93E5EDF3E0EF93FF935A
:10504C0061E0FF91EF910F910E94DA4F103010E068
:10505C0011F008F01FEF109356021AE31F93E5EDC1
:10506C00F3E0EF93FF9361E0FF91EF910F910E94BA
:10507C00DA4F103010E011F008F01FEF1C831DE325
:10508C001F93E5EDF3E0EF93FF9361E0FF91EF9158
:10509C000F910E94DA4F1B871B85103010E009F42A
:1050AC001FEF1883E5EDF3E0319611911D831D81FF
:1050BC001A3210E009F41FEF19831D81133210E02E
:1050CC0009F41FEF1A8311E0109316041A811123AF
:1050DC0011F40C94742812E0109316041C81112303
:1050EC0011F40C949B28CF93DF9310E01A930E9439
:1050FC00B326DF91CF9110911604139510931604DB
:10510C001981112311F40C948F280E94DD040C9446
:10511C009B28ECEAF3E01FEB4122E89441F800E015
:10512C000E942F4F102F10935402198110951F932A
:10513C00109154021F93109133020F91011710E03C
:10514C0009F01FEF0F9110231F931C810F91102357
:10515C00112311F40C94B6280E94DD040C94E3295D
:10516C0014E21F93E5EDF3E0EF93FF9361E0FF9101
:10517C00EF910F910E94DA4F1A871A85103010E0C8
:10518C0011F008F01FEF1B831B81112311F40C94F9
:10519C004629ECEAF3E0EF93FF933196FA93EA9306
:1051AC0018E21A9317EF41221FEB4122E5EDF3E0D1
:1051BC00EF93FF931D851F5F1F9312E00F91FF91DB
:1051CC00EF910E94FF4F18E21F9318810F91011B62
:1051DC00102FFF91EF9110832396ECEAF3E01FEB75
:1051EC004122E89441F80FEF0E942F4F102F18879F
:1051FC0010E01987E8E0F0E0FA93EA9311E01083ED
:10520C00EF93FF931C851150FF91EF911A9310812E
:10521C00088101171FEF08F01127112311F00C94CE
:10522C002F29E5EDF3E0182D012F1127E00FF11FC9
:10523C00119118871C851F9318850F9110271C87B7
:10524C00E981FA81108113951083112311F00C94CC
:10525C000E29239619851F9318850F91011710E0BD
:10526C0009F01FEF112311F40C944629CF93DF930F
:10527C0017E01A930E94EE04DF91CF910C94E3296E
:10528C00CF93DF9310E01A930E94B326DF91CF9156
:10529C00112311F40C94582910E000E01F830E83A5
:1052AC000C948E29CF93DF930E945426DF91CF91DB
:1052BC0010934D0210914D021F3010E009F41FEFB6
:1052CC00112311F40C947429CF93DF9314E01A93E7
:1052DC000E94EE04DF91CF910C94E329E9EDFCEAF6
:1052EC00EF93FF9310914D02012F1127000F111F07
:1052FC00FF91EF91E00FF11F059114911F830E8325
:10530C00CF93DF9310E01A930E94B326DF91CF91D5
:10531C00ECEAF3E01FEB4122E89441F800E00E9434
:10532C002F4F0F931F930E811F813F912F91020FCF
:10533C00131F00935202109353021881112311F47E
:10534C000C94B029CF93DF930E94271BDF91CF9150
:10535C000C94E3291B851F5F10931604CF93DF93E6
:10536C001FEF1A930E94B326DF91CF91112311F4F2
:10537C000C94C829CF93DF930E94DC27DF91CF9147
:10538C000C94DD2900E010E020E030E000935A029C
:10539C0010935B0220935C0230935D0210E000E0FE
:1053AC00009357021093580210E010936002CF93B1
:1053BC00DF930E94CA1FDF91CF910895219700912E
:1053CC009902112701FD1FEF112311F40C94F02900
:1053DC000C944F2A00918903112704FD1FEF1093A1
:1053EC006E0200918903112700FD1FEF10936F02CD
:1053FC0000918903112701FD1FEF1093700200919A
:10540C008903112702FD1FEF10937102009189038C
:10541C00112703FD1FEF1093720210E01883009107
:10542C008B03112700FD1FEF112311F40C94202A7C
:10543C0011E0188300918B03112701FD1FEF11233D
:10544C0011F40C942B2A12E0188300918B03112772
:10545C0002FD1FEF112311F40C94362A13E018836C
:10546C0000918B03112703FD1FEF112311F40C94F2
:10547C00412A14E0188300918B03112704FD1FEFC0
:10548C00112311F40C944C2A15E0188318811093F5
:10549C006D020895219700919902112701FD1FEFCC
:1054AC00112311F40C945C2A0C94632A0091890347
:1054BC00112705FD1FEF10938102089500918903B8
:1054CC00112707FD1FEF1F931091D1020F91102B85
:1054DC001F93112732991FEF10950F9110271093DE
:1054EC00ED0200918903112706FD1FEF1F93109108
:1054FC00D2020F91102B1F93112733991FEF109588
:10550C000F9110271093EE021091ED021F93109142
:10551C00EE020F911023E894112309F06894109176
:10552C00EB0211F91093EB021091ED0210951F9301
:10553C001091EE020F911023E894112309F0689456
:10554C001091EB0210F91093EB021091EB021F93E8
:10555C001091A1020F9110271093EC02CF93DF93BF
:10556C0011E21A9313E01A9312E00CEE1A930A93B9
:10557C0010E001E01A930A930E949E4DDF91CF91A7
:10558C0000919902112701FD1FEF1095112311F4C1
:10559C000C94EF2A10E01093A20200918A031127B9
:1055AC0004FD1FEF112311F40C94E12A1091A202B7
:1055BC0013951093A20200918A03112705FD1FEF8A
:1055CC00112311F40C94EF2A1091A2021E5F109378
:1055DC00A2020895219700919902112701FD1FEF56
:1055EC00112311F40C94FC2A0C94442B10E000E0D1
:1055FC000093DC021093DD02E8E0F0E0FA93EA930A
:10560C0010E0108318E01A931081088101171FEF26
:10561C0008F01127112311F00C94432B182DE8E3FB
:10562C00F4E01F710027E10FF01F108116951B830A
:10563C00182D1F931B81E4E6F2E0AF91AF73BB27EB
:10564C00EA0FFB1F10830091DC021091DD020F9317
:10565C001F931B81012F11273F912F91020F131FB5
:10566C000093DC021093DD02E981FA81108113951D
:10567C001083112311F00C940B2B23960895219772
:10568C0000919902112701FD1FEF112311F40C94C5
:10569C00512B0C949B2B10E000E00093E002109334
:1056AC00E102E8E0F0E0FA93EA9310E0108318E0EE
:1056BC001A931081088101171FEF08F0112711238D
:1056CC0011F00C949A2B182D145FE8E3F4E01F7181
:1056DC000027E10FF01F108116951B83182D105F0A
:1056EC001F931B81E4E6F2E0AF91AF73BB27EA0F87
:1056FC00FB1F10830091E0021091E1020F931F93A6
:10570C001B81012F11273F912F91020F131F009323
:10571C00E0021093E102E981FA8110811395108364
:10572C00112311F00C94602B23960895219700916E
:10573C009902112701FD1FEF112311F40C94A82BD2
:10574C000C94012C15E1E8E3F4E01F710027E10F44
:10575C00F01F1081169510937D0210917D02169505
:10576C0010937E0216E1E8E3F4E01F710027E10FCD
:10577C00F01F1081169510937F0217E1E8E3F4E017
:10578C001F710027E10FF01F1081169516951883D5
:10579C001881EDE5FCEA1F730027E10FF01F14914F
:1057AC001093800210917D0210321FEF08F0112728
:1057BC001F9310917F0210321FEF08F011270F91E9
:1057CC001023112311F40C94F02B109180021A95D4
:1057DC001093800200918A03112707FD1FEF1123FC
:1057EC0011F40C94FE2B13E0109382020C94012CF8
:1057FC0010E010938202089522971127062D017054
:10580C0009F410951F931091E6020F9110231F932A
:10581C001091D50210950F911023112311F40C94B3
:10582C00432D10E002E3E8E4F2E0B1E00E940F54F3
:10583C00CF93DF9310E01A9310E01A9310E01A93B1
:10584C000E94934CDF91CF9110918402105D1983CB
:10585C0019810E946D4C10918402103010E009F4F3
:10586C001FEF1F93109184021F3010E009F41FEFFB
:10587C000F91102B112311F40C94542CCF93DF9314
:10588C0018E0412A0DE61CE41A930A93EEE3FBEAB6
:10589C000E941350DF91CF910C94622CCF93DF9325
:1058AC0018E0412A0DE61CE41A930A93E3E4FBEAA0
:1058BC000E941350DF91CF911091D402103010E060
:1058CC0009F41FEF112311F40C94712C16E00E94B3
:1058DC006D4C0C94742C10E20E946D4C10E20E94E2
:1058EC006D4CE8E0F0E0FA93EA9310E0108318E0D6
:1058FC001A931081088101171FEF08F0112711234B
:10590C0011F00C94AE2C182DE4E6F2E01F73002776
:10591C00E10FF01F10811B83CF93DF931B811A9330
:10592C0010E11A931EEF1A930E94344EDF91CF911F
:10593C001B831B81105D1C831C810E946D4CE981B3
:10594C00FA81108113951083112311F00C94802C83
:10595C002396CF93DF9310E01A9310E01A9311E083
:10596C001A930E94934CDF91CF9110918502105D98
:10597C00198319810E946D4C10918502103010E032
:10598C0009F41FEF1F93109185021F3010E009F4EA
:10599C001FEF0F91102B112311F40C94E52CCF93C6
:1059AC00DF9318E0412A0DE61CE41A930A93E8E40D
:1059BC00FBEA0E941350DF91CF910C94F32CCF9300
:1059CC00DF9318E0412A0DE61CE41A930A93EDE4E8
:1059DC00FBEA0E941350DF91CF911091D402113049
:1059EC0010E009F41FEF112311F40C94022D16E0B2
:1059FC000E946D4C0C94052D10E20E946D4C10E22F
:105A0C000E946D4CE8E0F0E0FA93EA9310E1108309
:105A1C0018E11A931081088101171FEF08F0112764
:105A2C00112311F00C943F2D182DE4E6F2E01F73B6
:105A3C000027E10FF01F10811B83CF93DF931B8195
:105A4C001A9310E11A931EEF1A930E94344EDF91B1
:105A5C00CF911B831B81105D1C831C810E946D4C9C
:105A6C00E981FA81108113951083112311F00C94A4
:105A7C00112D239610E01093E602089521971981B9
:105A8C001F70EDE4FCEA1F700027E10FF01F14916A
:105A9C00188300918903112700FD1FEF1095112326
:105AAC0011F40C945C2D1881110F18831881089532
:105ABC0022971A811F70EDE4FCEA1F700027E10F9A
:105ACC00F01F149119831981110F1883009147034A
:105ADC00112704FD1FEF112311F40C947D2D198156
:105AEC001F7C1F93188110730F91102B1983198130
:105AFC000895279710E01C8314E6198310E0109387
:105B0C0099031985103010E009F01FEF112311F4DF
:105B1C000C94942D18E11A830C94962D16E11A838B
:105B2C0010E000E01E830D831A851F931A811F93CA
:105B3C00E89440F8FE013596A2E0B0E03F914F9119
:105B4C0050E00E94B24D1A851F931985312FE894AD
