:10007C0018811F9316E11F93E89440F8E6EDF3E026
:10008C00A4E0B0E03F914F9150E00E9413570895C7
:10009C0000E010E020E030E00093D6031093D7038B
:1000AC002093D8033093D903CF93DF9318811A93FD
:1000BC000E943E00DF91CF9118811F9312E01F9395
:1000CC00E89440F8E6E1F0E03F914F91A1E0B0E018
:1000DC0060E050E00E94135718811F9313E01F93A8
:1000EC00E89440F8E6E1F0E03F914F91A1E0B0E0F8
:1000FC0068E250E00E94135718811F9314E01F937D
:10010C00E89440F8E6E1F0E03F914F91A1E0B0E0D7
:10011C0064E150E00E94135718811F9315E01F9360
:10012C00E89440F8E6E1F0E03F914F91A1E0B0E0B7
:10013C0060E850E00E94135700E010E020E030E04F
:10014C000093D6031093D7032093D8033093D9038D
:10015C00CF93DF9318811A930E943E00DF91CF91C9
:10016C00089519E1109332025A9808951AE01093E9
:10017C0032025A980895219710E51F9309811A812C
:10018C001F93E89440F809811A81102FE6E1F0E002
:10019C00612FA1E0B0E03F914F9150E00E941357C6
:1001AC0010E51F93FE01A1E0B0E04F910E94F056C4
:1001BC0018810895CF93DF9310E51A930A811B8160
:1001CC001A930A93FE0133968F011A930A9310E047
:1001DC0001E01A930A930E940957DF91CF9110E026
:1001EC0007E00E94A35708952297CF93DF9310E561
:1001FC001A930F8118851A930A93FE0135968F0175
:10020C001A930A9310E004E01A930A930E94095778
:10021C00DF91CF9110E007E00E94A35708952B9730
:10022C001BB11F701F931C85110F110F110F110F94
:10023C000F91102B1BB913E910937A0011E00E9457
:10024C00B25713EC10937A0010917A0010711030A1
:10025C0010E009F01FEF112311F40C942A0113E89C
:10026C0010937A001C85EBE1F3E01F710027E10F7E
:10027C00F01F108118831881012F11271E830D8305
:10028C000D811E81015010401C830B831C85EBEFEC
:10029C00F2E01F710027E10FF01F1081012F1127D1
:1002AC0018870F8310917900012F11270F931F933B
:1002BC000B811C81019509F41A9510953F912F9192
:1002CC00020F131F1A87098709851A85A0E81A27B8
:1002DC00103809F400301FEF08F01127112311F426
:1002EC000C947C0110E000E01A87098709851A85B7
:1002FC000F931F930F8118850F931F930D811E81F0
:10030C003F912F91020F131F98011F910F91A0E89D
:10031C001A273A27131709F4021710E011F008F006
:10032C001FEF1F9309851A850F931F930F81188553
:10033C000F931F930B811C81019509F41A9510954D
:10034C003F912F91020F131F98011F910F91A0E85D
:10035C001A273A27131709F402171FEF08F0112771
:10036C000F91102B112311F40C94E10112E319835A
:10037C001C851F931981EBE5F3E0AF91AF71BB279F
:10038C00EA0FFB1F10831C851F931B85EBE3F3E027
:10039C00AF91AF71BB27EA0FFB1F10831C851F9316
:1003AC0013E0EBE1F3E0AF91AF71BB27EA0FFB1F5A
:1003BC0010830C94EA011C85EBE5F3E01F71002718
:1003CC00E10FF01F1081198309851A850F931F9374
:1003DC000F8118853F912F91020F131F112312F4D7
:1003EC000F5F1F4F159507951A87098719811030D4
:1003FC0010E009F41FEF112311F40C941B02188167
:10040C0015301FEF08F01127112311F40C94190269
:10041C001C851F9315E0EBE1F3E0AF91AF71BB27A7
:10042C00EA0FFB1F10830C94490209851A850F9360
:10043C001F930F81188598011F910F91A0E81A271F
:10044C003A27131709F4021710E009F01FEF1123D4
:10045C0011F40C9449021C851F931B85EBE3F3E00C
:10046C00AF91AF71BB27EA0FFB1F10831C851F9345
:10047C0009851A85102FEBEFF2E0AF91AF71BB2716
:10048C00EA0FFB1F108308952397149A1598169A58
:10049C00CF93DF931BE01A931FEF1A930E94150161
:1004AC00DF91CF9110917B03139510937B031091E7
:1004BC007B03113011F00C948E021498159A169A35
:1004CC00FE013296FA93EA9310E0108317E01A9328
:1004DC001081088101171FEF08F01127112311F06B
:1004EC000C948B02CF93DF931D811A931F811A9367
:1004FC000E941501DF91CF91E981FA81108113954A
:10050C001083112311F00C946F0223960C94620348
:10051C00123011F00C94E302149A1598169AFE01FD
:10052C003296FA93EA9318E010831AE01A9310812A
:10053C00088101171FEF08F01127112311F00C94FB
:10054C00BA02CF93DF931D811A931F811A930E94D5
:10055C001501DF91CF91E981FA81108113951083F8
:10056C00112311F00C949E022396FE013296FA93FD
:10057C00EA931CE010831FE01A9310810881011785
:10058C001FEF08F01127112311F00C94E002CF9308
:10059C00DF931D811A931F811A930E941501DF911D
:1005AC00CF91E981FA81108113951083112311F0F9
:1005BC000C94C40223960C946203133011F00C9427
:1005CC001203149A159A1698FE013296FA93EA932E
:1005DC0010E1108317E11A931081088101171FEFA6
:1005EC0008F01127112311F00C940F03CF93DF9314
:1005FC001D811A931F811A930E941501DF91CF91CF
:10060C00E981FA81108113951083112311F00C9458
:10061C00F30223960C946203143011F00C945F03D4
:10062C001FEF00913502002309F01095112311F4EE
:10063C000C945D0314E110933502FE013296FA938B
:10064C00EA9310E0108317E11A93108108810117C7
:10065C001FEF08F01127112311F00C945C031D817E
:10066C00EBE5F3E01F710027E10FF01F10811C83F5
:10067C00FE0134961127008170E0701718F40A956A
:10068C0000831FEF1D811F931C81EBE5F3E0AF91FD
:10069C00AF71BB27EA0FFB1F1083E981FA81108130
:1006AC0013951083112311F00C942C0323960C94A6
:1006BC00620310E010937B03089510919F042B9814
:1006CC001EBD1DB517FFFDCF1EB51093A0042B9AB0
:1006DC00089510919C042B981EBD1DB517FFFDCFDE
:1006EC001EB510939E0410919B041EBD1DB517FFE3
:1006FC00FDCF1EB510939D042B9A0895109196046E
:10070C002B981EBD1DB517FFFDCF1EB510939A0477
:10071C00109195041EBD1DB517FFFDCF1EB510938E
:10072C009904109194041EBD1DB517FFFDCF1EB585
:10073C0010939804109193041EBD1DB517FFFDCFA7
:10074C001EB5109397042B9A089510919104299833
:10075C001EBD1DB517FFFDCF109190041EBD1DB51C
:10076C0017FFFDCF299A08951091A10408E0449831
:10077C0017FD449A459A110F45980A95C1F70895AB
:10078C00E0E0FFE01081459808B117FB04F908B9C7
:10079C00459A16FB04F908B9459A15FB04F908B9F2
:1007AC00459A14FB04F908B9459A13FB04F908B9E6
:1007BC00459A12FB04F908B9459A11FB04F908B9DA
:1007CC00459A10FB04F908B9459A4598E395D1F67A
:1007DC0008951091A2041EBD1DB517FFFDCF1EB5C7
:1007EC001093A3040895289815E01093A2040E9476
:1007FC00EF030E94EF03289A1091A3040895289800
:10080C0015E01093A2040E94EF030E94EF031091D5
:10081C00A3041170103010E009F41FEF112311F430
:10082C000C940B04289A0895289816E01093A204AF
:10083C000E94EF03289A08950E941A04289811E048
:10084C001093A2040E94EF0310E01093A2040E94E4
:10085C00EF03289A0E94050408950E941A04289810
:10086C0011E01093A2040E94EF031FE31093A20463
:10087C000E94EF03289A0E94050408950E941A040E
:10088C0028983B812A81198108810093A404109334
:10089C00A5042093A6043093A70410E21093A2049D
:1008AC000E94EF031091A6041093A2040E94EF0380
:1008BC001091A5041093A2040E94EF031091A404BC
:1008CC001093A2040E94EF03289A0E940504109131
:1008DC00A3041072103010E009F01FEFE8941123FC
:1008EC0009F068941091870412F910938704009111
:1008FC008704112702FD1FEF109508950E941A041A
:10090C00289817EC1093A2040E94EF03289A0E94D7
:10091C0005041091A3041072103010E009F01FEFC1
:10092C00E894112309F068941091870412F910933C
:10093C00870400918704112702FD1FEF109508957D
:10094C00219709811A8101501040102F18830E94A1
:10095C001A0428983E812D811C810B810093A404DC
:10096C001093A5042093A6043093A70412E01093CF
:10097C00A2040E94EF031091A6041093A2040E94FB
:10098C00EF031091A5041093A2040E94EF031091A1
:10099C00A4041093A2040E94EF03E7E0F0E0FA93A2
:1009AC00EA9310E01083EF93FF931A81FF91EF917C
:1009BC001A931081088101171FEF08F011271123DA
:1009CC0011F00C94FE04172DE0E0FFE01F7F0027D0
:1009DC00E10FF01F10811093A2040E94EF03E98134
:1009EC00FA81108113951083112311F00C94E004FB
:1009FC002396289A0E9405041091A30410721030BB
:100A0C0010E009F01FEFE894112309F0689410919D
:100A1C00870412F91093870400918704112702FDB3
:100A2C001FEF1095089521970E9405040A811B81E0
:100A3C0001501040102F18833F812E811D810C8195
:100A4C000093A4041093A5042093A6043093A70448
:100A5C0028981BE01093A2040E94EF031091A604A7
:100A6C001093A2040E94EF031091A5041093A2040A
:100A7C000E94EF031091A4041093A2040E94EF03B0
:100A8C0010E01093A2040E94EF03E7E0F0E0FA9369
:100A9C00EA9310E01083EF93FF931A81FF91EF918B
:100AAC001A931081088101171FEF08F011271123E9
:100ABC0011F00C948B050E94EF031C81112311F48F
:100ACC000C947605172D1F931091A304E0E0FEE023
:100ADC00AF91AF7FBB27EA0FFB1F10830C948205ED
:100AEC00172D1F931091A304E0E0FFE0AF91AF7FAF
:100AFC00BB27EA0FFB1F1083E981FA811081139544
:100B0C001083112311F00C9458052396289A0895FC
:100B1C00E0E9F4E0EF93FF931881FF91EF911193CB
:100B2C00E1E9F4E010E011930E94AB030E9484030E
:100B3C0000919704109198042091990430919A0493
:100B4C000895E0E9F4E0EF93FF931881FF91EF91A2
:100B5C001193E1E9F4E010E811930E94AB03EBE987
:100B6C00F4E0EF93FF931981FF91EF911193ECE96E
:100B7C00F4E010E011930E946F030895E0E9F4E0B3
:100B8C00EF93FF931881FF91EF911193E1E9F4E05A
:100B9C0010E811930E94AB0309811A8100939B0406
:100BAC0010939C040E946F030895E0E9F4E0EF9326
:100BBC00FF931881FF91EF911193E1E9F4E010E8B4
:100BCC0011930E94AB033C812B811A810981009304
:100BDC0093041093940420939504309396040E94EC
:100BEC0084030895CF93DF9310EF1A930E948E0520
:100BFC00DF91CF91009367041093680420936904EC
:100C0C0030936A04E8E0F0E00E94FA57009367041E
:100C1C00109368042093690430936A04CF93DF9394
:100C2C0000916704109168042091690430916A0462
:100C3C003A932A931A930A9310EF1A930E94DB05A6
:100C4C00DF91CF91ECE0F0E00E94FA57009367043B
:100C5C00109368042093690430936A04CF93DF9354
:100C6C0000916704109168042091690430916A0422
:100C7C003A932A931A930A9311EF1A930E94DB0565
:100C8C00DF91CF9108951DE00E9473571AE00E94E6
:100C9C007357089513E20E94735710913902105D37
:100CAC000E9473571AE30E947357CF93DF9318E097
:100CBC00412A03E717E51A930A93009160041091F7
:100CCC006104CF93DF931A930A9310E01A9310E008
:100CDC001A9310E21A93689443F8689445F8E894D0
:100CEC0054F855F80E94CE5BDF91CF91DF91CF91F4
:100CFC001DE30E9473570895CF93DF9318E0412AA8
:100D0C0003E717E51A930A93E9E1F4E00E947D5991
:100D1C00DF91CF910E9449060895229710916E049D
:100D2C00112311F40C94A80616E00E9473571A8133
:100D3C000E94735710E00E94735710E00E94735783
:100D4C000C94EC0610E00FEF009360041093610418
:100D5C000E945006CF93DF9318E0412A03E717E572
:100D6C001A930A931C81CF93DF931A9310E01A9372
:100D7C0010E01A9310E21A93689443F80E94955964
:100D8C00DF91CF91DF91CF9110E20E947357CF93F7
:100D9C00DF9318E0412A03E717E51A930A93EFE86B
:100DAC00FEEBEF93FF931C81012F1127ADE0B0E018
:100DBC00E89445F80E94AC5CFF91EF91E00FF11FB5
:100DCC000E947459DF91CF910E94490608950E94A8
:100DDC005006CF93DF9318E0412A03E717E51A93E7
:100DEC000A93E0EFF3E00E947D59DF91CF910E94CE
:100DFC004906089510916E04112311F40C941B07ED
:100E0C0016E00E94735710E00E947357009164041F
:100E1C00109165040E94735700916404109165044D
:100E2C00102F0E9473570C945207E0EFF3E0EF93EE
:100E3C00FF933196FA93EA9318E21A9317EF412233
:100E4C001FEB412200916704109168042091690402
:100E5C0030916A04CF93DF933A932A931A930A93AF
:100E6C0010E01A9310E01A9310E21A93689445F864
:100E7C00E89454F855F842F80E94D559DF91CF9177
:100E8C0018E21F9318810F91011B102FFF91EF9106
:100E9C00108323960E94ED0608950091640410912E
:100EAC00650417FF03C03FEF2FEF02C03327222743
:100EBC0000936704109368042093690430936A04C8
:100ECC000E940007089510916D04012F11270093C3
:100EDC006404109365040E94530708950E94500601
:100EEC00E0EFF3E0EF93FF933196FA93EA9318E275
:100EFC001A9317EF41221FEB4122009167041091C6
:100F0C0068042091690430916A04CF93DF933A937B
:100F1C002A931A930A9310E01A9310E01A9310E292
:100F2C001A93689445F8E89454F855F842F80E94DE
:100F3C00D559DF91CF9118E21F9318810F91011BA6
:100F4C00102FFF91EF9110832396CF93DF9318E02E
:100F5C00412A03E717E51A930A93E0EFF3E00E94A6
:100F6C007D59DF91CF9110E20E9473571BE50E94CF
:100F7C00735714E20E947357E0EFF3E0EF93FF9383
:100F8C003196FA93EA9318E21A9317EF41221FEB6A
:100F9C0041220091670410916804209169043091FA
:100FAC006A04B801C901492F0E943D5C482F0E9478
:100FBC003D5C472F0E943D5C462F0E943D5C18E231
:100FCC001F9318810F91011B102FFF91EF9110832C
:100FDC002396CF93DF9318E0412A03E717E51A9382
:100FEC000A93E0EFF3E00E947D59DF91CF911DE56C
:100FFC000E9473570E94490608950E945006E0EF24
:10100C00F3E0EF93FF933196FA93EA9318E21A9375
:10101C0017EF41221FEB41220091670410916804E5
:10102C002091690430916A04CF93DF933A932A9309
:10103C001A930A9310E01A9310E01A9310E21A9381
:10104C00689445F8E89454F855F842F80E94D5593C
:10105C00DF91CF9118E21F9318810F91011B102F74
:10106C00FF91EF9110832396CF93DF9318E0412AE1
:10107C0003E717E51A930A93E0EFF3E00E947D591A
:10108C00DF91CF91CF93DF9318E0412A03E717E567
:10109C001A930A93E7E7FBEB0E947459DF91CF9107
:1010AC00CF93DF9318E0412A03E717E51A930A93CD
:1010BC00E9E3F4E00E947D59DF91CF911DE50E9498
:1010CC0073570E94490608950E94F9031F7E103041
:1010DC0010E009F01FEF112311F40C9490080E94FA
:1010EC005006CF93DF9318E0412A03E717E51A93D4
:1010FC000A93EAE7FBEB0E9474591DE00E944A5CDC
:10110C001AE00E944A5CDF91CF911FEF0C94930878
:10111C000C94930810E00C949308089510917F049C
:10112C00112311F40C94D108CF93DF9310E01A9390
:10113C0010E01A9310E01A930E94F455DF91CF91AE
:10114C00CF93DF9318E0412A0EEC15E51A930A931E
:10115C00E2E9FBEB0E947459DF91CF91CF93DF93BF
:10116C0010E01A9310E01A9311E01A930E94F455B0
:10117C00DF91CF91CF93DF9318E0412A0EEC15E568
:10118C001A930A93EBE9FBEB0E947459DF91CF9110
:10119C0010E00E941556089510917F04112311F44C
:1011AC000C94F408CF93DF9310E01A9310E01A9389
:1011BC0011E01A930E94F455DF91CF91CF93DF93F6
:1011CC0018E0412A0EEC15E51A930A93E4EAFBEBBE
:1011DC000E947459DF91CF910C94F80810E002E052
:1011EC000E94A357089510917F04112311F40C94BD
:1011FC002F09CF93DF9310E01A9310E01A9311E0AC
:10120C001A930E94F455DF91CF91CF93DF9318E09E
:10121C00412A0EEC15E51A930A93EDEAFBEB0E94BA
:10122C007459DF91CF91CF93DF9310E01A9310E0B4
:10123C001A9310E01A930E94F455DF91CF9110E0AD
:10124C000E94155610E004E6E3E3F2E0B1E00E94E0
:10125C00745D08951127062D017009F41095112362
:10126C0011F40C948C0910E004E6E3E3F2E0B1E035
:10127C000E94745D10917F04112311F40C947F096A
:10128C00CF93DF9310E01A9310E01A9310E01A93A7
:10129C000E94F455DF91CF91CF93DF9318E0412A50
:1012AC000EEC15E51A930A9300918B0410918C04A3
:1012BC0020918D0430918E04CF93DF933A932A932F
:1012CC001A930A9318E01A9300E00A9310E21A9307
:1012DC00689443F8689445F8E89454F855F842F843
:1012EC000E94D559DF91CF91DF91CF9110E00E94F0
:1012FC001556CF93DF9318E0412A03E717E51A93AD
:10130C000A931EE20E944A5CDF91CF9108952497C4
:10131C00CF93DF9313E01A930E948E05DF91CF9148
:10132C0000919704109198042091990430919A049B
:10133C003B832A8319830883CF93DF9318E0412AD8
:10134C0003E717E51A930A93E6EBFBEB0E9474593B
:10135C00DF91CF91CF93DF9318E0412A03E717E594
:10136C001A930A933D812C811B810A81689443F85E
:10137C00B801C901492F0E943D5C482F0E943D5C79
:10138C00472F0E943D5C462F0E943D5CDF91CF9120
:10139C00CF93DF9318E0412A03E717E51A930A93DA
:1013AC00EFE6FBEB0E947459DF91CF910E94490646
:1013BC00089528971AE314B91FE915B910E717B95E
:1013CC001FEC18B9109187041B7F10938704469863
:1013DC0015E00E94B257469A15E00E94B25710E3EE
:1013EC0017B916E206EB009360041093610411E048
:1013FC0004EF0E94A3571BEB14B91FE915B90E9407
:10140C005006112737991FEF112311F40C941E0A63
:10141C00CF93DF9318E0412A03E717E51A930A9359
:10142C00E3ECFBEB0E947459DF91CF910C94310AE1
:10143C00CF93DF9318E0412A03E717E51A930A9339
:10144C00E3EDFBEB0E947459DF91CF91109187046F
:10145C001460109387040E94F805CF93DF930E94C9
:10146C008D09DF91CF910895E1E9F4E010E8119333
:10147C00E0E9F4E0EF93FF931091A8041F5FFF9154
:10148C00EF9111930E94AB031091A90410939F0448
:10149C000E946303E0E9F4E01091A80411930E9408
:1014AC00AB030895E1E9F4E010E81193E0E9F4E00E
:1014BC00EF93FF931091A8041F5FFF91EF9111938D
:1014CC000E94AB031091A90410939F040E94630324
:1014DC00089565970E945006CF93DF9318E0412A38
:1014EC0003E717E51A930A93E3EFFBEB0E94745999
:1014FC001DE00E944A5C1AE00E944A5CDF91CF9189
:10150C0010E01A8710E0188710E01C8B10E0198B84
:10151C001FEF188B00E010E020E030E000938B040C
:10152C0010938C0420938D0430938E0410E000E013
:10153C001C870B870E94940810E000E01983088335
:10154C0010E000E01B830A83388D2F891E890D89DA
:10155C003F832E831D830C831A851095112311F460
:10156C000C94210B10E000E01C870B8711275A9973
:10157C001FEF1095E894112309F068941BB112F930
:10158C001BB9CF93DF93FE017496FA93EA9314E69A
:10159C001A930E943C57DF91CF911A871A85112319
:1015AC0011F40C94F20A1C89113010E009F41FEFAD
:1015BC001F931C89143010E009F41FEF0F91102BAE
:1015CC00112311F40C94F00A10E000E01C870B8737
:1015DC000C94210B0C94FC0A15E10E947357FE012C
:1015EC003B96A081B1811196A083B1831C891130E7
:1015FC0010E009F41FEF1F931C89143010E009F45C
:10160C001FEF0F91102B1F931C89183110E009F458
:10161C001FEF0F91102B1F930B851C85103009F4B5
:10162C00043110E011F008F01FEF0F91102B112373
:10163C0011F40C94C70A18851095112311F40C940D
:10164C002B0B0E94D2081FEF18871C89113010E059
:10165C0009F41FEF112311F40C945D0CCF93DF935D
:10166C00FE017396FA93EA9314E61A930E943C5780
:10167C00DF91CF9119871985112311F40C94570C14
:10168C00CF93DF93FE017296FA93EA931AE01A93C2
:10169C000E943C57DF91CF9119871B890FEF011BDB
:1016AC00102F1F931A890F91011710E009F41FEFE7
:1016BC00112311F40C94550C10E0198BE8E0F0E0B8
:1016CC00FA93EA9310E010831FE71A9310810881B4
:1016DC0001171FEF08F01127112311F00C949D0B2B
:1016EC00CF93DF93EAE0F0E0FA93EA931AE01A93CF
:1016FC000E943C57DF91CF911C871C891F931A2D98
:10170C000F91100F1C8B182D1F931A2DE0E0FFE08A
:10171C00AF91AF7FBB27EA0FFB1F1083E981FA81E2
:10172C00108113951083112311F00C946D0B2396DB
:10173C00CF93DF93FE017096FA93EA931AE01A9313
:10174C000E943C57DF91CF911987CF93DF933F8154
:10175C002E811D810C813A932A931A930A9310E0DF
:10176C0000E81A930A930E94A604DF91CF9110957A
:10177C00112311F40C94C90BFE013296A081B18196
:10178C001196A083B183CF93DF933F812E811D816E
:10179C000C813A932A931A930A9310E000E81A9357
:1017AC000A931FEF1A930E941905DF91CF91E8E07D
:1017BC00F0E0FA93EA9310E010831FE71A9310817C
:1017CC00088101171FEF08F01127112311F00C9459
:1017DC00190C182DE0E0FEE01F7F0027E10FF01F31
:1017EC0010811F93182DE0E0FFE01F7F0027E10F11
:1017FC00F01F10810F91011710E009F01FEF11235A
:10180C0011F40C94100CFE013396A081B181119649
:10181C00A083B183E981FA81108113951083112380
:10182C0011F00C94E60B239619891F9318890F91CC
:10183C00011710E009F41FEF112311F40C944B0C59
:10184C0016E00E9473573F812E811D810C81005838
:10185C001F4F2F4F3F4F3F832E831D830C830091CF
:10186C008B0410918C0420918D0430918E040058BF
:10187C001F4F2F4F3F4F00938B0410938C042093DA
:10188C008D0430938E040C94550CFE013B96A08174
:10189C00B1811196A083B18315E10E9473570C940A
:1018AC005B0C10E00FEF1C870B8710E01C8B10E01B
:1018BC001A871C89143010E009F41FEF1F931C8940
:1018CC00183110E009F41FEF0F91102B1F930B85AB
:1018DC001C85103009F4043110E011F008F01FEFF2
:1018EC000F91102B112311F40C94B20A16E00E94E4
:1018FC00735718891F9319890F91011710E009F07C
:10190C001FEF112311F40C94AF0C0FEF1FEF2FEFFF
:10191C003FEF00936704109368042093690430939D
:10192C006A040E945006CF93DF9318E0412A03E724
:10193C0017E51A930A93E6E0FCEB0E9474591DE03C
:10194C000E944A5C1AE00E944A5CDF91CF910C9491
:10195C00BF0C00918B0410918C0420918D0430915C
:10196C008E040093670410936804209369043093E9
:10197C006A0408811981103009F4003010E009F074
:10198C001FEF112311F40C941C0D0FEF1FEF2FEF11
:10199C003FEF00936704109368042093690430931D
:1019AC006A040E945006CF93DF9318E0412A03E7A4
:1019BC0017E51A930A93E1E2FCEB0E947459DF914C
:1019CC00CF91CF93DF9318E0412A03E717E51A93E1
:1019DC000A930A811B81CF93DF931A930A9310E029
:1019EC001A9310E01A9310E21A93689443F8E8944F
:1019FC0045F8E89454F855F80E94CE5BDF91CF91EE
:101A0C00DF91CF91CF93DF9318E0412A03E717E5DD
:101A1C001A930A93E7E3FCEB0E9474591DE00E94B1
:101A2C004A5C1AE00E944A5CDF91CF910A811B81CB
:101A3C00103009F4003010E009F01FEF112311F4FD
:101A4C000C94790D0FEF1FEF2FEF3FEF009367040E
:101A5C00109368042093690430936A040E94500622
:101A6C00CF93DF9318E0412A03E717E51A930A9303
:101A7C00E8E4FCEB0E947459DF91CF91CF93DF9394
:101A8C0018E0412A03E717E51A930A930C811D818C
:101A9C00CF93DF931A930A9310E01A9310E01A93E2
:101AAC0010E21A93689443F8E89445F8E89454F8D3
:101ABC0055F80E94CE5BDF91CF91DF91CF91CF9300
:101ACC00DF9318E0412A03E717E51A930A93E7E33B
:101ADC00FCEB0E9474591DE00E944A5C1AE00E94C3
:101AEC004A5CDF91CF9108952297CF93DF9312E058
:101AFC001A930E948E05DF91CF9111271A991FEF2F
:101B0C00112311F40C947B0D109199041A3A10E0E6
:101B1C0009F41FEF112311F40C945E0E109197042D
:101B2C00103511F00C94AA0DCF93DF9318E0412AD5
:101B3C0003E717E51A930A93EDE5FCEB0E94745941
:101B4C00DF91CF910C942D0E113511F00C94BE0D2C
:101B5C00CF93DF9318E0412A03E717E51A930A9312
:101B6C00EEE6FCEB0E947459DF91CF910C942D0E94
:101B7C00123511F00C94D20DCF93DF9318E0412A5B
:101B8C0003E717E51A930A93ECE7FCEB0E947459F0
:101B9C00DF91CF910C942D0E133511F00C94E60DB2
:101BAC00CF93DF9318E0412A03E717E51A930A93C2
:101BBC00E6E8FCEB0E947459DF91CF910C942D0E4A
:101BCC00143511F00C94FA0DCF93DF9318E0412AE1
:101BDC0003E717E51A930A93E4E9FCEB0E947459A6
:101BEC00DF91CF910C942D0E1F3511F00C940E0E2D
:101BFC00CF93DF9318E0412A03E717E51A930A9372
:101C0C00E2EAFCEB0E947459DF91CF910C942D0EFB
:101C1C00CF93DF9318E0412A03E717E51A930A9351
:101C2C00EBEAFCEB0E947459DF91CF91CF93DF93D9
:101C3C0018E0412A03E717E51A930A9310919704C9
:101C4C00689443F8412F0E943D5CDF91CF91CF9374
:101C5C00DF9318E0412A03E717E51A930A93E6EBA2
:101C6C00FCEB0E947459DF91CF91CF93DF9318E076
:101C7C00412A03E717E51A930A9310919804689484
:101C8C0043F8412F0E943D5CDF91CF91CF93DF93BE
:101C9C0018E0412A03E717E51A930A93EFE6FBEBEA
:101CAC000E947459DF91CF910E9449060C946E0EDC
:101CBC00CF93DF9318E0412A03E717E51A930A93B1
:101CCC00E2ECFCEB0E947459DF91CF910E94490623
:101CDC00089525970E9450061E8114551093A9044F
:101CEC000E943A0ACF93DF9318E0412A03E717E5E5
:101CFC001A930A931091A904CF93DF931A9310E0CF
:101D0C001A9310E01A9310E21A93689443F80E9405
:101D1C009559DF91CF91DF91CF91CF93DF9318E05D
:101D2C00412A03E717E51A930A93E8EDFCEB0E94AE
:101D3C007459DF91CF911E81012F11273327222750
:101D4C0040E050E160E070E0689445F80E94085D66
:101D5C003C832B831A83098300E010E020E030E001
:101D6C0000938B0410938C0420938D0430938E0479
:101D7C00E8E0F0E0FA93EA9310E010831FE01A9386
:101D8C001081088101171FEF08F01127112311F0A2
:101D9C000C94990FCF93DF933F812E811D810C8181
:101DAC003A932A931A930A9311E000E01A930A9338
:101DBC0010E01A930E941905DF91CF911885112319
:101DCC0011F40C94200FEAE0F0E0FA93EA9310E09F
:101DDC0010831FEF1A931081088101171FEF08F071
:101DEC001127112311F00C941D0F1A2DE0E0FFE0C8
:101DFC001F7F0027E10FF01F10811E83CF93DF930D
:101E0C0018E0412A03E717E51A930A93188568949A
:101E1C0043F8412F0E943D5CDF91CF91E981FA811B
:101E2C00108113951083112311F00C94F20E23964C
:101E3C000C94370F182D1170113010E009F41FEFAE
:101E4C00112311F40C94370FCF93DF9318E0412A30
:101E5C0003E717E51A930A931EE20E944A5CDF918E
:101E6C00CF91EAE0F0E0FA93EA9310E010831FE3DD
:101E7C001A931081088101171FEF08F01127112305
:101E8C0011F00C946F0FE0E0FFE0EF93FF931A2D2D
:101E9C00012F1127000F111F000F111FFF91EF9140
:101EAC00E00FF11F01911191219131910093930455
:101EBC001093940420939504309396040E94840309
:101ECC00E981FA81108113951083112311F00C9480
:101EDC00400F23963F812E811D810C8100501F4F96
:101EEC002F4F3F4F3F832E831D830C8300918B0418
:101EFC0010918C0420918D0430918E0400501F4F52
:101F0C002F4F3F4F00938B0410938C0420938D0420
:101F1C0030938E04E981FA8110811395108311237B
:101F2C0011F00C94C70E23960E94580A0E94300997
:101F3C0011E004EFE3E3F2E0B1E00E94745D009184
:101F4C008B0410918C0420918D0430918E0400939D
:101F5C006704109368042093690430936A041FEF9C
:101F6C001093DB0310E002E30E94A357CF93DF939F
:101F7C000E947A0DDF91CF9108952D970E94500603
:101F8C00CF93DF9318E0412A03E717E51A930A93DE
:101F9C001F85CF93DF931A9310E01A9310E01A93D6
:101FAC0010E21A93689443F80E949559DF91CF91EF
:101FBC00DF91CF91CF93DF9318E0412A03E717E528
:101FCC001A930A93E8EEFCEB0E947459DF91CF91BF
:101FDC00CF93DF9310E01A9318E41A930E94A7058D
:101FEC00DF91CF9110E004E60E94A3571D851C5A87
:101FFC00012F11273327222740E050E160E070E0E9
:10200C00689445F80E94085D3C872B871A870987DE
:10201C0010E000E018870F8310E000E019830883BC
:10202C00E8E0F0E0FA93EA9310E010831FE01A93D3
:10203C001081088101171FEF08F01127112311F0EF
:10204C000C941A11CF93DF933F852E851D850C853B
:10205C003A932A931A930A9311E000E01A930A9385
:10206C0010E01A930E941905DF91CF9110E000E067
:10207C001E830D8310E000E01C830B830A851B85F7
:10208C0019870887EAE0F0E0FA93EA9310E01083EE
:10209C0017E01A931081088101171FEF08F0112720
:1020AC00112311F00C948F10CF93DF9310E51A933A
:1020BC000E851F851A930A931FE000E00F931F9360
:1020CC000B851C853F912F91020F131F1A930A93B6
:1020DC0010E000E21A930A930E940957DF91CF9106
:1020EC0010E00AE00E94A35708851985005E1F4F77
:1020FC00198708870D851E85005E1F4F1E870D876B
:10210C00E981FA81108113951083112311F00C943D
:10211C005110239610E51F93088519851F93E89499
:10212C0040F808851985102FE6E1F0E0612FA1E059
:10213C00B0E03F914F9150E00E941357CF93DF9343
:10214C0010E51A931EE000E01A930A9311E000E0E8
:10215C001A930A930E94EB56DF91CF91EAE0F0E0DC
:10216C00FA93EA9310E010831FEF1A931081088101
:10217C0001171FEF08F01127112311F00C94F01028
:10218C001A2DE0E0FFE01F7F0027E10FF01F108108
:10219C001F931A2DE0E0FEE01F7F0027E10FF01FD8
:1021AC0010810F91011710E009F01FEF112311F4AA
:1021BC000C94E710FE013696A081B1811196A08394
:1021CC00B183E981FA81108113951083112311F0E9
:1021DC000C94BD1023960B811C81103009F4003037
:1021EC0010E009F41FEF112311F40C9402111EE2FC
:1021FC000E9473570C94051113E20E9473573F858C
:10220C002E851D850C8500501F4F2F4F3F4F3F874C
:10221C002E871D870C87E981FA8110811395108315
:10222C00112311F00C941F102396CF93DF9318E019
:10223C00412A03E717E51A930A931DE50E944A5CAD
:10224C001DE00E944A5C1AE00E944A5CDF91CF912B
:10225C0011E004EFE3E3F2E0B1E00E94745D009161
:10226C008B0410918C0420918D0430918E0400937A
:10227C006704109368042093690430936A041FEF79
:10228C001093DB0308811981103009F4003010E041
:10229C0009F01FEF112311F40C9499110E945006B0
:1022AC00CF93DF9318E0412A03E717E51A930A93BB
:1022BC00E7E0FDEB0E947459DF91CF91CF93DF9350
:1022CC0018E0412A03E717E51A930A930A811B8148
:1022DC00CF93DF931A930A9310E01A9310E01A939A
:1022EC0010E21A93689443F8E89445F8E89454F88B
:1022FC0055F80E94CE5BDF91CF91DF91CF91CF93B8
:10230C00DF9318E0412A03E717E51A930A93E7E3F2
:10231C00FCEB0E9474591DE00E944A5C1AE00E947A
:10232C004A5CDF91CF910895219719811095E8941B
:10233C00112309F068941BB112F91BB9198110957E
:10234C001F9348E331E00E9461560F91002311F076
:10235C00106801C01F7748E331E00E945856089579
:10236C00E8E0F0E0FA93EA9310E01083EF93FF9328
:10237C001A81FF91EF911A931081088101171FEFB9
:10238C0008F01127112311F00C94ED11CF93DF936A
:10239C001FEF1A930E949A11DF91CF9110E006E97A
:1023AC000E94A357CF93DF9310E01A930E949A11C7
:1023BC00DF91CF9110E006E90E94A357E981FA81E1
:1023CC00108113951083112311F00C94C3112396D3
:1023DC000895239700917E03112700FD1FEF1F9393
:1023EC0000917E03112701FD1FEF10950F91102313
:1023FC001F93109176020F911023112311F40C945A
:10240C003A12E8E0F0E0FA93EA9310E0108317E058
:10241C001A931081088101171FEF08F0112711235F
:10242C0011F00C943712182DEBE3F2E01F73002718
:10243C00E10FF01F108116951B83CF93DF931B8147
:10244C001A93182D105F1A930E94A705DF91CF9154
:10245C00E981FA81108113951083112311F00C94EA
:10246C00101223960C946A12E8E0F0E0FA93EA93C7
:10247C0010E0108317E01A931081088101171FEFE9
:10248C0008F01127112311F00C946912182DEBE3AD
:10249C00F2E01F730027E10FF01F10811B83CF9315
:1024AC00DF931B811A93182D105F1A930E94A705B6
:1024BC00DF91CF91E981FA8110811395108311235B
:1024CC0011F00C944312239600917E03112700FD0A
:1024DC001FEF112311F40C94101310917602112399
:1024EC0011F40C948512CF93DF9310E01A9318E13A
:1024FC001A930E94A705DF91CF910C94AD12009115
:10250C007E03112701FD1FEF112311F40C94991276
:10251C0018E0EBE3F2E01F730027E10FF01F1081CE
:10252C0018830C94A31218E0EBE3F2E01F7300275E
:10253C00E10FF01F108116951883CF93DF9318814C
:10254C001A9318E11A930E94A705DF91CF9100917D
:10255C007E03112703FD1FEF112311F40C94C212FB
:10256C00CF93DF9311E01A931BE11A930E94A705F6
:10257C00DF91CF910C94CC12CF93DF9310E01A9390
:10258C001BE11A930E94A705DF91CF9100917E0366
:10259C00112701FD1FEF112311F40C94E212CF93BC
:1025AC00DF93109168021A931AE11A930E94A705FF
:1025BC00DF91CF910C94ED12CF93DF9310916702C2
:1025CC001A931AE11A930E94A705DF91CF910091FB
:1025DC007E03112702FD1FEF112311F40C9403133A
:1025EC00CF93DF9310916A021A9319E11A930E9408
:1025FC00A705DF91CF910C940E13CF93DF9310911D
:10260C0069021A9319E11A930E94A705DF91CF91E1
:10261C000C942D1318E0EBE3F2E01F730027E10F8D
:10262C00F01F10811883CF93DF9318811A9318E150
:10263C001A930E94A705DF91CF91CF93DF9310E0FF
:10264C001A931AE11A930E94A705DF91CF9110E01B
:10265C00188300917E03112704FD1FEF112311F441
:10266C000C943C13FE0110811395108300917E0392
:10267C00112705FD1FEF112311F40C944D13FE01CE
:10268C00108113951083FE01108113951083CF9345
:10269C00DF9318811A931DE01A930E94A705DF910E
:1026AC00CF9110914402103011F00C945F130C94E4
:1026BC006913123011F00C9465130C9469131430D7
:1026CC0011F00C947F13CF93DF9312ED1A9315E056
:1026DC001A930E94A705DF91CF91CF93DF9310E05F
:1026EC001A9316E01A930E94A705DF91CF910C94D0
:1026FC00A713113011F00C9485130C948F13133015
:10270C0011F00C948B130C948F13153011F00C9456
:10271C00A713CF93DF93109164021A9315E01A93C9
:10272C000E94A705DF91CF91CF93DF9310916302A5
:10273C001A9316E01A930E94A705DF91CF910C947F
:10274C00A71310914402103011F00C94AF130C9499
:10275C00B313113011F00C94CB13CF93DF93109172
:10276C005D021A9318E01A930E94A705DF91CF918E
:10277C00CF93DF93109160021A9314E01A930E9486
:10278C00A705DF91CF910C940F14123011F00C941B
:10279C00D1130C94D513133011F00C94ED13CF937B
:1027AC00DF9310915E021A9318E01A930E94A7050A
:1027BC00DF91CF91CF93DF93109161021A9314E0C4
:1027CC001A930E94A705DF91CF910C940F1414302B
:1027DC0011F00C94F3130C94F713153011F00C94B6
:1027EC000F14CF93DF9310915F021A9318E01A9392
:1027FC000E94A705DF91CF91CF93DF9310916202D6
:10280C001A9314E01A930E94A705DF91CF910C94B0
:10281C000F1408952197E8E0F0E0FA93EA9310E1A1
:10282C00108318E11A931081088101171FEF08F02B
:10283C001127112311F00C944014182DEBE3F2E046
:10284C001F730027E10FF01F10811B83CF93DF93C1
:10285C001B811A93182D105F1A930E94A705DF9104
:10286C00CF91E981FA81108113951083112311F016
:10287C000C941A14239610E0188300917E031127F0
:10288C0004FD1FEF112311F40C945014FE01108160
:10289C001395108300917E03112705FD1FEF112363
:1028AC0011F40C946114FE01108113951083FE0138
:1028BC00108113951083CF93DF9318811A931DE029
:1028CC001A930E94A705DF91CF9108952197CF937A
:1028DC00DF93109154021A9319E21A930E94A705E0
:1028EC00DF91CF91CF93DF93109155021A931AE297
:1028FC001A930E94A705DF91CF91CF93DF9310918C
:10290C0056021A931BE21A930E94A705DF91CF91EE
:10291C00109157021695E1E2FFEB1F730027E10FB0
:10292C00F01F149118831091540210321FEF08F00D
:10293C0011271F931091560210321FEF08F0112728
:10294C000F911023112311F40C94B014FE0110817B
:10295C001A951083CF93DF9318811A931CE21A9364
:10296C000E94A705DF91CF9110916F0217701F93F2
:10297C0010915902110F110F110F110F0F91102BF4
:10298C001883CF93DF9318811A931BE01A930E943C
:10299C00A705DF91CF91CF93DF931091A7021A93E4
:1029AC001CEC1A930E94A705DF91CF9108952297F2
:1029BC00CF93DF931FEF1A930E949A11DF91CF915F
:1029CC001091790213701983E8E0F0E0FA93EA931E
:1029DC0010E0108313E01A931081088101171FEF88
:1029EC0008F01127112311F00C942C15182D1F939E
:1029FC001C81110F110F0F91100FEBEEF2E01F70F5
:102A0C000027E10FF01F10811B83182D133010E0ED
:102A1C0009F41FEF112311F40C9418151B8108E015
:102A2C0010271B83CF93DF931B811A93182D1B5BED
:102A3C001A930E94A705DF91CF91E981FA81108149
:102A4C0013951083112311F00C94F314239610E0BA
:102A5C0002E30E94A357CF93DF9310E01A930E94D6
:102A6C009A11DF91CF9108952597CF93DF93109111
:102A7C00770211701A9317E01A930E94A705DF9141
:102A8C00CF911091650213701F9310916602110F74
:102A9C00110F110F110F0F91102B1A83CF93DF937E
:102AAC001A811A9319E01A930E94A705DF91CF910E
:102ABC0010916B021F9310916D0225E00E94895CAE
:102ACC000F91102B1F9310916C0226E00E94895CD1
:102ADC000F91102B1A83CF93DF931A811A931CE05A
:102AEC001A930E94A705DF91CF9108952797CF9352
:102AFC00DF931FEF1A930E949A11DF91CF91E8E0B8
:102B0C00F0E0FA93EA9310E010831FE11A9310811E
:102B1C00088101171FEF08F01127112311F00C94F5
:102B2C00BA15182DEBEAF2E01F710027110F001FE8
:102B3C00E10FF01F0081118118870F83CF93DF9372
:102B4C000F8118851A930A93182D10561A930E9408
:102B5C00C405DF91CF91E981FA811081139510831F
:102B6C00112311F00C948E152396E8E0F0E0FA9303
:102B7C00EA9310E010831FE11A931081088101176A
:102B8C001FEF08F01127112311F00C94EA15182DE2
:102B9C00EBE7F2E01F710027E10FF01F108119879E
:102BAC00CF93DF9319851A93182D10541A930E9402
:102BBC00A705DF91CF91E981FA81108113951083DC
:102BCC00112311F00C94C4152396CF93DF9310E0CE
:102BDC001A9317EF1A930E94A705DF91CF91FE016C
:102BEC003496FA93EA9310E000E01183008311E02D
:102BFC000FEF1A930A93A081B18128813981B31701
:102C0C0009F4A21710E011F008F01FEF112311F0D6
:102C1C000C944616EFEDF2E0EF93FF9308851985BF
:102C2C00000F111FFF91EF91E00FF11F0E94F5575C
:102C3C0017FF03C03FEF2FEF02C0332722273F833C
:102C4C002E831D830C83CF93DF933F812E811D81B7
:102C5C000C813A932A931A930A9316EF1A930E94B3
:102C6C00DB05DF91CF91EA81FB81A081B1811196C7
:102C7C00A083B183BB2311F4AA2311F00C94031687
:102C8C002496CF93DF93109184021A9319E41A932C
:102C9C000E94A705DF91CF91CF93DF9310E01A9399
:102CAC000E949A11DF91CF910895239710E0188319
:102CBC00E8E0F0E0FA93EA9310E0108318E01A933E
:102CCC001081088101171FEF08F01127112311F053
:102CDC000C94AE161E811F93182DEBE3F3E01F70BE
:102CEC000027E10FF01F10810F91102B112311F40D
:102CFC000C94A516182DEBEFF2E01F700027E10FD6
:102D0C00F01F108116951D83182D1F931D81EBE369
:102D1C00F2E0AF91AF73BB27EA0FFB1F1083182DA6
:102D2C001F9310E0EBE3F3E0AF91AF70BB27EA0F1A
:102D3C00FB1F10831FEF10938A031FEF1B83E98186
:102D4C00FA81108113951083112311F00C946716DE
:102D5C0023961B811F93109187030F91102B112326
:102D6C0011F40C94C2161FEF188310918803109362
:102D7C00440210E0109387031881112311F40C9472
:102D8C00D016CF93DF930E94EF11DF91CF911FEFFD
:102D9C0010938A030895229710E01883E8E0F0E07E
:102DAC00FA93EA9310E0108318E01A9310810881CB
:102DBC0001171FEF08F01127112311F00C942517A0
:102DCC001D811F93182DE7E4F3E01F700027E10F1E
:102DDC00F01F10810F91102B112311F40C941C1760
:102DEC00182DE7E0F3E01F700027E10FF01F1081B2
:102DFC0016951C83182D105F1F931C81EBE3F2E0DA
:102E0C00AF91AF73BB27EA0FFB1F1083182D1F93D5
:102E1C0010E0E7E4F3E0AF91AF70BB27EA0FFB1FC4
:102E2C0010831FEF10938A031FEF1B83E981FA8134
:102E3C00108113951083112311F00C94DD16239639
:102E4C001881112311F40C943417CF93DF930E9443
:102E5C001014DF91CF911FEF10938A0308952297DE
:102E6C001A811F93109150030F91102B112311F401
:102E7C000C94561710911003169510935402109140
:102E8C00540216951093550210E010935003CF93F3
:102E9C00DF930E946C14DF91CF911FEF109390037E
:102EAC001A811F93109151030F91102B112311F4C0
:102EBC000C9471171091110316951093560210E093
:102ECC0010935103CF93DF930E946C14DF91CF9139
:102EDC001FEF109390031A811F93109152030F91BF
:102EEC00102B112311F40C948C17109112031695BE
:102EFC001093570210E010935203CF93DF930E946C
:102F0C006C14DF91CF911FEF1093900308952397CA
:102F1C00109184031F93109185030F91102B103087
:102F2C0010E009F41FEF112311F40C949F170C946B
:102F3C00A11800918403112700FD1FEF112311F438
:102F4C000C94B117CF93DF930E94EF11DF91CF91C7
:102F5C001FEF10938B0300918403112701FD1FEFCA
:102F6C00112311F40C94C317CF93DF930E94EF112C
:102F7C00DF91CF911FEF10938B03009184031127E6
:102F8C0002FD1FEF112311F40C94D517CF93DF938F
:102F9C000E94EF11DF91CF911FEF10938B030091E3
:102FAC008403112703FD1FEF112311F40C94E71771
:102FBC00CF93DF930E94EF11DF91CF911FEF10930E
:102FCC008B0300918403112704FD1FEF112311F4CF
:102FDC000C94FC17CF93DF930E94EF11DF91CF91EC
:102FEC001FEF10938C031FEF109344030091840385
:102FFC00112705FD1FEF112311F40C941118CF9319
:10300C00DF930E941014DF91CF911FEF10938C036C
:10301C001FEF1093440300918503112707FD1FEF49
:10302C00112311F40C94341800918303112707FD1C
:10303C001FEF112311F40C94281813E0109359026C
:10304C000C942B1810E010935902CF93DF930E942D
:10305C006C14DF91CF911FEF10938D0300918503BA
:10306C00112706FD1FEF112311F40C944618CF9372
:10307C00DF930E946C14DF91CF911FEF10938F039D
:10308C0000918503112704FD1FEF1F930091850309
:10309C00112705FD1FEF0F91102B1F931091DC03CF
:1030AC000F91102B112311F40C94871810E010932E
:1030BC00790200918303112704FD1FEF112311F4F2
:1030CC000C946D181091790213951093790200915C
:1030DC008303112705FD1FEF112311F40C947B18AA
:1030EC00109179021E5F10937902CF93DF930E94A7
:1030FC00DD14DF91CF911FEF10938E0310E010932E
:10310C00DC0300918403112706FD1FEF1F93009130
:10311C008403112707FD1FEF0F91102B112311F4BE
:10312C000C949B181FEF10938F0310E010938403E3
:10313C0010E01093850308952197CF93DF931FEF31
:10314C001A930E949A11DF91CF91E8E0F0E0FA9384
:10315C00EA9310E0108319E01A931081088101178B
:10316C001FEF08F01127112311F00C94F918E2E36A
:10317C00F0E0EF93FF931C81012F1127A0E1B0E049
:10318C00E89445F80E94AC5C0F931F93182D012F07
:10319C0011273F912F91020F131FFF91EF91E00F19
:1031AC00F11F0E94EC571B83182D1F931B81EBE31F
:1031BC00F2E0AF91AF73BB27EA0FFB1F1083182D02
:1031CC001F9319E0EBE1F3E0AF91AF70BB27EA0F6F
:1031DC00FB1F1083E981FA81108113951083112351
:1031EC0011F00C94B418239610917E03107E1F934B
:1031FC00E2E3F0E0EF93FF931981012F1127A0E197
:10320C00B0E0E89445F80E94AC5C065F1F4FFF915C
:10321C00EF91E00FF11F0E94EC570F91102B1093C0
:10322C007E031FE11093840310E00AE00E94A35771
:10323C00CF93DF9310E01A930E949A11DF91CF91F4
:10324C001FEF10938A0308952197CF93DF931FEFFD
:10325C001A930E949A11DF91CF9119811F701983D3
:10326C00E8E0F0E0FA93EA9310E0108319E01A9387
:10327C001081088101171FEF08F01127112311F09D
:10328C000C947B19182DEBE3F2E01F730027E10F70
:10329C00F01F10811B83E2E3F0E0EF93FF931C819E
:1032AC00012F1127A0E1B0E0E89445F80E94AC5C36
:1032BC000F931F93182D012F11273F912F91020F60
:1032CC00131FFF91EF91E00FF11FEF93FF931B8101
:1032DC00FF91EF910E94CA57E981FA8110811395F1
:1032EC001083112311F00C943F192396E2E3F0E0C4
:1032FC00EF93FF931981012F1127A0E1B0E0E8941F
:10330C0045F80E94AC5C065F1F4FFF91EF91E00FF8
:10331C00F11FEF93FF9310917E031F71FF91EF91BB
:10332C000E94CA57CF93DF9310E01A930E949A1110
:10333C00DF91CF9108952197CF93DF931FEF1A93CD
:10334C000E949A11DF91CF91E8E0F0E0FA93EA93B2
:10335C0010E010831CE01A931081088101171FEFF5
:10336C0008F01127112311F00C94F919E2E3F1E0A4
:10337C00EF93FF931C81012F1127A0E1B0E0E8949B
:10338C0045F80E94AC5C0F931F93182D012F112749
:10339C003F912F91020F131FFF91EF91E00FF11F3F
:1033AC000E94EC571B83182D105F1F931B81EBE3BE
:1033BC00F2E0AF91AF73BB27EA0FFB1F1083182D00
:1033CC001F9319E0E7E2F3E0AF91AF70BB27EA0F70
:1033DC00FB1F1083E981FA8110811395108311234F
:1033EC0011F00C94B319239610917E031F7D1F933B
:1033FC00E2E3F0E0EF93FF931981012F1127A0E195
:10340C00B0E0E89445F80E94AC5C035F1F4FFF915D
:10341C00EF91E00FF11F0E94EC570F91102B1093BE
:10342C007E0310E01093840310E00AE00E94A3577F
:10343C00CF93DF9310E01A930E949A11DF91CF91F2
:10344C001FEF10938A0308952197CF93DF931FEFFB
:10345C001A930E949A11DF91CF9119811F701983D1
:10346C00E8E0F0E0FA93EA9310E010831CE01A9382
:10347C001081088101171FEF08F01127112311F09B
:10348C000C947C1A182D105FEBE3F2E01F730027ED
:10349C00E10FF01F10811B83E2E3F1E0EF93FF9348
:1034AC001C81012F1127A0E1B0E0E89445F80E949F
:1034BC00AC5C0F931F93182D012F11273F912F9167
:1034CC00020F131FFF91EF91E00FF11FEF93FF938A
:1034DC001B81FF91EF910E94CA57E981FA811081FB
:1034EC0013951083112311F00C943F1A2396E2E3E9
:1034FC00F0E0EF93FF931981012F1127A0E1B0E0C9
:10350C00E89445F80E94AC5C035F1F4FFF91EF916C
:10351C00E00FF11FEF93FF9310917E031072FF9158
:10352C00EF910E94CA57CF93DF9310E01A930E9439
:10353C009A11DF91CF910895E8E0F0E0FA93EA93C5
:10354C0010E010831FE11A931081088101171FEFFF
:10355C0008F01127112311F00C94D51A182D105EB8
:10356C001F93E2E1F0E0EF93FF93182D012F112749
:10357C00FF91EF91E00FF11F0E94EC57EBE3F2E0AB
:10358C00AF91AF73BB27EA0FFB1F1083E981FA8160
:10359C00108113951083112311F00C94AB1A239600
:1035AC0010916502133010E011F008F01FEF10932A
:1035BC00B50308952197E8E0F0E0FA93EA9310E060
:1035CC0010831FE11A931081088101171FEF08F077
:1035DC001127112311F00C94181B182D105EEBE31E
:1035EC00F2E01F730027E10FF01F10811B83E2E153
:1035FC00F0E0EF93FF93182D012F1127FF91EF911E
:10360C00E00FF11FEF93FF931B81FF91EF910E944D
:10361C00CA57E981FA81108113951083112311F097
:10362C000C94EA1A23960895E8E0F0E0FA93EA93F2
:10363C0010E010831CE01A931081088101171FEF12
:10364C0008F01127112311F00C944C1B182D1F930B
:10365C00E2E5F2E0EF93FF93182D012F1127FF9174
:10366C00EF91E00FF11F0E94EC57EBE9F2E0AF9104
:10367C00AF70BB27EA0FFB1F1083E981FA81108121
:10368C0013951083112311F00C94231B2396E8E05F
:10369C00F0E0FA93EA9310E010831FE01A93108184
:1036AC00088101171FEF08F01127112311F00C945A
:1036BC007F1B182D1F93E2EAF2E0EF93FF93182D76
:1036CC00012F1127FF91EF91E00FF11F0E94EC5792
:1036DC00EBEEF2E0AF91AF70BB27EA0FFB1F10834C
:1036EC00E981FA81108113951083112311F00C9448
:1036FC00561B2396E8E0F0E0FA93EA9310E010836F
:10370C001FE11A931081088101171FEF08F0112790
:10371C00112311F00C94CE1B182D1F93E2E6F2E04E
:10372C00EF93FF93182D012F1127000F111FFF91FD
:10373C00EF91E00FF11F0E94F557EBEAF2E0AF9129
:10374C00AF71BB27AA0FBB1FEA0FFB1F11830083AE
:10375C00182D1F93E2E3F2E0EF93FF93182D012F46
:10376C001127FF91EF91E00FF11F0E94EC57EBE74F
:10377C00F2E0AF91AF71BB27EA0FFB1F1083E98119
:10378C00FA81108113951083112311F00C94891B6D
:10379C0023961091A6021093860208952B971091F0
:1037AC00B0031F93109146030F91102B1F93109190
:1037BC0044030F91102B1095112311F40C94E81B5A
:1037CC000C94D81C10917102103010E009F41FEF0A
:1037DC00112311F40C94F81B109172021695188792
:1037EC000C94FC1B10910603169518871091B003CE
:1037FC00112311F40C94051C1091A503188710E0EB
:10380C001093440310E01093460310E01093B003A0
:10381C00188516951F831F8116951E8310917302B0
:10382C00103010E009F41FEF112311F40C94231C39
:10383C001091740218830C94271C10910403169594
:10384C0018831091750216951695185F1F93CF93D8
:10385C00DF9318851A93109175021A9318EC1A932A
:10386C000E949557DF91CF910F91100F1A831A81F7
:10387C001F9318850F91100F198318851F931A81A8
:10388C00169516950F91100F19871E811E5F1D83BB
:10389C0000917E03112704FD1FEF1F9300917E03FF
:1038AC00112705FD1FEF0F91102B112311F40C9410
:1038BC00911C109144021170113010E009F41FEFAB
:1038CC00112311F40C94811CCF93DF9318851A9358
:1038DC0019811A9310E51A930E949557DF91CF9195
:1038EC00165F1A871D811F931E8116950F91100F5D
:1038FC001D830C948F1CCF93DF9318851A93198119
:10390C001A9318E71A930E949557DF91CF911A5F7B
:10391C001A870C949F1CCF93DF931F811A931981E4
:10392C001A931CE81A930E949557DF91CF911A5F56
:10393C001A871885105F1F931F810F91100F1C831E
:10394C00CF93DF931D811A9310E41A930E94A7055D
:10395C00DF91CF91CF93DF9319811A9311E41A93CE
:10396C000E94A705DF91CF91CF93DF9319851A930E
:10397C0012E41A930E94A705DF91CF91CF93DF93A6
:10398C001A851A9313E41A930E94A705DF91CF911D
:10399C00CF93DF931C811A9314E41A930E94A7050A
:1039AC00DF91CF91089521971091A502103010E06E
:1039BC0009F01FEF112311F40C94FB1C109145031B
:1039CC00112311F40C94F91CCF93DF931091050380
:1039DC001A9310EA1A931FEF1A930E949557DF91CE
:1039EC00CF91109386020C94021D1091A602109395
:1039FC0086021FEF1093450310919503112311F4C8
:103A0C000C94121D10919F021093A3031091A0020D
:103A1C001093A4030C941A1D10919D021093A303F0
:103A2C0010919E021093A4031091960310951123EC
:103A3C0011F40C94271D10E01093A30310E01093C5
:103A4C00A4031FEF00913602002309F010951123F7
:103A5C0011F40C94621D1091A1031F931091A303F8
:103A6C000F91011710E009F01FEF112311F40C94C2
:103A7C00621D1091A3031F931091A1030F910117C5
:103A8C0010E011F008F01FEF112311F40C94591DE4
:103A9C001091A10313951093A1031091A1021093FF
:103AAC0036020C94621D1091A1031A951093A10378
:103ABC001091A302109336021FEF009137020023DE
:103ACC0009F01095112311F40C949D1D1091A20373
:103ADC001F931091A4030F91011710E009F01FEF31
:103AEC00112311F40C949D1D1091A4031F9310919C
:103AFC00A2030F91011710E011F008F01FEF112332
:103B0C0011F40C94941D1091A20313951093A2031D
:103B1C001091A202109337020C949D1D1091A203D8
:103B2C001A951093A2031091A402109337020091DE
:103B3C009F031091A0030F931F931091A103012FCA
:103B4C0011273F912F91020F131F00939F03109386
:103B5C00A0031091A10310937B021091A203109368
:103B6C008B0210919E03112311F40C94C61DCF935C
:103B7C00DF930E947C15DF91CF9110E010939E0390
:103B8C00CF93DF93109186021A931BEC1A930E9429
:103B9C00A705DF91CF91CF93DF9310917B021A93FE
:103BAC0010EC1A930E94A705DF91CF91CF93DF936E
:103BBC0010918B021A9310ED1A930E94A705DF91B6
:103BCC00CF91109195031F93109196030F91102391
:103BDC00E894112309F068941091910311F9109352
:103BEC0091031091950310951F93109196030F91CB
:103BFC001023E894112309F068941091910310F9A3
:103C0C0010939103109191031F93109178020F91CF
:103C1C00102710939203CF93DF9311E21A9313E0C2
:103C2C001A9313E002E91A930A9310E001E01A9335
:103C3C000A930E94FF56DF91CF9110E01093450339
:103C4C0008952597CF93DF930E943A15DF91CF917A
:103C5C00CF93DF930E947C15DF91CF91CF93DF93AD
:103C6C000E94EF11DF91CF91CF93DF930E9410143C
:103C7C00DF91CF91CF93DF930E946C14DF91CF91A2
:103C8C00CF93DF930E94DD14DF91CF91CF93DF931D
:103C9C000E94D41BDF91CF91CF93DF930E94D91C4C
:103CAC00DF91CF9108950E945006CF93DF9318E0D7
:103CBC00412A03E717E51A930A93E1E2FDEB0E9410
:103CCC007459DF91CF910E944906109182041123FF
:103CDC0011F40C94A21E01E010E020E030E00093FF
:103CEC006704109368042093690430936A04E9E331
:103CFC00F4E0EF93FF933196FA93EA931FE11A9352
:103D0C0017EF41221FEB4122EEE2FDEB0E947459AA
:103D1C001FE11F9318810F91011B102FFF91EF9141
:103D2C00108323960E940308CF93DF9312E61A9315
:103D3C000E944E00DF91CF9110918004112311F459
:103D4C000C94D91E02E010E020E030E000936704F0
:103D5C00109368042093690430936A04E9E3F4E057
:103D6C00EF93FF933196FA93EA931FE11A9317EFAF
:103D7C0041221FEB4122EEE3FDEB0E9474591FE13F
:103D8C001F9318810F91011B102FFF91EF9110833E
:103D9C0023960E940308CF93DF9310E61A930E9498
:103DAC004E00DF91CF9110918104112311F40C94EA
:103DBC00101F03E010E020E030E000936704109344
:103DCC0068042093690430936A04E9E3F4E0EF9308
:103DDC00FF933196FA93EA931FE11A9317EF41225E
:103DEC001FEB4122E2E5FDEB0E9474591FE11F938A
:103DFC0018810F91011B102FFF91EF9110832396C7
:103E0C000E940308CF93DF9311E61A930E944E0091
:103E1C00DF91CF9100E010E020E030E00093D6037A
:103E2C001093D7032093D8033093D90310918504B2
:103E3C00112311F40C944B1F04E010E020E030E04F
:103E4C0000936704109368042093690430936A0408
:103E5C00E9E3F4E0EF93FF933196FA93EA931FE1D1
:103E6C001A9317EF41221FEB4122E6E6FDEB0E946D
:103E7C0074591FE11F9318810F91011B102FFF9193
:103E8C00EF91108323960E94030810918404112350
:103E9C0011F40C94801F10E8109548E333E00E9455
:103EAC00585605E010E020E030E0009367041093D2
:103EBC0068042093690430936A04E9E3F4E0EF9317
:103ECC00FF933196FA93EA931FE11A9317EF41226D
:103EDC001FEB4122E7E7FDEB0E9474591FE11F9392
:103EEC0018810F91011B102FFF91EF9110832396D6
:103EFC000E94030810917F04112311F40C94AF1F3E
:103F0C0006E010E020E030E00093670410936804B2
:103F1C002093690430936A04E9E3F4E0EF93FF9390
:103F2C003196FA93EA931FE11A9317EF41221FEB94
:103F3C004122EAE8FDEB0E9474591FE11F9318819E
:103F4C000F91011B102FFF91EF91108323960E946C
:103F5C00030810917E04112311F40C94DE1F07E06A
:103F6C0010E020E030E00093670410936804209385
:103F7C00690430936A04E9E3F4E0EF93FF9331961C
:103F8C00FA93EA931FE11A9317EF41221FEB412298
:103F9C00E6E9FDEB0E9474591FE11F9318810F9104
:103FAC00011B102FFF91EF91108323960E940308A1
:103FBC000895229710917F041095112311F40C94FD
:103FCC00E91F0C942D211127062D017009F4109571
:103FDC001F9310918A030F911023112311F40C9449
:103FEC002D2110E002E3E3E3F2E0B1E00E94745D06
:103FFC00CF93DF9310E01A9310E01A9310E01A930A
:10400C000E94F455DF91CF9110919803193010E074
:10401C0011F008F01FEF112311F40C94212011E37F
:10402C000E94CE55109198031A5D198319810E9434
:10403C00CE550C942B2010919803105D1983198187
:10404C000E94CE5510E20E94CE551091980310306C
:10405C0010E009F41FEF1F93109198031F3010E02C
:10406C0009F41FEF0F91102B112311F40C944E2017
:10407C00CF93DF9318E0412A0EEC15E51A930A93BF
:10408C00E3EAFDEB0E947459DF91CF910C945C2014
:10409C00CF93DF9318E0412A0EEC15E51A930A939F
:1040AC00E7EAFDEB0E947459DF91CF91E8E0F0E074
:1040BC00FA93EA9310E0108318E01A9310810881A8
:1040CC0001171FEF08F01127112311F00C94932006
:1040DC00182DEBE3F2E01F730027E10FF01F1081A6
:1040EC001B83CF93DF931B811A9310E11A9310EF6C
:1040FC001A930E949557DF91CF911B831B81105D02
:10410C001C831C810E94CE55E981FA811081139584
:10411C001083112311F00C9465202396CF93DF9319
:10412C0010E01A9310E01A9311E01A930E94F455C0
:10413C00DF91CF9110919903193010E011F008F034
:10414C001FEF112311F40C94B72011E30E94CE55EC
:10415C00109199031A5D198319810E94CE550C9404
:10416C00C12010919903105D198319810E94CE55BD
:10417C0010E20E94CE5510919903103010E009F412
:10418C001FEF1F93109199031F3010E009F41FEFDC
:10419C000F91102B112311F40C94E420CF93DF9387
:1041AC0018E0412A0EEC15E51A930A93EBEAFDEBA5
:1041BC000E947459DF91CF910C94F220CF93DF932E
:1041CC0018E0412A0EEC15E51A930A93EFEAFDEB81
:1041DC000E947459DF91CF91E8E0F0E0FA93EA93F2
:1041EC0010E1108318E11A931081088101171FEF59
:1041FC0008F01127112311F00C942921182DEBE351
:10420C00F2E01F730027E10FF01F10811B83CF9387
:10421C00DF931B811A9310E11A9310EF1A930E94EB
:10422C009557DF91CF911B831B81105D1C831C81E3
:10423C000E94CE55E981FA811081139510831123C8
:10424C0011F00C94FB20239610E010938A03089530
:10425C0010E004E60E94A357CF93DF9310E01A936B
:10426C0018E41A930E94A705DF91CF9110E004E6A1
:10427C000E94A357CF93DF931FEF1A930E949A11BA
:10428C00DF91CF91CF93DF930E94DD14DF91CF911B
:10429C00CF93DF9310E01A930E949A11DF91CF9184
:1042AC00089524970091600410916104D8012AE0CC
:1042BC0030E0689445F80E94CE5C8F01507821F074
:1042CC00019509F41A951095102F1A83009160042A
:1042DC0010916104689442F8A0E0B0E05FEF0E9496
:1042EC00875D55233AF4A9EFB0E055270E94875D0E
:1042FC0055230AF418C0CF93DF93009160041091FA
:10430C006104102F1A930E948E05DF91CF910093B8
:10431C006704109368042093690430936A040E9424
:10432C0074070C94ED25103011F00C94AD210B3F5B
:10433C0011F00C94AD210091880410918904009324
:10434C006404109365040E9453070C94ED251030FF
:10435C0011F00C94B9210C3F11F00C94B9210E946E
:10436C00591E0C94ED25103011F00C94D5210D3FF5
:10437C0011F00C94D521CF93DF9318E0412A03E779
:10438C0017E51A930A93E9E1F4E00E947D59DF9155
:10439C00CF910E9449060C94ED250C94ED2510301C
:1043AC0011F00C940C220E3F11F00C940C220E9474
:1043BC005006CF93DF9318E0412A03E717E51A93D1
:1043CC000A93ECE2FBEB0E947459DF91CF91CF93EF
:1043DC00DF9318E0412A03E717E51A930A93E0E606
:1043EC00FBEB0E947459DF91CF91CF93DF9318E0D0
:1043FC00412A03E717E51A930A931DE50E944A5CCC
:10440C00DF91CF910E9449060C94ED25103011F0EC
:10441C000C941E220F3F11F00C941E22CF93DF93AD
:10442C0010E01A930E949306DF91CF910C94ED2526
:10443C00689442F8ACE2B1E05FEF0E94875D5523CF
:10444C003AF4A3E4B1E055270E94875D55230AF4A2
:10445C0016C000916004109161040C521140102F91
:10446C001B831B81EBEFF2E01F710027E10FF01FA4
:10447C00108110936D040E9469070C94ED25113086
:10448C0011F00C9455220E3511F00C94552210910C
:10449C00980310936D040E9469070C94ED2511305C
:1044AC0011F00C9465220F3511F00C9465221091CB
:1044BC00990310936D040E9469070C94ED2511303B
:1044CC0011F00C947522003611F00C947522109199
:1044DC00790210936D040E9469070C94ED25689481
:1044EC0042F8A0E9B1E05FEF0E94875D55233AF4F2
:1044FC00AFECB1E055270E94875D55230AF416C036
:10450C00009160041091610400591140102F1A831E
:10451C001A81EBE3F2E01F730027E10FF01F10810B
:10452C0010936D040E9469070C94ED25689442F871
:10453C00A4EFB1E05FEF0E94875D55233AF4A3E14D
:10454C00B2E055270E94875D55230AF417C00091ED
:10455C00600410916104045F1140102F105E1A83E7
:10456C001A81EBE3F2E01F730027E10FF01F1081BB
:10457C0010936D040E9469070C94ED25689442F821
:10458C00A8E5B2E05FEF0E94875D55233AF4A7E7F8
:10459C00B2E055270E94875D55230AF416C000919E
:1045AC0060041091610408551240102F1A831A816F
:1045BC00EBE7F2E01F710027E10FF01F1081109361
:1045CC006D040E9469070C94ED25689442F8A0E8EC
:1045DC00B2E05FEF0E94875D55233AF4AFE8B2E09A
:1045EC0055270E94875D55230AF416C0009160047C
:1045FC001091610400581240102F1A831A81EBE9B4
:10460C00F2E01F700027E10FF01F108110936D0472
:10461C000E9469070C94ED25689442F8A4E9B2E075
:10462C005FEF0E94875D55233AF4A3EBB2E0552768
:10463C000E94875D55230AF41BC000916004109101
:10464C00610404591240102F1A831A81EBEAF2E02C
:10465C001F710027110F001FE10FF01F0081118146
:10466C0000936404109365040E9453070C94ED2589
:10467C00689442F8ACEBB2E05FEF0E94875D552383
:10468C003AF4ACECB2E055270E94875D55230AF44E
:10469C0016C000916004109161040C5B1240102F45
:1046AC001A831A81EBEEF2E01F700027E10FF01F66
:1046BC00108110936D040E9469070C94ED25133042
:1046CC0011F00C947523043811F00C94752310918F
:1046DC007E0310936D040E9469070C94ED25133032
:1046EC0011F00C948523053811F00C94852310914E
:1046FC00830310936D040E9469070C94ED2513300D
:10470C0011F00C949523063811F00C94952310910C
:10471C00860310936D040E9469070C94ED251330E9
:10472C0011F00C94A5230E3811F00C94A5231091C4
:10473C00840310936D040E9469070C94ED251330CB
:10474C0011F00C94B5230F3811F00C94B523109183
:10475C00850310936D040E9469070C94ED251330AA
:10476C0011F00C94C523073E11F00C94C523109145
:10477C00970310936D040E9469070C94ED256894BF
:10478C0042F8A8EEB3E05FEF0E94875D55233AF440
:10479C00A7EEB4E055270E94875D55230AF41CC090
:1047AC000091600410916104085E1340102F1A836D
:1047BC00E2E3F0E0EF93FF931A81012F1127FF91B1
:1047CC00EF91E00FF11F0E94EC57319610936D049E
:1047DC000E9469070C94ED25689442F8A8EEB4E0A9
:1047EC005FEF0E94875D55233AF4A7EEB5E055279D
:1047FC000E94875D55230AF41CC00091600410913F
:10480C006104085E1440102F1A83E2E3F1E0EF9389
:10481C00FF931A81012F1127FF91EF91E00FF11FE8
:10482C000E94EC57319610936D040E9469070C940A
:10483C00ED25689442F8A0EDB7E05FEF0E94875D2C
:10484C0055233AF4AFECB9E055270E94875D552308
:10485C000AF41EC00091600410916104005D1740C1
:10486C0019830883EFEDF2E0EF93FF930881198130
:10487C00000F111FFF91EF91E00FF11F0E94F557F0
:10488C0000936404109365040E9453070C94ED2567
:10489C00163211F00C9464240C3A11F00C9464242C
:1048AC00CF93DF9310916E021C5A1A9310E01A9357
:1048BC000E946F0EDF91CF910C94ED25163211F002
:1048CC000C949024063B11F00C949024CF93DF931E
:1048DC000E94DF09DF91CF9110918704103010E016
:1048EC0009F01FEF112311F40C948624CF93DF935E
:1048FC0018E01A930E949306DF91CF910C948E24AA
:10490C00CF93DF9310E01A930E949306DF91CF911F
:10491C000C94ED25163211F00C94A024003C11F0EF
:10492C000C94A0240E94F90310936D040E94690753
:10493C000C94ED25163211F00C94D3240E3D11F08D
:10494C000C94D324E8E0F0E00E94FA57009367043B
:10495C00109368042093690430936A04E9E3F4E04B
:10496C00EF93FF933196FA93EA931FE11A9317EFA3
:10497C0041221FEB4122E3EBFDEB0E9474591FE136
:10498C001F9318810F91011B102FFF91EF91108332
:10499C0023960E9403080C94ED25163211F00C940A
:1049AC0006250F3D11F00C940625ECE0F0E00E947A
:1049BC00FA570093670410936804209369043093AA
:1049CC006A04E9E3F4E0EF93FF933196FA93EA93E8
:1049DC001FE11A9317EF41221FEB4122E1ECFDEB93
:1049EC000E9474591FE11F9318810F91011B102F06
:1049FC00FF91EF91108323960E9403080C94ED25F0
:104A0C00163211F00C943D25003E11F00C943D250E
:104A1C00CF93DF9312EF1A930E948E05DF91CF9103
:104A2C0000936704109368042093690430936A041C
:104A3C00E9E3F4E0EF93FF933196FA93EA931FE1E5
:104A4C001A9317EF41221FEB4122E0EDFDEB0E9480
:104A5C0074591FE11F9318810F91011B102FFF91A7
:104A6C00EF91108323960E9403080C94ED251732C6
:104A7C0011F00C947425063011F00C94742500E0A0
:104A8C0010E020E030E0009367041093680420935A
:104A9C00690430936A04E9E3F4E0EF93FF933196F1
:104AAC00FA93EA931FE11A9317EF41221FEB41226D
:104ABC00EEEDFDEB0E947459E6EBF2E00E94875993
:104ACC001FE11F9318810F91011B102FFF91EF9184
:104ADC00108323960E9403080C94ED25173211F0D5
:104AEC000C94D3250E3011F00C94D325E5E2F0E0B4
:104AFC000E94EC571C5A812ECF93DF93182D1A93DA
:104B0C0010E01A930E946F0EDF91CF911FEF10935C
:104B1C009E030E941A1BCF93DF930E947C15DF919A
:104B2C00CF910E94A21A1FEF1093DB03CF93DF9358
:104B3C000E943A15DF91CF91CF93DF930E94271EED
:104B4C00DF91CF9100E010E020E030E000936704AB
:104B5C00109368042093690430936A04E9E3F4E049
:104B6C00EF93FF933196FA93EA931FE11A9317EFA1
:104B7C0041221FEB4122E6EEFDEB0E9474591FE12E
:104B8C001F9318810F91011B102FFF91EF91108330
:104B9C0023960E9403080C94ED25173211F00C9407
:104BAC00E5250F3011F00C94E525F8941FE7412210
:104BBC0004B7037F04BF0C94BB530C94ED25CF9327
:104BCC00DF9315E01A930E949306DF91CF9108951D
:104BDC0025970091600410916104D8012AE030E01F
:104BEC00689445F80E94CE5C8F01507821F00195B5
:104BFC0009F41A951095102F1B8310916D04103029
:104C0C0010E009F01FEF188300916004109161040B
:104C1C00689442F8A0E0B0E05FEF0E94875D5523F6
:104C2C003AF4AFEEB0E055270E94875D55230AF4A5
:104C3C0014C0CF93DF9300916404109165041A9310
:104C4C000A930091600410916104102F1A930E9432
:104C5C00C405DF91CF910C94512D689442F8A0EFCC
:104C6C00B0E05FEF0E94875D55233AF4A9EFB0E006
:104C7C0055270E94875D55230AF41AC0CF93DF9302
:104C8C0000916704109168042091690430916A04C2
:104C9C003A932A931A930A93009160041091610439
:104CAC00102F1A930E94DB05DF91CF910C94512D9C
:104CBC00103011F00C9468260A3F11F00C94682601
:104CCC000C94512D113011F00C9485260E3511F0E9
:104CDC000C94852610916D0410939803CF93DF9359
:104CEC0010916D041A930E94A218DF91CF91CF936B
:104CFC00DF930E94EF11DF91CF910C94512D113065
:104D0C0011F00C94A2260F3511F00C94A2261091E0
:104D1C006D0410939903CF93DF9310916D041A9344
:104D2C000E94A119DF91CF91CF93DF930E941014B1
:104D3C00DF91CF910C94512D113011F00C94B326BE
:104D4C00003611F00C94B32610916D041093790277
:104D5C001FEF1093DC030C94512D113011F00C94B7
:104D6C00C1260C3711F00C94C12610916D041093D0
:104D7C0072020C94512D113011F00C94CF260D377A
:104D8C0011F00C94CF2610916D04109386020C94A4
:104D9C00512D113011F00C94F726063811F00C94AB
:104DAC00F72600918604112704FD1FEF112311F43F
:104DBC000C94EB26CF93DF9310916D041A930E9401
:104DCC002A19DF91CF910C94F526CF93DF9316E03F
:104DDC001A930E949306DF91CF910C947E2D0C9424
:104DEC00512D113011F00C941F27073811F00C9431
:104DFC001F2700918604112704FD1FEF112311F4C6
:104E0C000C941327CF93DF9310916D041A930E9487
:104E1C002A1ADF91CF910C941D27CF93DF9316E0C4
:104E2C001A930E949306DF91CF910C947E2D0C94D3
:104E3C00512D689442F8A0E9B1E05FEF0E94875DC4
:104E4C0055233AF4A9E9B1E055270E94875D552313
:104E5C000AF41CC0009160041091610400591140C7
:104E6C00102F1B831B811F9310916D04EBE3F2E059
:104E7C00AF91AF73BB27EA0FFB1F1083CF93DF9368
:104E8C000E94EF11DF91CF910C94512D113011F044
:104E9C000C9463270A3911F00C9463271881E89459
:104EAC00112309F0689410917E0314F910937E037A
:104EBC001FEF109344030C94512D113011F00C94EE
:104ECC0077270B3911F00C9477271881E89411236C
:104EDC0009F0689410917E0310F910937E030C94E2
:104EEC00512D113011F00C948B270C3911F00C94BE
:104EFC008B271881E894112309F0689410917E0394
:104F0C0011F910937E030C94512D113011F00C9467
:104F1C009F270D3911F00C949F271881E8941123C9
:104F2C0009F0689410917E0312F910937E030C948F
:104F3C00512D113011F00C94B3270E3911F00C9443
:104F4C00B3271881E894112309F0689410917E031B
:104F5C0013F910937E030C94512D689442F8A0EA37
:104F6C00B1E05FEF0E94875D55233AF4ACEAB1E003
:104F7C0055270E94875D55230AF422C000916004D6
:104F8C001091610400591140102F1B831B811F933A
:104F9C0010916D04EBE3F2E0AF91AF73BB27EA0F16
:104FAC00FB1F1083CF93DF930E941014DF91CF91DE
:104FBC00CF93DF930E946C14DF91CF910C94512D01
:104FCC00113011F00C94FD270D3A11F00C94FD27C3
:104FDC001881E894112309F0689410917E0315F957
:104FEC0010937E031FEF109344030C94512D68947F
:104FFC0042F8A4EFB1E05FEF0E94875D55233AF4CD
:10500C00A3E1B2E055270E94875D55230AF434C012
:10501C000091600410916104045F1140102F1B83F8
:10502C001B811F9310916D04EBE5F2E0AF91AF7112
:10503C00BB27EA0FFB1F108300918604112704FD88
:10504C001FEF112311F40C943A28E2E1F0E0EF93F6
:10505C00FF931B81012F1127FF91EF91E00FF11F9F
:10506C0010916D040E94CA571FEF1093DB031FEFC2
:10507C00109344030C94512D689442F8A8E5B2E0C7
:10508C005FEF0E94875D55233AF4A7E7B2E05527FE
:10509C000E94875D55230AF431C000916004109181
:1050AC00610408551240102F1B831B811F93109114
:1050BC006D04EBE7F2E0AF91AF71BB27EA0FFB1F7A
:1050CC00108300918604112704FD1FEF112311F4A6
:1050DC000C947F28E2E3F2E0EF93FF931B81012F06
:1050EC001127FF91EF91E00FF11F10916D040E94B9
:1050FC00CA571FEF10939E030C94512D689442F8DD
:10510C00A0E8B2E05FEF0E94875D55233AF4AFE868
:10511C00B2E055270E94875D55230AF431C00091F7
:10512C0060041091610400581240102F1B831B81E6
:10513C001F9310916D04EBE9F2E0AF91AF70BB27B8
:10514C00EA0FFB1F108300918604112704FD1FEF4B
:10515C00112311F40C94C128E2E5F2E0EF93FF93D4
:10516C001B81012F1127FF91EF91E00FF11F10917F
:10517C006D040E94CA571FEF10939E030C94512D7F
:10518C00689442F8A4E9B2E05FEF0E94875D552372
:10519C003AF4A3EBB2E055270E94875D55230AF43D
:1051AC0047C0009160041091610404591240102F03
:1051BC001B831B811F93009167041091680420913D
:1051CC00690430916A04EBEAF2E0AF91AF71BB274E
:1051DC00AA0FBB1FEA0FFB1F1183008300918604EB
:1051EC00112704FD1FEF112311F40C941929E2E689
:1051FC00F2E0EF93FF931B81012F1127000F111F7A
:10520C00FF91EF91E00FF11FEF93FF930091670473
:10521C00109168042091690430916A04FF91EF9118
:10522C0098010E94DA571FEF10939E030C94512D96
:10523C00689442F8ACEBB2E05FEF0E94875D5523B7
:10524C003AF4ABECB2E055270E94875D55230AF483
:10525C002EC000916004109161040C5B1240102F61
:10526C001B831B811F9310916D04EBEEF2E0AF9149
:10527C00AF70BB27EA0FFB1F108300918604112728
:10528C0004FD1FEF112311F40C945B29E2EAF2E008
:10529C00EF93FF931B81012F1127FF91EF91E00FEB
:1052AC00F11F10916D040E94CA570C94512D1330AC
:1052BC0011F00C946B29043811F00C946B2910919B
:1052CC006D0410937E030C94512D133011F00C943B
:1052DC007929053811F00C94792910916D041093EB
:1052EC0083030C94512D133011F00C948B29073E31
:1052FC0011F00C948B2910916D04103010E009F012
:10530C001FEF109397030C94512D689442F8A8EE5C
:10531C00B3E05FEF0E94875D55233AF4A7EEB4E04B
:10532C0055270E94875D55230AF42EC000918604F0
:10533C00112704FD1FEF112311F40C94BE290091C9
:10534C00600410916104085E1340102F1B83E2E38C
:10535C00F0E0EF93FF931B81012F1127FF91EF9149
:10536C00E00FF11F10916D040E94CA570C94C829CC
:10537C00CF93DF9316E01A930E949306DF91CF919F
:10538C000C947E2D0C94512D689442F8A8EEB4E048
:10539C005FEF0E94875D55233AF4A7EEB5E05527E1
:1053AC000E94875D55230AF42EC0009186041127B4
:1053BC0004FD1FEF112311F40C94FD2900916004DE
:1053CC0010916104085E1440102F1B83E2E3F1E09E
:1053DC00EF93FF931B81012F1127FF91EF91E00FAA
:1053EC00F11F10916D040E94CA570C94072ACF9399
:1053FC00DF9316E01A930E949306DF91CF910C94E1
:10540C007E2D0C94512D689442F8A0EDB7E05FEF1F
:10541C000E94875D55233AF4AFECB9E055270E9402
:10542C00875D55230AF425C0009160041091610436
:10543C00005D17401A830983EFEDF2E0EF93FF93C1
:10544C0009811A81000F111FFF91EF91E00FF11FDD
:10545C00EF93FF9300916704109168042091690405
:10546C0030916A04FF91EF9198010E94DA570C94E5
:10547C00512D163211F00C947B2A0C3A11F00C942D
:10548C007B2A10916D0410936E02009186041127F3
:10549C0004FD1FEF112311F40C945B2A10916D0481
:1054AC00E5E2F0E00E94CA57319610919204112364
:1054BC0011F40C94712A10916D041C5A812ECF9307
:1054CC00DF93182D1A9310E01A930E946F0EDF9140
:1054DC00CF910C94792ACF93DF9318E01A930E9402
:1054EC009306DF91CF910C94512D163211F00C9440
:1054FC00952A003C11F00C94952A10916D041030F3
:10550C0010E009F41FEF112311F40C94912A0E945E
:10551C0022040C94932A0E9433040C94512D1632BD
:10552C0011F00C94F62A0A3C11F00C94F62A0E9405
:10553C006A081095112311F40C94F42A0091670455
:10554C00109168042091690430916A04ECE00E9487
:10555C00645D00936704109368042093690430938E
:10556C006A04CF93DF930091670410916804209133
:10557C00690430916A043A932A931A930A930E940D
:10558C006F0ADF91CF91009167041091680420910C
:10559C00690430916A0440E83427303829F420300B
:1055AC0019F4103009F400301FEF08F01127112303
:1055BC0011F40C94E82A109187041460109387045A
:1055CC000C94F42A11E004EF0E94A3570E94740774
:1055DC00CF93DF930E94DF09DF91CF910C94512D73
:1055EC00163211F00C946D2B0B3C11F00C946D2BAE
:1055FC000E946A081095112311F40C946B2B0091E6
:10560C006704109168042091690430916A040C5A63
:10561C001F4F2F4F3F4F0093670410936804209344
:10562C00690430936A040091670410916804209116
:10563C00690430916A04ECE00E94645D0093670495
:10564C00109368042093690430936A04CF93DF931A
:10565C0000916704109168042091690430916A04E8
:10566C003A932A931A930A930E946F0ADF91CF916F
:10567C0000916704109168042091690430916A04C8
:10568C0040E83427303829F4203019F4103009F46C
:10569C0000301FEF08F01127112311F40C94652B27
:1056AC00CF93DF9318E01A930E949306DF91CF916A
:1056BC00109187041460109387040C946B2B11E0E9
:1056CC0004EF0E94A3570E9474070C94512D1632BC
:1056DC0011F00C94C42B043D11F00C94C42B0E94BB
:1056EC006A081095112311F40C94C22B00916704D5
:1056FC00109168042091690430916A04ECE00E94D6
:10570C00645D0093670410936804209369043093DC
:10571C006A04CF93DF930091670410916804209181
:10572C00690430916A043A932A931A930A930E945B
:10573C004404DF91CF911095112311F40C94C02BDC
:10574C000E945006CF93DF9318E0412A03E717E538
:10575C001A930A93E2EFFDEB0E9474591DE00E942C
:10576C004A5C1AE00E944A5CDF91CF910C947E2D2A
:10577C000C94C22B0E9474070C94512D163211F00C
:10578C000C942F2C053D11F00C942F2C0E946A08C0
:10579C001095112311F40C942D2C00916704109189
:1057AC0068042091690430916A040C5A1F4F2F4FE2
:1057BC003F4F00936704109368042093690430935F
:1057CC006A04009167041091680420916904309177
:1057DC006A04ECE00E94645D009367041093680413
:1057EC002093690430936A04CF93DF93009167048C
:1057FC00109168042091690430916A043A932A93B9
:10580C001A930A930E944404DF91CF9110951123AF
:10581C0011F40C942B2C0E945006CF93DF9318E0BC
:10582C00412A03E717E51A930A93E2EFFDEB0E9476
:10583C0074591DE00E944A5C1AE00E944A5CDF9198
:10584C00CF910C947E2D0C942D2C0E9474070C94EB
:10585C00512D163211F00C946F2C063D11F00C9456
:10586C006F2C0E946A081095112311F40C946D2C66
:10587C000E9484041095112311F40C945F2C0E9447
:10588C005006CF93DF9318E0412A03E717E51A93EC
:10589C000A93EBE0FEEB0E9474591DE00E944A5CF7
:1058AC001AE00E944A5CDF91CF910C947E2D0C94EF
:1058BC006D2C00E010E020E030E0009367041093C2
:1058CC0068042093690430936A040E9474070C9452
:1058DC00512D163211F00C94792C0E3D11F00C94C4
:1058EC00792C0C94812C163211F00C94C72C0F3D92
:1058FC0011F00C94C72C00918604112704FD1FEFA6
:10590C00112311F40C94BB2C1B81103010E009F402
:10591C001FEF112311F40C94A52C00916704109126
:10592C0068042091690430916A04E8E0F0E0D80141
:10593C000E94E05731960E94F8050C94B52C00910A
:10594C006704109168042091690430916A04ECE0BA
:10595C00F0E0D8010E94E05731960E94F80513E060
:10596C0008EE0E94A3570C94C52CCF93DF9316E03E
:10597C001A930E949306DF91CF910C947E2D0C9478
:10598C00512D163211F00C94E02C083E11F00C94B1
:10599C00E02CCF93DF9310916D041A930E94C30FE8
:1059AC00DF91CF91CF93DF930E94DD14DF91CF91E4
:1059BC000C94512D163211F00C94FA2C023F11F06C
:1059CC000C94FA2CCF93DF9300916404109165042E
:1059DC001A930A930E94C100DF91CF9110936D042A
:1059EC000E9469070C94512D173211F00C94472D1D
:1059FC00063011F00C94472D00918604112704FDFC
:105A0C001FEF112311F40C943B2D109166041123FC
:105A1C0011F40C942F2DE6EBF2E0EF93FF933196FB
:105A2C00FA93EA9318E21A9317EF412210E4412AF1
:105A3C00E0EFF3E00E947D5918E21F9318810F915B
:105A4C00011B102FFF91EF910E94CA5723960C94C3
:105A5C00392DCF93DF9315E01A930E949306DF91B3
:105A6C00CF910C947E2D0C94452DCF93DF9316E0A3
:105A7C001A930E949306DF91CF910C947E2D0C9477
:105A8C00512DCF93DF9315E01A930E949306DF916B
:105A9C00CF910C947E2D109186041F7E109386045A
:105AAC000091600410916104A0E81A27103809F4E1
:105ABC000A3F10E009F41FEF112311F40C94702D20
:105ACC001881E894112309F068941091860414F954
:105ADC001093860410916304112311F40C947E2D01
:105AEC00CF93DF9310E01A930E949306DF91CF912E
:105AFC0008952197E0EFF3E0EF93FF933196FA933B
:105B0C00EA9318E21A9317EF41221FEB4122E0EFC0
:105B1C00F3E00E94515918E21F9318810F91011B59
:105B2C00102FFF91EF9110832396FE01FA93EA93C5
:105B3C0010E010831EE01A931081088101171FEFEB
:105B4C0008F01127112311F00C94DB2DE0EFF3E09A
