:10007C0010B11370B12E1B2D1F931C2D0F91011756
:10008C0010E009F01FEF112311F40C9481001B2DCB
:10009C00103010E009F41FEF112311F40C947D00C3
:1000AC001D2D133010E009F41FEF112311F40C94E3
:1000BC007D001C2D113010E009F41FEF112311F4F9
:1000CC000C946F0010913C02139510933C020C940D
:1000DC007D001C2D123010E009F41FEF112311F4D8
:1000EC000C947D0010913C021A9510933C021C2D2F
:1000FC00D12E1B2DC12E089518811F9316E11F932D
:10010C00E89440F8E5EEF3E0A4E0B0E03F914F91C5
:10011C0050E00E94A069089500E010E020E030E07B
:10012C000093E5031093E6032093E7033093E80371
:10013C00CF93DF9318811A930E948200DF91CF91A5
:10014C0018811F9312E01F93E89440F8E6E1F0E069
:10015C003F914F91A1E0B0E060E050E00E94A069B7
:10016C0018811F9313E01F93E89440F8E6E1F0E048
:10017C003F914F91A1E0B0E068E250E00E94A0698D
:10018C0018811F9314E01F93E89440F8E6E1F0E027
:10019C003F914F91A1E0B0E064E150E00E94A06972
:1001AC0018811F9315E01F93E89440F8E6E1F0E006
:1001BC003F914F91A1E0B0E060E850E00E94A0694F
:1001CC0000E010E020E030E00093E5031093E6033C
:1001DC002093E7033093E803CF93DF9318811A93AE
:1001EC000E948200DF91CF91089519E110933302A0
:1001FC005A9808951AE0109333025A98089521974B
:10020C0010E51F9309811A811F93E89440F8098126
:10021C001A81102FE6E1F0E0612FA1E0B0E03F91F0
:10022C004F9150E00E94A06910E51F93FE01A1E0E0
:10023C00B0E04F910E947D6918810895CF93DF93B0
:10024C0010E51A930A811B811A930A93FE013396C7
:10025C008F011A930A9310E001E01A930A930E94FB
:10026C009669DF91CF9110E007E00E94306A089503
:10027C002297CF93DF9310E51A930F8118851A9369
:10028C000A93FE0135968F011A930A9310E004E04D
:10029C001A930A930E949669DF91CF9110E007E0C0
:1002AC000E94306A08952B971BB11F701F931C85F9
:1002BC00110F110F110F110F0F91102B1BB913E907
:1002CC0010937A0011E00E943F6A13EC10937A00AD
:1002DC0010917A001071103010E009F01FEF11230B
:1002EC0011F40C946E0113E810937A001C85E9E468
:1002FC00F3E01F710027E10FF01F108118831881A4
:10030C00012F11271E830D830D811E81015010407A
:10031C001C830B831C85E9E2F3E01F710027E10FBE
:10032C00F01F1081012F112718870F83109179006E
:10033C00012F11270F931F930B811C81019509F439
:10034C001A9510953F912F91020F131F1A87098749
:10035C0009851A85A0E81A27103809F400301FEF18
:10036C0008F01127112311F40C94C00110E000E0E7
:10037C001A87098709851A850F931F930F81188592
:10038C000F931F930D811E813F912F91020F131F0D
:10039C0098011F910F91A0E81A273A27131709F417
:1003AC00021710E011F008F01FEF1F9309851A8552
:1003BC000F931F930F8118850F931F930B811C8133
:1003CC00019509F41A9510953F912F91020F131F67
:1003DC0098011F910F91A0E81A273A27131709F4D7
:1003EC0002171FEF08F011270F91102B112311F496
:1003FC000C94250212E319831C851F931981E9E8DB
:10040C00F3E0AF91AF71BB27EA0FFB1F10831C8584
:10041C001F931B85E9E6F3E0AF91AF71BB27EA0FA1
:10042C00FB1F10831C851F9313E0E9E4F3E0AF91ED
:10043C00AF71BB27EA0FFB1F10830C942E021C8597
:10044C00E9E8F3E01F710027E10FF01F1081198319
:10045C0009851A850F931F930F8118853F912F9152
:10046C00020F131F112312F40F5F1F4F15950795E1
:10047C001A8709871981103010E009F41FEF112336
:10048C0011F40C945F02188115301FEF08F011273E
:10049C00112311F40C945D021C851F9315E0E9E403
:1004AC00F3E0AF91AF71BB27EA0FFB1F10830C94E5
:1004BC008D0209851A850F931F930F81188598015A
:1004CC001F910F91A0E81A273A27131709F4021766
:1004DC0010E009F01FEF112311F40C948D021C8510
:1004EC001F931B85E9E6F3E0AF91AF71BB27EA0FD1
:1004FC00FB1F10831C851F9309851A85102FE9E2B9
:10050C00F3E0AF91AF71BB27EA0FFB1F1083089587
:10051C002397149A1598169ACF93DF931BE01A938E
:10052C001FEF1A930E945901DF91CF911091A903EB
:10053C0013951093A9031091A903113011F00C9489
:10054C00D2021498159A169AFE013296FA93EA93EF
:10055C0010E0108317E01A931081088101171FEF28
:10056C0008F01127112311F00C94CF02CF93DF93D5
:10057C001D811A931F811A930E945901DF91CF910B
:10058C00E981FA81108113951083112311F00C94D9
:10059C00B30223960C94A603123011F00C9427038B
:1005AC00149A1598169AFE013296FA93EA9318E06B
:1005BC0010831AE01A931081088101171FEF08F0BD
:1005CC001127112311F00C94FE02CF93DF931D81A0
:1005DC001A931F811A930E945901DF91CF91E981DF
:1005EC00FA81108113951083112311F00C94E202FF
:1005FC002396FE013296FA93EA931CE010831FE0D7
:10060C001A931081088101171FEF08F0112711238D
:10061C0011F00C942403CF93DF931D811A931F8147
:10062C001A930E945901DF91CF91E981FA811081CF
:10063C0013951083112311F00C94080323960C943A
:10064C00A603133011F00C945603149A159A1698AD
:10065C00FE013296FA93EA9310E1108317E11A9394
:10066C001081088101171FEF08F01127112311F0D9
:10067C000C945303CF93DF931D811A931F811A930C
:10068C000E945901DF91CF91E981FA811081139574
:10069C001083112311F00C94370323960C94A603AA
:1006AC00143011F00C94A3031FEF009136020023B9
:1006BC0009F01095112311F40C94A10314E110937B
:1006CC003602FE013296FA93EA9310E0108317E19A
:1006DC001A931081088101171FEF08F011271123BD
:1006EC0011F00C94A0031D81E9E8F3E01F710027C1
:1006FC00E10FF01F10811C83FE013496112700813D
:10070C0070E0701718F40A9500831FEF1D811F937A
:10071C001C81E9E8F3E0AF91AF71BB27EA0FFB1F37
:10072C001083E981FA81108113951083112311F044
:10073C000C94700323960C94A60310E01093A90359
:10074C0008951091A9042B981EBD1DB517FFFDCF60
:10075C001EB51093AA042B9A08951091A6042B98F9
:10076C001EBD1DB517FFFDCF1EB51093A80410912B
:10077C00A5041EBD1DB517FFFDCF1EB51093A70414
:10078C002B9A08951091A0042B981EBD1DB517FF30
:10079C00FDCF1EB51093A40410919F041EBD1DB572
:1007AC0017FFFDCF1EB51093A30410919E041EBD20
:1007BC001DB517FFFDCF1EB51093A20410919D041B
:1007CC001EBD1DB517FFFDCF1EB51093A1042B9AAE
:1007DC00089510919B0429981EBD1DB517FFFDCFE0
:1007EC0010919A041EBD1DB517FFFDCF299A0895CF
:1007FC001091AB0408E0449817FD449A459A110FE8
:10080C0045980A95C1F70895E0E0FFE010814598FE
:10081C0008B117FB04F908B9459A16FB04F908B995
:10082C00459A15FB04F908B9459A14FB04F908B963
:10083C00459A13FB04F908B9459A12FB04F908B957
:10084C00459A11FB04F908B9459A10FB04F908B94B
:10085C00459A4598E395D1F608951091AC041EBDC8
:10086C001DB517FFFDCF1EB51093AD040895289844
:10087C0015E01093AC040E9433040E943304289AB0
:10088C001091AD040895289815E01093AC040E94C3
:10089C0033040E9433041091AD041170103010E039
:1008AC0009F41FEF112311F40C944F04289A0895A6
:1008BC00289816E01093AC040E943304289A0895EB
:1008CC000E945E04289811E01093AC040E9433043B
:1008DC0010E01093AC040E943304289A0E9449043F
:1008EC0008950E945E04289811E01093AC040E94B5
:1008FC0033041FE31093AC040E943304289A0E9423
:10090C00490408950E945E0428983B812A8119812C
:10091C0008810093AE041093AF042093B00430937D
:10092C00B10410E21093AC040E9433041091B00493
:10093C001093AC040E9433041091AF041093AC04D8
:10094C000E9433041091AE041093AC040E94330443
:10095C00289A0E9449041091AD041072103010E0D6
:10096C0009F01FEFE894112309F068941091910499
:10097C0012F91093910400919104112702FD1FEFBD
:10098C00109508950E945E04289817EC1093AC04FF
:10099C000E943304289A0E9449041091AD041072ED
:1009AC00103010E009F01FEFE894112309F068945F
:1009BC001091910412F91093910400919104112754
:1009CC0002FD1FEF10950895219709811A8101509E
:1009DC001040102F18830E945E0428983E812D81B0
:1009EC001C810B810093AE041093AF042093B004D0
:1009FC003093B10412E01093AC040E9433041091B4
:100A0C00B0041093AC040E9433041091AF04109303
:100A1C00AC040E9433041091AE041093AC040E94F9
:100A2C003304E7E0F0E0FA93EA9310E01083EF93DD
:100A3C00FF931A81FF91EF911A931081088101178E
:100A4C001FEF08F01127112311F00C944205172DFC
:100A5C00E0E0FFE01F7F0027E10FF01F10811093F3
:100A6C00AC040E943304E981FA8110811395108340
:100A7C00112311F00C9424052396289A0E94490402
:100A8C001091AD041072103010E009F01FEFE894D3
:100A9C00112309F068941091910412F910939104A8
:100AAC0000919104112702FD1FEF109508952197D5
:100ABC000E9449040A811B8101501040102F188399
:100ACC003F812E811D810C810093AE041093AF04E5
:100ADC002093B0043093B10428981BE01093AC041D
:100AEC000E9433041091B0041093AC040E943304A0
:100AFC001091AF041093AC040E9433041091AE0417
:100B0C001093AC040E94330410E01093AC040E94C8
:100B1C003304E7E0F0E0FA93EA9310E01083EF93EC
:100B2C00FF931A81FF91EF911A931081088101179D
:100B3C001FEF08F01127112311F00C94CF050E9420
:100B4C0033041C81112311F40C94BA05172D1F9337
:100B5C001091AD04E0E0FEE0AF91AF7FBB27EA0F50
:100B6C00FB1F10830C94C605172D1F931091AD0419
:100B7C00E0E0FFE0AF91AF7FBB27EA0FFB1F1083D4
:100B8C00E981FA81108113951083112311F00C94D3
:100B9C009C052396289A0895EAE9F4E0EF93FF93D5
:100BAC001881FF91EF911193EBE9F4E010E01193B0
:100BBC000E94EF030E94C8030091A1041091A204AB
:100BCC002091A3043091A4040895EAE9F4E0EF9392
:100BDC00FF931881FF91EF911193EBE9F4E010E88A
:100BEC0011930E94EF03E5EAF4E0EF93FF93198170
:100BFC00FF91EF911193E6EAF4E010E011930E945B
:100C0C00B3030895EAE9F4E0EF93FF931881FF91A1
:100C1C00EF911193EBE9F4E010E811930E94EF03CC
:100C2C0009811A810093A5041093A6040E94B303B2
:100C3C000895EAE9F4E0EF93FF931881FF91EF91A7
:100C4C001193EBE9F4E010E811930E94EF033C815F
:100C5C002B811A81098100939D0410939E0420938B
:100C6C009F043093A0040E94C8030895CF93DF9390
:100C7C0010EF1A930E94D205DF91CF91009371046B
:100C8C00109372042093730430937404E8E0F0E042
:100C9C000E94876A0093710410937204209373046A
:100CAC0030937404CF93DF9300917104109172040C
:100CBC0020917304309174043A932A931A930A93F3
:100CCC0010EF1A930E941F06DF91CF91ECE0F0E039
:100CDC000E94876A0093710410937204209373042A
:100CEC0030937404CF93DF930091710410917204CC
:100CFC0020917304309174043A932A931A930A93B3
:100D0C0011EF1A930E941F06DF91CF9108951DE0F9
:100D1C000E94006A1AE00E94006A089513E20E9481
:100D2C00006A10914602105D0E94006A1AE30E944C
:100D3C00006ACF93DF9318E0412A00E01AE61A9379
:100D4C000A9300916A0410916B04CF93DF931A936A
:100D5C000A9310E01A9310E01A9310E21A93689415
:100D6C0043F8689445F8E89454F855F80E945B6E83
:100D7C00DF91CF91DF91CF911DE30E94006A08951E
:100D8C00CF93DF9318E0412A00E01AE61A930A93F6
:100D9C00E3E2F4E00E940A6CDF91CF910E948D0691
:100DAC000895229710917804112311F40C94EC06F9
:100DBC0016E00E94006A1A810E94006A10E00E94EC
:100DCC00006A10E00E94006A0C94300710E00FEFEC
:100DDC0000936A0410936B040E949406CF93DF93E4
:100DEC0018E0412A00E01AE61A930A931C81CF936B
:100DFC00DF931A9310E01A9310E01A9310E21A93EF
:100E0C00689443F80E94226CDF91CF91DF91CF91CF
:100E1C0010E20E94006ACF93DF9318E0412A00E0B1
:100E2C001AE61A930A93E9ECF4EEEF93FF931C8104
:100E3C00012F1127ADE0B0E0E89445F80E94456F12
:100E4C00FF91EF91E00FF11F0E94016CDF91CF91A8
:100E5C000E948D0608950E949406CF93DF9318E0AC
:100E6C00412A00E01AE61A930A93EAEFF3E00E9493
:100E7C000A6CDF91CF910E948D0608951091780431
:100E8C00112311F40C945F0716E00E94006A10E025
:100E9C000E94006A00916E0410916F040E94006A17
:100EAC0000916E0410916F04102F0E94006A0C9434
:100EBC009607EAEFF3E0EF93FF933196FA93EA93F8
:100ECC0018E21A9317EF41221FEB41220091710493
:100EDC00109172042091730430917404CF93DF93BA
:100EEC003A932A931A930A9310E01A9310E01A93E8
:100EFC0010E21A93689445F8E89454F855F842F8BF
:100F0C000E94626CDF91CF9118E21F9318810F91B0
:100F1C00011B102FFF91EF91108323960E94310734
:100F2C00089500916E0410916F0417FF03C03FEFFA
:100F3C002FEF02C033272227009371041093720401
:100F4C0020937304309374040E9444070895109105
:100F5C007704012F112700936E0410936F040E94E5
:100F6C00970708950E949406EAEFF3E0EF93FF933E
:100F7C003196FA93EA9318E21A9317EF41221FEB7A
:100F8C0041220091710410917204209173043091EC
:100F9C007404CF93DF933A932A931A930A9310E035
:100FAC001A9310E01A9310E21A93689445F8E89497
:100FBC0054F855F842F80E94626CDF91CF9118E218
:100FCC001F9318810F91011B102FFF91EF9110832C
:100FDC002396CF93DF9318E0412A00E01AE61A9388
:100FEC000A93EAEFF3E00E940A6CDF91CF9110E2D2
:100FFC000E94006A1BE50E94006A14E20E94006ACB
:10100C00EAEFF3E0EF93FF933196FA93EA9318E249
:10101C001A9317EF41221FEB41220091710410919A
:10102C0072042091730430917404B801C901492FE2
:10103C000E94CA6E482F0E94CA6E472F0E94CA6E29
:10104C00462F0E94CA6E18E21F9318810F91011B44
:10105C00102FFF91EF9110832396CF93DF9318E01D
:10106C00412A00E01AE61A930A93EAEFF3E00E9491
:10107C000A6CDF91CF911DE50E94006A0E948D06DB
:10108C0008950E949406EAEFF3E0EF93FF933196F4
:10109C00FA93EA9318E21A9317EF41221FEB4122BD
:1010AC0000917104109172042091730430917404B6
:1010BC00CF93DF933A932A931A930A9310E01A93DF
:1010CC0010E01A9310E21A93689445F8E89454F8D7
:1010DC0055F842F80E94626CDF91CF9118E21F9391
:1010EC0018810F91011B102FFF91EF911083239604
:1010FC00CF93DF9318E0412A00E01AE61A930A9383
:10110C00EAEFF3E00E940A6CDF91CF91CF93DF936B
:10111C0018E0412A00E01AE61A930A93E1E0F1EE96
:10112C000E94016CDF91CF91CF93DF9318E0412A9D
:10113C0000E01AE61A930A93E3E4F4E00E940A6CC6
:10114C00DF91CF911DE50E94006A0E948D060895E3
:10115C000E943D041F7E103010E009F01FEF112398
:10116C0011F40C94D4080E949406CF93DF9318E0EA
:10117C00412A00E01AE61A930A93E4E0F1EE0E9489
:10118C00016C1DE00E94D76E1AE00E94D76EDF91B1
:10119C00CF911FEF0C94D7080C94D70810E00C9447
:1011AC00D70808952497CF93DF9313E01A930E94E6
:1011BC00D205DF91CF910091A1041091A20420914E
:1011CC00A3043091A4043B832A8319830883CF930F
:1011DC00DF9318E0412A00E01AE61A930A93ECE137
:1011EC00F1EE0E94016CDF91CF91CF93DF9318E069
:1011FC00412A00E01AE61A930A933D812C811B8147
:10120C000A81689443F8B801C901492F0E94CA6E3B
:10121C00482F0E94CA6E472F0E94CA6E462F0E940A
:10122C00CA6EDF91CF91CF93DF9318E0412A00E093
:10123C001AE61A930A93E9EFF0EE0E94016CDF9123
:10124C00CF910E948D06089528971AE314B91FE9CF
:10125C0015B910E717B91FEC18B9109191041B7F41
:10126C0010939104469815E00E943F6A469A15E047
:10127C000E943F6A10E317B916E206EB00936A046A
:10128C0010936B0411E004EF0E94306A1BEB14B94D
:10129C001FE915B90E949406112737991FEF1123E6
:1012AC0011F40C946909CF93DF9318E0412A00E004
:1012BC001AE61A930A93E9E2F1EE0E94016CDF91AF
:1012CC00CF910C947C09CF93DF9318E0412A00E076
:1012DC001AE61A930A93E9E3F1EE0E94016CDF918E
:1012EC00CF91109191041460109391040E943C06CC
:1012FC00CF93DF930E94D808DF91CF910895EBE94B
:10130C00F4E010E81193EAE9F4E0EF93FF93109105
:10131C00B2041F5FFF91EF9111930E94EF031091A4
:10132C00B3041093A9040E94A703EAE9F4E0109116
:10133C00B20411930E94EF030895EBE9F4E010E876
:10134C001193EAE9F4E0EF93FF931091B2041F5F5D
:10135C00FF91EF9111930E94EF031091B30410933E
:10136C00A9040E94A703089510918904112311F474
:10137C000C94EE0910E00E94B568CF93DF9318E04F
:10138C00412A07E718E61A930A93E9E5F1EE0E9461
:10139C00016CDF91CF91CF93DF9310E01A9310E0A3
:1013AC001A9311E01A930E949D68DF91CF91CF930D
:1013BC00DF9318E0412A07E718E61A930A93E2E64E
:1013CC00F1EE0E94016CDF91CF9110E00E94BE689B
:1013DC00089510918904112311F40C944E0A1127CD
:1013EC00062D017009F41095112311F40C944C0A7C
:1013FC00CF93DF9310E01A9310E01A9311E01A9335
:10140C000E949D68DF91CF91CF93DF9318E0412A22
:10141C0007E718E61A930A93EBE6F1EE0E94016CCB
:10142C00DF91CF91CF93DF9318E0412A07E718E6BD
:10143C001A930A93009195041091960420919704A5
:10144C0030919804CF93DF933A932A931A930A938B
:10145C0018E01A9300E00A9310E21A93689443F888
:10146C00689445F8E89454F855F842F80E94626C78
:10147C00DF91CF91DF91CF9110E00E94BE6810E018
:10148C0002E3E4E3F2E0B1E00E9417700C94520A1C
:10149C0010E002E00E94306A089510918904112333
:1014AC0011F40C94730ACF93DF9310E01A9310E0AD
:1014BC001A9311E01A930E949D68DF91CF91CF93FC
:1014CC00DF9318E0412A07E718E61A930A93E4E73A
:1014DC00F1EE0E94016CDF91CF9108951091890477
:1014EC00112311F40C94940ACF93DF9310E01A9308
:1014FC0010E01A9311E01A930E949D68DF91CF912E
:10150C00CF93DF9318E0412A07E718E61A930A9362
:10151C00E0E8F1EE0E94016CDF91CF9108956597A0
:10152C000E949406CF93DF9318E0412A00E01AE65C
:10153C001A930A93ECE8F1EE0E94016C1DE00E94F4
:10154C00D76E1AE00E94D76EDF91CF9110E01A8708
:10155C0010E0188710E01C8B10E0198B1FEF188B14
:10156C0000E010E020E030E0009395041093960426
:10157C00209397043093980410E000E01C870B87AD
:10158C000E94BA0910E000E01983088310E000E023
:10159C001B830A83388D2F891E890D893F832E83E7
:1015AC001D830C831A851095112311F40C94470B91
:1015BC0010E000E01C870B8711275A991FEF10953C
:1015CC00E894112309F068941BB112F91BB9CF935D
:1015DC00DF93FE017496FA93EA9314E61A930E9431
:1015EC00C969DF91CF911A871A85112311F40C94D4
:1015FC00180B1C89113010E009F41FEF1F931C8984
:10160C00143010E009F41FEF0F91102B112311F47B
:10161C000C94160B10E000E01C870B870C94470B06
:10162C000C94220B15E10E94006AFE013B96A081EE
:10163C00B1811196A083B1831C89113010E009F49B
:10164C001FEF1F931C89143010E009F41FEF0F914A
:10165C00102B1F931C89183110E009F41FEF0F9108
:10166C00102B1F930B851C85103009F4043110E0EE
:10167C0011F008F01FEF0F91102B112311F40C94A3
:10168C00ED0A18851095112311F40C94510B0E943E
:10169C00EF091FEF18871C89113010E009F41FEFB8
:1016AC00112311F40C94850CCF93DF93FE017396E8
:1016BC00FA93EA9314E61A930E94C969DF91CF91C9
:1016CC0019871985112311F40C947F0CCF93DF9398
:1016DC00FE017296FA93EA931AE01A930E94C96972
:1016EC00DF91CF9119871B890FEF011B102F1F93CF
:1016FC001A890F91011710E009F41FEF112311F44F
:10170C000C947D0C10E0198BE8E0F0E0FA93EA936E
:10171C0010E010831FE71A931081088101171FEF47
:10172C0008F01127112311F00C94C30BCF93DF9306
:10173C00EAE0F0E0FA93EA931AE01A930E94C9697E
:10174C00DF91CF911C871C891F931A2D0F91100FBD
:10175C001C8B182D1F931A2DE0E0FFE0AF91AF7F8B
:10176C00BB27EA0FFB1F1083E981FA8110811395C7
:10177C001083112311F00C94930B2396CF93DF93CA
:10178C00FE017096FA93EA931AE01A930E94C969C3
:10179C00DF91CF911987CF93DF933F812E811D81EC
:1017AC000C813A932A931A930A9310E000E81A9347
:1017BC000A930E94EA04DF91CF911095112311F442
:1017CC000C94EF0BFE013296A081B1811196A0838F
:1017DC00B183CF93DF933F812E811D810C813A938E
:1017EC002A931A930A9310E000E81A930A931FEFB6
:1017FC001A930E945D05DF91CF91E8E0F0E0FA9337
:10180C00EA9310E010831FE71A93108108810117E7
:10181C001FEF08F01127112311F00C943F0C182D19
:10182C00E0E0FEE01F7F0027E10FF01F10811F9307
:10183C00182DE0E0FFE01F7F0027E10FF01F108163
:10184C000F91011710E009F01FEF112311F40C9404
:10185C00360CFE013396A081B1811196A083B18321
:10186C00E981FA81108113951083112311F00C94E6
:10187C000C0C239619891F9318890F91011710E0EE
:10188C0009F41FEF112311F40C94730C16E00E9451
:10189C00006A3F812E811D810C8100581F4F2F4FF4
:1018AC003F4F3F832E831D830C8300919504109131
:1018BC009604209197043091980400581F4F2F4F95
:1018CC003F4F009395041093960420939704309304
:1018DC0098040E94EF090C947D0CFE013B96A081AC
:1018EC00B1811196A083B18315E10E94006A0C941A
:1018FC00830C10E00FEF1C870B8710E01C8B10E0A3
:10190C001A871C89143010E009F41FEF1F931C89EF
:10191C00183110E009F41FEF0F91102B1F930B855A
:10192C001C85103009F4043110E011F008F01FEFA1
:10193C000F91102B112311F40C94D80A16E00E946D
:10194C00006A18891F9319890F91011710E009F08B
:10195C001FEF112311F40C94D90C0FEF1FEF2FEF85
:10196C003FEF00937104109372042093730430932F
:10197C0074040E949406CF93DF9318E0412A00E090
:10198C001AE61A930A93EFE9F1EE0E94016C1DE03E
:10199C000E94D76E1AE00E94D76EDF91CF910E9401
:1019AC00530A0C94F30C0091950410919604209119
:1019BC00970430919804009371041093720420934F
:1019CC00730430937404E4E3F2E00EEF0E940D70A4
:1019DC000E94EF0910E010933D020881198110302C
:1019EC0009F4003010E009F01FEF112311F40C94EE
:1019FC00550D0FEF1FEF2FEF3FEF00937104109376
:101A0C00720420937304309374040E949406CF9351
:101A1C00DF9318E0412A00E01AE61A930A93EAEBE6
:101A2C00F1EE0E94016CDF91CF91CF93DF9318E020
:101A3C00412A00E01AE61A930A930A811B81CF937C
:101A4C00DF931A930A9310E01A9310E01A9310E2A2
:101A5C001A93689443F8E89445F8E89454F855F8C8
:101A6C000E945B6EDF91CF91DF91CF91CF93DF938B
:101A7C0018E0412A00E01AE61A930A93E0EDF1EE21
:101A8C000E94016C1DE00E94D76E1AE00E94D76E76
:101A9C00DF91CF910E94740A10E010933D020A81ED
:101AAC001B81103009F4003010E009F01FEF1123F6
:101ABC0011F40C94B70D0FEF1FEF2FEF3FEF0093C6
:101ACC0071041093720420937304309374040E9475
:101ADC009406CF93DF9318E0412A00E01AE61A939C
:101AEC000A93E1EEF1EE0E94016CDF91CF91CF935E
:101AFC00DF9318E0412A00E01AE61A930A930C814E
:101B0C001D81CF93DF931A930A9310E01A9310E080
:101B1C001A9310E21A93689443F8E89445F8E89401
:101B2C0054F855F80E945B6EDF91CF91DF91CF9105
:101B3C00CF93DF9318E0412A00E01AE61A930A9338
:101B4C00E0EDF1EE0E94016C1DE00E94D76E1AE0F0
:101B5C000E94D76EDF91CF910E94740A10E010930F
:101B6C003D0208952297CF93DF9312E01A930E94BF
:101B7C00D205DF91CF9111271A991FEF112311F480
:101B8C000C94B90D1091A3041A3A10E009F41FEF4C
:101B9C00112311F40C94B00E1091A104103511F016
:101BAC000C94E80DCF93DF9318E0412A00E01AE67D
:101BBC001A930A93E6EFF1EE0E94016CDF91CF913C
:101BCC000C947F0E113511F00C94FC0DCF93DF9318
:101BDC0018E0412A00E01AE61A930A93E7E0F2EEC5
:101BEC000E94016CDF91CF910C947F0E123511F095
:101BFC000C94100ECF93DF9318E0412A00E01AE604
:101C0C001A930A93E5E1F2EE0E94016CDF91CF91F9
:101C1C000C947F0E133511F00C94240ECF93DF939C
:101C2C0018E0412A00E01AE61A930A93EFE1F2EE6B
:101C3C000E94016CDF91CF910C947F0E143511F042
:101C4C000C94380ECF93DF9318E0412A00E01AE68B
:101C5C001A930A93EDE2F2EE0E94016CDF91CF91A0
:101C6C000C947F0E183511F00C944C0ECF93DF931F
:101C7C0018E0412A00E01AE61A930A93EBE3F2EE1D
:101C8C000E94016CDF91CF910C947F0E1F3511F0E7
:101C9C000C94600ECF93DF9318E0412A00E01AE613
:101CAC001A930A93E8E4F2EE0E94016CDF91CF9153
:101CBC000C947F0ECF93DF9318E0412A00E01AE6D4
:101CCC001A930A93E1E5F2EE0E94016CDF91CF9139
:101CDC00CF93DF9318E0412A00E01AE61A930A9397
:101CEC001091A104689443F8412F0E94CA6EDF91B1
:101CFC00CF91CF93DF9318E0412A00E01AE61A93B4
:101D0C000A93ECE5F2EE0E94016CDF91CF91CF9338
:101D1C00DF9318E0412A00E01AE61A930A93109117
:101D2C00A204689443F8412F0E94CA6EDF91CF91B0
:101D3C00CF93DF9318E0412A00E01AE61A930A9336
:101D4C00E9EFF0EE0E94016CDF91CF910E948D06BD
:101D5C000C94C00ECF93DF9318E0412A00E01AE6F2
:101D6C001A930A93E8E6F2EE0E94016CDF91CF9190
:101D7C000E948D06089525970E9494061E81145585
:101D8C001093B3040E948509CF93DF9318E0412A86
:101D9C0000E01AE61A930A931091B304CF93DF93E1
:101DAC001A9310E01A9310E01A9310E21A936894A5
:101DBC0043F80E94226CDF91CF91DF91CF91CF93AA
:101DCC00DF9318E0412A00E01AE61A930A93EEE733
:101DDC00F2EE0E94016CDF91CF911E81012F112731
:101DEC003327222740E050E160E070E0689445F82A
:101DFC000E94A16F3C832B831A83098300E010E0BF
:101E0C0020E030E0009395041093960420939704FF
:101E1C0030939804E8E0F0E0FA93EA9310E0108332
:101E2C001FE01A931081088101171FEF08F011278A
:101E3C00112311F00C94EB0FCF93DF933F812E8184
:101E4C001D810C813A932A931A930A9311E000E0B6
:101E5C001A930A9310E01A930E945D05DF91CF91BB
:101E6C001885112311F40C94720FEAE0F0E0FA9348
:101E7C00EA9310E010831FEF1A9310810881011769
:101E8C001FEF08F01127112311F00C946F0F1A2D6E
:101E9C00E0E0FFE01F7F0027E10FF01F10811E83A1
:101EAC00CF93DF9318E0412A00E01AE61A930A93C5
:101EBC001885689443F8412F0E94CA6EDF91CF9128
:101ECC00E981FA81108113951083112311F00C9480
:101EDC00440F23960C94890F182D1170113010E0BB
:101EEC0009F41FEF112311F40C94890FCF93DF9396
:101EFC0018E0412A00E01AE61A930A931EE20E94A7
:101F0C00D76EDF91CF91EAE0F0E0FA93EA9310E01C
:101F1C0010831FE31A931081088101171FEF08F03B
:101F2C001127112311F00C94C10FE0E0FFE0EF93A7
:101F3C00FF931A2D012F1127000F111F000F111FD6
:101F4C00FF91EF91E00FF11F0191119121913191CE
:101F5C0000939D0410939E0420939F043093A0043F
:101F6C000E94C803E981FA81108113951083112313
:101F7C0011F00C94920F23963F812E811D810C81C0
:101F8C0000501F4F2F4F3F4F3F832E831D830C83D9
:101F9C000091950410919604209197043091980427
:101FAC0000501F4F2F4F3F4F0093950410939604F2
:101FBC002093970430939804E981FA81108113954A
:101FCC001083112311F00C94190F23960E94A3096E
:101FDC0011E004EFE4E3F2E0B1E00E94177000912D
:101FEC0095041091960420919704309198040093D5
:101FFC0071041093720420937304309374041FEFD4
:10200C001093C60310E002E30E94306ACF93DF9373
:10201C000E94B80DDF91CF9108952D970E949406E0
:10202C00CF93DF9318E0412A00E01AE61A930A9343
:10203C001F85CF93DF931A9310E01A9310E01A9335
:10204C0010E21A93689443F80E94226CDF91CF91AE
:10205C00DF91CF91CF93DF9318E0412A00E01AE68D
:10206C001A930A93EEE8F2EE0E94016CDF91CF9185
:10207C00CF93DF9310E01A9318E41A930E94EB05A8
:10208C00DF91CF9110E004E60E94306A1D851C5A46
:10209C00012F11273327222740E050E160E070E048
:1020AC00689445F80E94A16F3C872B871A87098793
:1020BC0010E000E018870F8310E000E0198308831C
:1020CC00E8E0F0E0FA93EA9310E010831FE01A9333
:1020DC001081088101171FEF08F01127112311F04F
:1020EC000C946A11CF93DF933F852E851D850C854B
:1020FC003A932A931A930A9311E000E01A930A93E5
:10210C0010E01A930E945D05DF91CF9110E000E082
:10211C001E830D8310E000E01C830B830A851B8556
:10212C0019870887EAE0F0E0FA93EA9310E010834D
:10213C0017E01A931081088101171FEF08F011277F
:10214C00112311F00C94DF10CF93DF9310E51A9349
:10215C000E851F851A930A931FE000E00F931F93BF
:10216C000B851C853F912F91020F131F1A930A9315
:10217C0010E000E21A930A930E949669DF91CF91C6
:10218C0010E00AE00E94306A08851985005E1F4F36
:10219C00198708870D851E85005E1F4F1E870D87CA
:1021AC00E981FA81108113951083112311F00C949D
:1021BC00A110239610E51F93088519851F93E894A9
:1021CC0040F808851985102FE6E1F0E0612FA1E0B9
:1021DC00B0E03F914F9150E00E94A069CF93DF9304
:1021EC0010E51A931EE000E01A930A9311E000E048
:1021FC001A930A930E947869DF91CF91EAE0F0E09C
:10220C00FA93EA9310E010831FEF1A931081088160
:10221C0001171FEF08F01127112311F00C94401136
:10222C001A2DE0E0FFE01F7F0027E10FF01F108167
:10223C001F931A2DE0E0FEE01F7F0027E10FF01F37
:10224C0010810F91011710E009F01FEF112311F409
:10225C000C943711FE013696A081B1811196A083A2
:10226C00B183E981FA81108113951083112311F048
:10227C000C940D1123960B811C81103009F4003045
:10228C0010E009F41FEF112311F40C9452111EE20B
:10229C000E94006A0C94551113E20E94006A3F855B
:1022AC002E851D850C8500501F4F2F4F3F4F3F87AC
:1022BC002E871D870C87E981FA8110811395108375
:1022CC00112311F00C946F102396CF93DF9318E029
:1022DC00412A00E01AE61A930A931DE50E94D76E74
:1022EC001DE00E94D76E1AE00E94D76EDF91CF914D
:1022FC0011E004EFE4E3F2E0B1E00E94177000910A
:10230C0095041091960420919704309198040093B1
:10231C0071041093720420937304309374041FEFB0
:10232C001093C60308811981103009F4003010E0B5
:10233C0009F01FEF112311F40C94E9110E9494067B
:10234C00CF93DF9318E0412A00E01AE61A930A9320
:10235C00EDEAF2EE0E94016CDF91CF91CF93DF9307
:10236C0018E0412A00E01AE61A930A930A811B81AD
:10237C00CF93DF931A930A9310E01A9310E01A93F9
:10238C0010E21A93689443F8E89445F8E89454F8EA
:10239C0055F80E945B6EDF91CF91DF91CF91CF9377
:1023AC00DF9318E0412A00E01AE61A930A93E0ED55
:1023BC00F1EE0E94016C1DE00E94D76E1AE00E94A3
:1023CC00D76EDF91CF910895219710E0188300917B
:1023DC00AC03112704FD1FEF112311F40C94FA1117
:1023EC00FE011081139510830091AC03112705FD9C
:1023FC001FEF112311F40C940B12FE011081139595
:10240C001083FE01108113951083CF93DF931881F5
:10241C001A931DE01A930E94EB05DF91CF91109156
:10242C005102103011F00C941D120C942712123022
:10243C0011F00C9423120C942712143011F00C94FC
:10244C003D12CF93DF9312ED1A9315E01A930E946D
:10245C00EB05DF91CF91CF93DF9310E01A9316E049
:10246C001A930E94EB05DF91CF910C9465121130F9
:10247C0011F00C9443120C944D12133011F00C9477
:10248C0049120C944D12153011F00C946512CF9327
:10249C00DF93109171021A9315E01A930E94EB05C9
:1024AC00DF91CF91CF93DF93109170021A9316E0C6
:1024BC001A930E94EB05DF91CF910C946512109149
:1024CC005102103011F00C946D120C9471121130E9
:1024DC0011F00C948912CF93DF9310916A021A9326
:1024EC0018E01A930E94EB05DF91CF91CF93DF9305
:1024FC0010916D021A9314E01A930E94EB05DF9170
:10250C00CF910C94CD12123011F00C948F120C94BC
:10251C009312133011F00C94AB12CF93DF931091F4
:10252C006B021A9318E01A930E94EB05DF91CF917E
:10253C00CF93DF9310916E021A9314E01A930E94BA
:10254C00EB05DF91CF910C94CD12143011F00C945B
:10255C00B1120C94B512153011F00C94CD12CF931E
:10256C00DF9310916C021A9318E01A930E94EB05FA
:10257C00DF91CF91CF93DF9310916F021A9314E0F8
:10258C001A930E94EB05DF91CF910C94CD12089514
:10259C0023970091AC03112700FD1FEF1F930091AF
:1025AC00AC03112701FD1FEF10950F9110231F9302
:1025BC00109183020F911023112311F40C94191311
:1025CC00E8E0F0E0FA93EA9310E0108317E01A9336
:1025DC001081088101171FEF08F01127112311F04A
:1025EC000C941613182DE8E4F2E01F770027E10F86
:1025FC00F01F108116951B83CF93DF931B811A93C9
:10260C00182D105F1A930E94EB05DF91CF91E98191
:10261C00FA81108113951083112311F00C94EF1291
:10262C0023960C944913E8E0F0E0FA93EA9310E057
:10263C00108317E01A931081088101171FEF08F01F
:10264C001127112311F00C944813182DE8E4F2E033
:10265C001F770027E10FF01F10811B83CF93DF93AF
:10266C001B811A93182D105F1A930E94EB05DF91B2
:10267C00CF91E981FA81108113951083112311F008
:10268C000C94221323960091AC03112700FD1FEF2D
:10269C001F931091C0031F3010E009F01FEF0F9132
:1026AC001023112311F40C94F813109183021123AD
:1026BC0011F40C946D13CF93DF9310E01A9318E17F
:1026CC001A930E94EB05DF91CF910C949513009116
:1026DC00AC03112701FD1FEF112311F40C9481138E
:1026EC0018E0E8E4F2E01F770027E10FF01F1081FB
:1026FC0018830C948B1318E0E8E4F2E01F770027A2
:10270C00E10FF01F108116951883CF93DF9318817A
:10271C001A9318E11A930E94EB05DF91CF91009167
:10272C00AC03112703FD1FEF112311F40C94AA1312
:10273C00CF93DF9311E01A931BE11A930E94EB05E0
:10274C00DF91CF910C94B413CF93DF9310E01A93D5
:10275C001BE11A930E94EB05DF91CF910091AC0322
:10276C00112701FD1FEF112311F40C94CA13CF9301
:10277C00DF93109175021A931AE11A930E94EB05DC
:10278C00DF91CF910C94D513CF93DF9310917402FA
:10279C001A931AE11A930E94EB05DF91CF910091E5
:1027AC00AC03112702FD1FEF112311F40C94EB1352
:1027BC00CF93DF93109177021A9319E11A930E9429
:1027CC00EB05DF91CF910C94F613CF93DF9310911F
:1027DC0076021A9319E11A930E94EB05DF91CF91BF
:1027EC000C94151418E0E8E4F2E01F770027E10FD1
:1027FC00F01F10811883CF93DF9318811A9318E17F
:10280C001A930E94EB05DF91CF91CF93DF9310E0E9
:10281C001A931AE11A930E94EB05DF91CF91089558
:10282C002197E8E0F0E0FA93EA9310E1108318E1C5
:10283C001A931081088101171FEF08F0112711233B
:10284C0011F00C944614182DE8E4F2E01F770027E1
:10285C00E10FF01F10811B83CF93DF931B811A9321
:10286C00182D105F1A930E94EB05DF91CF91E9812F
:10287C00FA81108113951083112311F00C942014FC
:10288C00239608952197CF93DF93109161021A93A9
:10289C0019E21A930E94EB05DF91CF91CF93DF934E
:1028AC00109162021A931AE21A930E94EB05DF91BF
:1028BC00CF91CF93DF93109163021A931BE21A937B
:1028CC000E94EB05DF91CF91109164021695E3ED18
:1028DC00FAEE1F730027E10FF01F1491188310916B
:1028EC00610210321FEF08F011271F931091630241
:1028FC0010321FEF08F011270F911023112311F440
:10290C000C948C14FE0110811A951083CF93DF93D5
:10291C0018811A931CE21A930E94EB05DF91CF9158
:10292C0010917C0217701F9310916502110F110FFB
:10293C00110F110F0F91102B1883CF93DF93188168
:10294C001A931BE01A930E94EB05DF91CF91CF9362
:10295C00DF931091B4021A931CEC1A930E94EB05AE
:10296C00DF91CF91CF93DF93109168021A931EE001
:10297C001A930E94EB05DF91CF9108952297109145
:10298C00860213701983E8E0F0E0FA93EA9310E002
:10299C00108313E01A931081088101171FEF08F0C0
:1029AC001127112311F00C940B15182D1F931C815A
:1029BC00110F110F0F91100FE8EBF2E01F700027B1
:1029CC00E10FF01F10811B83182D133010E009F458
:1029DC001FEF112311F40C94F7141B8108E010273E
:1029EC001B83CF93DF931B811A93182D1B5B1A93B8
:1029FC000E94EB05DF91CF91E981FA81108113954B
:102A0C001083112311F00C94D214239610E002E3DE
:102A1C000E94306A08952597CF93DF93109184021A
:102A2C0011701A9317E01A930E94EB05DF91CF9166
:102A3C001091720213701F9310917302110F110FEA
:102A4C00110F110F0F91102B1A83CF93DF931A8153
:102A5C001A9319E01A930E94EB05DF91CF91109114
:102A6C00850202E3011B102F1A83CF93DF931A8187
:102A7C001A931AE01A930E94EB05DF91CF911091F3
:102A8C0078021F9310917A02117025E00E94166F44
:102A9C000F91102B1F931091790226E00E94166F54
:102AAC000F91102B1A83CF93DF931A811A931CE08A
:102ABC001A930E94EB05DF91CF91CF93DF93109186
:102ACC0068021A931EE01A930E94EB05DF91CF91D6
:102ADC0008952797CF93DF931FEF1A930E942C2F03
:102AEC00DF91CF91E8E0F0E0FA93EA9310E01083E5
:102AFC001FE11A931081088101171FEF08F01127AD
:102B0C00112311F00C94AD15182DE8ECF2E01F71A7
:102B1C000027110F001FE10FF01F00811181188792
:102B2C000F83CF93DF930F8118851A930A93182D77
:102B3C0010561A930E940806DF91CF91E981FA8111
:102B4C00108113951083112311F00C948115239689
:102B5C00E8E0F0E0FA93EA9310E010831FE11A9397
:102B6C001081088101171FEF08F01127112311F0B4
:102B7C000C94DD15182DE8E8F2E01F710027E10F29
:102B8C00F01F10811987CF93DF9319851A93182D95
:102B9C0010541A930E94EB05DF91CF91E981FA81D1
:102BAC00108113951083112311F00C94B7152396F3
:102BBC00CF93DF9310E01A9317EF1A930E94EB0553
:102BCC00DF91CF91FE013496FA93EA9310E000E086
:102BDC001183008311E00FEF1A930A93A081B18146
:102BEC0028813981B31709F4A21710E011F008F00D
:102BFC001FEF112311F00C943916EFEDF2E0EF9367
:102C0C00FF9308851985000F111FFF91EF91E00FBD
:102C1C00F11F0E94826A17FF03C03FEF2FEF02C023
:102C2C00332722273F832E831D830C83CF93DF937F
:102C3C003F812E811D810C813A932A931A930A931A
:102C4C0016EF1A930E941F06DF91CF91EA81FB8148
:102C5C00A081B1811196A083B183BB2311F4AA2367
:102C6C0011F00C94F6152496CF93DF9310919102EA
:102C7C001A9319E41A930E94EB05DF91CF91CF932D
:102C8C00DF9310E01A930E942C2FDF91CF910895BF
:102C9C00239710E01883E8E0F0E0FA93EA9310E051
:102CAC00108318E01A931081088101171FEF08F0A8
:102CBC001127112311F00C94AA161E811F93182DA5
:102CCC00E9E6F3E01F700027E10FF01F10810F9170
:102CDC00102B112311F40C94A116182DE9E2F3E03A
:102CEC001F700027E10FF01F108116951D83182D02
:102CFC001F931D81E8E4F2E0AF91AF77BB27EA0F99
:102D0C00FB1F1083182D1F9310E0E9E6F3E0AF9141
:102D1C00AF70BB27EA0FFB1F10831DE0109340021E
:102D2C001FEF1B831E811095112311F40C94A11617
:102D3C001FEF10934102E981FA81108113951083E2
:102D4C00112311F00C945A1623961881112311F4A7
:102D5C000C94B616CF93DF930E94CE12DF91CF91D5
:102D6C000895229710E01883E8E0F0E0FA93EA93D4
:102D7C0010E0108318E01A931081088101171FEFDF
:102D8C0008F01127112311F00C9414171D811F93B7
:102D9C00182DE5E7F3E01F700027E10FF01F1081FD
:102DAC000F91102B112311F40C940B17182DE5E334
:102DBC00F3E01F700027E10FF01F108116951C83A4
:102DCC00182D105F1F931C81E8E4F2E0AF91AF77F0
:102DDC00BB27EA0FFB1F1083182D1F9310E0E5E7AC
:102DEC00F3E0AF91AF70BB27EA0FFB1F10831EE01F
:102DFC00109340021FEF1B831D811095112311F4BA
:102E0C000C940B171FEF10934202E981FA81108189
:102E1C0013951083112311F00C94C316239618816B
:102E2C00112311F40C942017CF93DF930E941614E6
:102E3C00DF91CF91089522971A811F9310917E03F1
:102E4C000F91102B112311F40C94421710913E0387
:102E5C0016951093610210916102169510936202FF
:102E6C0010E010937E03CF93DF930E944814DF9100
:102E7C00CF9119E1109340021A811F9310917F0397
:102E8C000F91102B112311F40C945D1710913F032B
:102E9C0016951093630210E010937F03CF93DF938A
:102EAC000E944814DF91CF911BE1109340021A81CC
:102EBC001F93109180030F91102B112311F40C947C
:102ECC0078171091400316951093640210E010933C
:102EDC008003CF93DF930E944814DF91CF911CE1C4
:102EEC001093400208951091B603112311F40C9421
:102EFC008C171091B7031093510210E01093B60386
:102F0C001AE0109340021FEF10937203CF93DF93DC
:102F1C000E94EA11DF91CF91089523971091B3038A
:102F2C001F931091B4030F91102B103010E009F483
:102F3C001FEF112311F40C94A5170C94A4180091F5
:102F4C00B303112700FD1FEF112311F40C94B717D5
:102F5C00CF93DF930E94CE12DF91CF911CE01093A0
:102F6C0040020091B303112701FD1FEF112311F44F
:102F7C000C94C917CF93DF930E94CE12DF91CF919F
:102F8C001CE0109340020091B303112702FD1FEFC8
:102F9C00112311F40C94DB17CF93DF930E94CE1204
:102FAC00DF91CF911CE0109340020091B3031127E5
:102FBC0003FD1FEF112311F40C94ED17CF93DF9346
:102FCC000E94CE12DF91CF911CE010934002009131
:102FDC00B303112704FD1FEF112311F40C940218F5
:102FEC00CF93DF930E94EA11DF91CF911FEF1093E3
:102FFC0072031BE0109340020091B303112705FDEF
:10300C001FEF112311F40C941718CF93DF930E9428
:10301C00EA11DF91CF911FEF109372031FE0109311
:10302C0040020091B403112704FD1FEF1F93009180
:10303C00B403112705FD1FEF0F91102B1F93109157
:10304C00C7030F91102B112311F40C94581810E096
:10305C00109386020091B103112704FD1FEF112379
:10306C0011F40C943E18109186021395109386025D
:10307C000091B103112705FD1FEF112311F40C94DE
:10308C004C18109186021E5F10938602CF93DF932B
:10309C000E94C414DF91CF9110E01093C70310E28B
:1030AC00109340020091B403112706FD1FEF11236A
:1030BC0011F40C947B180091B103112706FD1FEF3E
:1030CC00112311F40C946F1811E01093B4020C94AA
:1030DC00721810E01093B402CF93DF930E9448143F
:1030EC00DF91CF911DE1109340020091B4031127A1
:1030FC0007FD1FEF112311F40C949E180091B103DE
:10310C00112707FD1FEF112311F40C94921813E0F3
:10311C00109365020C94951810E010936502CF93F0
:10312C00DF930E944814DF91CF911EE1109340026F
:10313C0010E01093B30310E01093B403089521979B
:10314C00E8E0F0E0FA93EA9310E0108319E01A93A8
:10315C001081088101171FEF08F01127112311F0BE
:10316C000C94E018182DE8E0F3E01F700027E10F35
:10317C00F01F10811B83182D1F931B81E8E4F2E0D4
:10318C00AF91AF70BB27EA0FFB1F1083182D1F9355
:10319C0019E0E9E4F3E0AF91AF70BB27EA0FFB1F36
:1031AC001083E981FA81108113951083112311F09A
:1031BC000C94AF1823961091AC03107E1F931091B2
:1031CC0012030F91102B1093AC031FE11093B30358
:1031DC0008952197E8E0F0E0FA93EA9310E0108369
:1031EC0019E01A931081088101171FEF08F01127BD
:1031FC00112311F00C941F19182DE8E4F2E01F7044
:10320C000027E10FF01F10811B83182D1F931B81CA
:10321C00E8E0F3E0AF91AF70BB27EA0FFB1F108320
:10322C00E981FA81108113951083112311F00C940C
:10323C00F91823961091AC031F7110931203CF93BE
:10324C00DF9310E01A930E942C2FDF91CF910895F9
:10325C002197E8E0F0E0FA93EA9310E010831CE089
:10326C001A931081088101171FEF08F01127112301
:10327C0011F00C946919182DE8E1F3E01F70002788
:10328C00E10FF01F10811B83182D1F931B81E8E5A4
:10329C00F2E0AF91AF70BB27EA0FFB1F1083182D24
:1032AC001F9319E0E5E5F3E0AF91AF70BB27EA0F90
:1032BC00FB1F1083E981FA81108113951083112370
:1032CC0011F00C94381923961091AC031F7D1F93A9
:1032DC00109125030F91102B1093AC0310E2109357
:1032EC00B3031091B1031F731F93109126030F9119
:1032FC00102B1093B10310EC1093B4030895219785
:10330C00E8E0F0E0FA93EA9310E010831CE01A93E3
:10331C001081088101171FEF08F01127112311F0FC
:10332C000C94B519182DE8E5F2E01F700027E10F99
:10333C00F01F10811B83182D1F931B81E8E1F3E014
:10334C00AF91AF70BB27EA0FFB1F1083E981FA81A5
:10335C00108113951083112311F00C948F1923965F
:10336C001091AC031072109325031091B103107CD3
:10337C001093260308952197CF93DF931FEF1A9391
:10338C000E942C2FDF91CF91E8E0F0E0FA93EA93C2
:10339C0010E0108319E01A931081088101171FEFB8
:1033AC0008F01127112311F00C94181AE2EBF0E03D
:1033BC00EF93FF931C81012F1127A0E1B0E0E8945B
:1033CC0045F80E94456F0F931F93182D012F11275D
:1033DC003F912F91020F131FFF91EF91E00FF11FFF
:1033EC000E94796A1B83182D1F931B81E8E4F2E07D
:1033FC00AF91AF70BB27EA0FFB1F1083182D1F93E3
:10340C0019E0E9E4F3E0AF91AF70BB27EA0FFB1FC3
:10341C001083E981FA81108113951083112311F027
:10342C000C94D31923961091AC03107E1F93E2EBEE
:10343C00F0E0EF93FF931981012F1127A0E1B0E089
:10344C00E89445F80E94456F065F1F4FFF91EF917E
:10345C00E00FF11F0E94796A0F91102B1093AC03AF
:10346C001FE11093B30310E00AE00E94306ACF937F
:10347C00DF9310E01A930E942C2FDF91CF910895C7
:10348C002197CF93DF931FEF1A930E942C2FDF917C
:10349C00CF9119811F701983E8E0F0E0FA93EA9359
:1034AC0010E0108319E01A931081088101171FEFA7
:1034BC0008F01127112311F00C94971A182DE8E439
:1034CC00F2E01F700027E10FF01F10811B83E2EB6D
:1034DC00F0E0EF93FF931C81012F1127A0E1B0E0E6
:1034EC00E89445F80E94456F0F931F93182D012FF8
:1034FC0011273F912F91020F131FFF91EF91E00FB6
:10350C00F11FEF93FF931B81FF91EF910E94576A7C
:10351C00E981FA81108113951083112311F00C9419
:10352C005B1A2396E2EBF0E0EF93FF931981012FE6
:10353C001127A0E1B0E0E89445F80E94456F065FC2
:10354C001F4FFF91EF91E00FF11FEF93FF9310913D
:10355C00AC031F71FF91EF910E94576ACF93DF93D9
:10356C0010E01A930E942C2FDF91CF910895219790
:10357C00CF93DF931FEF1A930E942C2FDF91CF91E3
:10358C00E8E0F0E0FA93EA9310E010831CE01A9361
:10359C001081088101171FEF08F01127112311F07A
:1035AC000C94141BE2EBF1E0EF93FF931C81012FC1
:1035BC001127A0E1B0E0E89445F80E94456F0F9305
:1035CC001F93182D012F11273F912F91020F131FBD
:1035DC00FF91EF91E00FF11F0E94796A1B83182D68
:1035EC001F931B81E8E5F2E0AF91AF70BB27EA0FA8
:1035FC00FB1F1083182D1F9319E0E5E5F3E0AF9145
:10360C00AF70BB27EA0FFB1F1083E981FA81108191
:10361C0013951083112311F00C94CF1A239610914B
:10362C00AC031F7D1F93E2EBF1E0EF93FF93198145
:10363C00012F1127A0E1B0E0E89445F80E94456FF6
:10364C00035F1F4FFF91EF91E00FF11F0E94796A0A
:10365C000F91102B1093AC0310E21093B303109145
:10366C00B1031F731F93E2EBF1E0EF93FF9319810A
:10367C00012F1127A0E1B0E0E89445F80E94456FB6
:10368C00025F1F4FFF91EF91E00FF11F0E94796ACB
:10369C000F91102B1093B10310EC1093B40310E0A6
:1036AC000AE00E94306ACF93DF9310E01A930E94D5
:1036BC002C2FDF91CF9108952197CF93DF931FEF9C
:1036CC001A930E942C2FDF91CF9119811F701983AF
:1036DC00E8E0F0E0FA93EA9310E010831CE01A9310
:1036EC001081088101171FEF08F01127112311F029
:1036FC000C94B31B182DE8E5F2E01F700027E10FC6
:10370C00F01F10811B83E2EBF1E0EF93FF931C8120
:10371C00012F1127A0E1B0E0E89445F80E94456F15
:10372C000F931F93182D012F11273F912F91020FEB
:10373C00131FFF91EF91E00FF11FEF93FF931B818C
:10374C00FF91EF910E94576AE981FA8110811395DC
:10375C001083112311F00C94771B2396E2EBF1E00C
:10376C00EF93FF931981012F1127A0E1B0E0E894AA
:10377C0045F80E94456F035F1F4FFF91EF91E00FDB
:10378C00F11FEF93FF931091AC031072FF91EF9127
:10379C000E94576AE2EBF1E0EF93FF931981012F3E
:1037AC001127A0E1B0E0E89445F80E94456F025F54
:1037BC001F4FFF91EF91E00FF11FEF93FF931091CB
:1037CC00B103107CFF91EF910E94576ACF93DF9366
:1037DC0010E01A930E942C2FDF91CF910895E8E00E
:1037EC00F0E0FA93EA9310E010831FE11A93108132
:1037FC00088101171FEF08F01127112311F00C9409
:10380C00271C182D1F93E2E1F0E0EF93FF93182D86
:10381C00012F1127FF91EF91E00FF11F0E94796AA0
:10382C00E8E6F2E0AF91AF71BB27EA0FFB1F108304
:10383C00E981FA81108113951083112311F00C94F6
:10384C00FE1B2396109186021170113010E009F4C2
:10385C001FEF112311F40C94381C1091B10310615B
:10386C001093B103109186021270123010E009F41B
:10387C001FEF112311F40C94481C1091B10310622A
:10388C001093B103109175021093E303109174021D
:10389C001093E4030895E8E0F0E0FA93EA9310E063
:1038AC0010831FE01A931081088101171FEF08F095
:1038BC001127112311F00C949A1C182D1F93E2E57B
:1038CC00F0E0EF93FF93182D012F1127FF91EF914B
:1038DC00E00FF11F0E94796AE8EAF2E0AF91AF7055
:1038EC00BB27EA0FFB1F1083182D1F93E2EAF0E0B1
:1038FC00EF93FF93182D012F1127FF91EF91E00FFC
:10390C00F11F0E94796AE8EBF2E0AF91AF70BB2730
:10391C00EA0FFB1F1083E981FA8110811395108344
:10392C00112311F00C945A1C2396E8E0F0E0FA9362
:10393C00EA9310E010831FE11A931081088101179C
:10394C001FEF08F01127112311F00C94E91C182D0E
:10395C001F93E2E6F0E0EF93FF93182D012F112750
:10396C00000F111FFF91EF91E00FF11F0E94826A6F
:10397C00E8ECF2E0AF91AF71BB27AA0FBB1FEA0FC7
:10398C00FB1F11830083182D1F93E2E3F0E0EF93EC
:10399C00FF93182D012F1127FF91EF91E00FF11FCD
:1039AC000E94796AE8E8F2E0AF91AF71BB27EA0FA9
:1039BC00FB1F1083E981FA81108113951083112369
:1039CC0011F00C94A41C23961091B3021093930243
:1039DC0008952A971091DE031F93109174030F9191
:1039EC00102B1F93109172030F91102B1095112314
:1039FC0011F40C94031D0C94021E10917E021030D5
:103A0C0010E009F41FEF112311F40C94141D109104
:103A1C007F0216951093D2030C941F1D1091740302
:103A2C00112311F40C941F1D10913403169510934F
:103A3C00D2031091DE03112311F40C94291D109163
:103A4C00D3031093D20310E01093720310E0109381
:103A5C00740310E01093DE031091D20316951F83AC
:103A6C001F8116951E8310918002103010E009F40E
:103A7C001FEF112311F40C94481D1091810218832F
:103A8C000C944C1D109132031695188310918202E0
:103A9C00169516951C5F1F93CF93DF931091D2034D
:103AAC001A93109182021A9314EB1A930E94226AB1
:103ABC00DF91CF910F91100F1A831A811F931091E0
:103ACC00D2030F91100F19831091D2031F931A81F7
:103ADC00169516950F91100F18871E811E5F1D836A
:103AEC000091AC03112704FD1FEF1F930091AC0351
:103AFC00112705FD1FEF0F91102B112311F40C94BE
:103B0C00BA1D109151021170113010E009F41FEF21
:103B1C00112311F40C94AA1DCF93DF931091D203AF
:103B2C001A9319811A9310E51A930E94226ADF9155
:103B3C00CF91165F19871D811F931E8116950F91CA
:103B4C00100F1D830C94B81DCF93DF931F811A9314
:103B5C0019811A9318E71A930E94226ADF91CF9168
:103B6C00165F19870C94C81DCF93DF931F811A938E
:103B7C0019811A9316E91A930E94226ADF91CF9148
:103B8C001A5F19871091D203105F1F931F810F9139
:103B9C00100F1C83CF93DF931D811A9310E41A939B
:103BAC000E94EB05DF91CF91CF93DF9319811A938C
:103BBC0011E41A930E94EB05DF91CF91CF93DF9321
:103BCC0018851A9312E41A930E94EB05DF91CF919A
:103BDC00CF93DF9319851A9313E41A930E94EB0584
:103BEC00DF91CF91CF93DF931C811A9314E41A9336
:103BFC000E94EB05DF91CF91089521971091B202AD
:103C0C00103010E009F01FEF112311F40C94251E55
:103C1C0010917303112311F40C94231ECF93DF9393
:103C2C00109133031A9310EA1A931FEF1A930E9400
:103C3C00226ADF91CF91109393020C942C1E109159
:103C4C00B302109393021FEF109373031091BD03F3
:103C5C00112311F40C943C1E1091AC021093D00360
:103C6C001091AD021093D1030C94441E1091AA0232
:103C7C001093D0031091AB021093D1031091BE039B
:103C8C001095112311F40C94511E10E01093D003D5
:103C9C0010E01093D1031FEF00913702002309F0BD
:103CAC001095112311F40C948C1E1091CE031F93BC
:103CBC001091D0030F91011710E009F01FEF1123A1
:103CCC0011F40C948C1E1091D0031F931091CE0301
:103CDC000F91011710E011F008F01FEF112311F4F0
:103CEC000C94831E1091CE0313951093CE03109158
:103CFC00AE02109337020C948C1E1091CE031A95C1
:103D0C001093CE031091B002109337021FEF009165
:103D1C003802002309F01095112311F40C94C71EDE
:103D2C001091CF031F931091D1030F91011710E045
:103D3C0009F01FEF112311F40C94C71E1091D1033D
:103D4C001F931091CF030F91011710E011F008F0A1
:103D5C001FEF112311F40C94BE1E1091CF03139579
:103D6C001093CF031091AF02109338020C94C71E1E
:103D7C001091CF031A951093CF031091B1021093A9
:103D8C0038020091CC031091CD030F931F93109127
:103D9C00CE03012F11273F912F91020F131F009378
:103DAC00CC031093CD031091CE0310938802109185
:103DBC00CF0310939802CF93DF93109193021A9331
:103DCC001BEC1A930E94EB05DF91CF91CF93DF93FD
:103DDC00109188021A9310EC1A930E94EB05DF9154
:103DEC00CF91CF93DF93109198021A9310ED1A9301
:103DFC000E94EB05DF91CF911091BD031F931091A1
:103E0C00BE030F911023E894112309F068941091CC
:103E1C00B90311F91093B9031091BD0310951F93B9
:103E2C001091BE030F911023E894112309F06894AC
:103E3C001091B90310F91093B9031091B9031093B1
:103E4C00BA03CF93DF9311E21A9313E01A9313E0A2
:103E5C000AEB1A930A9310E001E01A930A930E945A
:103E6C008C69DF91CF9110E010937303089525971F
:103E7C00CF93DF930E941115DF91CF91CF93DF93F6
:103E8C000E946F15DF91CF91CF93DF930E94CE12DA
:103E9C00DF91CF91CF93DF930E941614DF91CF91D6
:103EAC00CF93DF930E944814DF91CF91CF93DF9390
:103EBC000E94EA11DF91CF91CF93DF930E94C4143B
:103ECC00DF91CF91CF93DF930E94EF1CDF91CF91C5
:103EDC00CF93DF930E94031EDF91CF9108950E9430
:103EEC009406CF93DF9318E0412A00E01AE61A9368
:103EFC000A93E7ECF2EE0E94016CDF91CF910E94E5
:103F0C008D0610918C04112311F40C94BE1F01E04A
:103F1C0010E020E030E000937104109372042093C1
:103F2C00730430937404E3E4F4E0EF93FF9331965D
:103F3C00FA93EA931FE11A9317EF41221FEB4122E8
:103F4C00E4EDF2EE0E94016C1FE11F9318810F91BA
:103F5C00011B102FFF91EF91108323960E944708AD
:103F6C00CF93DF9312E61A930E949200DF91CF91C8
:103F7C0010918A04112311F40C94F51F02E010E047
:103F8C0020E030E0009371041093720420937304CA
:103F9C0030937404E3E4F4E0EF93FF933196FA93D7
:103FAC00EA931FE11A9317EF41221FEB4122E4EE33
:103FBC00F2EE0E94016C1FE11F9318810F91011BFF
:103FCC00102FFF91EF91108323960E944708CF93F7
:103FDC00DF9310E61A930E949200DF91CF9110911B
:103FEC008B04112311F40C942C2003E010E020E03E
:103FFC0030E0009371041093720420937304309397
:10400C007404E3E4F4E0EF93FF933196FA93EA93AC
:10401C001FE11A9317EF41221FEB4122E8EFF2EE5A
:10402C000E94016C1FE11F9318810F91011B102F2F
:10403C00FF91EF91108323960E944708CF93DF9353
:10404C0011E61A930E949200DF91CF9100E010E0EC
:10405C0020E030E00093E5031093E6032093E703A0
:10406C003093E80310918F04112311F40C94672002
:10407C0004E010E020E030E000937104109372042F
:10408C002093730430937404E3E4F4E0EF93FF9310
:10409C003196FA93EA931FE11A9317EF41221FEB23
:1040AC004122ECE0F3EE0E94016C1FE11F9318819A
:1040BC000F91011B102FFF91EF91108323960E94FB
:1040CC00470810918E04112311F40C949C2010E8D5
:1040DC00109548E333E00E94E56805E010E020E02D
:1040EC0030E00093710410937204209373043093A6
:1040FC007404E3E4F4E0EF93FF933196FA93EA93BC
:10410C001FE11A9317EF41221FEB4122EDE1F3EE71
:10411C000E94016C1FE11F9318810F91011B102F3E
:10412C00FF91EF91108323960E9447081091890408
:10413C00112311F40C94CB2006E010E020E030E0C9
:10414C0000937104109372042093730430937404DD
:10415C00E3E4F4E0EF93FF933196FA93EA931FE1D3
:10416C001A9317EF41221FEB4122E0E3F3EE0E947A
:10417C00016C1FE11F9318810F91011B102FFF91F0
:10418C00EF91108323960E94470810918804112305
:10419C0011F40C94FA2007E010E020E030E00093DA
:1041AC007104109372042093730430937404E3E449
:1041BC00F4E0EF93FF933196FA93EA931FE11A938D
:1041CC0017EF41221FEB4122EBE3F3EE0E94016C4F
:1041DC001FE11F9318810F91011B102FFF91EF917D
:1041EC00108323960E944708089510E004E60E946D
:1041FC00306ACF93DF9310E01A9318E41A930E945D
:10420C00EB05DF91CF9110E004E60E94306ACF936A
:10421C00DF931FEF1A930E942C2FDF91CF91CF9336
:10422C00DF930E94C414DF91CF91CF93DF9310E002
:10423C001A930E942C2FDF91CF910895CF93DF9387
:10424C0010E01A9310E01A9310E01A930E949D68E4
:10425C00DF91CF91CF93DF9318E0412A07E718E65F
:10426C001A930A93E3EDF5EEEF93FF931A81012F66
:10427C001127AEE0B0E0E89445F80E94456FFF913D
:10428C00EF91E00FF11F0E94016CDF91CF9110E2D2
:10429C000E94776810E20E947768CF93DF9310E05A
:1042AC001A9310E01A9311E01A930E949D68DF9103
:1042BC00CF910895CF93DF9310E01A9310E01A93E7
:1042CC0011E01A930E949D68DF91CF91CF93DF93F9
:1042DC0018E0412A07E718E61A930A93EBE8F9EE7F
:1042EC00EF93FF931A81012F1127ADE0B0E0E89412
:1042FC0045F80E94456FFF91EF91E00FF11F0E946E
:10430C00016CDF91CF9116E00E94776810E00E945B
:10431C00BE6808951881112311F40C94A521CF9334
:10432C00DF9318E0412A07E718E61A930A93E8E4AA
:10433C00F3EE0E94016CDF91CF910C94B321CF93DB
:10434C00DF9318E0412A07E718E61A930A93ECE486
:10435C00F3EE0E94016CDF91CF910895E8E0F0E05C
:10436C00FA93EA9310E0108315E01A9310810881F8
:10437C0001171FEF08F01127112311F00C94DB210A
:10438C005A9A5B9810E004E60E94306A5A985B9A3D
:10439C0010E004E60E94306AE981FA8110811395DD
:1043AC001083112311F00C94BD2123965A9A5B9A19
:1043BC00089510918904112311F40C94C72210E074
:1043CC000E94B568EAEFF3E0EF93FF933196FA930E
:1043DC00EA9318E21A9317EF41221FEB41221C813A
:1043EC00CF93DF931A9312E01A9300E00A9310E232
:1043FC001A930E94226CDF91CF9118E21F931881BF
:10440C000F91011B102FFF91EF9110832396CF93E7
:10441C00DF9318E0412A07E718E61A930A93E0E5C0
:10442C00F3EE0E94016CDF91CF9119811F931881DB
:10443C000F91011710E009F01FEF112311F40C94E8
:10444C003822CF93DF9318E0412A07E718E61A9336
:10445C000A93EAEFF3E00E940A6CDF91CF9110E22D
:10446C000E947768CF93DF9318E0412A07E718E69C
:10447C001A930A93E7E5F3EE0E94016CDF91CF915A
:10448C00CF93DF9310E01A9310E01A9311E01A9374
:10449C000E949D68DF91CF91CF93DF9318E0412A62
:1044AC0007E718E61A930A93EAE5F3EE0E94016C0B
:1044BC00DF91CF91EAEFF3E0EF93FF933196FA930C
:1044CC00EA9318E21A9317EF41221FEB41221B814A
:1044DC00CF93DF931A9312E01A9300E00A9310E241
:1044EC001A930E94226CDF91CF9118E21F931881CE
:1044FC000F91011B102FFF91EF9110832396CF93F7
:10450C00DF9310E01A9316E01A9311E01A930E94AD
:10451C009D68DF91CF91CF93DF9318E0412A07E795
:10452C0018E61A930A93EAEFF3E00E940A6CDF9103
:10453C00CF9110912803103010E009F41FEF1123D4
:10454C0011F40C94B922CF93DF9318E0412A07E7BA
:10455C0018E61A930A93E1E6F3EE0E94016CDF91E0
:10456C00CF910C94C722CF93DF9318E0412A07E731
:10457C0018E61A930A93E8E6F3EE0E94016CDF91B9
:10458C00CF910E94B421089510918904112311F444
:10459C000C94FB2210E00E94B568CF93DF9318E0D7
:1045AC00412A07E718E61A930A93EFE6F3EE0E9406
:1045BC00016CDF91CF91CF93DF9310E01A9310E051
:1045CC001A9311E01A930E949D68DF91CF91CF93BB
:1045DC00DF9318E0412A07E718E61A930A93E1E8FB
:1045EC00F3EE0E94016CDF91CF9108951091890434
:1045FC001095112311F40C9405230C945923CF938B
:10460C00DF9310E01A930E942421DF91CF9118813F
:10461C00112311F40C944523CF93DF9318E0412A16
:10462C0007E718E61A930A93E0E9F3EE0E94016C8F
:10463C00DF91CF911981112311F40C943523CF9371
:10464C00DF9318E0412A07E718E61A930A93E5E985
:10465C00F3EE0E94016CDF91CF910C944323CF9326
:10466C00DF9318E0412A07E718E61A930A93EAE960
:10467C00F3EE0E94016CDF91CF910C945323CF93F6
:10468C00DF9318E0412A07E718E61A930A93EFE93B
:10469C00F3EE0E94016CDF91CF9110E00E94BE6896
:1046AC0015E010933D020895CF93DF9318811A9370
:1046BC000E949021DF91CF9116E00E94776810E064
:1046CC000E94BE680895CF93DF9318E0412A07E754
:1046DC0018E61A930A931A81CF93DF931A9313E077
:1046EC001A9300E00A9310E21A93689443F80E941C
:1046FC00226CDF91CF91DF91CF9116E00E94776809
:10470C0010E00E94BE680895CF93DF9318E0412A11
:10471C0007E718E61A930A930A811B81CF93DF935C
:10472C001A930A9313E01A9300E00A9310E21A9377
:10473C00689443F8689445F8E89454F855F80E9446
:10474C005B6EDF91CF91DF91CF9116E00E9477687D
:10475C0010E00E94BE680895CF93DF930091AC03E4
:10476C00112700FD1FEF1A930E949021DF91CF912A
:10477C000091AC03112700FD1FEF1095112311F4CC
:10478C000C94CD2310E00E94BE680C94452410E2DA
:10479C000E9477680091AC03112701FD1FEF1123D4
:1047AC0011F40C94E923CF93DF9318E0412A07E727
:1047BC0018E61A930A93E4EAF3EE0E94016CDF9177
:1047CC00CF910C94F723CF93DF9318E0412A07E79E
:1047DC0018E61A930A93E9EAF3EE0E94016CDF9152
:1047EC00CF910091AC03112702FD1FEF112311F49F
:1047FC000C941024CF93DF9318E0412A07E718E6B6
:10480C001A930A93EEEAF3EE0E94016CDF91CF91BA
:10481C000C941E24CF93DF9318E0412A07E718E687
:10482C001A930A93E3EBF3EE0E94016CDF91CF91A4
:10483C000091AC03112703FD1FEF112311F40C940D
:10484C003724CF93DF9318E0412A07E718E61A9331
:10485C000A93E8EBF3EE0E94016CDF91CF910C947C
:10486C004524CF93DF9318E0412A07E718E61A9303
:10487C000A93ECEBF3EE0E94016CDF91CF9108955B
:10488C002197CF93DF930091AC03112704FD1FEF09
:10489C001A930E949021DF91CF9110E20E947768C9
:1048AC00CF93DF930091AC03112705FD1FEF1A93F3
:1048BC000E949021DF91CF9110E20E9477681091B5
:1048CC0051021170113010E009F41FEF112311F493
:1048DC000C94752413E40E9477680C94782416E5E4
:1048EC000E9477681091510216951F5C18831881ED
:1048FC000E94776810E00E94BE6808952197198184
:10490C001170113010E009F41FEF112311F40C9405
:10491C00DA24198116951983E8E0F0E0FA93EA930A
:10492C0010E01083EF93FF931B81FF91EF911A938B
:10493C001081088101171FEF08F01127112311F0C6
:10494C000C94B42410E00E947768E981FA811081FC
:10495C0013951083112311F00C949F242396E8E0F7
:10496C00F0E0FA93EA93EF93FF931B81FF91EF91A1
:10497C00108316E01A931081088101171FEF08F0BD
:10498C001127112311F00C94D72417E00E9477689B
:10499C00E981FA81108113951083112311F00C9485
:1049AC00C22423960C942625198116951983E8E0C8
:1049BC00F0E0FA93EA9311E01083EF93FF931B81DD
:1049CC00FF91EF911A931081088101171FEF08F0E6
:1049DC001127112311F00C94FF2410E00E9477682A
:1049EC00E981FA81108113951083112311F00C9435
:1049FC00EA24239611E00E947768E8E0F0E0FA934D
:104A0C00EA93EF93FF931B81FF91EF91108316E0D4
:104A1C001A931081088101171FEF08F01127112339
:104A2C0011F00C94252517E00E947768E981FA8132
:104A3C00108113951083112311F00C9410252396DB
:104A4C0012E00E94776816E00E94776810E00E94DE
:104A5C00BE68CF93DF9310E01A931AE01A9311E01B
:104A6C001A930E949D68DF91CF9108952297CF935E
:104A7C00DF9310E01A9310E01A9310E01A930E943F
:104A8C009D68DF91CF911091C003193010E011F0A7
:104A9C0008F01FEF112311F40C94602511E30E9410
:104AAC0077681091C0031A5D198319810E94776889
:104ABC000C946A251091C003105D198319810E9412
:104ACC00776810E20E9477681091C003103010E0F4
:104ADC0009F41FEF1F931091C0031F3010E009F46D
:104AEC001FEF0F91102B112311F40C948D25CF93E4
:104AFC00DF9318E0412A07E718E61A930A93E0ECD3
:104B0C00F3EE0E94016CDF91CF910C949B25CF9317
:104B1C00DF9318E0412A07E718E61A930A93E4ECAE
:104B2C00F3EE0E94016CDF91CF91109128031030AD
:104B3C0010E009F41FEF112311F40C94AA2516E0D0
:104B4C000E9477680C94AD2510E20E947768E8E02B
:104B5C00F0E0FA93EA9310E0108318E01A931081B6
:104B6C00088101171FEF08F01127112311F00C9485
:104B7C00E525182DE8E4F2E01F770027E10FF01F80
:104B8C001081195F1B83CF93DF931B811A9310E164
:104B9C001A9310EF1A930E94226ADF91CF911B8314
:104BAC001B81105D1C831C810E947768E981FA814E
:104BBC00108113951083112311F00C94B6252396B4
:104BCC00CF93DF9310E01A9310E01A9311E01A932D
:104BDC000E949D68DF91CF911091C103193010E0B4
:104BEC0011F008F01FEF112311F40C94092611E3B6
:104BFC000E9477681091C1031A5D198319810E9474
:104C0C0077680C9413261091C103105D19831981D8
:104C1C000E94776810E20E9477681091C1031030EF
:104C2C0010E009F41FEF1F931091C1031F3010E027
:104C3C0009F41FEF0F91102B112311F40C9436264D
:104C4C00CF93DF9318E0412A07E718E61A930A93EB
:104C5C00E8ECF3EE0E94016CDF91CF910C944426AA
:104C6C00CF93DF9318E0412A07E718E61A930A93CB
:104C7C00ECECF3EE0E94016CDF91CF9110912803C4
:104C8C00103010E009F41FEF112311F40C9453268B
:104C9C0010E20E9477680C94562616E00E94776802
:104CAC00E8E0F0E0FA93EA9310E1108318E11A932C
:104CBC001081088101171FEF08F01127112311F043
:104CCC000C948E26182DE8E4F2E01F770027E10FF4
:104CDC00F01F1081195F1B83CF93DF931B811A93F5
:104CEC0010E11A9310EF1A930E94226ADF91CF9170
:104CFC001B831B81105D1C831C810E947768E981DA
:104D0C00FA81108113951083112311F00C945F26F6
:104D1C002396089526971985143610E008F01FEF96
:104D2C00112311F40C94A02610E00AE01D830C83CF
:104D3C000C94C2261985123310E008F01FEF1123D2
:104D4C0011F40C94AF2610E005E01D830C830C9439
:104D5C00C2261985143110E008F01FEF112311F44D
:104D6C000C94BE2610E002E01D830C830C94C2262A
:104D7C0010E001E01D830C83FE01EF93FF931E8175
:104D8C00FF91EF9111931E811F3710E011F008F085
:104D9C001FEF112311F40C94D926FE0131961FEF4D
:104DAC0011930C94DD26FE01319610E011930881CD
:104DBC0019810F931F930C811D81689445F8BF9145
:104DCC00AF910E94456F198308831985012F112714
:104DDC000F931F93088119813F912F91020F131F7D
:104DEC001B830A830A811B810F931F930C811D81E6
:104DFC00689445F8BF91AF910E94666F0F931F9313
:104E0C000C811D81689445F8BF91AF910E94456F4C
:104E1C001B830A830A811B811A930A931A85012F1B
:104E2C0011271A930A931B85012F11271A930A93A2
:104E3C000E944D702696102F0895CF93DF9310E0AB
:104E4C001A931FE01A9310E01A930E949D68DF9149
:104E5C00CF911A811F9318810F9101171FEF08F042
:104E6C001127112311F40C94402713E00E9477684A
:104E7C000C94432710E20E947768CF93DF9310E0E5
:104E8C001A931FE01A9311E01A930E949D68DF9108
:104E9C00CF911A811F9319810F91011710E011F016
:104EAC0008F01FEF112311F40C94612714E00E94F9
:104EBC0077680C94642710E20E9477680895229713
:104ECC0010E00E94CF68176C109339020A811B8185
:104EDC00103009F4003010E011F008F01FEF11232E
:104EEC0011F40C947D270A811B810E94306A109169
:104EFC0039021F3F10E009F41FEF112311F40C9439
:104F0C008C2710E00C948F270C948F271FEF0C9498
:104F1C008F270895229710913C02198319811883C9
:104F2C0019811F9310913B020F91011B102F1983B4
:104F3C00188110933B021981089524971C8110301D
:104F4C0010E009F01FEF18831881112311F40C9451
:104F5C00B7271D811E3110E011F008F01FEF1093E0
:104F6C00C6031D811A3011F00C940028CF93DF93E7
:104F7C00109151021A9310E01A9315E01A931F81A5
:104F8C001A930E949026DF91CF9110935102CF93E8
:104F9C00DF930E944624DF91CF91CF93DF9310E0F3
:104FAC001A931FE01A9310E01A930E949D68DF91E8
:104FBC00CF9110E20E947768CF93DF9310E01A93A1
:104FCC001AE01A9311E01A930E949D68DF91CF9119
:104FDC0016E00E947768CF93DF93109151021A93D9
:104FEC0010E01A9315E01A930E942327DF91CF91BA
:104FFC000C9482291B3011F00C943B28188111233E
:10500C0011F40C9418280091AC03112704FD1FEF28
:10501C001095E894112309F068941091AC0314F9DD
:10502C001093AC03CF93DF930E944624DF91CF9172
:10503C00CF93DF9310E01A9313E01A9311E01A93B5
:10504C000E949D68DF91CF9116E00E947768CF9304
:10505C00DF9311E01A9310E01A9312E01A930E9456
:10506C002327DF91CF910C9482291C3011F00C94E2
:10507C00A5281091AC031F701B831B81012F11E01D
:10508C000695111FE8F716951695169516951B8320
:10509C00CF93DF931B811A9317E01A931FE01A9397
:1050AC001F811A930E949026DF91CF911B831B8145
:1050BC001A831B81012F11E00695111FE8F7169535
:1050CC001695169516951B831881112311F40C94C3
:1050DC0078281091AC03107F1F931B810F91102B1C
:1050EC001093AC030E94B223CF93DF931A811A93CF
:1050FC0017E01A931FE01A930E942327DF91CF9198
:10510C00CF93DF9310E01A9313E01A9311E01A93E4
:10511C000E949D68DF91CF910091AC03112700FD97
:10512C001FEF112311F40C94A02815E00E9477684E
:10513C000C94A32816E00E9477680C9482291F30E7
:10514C0011F00C94E0281881112311F40C94BD2853
:10515C000091AC03112705FD1FEF1095E894112366
:10516C0009F068941091AC0315F91093AC03CF932C
:10517C00DF930E944624DF91CF91CF93DF9310E011
:10518C001A9317E01A9311E01A930E949D68DF910D
:10519C00CF9116E00E947768CF93DF9311E01A93BA
:1051AC0010E01A9312E01A930E942327DF91CF91FB
:1051BC000C9482291D3111F00C94122918811123A1
:1051CC0011F40C94F8280091B103112706FD1FEF80
:1051DC001095E894112309F068941091B10316F915
:1051EC001093B103CF93DF930091B103112706FD08
:1051FC001FEF1A930E945A23DF91CF91CF93DF9325
:10520C0011E01A9310E01A9312E01A930E942327CC
:10521C00DF91CF910C9482291E3111F00C9444290A
:10522C001881112311F40C942A290091B103112730
:10523C0007FD1FEF1095E894112309F06894109165
:10524C00B10317F91093B103CF93DF930091B1031E
:10525C00112707FD1FEF1A930E945A23DF91CF915C
:10526C00CF93DF9311E01A9310E01A9312E01A9384
:10527C000E942327DF91CF910C948229103211F0D8
:10528C000C9482291091B1031073169516951695EE
:10529C0016951B83CF93DF931B811A9310E01A93FF
:1052AC0013E01A931F811A930E949026DF91CF91DD
:1052BC001B83CF93DF931B811A930E946923DF9189
:1052CC00CF911091B1031F7C1F931B81110F110FF4
:1052DC00110F110F0F91102B1093B103CF93DF937C
:1052EC001B811A9310E01A9313E01A930E94232740
:1052FC00DF91CF910C9482290895279710918904FE
:10530C0010951F931885103010E009F41FEF0F91C2
:10531C00102B112311F40C9495290C94E12B1F8163
:10532C00103010E009F01FEF1883EBE4F5EEEF936B
:10533C00FF931885012F1127FF91EF91E00FF11FBB
:10534C0014911B83EFE8F5EEEF93FF931885012F73
:10535C001127FF91EF91E00FF11F14911C83188519
:10536C001D3010E009F41FEF112311F40C94E62901
:10537C00CF93DF931091C0031A9310E01A931FE0A0
:10538C001A931A851A930E949026DF91CF9110934D
:10539C00C003CF93DF930E943C25DF91CF91CF9335
:1053AC00DF931091C0031A9310E01A931FE01A9325
:1053BC000E942327DF91CF910C94E12B0C94152A9A
:1053CC0018851E3010E009F41FEF112311F40C9412
:1053DC00152ACF93DF931091C1031A9310E01A93FF
:1053EC001FE01A931A851A930E949026DF91CF9191
:1053FC001093C103CF93DF930E943C25DF91CF9193
:10540C00CF93DF931091C1031A9310E01A931FE00E
:10541C001A930E942327DF91CF910C94E12BCF9309
:10542C00DF9318851A930E942421DF91CF911B8161
:10543C001F3F10E009F41FEF112311F40C94322AD2
:10544C00CF93DF9318851A9318851A930E94A3277C
:10545C00DF91CF910C94702B1B81103810E008F069
:10546C001FEF112311F40C94822A1B811F771B83CD
:10547C001B81E8E4F2E01F770027E10FF01F108199
:10548C001695169516951E83CF93DF931E811A934E
:10549C0010E01A931FE01A931A851A930E94902613
:1054AC00DF91CF911E83CF93DF931E811A930E94BD
:1054BC008424DF91CF91CF93DF931E811A9310E058
:1054CC001A931FE01A930E942327DF91CF91188122
:1054DC00112311F40C94802A1B811F931E81110F30
:1054EC00110F110FE8E4F2E0AF91AF77BB27EA0F91
:1054FC00FB1F10830C94702B1C81113010E009F4ED
:10550C001FEF112311F40C94C32A1B81E8E4F2E081
:10551C001F770027E10FF01F1081112309F01FEFF7
:10552C0019831FEF1093C6031881112311F40C94E7
:10553C00A22A198110951983CF93DF9319811A939D
:10554C000E945A23DF91CF91CF93DF9311E01A93EE
:10555C0010E01A9312E01A930E942327DF91CF9147
:10556C001B811F931981E8E4F2E0AF91AF77BB2761
:10557C00EA0FFB1F10830C94702B1B81E8E4F2E004
:10558C001F770027E10FF01F10811E83188515323D
:10559C0010E009F41FEF112311F40C94D82A1E818A
:1055AC001A5F1E83CF93DF931E811A9310E01A9318
:1055BC001E811A931A851A930E949026DF91CF911F
:1055CC001E831B811F931E81E8E4F2E0AF91AF773D
:1055DC00BB27EA0FFB1F10831885113211F00C94B6
:1055EC00042BCF93DF931E811F5F1A930E946923B4
:1055FC00DF91CF911FEF812E0C944F2B123211F0B3
:10560C000C940C2B14E1812E0C944F2B133211F0B3
:10561C000C94142B10E0812E0C944F2B143211F09F
:10562C000C941C2B15E0812E0C944F2B153211F081
:10563C000C94352B1E81165010936802CF93DF9378
:10564C001E81012F1127065010401A930A930E94B5
:10565C008A23DF91CF911FEF812E0C944F2B1333A4
:10566C0011F00C943D2B10E1812E0C944F2B1E331A
:10567C0011F00C94452B18E0812E0C944F2BCF93EA
:10568C00DF931E811A930E946923DF91CF911FEF44
:10569C00812E182D1F3F10E009F01FEF112311F47C
:1056AC000C94642BCF93DF93182D1F931E810F91B5
:1056BC00100F1A930E946021DF91CF91CF93DF934B
:1056CC001E811A9310E01A931E811A930E942327AD
:1056DC00DF91CF91CF93DF9310E01A931DE01A93D3
:1056EC0010E01A930E949D68DF91CF9118851F31AD
:1056FC0010E008F01FEF112311F40C948A2B14E422
:10570C000E9477680C94A52B18851E3010E011F0C0
:10571C0008F01FEF112311F40C94992B1CE40E9438
:10572C0077680C94A52B18851D301FEF08F01127F6
:10573C00112311F40C94A52B15E50E9477681881A0
:10574C00112311F40C94E12B109193021093B302DA
:10575C001FEF10937203CF93DF930E94CE12DF9151
:10576C00CF91CF93DF930E941614DF91CF91CF93FB
:10577C00DF930E944814DF91CF91CF93DF930E9467
:10578C00EA11DF91CF911B81103210E008F01FEF6E
:10579C00112311F40C94D52B1FEF1093C6031B810E
:1057AC00103410E008F01FEF112311F40C94E12BCE
:1057BC001FEF1093CB030895219710E01883CF931C
:1057CC00DF9310917D0210951A930E948E02DF9147
:1057DC00CF91CF93DF930E94EF1CDF91CF91CF93AA
:1057EC00DF930E94031EDF91CF91FE011081139570
:1057FC001083CF93DF9310E00AE01A930A930E9470
:10580C006527DF91CF9110951F931881133610E007
:10581C0011F008F01FEF0F91102B112311F40C94C1
:10582C00E52B188114361FEF08F01127112311F402
:10583C000C94542C10913E021A931DE01A931EE006
:10584C001A930E9434702396112311F40C94342C67
:10585C0010913F0210933E020C94442C10913E0286
:10586C0010933F0210913E021A931DE01A931EE012
:10587C001A930E942A70239610933E02CF93DF93C3
:10588C0010913E021A9310E01A930E948329DF9123
:10589C00CF9111E010933D020C94732D10913E02A8
:1058AC00103010F40C94792C1D3019F010F00C946D
:1058BC00792CCF93DF931091C0031A931091C003EE
:1058CC001A930E94DF21DF91CF91CF93DF93109138
:1058DC00C0031A930E94461ADF91CF911FEF1093C9
:1058EC00C9030C94472D1E3010F40C949C2C1E31C3
:1058FC0019F010F00C949C2CCF93DF931091C103F2
:10590C001A931091C1031A930E94DF21DF91CF915A
:10591C00CF93DF931091C1031A930E94621BDF9106
:10592C00CF911FEF1093CA030C94472D1F3111F028
:10593C000C94B22C0E94CA22E2E3F0E03B96109148
:10594C0093020E94576AE2E5F0E03B961091B30295
:10595C000E94576A0C94472D103211F00C94C12CF4
:10596C000E94CA22E2E1F0E07E96109186020E942B
:10597C00576A0C94472D113210F40C94CC2C19331B
:10598C0019F010F00C94CC2C0C94D52C1E3310F474
:10599C000C94012D123419F010F00C94012D0E946E
:1059AC00CA22EBE4F5EEEF93FF9310913E02012F28
:1059BC001127FF91EF91E00FF11F14911F71812EB0
:1059CC00E2E1F0E0EF93FF93182D012F1127FF91E7
:1059DC00EF91E00FF11FEF93FF93182DE8E6F2E043
:1059EC001F710027E10FF01F1081FF91EF910E94B2
:1059FC00576A0C94472D1A3310F40C940C2D1D334C
:105A0C0019F010F00C940C2D0C94102D133411F083
:105A1C000C943C2D0E94CA22EBE4F5EEEF93FF931D
:105A2C0010913E02012F1127FF91EF91E00FF11F12
:105A3C0014911F70812EE2E5F0E0EF93FF93182D87
:105A4C00012F1127FF91EF91E00FF11FEF93FF93BF
:105A5C00182DE8EAF2E01F700027E10FF01F10810B
:105A6C00FF91EF910E94576A0C94472DCF93DF93CF
:105A7C0010913E021A9310E01A930E948329DF9131
:105A8C00CF9110913E0210933F0210E010933D0213
:105A9C00CF93DF9310917D0210951A930E948E0282
:105AAC00DF91CF91CF93DF930E94EF1CDF91CF91C9
:105ABC00CF93DF930E94031EDF91CF91CF93DF939F
:105ACC0010E00AE01A930A930E946527DF91CF91A8
:105ADC001095112311F40C944E2D089523971091C9
:105AEC0089041095112311F40C947E2D0C942B2FFA
:105AFC0010918F04112311F40C94882D13E4198345
:105B0C000C948A2D1DE31983109143021F9310915D
:105B1C0041020F91102B1F9310913E021A931DE01E
:105B2C001A931EE01A930E94347023960F9110233F
:105B3C00112311F40C94AF2DCF93DF931DE01A9326
:105B4C0010E01A930E948329DF91CF9111E01093FA
