:10007C0010B11370B12E1B2D1F931C2D0F91011756
:10008C0010E009F01FEF112311F40C9481001B2DCB
:10009C00103010E009F41FEF112311F40C947D00C3
:1000AC001D2D133010E009F41FEF112311F40C94E3
:1000BC007D001C2D113010E009F41FEF112311F4F9
:1000CC000C946F0010913C02139510933C020C940D
:1000DC007D001C2D123010E009F41FEF112311F4D8
:1000EC000C947D0010913C021A9510933C021C2D2F
:1000FC00D12E1B2DC12E089518811F9316E11F932D
:10010C00E89440F8EAE2F4E0A4E0B0E03F914F91CB
:10011C0050E00E944B6A089500E010E020E030E0CF
:10012C0000932A0410932B0420932C0430932D0459
:10013C00CF93DF9318811A930E948200DF91CF91A5
:10014C0018811F9312E01F93E89440F8E6E1F0E069
:10015C003F914F91A1E0B0E060E050E00E944B6A0B
:10016C0018811F9313E01F93E89440F8E6E1F0E048
:10017C003F914F91A1E0B0E068E250E00E944B6AE1
:10018C0018811F9314E01F93E89440F8E6E1F0E027
:10019C003F914F91A1E0B0E064E150E00E944B6AC6
:1001AC0018811F9315E01F93E89440F8E6E1F0E006
:1001BC003F914F91A1E0B0E060E850E00E944B6AA3
:1001CC0000E010E020E030E000932A0410932B04B0
:1001DC0020932C0430932D04CF93DF9318811A9322
:1001EC000E948200DF91CF91089519E110933302A0
:1001FC005A9808951AE0109333025A98089521974B
:10020C0010E51F9309811A811F93E89440F8098126
:10021C001A81102FE6E1F0E0612FA1E0B0E03F91F0
:10022C004F9150E00E944B6A10E51F93FE01A1E034
:10023C00B0E04F910E94286A18810895CF93DF9304
:10024C0010E51A930A811B811A930A93FE013396C7
:10025C008F011A930A9310E001E01A930A930E94FB
:10026C00416ADF91CF9110E007E00E94DB6A0895AC
:10027C002297CF93DF9310E51A930F8118851A9369
:10028C000A93FE0135968F011A930A9310E004E04D
:10029C001A930A930E94416ADF91CF9110E007E014
:1002AC000E94DB6A08952B971BB11F701F931C854E
:1002BC00110F110F110F110F0F91102B1BB913E907
:1002CC0010937A0011E00E94EA6A13EC10937A0002
:1002DC0010917A001071103010E009F01FEF11230B
:1002EC0011F40C946E0113E810937A001C85E9E468
:1002FC00F3E01F710027E10FF01F108118831881A4
:10030C00012F11271E830D830D811E81015010407A
:10031C001C830B831C85E9E2F3E01F710027E10FBE
:10032C00F01F1081012F112718870F83109179006E
:10033C00012F11270F931F930B811C81019509F439
:10034C001A9510953F912F91020F131F1A87098749
:10035C0009851A85A0E81A27103809F400301FEF18
:10036C0008F01127112311F40C94C00110E000E0E7
:10037C001A87098709851A850F931F930F81188592
:10038C000F931F930D811E813F912F91020F131F0D
:10039C0098011F910F91A0E81A273A27131709F417
:1003AC00021710E011F008F01FEF1F9309851A8552
:1003BC000F931F930F8118850F931F930B811C8133
:1003CC00019509F41A9510953F912F91020F131F67
:1003DC0098011F910F91A0E81A273A27131709F4D7
:1003EC0002171FEF08F011270F91102B112311F496
:1003FC000C94250212E319831C851F931981E9E8DB
:10040C00F3E0AF91AF71BB27EA0FFB1F10831C8584
:10041C001F931B85E9E6F3E0AF91AF71BB27EA0FA1
:10042C00FB1F10831C851F9313E0E9E4F3E0AF91ED
:10043C00AF71BB27EA0FFB1F10830C942E021C8597
:10044C00E9E8F3E01F710027E10FF01F1081198319
:10045C0009851A850F931F930F8118853F912F9152
:10046C00020F131F112312F40F5F1F4F15950795E1
:10047C001A8709871981103010E009F41FEF112336
:10048C0011F40C945F02188115301FEF08F011273E
:10049C00112311F40C945D021C851F9315E0E9E403
:1004AC00F3E0AF91AF71BB27EA0FFB1F10830C94E5
:1004BC008D0209851A850F931F930F81188598015A
:1004CC001F910F91A0E81A273A27131709F4021766
:1004DC0010E009F01FEF112311F40C948D021C8510
:1004EC001F931B85E9E6F3E0AF91AF71BB27EA0FD1
:1004FC00FB1F10831C851F9309851A85102FE9E2B9
:10050C00F3E0AF91AF71BB27EA0FFB1F1083089587
:10051C002397149A1598169ACF93DF931BE01A938E
:10052C001FEF1A930E945901DF91CF911091A903EB
:10053C0013951093A9031091A903113011F00C9489
:10054C00D2021498159A169AFE013296FA93EA93EF
:10055C0010E0108317E01A931081088101171FEF28
:10056C0008F01127112311F00C94CF02CF93DF93D5
:10057C001D811A931F811A930E945901DF91CF910B
:10058C00E981FA81108113951083112311F00C94D9
:10059C00B30223960C94A603123011F00C9427038B
:1005AC00149A1598169AFE013296FA93EA9318E06B
:1005BC0010831AE01A931081088101171FEF08F0BD
:1005CC001127112311F00C94FE02CF93DF931D81A0
:1005DC001A931F811A930E945901DF91CF91E981DF
:1005EC00FA81108113951083112311F00C94E202FF
:1005FC002396FE013296FA93EA931CE010831FE0D7
:10060C001A931081088101171FEF08F0112711238D
:10061C0011F00C942403CF93DF931D811A931F8147
:10062C001A930E945901DF91CF91E981FA811081CF
:10063C0013951083112311F00C94080323960C943A
:10064C00A603133011F00C945603149A159A1698AD
:10065C00FE013296FA93EA9310E1108317E11A9394
:10066C001081088101171FEF08F01127112311F0D9
:10067C000C945303CF93DF931D811A931F811A930C
:10068C000E945901DF91CF91E981FA811081139574
:10069C001083112311F00C94370323960C94A603AA
:1006AC00143011F00C94A3031FEF009136020023B9
:1006BC0009F01095112311F40C94A10314E110937B
:1006CC003602FE013296FA93EA9310E0108317E19A
:1006DC001A931081088101171FEF08F011271123BD
:1006EC0011F00C94A0031D81E9E8F3E01F710027C1
:1006FC00E10FF01F10811C83FE013496112700813D
:10070C0070E0701718F40A9500831FEF1D811F937A
:10071C001C81E9E8F3E0AF91AF71BB27EA0FFB1F37
:10072C001083E981FA81108113951083112311F044
:10073C000C94700323960C94A60310E01093A90359
:10074C0008951091EE042B981EBD1DB517FFFDCF1B
:10075C001EB51093EF042B9A08951091EB042B986F
:10076C001EBD1DB517FFFDCF1EB51093ED041091E6
:10077C00EA041EBD1DB517FFFDCF1EB51093EC048A
:10078C002B9A08951091E5042B981EBD1DB517FFEB
:10079C00FDCF1EB51093E9041091E4041EBD1DB5E8
:1007AC0017FFFDCF1EB51093E8041091E3041EBD96
:1007BC001DB517FFFDCF1EB51093E7041091E20491
:1007CC001EBD1DB517FFFDCF1EB51093E6042B9A69
:1007DC0008951091E00429981EBD1DB517FFFDCF9B
:1007EC001091DF041EBD1DB517FFFDCF299A08958A
:1007FC001091F00408E0449817FD449A459A110FA3
:10080C0045980A95C1F70895E0E0FFE010814598FE
:10081C0008B117FB04F908B9459A16FB04F908B995
:10082C00459A15FB04F908B9459A14FB04F908B963
:10083C00459A13FB04F908B9459A12FB04F908B957
:10084C00459A11FB04F908B9459A10FB04F908B94B
:10085C00459A4598E395D1F608951091F1041EBD83
:10086C001DB517FFFDCF1EB51093F20408952898FF
:10087C0015E01093F1040E9433040E943304289A6B
:10088C001091F2040895289815E01093F1040E9439
:10089C0033040E9433041091F2041170103010E0F4
:1008AC0009F41FEF112311F40C944F04289A0895A6
:1008BC00289816E01093F1040E943304289A0895A6
:1008CC000E945E04289811E01093F1040E943304F6
:1008DC0010E01093F1040E943304289A0E944904FA
:1008EC0008950E945E04289811E01093F1040E9470
:1008FC0033041FE31093F1040E943304289A0E94DE
:10090C00490408950E945E0428983B812A8119812C
:10091C0008810093F3041093F4042093F5043093AE
:10092C00F60410E21093F1040E9433041091F504C4
:10093C001093F1040E9433041091F4041093F10409
:10094C000E9433041091F3041093F1040E943304B9
:10095C00289A0E9449041091F2041072103010E091
:10096C0009F01FEFE894112309F068941091D60454
:10097C0012F91093D6040091D604112702FD1FEF33
:10098C00109508950E945E04289817EC1093F104BA
:10099C000E943304289A0E9449041091F2041072A8
:1009AC00103010E009F01FEFE894112309F068945F
:1009BC001091D60412F91093D6040091D604112785
:1009CC0002FD1FEF10950895219709811A8101509E
:1009DC001040102F18830E945E0428983E812D81B0
:1009EC001C810B810093F3041093F4042093F50401
:1009FC003093F60412E01093F1040E94330410912A
:100A0C00F5041093F1040E9433041091F404109334
:100A1C00F1040E9433041091F3041093F1040E942A
:100A2C003304E7E0F0E0FA93EA9310E01083EF93DD
:100A3C00FF931A81FF91EF911A931081088101178E
:100A4C001FEF08F01127112311F00C944205172DFC
:100A5C00E0E0FFE01F7F0027E10FF01F10811093F3
:100A6C00F1040E943304E981FA81108113951083FB
:100A7C00112311F00C9424052396289A0E94490402
:100A8C001091F2041072103010E009F01FEFE8948E
:100A9C00112309F068941091D60412F91093D6041E
:100AAC000091D604112702FD1FEF10950895219790
:100ABC000E9449040A811B8101501040102F188399
:100ACC003F812E811D810C810093F3041093F4045B
:100ADC002093F5043093F60428981BE01093F1044E
:100AEC000E9433041091F5041093F1040E94330416
:100AFC001091F4041093F1040E9433041091F30448
:100B0C001093F1040E94330410E01093F1040E943E
:100B1C003304E7E0F0E0FA93EA9310E01083EF93EC
:100B2C00FF931A81FF91EF911A931081088101179D
:100B3C001FEF08F01127112311F00C94CF050E9420
:100B4C0033041C81112311F40C94BA05172D1F9337
:100B5C001091F204E0E0FEE0AF91AF7FBB27EA0F0B
:100B6C00FB1F10830C94C605172D1F931091F204D4
:100B7C00E0E0FFE0AF91AF7FBB27EA0FFB1F1083D4
:100B8C00E981FA81108113951083112311F00C94D3
:100B9C009C052396289A0895EFEDF4E0EF93FF93CC
:100BAC001881FF91EF911193E0EEF4E010E01193B6
:100BBC000E94EF030E94C8030091E6041091E70421
:100BCC002091E8043091E9040895EFEDF4E0EF93FF
:100BDC00FF931881FF91EF911193E0EEF4E010E890
:100BEC0011930E94EF03EAEEF4E0EF93FF93198167
:100BFC00FF91EF911193EBEEF4E010E011930E9452
:100C0C00B3030895EFEDF4E0EF93FF931881FF9198
:100C1C00EF911193E0EEF4E010E811930E94EF03D2
:100C2C0009811A810093EA041093EB040E94B30328
:100C3C000895EFEDF4E0EF93FF931881FF91EF919E
:100C4C001193E0EEF4E010E811930E94EF033C8165
:100C5C002B811A8109810093E2041093E304209301
:100C6C00E4043093E5040E94C8030895CF93DF9306
:100C7C0010EF1A930E94D205DF91CF910093B60426
:100C8C001093B7042093B8043093B904E8E0F0E073
:100C9C000E94326B0093B6041093B7042093B804EF
:100CAC003093B904CF93DF930091B6041091B7043D
:100CBC002091B8043091B9043A932A931A930A9369
:100CCC0010EF1A930E941F06DF91CF91ECE0F0E039
:100CDC000E94326B0093B6041093B7042093B804AF
:100CEC003093B904CF93DF930091B6041091B704FD
:100CFC002091B8043091B9043A932A931A930A9329
:100D0C0011EF1A930E941F06DF91CF9108951DE0F9
:100D1C000E94AB6A1AE00E94AB6A089513E20E942B
:100D2C00AB6A10914602105D0E94AB6A1AE30E94F6
:100D3C00AB6ACF93DF9318E0412A0BEA1AE61A93B9
:100D4C000A930091AF041091B004CF93DF931A93E0
:100D5C000A9310E01A9310E01A9310E21A93689415
:100D6C0043F8689445F8E89454F855F80E94066FD7
:100D7C00DF91CF91DF91CF911DE30E94AB6A089573
:100D8C00CF93DF9318E0412A0BEA1AE61A930A93E1
:100D9C00E8E6F4E00E94B56CDF91CF910E948D06DD
:100DAC00089522971091BD04112311F40C94EC06B4
:100DBC0016E00E94AB6A1A810E94AB6A10E00E9496
:100DCC00AB6A10E00E94AB6A0C94300710E00FEF96
:100DDC000093AF041093B0040E949406CF93DF935A
:100DEC0018E0412A0BEA1AE61A930A931C81CF9356
:100DFC00DF931A9310E01A9310E01A9310E21A93EF
:100E0C00689443F80E94CD6CDF91CF91DF91CF9124
:100E1C0010E20E94AB6ACF93DF9318E0412A0BEAF1
:100E2C001AE61A930A93EFE1F6EEEF93FF931C8107
:100E3C00012F1127ADE0B0E0E89445F80E94F06F67
:100E4C00FF91EF91E00FF11F0E94AC6CDF91CF91FD
:100E5C000E948D0608950E949406CF93DF9318E0AC
:100E6C00412A0BEA1AE61A930A93EFE3F4E00E9484
:100E7C00B56CDF91CF910E948D0608951091BD0441
:100E8C00112311F40C945F0716E00E94AB6A10E07A
:100E9C000E94AB6A0091B3041091B4040E94AB6A37
:100EAC000091B3041091B404102F0E94AB6A0C94FF
:100EBC009607EFE3F4E0EF93FF933196FA93EA93FE
:100ECC0018E21A9317EF41221FEB41220091B6044E
:100EDC001091B7042091B8043091B904CF93DF93EB
:100EEC003A932A931A930A9310E01A9310E01A93E8
:100EFC0010E21A93689445F8E89454F855F842F8BF
:100F0C000E940D6DDF91CF9118E21F9318810F9104
:100F1C00011B102FFF91EF91108323960E94310734
:100F2C0008950091B3041091B40417FF03C03FEF70
:100F3C002FEF02C0332722270093B6041093B70477
:100F4C002093B8043093B9040E944407089510917B
:100F5C00BC04012F11270093B3041093B4040E9416
:100F6C00970708950E949406EFE3F4E0EF93FF9344
:100F7C003196FA93EA9318E21A9317EF41221FEB7A
:100F8C0041220091B6041091B7042091B80430911D
:100F9C00B904CF93DF933A932A931A930A9310E0F0
:100FAC001A9310E01A9310E21A93689445F8E89497
:100FBC0054F855F842F80E940D6DDF91CF9118E26C
:100FCC001F9318810F91011B102FFF91EF9110832C
:100FDC002396CF93DF9318E0412A0BEA1AE61A9373
:100FEC000A93EFE3F4E00E94B56CDF91CF9110E22D
:100FFC000E94AB6A1BE50E94AB6A14E20E94AB6ACA
:10100C00EFE3F4E0EF93FF933196FA93EA9318E24F
:10101C001A9317EF41221FEB41220091B604109155
:10102C00B7042091B8043091B904B801C901492F13
:10103C000E94756F482F0E94756F472F0E94756F25
:10104C00462F0E94756F18E21F9318810F91011B98
:10105C00102FFF91EF9110832396CF93DF9318E01D
:10106C00412A0BEA1AE61A930A93EFE3F4E00E9482
:10107C00B56CDF91CF911DE50E94AB6A0E948D0685
:10108C0008950E949406EFE3F4E0EF93FF933196FA
:10109C00FA93EA9318E21A9317EF41221FEB4122BD
:1010AC000091B6041091B7042091B8043091B904A2
:1010BC00CF93DF933A932A931A930A9310E01A93DF
:1010CC0010E01A9310E21A93689445F8E89454F8D7
:1010DC0055F842F80E940D6DDF91CF9118E21F93E5
:1010EC0018810F91011B102FFF91EF911083239604
:1010FC00CF93DF9318E0412A0BEA1AE61A930A936E
:10110C00EFE3F4E00E94B56CDF91CF91CF93DF93C6
:10111C0018E0412A0BEA1AE61A930A93E7E5F2EE75
:10112C000E94AC6CDF91CF91CF93DF9318E0412AF2
:10113C000BEA1AE61A930A93E8E8F4E00E94B56CFD
:10114C00DF91CF911DE50E94AB6A0E948D06089538
:10115C000E943D041F7E103010E009F01FEF112398
:10116C0011F40C94D4080E949406CF93DF9318E0EA
:10117C00412A0BEA1AE61A930A93EAE5F2EE0E9468
:10118C00AC6C1DE00E94826F1AE00E94826FDF91AE
:10119C00CF911FEF0C94D7080C94D70810E00C9447
:1011AC00D70808952497CF93DF9313E01A930E94E6
:1011BC00D205DF91CF910091E6041091E7042091C4
:1011CC00E8043091E9043B832A8319830883CF9385
:1011DC00DF9318E0412A0BEA1AE61A930A93E2E726
:1011EC00F2EE0E94AC6CDF91CF91CF93DF9318E0BD
:1011FC00412A0BEA1AE61A930A933D812C811B8132
:10120C000A81689443F8B801C901492F0E94756F8F
:10121C00482F0E94756F472F0E94756F462F0E94B2
:10122C00756FDF91CF91CF93DF9318E0412A0BEAD2
:10123C001AE61A930A93EFE4F2EE0E94AC6CDF917B
:10124C00CF910E948D06089528971AE314B91FE9CF
:10125C0015B910E717B91FEC18B91091D6041B7FFC
:10126C001093D604469815E00E94EA6A469A15E057
:10127C000E94EA6A10E317B916E206EB0093AF047A
:10128C001093B00411E004EF0E94DB6A1BEB14B95D
:10129C001FE915B90E949406112737991FEF1123E6
:1012AC0011F40C946909CF93DF9318E0412A0BEAEF
:1012BC001AE61A930A93EFE7F2EE0E94AC6CDF91F8
:1012CC00CF910C947C09CF93DF9318E0412A0BEA61
:1012DC001AE61A930A93EFE8F2EE0E94AC6CDF91D7
:1012EC00CF911091D60414601093D6040E943C0642
:1012FC00CF93DF930E94D808DF91CF910895E0EE51
:10130C00F4E010E81193EFEDF4E0EF93FF931091FC
:10131C00F7041F5FFF91EF9111930E94EF0310915F
:10132C00F8041093EE040E94A703EFEDF4E0109183
:10133C00F70411930E94EF030895E0EEF4E010E837
:10134C001193EFEDF4E0EF93FF931091F7041F5F0F
:10135C00FF91EF9111930E94EF031091F8041093F9
:10136C00EE040E94A70308951091CE04112311F4EA
:10137C000C94EE0910E00E946069CF93DF9318E0A3
:10138C00412A02E219E61A930A93EFEAF2EE0E945E
:10139C00AC6CDF91CF91CF93DF9310E01A9310E0F8
:1013AC001A9311E01A930E944869DF91CF91CF9361
:1013BC00DF9318E0412A02E219E61A930A93E8EB4C
:1013CC00F2EE0E94AC6CDF91CF9110E00E94696943
:1013DC0008951091CE04112311F40C944E0A112788
:1013EC00062D017009F41095112311F40C944C0A7C
:1013FC00CF93DF9310E01A9310E01A9311E01A9335
:10140C000E944869DF91CF91CF93DF9318E0412A76
:10141C0002E219E61A930A93E1ECF2EE0E94AC6C2C
:10142C00DF91CF91CF93DF9318E0412A02E219E6C6
:10143C001A930A930091DA041091DB042091DC04D6
:10144C003091DD04CF93DF933A932A931A930A9346
:10145C0018E01A9300E00A9310E21A93689443F888
:10146C00689445F8E89454F855F842F80E940D6DCC
:10147C00DF91CF91DF91CF9110E00E94696910E06C
:10148C0002E3E4E3F2E0B1E00E94C2700C94520A71
:10149C0010E002E00E94DB6A08951091CE04112343
:1014AC0011F40C94730ACF93DF9310E01A9310E0AD
:1014BC001A9311E01A930E944869DF91CF91CF9350
:1014CC00DF9318E0412A02E219E61A930A93EAEC38
:1014DC00F2EE0E94AC6CDF91CF9108951091CE0486
:1014EC00112311F40C94940ACF93DF9310E01A9308
:1014FC0010E01A9311E01A930E944869DF91CF9182
:10150C00CF93DF9318E0412A02E219E61A930A936B
:10151C00E6EDF2EE0E94AC6CDF91CF9108956597E9
:10152C000E949406CF93DF9318E0412A0BEA1AE647
:10153C001A930A93E2EEF2EE0E94AC6C1DE00E944C
:10154C00826F1AE00E94826FDF91CF9110E01A87B0
:10155C0010E0188710E01C8B10E0198B1FEF188B14
:10156C0000E010E020E030E00093DA041093DB049C
:10157C002093DC043093DD0410E000E01C870B8723
:10158C000E94BA0910E000E01983088310E000E023
:10159C001B830A83388D2F891E890D893F832E83E7
:1015AC001D830C831A851095112311F40C94470B91
:1015BC0010E000E01C870B8711275A991FEF10953C
:1015CC00E894112309F068941BB112F91BB9CF935D
:1015DC00DF93FE017496FA93EA9314E61A930E9431
:1015EC00746ADF91CF911A871A85112311F40C9428
:1015FC00180B1C89113010E009F41FEF1F931C8984
:10160C00143010E009F41FEF0F91102B112311F47B
:10161C000C94160B10E000E01C870B870C94470B06
:10162C000C94220B15E10E94AB6AFE013B96A08143
:10163C00B1811196A083B1831C89113010E009F49B
:10164C001FEF1F931C89143010E009F41FEF0F914A
:10165C00102B1F931C89183110E009F41FEF0F9108
:10166C00102B1F930B851C85103009F4043110E0EE
:10167C0011F008F01FEF0F91102B112311F40C94A3
:10168C00ED0A18851095112311F40C94510B0E943E
:10169C00EF091FEF18871C89113010E009F41FEFB8
:1016AC00112311F40C94850CCF93DF93FE017396E8
:1016BC00FA93EA9314E61A930E94746ADF91CF911D
:1016CC0019871985112311F40C947F0CCF93DF9398
:1016DC00FE017296FA93EA931AE01A930E94746AC6
:1016EC00DF91CF9119871B890FEF011B102F1F93CF
:1016FC001A890F91011710E009F41FEF112311F44F
:10170C000C947D0C10E0198BE8E0F0E0FA93EA936E
:10171C0010E010831FE71A931081088101171FEF47
:10172C0008F01127112311F00C94C30BCF93DF9306
:10173C00EAE0F0E0FA93EA931AE01A930E94746AD2
:10174C00DF91CF911C871C891F931A2D0F91100FBD
:10175C001C8B182D1F931A2DE0E0FFE0AF91AF7F8B
:10176C00BB27EA0FFB1F1083E981FA8110811395C7
:10177C001083112311F00C94930B2396CF93DF93CA
:10178C00FE017096FA93EA931AE01A930E94746A17
:10179C00DF91CF911987CF93DF933F812E811D81EC
:1017AC000C813A932A931A930A9310E000E81A9347
:1017BC000A930E94EA04DF91CF911095112311F442
:1017CC000C94EF0BFE013296A081B1811196A0838F
:1017DC00B183CF93DF933F812E811D810C813A938E
:1017EC002A931A930A9310E000E81A930A931FEFB6
:1017FC001A930E945D05DF91CF91E8E0F0E0FA9337
:10180C00EA9310E010831FE71A93108108810117E7
:10181C001FEF08F01127112311F00C943F0C182D19
:10182C00E0E0FEE01F7F0027E10FF01F10811F9307
:10183C00182DE0E0FFE01F7F0027E10FF01F108163
:10184C000F91011710E009F01FEF112311F40C9404
:10185C00360CFE013396A081B1811196A083B18321
:10186C00E981FA81108113951083112311F00C94E6
:10187C000C0C239619891F9318890F91011710E0EE
:10188C0009F41FEF112311F40C94730C16E00E9451
:10189C00AB6A3F812E811D810C8100581F4F2F4F49
:1018AC003F4F3F832E831D830C830091DA041091EC
:1018BC00DB042091DC043091DD0400581F4F2F4FC6
:1018CC003F4F0093DA041093DB042093DC04309335
:1018DC00DD040E94EF090C947D0CFE013B96A08167
:1018EC00B1811196A083B18315E10E94AB6A0C946F
:1018FC00830C10E00FEF1C870B8710E01C8B10E0A3
:10190C001A871C89143010E009F41FEF1F931C89EF
:10191C00183110E009F41FEF0F91102B1F930B855A
:10192C001C85103009F4043110E011F008F01FEFA1
:10193C000F91102B112311F40C94D80A16E00E946D
:10194C00AB6A18891F9319890F91011710E009F0E0
:10195C001FEF112311F40C94D90C0FEF1FEF2FEF85
:10196C003FEF0093B6041093B7042093B804309360
:10197C00B9040E949406CF93DF9318E0412A0BEA36
:10198C001AE61A930A93E5EFF2EE0E94AC6C1DE096
:10199C000E94826F1AE00E94826FDF91CF910E94A9
:1019AC00530A0C94F30C0091DA041091DB0420918F
:1019BC00DC043091DD040093B6041093B70420933B
:1019CC00B8043093B904E4E3F2E00EEF0E94B8706F
:1019DC000E94EF0910E010933D020881198110302C
:1019EC0009F4003010E009F01FEF112311F40C94EE
:1019FC00550D0FEF1FEF2FEF3FEF0093B604109331
:101A0C00B7042093B8043093B9040E949406CF9382
:101A1C00DF9318E0412A0BEA1AE61A930A93E0E1E5
:101A2C00F3EE0E94AC6CDF91CF91CF93DF9318E073
:101A3C00412A0BEA1AE61A930A930A811B81CF9367
:101A4C00DF931A930A9310E01A9310E01A9310E2A2
:101A5C001A93689443F8E89445F8E89454F855F8C8
:101A6C000E94066FDF91CF91DF91CF91CF93DF93DF
:101A7C0018E0412A0BEA1AE61A930A93E6E2F3EE0F
:101A8C000E94AC6C1DE00E94826F1AE00E94826F73
:101A9C00DF91CF910E94740A10E010933D020A81ED
:101AAC001B81103009F4003010E009F01FEF1123F6
:101ABC0011F40C94B70D0FEF1FEF2FEF3FEF0093C6
:101ACC00B6041093B7042093B8043093B9040E9461
:101ADC009406CF93DF9318E0412A0BEA1AE61A9387
:101AEC000A93E7E3F3EE0E94AC6CDF91CF91CF93B6
:101AFC00DF9318E0412A0BEA1AE61A930A930C8139
:101B0C001D81CF93DF931A930A9310E01A9310E080
:101B1C001A9310E21A93689443F8E89445F8E89401
:101B2C0054F855F80E94066FDF91CF91DF91CF9159
:101B3C00CF93DF9318E0412A0BEA1AE61A930A9323
:101B4C00E6E2F3EE0E94AC6C1DE00E94826F1AE09C
:101B5C000E94826FDF91CF910E94740A10E0109363
:101B6C003D0208952297CF93DF9312E01A930E94BF
:101B7C00D205DF91CF9111271A991FEF112311F480
:101B8C000C94B90D1091E8041A3A10E009F41FEF07
:101B9C00112311F40C94B00E1091E604103511F0D1
:101BAC000C94E80DCF93DF9318E0412A0BEA1AE668
:101BBC001A930A93ECE4F3EE0E94AC6CDF91CF9194
:101BCC000C947F0E113511F00C94FC0DCF93DF9318
:101BDC0018E0412A0BEA1AE61A930A93EDE5F3EEA4
:101BEC000E94AC6CDF91CF910C947F0E123511F0EA
:101BFC000C94100ECF93DF9318E0412A0BEA1AE6EF
:101C0C001A930A93EBE6F3EE0E94AC6CDF91CF9142
:101C1C000C947F0E133511F00C94240ECF93DF939C
:101C2C0018E0412A0BEA1AE61A930A93E5E7F3EE59
:101C3C000E94AC6CDF91CF910C947F0E143511F097
:101C4C000C94380ECF93DF9318E0412A0BEA1AE676
:101C5C001A930A93E3E8F3EE0E94AC6CDF91CF91F8
:101C6C000C947F0E183511F00C944C0ECF93DF931F
:101C7C0018E0412A0BEA1AE61A930A93E1E9F3EE0B
:101C8C000E94AC6CDF91CF910C947F0E1F3511F03C
:101C9C000C94600ECF93DF9318E0412A0BEA1AE6FE
:101CAC001A930A93EEE9F3EE0E94AC6CDF91CF919C
:101CBC000C947F0ECF93DF9318E0412A0BEA1AE6BF
:101CCC001A930A93E7EAF3EE0E94AC6CDF91CF9182
:101CDC00CF93DF9318E0412A0BEA1AE61A930A9382
:101CEC001091E604689443F8412F0E94756FDF91C0
:101CFC00CF91CF93DF9318E0412A0BEA1AE61A939F
:101D0C000A93E2EBF3EE0E94AC6CDF91CF91CF9390
:101D1C00DF9318E0412A0BEA1AE61A930A93109102
:101D2C00E704689443F8412F0E94756FDF91CF91BF
:101D3C00CF93DF9318E0412A0BEA1AE61A930A9321
:101D4C00EFE4F2EE0E94AC6CDF91CF910E948D0615
:101D5C000C94C00ECF93DF9318E0412A0BEA1AE6DD
:101D6C001A930A93EEEBF3EE0E94AC6CDF91CF91D9
:101D7C000E948D06089525970E9494061E81145585
:101D8C001093F8040E948509CF93DF9318E0412A41
:101D9C000BEA1AE61A930A931091F804CF93DF9387
:101DAC001A9310E01A9310E01A9310E21A936894A5
:101DBC0043F80E94CD6CDF91CF91DF91CF91CF93FF
:101DCC00DF9318E0412A0BEA1AE61A930A93E4ED22
:101DDC00F3EE0E94AC6CDF91CF911E81012F112785
:101DEC003327222740E050E160E070E0689445F82A
:101DFC000E944C703C832B831A83098300E010E013
:101E0C0020E030E00093DA041093DB042093DC0430
:101E1C003093DD04E8E0F0E0FA93EA9310E01083ED
:101E2C001FE01A931081088101171FEF08F011278A
:101E3C00112311F00C94EB0FCF93DF933F812E8184
:101E4C001D810C813A932A931A930A9311E000E0B6
:101E5C001A930A9310E01A930E945D05DF91CF91BB
:101E6C001885112311F40C94720FEAE0F0E0FA9348
:101E7C00EA9310E010831FEF1A9310810881011769
:101E8C001FEF08F01127112311F00C946F0F1A2D6E
:101E9C00E0E0FFE01F7F0027E10FF01F10811E83A1
:101EAC00CF93DF9318E0412A0BEA1AE61A930A93B0
:101EBC001885689443F8412F0E94756FDF91CF917C
:101ECC00E981FA81108113951083112311F00C9480
:101EDC00440F23960C94890F182D1170113010E0BB
:101EEC0009F41FEF112311F40C94890FCF93DF9396
:101EFC0018E0412A0BEA1AE61A930A931EE20E9492
:101F0C00826FDF91CF91EAE0F0E0FA93EA9310E070
:101F1C0010831FE31A931081088101171FEF08F03B
:101F2C001127112311F00C94C10FE0E0FFE0EF93A7
:101F3C00FF931A2D012F1127000F111F000F111FD6
:101F4C00FF91EF91E00FF11F0191119121913191CE
:101F5C000093E2041093E3042093E4043093E5042B
:101F6C000E94C803E981FA81108113951083112313
:101F7C0011F00C94920F23963F812E811D810C81C0
:101F8C0000501F4F2F4F3F4F3F832E831D830C83D9
:101F9C000091DA041091DB042091DC043091DD0413
:101FAC0000501F4F2F4F3F4F0093DA041093DB0468
:101FBC002093DC043093DD04E981FA8110811395C0
:101FCC001083112311F00C94190F23960E94A3096E
:101FDC0011E004EFE4E3F2E0B1E00E94C270009182
:101FEC00DA041091DB042091DC043091DD040093C1
:101FFC00B6041093B7042093B8043093B9041FEFC0
:10200C001093C60310E002E30E94DB6ACF93DF93C8
:10201C000E94B80DDF91CF9108952D970E949406E0
:10202C00CF93DF9318E0412A0BEA1AE61A930A932E
:10203C001F85CF93DF931A9310E01A9310E01A9335
:10204C0010E21A93689443F80E94CD6CDF91CF9103
:10205C00DF91CF91CF93DF9318E0412A0BEA1AE678
:10206C001A930A93E4EEF3EE0E94AC6CDF91CF91DD
:10207C00CF93DF9310E01A9318E41A930E94EB05A8
:10208C00DF91CF9110E004E60E94DB6A1D851C5A9B
:10209C00012F11273327222740E050E160E070E048
:1020AC00689445F80E944C703C872B871A870987E7
:1020BC0010E000E018870F8310E000E0198308831C
:1020CC00E8E0F0E0FA93EA9310E010831FE01A9333
:1020DC001081088101171FEF08F01127112311F04F
:1020EC000C946A11CF93DF933F852E851D850C854B
:1020FC003A932A931A930A9311E000E01A930A93E5
:10210C0010E01A930E945D05DF91CF9110E000E082
:10211C001E830D8310E000E01C830B830A851B8556
:10212C0019870887EAE0F0E0FA93EA9310E010834D
:10213C0017E01A931081088101171FEF08F011277F
:10214C00112311F00C94DF10CF93DF9310E51A9349
:10215C000E851F851A930A931FE000E00F931F93BF
:10216C000B851C853F912F91020F131F1A930A9315
:10217C0010E000E21A930A930E94416ADF91CF911A
:10218C0010E00AE00E94DB6A08851985005E1F4F8B
:10219C00198708870D851E85005E1F4F1E870D87CA
:1021AC00E981FA81108113951083112311F00C949D
:1021BC00A110239610E51F93088519851F93E894A9
:1021CC0040F808851985102FE6E1F0E0612FA1E0B9
:1021DC00B0E03F914F9150E00E944B6ACF93DF9358
:1021EC0010E51A931EE000E01A930A9311E000E048
:1021FC001A930A930E94236ADF91CF91EAE0F0E0F0
:10220C00FA93EA9310E010831FEF1A931081088160
:10221C0001171FEF08F01127112311F00C94401136
:10222C001A2DE0E0FFE01F7F0027E10FF01F108167
:10223C001F931A2DE0E0FEE01F7F0027E10FF01F37
:10224C0010810F91011710E009F01FEF112311F409
:10225C000C943711FE013696A081B1811196A083A2
:10226C00B183E981FA81108113951083112311F048
:10227C000C940D1123960B811C81103009F4003045
:10228C0010E009F41FEF112311F40C9452111EE20B
:10229C000E94AB6A0C94551113E20E94AB6A3F8505
:1022AC002E851D850C8500501F4F2F4F3F4F3F87AC
:1022BC002E871D870C87E981FA8110811395108375
:1022CC00112311F00C946F102396CF93DF9318E029
:1022DC00412A0BEA1AE61A930A931DE50E94826FB3
:1022EC001DE00E94826F1AE00E94826FDF91CF91F5
:1022FC0011E004EFE4E3F2E0B1E00E94C27000915F
:10230C00DA041091DB042091DC043091DD0400939D
:10231C00B6041093B7042093B8043093B9041FEF9C
:10232C001093C60308811981103009F4003010E0B5
:10233C0009F01FEF112311F40C94E9110E9494067B
:10234C00CF93DF9318E0412A0BEA1AE61A930A930B
:10235C00E3E0F4EE0E94AC6CDF91CF91CF93DF936E
:10236C0018E0412A0BEA1AE61A930A930A811B8198
:10237C00CF93DF931A930A9310E01A9310E01A93F9
:10238C0010E21A93689443F8E89445F8E89454F8EA
:10239C0055F80E94066FDF91CF91DF91CF91CF93CB
:1023AC00DF9318E0412A0BEA1AE61A930A93E6E245
:1023BC00F3EE0E94AC6C1DE00E94826F1AE00E944A
:1023CC00826FDF91CF910895219710E018830091CF
:1023DC00AC03112704FD1FEF112311F40C94FA1117
:1023EC00FE011081139510830091AC03112705FD9C
:1023FC001FEF112311F40C940B12FE011081139595
:10240C001083FE01108113951083CF93DF931881F5
:10241C001A931DE01A930E94EB05DF91CF91109156
:10242C005102103011F00C941D120C942712123022
:10243C0011F00C9423120C942712143011F00C94FC
:10244C003D12CF93DF9312ED1A9315E01A930E946D
:10245C00EB05DF91CF91CF93DF9310E01A9316E049
:10246C001A930E94EB05DF91CF910C9465121130F9
:10247C0011F00C9443120C944D12133011F00C9477
:10248C0049120C944D12153011F00C946512CF9327
:10249C00DF93109171021A9315E01A930E94EB05C9
:1024AC00DF91CF91CF93DF93109170021A9316E0C6
:1024BC001A930E94EB05DF91CF910C946512109149
:1024CC005102103011F00C946D120C9471121130E9
:1024DC0011F00C948912CF93DF9310916A021A9326
:1024EC0018E01A930E94EB05DF91CF91CF93DF9305
:1024FC0010916D021A9314E01A930E94EB05DF9170
:10250C00CF910C94CD12123011F00C948F120C94BC
:10251C009312133011F00C94AB12CF93DF931091F4
:10252C006B021A9318E01A930E94EB05DF91CF917E
:10253C00CF93DF9310916E021A9314E01A930E94BA
:10254C00EB05DF91CF910C94CD12143011F00C945B
:10255C00B1120C94B512153011F00C94CD12CF931E
:10256C00DF9310916C021A9318E01A930E94EB05FA
:10257C00DF91CF91CF93DF9310916F021A9314E0F8
:10258C001A930E94EB05DF91CF910C94CD12089514
:10259C0023970091AC03112700FD1FEF1F930091AF
:1025AC00AC03112701FD1FEF10950F9110231F9302
:1025BC00109183020F911023112311F40C94191311
:1025CC00E8E0F0E0FA93EA9310E0108317E01A9336
:1025DC001081088101171FEF08F01127112311F04A
:1025EC000C941613182DE8E4F2E01F770027E10F86
:1025FC00F01F108116951B83CF93DF931B811A93C9
:10260C00182D105F1A930E94EB05DF91CF91E98191
:10261C00FA81108113951083112311F00C94EF1291
:10262C0023960C944913E8E0F0E0FA93EA9310E057
:10263C00108317E01A931081088101171FEF08F01F
:10264C001127112311F00C944813182DE8E4F2E033
:10265C001F770027E10FF01F10811B83CF93DF93AF
:10266C001B811A93182D105F1A930E94EB05DF91B2
:10267C00CF91E981FA81108113951083112311F008
:10268C000C94221323960091AC03112700FD1FEF2D
:10269C001F931091C0031F3010E009F01FEF0F9132
:1026AC001023112311F40C94F813109183021123AD
:1026BC0011F40C946D13CF93DF9310E01A9318E17F
:1026CC001A930E94EB05DF91CF910C949513009116
:1026DC00AC03112701FD1FEF112311F40C9481138E
:1026EC0018E0E8E4F2E01F770027E10FF01F1081FB
:1026FC0018830C948B1318E0E8E4F2E01F770027A2
:10270C00E10FF01F108116951883CF93DF9318817A
:10271C001A9318E11A930E94EB05DF91CF91009167
:10272C00AC03112703FD1FEF112311F40C94AA1312
:10273C00CF93DF9311E01A931BE11A930E94EB05E0
:10274C00DF91CF910C94B413CF93DF9310E01A93D5
:10275C001BE11A930E94EB05DF91CF910091AC0322
:10276C00112701FD1FEF112311F40C94CA13CF9301
:10277C00DF93109175021A931AE11A930E94EB05DC
:10278C00DF91CF910C94D513CF93DF9310917402FA
:10279C001A931AE11A930E94EB05DF91CF910091E5
:1027AC00AC03112702FD1FEF112311F40C94EB1352
:1027BC00CF93DF93109177021A9319E11A930E9429
:1027CC00EB05DF91CF910C94F613CF93DF9310911F
:1027DC0076021A9319E11A930E94EB05DF91CF91BF
:1027EC000C94151418E0E8E4F2E01F770027E10FD1
:1027FC00F01F10811883CF93DF9318811A9318E17F
:10280C001A930E94EB05DF91CF91CF93DF9310E0E9
:10281C001A931AE11A930E94EB05DF91CF91089558
:10282C002197E8E0F0E0FA93EA9310E1108318E1C5
:10283C001A931081088101171FEF08F0112711233B
:10284C0011F00C944614182DE8E4F2E01F770027E1
:10285C00E10FF01F10811B83CF93DF931B811A9321
:10286C00182D105F1A930E94EB05DF91CF91E9812F
:10287C00FA81108113951083112311F00C942014FC
:10288C00239608952197CF93DF93109161021A93A9
:10289C0019E21A930E94EB05DF91CF91CF93DF934E
:1028AC00109162021A931AE21A930E94EB05DF91BF
:1028BC00CF91CF93DF93109163021A931BE21A937B
:1028CC000E94EB05DF91CF91109164021695E9E31C
:1028DC00FCEE1F730027E10FF01F14911883109169
:1028EC00610210321FEF08F011271F931091630241
:1028FC0010321FEF08F011270F911023112311F440
:10290C000C948C14FE0110811A951083CF93DF93D5
:10291C0018811A931CE21A930E94EB05DF91CF9158
:10292C0010917C0217701F9310916502110F110FFB
:10293C00110F110F0F91102B1883CF93DF93188168
:10294C001A931BE01A930E94EB05DF91CF91CF9362
:10295C00DF931091B4021A931CEC1A930E94EB05AE
:10296C00DF91CF91CF93DF93109168021A931EE001
:10297C001A930E94EB05DF91CF9108952297109145
:10298C00860213701983E8E0F0E0FA93EA9310E002
:10299C00108313E01A931081088101171FEF08F0C0
:1029AC001127112311F00C940B15182D1F931C815A
:1029BC00110F110F0F91100FE8EBF2E01F700027B1
:1029CC00E10FF01F10811B83182D133010E009F458
:1029DC001FEF112311F40C94F7141B8108E010273E
:1029EC001B83CF93DF931B811A93182D1B5B1A93B8
:1029FC000E94EB05DF91CF91E981FA81108113954B
:102A0C001083112311F00C94D214239610E002E3DE
:102A1C000E94DB6A08952597CF93DF93109184026F
:102A2C0011701A9317E01A930E94EB05DF91CF9166
:102A3C001091720213701F9310917302110F110FEA
:102A4C00110F110F0F91102B1A83CF93DF931A8153
:102A5C001A9319E01A930E94EB05DF91CF91CF9353
:102A6C00DF93109185021A931AE01A930E94EB05DA
:102A7C00DF91CF91109178021F9310917A0211700F
:102A8C0025E00E94C16F0F91102B1F9310917902BA
:102A9C0026E00E94C16F0F91102B1A83CF93DF9306
:102AAC001A811A931CE01A930E94EB05DF91CF91C7
:102ABC00CF93DF93109168021A931EE01A930E9431
:102ACC00EB05DF91CF9108952797CF93DF931FEFFD
:102ADC001A930E94D12FDF91CF91E8E0F0E0FA93A6
:102AEC00EA9310E010831FE11A93108108810117FB
:102AFC001FEF08F01127112311F00C94A815182DB5
:102B0C00E8ECF2E01F710027110F001FE10FF01F1E
:102B1C000081118118870F83CF93DF930F81188564
:102B2C001A930A93182D10561A930E940806DF91D7
:102B3C00CF91E981FA81108113951083112311F043
:102B4C000C947C152396E8E0F0E0FA93EA9310E0FD
:102B5C0010831FE11A931081088101171FEF08F0F1
:102B6C001127112311F00C94D815182DE8E8F2E078
:102B7C001F710027E10FF01F10811987CF93DF938E
:102B8C0019851A93182D10541A930E94EB05DF9196
:102B9C00CF91E981FA81108113951083112311F0E3
:102BAC000C94B2152396CF93DF9310E01A9317EF82
:102BBC001A930E94EB05DF91CF91FE013496FA93A4
:102BCC00EA9310E000E01183008311E00FEF1A93F9
:102BDC000A93A081B18128813981B31709F4A21716
:102BEC0010E011F008F01FEF112311F00C943416C3
:102BFC00EFEDF2E0EF93FF9308851985000F111F9D
:102C0C00FF91EF91E00FF11F0E942D6B17FF03C096
:102C1C003FEF2FEF02C0332722273F832E831D83E4
:102C2C000C83CF93DF933F812E811D810C813A93CE
:102C3C002A931A930A9316EF1A930E941F06DF9198
:102C4C00CF91EA81FB81A081B1811196A083B183E0
:102C5C00BB2311F4AA2311F00C94F1152496CF93F5
:102C6C00DF93109191021A9319E41A930E94EB05C9
:102C7C00DF91CF91CF93DF9310E01A930E94D12F65
:102C8C00DF91CF910895239710E01883E8E0F0E0EE
:102C9C00FA93EA9310E0108318E01A9310810881DC
:102CAC0001171FEF08F01127112311F00C94A51632
:102CBC001E811F93182DE9E6F3E01F700027E10F2A
:102CCC00F01F10810F91102B112311F40C949C16F2
:102CDC00182DE9E2F3E01F700027E10FF01F1081BF
:102CEC0016951D83182D1F931D81E8E4F2E0AF911A
:102CFC00AF77BB27EA0FFB1F1083182D1F9310E033
:102D0C00E9E6F3E0AF91AF70BB27EA0FFB1F10832E
:102D1C001DE0109340021FEF1B831E8110951123A1
:102D2C0011F40C949C161FEF10934102E981FA8167
:102D3C00108113951083112311F00C9455162396C2
:102D4C001881112311F40C94B116CF93DF930E94C8
:102D5C00CE12DF91CF910895229710E01883E8E00E
:102D6C00F0E0FA93EA9310E0108318E01A931081C4
:102D7C00088101171FEF08F01127112311F00C9493
:102D8C000F171D811F93182DE5E7F3E01F70002727
:102D9C00E10FF01F10810F91102B112311F40C94E3
:102DAC000617182DE5E3F3E01F700027E10FF01F65
:102DBC00108116951C83182D105F1F931C81E8E45D
:102DCC00F2E0AF91AF77BB27EA0FFB1F1083182DF2
:102DDC001F9310E0E5E7F3E0AF91AF70BB27EA0F6C
:102DEC00FB1F10831EE0109340021FEF1B831D81FD
:102DFC001095112311F40C9406171FEF1093420237
:102E0C00E981FA81108113951083112311F00C9430
:102E1C00BE1623961881112311F40C941B17CF9313
:102E2C00DF930E941614DF91CF91089522971A8197
:102E3C001F9310917E030F91102B112311F40C94FE
:102E4C003D1710913E03169510936102109161028B
:102E5C0016951093620210E010937E03CF93DF93CC
:102E6C000E944814DF91CF9119E1109340021A810E
:102E7C001F9310917F030F91102B112311F40C94BD
:102E8C00581710913F0316951093630210E010939E
:102E9C007F03CF93DF930E944814DF91CF911BE106
:102EAC00109340021A811F93109180030F91102BE5
:102EBC00112311F40C947317109140031695109371
:102ECC00640210E010938003CF93DF930E944814A8
:102EDC00DF91CF911CE11093400208951091B6033D
:102EEC00112311F40C9487171091B703109351020E
:102EFC0010E01093B6031AE0109340021FEF1093EA
:102F0C007203CF93DF930E94EA11DF91CF91089562
:102F1C0023971091B3031F931091B4030F91102BAF
:102F2C00103010E009F41FEF112311F40C94A017CA
:102F3C000C949F180091B303112700FD1FEF112370
:102F4C0011F40C94B217CF93DF930E94CE12DF9141
:102F5C00CF911CE0109340020091B303112701FDA7
:102F6C001FEF112311F40C94C417CF93DF930E941D
:102F7C00CE12DF91CF911CE0109340020091B3036D
:102F8C00112702FD1FEF112311F40C94D617CF93C8
:102F9C00DF930E94CE12DF91CF911CE01093400280
:102FAC000091B303112703FD1FEF112311F40C94AF
:102FBC00E817CF93DF930E94CE12DF91CF911CE0E4
:102FCC00109340020091B303112704FD1FEF11234E
:102FDC0011F40C94FD17CF93DF930E94EA11DF914B
:102FEC00CF911FEF109372031BE0109340020091DE
:102FFC00B303112705FD1FEF112311F40C941218C4
:10300C00CF93DF930E94EA11DF91CF911FEF1093C2
:10301C0072031FE0109340020091B403112704FDCA
:10302C001FEF1F930091B403112705FD1FEF0F91A4
:10303C00102B1F931091C7030F91102B112311F418
:10304C000C94531810E0109386020091B1031127D1
:10305C0004FD1FEF112311F40C9439181091860202
:10306C001395109386020091B103112705FD1FEFF4
:10307C00112311F40C944718109186021E5F1093C3
:10308C008602CF93DF930E94C414DF91CF9110E09E
:10309C001093C70310E2109340020091B403112760
:1030AC0006FD1FEF112311F40C9476180091B10357
:1030BC00112706FD1FEF112311F40C946A1811E06F
:1030CC001093B4020C946D1810E01093B402CF93CB
:1030DC00DF930E944814DF91CF911DE110934002C1
:1030EC000091B403112707FD1FEF112311F40C9469
:1030FC0099180091B103112707FD1FEF112311F44B
:10310C000C948D1813E0109365020C94901810E039
:10311C0010936502CF93DF930E944814DF91CF91F7
:10312C001EE11093400210E01093B30310E01093D3
:10313C00B40308952197E8E0F0E0FA93EA9310E0E5
:10314C00108319E01A931081088101171FEF08F002
:10315C001127112311F00C94DB18182DE8E0F3E083
:10316C001F700027E10FF01F10811B83182D1F9378
:10317C001B81E8E4F2E0AF91AF70BB27EA0FFB1FB5
:10318C001083182D1F9319E0E9E4F3E0AF91AF70B1
:10319C00BB27EA0FFB1F1083E981FA81108113957D
:1031AC001083112311F00C94AA1823961091AC03E0
:1031BC00107E1F93109112030F91102B1093AC03E0
:1031CC001FE11093B30308952197E8E0F0E0FA9320
:1031DC00EA9310E0108319E01A931081088101170B
:1031EC001FEF08F01127112311F00C941A19182D48
:1031FC00E8E4F2E01F700027E10FF01F10811B8341
:10320C00182D1F931B81E8E0F3E0AF91AF70BB2743
:10321C00EA0FFB1F1083E981FA811081139510834B
:10322C00112311F00C94F41823961091AC031F7118
:10323C0010931203CF93DF9310E01A930E94D12FB7
:10324C00DF91CF9108952197E8E0F0E0FA93EA93AB
:10325C0010E010831CE01A931081088101171FEFF6
:10326C0008F01127112311F00C946419182DE8E1C2
:10327C00F3E01F700027E10FF01F10811B83182D46
:10328C001F931B81E8E5F2E0AF91AF70BB27EA0F0B
:10329C00FB1F1083182D1F9319E0E5E5F3E0AF91A8
:1032AC00AF70BB27EA0FFB1F1083E981FA811081F5
:1032BC0013951083112311F00C943319239610914C
:1032CC00AC031F7D1F93109125030F91102B1093AE
:1032DC00AC0310E21093B3031091B1031F731F934F
:1032EC00109126030F91102B1093B10310EC109337
:1032FC00B40308952197E8E0F0E0FA93EA9310E024
:10330C0010831CE01A931081088101171FEF08F03D
:10331C001127112311F00C94B019182DE8E5F2E0E7
:10332C001F700027E10FF01F10811B83182D1F93B6
:10333C001B81E8E1F3E0AF91AF70BB27EA0FFB1FF5
:10334C001083E981FA81108113951083112311F0F8
:10335C000C948A1923961091AC03107210932503C8
:10336C001091B103107C1093260308952197CF93ED
:10337C00DF931FEF1A930E94D12FDF91CF91E8E0DA
:10338C00F0E0FA93EA9310E0108319E01A9310819D
:10339C00088101171FEF08F01127112311F00C946D
:1033AC00131AE2EBF0E0EF93FF931C81012F11272E
:1033BC00A0E1B0E0E89445F80E94F06F0F931F93E2
:1033CC00182D012F11273F912F91020F131FFF91E1
:1033DC00EF91E00FF11F0E94246B1B83182D1F939C
:1033EC001B81E8E4F2E0AF91AF70BB27EA0FFB1F43
:1033FC001083182D1F9319E0E9E4F3E0AF91AF703F
:10340C00BB27EA0FFB1F1083E981FA81108113950A
:10341C001083112311F00C94CE1923961091AC0348
:10342C00107E1F93E2EBF0E0EF93FF931981012FD5
:10343C001127A0E1B0E0E89445F80E94F06F065F18
:10344C001F4FFF91EF91E00FF11F0E94246B0F9122
:10345C00102B1093AC031FE11093B30310E00AE0A0
:10346C000E94DB6ACF93DF9310E01A930E94D12F56
:10347C00DF91CF9108952197CF93DF931FEF1A938C
:10348C000E94D12FDF91CF9119811F701983E8E031
:10349C00F0E0FA93EA9310E0108319E01A9310818C
:1034AC00088101171FEF08F01127112311F00C945C
:1034BC00921A182DE8E4F2E01F700027E10FF01FBC
:1034CC0010811B83E2EBF0E0EF93FF931C81012F43
:1034DC001127A0E1B0E0E89445F80E94F06F0F933B
:1034EC001F93182D012F11273F912F91020F131F9E
:1034FC00FF91EF91E00FF11FEF93FF931B81FF9171
:10350C00EF910E94026BE981FA811081139510836F
:10351C00112311F00C94561A2396E2EBF0E0EF9382
:10352C00FF931981012F1127A0E1B0E0E89445F831
:10353C000E94F06F065F1F4FFF91EF91E00FF11F9C
:10354C00EF93FF931091AC031F71FF91EF910E94C9
:10355C00026BCF93DF9310E01A930E94D12FDF916F
:10356C00CF9108952197CF93DF931FEF1A930E9469
:10357C00D12FDF91CF91E8E0F0E0FA93EA9310E0DD
:10358C0010831CE01A931081088101171FEF08F0BB
:10359C001127112311F00C940F1BE2EBF1E0EF93C8
:1035AC00FF931C81012F1127A0E1B0E0E89445F8AE
:1035BC000E94F06F0F931F93182D012F11273F912D
:1035CC002F91020F131FFF91EF91E00FF11F0E943B
:1035DC00246B1B83182D1F931B81E8E5F2E0AF9140
:1035EC00AF70BB27EA0FFB1F1083182D1F9319E038
:1035FC00E5E5F3E0AF91AF70BB27EA0FFB1F10833B
:10360C00E981FA81108113951083112311F00C9428
:10361C00CA1A23961091AC031F7D1F93E2EBF1E0C5
:10362C00EF93FF931981012F1127A0E1B0E0E894EB
:10363C0045F80E94F06F035F1F4FFF91EF91E00F71
:10364C00F11F0E94246B0F91102B1093AC0310E20E
:10365C001093B3031091B1031F731F93E2EBF1E0CE
:10366C00EF93FF931981012F1127A0E1B0E0E894AB
:10367C0045F80E94F06F025F1F4FFF91EF91E00F32
:10368C00F11F0E94246B0F91102B1093B10310ECBF
:10369C001093B40310E00AE00E94DB6ACF93DF932F
:1036AC0010E01A930E94D12FDF91CF9108952197AA
:1036BC00CF93DF931FEF1A930E94D12FDF91CF91FD
:1036CC0019811F701983E8E0F0E0FA93EA9310E097
:1036DC0010831CE01A931081088101171FEF08F06A
:1036EC001127112311F00C94AE1B182DE8E5F2E014
:1036FC001F700027E10FF01F10811B83E2EBF1E03C
:10370C00EF93FF931C81012F1127A0E1B0E0E89407
:10371C0045F80E94F06F0F931F93182D012F11275E
:10372C003F912F91020F131FFF91EF91E00FF11FAB
:10373C00EF93FF931B81FF91EF910E94026BE98144
:10374C00FA81108113951083112311F00C94721BC4
:10375C002396E2EBF1E0EF93FF931981012F1127F0
:10376C00A0E1B0E0E89445F80E94F06F035F1F4FB2
:10377C00FF91EF91E00FF11FEF93FF931091AC03CA
:10378C001072FF91EF910E94026BE2EBF1E0EF936C
:10379C00FF931981012F1127A0E1B0E0E89445F8BF
:1037AC000E94F06F025F1F4FFF91EF91E00FF11F2E
:1037BC00EF93FF931091B103107CFF91EF910E9456
:1037CC00026BCF93DF9310E01A930E94D12FDF91FD
:1037DC00CF910895E8E0F0E0FA93EA9310E01083BB
:1037EC001FE11A931081088101171FEF08F01127B0
:1037FC00112311F00C94221C182D1F93E2E1F0E020
:10380C00EF93FF93182D012F1127FF91EF91E00FEC
:10381C00F11F0E94246BE8E6F2E0AF91AF71BB2779
:10382C00EA0FFB1F1083E981FA8110811395108335
:10383C00112311F00C94F91B239610918602117030
:10384C00113010E009F41FEF112311F40C94331C08
:10385C001091B10310611093B10310918602127094
:10386C00123010E009F41FEF112311F40C94431CD7
:10387C001091B10310621093B10310917502109363
:10388C00E303109174021093E403109185021F70EE
:10389C0010931F0410918502169516951695169582
:1038AC0010931E040895E8E0F0E0FA93EA9310E018
:1038BC0010831FE01A931081088101171FEF08F085
:1038CC001127112311F00C94A21C182D1F93E2E563
:1038DC00F0E0EF93FF93182D012F1127FF91EF913B
:1038EC00E00FF11F0E94246BE8EAF2E0AF91AF7099
:1038FC00BB27EA0FFB1F1083182D1F93E2EAF0E0A1
:10390C00EF93FF93182D012F1127FF91EF91E00FEB
:10391C00F11F0E94246BE8EBF2E0AF91AF70BB2774
:10392C00EA0FFB1F1083E981FA8110811395108334
:10393C00112311F00C94621C2396E8E0F0E0FA934A
:10394C00EA9310E010831FE11A931081088101178C
:10395C001FEF08F01127112311F00C94F11C182DF6
:10396C001F93E2E6F0E0EF93FF93182D012F112740
:10397C00000F111FFF91EF91E00FF11F0E942D6BB3
:10398C00E8ECF2E0AF91AF71BB27AA0FBB1FEA0FB7
:10399C00FB1F11830083182D1F93E2E3F0E0EF93DC
:1039AC00FF93182D012F1127FF91EF91E00FF11FBD
:1039BC000E94246BE8E8F2E0AF91AF71BB27EA0FED
:1039CC00FB1F1083E981FA81108113951083112359
:1039DC0011F00C94AC1C23961091B302109393022B
:1039EC0008952A971091DE031F93109174030F9181
:1039FC00102B1F93109172030F91102B1095112304
:103A0C0011F40C940B1D0C940A1E10917E021030B4
:103A1C0010E009F41FEF112311F40C941C1D1091EC
:103A2C007F0216951093D2030C94271D10917403EA
:103A3C00112311F40C94271D109134031695109337
:103A4C00D2031091DE03112311F40C94311D10914B
:103A5C00D3031093D20310E01093720310E0109371
:103A6C00740310E01093DE031091D20316951F839C
:103A7C001F8116951E8310918002103010E009F4FE
:103A8C001FEF112311F40C94501D10918102188317
:103A9C000C94541D109132031695188310918202C8
:103AAC00169516951C5F1F93CF93DF931091D2033D
:103ABC001A93109182021A9314EB1A930E94CD6AF6
:103ACC00DF91CF910F91100F1A831A811F931091D0
:103ADC00D2030F91100F19831091D2031F931A81E7
:103AEC00169516950F91100F18871E811E5F1D835A
:103AFC000091AC03112704FD1FEF1F930091AC0341
:103B0C00112705FD1FEF0F91102B112311F40C94AD
:103B1C00C21D109151021170113010E009F41FEF09
:103B2C00112311F40C94B21DCF93DF931091D20397
:103B3C001A9319811A9310E51A930E94CD6ADF919A
:103B4C00CF91165F19871D811F931E8116950F91BA
:103B5C00100F1D830C94C01DCF93DF931F811A93FC
:103B6C0019811A9318E71A930E94CD6ADF91CF91AD
:103B7C00165F19870C94D01DCF93DF931F811A9376
:103B8C0019811A9316E91A930E94CD6ADF91CF918D
:103B9C001A5F19871091D203105F1F931F810F9129
:103BAC00100F1C83CF93DF931D811A9310E41A938B
:103BBC000E94EB05DF91CF91CF93DF9319811A937C
:103BCC0011E41A930E94EB05DF91CF91CF93DF9311
:103BDC0018851A9312E41A930E94EB05DF91CF918A
:103BEC00CF93DF9319851A9313E41A930E94EB0574
:103BFC00DF91CF91CF93DF931C811A9314E41A9326
:103C0C000E94EB05DF91CF91089521971091B2029C
:103C1C00103010E009F01FEF112311F40C942D1E3D
:103C2C0010917303112311F40C942B1ECF93DF937B
:103C3C00109133031A9310EA1A931FEF1A930E94F0
:103C4C00CD6ADF91CF91109393020C94341E109196
:103C5C00B302109393021FEF109373031091BD03E3
:103C6C00112311F40C94441E1091AC021093D00348
:103C7C001091AD021093D1030C944C1E1091AA021A
:103C8C001093D0031091AB021093D1031091BE038B
:103C9C001095112311F40C94591E10E01093D003BD
:103CAC0010E01093D1031FEF00913702002309F0AD
:103CBC001095112311F40C94941E1091CE031F93A4
:103CCC001091D0030F91011710E009F01FEF112391
:103CDC0011F40C94941E1091D0031F931091CE03E9
:103CEC000F91011710E011F008F01FEF112311F4E0
:103CFC000C948B1E1091CE0313951093CE03109140
:103D0C00AE02109337020C94941E1091CE031A95A8
:103D1C001093CE031091B002109337021FEF009155
:103D2C003802002309F01095112311F40C94CF1EC6
:103D3C001091CF031F931091D1030F91011710E035
:103D4C0009F01FEF112311F40C94CF1E1091D10325
:103D5C001F931091CF030F91011710E011F008F091
:103D6C001FEF112311F40C94C61E1091CF03139561
:103D7C001093CF031091AF02109338020C94CF1E06
:103D8C001091CF031A951093CF031091B102109399
:103D9C0038020091CC031091CD030F931F93109117
:103DAC00CE03012F11273F912F91020F131F009368
:103DBC00CC031093CD031091CE0310938802109175
:103DCC00CF0310939802CF93DF93109193021A9321
:103DDC001BEC1A930E94EB05DF91CF91CF93DF93ED
:103DEC00109188021A9310EC1A930E94EB05DF9144
:103DFC00CF91CF93DF93109198021A9310ED1A93F1
:103E0C000E94EB05DF91CF911091BD031F93109190
:103E1C00BE030F911023E894112309F068941091BC
:103E2C00B90311F91093B9031091BD0310951F93A9
:103E3C001091BE030F911023E894112309F068949C
:103E4C001091B90310F91093B9031091B9031093A1
:103E5C00BA03CF93DF9311E21A9313E01A9313E092
:103E6C000AEB1A930A9310E001E01A930A930E944A
:103E7C00376ADF91CF9110E0109373030895259763
:103E8C00CF93DF930E941115DF91CF91CF93DF93E6
:103E9C000E946A15DF91CF91CF93DF930E94CE12CF
:103EAC00DF91CF91CF93DF930E941614DF91CF91C6
:103EBC00CF93DF930E944814DF91CF91CF93DF9380
:103ECC000E94EA11DF91CF91CF93DF930E94C4142B
:103EDC00DF91CF91CF93DF930E94F71CDF91CF91AD
:103EEC00CF93DF930E940B1EDF91CF9108950E9418
:103EFC009406CF93DF9318E0412A0BEA1AE61A9343
:103F0C000A93EDE1F4EE0E94AC6CDF91CF910E942C
:103F1C008D061091D104112311F40C94C61F01E0ED
:103F2C0010E020E030E00093B6041093B704209327
:103F3C00B8043093B904E8E8F4E0EF93FF933196BA
:103F4C00FA93EA931FE11A9317EF41221FEB4122D8
:103F5C00EAE2F4EE0E94AC6C1FE11F9318810F9102
:103F6C00011B102FFF91EF91108323960E9447089D
:103F7C00CF93DF9312E61A930E949200DF91CF91B8
:103F8C001091CF04112311F40C94FD1F02E010E0EA
:103F9C0020E030E00093B6041093B7042093B804EB
:103FAC003093B904E8E8F4E0EF93FF933196FA9379
:103FBC00EA931FE11A9317EF41221FEB4122EAE328
:103FCC00F4EE0E94AC6C1FE11F9318810F91011B42
:103FDC00102FFF91EF91108323960E944708CF93E7
:103FEC00DF9310E61A930E949200DF91CF9110910B
:103FFC00D004112311F40C94342003E010E020E0E1
:10400C0030E00093B6041093B7042093B8043093B7
:10401C00B904E8E8F4E0EF93FF933196FA93EA934E
:10402C001FE11A9317EF41221FEB4122EEE4F4EE4D
:10403C000E94AC6C1FE11F9318810F91011B102F74
:10404C00FF91EF91108323960E944708CF93DF9343
:10405C0011E61A930E949200DF91CF9100E010E0DC
:10406C0020E030E000932A0410932B0420932C04BE
:10407C0030932D041091D404112311F40C946F205F
:10408C0004E010E020E030E00093B6041093B70495
:10409C002093B8043093B904E8E8F4E0EF93FF936D
:1040AC003196FA93EA931FE11A9317EF41221FEB13
:1040BC004122E2E6F4EE0E94AC6C1FE11F931881E2
:1040CC000F91011B102FFF91EF91108323960E94EB
:1040DC0047081091D304112311F40C94A42010E878
:1040EC00109548E333E00E94906905E010E020E071
:1040FC0030E00093B6041093B7042093B8043093C7
:10410C00B904E8E8F4E0EF93FF933196FA93EA935D
:10411C001FE11A9317EF41221FEB4122E3E7F4EE64
:10412C000E94AC6C1FE11F9318810F91011B102F83
:10413C00FF91EF91108323960E9447081091CE04B3
:10414C00112311F40C94D32006E010E020E030E0B1
:10415C000093B6041093B7042093B8043093B904B9
:10416C00E8E8F4E0EF93FF933196FA93EA931FE1BA
:10417C001A9317EF41221FEB4122E6E8F4EE0E945E
:10418C00AC6C1FE11F9318810F91011B102FFF9135
:10419C00EF91108323960E9447081091CD041123B0
:1041AC0011F40C94022107E010E020E030E00093C1
:1041BC00B6041093B7042093B8043093B904E8E81C
:1041CC00F4E0EF93FF933196FA93EA931FE11A937D
:1041DC0017EF41221FEB4122E1E9F4EE0E94AC6C97
:1041EC001FE11F9318810F91011B102FFF91EF916D
:1041FC00108323960E944708089510E004E60E945D
:10420C00DB6ACF93DF9310E01A9318E41A930E94A1
:10421C00EB05DF91CF9110E004E60E94DB6ACF93AF
:10422C00DF931FEF1A930E94D12FDF91CF91CF9381
:10423C00DF930E94C414DF91CF91CF93DF9310E0F2
:10424C001A930E94D12FDF91CF910895CF93DF93D2
:10425C0010E01A9310E01A9310E01A930E94486928
:10426C00DF91CF91CF93DF9318E0412A02E219E658
:10427C001A930A93EBE2F7EEEF93FF931A81012F57
:10428C001127AEE0B0E0E89445F80E94F06FFF9182
:10429C00EF91E00FF11F0E94AC6CDF91CF9110E217
:1042AC000E94226910E20E942269CF93DF9310E0F2
:1042BC001A9310E01A9311E01A930E944869DF9147
:1042CC00CF910895CF93DF9310E01A9310E01A93D7
:1042DC0011E01A930E944869DF91CF91CF93DF933D
:1042EC0018E0412A02E219E61A930A93E1EFFAEE7A
:1042FC00EF93FF931A81012F1127ADE0B0E0E89402
:10430C0045F80E94F06FFF91EF91E00FF11F0E94B2
:10431C00AC6CDF91CF9116E00E94226910E00E94F4
:10432C00696908951881112311F40C94AD21CF9370
:10433C00DF9318E0412A02E219E61A930A93EEE998
:10434C00F4EE0E94AC6CDF91CF910C94BB21CF9317
:10435C00DF9318E0412A02E219E61A930A93E2EA83
:10436C00F4EE0E94AC6CDF91CF910895E8E0F0E0A0
:10437C00FA93EA9310E0108315E01A9310810881E8
:10438C0001171FEF08F01127112311F00C94E321F2
:10439C005A9A5B9810E004E60E94DB6A5A985B9A82
:1043AC0010E004E60E94DB6AE981FA811081139522
:1043BC001083112311F00C94C52123965A9A5B9A01
:1043CC0008951091CE04112311F40C94CF2210E017
:1043DC000E946069EFE3F4E0EF93FF933196FA9358
:1043EC00EA9318E21A9317EF41221FEB41221C812A
:1043FC00CF93DF931A9312E01A9300E00A9310E222
:10440C001A930E94CD6CDF91CF9118E21F93188103
:10441C000F91011B102FFF91EF9110832396CF93D7
:10442C00DF9318E0412A02E219E61A930A93E6EAAE
:10443C00F4EE0E94AC6CDF91CF9119811F9318811F
:10444C000F91011710E009F01FEF112311F40C94D8
:10445C004022CF93DF9318E0412A02E219E61A9327
:10446C000A93EFE3F4E00E94B56CDF91CF9110E278
:10447C000E942269CF93DF9318E0412A02E219E6E9
:10448C001A930A93EDEAF4EE0E94AC6CDF91CF9193
:10449C00CF93DF9310E01A9310E01A9311E01A9364
:1044AC000E944869DF91CF91CF93DF9318E0412AA6
:1044BC0002E219E61A930A93E0EBF4EE0E94AC6C5C
:1044CC00DF91CF91EFE3F4E0EF93FF933196FA9302
:1044DC00EA9318E21A9317EF41221FEB41221B813A
:1044EC00CF93DF931A9312E01A9300E00A9310E231
:1044FC001A930E94CD6CDF91CF9118E21F93188113
:10450C000F91011B102FFF91EF9110832396CF93E6
:10451C00DF9310E01A9316E01A9311E01A930E949D
:10452C004869DF91CF91CF93DF9318E0412A02E2E3
:10453C0019E61A930A93EFE3F4E00E94B56CDF914D
:10454C00CF9110912803103010E009F41FEF1123C4
:10455C0011F40C94C122CF93DF9318E0412A02E2AC
:10456C0019E61A930A93E7EBF4EE0E94AC6CDF9118
:10457C00CF910C94CF22CF93DF9318E0412A02E223
:10458C0019E61A930A93EEEBF4EE0E94AC6CDF91F1
:10459C00CF910E94BC2108951091CE04112311F4E7
:1045AC000C94032310E00E946069CF93DF9318E012
:1045BC00412A02E219E61A930A93E5ECF4EE0E9402
:1045CC00AC6CDF91CF91CF93DF9310E01A9310E096
:1045DC001A9311E01A930E944869DF91CF91CF93FF
:1045EC00DF9318E0412A02E219E61A930A93E7EDE9
:1045FC00F4EE0E94AC6CDF91CF9108951091CE0433
:10460C001095112311F40C940D230C946123CF936A
:10461C00DF9310E01A930E942C21DF91CF91188127
:10462C00112311F40C944D23CF93DF9318E0412AFE
:10463C0002E219E61A930A93E6EEF4EE0E94AC6CD1
:10464C00DF91CF911981112311F40C943D23CF9359
:10465C00DF9318E0412A02E219E61A930A93EBEE73
:10466C00F4EE0E94AC6CDF91CF910C944B23CF9362
:10467C00DF9318E0412A02E219E61A930A93E0EF5D
:10468C00F4EE0E94AC6CDF91CF910C945B23CF9332
:10469C00DF9318E0412A02E219E61A930A93E5EF38
:1046AC00F4EE0E94AC6CDF91CF9110E00E9469692E
:1046BC0015E010933D020895CF93DF9318811A9360
:1046CC000E949821DF91CF9116E00E94226910E0A0
:1046DC000E9469690895CF93DF9318E0412A02E2A2
:1046EC0019E61A930A931A81CF93DF931A9313E066
:1046FC001A9300E00A9310E21A93689443F80E940C
:10470C00CD6CDF91CF91DF91CF9116E00E942269A1
:10471C0010E00E9469690895CF93DF9318E0412A55
:10472C0002E219E61A930A930A811B81CF93DF9355
:10473C001A930A9313E01A9300E00A9310E21A9367
:10474C00689443F8689445F8E89454F855F80E9436
:10475C00066FDF91CF91DF91CF9116E00E94226915
:10476C0010E00E9469690895CF93DF930091AC0328
:10477C00112700FD1FEF1A930E949821DF91CF9112
:10478C000091AC03112700FD1FEF1095112311F4BC
:10479C000C94D52310E00E9469690C944D2410E20E
:1047AC000E9422690091AC03112701FD1FEF112318
:1047BC0011F40C94F123CF93DF9318E0412A02E219
:1047CC0019E61A930A93EAEFF4EE0E94AC6CDF91AF
:1047DC00CF910C94FF23CF93DF9318E0412A02E290
:1047EC0019E61A930A93EFEFF4EE0E94AC6CDF918A
:1047FC00CF910091AC03112702FD1FEF112311F48F
:10480C000C941824CF93DF9318E0412A02E219E6A6
:10481C001A930A93E4E0F5EE0E94AC6CDF91CF9111
:10482C000C942624CF93DF9318E0412A02E219E678
:10483C001A930A93E9E0F5EE0E94AC6CDF91CF91EC
:10484C000091AC03112703FD1FEF112311F40C94FD
:10485C003F24CF93DF9318E0412A02E219E61A9322
:10486C000A93EEE0F5EE0E94AC6CDF91CF910C94C4
:10487C004D24CF93DF9318E0412A02E219E61A93F4
:10488C000A93E2E1F5EE0E94AC6CDF91CF910895B2
:10489C002197CF93DF930091AC03112704FD1FEFF9
:1048AC001A930E949821DF91CF9110E20E94226905
:1048BC00CF93DF930091AC03112705FD1FEF1A93E3
:1048CC000E949821DF91CF9110E20E9422691091F1
:1048DC0051021170113010E009F41FEF112311F483
:1048EC000C947D2413E40E9422690C94802416E518
:1048FC000E9422691091510216951F5C1883188131
:10490C000E94226910E00E9469690895219719811B
:10491C001170113010E009F41FEF112311F40C94F5
:10492C00E224198116951983E8E0F0E0FA93EA93F2
:10493C0010E01083EF93FF931B81FF91EF911A937B
:10494C001081088101171FEF08F01127112311F0B6
:10495C000C94BC2410E00E942269E981FA81108138
:10496C0013951083112311F00C94A7242396E8E0DF
:10497C00F0E0FA93EA93EF93FF931B81FF91EF9191
:10498C00108316E01A931081088101171FEF08F0AD
:10499C001127112311F00C94DF2417E00E942269D7
:1049AC00E981FA81108113951083112311F00C9475
:1049BC00CA2423960C942E25198116951983E8E0A8
:1049CC00F0E0FA93EA9311E01083EF93FF931B81CD
:1049DC00FF91EF911A931081088101171FEF08F0D6
:1049EC001127112311F00C94072510E00E94226965
:1049FC00E981FA81108113951083112311F00C9425
:104A0C00F224239611E00E942269E8E0F0E0FA9388
:104A1C00EA93EF93FF931B81FF91EF91108316E0C4
:104A2C001A931081088101171FEF08F01127112329
:104A3C0011F00C942D2517E00E942269E981FA816E
:104A4C00108113951083112311F00C9418252396C3
:104A5C0012E00E94226916E00E94226910E00E9476
:104A6C006969CF93DF9310E01A931AE01A9311E05F
:104A7C001A930E944869DF91CF9108952297CF93A2
:104A8C00DF9310E01A9310E01A9310E01A930E942F
:104A9C004869DF91CF911091C003193010E011F0EB
:104AAC0008F01FEF112311F40C94682511E30E94F8
:104ABC0022691091C0031A5D198319810E94226921
:104ACC000C9472251091C003105D198319810E94FA
:104ADC00226910E20E9422691091C003103010E08C
:104AEC0009F41FEF1F931091C0031F3010E009F45D
:104AFC001FEF0F91102B112311F40C949525CF93CC
:104B0C00DF9318E0412A02E219E61A930A93E6E1D0
:104B1C00F5EE0E94AC6CDF91CF910C94A325CF9352
:104B2C00DF9318E0412A02E219E61A930A93EAE1AC
:104B3C00F5EE0E94AC6CDF91CF91109128031030F0
:104B4C0010E009F41FEF112311F40C94B22516E0B8
:104B5C000E9422690C94B52510E20E942269E8E0BB
:104B6C00F0E0FA93EA9310E0108318E01A931081A6
:104B7C00088101171FEF08F01127112311F00C9475
:104B8C00ED25182DE8E4F2E01F770027E10FF01F68
:104B9C001081195F1B83CF93DF931B811A9310E154
:104BAC001A9310EF1A930E94CD6ADF91CF911B8359
:104BBC001B81105D1C831C810E942269E981FA8192
:104BCC00108113951083112311F00C94BE2523969C
:104BDC00CF93DF9310E01A9310E01A9311E01A931D
:104BEC000E944869DF91CF911091C103193010E0F8
:104BFC0011F008F01FEF112311F40C94112611E39E
:104C0C000E9422691091C1031A5D198319810E94B7
:104C1C0022690C941B261091C103105D1983198114
:104C2C000E94226910E20E9422691091C103103087
:104C3C0010E009F41FEF1F931091C1031F3010E017
:104C4C0009F41FEF0F91102B112311F40C943E2635
:104C5C00CF93DF9318E0412A02E219E61A930A93E4
:104C6C00EEE1F5EE0E94AC6CDF91CF910C944C26EA
:104C7C00CF93DF9318E0412A02E219E61A930A93C4
:104C8C00E2E2F5EE0E94AC6CDF91CF91109128031B
:104C9C00103010E009F41FEF112311F40C945B2673
:104CAC0010E20E9422690C945E2616E00E94226992
:104CBC00E8E0F0E0FA93EA9310E1108318E11A931C
:104CCC001081088101171FEF08F01127112311F033
:104CDC000C949626182DE8E4F2E01F770027E10FDC
:104CEC00F01F1081195F1B83CF93DF931B811A93E5
:104CFC0010E11A9310EF1A930E94CD6ADF91CF91B5
:104D0C001B831B81105D1C831C810E942269E9811D
:104D1C00FA81108113951083112311F00C946726DE
:104D2C002396089526971985143610E008F01FEF86
:104D3C00112311F40C94A82610E00AE01D830C83B7
:104D4C000C94CA261985123310E008F01FEF1123BA
:104D5C0011F40C94B72610E005E01D830C830C9421
:104D6C00CA261985143110E008F01FEF112311F435
:104D7C000C94C62610E002E01D830C830C94CA260A
:104D8C0010E001E01D830C83FE01EF93FF931E8165
:104D9C00FF91EF9111931E811F3710E011F008F075
:104DAC001FEF112311F40C94E126FE0131961FEF35
:104DBC0011930C94E526FE01319610E011930881B5
:104DCC0019810F931F930C811D81689445F8BF9135
:104DDC00AF910E94F06F198308831985012F112759
:104DEC000F931F93088119813F912F91020F131F6D
:104DFC001B830A830A811B810F931F930C811D81D6
:104E0C00689445F8BF91AF910E9411700F931F9356
:104E1C000C811D81689445F8BF91AF910E94F06F91
:104E2C001B830A830A811B811A930A931A85012F0B
:104E3C0011271A930A931B85012F11271A930A9392
:104E4C000E94F8702696102F0895CF93DF9310E0F0
:104E5C001A931FE01A9310E01A930E944869DF918D
:104E6C00CF911A811F9318810F9101171FEF08F032
:104E7C001127112311F40C94482713E00E94226986
:104E8C000C944B2710E20E942269CF93DF9310E021
:104E9C001A931FE01A9311E01A930E944869DF914C
:104EAC00CF911A811F9319810F91011710E011F006
:104EBC0008F01FEF112311F40C94692714E00E94E1
:104ECC0022690C946C2710E20E94226908952297A3
:104EDC0010E00E947A69176C109339020A811B81C9
:104EEC00103009F4003010E011F008F01FEF11231E
:104EFC0011F40C9485270A811B810E94DB6A1091A6
:104F0C0039021F3F10E009F41FEF112311F40C9428
:104F1C00942710E00C9497270C9497271FEF0C9470
:104F2C0097270895229710913C02198319811883B1
:104F3C0019811F9310913B020F91011B102F1983A4
:104F4C00188110933B021981089524971C8110300D
:104F5C0010E009F01FEF18831881112311F40C9441
:104F6C00BF271D811E3110E011F008F01FEF1093C8
:104F7C00C6031D811A3011F00C940828CF93DF93CF
:104F8C00109151021A9310E01A9315E01A931F8195
:104F9C001A930E949826DF91CF9110935102CF93D0
:104FAC00DF930E944E24DF91CF91CF93DF9310E0DB
:104FBC001A931FE01A9310E01A930E944869DF912C
:104FCC00CF9110E20E942269CF93DF9310E01A93E5
:104FDC001AE01A9311E01A930E944869DF91CF915D
:104FEC0016E00E942269CF93DF93109151021A931D
:104FFC0010E01A9315E01A930E942B27DF91CF91A2
:10500C000C94032A1B3011F00C94432818811123A3
:10501C0011F40C9420280091AC03112704FD1FEF10
:10502C001095E894112309F068941091AC0314F9CD
:10503C001093AC03CF93DF930E944E24DF91CF915A
:10504C00CF93DF9310E01A9313E01A9311E01A93A5
:10505C000E944869DF91CF9116E00E942269CF939C
:10506C00DF9311E01A9310E01A9312E01A930E9446
:10507C002B27DF91CF910C94032A1C3011F00C9448
:10508C00AD281091AC031F701B831B81012F11E005
:10509C000695111FE8F716951695169516951B8310
:1050AC00CF93DF931B811A9317E01A931FE01A9387
:1050BC001F811A930E949826DF91CF911B831B812D
:1050CC001A831B81012F11E00695111FE8F7169525
:1050DC001695169516951B831881112311F40C94B3
:1050EC0080281091AC03107F1F931B810F91102B04
:1050FC001093AC030E94BA23CF93DF931A811A93B7
:10510C0017E01A931FE01A930E942B27DF91CF917F
:10511C00CF93DF9310E01A9313E01A9311E01A93D4
:10512C000E944869DF91CF910091AC03112700FDDB
:10513C001FEF112311F40C94A82815E00E9422698A
:10514C000C94AB2816E00E9422690C94032A1F30A1
:10515C0011F00C94E8281881112311F40C94C52833
:10516C000091AC03112705FD1FEF1095E894112356
:10517C0009F068941091AC0315F91093AC03CF931C
:10518C00DF930E944E24DF91CF91CF93DF9310E0F9
:10519C001A9317E01A9311E01A930E944869DF9151
:1051AC00CF9116E00E942269CF93DF9311E01A93FE
:1051BC0010E01A9312E01A930E942B27DF91CF91E3
:1051CC000C94032A1D3111F00C941A291881112307
:1051DC0011F40C9400290091B103112706FD1FEF67
:1051EC001095E894112309F068941091B10316F905
:1051FC001093B103CF93DF930091B103112706FDF8
:10520C001FEF1A930E946223DF91CF91CF93DF930C
:10521C0011E01A9310E01A9312E01A930E942B27B4
:10522C00DF91CF910C94032A1E3111F00C944C2970
:10523C001881112311F40C9432290091B103112718
:10524C0007FD1FEF1095E894112309F06894109155
:10525C00B10317F91093B103CF93DF930091B1030E
:10526C00112707FD1FEF1A930E946223DF91CF9144
:10527C00CF93DF9311E01A9310E01A9312E01A9374
:10528C000E942B27DF91CF910C94032A103211F03E
:10529C000C948A291091B1031073169516951695D6
:1052AC0016951B83CF93DF931B811A9310E01A93EF
:1052BC0013E01A931F811A930E949826DF91CF91C5
:1052CC001B83CF93DF931B811A930E947123DF9171
:1052DC00CF911091B1031F7C1F931B81110F110FE4
:1052EC00110F110F0F91102B1093B103CF93DF936C
:1052FC001B811A9310E01A9313E01A930E942B2728
:10530C00DF91CF910C94032A193311F00C94C82916
:10531C00CF93DF93109185021695169516951695D9
:10532C001A9310E01A931FE01A931F811A930E948C
:10533C009826DF91CF9110931E04CF93DF93109199
:10534C001E041A930E947123DF91CF91CF93DF93A8
:10535C0010911E041A9310E01A931FE01A930E94E6
:10536C002B27DF91CF9110911E04110F110F110FEC
:10537C00110F1F9310911F040F91102B1093850286
:10538C000C94032A1A3311F00C94032ACF93DF9355
:10539C00109185021F701A9310E01A931FE01A9354
:1053AC001F811A930E949826DF91CF9110931F04AE
:1053BC00CF93DF9310911F041A930E947123DF91F6
:1053CC00CF91CF93DF9310911F041A9310E01A938F
:1053DC001FE01A930E942B27DF91CF9110911E048E
:1053EC00110F110F110F110F1F9310911F040F911B
:1053FC00102B109385020C94032A08952797109173
:10540C00CE0410951F931885103010E009F41FEF8F
:10541C000F91102B112311F40C94162A0C94622C5E
:10542C001F81103010E009F01FEF1883E1EAF6EE4F
:10543C00EF93FF931885012F1127FF91EF91E00F48
:10544C00F11F14911B83E6EEF6EEEF93FF93188594
:10545C00012F1127FF91EF91E00FF11F14911C8385
:10546C0018851D3010E009F41FEF112311F40C9472
:10547C00672ACF93DF931091C0031A9310E01A930D
:10548C001FE01A931A851A930E949826DF91CF91E8
:10549C001093C003CF93DF930E944425DF91CF91EB
:1054AC00CF93DF931091C0031A9310E01A931FE06F
:1054BC001A930E942B27DF91CF910C94622C0C94A1
:1054CC00962A18851E3010E009F41FEF112311F4F1
:1054DC000C94962ACF93DF931091C1031A9310E08A
:1054EC001A931FE01A931A851A930E949826DF913B
:1054FC00CF911093C103CF93DF930E944425DF918A
:10550C00CF91CF93DF931091C1031A9310E01A93AC
:10551C001FE01A930E942B27DF91CF910C94622CE1
:10552C00CF93DF9318851A930E942C21DF91CF9192
:10553C001B811F3F10E009F41FEF112311F40C9491
:10554C00B32ACF93DF9318851A9318851A930E9468
:10555C00AB27DF91CF910C94F12B1B81103810E00D
:10556C0008F01FEF112311F40C94032B1B811F77F0
:10557C001B831B81E8E4F2E01F770027E10FF01F8B
:10558C0010811695169516951E83CF93DF931E8169
:10559C001A9310E01A931FE01A931A851A930E941B
:1055AC009826DF91CF911E83CF93DF931E811A93A0
:1055BC000E948C24DF91CF91CF93DF931E811A939D
:1055CC0010E01A931FE01A930E942B27DF91CF91C2
:1055DC001881112311F40C94012B1B811F931E8134
:1055EC00110F110F110FE8E4F2E0AF91AF77BB2769
:1055FC00EA0FFB1F10830C94F12B1C81113010E06F
:10560C0009F41FEF112311F40C94442B1B81E8E4D3
:10561C00F2E01F770027E10FF01F1081112309F032
:10562C001FEF19831FEF1093C6031881112311F478
:10563C000C94232B198110951983CF93DF93198127
:10564C001A930E946223DF91CF91CF93DF9311E0E5
:10565C001A9310E01A9312E01A930E942B27DF91F1
:10566C00CF911B811F931981E8E4F2E0AF91AF77E2
:10567C00BB27EA0FFB1F10830C94F12B1B81E8E472
:10568C00F2E01F770027E10FF01F10811E831885B1
:10569C00153210E009F41FEF112311F40C94592B5F
:1056AC001E811A5F1E83CF93DF931E811A9310E025
:1056BC001A931E811A931A851A930E949826DF91C9
:1056CC00CF911E831B811F931E81E8E4F2E0AF9102
:1056DC00AF77BB27EA0FFB1F10831885113211F02F
:1056EC000C94852BCF93DF931E811F5F1A930E941E
:1056FC007123DF91CF911FEF812E0C94D02B12329E
:10570C0011F00C948D2B14E1812E0C94D02B1332B0
:10571C0011F00C94952B10E0812E0C94D02B14329C
:10572C0011F00C949D2B15E0812E0C94D02B15327E
:10573C0011F00C94B62B1E81165010936802CF9367
:10574C00DF931E81012F1127065010401A930A93E4
:10575C000E949223DF91CF911FEF812E0C94D02BBE
:10576C00133311F00C94BE2B10E1812E0C94D02B22
:10577C001F3311F00C94C62B18E0812E0C94D02BF7
:10578C00CF93DF931E811A930E947123DF91CF91E7
:10579C001FEF812E182D1F3F10E009F01FEF112372
:1057AC0011F40C94E52BCF93DF93182D1F931E81CE
:1057BC000F91100F1A930E946821DF91CF91CF9314
:1057CC00DF931E811A9310E01A931E811A930E9484
:1057DC002B27DF91CF91CF93DF9310E01A931DE02D
:1057EC001A9310E01A930E944869DF91CF911885A3
:1057FC001F3110E008F01FEF112311F40C940B2C47
:10580C0014E40E9422690C94262C18851E3010E09A
:10581C0011F008F01FEF112311F40C941A2C1CE456
:10582C000E9422690C94262C18851D301FEF08F05D
:10583C001127112311F40C94262C15E50E942269D2
:10584C001881112311F40C94622C10919302109373
:10585C00B3021FEF10937203CF93DF930E94CE120B
:10586C00DF91CF91CF93DF930E941614DF91CF91EC
:10587C00CF93DF930E944814DF91CF91CF93DF93A6
:10588C000E94EA11DF91CF911B81103210E008F0D9
:10589C001FEF112311F40C94562C1FEF1093C60319
:1058AC001B81103410E008F01FEF112311F40C943D
:1058BC00622C1FEF1093CB030895219710E01883EF
:1058CC00CF93DF9310917D0210951A930E948E0254
:1058DC00DF91CF91CF93DF930E94F71CDF91CF9193
:1058EC00CF93DF930E940B1EDF91CF91FE011081AD
:1058FC0013951083CF93DF9310E00AE01A930A9369
:10590C000E946D27DF91CF9110951F93188113364C
:10591C0010E011F008F01FEF0F91102B112311F470
:10592C000C94662C188114361FEF08F011271123E4
:10593C0011F40C94D52C10913E021A931DE01A937D
:10594C001EE01A930E94DF702396112311F40C941D
:10595C00B52C10913F0210933E020C94C52C109163
:10596C003E0210933F0210913E021A931DE01A93CF
:10597C001EE01A930E94D570239610933E02CF938B
:10598C00DF9310913E021A9310E01A930E94042A9E
:10599C00DF91CF9111E010933D020C94162E1091D3
:1059AC003E02103010F40C94FA2C1D3019F010F04B
:1059BC000C94FA2CCF93DF931091C0031A9310918F
:1059CC00C0031A930E94E721DF91CF91CF93DF930D
:1059DC001091C0031A930E94411ADF91CF911FEFCF
:1059EC001093C9030C94EA2D1E3010F40C941D2D49
:1059FC001E3119F010F00C941D2DCF93DF931091E4
:105A0C00C1031A931091C1031A930E94E721DF91ED
:105A1C00CF91CF93DF931091C1031A930E945D1B1A
:105A2C00DF91CF911FEF1093CA030C94EA2D1F3115
:105A3C0011F00C94332D0E94D222E2E3F0E03B965D
:105A4C00109193020E94026BE2E5F0E03B961091FC
:105A5C00B3020E94026B0C94EA2D103211F00C94DC
:105A6C00422D0E94D222E2E1F0E07E961091860255
:105A7C000E94026B0C94EA2D113210F40C944D2DF3
:105A8C00183319F010F00C944D2D0C94562D1F3327
:105A9C0010F40C94822D133419F010F00C94822D08
:105AAC000E94D222E1EAF6EEEF93FF9310913E02B0
:105ABC00012F1127FF91EF91E00FF11F14911F712E
:105ACC00812EE2E1F0E0EF93FF93182D012F1127C7
:105ADC00FF91EF91E00FF11FEF93FF93182DE8E684
:105AEC00F2E01F710027E10FF01F1081FF91EF9181
:105AFC000E94026B0C94EA2D193311F00C94882D32
:105B0C000C948C2D1A3311F00C94A42D0E94D222DB
:105B1C0010911E04110F110F110F110F1F931091E3
:105B2C001F040F91102B10938502E2E1F0E07D969B
:105B3C00109185020E94026B0C94EA2D1B3310F419
:105B4C000C94AF2D1E3319F010F00C94AF2D0C9457
