:10007C0010B11370B12E1B2D1F931C2D0F91011756
:10008C0010E009F01FEF112311F40C9481001B2DCB
:10009C00103010E009F41FEF112311F40C947D00C3
:1000AC001D2D133010E009F41FEF112311F40C94E3
:1000BC007D001C2D113010E009F41FEF112311F4F9
:1000CC000C946F0010913C02139510933C020C940D
:1000DC007D001C2D123010E009F41FEF112311F4D8
:1000EC000C947D0010913C021A9510933C021C2D2F
:1000FC00D12E1B2DC12E089518811F9316E11F932D
:10010C00E89440F8EAE2F4E0A4E0B0E03F914F91CB
:10011C0050E00E94636B089500E010E020E030E0B6
:10012C0000932A0410932B0420932C0430932D0459
:10013C00CF93DF9318811A930E948200DF91CF91A5
:10014C0018811F9312E01F93E89440F8E6E1F0E069
:10015C003F914F91A1E0B0E060E050E00E94636BF2
:10016C0018811F9313E01F93E89440F8E6E1F0E048
:10017C003F914F91A1E0B0E068E250E00E94636BC8
:10018C0018811F9314E01F93E89440F8E6E1F0E027
:10019C003F914F91A1E0B0E064E150E00E94636BAD
:1001AC0018811F9315E01F93E89440F8E6E1F0E006
:1001BC003F914F91A1E0B0E060E850E00E94636B8A
:1001CC0000E010E020E030E000932A0410932B04B0
:1001DC0020932C0430932D04CF93DF9318811A9322
:1001EC000E948200DF91CF91089519E110933302A0
:1001FC005A9808951AE0109333025A98089521974B
:10020C0010E51F9309811A811F93E89440F8098126
:10021C001A81102FE6E1F0E0612FA1E0B0E03F91F0
:10022C004F9150E00E94636B10E51F93FE01A1E01B
:10023C00B0E04F910E94406B18810895CF93DF93EB
:10024C0010E51A930A811B811A930A93FE013396C7
:10025C008F011A930A9310E001E01A930A930E94FB
:10026C00596BDF91CF9110E007E00E94F36B08957A
:10027C002297CF93DF9310E51A930F8118851A9369
:10028C000A93FE0135968F011A930A9310E004E04D
:10029C001A930A930E94596BDF91CF9110E007E0FB
:1002AC000E94F36B08952B971BB11F701F931C8535
:1002BC00110F110F110F110F0F91102B1BB913E907
:1002CC0010937A0011E00E94026C13EC10937A00E8
:1002DC0010917A001071103010E009F01FEF11230B
:1002EC0011F40C946E0113E810937A001C85E9E468
:1002FC00F3E01F710027E10FF01F108118831881A4
:10030C00012F11271E830D830D811E81015010407A
:10031C001C830B831C85E9E2F3E01F710027E10FBE
:10032C00F01F1081012F112718870F83109179006E
:10033C00012F11270F931F930B811C81019509F439
:10034C001A9510953F912F91020F131F1A87098749
:10035C0009851A85A0E81A27103809F400301FEF18
:10036C0008F01127112311F40C94C00110E000E0E7
:10037C001A87098709851A850F931F930F81188592
:10038C000F931F930D811E813F912F91020F131F0D
:10039C0098011F910F91A0E81A273A27131709F417
:1003AC00021710E011F008F01FEF1F9309851A8552
:1003BC000F931F930F8118850F931F930B811C8133
:1003CC00019509F41A9510953F912F91020F131F67
:1003DC0098011F910F91A0E81A273A27131709F4D7
:1003EC0002171FEF08F011270F91102B112311F496
:1003FC000C94250212E319831C851F931981E9E8DB
:10040C00F3E0AF91AF71BB27EA0FFB1F10831C8584
:10041C001F931B85E9E6F3E0AF91AF71BB27EA0FA1
:10042C00FB1F10831C851F9313E0E9E4F3E0AF91ED
:10043C00AF71BB27EA0FFB1F10830C942E021C8597
:10044C00E9E8F3E01F710027E10FF01F1081198319
:10045C0009851A850F931F930F8118853F912F9152
:10046C00020F131F112312F40F5F1F4F15950795E1
:10047C001A8709871981103010E009F41FEF112336
:10048C0011F40C945F02188115301FEF08F011273E
:10049C00112311F40C945D021C851F9315E0E9E403
:1004AC00F3E0AF91AF71BB27EA0FFB1F10830C94E5
:1004BC008D0209851A850F931F930F81188598015A
:1004CC001F910F91A0E81A273A27131709F4021766
:1004DC0010E009F01FEF112311F40C948D021C8510
:1004EC001F931B85E9E6F3E0AF91AF71BB27EA0FD1
:1004FC00FB1F10831C851F9309851A85102FE9E2B9
:10050C00F3E0AF91AF71BB27EA0FFB1F1083089587
:10051C002397149A1598169ACF93DF931BE01A938E
:10052C001FEF1A930E945901DF91CF911091A903EB
:10053C0013951093A9031091A903113011F00C9489
:10054C00D2021498159A169AFE013296FA93EA93EF
:10055C0010E0108317E01A931081088101171FEF28
:10056C0008F01127112311F00C94CF02CF93DF93D5
:10057C001D811A931F811A930E945901DF91CF910B
:10058C00E981FA81108113951083112311F00C94D9
:10059C00B30223960C94A603123011F00C9427038B
:1005AC00149A1598169AFE013296FA93EA9318E06B
:1005BC0010831AE01A931081088101171FEF08F0BD
:1005CC001127112311F00C94FE02CF93DF931D81A0
:1005DC001A931F811A930E945901DF91CF91E981DF
:1005EC00FA81108113951083112311F00C94E202FF
:1005FC002396FE013296FA93EA931CE010831FE0D7
:10060C001A931081088101171FEF08F0112711238D
:10061C0011F00C942403CF93DF931D811A931F8147
:10062C001A930E945901DF91CF91E981FA811081CF
:10063C0013951083112311F00C94080323960C943A
:10064C00A603133011F00C945603149A159A1698AD
:10065C00FE013296FA93EA9310E1108317E11A9394
:10066C001081088101171FEF08F01127112311F0D9
:10067C000C945303CF93DF931D811A931F811A930C
:10068C000E945901DF91CF91E981FA811081139574
:10069C001083112311F00C94370323960C94A603AA
:1006AC00143011F00C94A3031FEF009136020023B9
:1006BC0009F01095112311F40C94A10314E110937B
:1006CC003602FE013296FA93EA9310E0108317E19A
:1006DC001A931081088101171FEF08F011271123BD
:1006EC0011F00C94A0031D81E9E8F3E01F710027C1
:1006FC00E10FF01F10811C83FE013496112700813D
:10070C0070E0701718F40A9500831FEF1D811F937A
:10071C001C81E9E8F3E0AF91AF71BB27EA0FFB1F37
:10072C001083E981FA81108113951083112311F044
:10073C000C94700323960C94A60310E01093A90359
:10074C0008951091EE042B981EBD1DB517FFFDCF1B
:10075C001EB51093EF042B9A08951091EB042B986F
:10076C001EBD1DB517FFFDCF1EB51093ED041091E6
:10077C00EA041EBD1DB517FFFDCF1EB51093EC048A
:10078C002B9A08951091E5042B981EBD1DB517FFEB
:10079C00FDCF1EB51093E9041091E4041EBD1DB5E8
:1007AC0017FFFDCF1EB51093E8041091E3041EBD96
:1007BC001DB517FFFDCF1EB51093E7041091E20491
:1007CC001EBD1DB517FFFDCF1EB51093E6042B9A69
:1007DC0008951091E00429981EBD1DB517FFFDCF9B
:1007EC001091DF041EBD1DB517FFFDCF299A08958A
:1007FC001091F00408E0449817FD449A459A110FA3
:10080C0045980A95C1F70895E0E0FFE010814598FE
:10081C0008B117FB04F908B9459A16FB04F908B995
:10082C00459A15FB04F908B9459A14FB04F908B963
:10083C00459A13FB04F908B9459A12FB04F908B957
:10084C00459A11FB04F908B9459A10FB04F908B94B
:10085C00459A4598E395D1F608951091F1041EBD83
:10086C001DB517FFFDCF1EB51093F20408952898FF
:10087C0015E01093F1040E9433040E943304289A6B
:10088C001091F2040895289815E01093F1040E9439
:10089C0033040E9433041091F2041170103010E0F4
:1008AC0009F41FEF112311F40C944F04289A0895A6
:1008BC00289816E01093F1040E943304289A0895A6
:1008CC000E945E04289811E01093F1040E943304F6
:1008DC0010E01093F1040E943304289A0E944904FA
:1008EC0008950E945E04289811E01093F1040E9470
:1008FC0033041FE31093F1040E943304289A0E94DE
:10090C00490408950E945E0428983B812A8119812C
:10091C0008810093F3041093F4042093F5043093AE
:10092C00F60410E21093F1040E9433041091F504C4
:10093C001093F1040E9433041091F4041093F10409
:10094C000E9433041091F3041093F1040E943304B9
:10095C00289A0E9449041091F2041072103010E091
:10096C0009F01FEFE894112309F068941091D60454
:10097C0012F91093D6040091D604112702FD1FEF33
:10098C00109508950E945E04289817EC1093F104BA
:10099C000E943304289A0E9449041091F2041072A8
:1009AC00103010E009F01FEFE894112309F068945F
:1009BC001091D60412F91093D6040091D604112785
:1009CC0002FD1FEF10950895219709811A8101509E
:1009DC001040102F18830E945E0428983E812D81B0
:1009EC001C810B810093F3041093F4042093F50401
:1009FC003093F60412E01093F1040E94330410912A
:100A0C00F5041093F1040E9433041091F404109334
:100A1C00F1040E9433041091F3041093F1040E942A
:100A2C003304E7E0F0E0FA93EA9310E01083EF93DD
:100A3C00FF931A81FF91EF911A931081088101178E
:100A4C001FEF08F01127112311F00C944205172DFC
:100A5C00E0E0FFE01F7F0027E10FF01F10811093F3
:100A6C00F1040E943304E981FA81108113951083FB
:100A7C00112311F00C9424052396289A0E94490402
:100A8C001091F2041072103010E009F01FEFE8948E
:100A9C00112309F068941091D60412F91093D6041E
:100AAC000091D604112702FD1FEF10950895219790
:100ABC000E9449040A811B8101501040102F188399
:100ACC003F812E811D810C810093F3041093F4045B
:100ADC002093F5043093F60428981BE01093F1044E
:100AEC000E9433041091F5041093F1040E94330416
:100AFC001091F4041093F1040E9433041091F30448
:100B0C001093F1040E94330410E01093F1040E943E
:100B1C003304E7E0F0E0FA93EA9310E01083EF93EC
:100B2C00FF931A81FF91EF911A931081088101179D
:100B3C001FEF08F01127112311F00C94CF050E9420
:100B4C0033041C81112311F40C94BA05172D1F9337
:100B5C001091F204E0E0FEE0AF91AF7FBB27EA0F0B
:100B6C00FB1F10830C94C605172D1F931091F204D4
:100B7C00E0E0FFE0AF91AF7FBB27EA0FFB1F1083D4
:100B8C00E981FA81108113951083112311F00C94D3
:100B9C009C052396289A0895EFEDF4E0EF93FF93CC
:100BAC001881FF91EF911193E0EEF4E010E01193B6
:100BBC000E94EF030E94C8030091E6041091E70421
:100BCC002091E8043091E9040895EFEDF4E0EF93FF
:100BDC00FF931881FF91EF911193E0EEF4E010E890
:100BEC0011930E94EF03EAEEF4E0EF93FF93198167
:100BFC00FF91EF911193EBEEF4E010E011930E9452
:100C0C00B3030895EFEDF4E0EF93FF931881FF9198
:100C1C00EF911193E0EEF4E010E811930E94EF03D2
:100C2C0009811A810093EA041093EB040E94B30328
:100C3C000895EFEDF4E0EF93FF931881FF91EF919E
:100C4C001193E0EEF4E010E811930E94EF033C8165
:100C5C002B811A8109810093E2041093E304209301
:100C6C00E4043093E5040E94C8030895CF93DF9306
:100C7C0010EF1A930E94D205DF91CF910093B60426
:100C8C001093B7042093B8043093B904E8E0F0E073
:100C9C000E944A6C0093B6041093B7042093B804D6
:100CAC003093B904CF93DF930091B6041091B7043D
:100CBC002091B8043091B9043A932A931A930A9369
:100CCC0010EF1A930E941F06DF91CF91ECE0F0E039
:100CDC000E944A6C0093B6041093B7042093B80496
:100CEC003093B904CF93DF930091B6041091B704FD
:100CFC002091B8043091B9043A932A931A930A9329
:100D0C0011EF1A930E941F06DF91CF9108951DE0F9
:100D1C000E94C36B1AE00E94C36B089513E20E94F9
:100D2C00C36B10914602105D0E94C36B1AE30E94C4
:100D3C00C36BCF93DF9318E0412A03EC1BE61A93A5
:100D4C000A930091AF041091B004CF93DF931A93E0
:100D5C000A9310E01A9310E01A9310E21A93689415
:100D6C0043F8689445F8E89454F855F80E941E70BE
:100D7C00DF91CF91DF91CF911DE30E94C36B08955A
:100D8C00CF93DF9318E0412A03EC1BE61A930A93E6
:100D9C00E8E6F4E00E94CD6DDF91CF910E948D06C4
:100DAC00089522971091BD04112311F40C94EC06B4
:100DBC0016E00E94C36B1A810E94C36B10E00E9464
:100DCC00C36B10E00E94C36B0C94300710E00FEF64
:100DDC000093AF041093B0040E949406CF93DF935A
:100DEC0018E0412A03EC1BE61A930A931C81CF935B
:100DFC00DF931A9310E01A9310E01A9310E21A93EF
:100E0C00689443F80E94E56DDF91CF91DF91CF910B
:100E1C0010E20E94C36BCF93DF9318E0412A03ECDE
:100E2C001BE61A930A93EAEDF7EEEF93FF931C81FE
:100E3C00012F1127ADE0B0E0E89445F80E9408714D
:100E4C00FF91EF91E00FF11F0E94C46DDF91CF91E4
:100E5C000E948D0608950E949406CF93DF9318E0AC
:100E6C00412A03EC1BE61A930A93EFE3F4E00E9489
:100E7C00CD6DDF91CF910E948D0608951091BD0428
:100E8C00112311F40C945F0716E00E94C36B10E061
:100E9C000E94C36B0091B3041091B4040E94C36B05
:100EAC000091B3041091B404102F0E94C36B0C94E6
:100EBC009607EFE3F4E0EF93FF933196FA93EA93FE
:100ECC0018E21A9317EF41221FEB41220091B6044E
:100EDC001091B7042091B8043091B904CF93DF93EB
:100EEC003A932A931A930A9310E01A9310E01A93E8
:100EFC0010E21A93689445F8E89454F855F842F8BF
:100F0C000E94256EDF91CF9118E21F9318810F91EB
:100F1C00011B102FFF91EF91108323960E94310734
:100F2C0008950091B3041091B40417FF03C03FEF70
:100F3C002FEF02C0332722270093B6041093B70477
:100F4C002093B8043093B9040E944407089510917B
:100F5C00BC04012F11270093B3041093B4040E9416
:100F6C00970708950E949406EFE3F4E0EF93FF9344
:100F7C003196FA93EA9318E21A9317EF41221FEB7A
:100F8C0041220091B6041091B7042091B80430911D
:100F9C00B904CF93DF933A932A931A930A9310E0F0
:100FAC001A9310E01A9310E21A93689445F8E89497
:100FBC0054F855F842F80E94256EDF91CF9118E253
:100FCC001F9318810F91011B102FFF91EF9110832C
:100FDC002396CF93DF9318E0412A03EC1BE61A9378
:100FEC000A93EFE3F4E00E94CD6DDF91CF9110E214
:100FFC000E94C36B1BE50E94C36B14E20E94C36B7F
:10100C00EFE3F4E0EF93FF933196FA93EA9318E24F
:10101C001A9317EF41221FEB41220091B604109155
:10102C00B7042091B8043091B904B801C901492F13
:10103C000E948D70482F0E948D70472F0E948D70DA
:10104C00462F0E948D7018E21F9318810F91011B7F
:10105C00102FFF91EF9110832396CF93DF9318E01D
:10106C00412A03EC1BE61A930A93EFE3F4E00E9487
:10107C00CD6DDF91CF911DE50E94C36B0E948D0653
:10108C0008950E949406EFE3F4E0EF93FF933196FA
:10109C00FA93EA9318E21A9317EF41221FEB4122BD
:1010AC000091B6041091B7042091B8043091B904A2
:1010BC00CF93DF933A932A931A930A9310E01A93DF
:1010CC0010E01A9310E21A93689445F8E89454F8D7
:1010DC0055F842F80E94256EDF91CF9118E21F93CC
:1010EC0018810F91011B102FFF91EF911083239604
:1010FC00CF93DF9318E0412A03EC1BE61A930A9373
:10110C00EFE3F4E00E94CD6DDF91CF91CF93DF93AD
:10111C0018E0412A03EC1BE61A930A93E1E8F4EE7B
:10112C000E94C46DDF91CF91CF93DF9318E0412AD9
:10113C0003EC1BE61A930A93E8E8F4E00E94CD6DE9
:10114C00DF91CF911DE50E94C36B0E948D0608951F
:10115C000E943D041F7E103010E009F01FEF112398
:10116C0011F40C94D4080E949406CF93DF9318E0EA
:10117C00412A03EC1BE61A930A93E4E8F4EE0E946E
:10118C00C46D1DE00E949A701AE00E949A70DF9163
:10119C00CF911FEF0C94D7080C94D70810E00C9447
:1011AC00D70808952C971AE314B91FE915B910E75D
:1011BC0017B91FEC18B91091D6041B7F1093D604E5
:1011CC00469815E00E94026C469A15E00E94026C4B
:1011DC0010E317B916E206EB0093AF041093B004BA
:1011EC0011E004EF0E94F36B1BEB14B91FE915B966
:1011FC000E949406112737991FEF112311F40C94B8
:10120C005B09CF93DF9313E01A930E94D205DF9111
:10121C00CF910091E6041091E7042091E8043091FD
:10122C00E9043F832E831D830C83CF93DF9318E057
:10123C00412A03EC1BE61A930A93E5E9F4EE0E94AB
:10124C00C46DDF91CF91CF93DF9318E0412A03EC6B
:10125C001BE61A930A93398528851F810E816894A1
:10126C0043F8B801C901492F0E948D70482F0E9484
:10127C008D70472F0E948D70462F0E948D70DF91CC
:10128C00CF91CF93DF9318E0412A03EC1BE61A931E
:10129C000A93E0EAF4EE0E94C46DDF91CF910E94B4
:1012AC003C060E948D060C947009CF93DF9318E0D6
:1012BC00412A03EC1BE61A930A93E5EAF4EE0E942A
:1012CC00C46DDF91CF911091D60414601093D604A5
:1012DC000E948D060895E0EEF4E010E81193EFED16
:1012EC00F4E0EF93FF931091F7041F5FFF91EF91E0
:1012FC0011930E94EF031091F8041093EE040E94D6
:10130C00A703EFEDF4E01091F70411930E94EF03A3
:10131C000895E0EEF4E010E81193EFEDF4E0EF93B4
:10132C00FF931091F7041F5FFF91EF9111930E94AF
:10133C00EF031091F8041093EE040E94A703089594
:10134C001091CE04112311F40C94DA0910E00E94D0
:10135C00786ACF93DF9318E0412A0AE31AE61A93CE
:10136C000A93E0ECF4EE0E94C46DDF91CF91CF9321
:10137C00DF9310E01A9310E01A9311E01A930E9475
:10138C00606ADF91CF91CF93DF9318E0412A0AE393
:10139C001AE61A930A93E9ECF4EE0E94C46DDF91FD
:1013AC00CF9110E00E94816A08951091CE04112310
:1013BC0011F40C943A0A1127062D017009F41095BA
:1013CC00112311F40C94380ACF93DF9310E01A9385
:1013DC0010E01A9311E01A930E94606ADF91CF918A
:1013EC00CF93DF9318E0412A0AE31AE61A930A9383
:1013FC00E2EDF4EE0E94C46DDF91CF91CF93DF93B9
:10140C0018E0412A0AE31AE61A930A930091DA04C7
:10141C001091DB042091DC043091DD04CF93DF9339
:10142C003A932A931A930A9318E01A9300E00A93BA
:10143C0010E21A93689443F8689445F8E89454F8C9
:10144C0055F842F80E94256EDF91CF91DF91CF9134
:10145C0010E00E94816A10E002E3E4E3F2E0B1E004
:10146C000E94DA710C943E0A10E002E00E94F36BC9
:10147C0008951091CE04112311F40C945F0ACF93AC
:10148C00DF9310E01A9310E01A9311E01A930E9464
:10149C00606ADF91CF91CF93DF9318E0412A0AE382
:1014AC001AE61A930A93EBEDF4EE0E94C46DDF91E9
:1014BC00CF9108951091CE04112311F40C94800A4D
:1014CC00CF93DF9310E01A9310E01A9311E01A9364
:1014DC000E94606ADF91CF91CF93DF9318E0412A8D
:1014EC000AE31AE61A930A93E5EEF4EE0E94C46D31
:1014FC00DF91CF91089565970E949406CF93DF9367
:10150C0018E0412A03EC1BE61A930A93ECEEF4EE76
:10151C000E94C46D1DE00E949A701AE00E949A709D
:10152C00DF91CF9110E01A8710E0188710E01C8B28
:10153C0010E0198B1FEF188B00E010E020E030E07A
:10154C000093DA041093DB042093DC043093DD0465
:10155C0010E000E01C870B870E94A60910E000E059
:10156C001983088310E000E01B830A83388D2F89D0
:10157C001E890D893F832E831D830C831A8510953C
:10158C00112311F40C94330B10E000E01C870B8733
:10159C0011275A991FEF1095E894112309F06894BC
:1015AC001BB112F91BB9CF93DF93FE017496FA931A
:1015BC00EA9314E61A930E948C6BDF91CF911A87F1
:1015CC001A85112311F40C94040B1C89113010E0B2
:1015DC0009F41FEF1F931C89143010E009F41FEF5E
:1015EC000F91102B112311F40C94020B10E000E05E
:1015FC001C870B870C94330B0C940E0B15E10E947B
:10160C00C36BFE013B96A081B1811196A083B1837F
:10161C001C89113010E009F41FEF1F931C89143042
:10162C0010E009F41FEF0F91102B1F931C89183138
:10163C0010E009F41FEF0F91102B1F930B851C85E5
:10164C00103009F4043110E011F008F01FEF0F9185
:10165C00102B112311F40C94D90A18851095112311
:10166C0011F40C943D0B0E94DB091FEF18871C89A9
:10167C00113010E009F41FEF112311F40C94710CCC
:10168C00CF93DF93FE017396FA93EA9314E61A93C1
:10169C000E948C6BDF91CF9119871985112311F45E
:1016AC000C946B0CCF93DF93FE017296FA93EA9332
:1016BC001AE01A930E948C6BDF91CF9119871B89CA
:1016CC000FEF011B102F1F931A890F91011710E0B8
:1016DC0009F41FEF112311F40C94690C10E0198B11
:1016EC00E8E0F0E0FA93EA9310E010831FE71A9316
:1016FC001081088101171FEF08F01127112311F039
:10170C000C94AF0BCF93DF93EAE0F0E0FA93EA93FB
:10171C001AE01A930E948C6BDF91CF911C871C8965
:10172C001F931A2D0F91100F1C8B182D1F931A2D10
:10173C00E0E0FFE0AF91AF7FBB27EA0FFB1F108308
:10174C00E981FA81108113951083112311F00C9407
:10175C007F0B2396CF93DF93FE017096FA93EA9357
:10176C001AE01A930E948C6BDF91CF911987CF935B
:10177C00DF933F812E811D810C813A932A931A931A
:10178C000A9310E000E81A930A930E94EA04DF918E
:10179C00CF911095112311F40C94DB0BFE013296B2
:1017AC00A081B1811196A083B183CF93DF933F8148
:1017BC002E811D810C813A932A931A930A9310E07F
:1017CC0000E81A930A931FEF1A930E945D05DF91AC
:1017DC00CF91E8E0F0E0FA93EA9310E010831FE772
:1017EC001A931081088101171FEF08F0112711239C
:1017FC0011F00C942B0C182DE0E0FEE01F7F00275D
:10180C00E10FF01F10811F93182DE0E0FFE01F7F08
:10181C000027E10FF01F10810F91011710E009F064
:10182C001FEF112311F40C94220CFE013396A081AE
:10183C00B1811196A083B183E981FA81108113954E
:10184C001083112311F00C94F80B239619891F9314
:10185C0018890F91011710E009F41FEF112311F4EF
:10186C000C945F0C16E00E94C36B3F812E811D818E
:10187C000C8100581F4F2F4F3F4F3F832E831D83EA
:10188C000C830091DA041091DB042091DC0430917C
:10189C00DD0400581F4F2F4F3F4F0093DA04109375
:1018AC00DB042093DC043093DD040E94DB090C94F0
:1018BC00690CFE013B96A081B1811196A083B18386
:1018CC0015E10E94C36B0C946F0C10E00FEF1C879A
:1018DC000B8710E01C8B10E01A871C89143010E069
:1018EC0009F41FEF1F931C89183110E009F41FEF46
:1018FC000F91102B1F930B851C85103009F40431AC
:10190C0010E011F008F01FEF0F91102B112311F4C0
:10191C000C94C40A16E00E94C36B18891F93198992
:10192C000F91011710E009F01FEF112311F40C9423
:10193C00C50C0FEF1FEF2FEF3FEF0093B604109382
:10194C00B7042093B8043093B9040E949406CF9343
:10195C00DF9318E0412A03EC1BE61A930A93EFEF8E
:10196C00F4EE0E94C46D1DE00E949A701AE00E9471
:10197C009A70DF91CF910E943F0A0C94DF0C00917A
:10198C00DA041091DB042091DC043091DD04009327
:10199C00B6041093B7042093B8043093B904E4E36D
:1019AC00F2E00EEF0E94D0710E94DB0910E0109360
:1019BC003D0208811981103009F4003010E009F063
:1019CC001FEF112311F40C94410D0FEF1FEF2FEFAC
:1019DC003FEF0093B6041093B7042093B8043093F0
:1019EC00B9040E949406CF93DF9318E0412A03ECCC
:1019FC001BE61A930A93E6E1F5EE0E94C46DDF91A3
:101A0C00CF91CF93DF9318E0412A03EC1BE61A9396
:101A1C000A930A811B81CF93DF931A930A9310E0E8
:101A2C001A9310E01A9310E21A93689443F8E8940E
:101A3C0045F8E89454F855F80E941E70DF91CF9148
:101A4C00DF91CF91CF93DF9318E0412A03EC1BE693
:101A5C001A930A93E7E2F5EE0E94C46D1DE00E9412
:101A6C009A701AE00E949A70DF91CF910E94600ADE
:101A7C0010E010933D020A811B81103009F40030F4
:101A8C0010E009F01FEF112311F40C94A30D0FEFCC
:101A9C001FEF2FEF3FEF0093B6041093B704209382
:101AAC00B8043093B9040E949406CF93DF9318E0E6
:101ABC00412A03EC1BE61A930A93E0E3F5EE0E942D
:101ACC00C46DDF91CF91CF93DF9318E0412A03ECE3
:101ADC001BE61A930A930C811D81CF93DF931A9303
:101AEC000A9310E01A9310E01A9310E21A93689478
:101AFC0043F8E89445F8E89454F855F80E941E70A1
:101B0C00DF91CF91DF91CF91CF93DF9318E0412AF2
:101B1C0003EC1BE61A930A93E7E2F5EE0E94C46D00
:101B2C001DE00E949A701AE00E949A70DF91CF918A
:101B3C000E94600A10E010933D0208952297CF9303
:101B4C00DF9312E01A930E94D205DF91CF911127F7
:101B5C001A991FEF112311F40C94A50D0E949406F1
:101B6C00CF93DF9318E0412A03EC1BE61A930A93F8
:101B7C001091F804CF93DF931A9310E01A9310E0AE
:101B8C001A9310E21A93689443F80E94E56DDF9162
:101B9C00CF91DF91CF91CF93DF9318E0412A03ECE3
:101BAC001BE61A930A93E0E4F5EE0E94C46DDF91F4
:101BBC00CF911091E8041A3A10E009F41FEF1123A9
:101BCC0011F40C94C70E1091E604103511F00C941E
:101BDC00FF0DCF93DF9318E0412A03EC1BE61A9319
:101BEC000A93E9E4F5EE0E94C46DDF91CF910C9459
:101BFC00960E113511F00C94130ECF93DF9318E061
:101C0C00412A03EC1BE61A930A93E0E5F5EE0E94D9
:101C1C00C46DDF91CF910C94960E123511F00C948B
:101C2C00270ECF93DF9318E0412A03EC1BE61A939F
:101C3C000A93E6E5F5EE0E94C46DDF91CF910C940A
:101C4C00960E133511F00C943B0ECF93DF9318E0E6
:101C5C00412A03EC1BE61A930A93EBE5F5EE0E947E
:101C6C00C46DDF91CF910C94960E143511F00C9439
:101C7C004F0ECF93DF9318E0412A03EC1BE61A9327
:101C8C000A93E4E6F5EE0E94C46DDF91CF910C94BB
:101C9C00960E183511F00C94630ECF93DF9318E069
:101CAC00412A03EC1BE61A930A93EBE6F5EE0E942D
:101CBC00C46DDF91CF910C94960E1F3511F00C94DE
:101CCC00770ECF93DF9318E0412A03EC1BE61A93AF
:101CDC000A93E0E7F5EE0E94C46DDF91CF910C946E
:101CEC00960ECF93DF9318E0412A03EC1BE61A9370
:101CFC000A93E8E7F5EE0E94C46DDF91CF91CF9384
:101D0C00DF9318E0412A03EC1BE61A930A93109117
:101D1C00E604689443F8412F0E948D70DF91CF91B7
:101D2C00CF93DF9318E0412A03EC1BE61A930A9336
:101D3C00E2E8F5EE0E94C46DDF91CF91CF93DF9373
:101D4C0018E0412A03EC1BE61A930A931091E7045E
:101D5C00689443F8412F0E948D70DF91CF91CF93FF
:101D6C00DF9318E0412A03EC1BE61A930A93E0EA8E
:101D7C00F4EE0E94C46DDF91CF910E948D060C94FD
:101D8C00D70ECF93DF9318E0412A03EC1BE61A938E
:101D9C000A93E9E8F5EE0E94C46DDF91CF910E94A1
:101DAC008D06089525971E8114551093F8040E94F2
:101DBC0071091E81012F11273327222740E050E1A2
:101DCC0060E070E0689445F80E9464713C832B835A
:101DDC001A83098300E010E020E030E00093DA047D
:101DEC001093DB042093DC043093DD04E8E0F0E096
:101DFC00FA93EA9310E010831FE01A931081088184
:101E0C0001171FEF08F01127112311F00C94BE0FCE
:101E1C00CF93DF933F812E811D810C813A932A93BE
:101E2C001A930A9311E000E01A930A9310E01A93A4
:101E3C000E945D05DF91CF911885112311F40C944C
:101E4C005C0FEAE0F0E0FA93EA9310E010831FEFE6
:101E5C001A931081088101171FEF08F01127112325
:101E6C0011F00C945B0F1A2DE0E0FFE01F7F0027B0
:101E7C00E10FF01F10811E83CF93DF9318E0412AEE
:101E8C0003EC1BE61A930A931885689443F8412FC8
:101E9C000E948D70DF91CF91E981FA8110811395A9
:101EAC001083112311F00C94300F2396EAE0F0E02C
:101EBC00FA93EA9310E010831FE31A9310810881C0
:101ECC0001171FEF08F01127112311F00C94940F38
:101EDC00E0E0FFE0EF93FF931A2D012F1127000F85
:101EEC00111F000F111FFF91EF91E00FF11F0191D6
:101EFC001191219131910093E2041093E30420930A
:101F0C00E4043093E5040E94C803E981FA8110814E
:101F1C0013951083112311F00C94650F23963F81B8
:101F2C002E811D810C8100501F4F2F4F3F4F3F833F
:101F3C002E831D830C830091DA041091DB04209115
:101F4C00DC043091DD0400501F4F2F4F3F4F0093A6
:101F5C00DA041093DB042093DC043093DD04E98174
:101F6C00FA81108113951083112311F00C94050F35
:101F7C0023960E948F0911E004EFE4E3F2E0B1E054
:101F8C000E94DA710091DA041091DB042091DC04D8
:101F9C003091DD040093B6041093B7042093B80479
:101FAC003093B9041FEF1093C60310E002E30E94B4
:101FBC00F36BCF93DF930E94A40DDF91CF91089523
:101FCC002D970E949406CF93DF9318E0412A03ECDF
:101FDC001BE61A930A931F85CF93DF931A9310E095
:101FEC001A9310E01A9310E21A93689443F80E9423
:101FFC00E56DDF91CF91DF91CF91CF93DF9318E017
:10200C00412A03EC1BE61A930A93E3E9F5EE0E94CE
:10201C00C46DDF91CF91CF93DF9310E01A9318E446
:10202C001A930E94EB05DF91CF9110E004E60E9419
:10203C00F36B1D851C5A012F11273327222740E0F3
:10204C0050E160E070E0689445F80E9464713C8750
:10205C002B871A87098710E000E018870F8310E0A0
:10206C0000E019830883E8E0F0E0FA93EA9310E0CB
:10207C0010831FE01A931081088101171FEF08F0DD
:10208C001127112311F00C943D11CF93DF933F8551
:10209C002E851D850C853A932A931A930A9311E089
:1020AC0000E01A930A9310E01A930E945D05DF91E9
:1020BC00CF9110E000E01E830D8310E000E01C8344
:1020CC000B830A851B8519870887EAE0F0E0FA93F1
:1020DC00EA9310E0108317E01A931081088101171E
:1020EC001FEF08F01127112311F00C94B210CF93AD
:1020FC00DF9310E51A930E851F851A930A931FE040
:10210C0000E00F931F930B851C853F912F91020FBD
:10211C00131F1A930A9310E000E21A930A930E9479
:10212C00596BDF91CF9110E00AE00E94F36B0885A8
:10213C001985005E1F4F198708870D851E85005E67
:10214C001F4F1E870D87E981FA811081139510832B
:10215C00112311F00C947410239610E51F9308852D
:10216C0019851F93E89440F808851985102FE6E12E
:10217C00F0E0612FA1E0B0E03F914F9150E00E9460
:10218C00636BCF93DF9310E51A931EE000E01A9374
:10219C000A9311E000E01A930A930E943B6BDF91C3
:1021AC00CF91EAE0F0E0FA93EA9310E010831FEF8E
:1021BC001A931081088101171FEF08F011271123C2
:1021CC0011F00C9413111A2DE0E0FFE01F7F002793
:1021DC00E10FF01F10811F931A2DE0E0FEE01F7F2E
:1021EC000027E10FF01F10810F91011710E009F08B
:1021FC001FEF112311F40C940A11FE013696A081E5
:10220C00B1811196A083B183E981FA811081139574
:10221C001083112311F00C94E01023960B811C8178
:10222C00103009F4003010E009F41FEF112311F401
:10223C000C9425111EE20E94C36B0C94281113E21E
:10224C000E94C36B3F852E851D850C8500501F4F4A
:10225C002F4F3F4F3F872E871D870C87E981FA81CF
:10226C00108113951083112311F00C9442102396B6
:10227C00CF93DF9318E0412A03EC1BE61A930A93E1
:10228C001DE50E949A701DE00E949A701AE00E944F
:10229C009A70DF91CF9111E004EFE4E3F2E0B1E04A
:1022AC000E94DA710091DA041091DB042091DC04B5
:1022BC003091DD040093B6041093B7042093B80456
:1022CC003093B9041FEF1093C603088119811030A5
:1022DC0009F4003010E009F01FEF112311F40C94F5
:1022EC00BC110E949406CF93DF9318E0412A03ECB3
:1022FC001BE61A930A93EFEAF5EE0E94C46DDF9188
:10230C00CF91CF93DF9318E0412A03EC1BE61A938D
:10231C000A930A811B81CF93DF931A930A9310E0DF
:10232C001A9310E01A9310E21A93689443F8E89405
:10233C0045F8E89454F855F80E941E70DF91CF913F
:10234C00DF91CF91CF93DF9318E0412A03EC1BE68A
:10235C001A930A93E7E2F5EE0E94C46D1DE00E9409
:10236C009A701AE00E949A70DF91CF91089521978C
:10237C0010E018830091AC03112704FD1FEF11230B
:10238C0011F40C94CD11FE01108113951083009162
:10239C00AC03112705FD1FEF112311F40C94DE1172
:1023AC00FE01108113951083FE011081139510838B
:1023BC00CF93DF9318811A931DE01A930E94EB05BB
:1023CC00DF91CF9110915102103011F00C94F0115B
:1023DC000C94FA11123011F00C94F6110C94FA11B1
:1023EC00143011F00C941012CF93DF9312ED1A935A
:1023FC0015E01A930E94EB05DF91CF91CF93DF93F9
:10240C0010E01A9316E01A930E94EB05DF91CF911E
:10241C000C943812113011F00C9416120C942012EA
:10242C00133011F00C941C120C942012153011F076
:10243C000C943812CF93DF93109171021A9315E01C
:10244C001A930E94EB05DF91CF91CF93DF931091FC
:10245C0070021A9316E01A930E94EB05DF91CF914C
:10246C000C94381210915102103011F00C9440124F
:10247C000C944412113011F00C945C12CF93DF9336
:10248C0010916A021A9318E01A930E94EB05DF91DF
:10249C00CF91CF93DF9310916D021A9314E01A939E
:1024AC000E94EB05DF91CF910C94A012123011F029
:1024BC000C9462120C946612133011F00C947E1270
:1024CC00CF93DF9310916B021A9318E01A930E942A
:1024DC00EB05DF91CF91CF93DF9310916E021A939E
:1024EC0014E01A930E94EB05DF91CF910C94A0128B
:1024FC00143011F00C9484120C948812153011F0D5
:10250C000C94A012CF93DF9310916C021A9318E0E5
:10251C001A930E94EB05DF91CF91CF93DF9310912B
:10252C006F021A9314E01A930E94EB05DF91CF917E
:10253C000C94A012089523970091AC03112700FD71
:10254C001FEF1F930091AC03112701FD1FEF109596
:10255C000F9110231F93109183020F9110231123BD
:10256C0011F40C94EC12E8E0F0E0FA93EA9310E02A
:10257C00108317E01A931081088101171FEF08F0E0
:10258C001127112311F00C94E912182DE8E4F2E054
:10259C001F770027E10FF01F108116951B83CF9337
:1025AC00DF931B811A93182D105F1A930E94EB0571
:1025BC00DF91CF91E981FA8110811395108311235A
:1025CC0011F00C94C21223960C941C13E8E0F0E06A
:1025DC00FA93EA9310E0108317E01A9310810881A4
:1025EC0001171FEF08F01127112311F00C941B1386
:1025FC00182DE8E4F2E01F770027E10FF01F10819F
:10260C001B83CF93DF931B811A93182D105F1A93A2
:10261C000E94EB05DF91CF91E981FA81108113952E
:10262C001083112311F00C94F51223960091AC0336
:10263C00112700FD1FEF1F931091C0031F3010E0F6
:10264C0009F01FEF0F911023112311F40C94CB13ED
:10265C0010918302112311F40C944013CF93DF9348
:10266C0010E01A9318E11A930E94EB05DF91CF91B9
:10267C000C9468130091AC03112701FD1FEF11237B
:10268C0011F40C94541318E0E8E4F2E01F770027DF
:10269C00E10FF01F108118830C945E1318E0E8E42E
:1026AC00F2E01F770027E10FF01F108116951883B9
:1026BC00CF93DF9318811A9318E11A930E94EB05BC
:1026CC00DF91CF910091AC03112703FD1FEF112374
:1026DC0011F40C947D13CF93DF9311E01A931BE14B
:1026EC001A930E94EB05DF91CF910C948713CF9333
:1026FC00DF9310E01A931BE11A930E94EB05DF9114
:10270C00CF910091AC03112701FD1FEF112311F4A0
:10271C000C949D13CF93DF93109175021A931AE1C9
:10272C001A930E94EB05DF91CF910C94A813CF93D1
:10273C00DF93109174021A931AE11A930E94EB051D
:10274C00DF91CF910091AC03112702FD1FEF1123F4
:10275C0011F40C94BE13CF93DF93109177021A935C
:10276C0019E11A930E94EB05DF91CF910C94C913D8
:10277C00CF93DF93109176021A9319E11A930E946A
:10278C00EB05DF91CF910C94E81318E0E8E4F2E04C
:10279C001F770027E10FF01F10811883CF93DF9371
:1027AC0018811A9318E11A930E94EB05DF91CF91CF
:1027BC00CF93DF9310E01A931AE11A930E94EB0562
:1027CC00DF91CF9108952197E8E0F0E0FA93EA9336
:1027DC0010E1108318E11A931081088101171FEF83
:1027EC0008F01127112311F00C941914182DE8E49A
:1027FC00F2E01F770027E10FF01F10811B83CF93AE
:10280C00DF931B811A93182D105F1A930E94EB050E
:10281C00DF91CF91E981FA811081139510831123F7
:10282C0011F00C94F313239608952197CF93DF9313
:10283C00109161021A9319E21A930E94EB05DF9131
:10284C00CF91CF93DF93109162021A931AE21A93ED
:10285C000E94EB05DF91CF91CF93DF931091630230
:10286C001A931BE21A930E94EB05DF91CF91109102
:10287C0064021695E1E1FEEE1F730027E10FF01FD5
:10288C00149118831091610210321FEF08F0112778
:10289C001F931091630210321FEF08F011270F9154
:1028AC001023112311F40C945F14FE0110811A955E
:1028BC001083CF93DF9318811A931CE21A930E9412
:1028CC00EB05DF91CF9110917C0217701F93109143
:1028DC00650210730F91102B1883CF93DF9318811F
:1028EC001A931BE01A930E94EB05DF91CF91CF93C3
:1028FC00DF931091B4021A931CEC1A930E94EB050F
:10290C00DF91CF91CF93DF93109168021A931EE061
:10291C001A930E94EB05DF91CF91089522971091A5
:10292C00860213701983E8E0F0E0FA93EA9310E062
:10293C00108313E01A931081088101171FEF08F020
:10294C001127112311F00C94DB14182D1F931C81EB
:10295C00110F110F0F91100FE8EBF2E01F70002711
:10296C00E10FF01F10811B83182D133010E009F4B8
:10297C001FEF112311F40C94C7141B8108E01027CE
:10298C001B83CF93DF931B811A93182D1B5B1A9318
:10299C000E94EB05DF91CF91E981FA8110811395AB
:1029AC001083112311F00C94A214239610E002E36F
:1029BC000E94F36B08952597CF93DF9310918402B7
:1029CC0011701A9317E01A930E94EB05DF91CF91C7
:1029DC001091720213701F9310917302110F110F4B
:1029EC00110F110F0F91102B1A83CF93DF931A81B4
:1029FC001A9319E01A930E94EB05DF91CF91CF93B4
:102A0C00DF93109185021A931AE01A930E94EB053A
:102A1C00DF91CF91109178021F9310917A0211706F
:102A2C0025E00E94D9700F91102B1F931091790201
:102A3C0026E00E94D9700F91102B1A83CF93DF934D
:102A4C001A811A931CE01A930E94EB05DF91CF9127
:102A5C00CF93DF93109168021A931EE01A930E9491
:102A6C00EB05DF91CF9108952797CF93DF931FEF5D
:102A7C001A930E94FE2FDF91CF91E8E0F0E0FA93D9
:102A8C00EA9310E010831FE11A931081088101175B
:102A9C001FEF08F01127112311F00C947815182D45
:102AAC00E8ECF2E01F710027110F001FE10FF01F7F
:102ABC000081118118870F83CF93DF930F811885C5
:102ACC001A930A93182D10561A930E940806DF9138
:102ADC00CF91E981FA81108113951083112311F0A4
:102AEC000C944C152396E8E0F0E0FA93EA9310E08E
:102AFC0010831FE11A931081088101171FEF08F052
:102B0C001127112311F00C94A815182DE8E8F2E008
:102B1C001F710027E10FF01F10811987CF93DF93EE
:102B2C0019851A93182D10541A930E94EB05DF91F6
:102B3C00CF91E981FA81108113951083112311F043
:102B4C000C9482152396CF93DF9310E01A9317EF12
:102B5C001A930E94EB05DF91CF91FE013496FA9304
:102B6C00EA9310E000E01183008311E00FEF1A9359
:102B7C000A93A081B18128813981B31709F4A21776
:102B8C0010E011F008F01FEF112311F00C94041653
:102B9C00EFEDF2E0EF93FF9308851985000F111FFD
:102BAC00FF91EF91E00FF11F0E94456C17FF03C0DE
:102BBC003FEF2FEF02C0332722273F832E831D8345
:102BCC000C83CF93DF933F812E811D810C813A932F
:102BDC002A931A930A9316EF1A930E941F06DF91F9
:102BEC00CF91EA81FB81A081B1811196A083B18341
:102BFC00BB2311F4AA2311F00C94C1152496CF9386
:102C0C00DF93109191021A9319E41A930E94EB0529
:102C1C00DF91CF91CF93DF9310E01A930E94FE2F98
:102C2C00DF91CF910895239710E01883E8E0F0E04E
:102C3C00FA93EA9310E0108318E01A93108108813C
:102C4C0001171FEF08F01127112311F00C947516C2
:102C5C001E811F93182DE9E6F3E01F700027E10F8A
:102C6C00F01F10810F91102B112311F40C946C1682
:102C7C00182DE9E2F3E01F700027E10FF01F10811F
:102C8C0016951D83182D1F931D81E8E4F2E0AF917A
:102C9C00AF77BB27EA0FFB1F1083182D1F9310E093
:102CAC00E9E6F3E0AF91AF70BB27EA0FFB1F10838F
:102CBC001DE0109340021FEF1B831E811095112302
:102CCC0011F40C946C161FEF10934102E981FA81F8
:102CDC00108113951083112311F00C942516239653
:102CEC001881112311F40C948116CF93DF930E9459
:102CFC00A112DF91CF910895229710E01883E8E09C
:102D0C00F0E0FA93EA9310E0108318E01A93108124
:102D1C00088101171FEF08F01127112311F00C94F3
:102D2C00DF161D811F93182DE5E7F3E01F700027B8
:102D3C00E10FF01F10810F91102B112311F40C9443
:102D4C00D616182DE5E3F3E01F700027E10FF01FF6
:102D5C00108116951C83182D105F1F931C81E8E4BD
:102D6C00F2E0AF91AF77BB27EA0FFB1F1083182D52
:102D7C001F9310E0E5E7F3E0AF91AF70BB27EA0FCC
:102D8C00FB1F10831EE0109340021FEF1B831D815D
:102D9C001095112311F40C94D6161FEF10934202C8
:102DAC00E981FA81108113951083112311F00C9491
:102DBC008E1623961881112311F40C94EB16CF93D5
:102DCC00DF930E94E913DF91CF91089522971A8126
:102DDC001F9310917E030F91102B112311F40C945F
:102DEC000D1710913E03169510936102109161021C
:102DFC0016951093620210E010937E03CF93DF932D
:102E0C000E941B14DF91CF9119E1109340021A819B
:102E1C001F9310917F030F91102B112311F40C941D
:102E2C00281710913F0316951093630210E010932E
:102E3C007F03CF93DF930E941B14DF91CF911BE193
:102E4C00109340021A811F93109180030F91102B45
:102E5C00112311F40C944317109140031695109301
:102E6C00640210E010938003CF93DF930E941B1435
:102E7C00DF91CF911CE11093400208951091B6039D
:102E8C00112311F40C9457171091B703109351029E
:102E9C0010E01093B6031AE0109340021FEF10934A
:102EAC007203CF93DF930E94BD11DF91CF910895F0
:102EBC0023971091B3031F931091B4030F91102B10
:102ECC00103010E009F41FEF112311F40C9470175B
:102EDC000C9465180091B303112700FD1FEF11230B
:102EEC0011F40C948217CF93DF930E94A112DF91FF
:102EFC00CF911CE0109340020091B303112701FD08
:102F0C001FEF112311F40C949417CF93DF930E94AD
:102F1C00A112DF91CF911CE0109340020091B303FA
:102F2C00112702FD1FEF112311F40C94A617CF9358
:102F3C00DF930E94A112DF91CF911CE0109340020D
:102F4C000091B303112703FD1FEF112311F40C940F
:102F5C00B817CF93DF930E94A112DF91CF911CE0A1
:102F6C00109340020091B303112704FD1FEF1123AE
:102F7C0011F40C94CD17CF93DF930E94BD11DF9108
:102F8C00CF911FEF109372031BE01093400200913E
:102F9C00B303112705FD1FEF112311F40C94E21755
:102FAC00CF93DF930E94BD11DF91CF911FEF109350
:102FBC0072031FE0109340020091B403112704FD2B
:102FCC001FEF1F930091B403112705FD1FEF0F9105
:102FDC00102B1F931091C7030F91102B112311F479
:102FEC000C94231810E0109386020091B103112762
:102FFC0004FD1FEF112311F40C9409181091860293
:10300C001395109386020091B103112705FD1FEF54
:10301C00112311F40C941718109186021E5F109353
:10302C008602CF93DF930E949414DF91CF9110E02E
:10303C001093C70310E2109340020091B4031127C0
:10304C0006FD1FEF112311F40C9446180091B103E7
:10305C00112706FD1FEF112311F40C943A1811E0FF
:10306C001093B4020C943D1810E01093B402CF935B
:10307C00DF930E941B14DF91CF911DE1109340024E
:10308C000091B403112707FD1FEF112311F40C94C9
:10309C005F180091B103112707FD1FEF1093650214
:1030AC00CF93DF930E941B14DF91CF911EE11093FD
:1030BC00400210E01093B30310E01093B403089592
:1030CC002197E8E0F0E0FA93EA9310E0108319E01E
:1030DC001A931081088101171FEF08F01127112393
:1030EC0011F00C94A118182DE8E0F3E01F700027E4
:1030FC00E10FF01F10811B83182D1F931B81E8E437
:10310C00F2E0AF91AF70BB27EA0FFB1F1083182DB5
:10311C001F9319E0E9E4F3E0AF91AF70BB27EA0F1E
:10312C00FB1F1083E981FA81108113951083112301
:10313C0011F00C94701823961091AC03107E1F9311
:10314C00109112030F91102B1093AC031FE11093ED
:10315C00B30308952197E8E0F0E0FA93EA9310E0C6
:10316C00108319E01A931081088101171FEF08F0E2
:10317C001127112311F00C94E018182DE8E4F2E05B
:10318C001F700027E10FF01F10811B83182D1F9358
:10319C001B81E8E0F3E0AF91AF70BB27EA0FFB1F98
:1031AC001083E981FA81108113951083112311F09A
:1031BC000C94BA1823961091AC031F711093120340
:1031CC00CF93DF9310E01A930E94FE2FDF91CF91E3
:1031DC0008952197E8E0F0E0FA93EA9310E0108369
:1031EC001CE01A931081088101171FEF08F01127BA
:1031FC00112311F00C942A19182DE8E1F3E01F703B
:10320C000027E10FF01F10811B83182D1F931B81CA
:10321C00E8E5F2E0AF91AF70BB27EA0FFB1F10831C
:10322C00182D1F9319E0E5E5F3E0AF91AF70BB27C4
:10323C00EA0FFB1F1083E981FA811081139510832B
:10324C00112311F00C94F91823961091AC031F7DE7
:10325C001F93109125030F91102B1093AC0310E2C8
:10326C001093B3031091B1031F731F931091260396
:10327C000F91102B1093B10310EC1093B40308951D
:10328C002197E8E0F0E0FA93EA9310E010831CE059
:10329C001A931081088101171FEF08F011271123D1
:1032AC0011F00C947619182DE8E5F2E01F70002748
:1032BC00E10FF01F10811B83182D1F931B81E8E178
:1032CC00F3E0AF91AF70BB27EA0FFB1F1083E981CE
:1032DC00FA81108113951083112311F00C9450195D
:1032EC0023961091AC031072109325031091B10327
:1032FC00107C1093260308952197CF93DF931FEF33
:10330C001A930E94FE2FDF91CF91E8E0F0E0FA9340
:10331C00EA9310E0108319E01A93108108810117C9
:10332C001FEF08F01127112311F00C94D919E2EBBF
:10333C00F0E0EF93FF931C81012F1127A0E1B0E087
:10334C00E89445F80E9408710F931F93182D012FD4
:10335C0011273F912F91020F131FFF91EF91E00F57
:10336C00F11F0E943C6C1B83182D1F931B81E8E4FA
:10337C00F2E0AF91AF70BB27EA0FFB1F1083182D43
:10338C001F9319E0E9E4F3E0AF91AF70BB27EA0FAC
:10339C00FB1F1083E981FA8110811395108311238F
:1033AC0011F00C94941923961091AC03107E1F937A
:1033BC00E2EBF0E0EF93FF931981012F1127A0E1CD
:1033CC00B0E0E89445F80E940871065F1F4FFF912A
:1033DC00EF91E00FF11F0E943C6C0F91102B10939A
:1033EC00AC031FE11093B30310E00AE00E94F36BEF
:1033FC00CF93DF9310E01A930E94FE2FDF91CF91B1
:10340C0008952197CF93DF931FEF1A930E94FE2FFD
:10341C00DF91CF9119811F701983E8E0F0E0FA93E6
:10342C00EA9310E0108319E01A93108108810117B8
:10343C001FEF08F01127112311F00C94581A182DB6
:10344C00E8E4F2E01F700027E10FF01F10811B83EE
:10345C00E2EBF0E0EF93FF931C81012F1127A0E129
:10346C00B0E0E89445F80E9408710F931F93182D53
:10347C00012F11273F912F91020F131FFF91EF91F5
:10348C00E00FF11FEF93FF931B81FF91EF910E94CF
:10349C001A6CE981FA81108113951083112311F0B4
:1034AC000C941C1A2396E2EBF0E0EF93FF93198136
:1034BC00012F1127A0E1B0E0E89445F80E940871B3
:1034CC00065F1F4FFF91EF91E00FF11FEF93FF93FA
:1034DC001091AC031F71FF91EF910E941A6CCF9366
:1034EC00DF9310E01A930E94FE2FDF91CF91089585
:1034FC002197CF93DF931FEF1A930E94FE2FDF913A
:10350C00CF91E8E0F0E0FA93EA9310E010831CE02E
:10351C001A931081088101171FEF08F0112711234E
:10352C0011F00C94D51AE2EBF1E0EF93FF931C81B0
:10353C00012F1127A0E1B0E0E89445F80E94087132
:10354C000F931F93182D012F11273F912F91020FCD
:10355C00131FFF91EF91E00FF11F0E943C6C1B8336
:10356C00182D1F931B81E8E5F2E0AF91AF70BB27DC
:10357C00EA0FFB1F1083182D1F9319E0E5E5F3E00C
:10358C00AF91AF70BB27EA0FFB1F1083E981FA8163
:10359C00108113951083112311F00C94901A23961B
:1035AC001091AC031F7D1F93E2EBF1E0EF93FF93BF
:1035BC001981012F1127A0E1B0E0E89445F80E9491
:1035CC000871035F1F4FFF91EF91E00FF11F0E94F5
:1035DC003C6C0F91102B1093AC0310E21093B303BF
:1035EC001091B1031F731F93E2EBF1E0EF93FF9384
:1035FC001981012F1127A0E1B0E0E89445F80E9451
:10360C000871025F1F4FFF91EF91E00FF11F0E94B5
:10361C003C6C0F91102B1093B10310EC1093B4036E
:10362C0010E00AE00E94F36BCF93DF9310E01A9343
:10363C000E94FE2FDF91CF9108952197CF93DF93B6
:10364C001FEF1A930E94FE2FDF91CF9119811F70EB
:10365C001983E8E0F0E0FA93EA9310E010831CE0A1
:10366C001A931081088101171FEF08F011271123FD
:10367C0011F00C94741B182DE8E5F2E01F70002774
:10368C00E10FF01F10811B83E2EBF1E0EF93FF934E
:10369C001C81012F1127A0E1B0E0E89445F80E94AD
:1036AC0008710F931F93182D012F11273F912F9104
:1036BC00020F131FFF91EF91E00FF11FEF93FF9398
:1036CC001B81FF91EF910E941A6CE981FA811081A4
:1036DC0013951083112311F00C94381B2396E2EBF5
:1036EC00F1E0EF93FF931981012F1127A0E1B0E0D6
:1036FC00E89445F80E940871035F1F4FFF91EF910A
:10370C00E00FF11FEF93FF931091AC031072FF9138
:10371C00EF910E941A6CE2EBF1E0EF93FF931981A9
:10372C00012F1127A0E1B0E0E89445F80E94087140
:10373C00025F1F4FFF91EF91E00FF11FEF93FF938B
:10374C001091B103107CFF91EF910E941A6CCF93F2
:10375C00DF9310E01A930E94FE2FDF91CF91089512
:10376C00E8E0F0E0FA93EA9310E010831FE11A937B
:10377C001081088101171FEF08F01127112311F098
:10378C000C94E81B182D1F93E2E1F0E0EF93FF93EC
:10379C00182D012F1127FF91EF91E00FF11F0E94BF
:1037AC003C6CE8E6F2E0AF91AF71BB27EA0FFB1F70
:1037BC001083E981FA81108113951083112311F084
:1037CC000C94BF1B2396109186021170113010E0DF
:1037DC0009F41FEF112311F40C94F91B1091B10390
:1037EC0010611093B103109186021270123010E028
:1037FC0009F41FEF112311F40C94091C1091B1035F
:10380C0010621093B103109175021093E3031091A1
:10381C0074021093E403109185021F7010931F041F
:10382C0010918502169516951695169510931E04F3
:10383C000895E8E0F0E0FA93EA9310E010831FE0BB
:10384C001A931081088101171FEF08F0112711231B
:10385C0011F00C94681C182D1F93E2E5F0E0EF9327
:10386C00FF93182D012F1127FF91EF91E00FF11FFE
:10387C000E943C6CE8EAF2E0AF91AF70BB27EA0F14
:10388C00FB1F1083182D1F93E2EAF0E0EF93FF93D8
:10389C00182D012F1127FF91EF91E00FF11F0E94BE
:1038AC003C6CE8EBF2E0AF91AF70BB27EA0FFB1F6B
:1038BC001083E981FA81108113951083112311F083
:1038CC000C94281C2396E8E0F0E0FA93EA9310E0BD
:1038DC0010831FE11A931081088101171FEF08F064
:1038EC001127112311F00C94B71C182D1F93E2E62D
:1038FC00F0E0EF93FF93182D012F1127000F111FEC
:10390C00FF91EF91E00FF11F0E94456CE8ECF2E0A3
:10391C00AF91AF71BB27AA0FBB1FEA0FFB1F11831F
:10392C000083182D1F93E2E3F0E0EF93FF93182D23
:10393C00012F1127FF91EF91E00FF11F0E943C6CBA
:10394C00E8E8F2E0AF91AF71BB27EA0FFB1F1083E1
:10395C00E981FA81108113951083112311F00C94D5
:10396C00721C23961091B3021093930208952A9718
:10397C001091DE031F93109174030F91102B1F9362
:10398C00109172030F91102B1095112311F40C94BC
:10399C00D11C0C94D31D10917E02103010E009F450
:1039AC001FEF112311F40C94E21C10917F02169559
:1039BC001093D2030C94ED1C10917403112311F489
:1039CC000C94ED1C1091340316951093D2031091A6
:1039DC00DE03112311F40C94F71C1091D3031093F4
:1039EC00D20310E01093720310E01093740310E0F4
:1039FC001093DE031091D20316951F831F81169529
:103A0C001E8310918002103010E009F41FEF112377
:103A1C0011F40C94161D1091810218830C941A1D2C
:103A2C0010913203169518831091820216951695F3
:103A3C001C5F1F93CF93DF931091D2031A931091B5
:103A4C0082021A9314EB1A930E94E56BDF91CF91CB
:103A5C000F91100F1A831A811F931091D2030F919B
:103A6C00100F19831091D2031F931A811695169576
:103A7C000F91100F18870091AC03112704FD1FEF55
:103A8C001F930091AC03112705FD1FEF0F91102B15
:103A9C00112311F40C94881D1091510211701130E6
:103AAC0010E009F41FEF112311F40C94751DCF9342
:103ABC00DF931091D2031A9319811A931AE51A9372
:103ACC000E94E56BDF91CF91165F19871E811F93C2
:103ADC001E8116950F91100F1D830C94861DCF938C
:103AEC00DF931F811A9319811A9318E71A930E9476
:103AFC00E56BDF91CF91165F19871E811C5F1D83CB
:103B0C000C94991DCF93DF931F811A9319811A93EB
:103B1C0016E91A930E94E56BDF91CF911A5F198712
:103B2C001E811E5F1D831091D203105F1F931F8196
:103B3C000F91100F1C83CF93DF931D811A9310E408
:103B4C001A930E94EB05DF91CF91CF93DF931981EC
:103B5C001A9311E41A930E94EB05DF91CF91CF9346
:103B6C00DF9318851A9312E41A930E94EB05DF91E8
:103B7C00CF91CF93DF9319851A9313E41A930E9474
:103B8C00EB05DF91CF91CF93DF931C811A9314E453
:103B9C001A930E94EB05DF91CF9108952197109114
:103BAC00B202103010E009F01FEF112311F40C9445
:103BBC00F61D10917303112311F40C94F41DCF9383
:103BCC00DF93109133031A9310EA1A931FEF1A9391
:103BDC000E94E56BDF91CF91109393020C94FD1D25
:103BEC001091B302109393021FEF10937303109173
:103BFC00BD03112311F40C940D1E1091AC02109303
:103C0C00D0031091AD021093D1030C94151E10919A
:103C1C00AA021093D0031091AB021093D103109110
:103C2C00BE031095112311F40C94221E10E0109376
:103C3C00D00310E01093D1031FEF00913702002343
:103C4C0009F01095112311F40C945D1E1091CE0304
:103C5C001F931091D0030F91011710E009F01FEF83
:103C6C00112311F40C945D1E1091D0031F9310912D
:103C7C00CE030F91011710E011F008F01FEF112384
:103C8C0011F40C94541E1091CE0313951093CE0383
:103C9C001091AE02109337020C945D1E1091CE035E
:103CAC001A951093CE031091B002109337021FEFA8
:103CBC0000913802002309F01095112311F40C9493
:103CCC00981E1091CF031F931091D1030F910117E0
:103CDC0010E009F01FEF112311F40C94981E1091B1
:103CEC00D1031F931091CF030F91011710E011F026
:103CFC0008F01FEF112311F40C948F1E1091CF03B9
:103D0C0013951093CF031091AF02109338020C94BB
:103D1C00981E1091CF031A951093CF031091B102F6
:103D2C00109338020091CC031091CD030F931F9385
:103D3C001091CE03012F11273F912F91020F131FCA
:103D4C000093CC031093CD031091CE0310938802F3
:103D5C001091CF0310939802CF93DF93109193029D
:103D6C001A931BEC1A930E94EB05DF91CF91CF9322
:103D7C00DF93109188021A9310EC1A930E94EB05B2
:103D8C00DF91CF91CF93DF93109198021A9310ED9E
:103D9C001A930E94EB05DF91CF911091BD031F93F5
:103DAC001091BE030F911023E894112309F068942D
:103DBC001091B90311F91093B9031091BD0310952B
:103DCC001F931091BE030F911023E894112309F057
:103DDC0068941091B90310F91093B9031091B903B9
:103DEC001093BA03CF93DF9311E21A9313E01A9353
:103DFC0013E00AEB1A930A9310E001E01A930A936A
:103E0C000E944F6BDF91CF9110E0109373030895D4
:103E1C002597CF93DF930E94E114DF91CF91CF933D
:103E2C00DF930E943A15DF91CF91CF93DF930E94DD
:103E3C00A112DF91CF91CF93DF930E94E913DF9111
:103E4C00CF91CF93DF930E941B14DF91CF91CF932F
:103E5C00DF930E94BD11DF91CF91CF93DF930E942E
:103E6C009414DF91CF91CF93DF930E94BD1CDF910F
:103E7C00CF91CF93DF930E94D41DDF91CF91089502
:103E8C000E949406CF93DF9318E0412A03EC1BE6C3
:103E9C001A930A93E4ECF5EE0E94C46DDF91CF9176
:103EAC000E948D061091D104112311F40C948F1FD4
:103EBC0001E010E020E030E00093B6041093B7046A
:103ECC002093B8043093B904E8E8F4E0EF93FF933F
:103EDC003196FA93EA931FE11A9317EF41221FEBE5
:103EEC004122E1EDF5EE0E94C46D1FE11F93188194
:103EFC000F91011B102FFF91EF91108323960E94BD
:103F0C004708CF93DF9312E61A930E949200DF9139
:103F1C00CF911091CF04112311F40C94C61F02E021
:103F2C0010E020E030E00093B6041093B704209327
:103F3C00B8043093B904E8E8F4E0EF93FF933196BA
:103F4C00FA93EA931FE11A9317EF41221FEB4122D8
:103F5C00E1EEF5EE0E94C46D1FE11F9318810F91E5
:103F6C00011B102FFF91EF91108323960E9447089D
:103F7C00CF93DF9310E61A930E949200DF91CF91BA
:103F8C001091D004112311F40C94FD1F03E010E0E8
:103F9C0020E030E00093B6041093B7042093B804EB
:103FAC003093B904E8E8F4E0EF93FF933196FA9379
:103FBC00EA931FE11A9317EF41221FEB4122E5EF21
:103FCC00F5EE0E94C46D1FE11F9318810F91011B28
:103FDC00102FFF91EF91108323960E944708CF93E7
:103FEC00DF9311E61A930E949200DF91CF9100E0CB
:103FFC0010E020E030E000932A0410932B0420936F
:10400C002C0430932D041091D404112311F40C942E
:10401C00382004E010E020E030E00093B604109368
:10402C00B7042093B8043093B904E8E8F4E0EF93B4
:10403C00FF933196FA93EA931FE11A9317EF4122FB
:10404C001FEB4122E9E0F6EE0E94C46D1FE11F93C5
:10405C0018810F91011B102FFF91EF911083239664
:10406C000E9447081091D304112311F40C946D2075
:10407C0010E8109548E333E00E94A86A05E010E0D0
:10408C0020E030E00093B6041093B7042093B804FA
:10409C003093B904E8E8F4E0EF93FF933196FA9388
:1040AC00EA931FE11A9317EF41221FEB4122EAE139
:1040BC00F6EE0E94C46D1FE11F9318810F91011B36
:1040CC00102FFF91EF91108323960E9447081091B7
:1040DC00CE04112311F40C949C2006E010E020E097
:1040EC0030E00093B6041093B7042093B8043093D7
:1040FC00B904E8E8F4E0EF93FF933196FA93EA936E
:10410C001FE11A9317EF41221FEB4122EBE2F6EE6F
:10411C000E94C46D1FE11F9318810F91011B102F7A
:10412C00FF91EF91108323960E9447081091CD04C4
:10413C00112311F40C94CB2007E010E020E030E0C8
:10414C000093B6041093B7042093B8043093B904C9
:10415C00E8E8F4E0EF93FF933196FA93EA931FE1CA
:10416C001A9317EF41221FEB4122E6E3F6EE0E9471
:10417C00C46D1FE11F9318810F91011B102FFF912C
:10418C00EF91108323960E944708089510E004E6EF
:10419C000E94F36BCF93DF9310E01A9318E41A93F9
:1041AC000E94EB05DF91CF9110E004E60E94F36BC7
:1041BC00CF93DF931FEF1A930E94FE2FDF91CF91C5
:1041CC00CF93DF930E949414DF91CF91CF93DF9321
:1041DC0010E01A930E94FE2FDF91CF910895CF9398
:1041EC00DF9310E01A9310E01A9310E01A930E94D8
:1041FC00606ADF91CF91CF93DF9318E0412A0AE3F5
:10420C001AE61A930A93E8EEF8EEEF93FF931A81ED
:10421C00012F1127AEE0B0E0E89445F80E94087138
:10422C00FF91EF91E00FF11F0E94C46DDF91CF91D0
:10423C0010E20E943A6A10E20E943A6ACF93DF932E
:10424C0010E01A9310E01A9311E01A930E94606A1E
:10425C00DF91CF910895CF93DF9310E01A9310E084
:10426C001A9311E01A930E94606ADF91CF91CF9359
:10427C00DF9318E0412A0AE31AE61A930A93ECEB4F
:10428C00FCEEEF93FF931A81012F1127ADE0B0E004
:10429C00E89445F80E940871FF91EF91E00FF11F2F
:1042AC000E94C46DDF91CF9116E00E943A6A10E033
:1042BC000E94816A08951881112311F40C947621BF
:1042CC00CF93DF9318E0412A0AE31AE61A930A9374
:1042DC00E3E4F6EE0E94C46DDF91CF910C9484213F
:1042EC00CF93DF9318E0412A0AE31AE61A930A9354
:1042FC00E7E4F6EE0E94C46DDF91CF910895E8E0FB
:10430C00F0E0FA93EA9310E0108315E01A93108111
:10431C00088101171FEF08F01127112311F00C94DD
:10432C00AC215A9A5B9810E004E60E94F36B5A9801
:10433C005B9A10E004E60E94F36BE981FA8110812C
:10434C0013951083112311F00C948E2123965A9AF5
:10435C005B9A08951091CE04112311F40C949822B9
:10436C0010E00E94786AEFE3F4E0EF93FF9331964C
:10437C00FA93EA9318E21A9317EF41221FEB4122AA
:10438C001C81CF93DF931A9312E01A9300E00A93E7
:10439C0010E21A930E94E56DDF91CF9118E21F9302
:1043AC0018810F91011B102FFF91EF911083239611
:1043BC00CF93DF9318E0412A0AE31AE61A930A9383
:1043CC00EBE4F6EE0E94C46DDF91CF9119811F933F
:1043DC0018810F91011710E009F01FEF112311F450
:1043EC000C940922CF93DF9318E0412A0AE31AE6D2
:1043FC001A930A93EFE3F4E00E94CD6DDF91CF9115
:10440C0010E20E943A6ACF93DF9318E0412A0AE344
:10441C001AE61A930A93E2E5F6EE0E94C46DDF9158
:10442C00CF91CF93DF9310E01A9310E01A9311E021
:10443C001A930E94606ADF91CF91CF93DF9318E0BB
:10444C00412A0AE31AE61A930A93E5E5F6EE0E946E
:10445C00C46DDF91CF91EFE3F4E0EF93FF933196CE
:10446C00FA93EA9318E21A9317EF41221FEB4122B9
:10447C001B81CF93DF931A9312E01A9300E00A93F7
:10448C0010E21A930E94E56DDF91CF9118E21F9311
:10449C0018810F91011B102FFF91EF911083239620
:1044AC00CF93DF9310E01A9316E01A9311E01A934E
:1044BC000E94606ADF91CF91CF93DF9318E0412A7D
:1044CC000AE31AE61A930A93EFE3F4E00E94CD6D27
:1044DC00DF91CF9110912803103010E009F41FEFF9
:1044EC00112311F40C948A22CF93DF9318E0412A04
:1044FC000AE31AE61A930A93ECE5F6EE0E94C46DF1
:10450C00DF91CF910C949822CF93DF9318E0412A3E
:10451C000AE31AE61A930A93E3E6F6EE0E94C46DD8
:10452C00DF91CF910E94852108951091CE04112323
:10453C0011F40C94CC2210E00E94786ACF93DF9394
:10454C0018E0412A0AE31AE61A930A93EAE6F6EE11
:10455C000E94C46DDF91CF91CF93DF9310E01A933B
:10456C0010E01A9311E01A930E94606ADF91CF91C8
:10457C00CF93DF9318E0412A0AE31AE61A930A93C1
:10458C00ECE7F6EE0E94C46DDF91CF910895109187
:10459C00CE041095112311F40C94D6220C942A23DA
:1045AC00CF93DF9310E01A930E94F520DF91CF9107
:1045BC001881112311F40C941623CF93DF9318E078
:1045CC00412A0AE31AE61A930A93EBE8F6EE0E94E4
:1045DC00C46DDF91CF911981112311F40C94062332
:1045EC00CF93DF9318E0412A0AE31AE61A930A9351
:1045FC00E0E9F6EE0E94C46DDF91CF910C94142388
:10460C00CF93DF9318E0412A0AE31AE61A930A9330
:10461C00E5E9F6EE0E94C46DDF91CF910C94242352
:10462C00CF93DF9318E0412A0AE31AE61A930A9310
:10463C00EAE9F6EE0E94C46DDF91CF9110E00E9482
:10464C00816A15E010933D020895CF93DF93188192
:10465C001A930E946121DF91CF9116E00E943A6A71
:10466C0010E00E94816A0895CF93DF9318E0412AED
:10467C000AE31AE61A930A931A81CF93DF931A93DB
:10468C0013E01A9300E00A9310E21A93689443F82B
:10469C000E94E56DDF91CF91DF91CF9116E00E94E2
:1046AC003A6A10E00E94816A0895CF93DF9318E074
:1046BC00412A0AE31AE61A930A930A811B81CF93C3
:1046CC00DF931A930A9313E01A9300E00A9310E213
:1046DC001A93689443F8689445F8E89454F855F89C
:1046EC000E941E70DF91CF91DF91CF9116E00E9456
:1046FC003A6A10E00E94816A0895CF93DF9300918B
:10470C00AC03112700FD1FEF1A930E946121DF916A
:10471C00CF910091AC03112700FD1FEF10951123D1
:10472C0011F40C949E2310E00E94816A0C941624C0
:10473C0010E20E943A6A0091AC03112701FD1FEFB1
:10474C00112311F40C94BA23CF93DF9318E0412A70
:10475C000AE31AE61A930A93EFE9F6EE0E94C46D87
:10476C00DF91CF910C94C823CF93DF9318E0412AAB
:10477C000AE31AE61A930A93E4EAF6EE0E94C46D71
:10478C00DF91CF910091AC03112702FD1FEF112394
:10479C0011F40C94E123CF93DF9318E0412A0AE340
:1047AC001AE61A930A93E9EAF6EE0E94C46DDF91B9
:1047BC00CF910C94EF23CF93DF9318E0412A0AE3B7
:1047CC001AE61A930A93EEEAF6EE0E94C46DDF9194
:1047DC00CF910091AC03112703FD1FEF112311F4AE
:1047EC000C940824CF93DF9318E0412A0AE31AE6CD
:1047FC001A930A93E3EBF6EE0E94C46DDF91CF910E
:10480C000C941624CF93DF9318E0412A0AE31AE69E
:10481C001A930A93E7EBF6EE0E94C46DDF91CF91E9
:10482C0008952197CF93DF930091AC03112704FDDA
:10483C001FEF1A930E946121DF91CF9110E20E9429
:10484C003A6ACF93DF930091AC03112705FD1FEF5C
:10485C001A930E946121DF91CF9110E20E943A6A73
:10486C00109151021170113010E009F41FEF112357
:10487C0011F40C94462413E40E943A6A0C944924D3
:10488C0016E50E943A6A1091510216951F5C188326
:10489C0018810E943A6A10E00E94816A089521975B
:1048AC0019811170113010E009F41FEF112311F46C
:1048BC000C94AB24198116951983E8E0F0E0FA9377
:1048CC00EA9310E01083EF93FF931B81FF91EF911C
:1048DC001A931081088101171FEF08F0112711237B
:1048EC0011F00C94852410E00E943A6AE981FA8157
:1048FC00108113951083112311F00C9470242396BE
:10490C00E8E0F0E0FA93EA93EF93FF931B81FF91B9
:10491C00EF91108316E01A931081088101171FEF95
:10492C0008F01127112311F00C94A82417E00E9411
:10493C003A6AE981FA81108113951083112311F0E1
:10494C000C94932423960C94F724198116951983AF
:10495C00E8E0F0E0FA93EA9311E01083EF93FF9311
:10496C001B81FF91EF911A931081088101171FEFA2
:10497C0008F01127112311F00C94D02410E00E94A0
:10498C003A6AE981FA81108113951083112311F091
:10499C000C94BB24239611E00E943A6AE8E0F0E004
:1049AC00FA93EA93EF93FF931B81FF91EF9110839E
:1049BC0016E01A931081088101171FEF08F01127D8
:1049CC00112311F00C94F62417E00E943A6AE98145
:1049DC00FA81108113951083112311F00C94E124AA
:1049EC00239612E00E943A6A16E00E943A6A10E09E
:1049FC000E94816ACF93DF9310E01A931AE01A9306
:104A0C0011E01A930E94606ADF91CF91089522976A
:104A1C00CF93DF9310E01A9310E01A9310E01A93DF
:104A2C000E94606ADF91CF911091C003193010E0A1
:104A3C0011F008F01FEF112311F40C94312511E340
:104A4C000E943A6A1091C0031A5D198319810E9461
:104A5C003A6A0C943B251091C003105D198319819F
:104A6C000E943A6A10E20E943A6A1091C003103018
:104A7C0010E009F41FEF1F931091C0031F3010E0DA
:104A8C0009F41FEF0F91102B112311F40C945E25D8
:104A9C00CF93DF9318E0412A0AE31AE61A930A939C
:104AAC00EBEBF6EE0E94C46DDF91CF910C946C256C
:104ABC00CF93DF9318E0412A0AE31AE61A930A937C
:104ACC00EFEBF6EE0E94C46DDF91CF9110912803AD
:104ADC00103010E009F41FEF112311F40C947B2516
:104AEC0016E00E943A6A0C947E2510E20E943A6A03
:104AFC00E8E0F0E0FA93EA9310E0108318E01A93E0
:104B0C001081088101171FEF08F01127112311F0F4
:104B1C000C94B625182DE8E4F2E01F770027E10F7E
:104B2C00F01F1081195F1B83CF93DF931B811A93A6
:104B3C0010E11A9310EF1A930E94E56BDF91CF915D
:104B4C001B831B81105D1C831C810E943A6AE981C6
:104B5C00FA81108113951083112311F00C94872581
:104B6C002396CF93DF9310E01A9310E01A9311E081
:104B7C001A930E94606ADF91CF911091C103193092
:104B8C0010E011F008F01FEF112311F40C94DA254A
:104B9C0011E30E943A6A1091C1031A5D19831981BD
:104BAC000E943A6A0C94E4251091C103105D19839C
:104BBC0019810E943A6A10E20E943A6A1091C1036C
:104BCC00103010E009F41FEF1F931091C1031F3038
:104BDC0010E009F41FEF0F91102B112311F40C941A
:104BEC000726CF93DF9318E0412A0AE31AE61A93BB
:104BFC000A93E3ECF6EE0E94C46DDF91CF910C9416
:104C0C001526CF93DF9318E0412A0AE31AE61A938C
:104C1C000A93E7ECF6EE0E94C46DDF91CF911091F0
:104C2C002803103010E009F41FEF112311F40C9439
:104C3C00242610E20E943A6A0C94272616E00E9461
:104C4C003A6AE8E0F0E0FA93EA9310E1108318E195
:104C5C001A931081088101171FEF08F011271123F7
:104C6C0011F00C945F26182DE8E4F2E01F77002772
:104C7C00E10FF01F1081195F1B83CF93DF931B8112
:104C8C001A9310E11A9310EF1A930E94E56BDF91BF
:104C9C00CF911B831B81105D1C831C810E943A6A7F
:104CAC00E981FA81108113951083112311F00C9472
:104CBC0030262396089526971985143610E008F0AF
:104CCC001FEF112311F40C94712610E00AE01D83E0
:104CDC000C830C9493261985123310E008F01FEF07
:104CEC00112311F40C94802610E005E01D830C8335
:104CFC000C9493261985143110E008F01FEF112342
:104D0C0011F40C948F2610E002E01D830C830C949C
:104D1C00932610E001E01D830C83FE01EF93FF93BB
:104D2C001E81FF91EF9111931E811F3710E011F03E
:104D3C0008F01FEF112311F40C94AA26FE013196F2
:104D4C001FEF11930C94AE26FE01319610E01193D7
:104D5C00088119810F931F930C811D81689445F86C
:104D6C00BF91AF910E940871198308831985012F97
:104D7C0011270F931F93088119813F912F91020FD7
:104D8C00131F1B830A830A811B810F931F930C81B2
:104D9C001D81689445F8BF91AF910E9429710F93C2
:104DAC001F930C811D81689445F8BF91AF910E94AF
:104DBC0008711B830A830A811B811A930A931A8533
:104DCC00012F11271A930A931B85012F11271A9370
:104DDC000A930E9410722696102F0895CF93DF939A
:104DEC0010E01A931FE01A9310E01A930E94606A65
:104DFC00DF91CF911A811F9318810F9101171FEF2B
:104E0C0008F01127112311F40C94112713E00E94C0
:104E1C003A6A0C94142710E20E943A6ACF93DF93FB
:104E2C0010E01A931FE01A9311E01A930E94606A23
:104E3C00DF91CF911A811F9319810F91011710E007
:104E4C0011F008F01FEF112311F40C94322714E029
:104E5C000E943A6A0C94352710E20E943A6A08952F
:104E6C00229710E00E94926A176C109339020A8103
:104E7C001B81103009F4003010E011F008F01FEF26
:104E8C00112311F40C944E270A811B810E94F36BA1
:104E9C00109139021F3F10E009F41FEF112311F498
:104EAC000C945D2710E00C9460270C9460271FEF86
:104EBC000C9460270895229710913C021983198154
:104ECC00188319811F9310913B020F91011B102F16
:104EDC001983188110933B021981089524971C8122
:104EEC00103010E009F01FEF18831881112311F412
:104EFC000C9488271D811E3110E011F008F01FEF73
:104F0C001093C6031D811A3011F00C94D127CF9346
:104F1C00DF93109151021A9310E01A9315E01A9333
:104F2C001F811A930E946126DF91CF911093510239
:104F3C00CF93DF930E941724DF91CF91CF93DF9310
:104F4C0010E01A931FE01A9310E01A930E94606A03
:104F5C00DF91CF9110E20E943A6ACF93DF9310E079
:104F6C001A931AE01A9311E01A930E94606ADF9167
:104F7C00CF9116E00E943A6ACF93DF9310915102C1
:104F8C001A9310E01A9315E01A930E94F426DF91FD
:104F9C00CF910C94EC291B3011F00C940C28188137
:104FAC00112311F40C94E9270091AC03112704FD93
:104FBC001FEF1095E894112309F068941091AC033D
:104FCC0014F91093AC03CF93DF930E941724DF9155
:104FDC00CF91CF93DF9310E01A9313E01A9311E063
:104FEC001A930E94606ADF91CF9116E00E943A6A90
:104FFC00CF93DF9311E01A9310E01A9312E01A93F7
:10500C000E94F426DF91CF910C94EC291C3011F006
:10501C000C9476281091AC031F701B831B81012FFD
:10502C0011E00695111FE8F716951695169516952D
:10503C001B83CF93DF931B811A9317E01A931FE006
:10504C001A931F811A930E946126DF91CF911B83C3
:10505C001B811A831B81012F11E00695111FE8F7A4
:10506C0016951695169516951B831881112311F418
:10507C000C9449281091AC03107F1F931B810F9146
:10508C00102B1093AC030E948323CF93DF931A81D0
:10509C001A9317E01A931FE01A930E94F426DF91DB
:1050AC00CF91CF93DF9310E01A9313E01A9311E092
:1050BC001A930E94606ADF91CF910091AC03112783
:1050CC0000FD1FEF112311F40C94712815E00E94C0
:1050DC003A6A0C94742816E00E943A6A0C94EC29F3
:1050EC001F3011F00C94B1281881112311F40C9479
:1050FC008E280091AC03112705FD1FEF1095E89445
:10510C00112309F068941091AC0315F91093AC03BA
:10511C00CF93DF930E941724DF91CF91CF93DF932E
:10512C0010E01A9317E01A9311E01A930E94606A28
:10513C00DF91CF9116E00E943A6ACF93DF9311E092
:10514C001A9310E01A9312E01A930E94F426DF913E
:10515C00CF910C94EC291D3111F00C94E32818819B
:10516C00112311F40C94C9280091B103112706FDE9
:10517C001FEF1095E894112309F068941091B10376
:10518C0016F91093B103CF93DF930091B10311275C
:10519C0006FD1FEF1A930E942B23DF91CF91CF9323
:1051AC00DF9311E01A9310E01A9312E01A930E9405
:1051BC00F426DF91CF910C94EC291E3111F00C9454
:1051CC0015291881112311F40C94FB280091B103BB
:1051DC00112707FD1FEF1095E894112309F068942F
:1051EC001091B10317F91093B103CF93DF93009192
:1051FC00B103112707FD1FEF1A930E942B23DF9198
:10520C00CF91CF93DF9311E01A9310E01A9312E031
:10521C001A930E94F426DF91CF910C94EC29103252
:10522C0011F00C9453291091B10310731695169527
:10523C00169516951B83CF93DF931B811A9310E061
:10524C001A9313E01A931F811A930E946126DF911F
:10525C00CF911B83CF93DF931B811A930E943A2328
:10526C00DF91CF911091B1031F7C1F931B81110F04
:10527C00110F110F110F0F91102B1093B103CF932E
:10528C00DF931B811A9310E01A9313E01A930E9478
:10529C00F426DF91CF910C94EC29193311F00C9476
:1052AC009129CF93DF93109185021695169516953B
:1052BC0016951A9310E01A931FE01A931F811A93F4
:1052CC000E946126DF91CF9110931E04CF93DF9340
:1052DC0010911E041A930E943A23DF91CF91CF9321
:1052EC00DF9310911E041A9310E01A931FE01A9387
:1052FC000E94F426DF91CF9110911E04110F110F13
:10530C00110F110F1F9310911F040F91102B10935D
:10531C0085020C94EC291A3311F00C94CC29CF9300
:10532C00DF93109185021F701A9310E01A931FE0FF
:10533C001A931F811A930E946126DF91CF911093CB
:10534C001F04CF93DF9310911F041A930E943A23EA
:10535C00DF91CF91CF93DF9310911F041A9310E03C
:10536C001A931FE01A930E94F426DF91CF911091AB
:10537C001E04110F110F110F110F1F9310911F0409
:10538C000F91102B109385020C94EC29153411F00D
:10539C000C94EC29CF93DF9310E01A9310E01A933E
:1053AC0011E01A930E94606ADF91CF91CF93DF9343
:1053BC0018E0412A0AE31AE61A930A93EBECF6EE8C
:1053CC000E94C46DDF91CF910C94EC29089527971E
:1053DC001091CE0410951F931885103010E009F42D
:1053EC001FEF0F91102B112311F40C94FF290C9427
:1053FC004B2C1F81103010E009F01FEF1883ECE5E7
:10540C00F8EEEF93FF931885012F1127FF91EF9181
:10541C00E00FF11F14911B83E2EAF8EEEF93FF9378
:10542C001885012F1127FF91EF91E00FF11F1491B7
:10543C001C8318851D3010E009F41FEF112311F4A3
:10544C000C94502ACF93DF931091C0031A9310E061
:10545C001A931FE01A931A851A930E946126DF9102
:10546C00CF911093C003CF93DF930E940D25DF9152
:10547C00CF91CF93DF931091C0031A9310E01A933E
:10548C001FE01A930E94F426DF91CF910C944B2CC1
:10549C000C947F2A18851E3010E009F41FEF11239D
:1054AC0011F40C947F2ACF93DF931091C1031A93BC
:1054BC0010E01A931FE01A931A851A930E94612622
:1054CC00DF91CF911093C103CF93DF930E940D25F1
:1054DC00DF91CF91CF93DF931091C1031A9310E01A
:1054EC001A931FE01A930E94F426DF91CF910C942B
:1054FC004B2CCF93DF9318851A930E94F520DF91E4
:10550C00CF911B811F3F10E009F41FEF112311F401
:10551C000C949C2ACF93DF9318851A9318851A93B1
:10552C000E947427DF91CF910C94DA2B1B811038D9
:10553C0010E008F01FEF112311F40C94EC2A1B81DE
:10554C001F771B831B81E8E4F2E01F770027E10F34
:10555C00F01F10811695169516951E83CF93DF9329
:10556C001E811A9310E01A931FE01A931A851A934E
:10557C000E946126DF91CF911E83CF93DF931E8112
:10558C001A930E945524DF91CF91CF93DF931E8104
:10559C001A9310E01A931FE01A930E94F426DF91DD
:1055AC00CF911881112311F40C94EA2A1B811F93BB
:1055BC001E81110F110F110FE8E4F2E0AF91AF77DC
:1055CC00BB27EA0FFB1F10830C94DA2B1C811130C4
:1055DC0010E009F41FEF112311F40C942D2B1B81F7
:1055EC00E8E4F2E01F770027E10FF01F1081112390
:1055FC0009F01FEF19831FEF1093C60318811123B5
:10560C0011F40C940C2B198110951983CF93DF9303
:10561C0019811A930E942B23DF91CF91CF93DF93A3
:10562C0011E01A9310E01A9312E01A930E94F426D8
:10563C00DF91CF911B811F931981E8E4F2E0AF91C8
:10564C00AF77BB27EA0FFB1F10830C94DA2B1B815F
:10565C00E8E4F2E01F770027E10FF01F10811E83B2
:10566C001885153210E009F41FEF112311F40C9476
:10567C00422B1E811A5F1E83CF93DF931E811A93D8
:10568C0010E01A931E811A931A851A930E946126B0
:10569C00DF91CF911E831B811F931E81E8E4F2E002
:1056AC00AF91AF77BB27EA0FFB1F10831885113220
:1056BC0011F00C946E2BCF93DF931E811F5F1A9306
:1056CC000E943A23DF91CF911FEF812E0C94B92BBE
:1056DC00123211F00C94762B15E1812E0C94B92B0F
:1056EC00133211F00C947E2B10E0812E0C94B92BFC
:1056FC00143211F00C94862B16E0812E0C94B92BDD
:10570C00153211F00C949F2B1E81165010936802C9
:10571C00CF93DF931E81012F1127065010401A934F
:10572C000A930E945B23DF91CF911FEF812E0C9483
:10573C00B92B133311F00C94A72B11E1812E0C947F
:10574C00B92B1F3311F00C94AF2B19E0812E0C9454
:10575C00B92BCF93DF931E811A930E943A23DF91CA
:10576C00CF911FEF812E182D1F3F10E009F01FEF76
:10577C00112311F40C94CE2BCF93DF93182D1F9380
:10578C001E810F91100F1A930E943121DF91CF913E
:10579C00CF93DF931E811A9310E01A931E811A93F4
:1057AC000E94F426DF91CF91CF93DF9310E01A93F0
:1057BC001DE01A9310E01A930E94606ADF91CF915A
:1057CC0018851F3110E008F01FEF112311F40C9411
:1057DC00F42B14E40E943A6A0C940F2C18851E309A
:1057EC0010E011F008F01FEF112311F40C94032CAE
:1057FC001CE40E943A6A0C940F2C18851D301FEF84
:10580C0008F01127112311F40C940F2C15E50E94AC
:10581C003A6A1881112311F40C944B2C10919302B9
:10582C001093B3021FEF10937203CF93DF930E9478
:10583C00A112DF91CF91CF93DF930E94E913DF91F7
:10584C00CF91CF93DF930E941B14DF91CF91CF9315
:10585C00DF930E94BD11DF91CF911B81103210E0BC
:10586C0008F01FEF112311F40C943F2C1FEF109331
:10587C00C6031B81103410E008F01FEF112311F444
:10588C000C944B2C1FEF1093CB030895219710E031
:10589C001883CF93DF9310917D0210951A930E9479
:1058AC008E02DF91CF91CF93DF930E94BD1CDF91CD
:1058BC00CF91CF93DF930E94D41DDF91CF91FE0146
:1058CC00108113951083CF93DF9310E00AE01A93A5
:1058DC000A930E943627DF91CF9110951F93188160
:1058EC00133610E011F008F01FEF0F91102B11235D
:1058FC0011F40C944F2C188114361FEF08F011275B
:10590C00112311F40C94BE2C10913E021A931DE03D
:10591C001A931EE01A930E94F7712396112311F427
:10592C000C949E2C10913F0210933E020C94AE2CC2
:10593C0010913E0210933F0210913E021A931DE00B
:10594C001A931EE01A930E94ED71239610933E0257
:10595C00CF93DF9310913E021A9310E01A930E949A
:10596C00ED29DF91CF9111E010933D020C94242E80
:10597C0010913E02103010F40C94E32C1D3019F0F1
:10598C0010F00C94E32CCF93DF931091C0031A9377
:10599C001091C0031A930E94B021DF91CF91CF9345
:1059AC00DF931091C0031A930E94071ADF91CF91D5
:1059BC001FEF1093C9030C94F82D1E3010F40C94A7
:1059CC00062D1E3119F010F00C94062DCF93DF9399
:1059DC001091C1031A931091C1031A930E94B02124
:1059EC00DF91CF91CF93DF931091C1031A930E9453
:1059FC00231BDF91CF911FEF1093CA030C94F82D4A
:105A0C001F3111F00C941C2D0E949B22E2E3F0E05C
:105A1C003B96109193020E941A6CE2E5F0E03B96E3
:105A2C001091B3020E941A6C0C94F82D103211F0E4
:105A3C000C942B2D0E949B22E2E1F0E07E961091BB
:105A4C0086020E941A6C0C94F82D113210F40C94EE
:105A5C00362D183319F010F00C94362D0C943F2D74
:105A6C001F3310F40C946B2D133419F010F00C94AC
:105A7C006B2D0E949B22ECE5F8EEEF93FF931091B7
:105A8C003E02012F1127FF91EF91E00FF11F1491AE
:105A9C001F71812EE2E1F0E0EF93FF93182D012F9F
:105AAC001127FF91EF91E00FF11FEF93FF93182D4A
:105ABC00E8E6F2E01F710027E10FF01F1081FF9163
:105ACC00EF910E941A6C0C94F82D193311F00C9470
:105ADC00712D0C94752D1A3311F00C948D2D0E9490
:105AEC009B2210911E04110F110F110F110F1F93F8
:105AFC0010911F040F91102B10938502E2E1F0E03E
:105B0C007D96109185020E941A6C0C94F82D1B3313
:105B1C0010F40C94982D1E3319F010F00C94982D51
:105B2C000C949C2D143411F00C94C82D0E949B22C3
:105B3C00ECE5F8EEEF93FF9310913E02012F112745
:105B4C00FF91EF91E00FF11F14911F70812EE2E590
