:100000000C943D3B0C94DD440C94DD440C94DD4495
:100010000C94DD440C94DD440C94DD440C94DD44DC
:100020000C94DD440C94DD440C94DD440C94DD44CC
:100030000C94DD440C94DD440C94DD440C94DD44BC
:100040000C94DD440C94DD440C949D3B0C94DD44F5
:100050000C94203C0C94EE3B0C94DD440C94DD4459
:100060000C94DD440C94DD440C94DD440C94DD448C
:100070000C94DD440C94DD440C94DD4410E81093A2
:10008000F20310E01093F30314E01093F40310E074
:100090001093330210E01093850210E01093840255
:1000A0001FEF109378031FEF109377031FEF109348
:1000B0007A0310E010933C031FE7109336031FE709
:1000C000109337031CEF10933503089518811F9385
:1000D00016E11F93E89440F8E1E7F3E0A4E0B0E014
:1000E0003F914F9150E00E94703E089500E010E073
:1000F00020E030E0009371031093720320937303A8
:1001000030937403CF93DF9318811A930E94660093
:10011000DF91CF9118811F9312E01F93E89440F86C
:10012000E6E1F0E03F914F91A1E0B0E060E050E007
:100130000E94703E18811F9313E01F93E89440F8CB
:10014000E6E1F0E03F914F91A1E0B0E068E250E0DD
:100150000E94703E18811F9314E01F93E89440F8AA
:10016000E6E1F0E03F914F91A1E0B0E064E150E0C2
:100170000E94703E18811F9315E01F93E89440F889
:10018000E6E1F0E03F914F91A1E0B0E060E850E09F
:100190000E94703E0AEA1AEA2AEA3AEA00937103D8
:1001A000109372032093730330937403CF93DF9300
:1001B00018811A930E946600DF91CF9108952397CA
:1001C0001B811095E894112309F068941BB112F972
:1001D0001BB91B8110951F9348E331E00E94BE3D7F
:1001E0000F91002311F0106801C01F7748E331E040
:1001F0000E94B53D08952197CF93DF931FEF1A9387
:100200000E94DF00DF91CF91E8E0F0E0FA93EA93FB
:1002100010E010831FE01A931081088101171FEF6F
:1002200008F01127112311F00C944701E2E3F0E0EC
:10023000EF93FF931C81012F1127A0E1B0E0E89418
:1002400045F80E94F2430F931F93182D012F112799
:100250003F912F91020F131FFF91EF91E00FF11FBC
:100260000E94493F1B83182D1F931B81E4E6F2E097
:10027000AF91AF73BB27EA0FFB1F1083E981FA81AF
:10028000108113951083112311F00C940D01239606
:1002900010E00AE00E94003FCF93DF9310E01A9332
:1002A0000E94DF00DF91CF9108952197CF93DF93D4
:1002B0001FEF1A930E94DF00DF91CF91E8E0F0E09A
:1002C000FA93EA9310E010831FE01A9310810881DB
:1002D00001171FEF08F01127112311F00C94A20150
:1002E000E2E3F1E0EF93FF931C81012F1127A0E1DE
:1002F000B0E0E89445F80E94F2430F931F93182D45
:10030000012F11273F912F91020F131FFF91EF91A2
:10031000E00FF11F0E94493F1B83182D105F1F93B0
:100320001B81E4E6F2E0AF91AF73BB27EA0FFB1F3E
:100330001083E981FA81108113951083112311F044
:100340000C946701239610E00AE00E94003FCF93CF
:10035000DF9310E01A930E94DF00DF91CF910895A0
:100360002197E8E0F0E0FA93EA9310E010831FE1B0
:100370001A931081088101171FEF08F0112711232C
:1003800011F00C94E401182D105E1F93E2E1F0E0EF
:10039000EF93FF93182D012F1127FF91EF91E00F9D
:1003A000F11F0E94493FE4E6F2E0AF91AF73BB2733
:1003B000EA0FFB1F1083E981FA81108113951083E6
:1003C000112311F00C94BA01239608952197CF932D
:1003D000DF931FEF1A930E94DF00DF91CF91E8E0D7
:1003E000F0E0FA93EA9310E010831FE01A93108173
:1003F000088101171FEF08F01127112311F00C9449
:100400003402182DE4E6F2E01F730027E10FF01F1D
:1004100010811B83E2E3F0E0EF93FF931C81012F37
:100420001127A0E1B0E0E89445F80E94F2430F9351
:100430001F93182D012F11273F912F91020F131F8A
:10044000FF91EF91E00FF11FEF93FF931B81FF915D
:10045000EF910E94273FE981FA8110811395108363
:10046000112311F00C94F8012396CF93DF9310E041
:100470001A930E94DF00DF91CF9108952197CF93C7
:10048000DF931FEF1A930E94DF00DF91CF91E8E026
:10049000F0E0FA93EA9310E010831FE01A931081C2
:1004A000088101171FEF08F01127112311F00C9498
:1004B0008D02182D105FE4E6F2E01F730027E10FB4
:1004C000F01F10811B83E2E3F1E0EF93FF931C81A7
:1004D000012F1127A0E1B0E0E89445F80E94F24313
:1004E0000F931F93182D012F11273F912F91020F6A
:1004F000131FFF91EF91E00FF11FEF93FF931B810B
:10050000FF91EF910E94273FE981FA8110811395B5
:100510001083112311F00C9450022396CF93DF9394
:1005200010E01A930E94DF00DF91CF910895219788
:10053000E8E0F0E0FA93EA9310E010831FE11A93E9
:100540001081088101171FEF08F01127112311F006
:100550000C94CF02182D105EE4E6F2E01F73002722
:10056000E10FF01F10811B83E2E1F0E0EF93FF93B6
:10057000182D012F1127FF91EF91E00FF11FEF933D
:10058000FF931B81FF91EF910E94273FE981FA8140
:10059000108113951083112311F00C94A10223965E
:1005A00008952197E8E0F0E0FA93EA9310E01083D1
:1005B0001FE01A931081088101171FEF08F011271F
:1005C000112311F00C941B03182D1F93E2E5F2E0A8
:1005D000EF93FF93182D012F1127FF91EF91E00F5B
:1005E000F11F0E94493FE4ECF2E0AF91AF70BB27EE
:1005F000EA0FFB1F1083182D1F93E2EAF2E0EF933E
:10060000FF93182D012F1127FF91EF91E00FF11F9C
:100610000E94493FECE1F3E0AF91AF70BB27EA0FD6
:10062000FB1F1083E981FA81108113951083112338
:1006300011F00C94DB022396E8E0F0E0FA93EA93E1
:1006400010E010831FE11A931081088101171FEF3A
:1006500008F01127112311F00C946A03182D1F9331
:10066000E2E6F2E0EF93FF93182D012F1127000F20
:10067000111FFF91EF91E00FF11F0E94523FECED2F
:10068000F2E0AF91AF71BB27AA0FBB1FEA0FFB1FB0
:1006900011830083182D1F93E2E3F2E0EF93FF93A1
:1006A000182D012F1127FF91EF91E00FF11F0E94EC
:1006B000493FE4EAF2E0AF91AF71BB27EA0FFB1FBD
:1006C0001083E981FA81108113951083112311F0B1
:1006D0000C94250323961091CF021093AF02109132
:1006E000D002103010E009F01FEFE894112309F058
:1006F000689410916E0316F910936E031091D10255
:100700001F931091D2020F911023E894112309F046
:10071000689410916D0317F910936D031091D20234
:10072000E894112309F0689410916D0316F9109361
:100730006D030895219710E51F9309811A811F9376
:10074000E89440F809811A81102FE6E1F0E0612F6A
:10075000A1E0B0E03F914F9150E00E94703E10E563
:100760001F93FE01A1E0B0E04F910E944D3E188121
:100770000895CF93DF9310E51A930A811B811A9392
:100780000A93FE0133968F011A930A9310E001E059
:100790001A930A930E94663EDF91CF9110E007E022
:1007A0000E94003F08952297CF93DF9310E51A939C
:1007B0000F8118851A930A93FE0135968F011A93BB
:1007C0000A9310E004E01A930A930E94663EDF91B8
:1007D000CF9110E007E00E94003F089513E91093C5
:1007E0007A0011E00E940F3F13EC10937A001091F1
:1007F0007A001071103010E009F01FEF112311F48E
:100800000C94F70313E810937A0010917900109379
:10081000FC030895109145022B981EBD1DB517FFCE
:10082000FDCF1EB5109346022B9A089510914202F7
:100830002B981EBD1DB517FFFDCF1EB510934402AA
:10084000109141021EBD1DB517FFFDCF1EB51093BF
:1008500043022B9A089510913C022B981EBD1DB5A2
:1008600017FFFDCF1EB51093400210913B021EBD35
:100870001DB517FFFDCF1EB510933F0210913A0230
:100880001EBD1DB517FFFDCF1EB510933E02109182
:1008900039021EBD1DB517FFFDCF1EB510933D02D9
:1008A0002B9A08951091370229981EBD1DB517FF88
:1008B000FDCF109136021EBD1DB517FFFDCF299A41
:1008C00008951091F00308E0449817FD449A459A62
:1008D000110F45980A95C1F70895E0E0F7E01081FF
:1008E000459808B117FB04F908B9459A16FB04F9B5
:1008F00008B9459A15FB04F908B9459A14FB04F99F
:1009000008B9459A13FB04F908B9459A12FB04F992
:1009100008B9459A11FB04F908B9459A10FB04F986
:1009200008B9459A4598E395D1F608951091F503D5
:100930001EBD1DB517FFFDCF1EB51093F60308951C
:10094000289815E01093F5030E9496040E949604DF
:10095000289A1091F6030895289815E01093F5034E
:100960000E9496040E9496041091F60311701030B4
:1009700010E009F41FEF112311F40C94B204289A2B
:100980000895289816E01093F5030E949604289A7B
:1009900008950E94C104289811E01093F5030E9465
:1009A000960410E01093F5030E949604289A0E9482
:1009B000AC0408950E94C104289811E01093F50337
:1009C0000E9496041FE31093F5030E949604289A50
:1009D0000E94AC0408950E94C10428983B812A819A
:1009E000198108810093F7031093F8032093F9030A
:1009F0003093FA0310E21093F5030E9496041091CD
:100A0000F9031093F5030E9496041091F8031093D4
:100A1000F5030E9496041091F7031093F5030E94CA
:100A20009604289A0E94AC041091F60310721030BC
:100A300010E009F01FEFE894112309F06894109179
:100A4000E50312F91093E5030091E503112702FD78
:100A50001FEF109508950E94C104289817EC109379
:100A6000F5030E949604289A0E94AC041091F603A4
:100A70001072103010E009F01FEFE894112309F014
:100A800068941091E50312F91093E5030091E503D2
:100A9000112702FD1FEF10950895219709811A81F2
:100AA00001501040102F18830E94C10428983E81E5
:100AB0002D811C810B810093F7031093F803209381
:100AC000F9033093FA0312E01093F5030E949604A1
:100AD0001091F9031093F5030E9496041091F80306
:100AE0001093F5030E9496041091F7031093F503F9
:100AF0000E949604E7E0F0E0FA93EA9310E0108396
:100B0000EF93FF931A81FF91EF911A93108108815F
:100B100001171FEF08F01127112311F00C94A50500
:100B2000172DE0E0F7E01F7F0027E10FF01F108195
:100B30001093F5030E949604E981FA8110811395C0
:100B40001083112311F00C9487052396289A0E9494
:100B5000AC041091F6031072103010E009F01FEF92
:100B6000E894112309F068941091E50312F91093A9
:100B7000E5030091E503112702FD1FEF109508958D
:100B800021970E94AC040A811B8101501040102F54
:100B900018833F812E811D810C810093F7031093F0
:100BA000F8032093F9033093FA0328981BE010937D
:100BB000F5030E9496041091F9031093F5030E9427
:100BC00096041091F8031093F5030E949604109177
:100BD000F7031093F5030E94960410E01093F503B9
:100BE0000E949604E7E0F0E0FA93EA9310E01083A5
:100BF000EF93FF931A81FF91EF911A93108108816F
:100C000001171FEF08F01127112311F00C94320681
:100C10000E9496041C81112311F40C941D06172DBB
:100C20001F931091F603E0E0F6E0AF91AF7FBB2792
:100C3000EA0FFB1F10830C942906172D1F931091A8
:100C4000F603E0E0F7E0AF91AF7FBB27EA0FFB1FB1
:100C50001083E981FA81108113951083112311F01B
:100C60000C94FF052396289A0895E6E3F2E0EF93AB
:100C7000FF931881FF91EF911193E7E3F2E010E009
:100C800011930E9452040E942B0400913D02109186
:100C90003E0220913F02309140020895E6E3F2E0E7
:100CA000EF93FF931881FF91EF911193E7E3F2E047
:100CB00010E811930E945204E1E4F2E0EF93FF93F5
:100CC0001981FF91EF911193E2E4F2E010E01193AA
:100CD0000E9416040895E6E3F2E0EF93FF93188173
:100CE000FF91EF911193E7E3F2E010E811930E9476
:100CF000520409811A8100934102109342020E941A
:100D000016040895E6E3F2E0EF93FF931881FF9154
:100D1000EF911193E7E3F2E010E811930E9452047F
:100D20003C812B811A8109810093390210933A0288
:100D300020933B0230933C020E942B040895CF93F2
:100D4000DF9310EF1A930E943506DF91CF91009345
:100D50005A0210935B0220935C0230935D02EAE03A
:100D6000F0E00E94573F00935A0210935B022093D9
:100D70005C0230935D02CF93DF9300915A02109191
:100D80005B0220915C0230915D023A932A931A93A0
:100D90000A9310EF1A930E948206DF91CF91EEE042
:100DA000F0E00E94573F00935A0210935B02209399
:100DB0005C0230935D02CF93DF9300915A02109151
:100DC0005B0220915C0230915D023A932A931A9360
:100DD0000A9311EF1A930E948206DF91CF91089532
:100DE0002297CF93DF931FEF1A930E94DF00DF91CA
:100DF000CF911091A20213701883E8E0F0E0FA930B
:100E0000EA9310E0108313E01A9310810881011710
:100E10001FEF08F01127112311F00C943F07182D34
:100E20001F931B81110F110F0F91100FECE1F3E0D5
:100E30001F700027E10FF01F10811C83182D133045
:100E400010E009F41FEF112311F40C942B071C81FF
:100E500008E010271C83CF93DF931C811A93182D71
:100E60001B5B1A930E944E06DF91CF91E981FA81B4
:100E7000108113951083112311F00C94060723960B
:100E800010E002E30E94003FCF93DF9310E01A933B
:100E90000E94DF00DF91CF91089510E004E60E94E8
:100EA000003FCF93DF9310E01A9318E41A930E9447
:100EB0004E06DF91CF9110E004E60E94003FCF93F1
:100EC000DF931FEF1A930E94DF00DF91CF91CF9342
:100ED000DF930E94F006DF91CF91CF93DF9310E074
:100EE0001A930E94DF00DF91CF9108952397CF934B
:100EF000DF931FEF1A930E94DF00DF91CF91E8E0AC
:100F0000F0E0FA93EA9310E010831FE11A93108146
:100F1000088101171FEF08F01127112311F00C941D
:100F2000B407182DECEDF2E01F710027110F001F20
:100F3000E10FF01F008111811C830B83CF93DF939E
:100F40000B811C811A930A93182D10561A930E9434
:100F50006B06DF91CF91E981FA811081139510839F
:100F6000112311F00C9488072396E8E0F0E0FA933F
:100F7000EA9310E010831FE11A9310810881011792
:100F80001FEF08F01127112311F00C94E407182D1E
:100F9000E4EAF2E01F710027E10FF01F10811D83CA
:100FA000CF93DF931D811A93182D10541A930E942A
:100FB0004E06DF91CF91E981FA811081139510835C
:100FC000112311F00C94BE072396CF93DF9310E00A
:100FD0001A930E94DF00DF91CF9108951DE00E94D7
:100FE000D03E1AE00E94D03E089513E20E94D03E07
:100FF00010913302105D0E94D03E1AE30E94D03E51
:10100000CF93DF9318E0412A00ED1EE31A930A9371
:101010000091520210915302CF93DF931A930A93D7
:1010200010E01A9310E01A9310E21A93689443F8B0
:10103000689445F8E89454F855F80E941D43DF91F0
:10104000CF91DF91CF911DE30E94D03E0895CF93C1
:10105000DF9318E0412A00ED1EE31A930A93E9EBAF
:10106000F3E00E94DA40DF91CF910E94EE070895ED
:10107000229710916102112311F40C944D0816E08F
:101080000E94D03E1A810E94D03E10E00E94D03EC5
:1010900010E00E94D03E0C94910810E00FEF0093F6
:1010A0005202109353020E94F507CF93DF9318E08A
:1010B000412A00ED1EE31A930A931C81CF93DF931C
:1010C0001A9310E01A9310E01A9310E21A9368949E
:1010D00043F80E94E440DF91CF91DF91CF9110E27D
:1010E0000E94D03ECF93DF9318E0412A00ED1EE32B
:1010F0001A930A93EAE0FDE8EF93FF931C81012F16
:101100001127ADE0B0E0E89445F80E94F243FF916A
:10111000EF91E00FF11F0E94D140DF91CF910E942B
:10112000EE0708950E94F507CF93DF9318E0412A58
:1011300000ED1EE31A930A93E0E9F3E00E94DA401F
:10114000DF91CF910E94EE07089510916102112363
:1011500011F40C94C00816E00E94D03E10E00E94EA
:10116000D03E00915702109158020E94D03E00914B
:10117000570210915802102F0E94D03E0C94F7088D
:10118000E0E9F3E0EF93FF933196FA93EA9318E2E4
:101190001A9317EF41221FEB412200915A0210913E
:1011A0005B0220915C0230915D02CF93DF933A9312
:1011B0002A931A930A9310E01A9310E01A9310E2FC
:1011C0001A93689445F8E89454F855F842F80E9448
:1011D0002441DF91CF9118E21F9318810F91011BD9
:1011E000102FFF91EF91108323960E94920808958B
:1011F000009157021091580217FF03C03FEF2FEFE5
:1012000002C03327222700935A0210935B022093D7
:101210005C0230935D020E94A5080895109160025F
:10122000012F112700935702109358020E94F808CB
:1012300008950E94F507E0E9F3E0EF93FF933196FC
:10124000FA93EA9318E21A9317EF41221FEB412217
:1012500000915A0210915B0220915C0230915D0274
:10126000CF93DF933A932A931A930A9310E01A9339
:1012700010E01A9310E21A93689445F8E89454F831
:1012800055F842F80E942441DF91CF9118E21F9354
:1012900018810F91011B102FFF91EF91108323965E
:1012A000CF93DF9318E0412A00ED1EE31A930A93CF
:1012B000E0E9F3E00E94DA40DF91CF9110E20E9472
:1012C000D03E1BE50E94D03E14E20E94D03EE0E9F1
:1012D000F3E0EF93FF933196FA93EA9318E21A93AF
:1012E00017EF41221FEB412200915A0210915B023D
:1012F00020915C0230915D02B801C901492F0E9422
:101300008C43482F0E948C43472F0E948C43462FCA
:101310000E948C4318E21F9318810F91011B102F1C
:10132000FF91EF9110832396CF93DF9318E0412A2A
:1013300000ED1EE31A930A93E0E9F3E00E94DA401D
:10134000DF91CF911DE50E94D03E0E94EE070895E7
:101350000E94A0041F7E103010E009F01FEF11233F
:1013600011F40C94CE090E94F507CF93DF9318E097
:10137000412A00ED1EE31A930A93E2E0FAE80E9484
:10138000D1401DE00E9499431AE00E949943DF91E9
:10139000CF911FEF0C94D1090C94D10910E00C945B
:1013A000D10908951091DB03112311F40C940F0A55
:1013B000CF93DF9310E01A9310E01A9310E01A9382
:1013C0000E94763DDF91CF91CF93DF9318E0412AC1
:1013D00000E51DE31A930A93EAE1FAE80E94D1407E
:1013E000DF91CF91CF93DF9310E01A9310E01A931F
:1013F00011E01A930E94763DDF91CF91CF93DF9356
:1014000018E0412A00E51DE31A930A93E3E2FAE8A3
:101410000E94D140DF91CF9110E00E948E3D08954F
:101420001091DB03112311F40C94320ACF93DF9354
:1014300010E01A9310E01A9311E01A930E94763D7F
:10144000DF91CF91CF93DF9318E0412A00E51DE3B0
:101450001A930A93ECE2FAE80E94D140DF91CF910F
:101460000C94360A10E002E00E94003F08951091AB
:10147000DB03112311F40C946D0ACF93DF9310E07A
:101480001A9310E01A9311E01A930E94763DDF91AF
:10149000CF91CF93DF9318E0412A00E51DE31A9323
:1014A0000A93E5E3FAE80E94D140DF91CF91CF9310
:1014B000DF9310E01A9310E01A9310E01A930E9441
:1014C000763DDF91CF9110E00E948E3D10E004E662
:1014D000E8E4F2E0B1E00E94AA4408951127062D45
:1014E000017009F41095112311F40C94CA0A10E04C
:1014F00004E6E8E4F2E0B1E00E94AA441091DB03C4
:10150000112311F40C94BD0ACF93DF9310E01A93CA
:1015100010E01A9310E01A930E94763DDF91CF916C
:10152000CF93DF9318E0412A00E51DE31A930A9355
:101530000091EB031091EC032091ED033091EE0349
:10154000CF93DF933A932A931A930A9318E01A934E
:1015500000E00A9310E21A93689443F8689445F8FF
:10156000E89454F855F842F80E942441DF91CF9155
:10157000DF91CF9110E00E948E3DCF93DF9318E072
:10158000412A00ED1EE31A930A931EE20E9499433A
:10159000DF91CF9108952497CF93DF9313E01A93AF
:1015A0000E943506DF91CF9100913D0210913E02DD
:1015B00020913F02309140023B832A8319830883A4
:1015C000CF93DF9318E0412A00ED1EE31A930A93AC
:1015D000EEE3FAE80E94D140DF91CF91CF93DF9301
:1015E00018E0412A00ED1EE31A930A933D812C81F5
:1015F0001B810A81689443F8B801C901492F0E94F0
:101600008C43482F0E948C43472F0E948C43462FC7
:101610000E948C43DF91CF91CF93DF9318E0412A52
:1016200000ED1EE31A930A93EAEFF9E80E94D14015
:10163000DF91CF910E94EE07089528971AE314B91D
:101640001FE915B910E717B91FEC18B91091E50398
:101650001B7F1093E503469815E00E940F3F469AC2
:1016600015E00E940F3F10E317B916E206EB009356
:1016700052021093530211E004EF0E94003F1BEB53
:1016800014B91FE915B90E94F507112737991FEF03
:10169000112311F40C945C0BCF93DF9318E0412AD3
:1016A00000ED1EE31A930A93EBE4FAE80E94D1409E
:1016B000DF91CF910C94750BCF93DF9318E0412A03
:1016C00000ED1EE31A930A93EBE5FAE80E94D1407D
:1016D0001DE00E9499431AE00E949943DF91CF9147
:1016E0001091E50314601093E5030E949F06CF93C9
:1016F000DF930E94CB0ADF91CF910895E7E3F2E0F8
:1017000010E81193E6E3F2E0EF93FF931091F203F8
:101710001F5FFF91EF9111930E9452041091F30308
:10172000109345020E940A04E6E3F2E01091F203EE
:1017300011930E9452040895E7E3F2E010E8119338
:10174000E6E3F2E0EF93FF931091F2031F5FFF9146
:10175000EF9111930E9452041091F30310934502EC
:101760000E940A04089565970E94F507CF93DF93BE
:1017700018E0412A00ED1EE31A930A93ECE7FAE819
:101780000E94D1401DE00E9499431AE00E949943B3
:10179000DF91CF9110E01A8710E0188710E01C8BC2
:1017A00010E0198B1FEF188B00E010E020E030E014
:1017B0000093EB031093EC032093ED033093EE03BF
:1017C00010E000E01C870B870E94D20910E000E0C7
:1017D0001983088310E000E01B830A83388D2F896A
:1017E0001E890D893F832E831D830C831A851095D6
:1017F000112311F40C94650C10E000E01C870B879A
:1018000011275A991FEF1095E894112309F0689455
:101810001BB112F91BB9CF93DF93FE017496FA93B3
:10182000EA9314E61A930E94993EDF91CF911A87AA
:101830001A85112311F40C94360C1C89113010E018
:1018400009F41FEF1F931C89143010E009F41FEFF7
:101850000F91102B112311F40C94340C10E000E0C4
:101860001C870B870C94650C0C94400C15E10E94AE
:10187000D03EFE013B96A081B1811196A083B18339
:101880001C89113010E009F41FEF1F931C891430DC
:1018900010E009F41FEF0F91102B1F931C891831D2
:1018A00010E009F41FEF0F91102B1F930B851C857F
:1018B000103009F4043110E011F008F01FEF0F911F
:1018C000102B112311F40C940B0C18851095112377
:1018D00011F40C946F0C0E94100A1FEF18871C89DA
:1018E000113010E009F41FEF112311F40C94A10D35
:1018F000CF93DF93FE017396FA93EA9314E61A935B
:101900000E94993EDF91CF9119871985112311F417
:101910000C949B0DCF93DF93FE017296FA93EA939A
:101920001AE01A930E94993EDF91CF9119871B8983
:101930000FEF011B102F1F931A890F91011710E051
:1019400009F41FEF112311F40C94990D10E0198B79
:10195000E8E0F0E0FA93EA9310E010831FE71A93AF
:101960001081088101171FEF08F01127112311F0D2
:101970000C94E10CCF93DF93EAE0F0E0FA93EA9362
:101980001AE01A930E94993EDF91CF911C871C891F
:101990001F931A2D0F91100F1C8B182D1F931A2DAA
:1019A000E0E0F7E0AF91AF7FBB27EA0FFB1F1083AA
:1019B000E981FA81108113951083112311F00C94A1
:1019C000B10C2396CF93DF93FE017096FA93EA93BE
:1019D0001AE01A930E94993EDF91CF911987CF9315
:1019E000DF933F812E811D810C813A932A931A93B4
:1019F0000A9310E000E81A930A930E944D05DF91C4
:101A0000CF911095112311F40C940D0DFE01329617
:101A1000A081B1811196A083B183CF93DF933F81E1
:101A20002E811D810C813A932A931A930A9310E018
:101A300000E81A930A931FEF1A930E94C005DF91E2
:101A4000CF91E8E0F0E0FA93EA9310E010831FE70B
:101A50001A931081088101171FEF08F01127112335
:101A600011F00C945D0D182DE0E0F6E01F7F0027CB
:101A7000E10FF01F10811F93182DE0E0F7E01F7FAA
:101A80000027E10FF01F10810F91011710E009F0FE
:101A90001FEF112311F40C94540DFE013396A08115
:101AA000B1811196A083B183E981FA8110811395E8
:101AB0001083112311F00C942A0D239619891F937A
:101AC00018890F91011710E009F41FEF112311F489
:101AD0000C948F0D16E00E94D03E3F812E811D8117
:101AE0000C8100581F4F2F4F3F4F3F832E831D8384
:101AF0000C830091EB031091EC032091ED033091E6
:101B0000EE0300581F4F2F4F3F4F0093EB031093EE
:101B1000EC032093ED033093EE030C94990DFE013A
:101B20003B96A081B1811196A083B18315E10E94FB
:101B3000D03E0C949F0D10E00FEF1C870B8710E038
:101B40001C8B10E01A871C89143010E009F41FEF79
:101B50001F931C89183110E009F41FEF0F91102B0F
:101B60001F930B851C85103009F4043110E011F02F
:101B700008F01FEF0F91102B112311F40C94F60BAA
:101B800016E00E94D03E18891F9319890F91011702
:101B900010E009F01FEF112311F40C94F30D0FEF77
:101BA0001FEF2FEF3FEF00935A0210935B02209339
:101BB0005C0230935D020E94F507CF93DF9318E03B
:101BC000412A00ED1EE31A930A93EFE8FAE80E9417
:101BD000D1401DE00E9499431AE00E949943DF9191
:101BE000CF910C94030E0091EB031091EC03209124
:101BF000ED033091EE0300935A0210935B022093A1
:101C00005C0230935D0208811981103009F40030C4
:101C100010E009F01FEF112311F40C94600E0FEF88
:101C20001FEF2FEF3FEF00935A0210935B022093B8
:101C30005C0230935D020E94F507CF93DF9318E0BA
:101C4000412A00ED1EE31A930A93EAEAFAE80E9499
:101C5000D140DF91CF91CF93DF9318E0412A00ED7F
:101C60001EE31A930A930A811B81CF93DF931A9381
:101C70000A9310E01A9310E01A9310E21A936894F2
:101C800043F8E89445F8E89454F855F80E941D4349
:101C9000DF91CF91DF91CF91CF93DF9318E0412A6D
:101CA00000ED1EE31A930A93E0ECFAE80E94D1409B
:101CB0001DE00E9499431AE00E949943DF91CF9161
:101CC0000A811B81103009F4003010E009F01FEF89
:101CD000112311F40C94BD0E0FEF1FEF2FEF3FEF08
:101CE00000935A0210935B0220935C0230935D02D2
:101CF0000E94F507CF93DF9318E0412A00ED1EE321
:101D00001A930A93E1EDFAE80E94D140DF91CF9156
:101D1000CF93DF9318E0412A00ED1EE31A930A9354
:101D20000C811D81CF93DF931A930A9310E01A93CD
:101D300010E01A9310E21A93689443F8E89445F877
:101D4000E89454F855F80E941D43DF91CF91DF913C
:101D5000CF91CF93DF9318E0412A00ED1EE31A9351
:101D60000A93E0ECFAE80E94D1401DE00E949943FA
:101D70001AE00E949943DF91CF9108952297CF9363
:101D8000DF9312E01A930E943506DF91CF9111275D
:101D90001A991FEF112311F40C94BF0E10913F02FA
:101DA0001A3A10E009F41FEF112311F40C94A20F5A
:101DB00010913D02103511F00C94EE0ECF93DF938D
:101DC00018E0412A00ED1EE31A930A93E6EEFAE8C2
:101DD0000E94D140DF91CF910C94710F113511F019
:101DE0000C94020FCF93DF9318E0412A00ED1EE31D
:101DF0001A930A93ECEFFAE80E94D140DF91CF9159
:101E00000C94710F123511F00C94160FCF93DF93D1
:101E100018E0412A00ED1EE31A930A93EAE0FBE87A
:101E20000E94D140DF91CF910C94710F133511F0C6
:101E30000C942A0FCF93DF9318E0412A00ED1EE3A4
:101E40001A930A93E4E1FBE80E94D140DF91CF911D
:101E50000C94710F143511F00C943E0FCF93DF9357
:101E600018E0412A00ED1EE31A930A93E2E2FBE830
:101E70000E94D140DF91CF910C94710F1F3511F06A
:101E80000C94520FCF93DF9318E0412A00ED1EE32C
:101E90001A930A93E5E3FBE80E94D140DF91CF91CA
:101EA0000C94710FCF93DF9318E0412A00ED1EE3ED
:101EB0001A930A93EEE3FBE80E94D140DF91CF91A1
:101EC000CF93DF9318E0412A00ED1EE31A930A93A3
:101ED00010913D02689443F8412F0E948C43DF919A
:101EE000CF91CF93DF9318E0412A00ED1EE31A93C0
:101EF0000A93E9E4FBE80E94D140DF91CF91CF93B0
:101F0000DF9318E0412A00ED1EE31A930A93109123
:101F10003E02689443F8412F0E948C43DF91CF9199
:101F2000CF93DF9318E0412A00ED1EE31A930A9342
:101F3000EAEFF9E80E94D140DF91CF910E94EE07CD
:101F40000C94B40F0E94F507CF93DF9318E0412A59
:101F500000ED1EE31A930A93E5E5FBE80E94D140E9
:101F6000DF91CF910E94EE07089525970E94F50713
:101F70001E8114551093F3030E947E0BCF93DF93C1
:101F800018E0412A00ED1EE31A930A931091F3031F
:101F9000CF93DF931A9310E01A9310E01A9310E294
:101FA0001A93689443F80E94E440DF91CF91DF9147
:101FB000CF91CF93DF9318E0412A00ED1EE31A93EF
:101FC0000A93EBE6FBE80E94D140DF91CF911E819E
:101FD000012F11273327222740E050E160E070E015
:101FE000689445F80E944E443C832B831A830983EE
:101FF00000E010E020E030E00093EB031093EC03EE
:102000002093ED033093EE03E8E0F0E0FA93EA93D7
:1020100010E010831FE01A931081088101171FEF51
:1020200008F01127112311F00C94DF10CF93DF93E8
:102030003F812E811D810C813A932A931A930A9332
:1020400011E000E01A930A9310E01A930E94C00571
:10205000DF91CF911885112311F40C946610EAE0FA
:10206000F0E0FA93EA9310E010831FEF1A931081C7
:10207000088101171FEF08F01127112311F00C94AC
:1020800063101A2DE0E0F7E01F7F0027E10FF01F3B
:1020900010811E83CF93DF9318E0412A00ED1EE3E9
:1020A0001A930A931885689443F8412F0E948C4331
:1020B000DF91CF91E981FA8110811395108311236B
:1020C00011F00C94381023960C947D10182D11707B
:1020D000113010E009F41FEF112311F40C947D105E
:1020E000CF93DF9318E0412A00ED1EE31A930A9381
:1020F0001EE20E949943DF91CF91EAE0F0E0FA936B
:10210000EA9310E010831FE31A93108108810117EE
:102110001FEF08F01127112311F00C94B510E0E027
:10212000F7E0EF93FF931A2D012F1127000F111FD6
:10213000000F111FFF91EF91E00FF11F019111911D
:10214000219131910093390210933A0220933B027E
:1021500030933C020E942B04E981FA81108113958F
:102160001083112311F00C94861023963F812E8149
:102170001D810C8100501F4F2F4F3F4F3F832E83F7
:102180001D830C830091EB031091EC032091ED0370
:102190003091EE0300501F4F2F4F3F4F0093EB0342
:1021A0001093EC032093ED033093EE03E981FA8161
:1021B000108113951083112311F00C940D102396A8
:1021C0000E949C0B0E946E0A11E004EFE8E4F2E02A
:1021D000B1E00E94AA440091EB031091EC0320911E
:1021E000ED033091EE0300935A0210935B022093AB
:1021F0005C0230935D021FEF1093790310E002E35D
:102200000E94003FCF93DF930E94BE0EDF91CF91DB
:1022100008952D970E94F507CF93DF9318E0412A88
:1022200000ED1EE31A930A931F85CF93DF931A9351
:1022300010E01A9310E01A9310E21A93689443F88E
:102240000E94E440DF91CF91DF91CF91CF93DF9354
:1022500018E0412A00ED1EE31A930A93EBE7FBE82E
:102260000E94D140DF91CF91CF93DF9310E01A937A
:1022700018E41A930E944E06DF91CF9110E004E615
:102280000E94003F1D851C5A012F1127332722274A
:1022900040E050E160E070E0689445F80E944E44F0
:1022A0003C872B871A87098710E000E018870F8387
:1022B00010E000E019830883E8E0F0E0FA93EA9385
:1022C00010E010831FE01A931081088101171FEF9F
:1022D00008F01127112311F00C946012CF93DF93B3
:1022E0003F852E851D850C853A932A931A930A9370
:1022F00011E000E01A930A9310E01A930E94C005BF
:10230000DF91CF9110E000E01E830D8310E000E02C
:102310001C830B830A851B8519870887EAE0F0E098
:10232000FA93EA9310E0108317E01A931081088162
:1023300001171FEF08F01127112311F00C94D5118C
:10234000CF93DF9310E51A930E851F851A930A9396
:1023500017E000E00F931F930B851C853F912F9191
:10236000020F131F1A930A9310E000E21A930A93C4
:102370000E94663EDF91CF9110E00AE00E94003F8C
:1023800008851985005E1F4F198708870D851E85F2
:10239000005E1F4F1E870D87E981FA81108113951A
:1023A0001083112311F00C949711239610E51F93BD
:1023B000088519851F93E89440F808851985102F22
:1023C000E6E1F0E0612FA1E0B0E03F914F9150E0F5
:1023D0000E94703ECF93DF9310E51A9316E000E061
:1023E0001A930A9311E000E01A930A930E94483E60
:1023F000DF91CF91EAE0F0E0FA93EA9310E01083E6
:102400001FEF1A931081088101171FEF08F01127A1
:10241000112311F00C9436121A2DE0E0F7E01F7F23
:102420000027E10FF01F10811F931A2DE0E0F6E066
:102430001F7F0027E10FF01F10810F91011710E09F
:1024400009F01FEF112311F40C942D12FE013696A2
:10245000A081B1811196A083B183E981FA811081B5
:1024600013951083112311F00C94031223960B8102
:102470001C81103009F4003010E009F41FEF112323
:1024800011F40C9448121EE20E94D03E0C944B12A0
:1024900013E20E94D03E3F852E851D850C8500509D
:1024A0001F4F2F4F3F4F3F872E871D870C87E98196
:1024B000FA81108113951083112311F00C9465118A
:1024C0002396CF93DF9318E0412A00ED1EE31A9381
:1024D0000A931DE50E9499431DE00E9499431AE06A
:1024E0000E949943DF91CF9111E004EFE8E4F2E01C
:1024F000B1E00E94AA440091EB031091EC032091FB
:10250000ED033091EE0300935A0210935B02209387
:102510005C0230935D021FEF10937903CF93DF933A
:102520000E94F006DF91CF9108811981103009F4E3
:10253000003010E009F01FEF112311F40C94E512A4
:102540000E94F507CF93DF9318E0412A00ED1EE3C8
:102550001A930A93EAE9FBE80E94D140DF91CF91F8
:10256000CF93DF9318E0412A00ED1EE31A930A93FC
:102570000A811B81CF93DF931A930A9310E01A9379
:1025800010E01A9310E21A93689443F8E89445F81F
:10259000E89454F855F80E941D43DF91CF91DF91E4
:1025A000CF91CF93DF9318E0412A00ED1EE31A93F9
:1025B0000A93E0ECFAE80E94D1401DE00E949943A2
:1025C0001AE00E949943DF91CF9108950E94F50788
:1025D000CF93DF9318E0412A00ED1EE31A930A938C
:1025E000E4EBFBE80E94D140DF91CF910E94EE071F
:1025F0001091DE03112311F40C9418130E94F507B7
:10260000CF93DF9318E0412A00ED1EE31A930A935B
:10261000E1ECFBE80E94D140DF91CF910E94EE07F0
:10262000CF93DF9312E61A930E947600DF91CF9149
:102630001091DC03112311F40C9438130E94F50758
:10264000CF93DF9318E0412A00ED1EE31A930A931B
:10265000E5EDFBE80E94D140DF91CF910E94EE07AB
:10266000CF93DF9310E61A930E947600DF91CF910B
:102670001091DD03112311F40C9458130E94F507F7
:10268000CF93DF9318E0412A00ED1EE31A930A93DB
:10269000EDEEFBE80E94D140DF91CF910E94EE0762
:1026A000CF93DF9311E61A930E947600DF91CF91CA
:1026B00000E010E020E030E000937103109372031B
:1026C00020937303309374031091E103112311F4E9
:1026D0000C940414CF93DF9311E21A9316E01A932B
:1026E000EAE2F2E08F018F010A5F1F4F1A930A930B
:1026F00010E002E01A930A930E945C3EDF91CF91B2
:10270000CF93DF9311E21A9314E01A93EAE2F2E016
:102710008F018F010C5F1F4F1A930A9310E002E0A4
:102720001A930A930E945C3EDF91CF91CF93DF937F
:1027300011E21A9312E01A93EAE2F2E08F018F019C
:102740000E5F1F4F1A930A9310E002E01A930A9348
:102750000E945C3EDF91CF9110E00AE00E94003FB2
:10276000CF93DF9311E21A9312E01A93EAE2F2E0B8
:102770008F018F010E5F1F4F1A930A9310E002E042
:102780001A930A930E945C3EDF91CF91CF93DF931F
:1027900011E21A9314E01A93EAE2F2E08F018F013A
:1027A0000C5F1F4F1A930A9310E002E01A930A93EA
:1027B0000E945C3EDF91CF91CF93DF9311E21A9399
:1027C00016E01A93EAE2F2E08F018F010A5F1F4FD1
:1027D0001A930A9310E002E01A930A930E945C3E57
:1027E000DF91CF910E94F507CF93DF9318E0412A44
:1027F00000ED1EE31A930A93E5E0FCE80E94D14045
:10280000DF91CF910E94EE071091E003112311F4A4
:102810000C94221410E8109548E333E00E94B53D73
:102820000E94F507CF93DF9318E0412A00ED1EE3E5
:102830001A930A93EAE1FCE80E94D140DF91CF911C
:102840000E94EE071091DB03112311F40C943A144B
:102850000E94F507CF93DF9318E0412A00ED1EE3B5
:102860001A930A93E1E3FCE80E94D140DF91CF91F3
:102870000E94EE070895219700916D03112704FD32
:102880001FEF10936E0200916D03112700FD1FEFE3
:1028900010936F0200916D03112701FD1FEF10933C
:1028A000700200916D03112702FD1FEF109371025A
:1028B00000916D03112703FD1FEF1093720210E0CA
:1028C000188300916F03112700FD1FEF112311F4EE
:1028D0000C946C1411E0188300916F03112701FD13
:1028E0001FEF112311F40C94771412E01883009158
:1028F0006F03112702FD1FEF112311F40C948214B2
:1029000013E0188300916F03112703FD1FEF1123BC
:1029100011F40C948D1414E0188300916F031127A7
:1029200004FD1FEF112311F40C94981415E0188383
:10293000188110936D020895219700916D0311275E
:1029400005FD1FEF1093810200916E03112707FD13
:102950001FEF112311F40C94B21413E010938202B0
:102960000C94B51410E01093820208952597CF932C
:10297000DF9310E01A930E943506DF91CF911091FA
:102980003D021F701093600310913D0212951F705D
:1029900010936103109161031F93109160030F91D5
:1029A000011710E011F008F01FEF10936203CF93AE
:1029B000DF9310917D021A9319E21A930E944E063A
:1029C000DF91CF91CF93DF9310917E021A931AE299
:1029D0001A930E944E06DF91CF91CF93DF9310910F
:1029E0007F021A931BE21A930E944E06DF91CF9149
:1029F000CF93DF93109180021A931CE21A930E94E6
:102A00004E06DF91CF911091980217701F9310918D
:102A10008202110F110F110F110F0F91102B1A833A
:102A2000CF93DF931A811A931BE01A930E944E06EC
:102A3000DF91CF91E8E0F0E0FA93EA9310E01083A1
:102A400017E01A931081088101171FEF08F0112772
:102A5000112311F00C944B15182D105F1F83182DA6
:102A6000E4E6F2E01F730027E10FF01F10811D83E1
:102A7000CF93DF931D811A9318851A930E944E06F7
:102A8000DF91CF91E981FA81108113951083112391
:102A900011F00C9423152396E8E0F0E0FA93EA9302
:102AA00010E1108318E11A931081088101171FEFBC
:102AB00008F01127112311F00C947D15182D105FCB
:102AC0001F83182DE4E6F2E01F730027E10FF01FCB
:102AD00010811D83CF93DF931D811A9318851A935C
:102AE0000E944E06DF91CF91E981FA811081139502
:102AF0001083112311F00C945515239610916F0239
:102B0000112311F40C94031610919F02112311F458
:102B10000C949615CF93DF9310E01A9318E11A9353
:102B20000E944E06DF91CF910C94A91518E0E4E6BF
:102B3000F2E01F730027E10FF01F10811A83CF937B
:102B4000DF931A811A9318E11A930E944E06DF91BF
:102B5000CF9110917202112311F40C94BB15CF93F5
:102B6000DF9311E01A931BE11A930E944E06DF9146
:102B7000CF910C94C515CF93DF9310E01A931BE10E
:102B80001A930E944E06DF91CF911091700211238B
:102B900011F40C94D815CF93DF93109191021A93EE
:102BA0001AE11A930E944E06DF91CF910C94E3151F
:102BB000CF93DF93109190021A931AE11A930E9417
:102BC0004E06DF91CF9110917102112311F40C94F4
:102BD000F615CF93DF93109193021A9319E11A938C
:102BE0000E944E06DF91CF910C940116CF93DF9394
:102BF000109192021A9319E11A930E944E06DF91E6
:102C0000CF910C94201618E0E4E6F2E01F73002741
:102C1000E10FF01F10811A83CF93DF931A811A936B
:102C200018E11A930E944E06DF91CF91CF93DF9364
:102C300010E01A931AE11A930E944E06DF91CF9189
:102C400010E01A8310916E02112311F40C942D16CA
:102C5000FE01329610811395108310918102112389
:102C600011F40C943D16FE013296108113951083D9
:102C7000FE013296108113951083CF93DF931A8152
:102C80001A931DE01A930E944E06DF91CF91109186
:102C90006D02103011F00C944F160C94591612302E
:102CA00011F00C9455160C945916143011F00C9424
:102CB0006F16CF93DF9312ED1A9315E01A930E94CB
:102CC0004E06DF91CF91CF93DF9310E01A9316E079
:102CD0001A930E944E06DF91CF910C9497161130F3
:102CE00011F00C9475160C947F16133011F00C949F
:102CF0007B160C947F16153011F00C949716CF9319
:102D0000DF9310918D021A9315E01A930E944E06DC
:102D1000DF91CF91CF93DF9310918C021A9316E03D
:102D20001A930E944E06DF91CF910C949716109142
:102D30006D02103011F00C949F160C94A3161130F4
:102D400011F00C94BB16CF93DF93109186021A9367
:102D500018E01A930E944E06DF91CF91CF93DF9334
:102D6000109189021A9314E01A930E944E06DF9183
:102D7000CF910C94FF16123011F00C94C1160C94E4
:102D8000C516133011F00C94DD16CF93DF9310911C
:102D900087021A9318E01A930E944E06DF91CF9192
:102DA000CF93DF9310918B021A9314E01A930E9431
:102DB0004E06DF91CF910C94FF16143011F00C9455
:102DC000E3160C94E716153011F00C94FF16CF9310
:102DD000DF93109188021A9318E01A930E944E060E
:102DE000DF91CF91CF93DF9310918B021A9314E070
:102DF0001A930E944E06DF91CF910C94FF1610910A
:102E00007903112311F40C945317CF93DF9310918E
:102E1000A00211701A9317E01A930E944E06DF91D8
:102E2000CF9110918E0217701F9310918F02110F86
:102E3000110F110F110F0F91102B1A83CF93DF93E6
:102E40001A811A9319E01A930E944E06DF91CF91CE
:102E5000109194021F931091960225E00E94D8438E
:102E60000F91102B1F931091950226E00E94D843DA
:102E70000F91102B1A83CF93DF931A811A931CE0C2
:102E80001A930E944E06DF91CF91CF93DF9310915A
:102E900099021A931EE01A930E944E06DF91CF9179
:102EA00010E0109379030895229700915202109137
:102EB0005302D8012AE030E0689445F80E94144497
:102EC0008F01507821F0019509F41A951095102F73
:102ED00018830091520210915302689442F8A0E0C6
:102EE000B0E05FEF0E94BD4455233AF4A9EFB0E093
:102EF00055270E94BD4455230AF418C0CF93DF9391
:102F00000091520210915302102F1A930E9435061D
:102F1000DF91CF9100935A0210935B0220935C02E1
:102F200030935D020E9419090C94171B103011F0A8
:102F30000C94AA170B3F11F00C94AA170091E70309
:102F40001091E80300935702109358020E94F8086A
:102F50000C94171B103011F00C94C8170C3F11F093
:102F60000C94C8170E94E6120E94F507CF93DF93D6
:102F700018E0412A00ED1EE31A930A93EDE3FCE802
:102F80000E94D140DF91CF910E94EE070C94171B55
:102F9000103011F00C94E4170D3F11F00C94E4176D
:102FA000CF93DF9318E0412A00ED1EE31A930A93B2
:102FB000E9EBF3E00E94DA40DF91CF910E94EE0747
:102FC0000C94171B0C94171B103011F00C941B1849
:102FD0000E3F11F00C941B180E94F507CF93DF935E
:102FE00018E0412A00ED1EE31A930A93E4ECF9E895
:102FF0000E94D140DF91CF91CF93DF9318E0412A17
:1030000000ED1EE31A930A93E1EFF9E80E94D14024
:10301000DF91CF91CF93DF9318E0412A00ED1EE3BB
:103020001A930A931DE50E949943DF91CF910E9464
:10303000EE070C94171B103011F00C942D180F3F55
:1030400011F00C942D18CF93DF9310E01A930E9487
:103050003808DF91CF910C94171B689442F8ACE2CA
:10306000B1E05FEF0E94BD4455233AF4A3E4B1E020
:1030700055270E94BD4455230AF416C00091520200
:10308000109153020C521140102F19831981EDEF4A
:10309000F3E01F710027E10FF01F10811093600211
:1030A0000E940E090C94171B113011F00C94641837
:1030B000043411F00C9464181091660310936002AC
:1030C0000E940E090C94171B113011F00C94741807
:1030D000053411F00C94741810916703109360027A
:1030E0000E940E090C94171B113011F00C948418D7
:1030F000063411F00C948418109168031093600248
:103100000E940E090C94171B113011F00C949418A6
:10311000073411F00C949418109169031093600215
:103120000E940E090C94171B113011F00C94A41876
:10313000083411F00C94A41810916A0310936002E3
:103140000E940E090C94171B113011F00C94B41846
:10315000093411F00C94B4181091A202109360027B
:103160000E940E090C94171B113011F00C94C41816
:103170000A3411F00C94C418109184021093600268
:103180000E940E090C94171B113011F00C94D418E6
:103190000B3411F00C94D418109185021093600236
:1031A0000E940E090C94171B689442F8A0E9B1E044
:1031B0005FEF0E94BD4455233AF4AFEAB1E05527D2
:1031C0000E94BD4455230AF416C00091520210918A
:1031D000530200591140102F18831881E4E6F2E0E1
:1031E0001F730027E10FF01F1081109360020E94EF
:1031F0000E090C94171B689442F8A4EFB1E05FEF3E
:103200000E94BD4455233AF4A3E1B2E055270E9441
:10321000BD4455230AF417C0009152021091530285
:10322000045F1140102F105E18831881E4E6F2E06D
:103230001F730027E10FF01F1081109360020E949E
:103240000E090C94171B689442F8A8E5B2E05FEFF2
:103250000E94BD4455233AF4A7E7B2E055270E94E7
:10326000BD4455230AF416C0009152021091530236
:1032700008551240102F18831881E4EAF2E01F71FC
:103280000027E10FF01F1081109360020E940E09C9
:103290000C94171B689442F8A0E8B2E05FEF0E941C
:1032A000BD4455233AF4AFE8B2E055270E94BD442F
:1032B00055230AF416C0009152021091530200588F
:1032C0001240102F18831881E4ECF2E01F700027E1
:1032D000E10FF01F1081109360020E940E090C9400
:1032E000171B689442F8A4E9B2E05FEF0E94BD4466
:1032F00055233AF4A3EBB2E055270E94BD44552371
:103300000AF41BC00091520210915302045912405A
:10331000102F18831881ECEDF2E01F710027110FB8
:10332000001FE10FF01F00811181009357021093DD
:1033300058020E94F8080C94171B689442F8ACEBF2
:10334000B2E05FEF0E94BD4455233AF4ACECB2E02A
:1033500055270E94BD4455230AF416C0009152021D
:10336000109153020C5B1240102F18831881ECE16E
:10337000F3E01F700027E10FF01F1081109360022F
:103380000E940E090C94171B133011F00C94D719DE
:10339000063E11F00C94D71900919902112701FDF6
:1033A0001FEF109360020E940E090C94171B13303C
:1033B00011F00C94E719073E11F00C94E7191091E5
:1033C000D602109360020E940E090C94171B689499
:1033D00042F8A8EEB3E05FEF0E94BD4455233AF4F3
:1033E000A7EEB4E055270E94BD4455230AF41CC043
:1033F0000091520210915302085E1340102F18835F
:10340000E2E3F0E0EF93FF931881012F1127FF9182
:10341000EF91E00FF11F0E94493F31961093600237
:103420000E940E090C94171B689442F8A8EEB4E0B1
:103430005FEF0E94BD4455233AF4A7EEB5E055274F
:103440000E94BD4455230AF41CC000915202109101
:103450005302085E1440102F1883E2E3F1E0EF936B
:10346000FF931881012F1127FF91EF91E00FF11FBA
:103470000E94493F3196109360020E940E090C94FD
:10348000171B163211F00C94571A0C3A11F00C94C9
:10349000571ACF93DF93109197021C5A1A9310E09A
:1034A0001A930E94B50FDF91CF910C94171B16321F
:1034B00011F00C94831A063B11F00C94831ACF93ED
:1034C000DF930E941D0BDF91CF911091E503103027
:1034D00010E009F01FEF112311F40C94791ACF9327
:1034E000DF9318E01A930E943808DF91CF910C9473
:1034F000811ACF93DF9310E01A930E943808DF916E
:10350000CF910C94171B163211F00C94931A003CB7
:1035100011F00C94931A0E94A004109360020E9470
:103520000E090C94171B163211F00C949D1A0E3DC7
:1035300011F00C949D1A0C94A51A163211F00C94EB
:10354000CC1A0F3D11F00C94CC1A1881103010E0F9
:1035500009F41FEF112311F40C94BC1AEAE0F0E017
:103560000E94573F00935A0210935B0220935C0223
:1035700030935D020C94C81AEEE0F0E00E94573FD1
:1035800000935A0210935B0220935C0230935D0219
:103590000E9419090C94171B173211F00C94FD1A94
:1035A0000E3011F00C94FD1ACF93DF930E94D102DC
:1035B000DF91CF91CF93DF930E947607DF91CF9178
:1035C0001FEF109379031FEF109377031FEF1093F2
:1035D00078030E94F507CF93DF9318E0412A00EDAE
:1035E0001EE31A930A93E5E5FCE80E94D140DF91BF
:1035F000CF910E94EE070C94171B173211F00C9418
:103600000F1B0F3011F00C940F1BF8941FE7412291
:1036100004B7037F04BF0C943D3B0C94171BCF935E
:10362000DF9315E01A930E943808DF91CF91089537
:1036300023970091520210915302D8012AE030E002
:10364000689445F80E9414448F01507821F0019548
:1036500009F41A951095102F1983109160021030FB
:1036600010E009F01FEF18830091520210915302ED
:10367000689442F8A0E0B0E05FEF0E94BD4455239B
:103680003AF4AFEEB0E055270E94BD4455230AF44A
:1036900014C0CF93DF9300915702109158021A93F0
:1036A0000A930091520210915302102F1A930E9414
:1036B0006B06DF91CF910C94A221689442F8A0EFA1
:1036C000B0E05FEF0E94BD4455233AF4A9EFB0E0AB
:1036D00055270E94BD4455230AF41AC0CF93DF93A7
:1036E00000915A0210915B0220915C0230915D02C0
:1036F0003A932A931A930A9300915202109153021B
:10370000102F1A930E948206DF91CF910C94A22170
:10371000103011F00C94921B0A3F11F00C94921B84
:103720000C94A221103011F00C94AE1B0D3F11F03F
:103730000C94AE1BCF93DF9318E0412A00ED1EE3FB
:103740001A930A93E9EBF3E00E94DA40DF91CF91FC
:103750000E94EE070C94CA210C94A221113011F0A2
:103760000C94C01B043411F00C94C01B1091600227
:10377000109366031091660310936B030C94A221BF
:10378000113011F00C94D21B053411F00C94D21BA3
:1037900010916002109367031091670310936C03FC
:1037A0000C94A221113011F00C94E01B063411F09E
:1037B0000C94E01B10916002109368030C94A221FA
:1037C000113011F00C94EE1B073411F00C94EE1B29
:1037D00010916002109369030C94A221113011F032
:1037E0000C94FC1B083411F00C94FC1B109160022B
:1037F00010936A030C94A221113011F00C94161C42
:103800000E3511F00C94161C109160021093840276
:103810001FEF10937703CF93DF93109160021A93F9
:103820000E94FB00DF91CF910C94A221113011F086
:103830000C94301C0F3511F00C94301C1091600268
:10384000109385021FEF10937803CF93DF931091AD
:1038500060021A930E945501DF91CF910C94A2212E
:10386000113011F00C94411C003611F00C94411CE5
:10387000109160021093A2021FEF10937A030C9430
:10388000A221689442F8A2E7B1E05FEF0E94BD4434
:1038900055233AF4A7E7B1E055270E94BD445523CC
:1038A0000AF414C0A8E6B3E0AF93BF9319811F9345
:1038B00018810F91BF91AF910E94CB44CF93DF93BA
:1038C0000E943B14DF91CF910C94A221113011F092
:1038D0000C947A1C0A3711F00C947A1C1091600237
:1038E00010936803CF93DF930E943B14DF91CF9135
:1038F0000C94A221113011F00C948C1C0C3711F097
:103900000C948C1C1091600210939B021091600229
:10391000109333030C94A221113011F00C949A1CD3
:103920000D3711F00C949A1C109160021093AF02A5
:103930000C94A221113011F00C94C21C063811F025
:103940000C94C21C0091E403112704FD1FEF112306
:1039500011F40C94B61CCF93DF93109160021A936C
:103960000E94E601DF91CF910C94C01CCF93DF93AE
:1039700016E01A930E943808DF91CF910C94CA2167
:103980000C94A221113011F00C94EA1C073811F0AC
:103990000C94EA1C0091E403112704FD1FEF11238E
:1039A00011F40C94DE1CCF93DF93109160021A93F4
:1039B0000E943E02DF91CF910C94E81CCF93DF93DD
:1039C00016E01A930E943808DF91CF910C94CA2117
:1039D0000C94A221689442F8A0E9B1E05FEF0E9444
:1039E000BD4455233AF4AFEAB1E055270E94BD44E7
:1039F00055230AF416C00091520210915302005947
:103A00001140102F198319811F9310916002E4E671
:103A1000F2E0AF91AF73BB27EA0FFB1F10830C944A
:103A2000A221689442F8A4EFB1E05FEF0E94BD4488
:103A300055233AF4A3E1B2E055270E94BD44552333
:103A40000AF431C00091520210915302045F1140F8
:103A5000102F198319811F9310916002E4E8F2E09E
:103A6000AF91AF71BB27EA0FFB1F10830091E403F6
:103A7000112704FD1FEF112311F40C944E1DE2E1F8
:103A8000F0E0EF93FF931981012F1127FF91EF9140
:103A9000E00FF11F109160020E94273F1FEF10936B
:103AA00079030C94A221689442F8A8E5B2E05FEF94
:103AB0000E94BD4455233AF4A7E7B2E055270E947F
:103AC000BD4455230AF431C00091520210915302B3
:103AD00008551240102F198319811F93109160020D
:103AE000E4EAF2E0AF91AF71BB27EA0FFB1F10834E
:103AF0000091E403112704FD1FEF112311F40C942E
:103B0000901DE2E3F2E0EF93FF931981012F11275B
:103B1000FF91EF91E00FF11F109160020E94273F8B
:103B20001FEF10932C030C94A221689442F8A0E894
:103B3000B2E05FEF0E94BD4455233AF4AFE8B2E033
:103B400055270E94BD4455230AF42EC0009152020D
:103B50001091530200581240102F198319811F939E
:103B600010916002E4ECF2E0AF91AF70BB27EA0F76
:103B7000FB1F10830091E403112704FD1FEF1123A5
:103B800011F40C94D21DE2E5F2E0EF93FF9319815A
:103B9000012F1127FF91EF91E00FF11F10916002AB
:103BA0000E94273F0C94A221689442F8A4E9B2E055
:103BB0005FEF0E94BD4455233AF4A3EBB2E05527D2
:103BC0000E94BD4455230AF447C00091520210914F
:103BD000530204591240102F198319811F93009129
:103BE0005A0210915B0220915C0230915D02ECED73
:103BF000F2E0AF91AF71BB27AA0FBB1FEA0FFB1F0B
:103C0000118300830091E403112704FD1FEF1123AA
:103C100011F40C94271EE2E6F2E0EF93FF93198172
:103C2000012F1127000F111FFF91EF91E00FF11FDE
:103C3000EF93FF9300915A0210915B0220915C0276
:103C400030915D02FF91EF9198010E94373F1FEF85
:103C500010932C030C94A221689442F8ACEBB2E0D0
:103C60005FEF0E94BD4455233AF4ABECB2E0552718
:103C70000E94BD4455230AF42EC0009152021091B7
:103C800053020C5B1240102F198319811F9310915E
:103C90006002ECE1F3E0AF91AF70BB27EA0FFB1FCE
:103CA00010830091E403112704FD1FEF112311F489
:103CB0000C94691EE2EAF2E0EF93FF931981012F61
:103CC0001127FF91EF91E00FF11F109160020E9408
:103CD000273F0C94A221133011F00C947D1E073E57
:103CE00011F00C947D1E10916002103010E009F06C
:103CF0001FEF1093D6020C94A221689442F8A8EE0C
:103D0000B3E05FEF0E94BD4455233AF4A7EEB4E060
:103D100055270E94BD4455230AF422C00091E403B4
:103D2000112704FD1FEF112311F40C94AE1E009116
:103D3000520210915302085E1340102F1983E2E3E0
:103D4000F0E0EF93FF931981012F1127FF91EF917D
:103D5000E00FF11F109160020E94273F0C94A221F6
:103D6000689442F8A8EEB4E05FEF0E94BD4455238A
:103D70003AF4A7EEB5E055270E94BD4455230AF456
:103D800022C00091E403112704FD1FEF112311F459
:103D90000C94E11E0091520210915302085E1440EF
:103DA000102F1983E2E3F1E0EF93FF931981012FC4
:103DB0001127FF91EF91E00FF11F109160020E9417
:103DC000273F0C94A221163211F00C941F1F0C3ABD
:103DD00011F00C941F1F1091600210939702009134
:103DE000E403112704FD1FEF112311F40C94FF1EAF
:103DF00010916002E5E2F0E00E94273F31961091B9
:103E00003802112311F40C94151F109160021C5AF2
:103E1000812ECF93DF93182D1A9310E01A930E94EE
:103E2000B50FDF91CF910C941D1FCF93DF9318E056
:103E30001A930E943808DF91CF910C94A221163278
:103E400011F00C94391F003C11F00C94391F1091A3
:103E50006002103010E009F41FEF112311F40C94EC
:103E6000351F0E94C9040C94371F0E94DA040C9479
:103E7000A221163211F00C949A1F0A3C11F00C94F6
:103E80009A1F0E94A8091095112311F40C94981FF1
:103E900000915A0210915B0220915C0230915D0208
:103EA000ECE00E949A4400935A0210935B02209324
:103EB0005C0230935D02CF93DF9300915A02109120
:103EC0005B0220915C0230915D023A932A931A932F
:103ED0000A930E94B30BDF91CF9100915A02109187
:103EE0005B0220915C0230915D0240E8342730385B
:103EF00029F4203019F4103009F400301FEF08F0D5
:103F00001127112311F40C948C1F1091E5031460F8
:103F10001093E5030C94981F11E004EF0E94003FFA
:103F20000E941909CF93DF930E941D0BDF91CF915F
:103F30000C94A221163211F00C9411200B3C11F0BC
:103F40000C9411200E94A8091095112311F40C94CF
:103F50000F2000915A0210915B0220915C02309177
:103F60005D020C5A1F4F2F4F3F4F00935A02109380
:103F70005B0220935C0230935D0200915A02109123
:103F80005B0220915C0230915D02ECE00E949A4459
:103F900000935A0210935B0220935C0230935D02FF
:103FA000CF93DF9300915A0210915B0220915C0243
:103FB00030915D023A932A931A930A930E94B30BAD
:103FC000DF91CF9100915A0210915B0220915C0227
:103FD00030915D0240E83427303829F4203019F45C
:103FE000103009F400301FEF08F01127112311F4ED
:103FF0000C940920CF93DF9318E01A930E9438089D
:10400000DF91CF911091E50314601093E5030C94B8
:104010000F2011E004EF0E94003F0E9419090C9448
:10402000A221163211F00C946820043D11F00C947A
:1040300068200E94A8091095112311F40C946620A1
:1040400000915A0210915B0220915C0230915D0256
:10405000ECE00E949A4400935A0210935B02209372
:104060005C0230935D02CF93DF9300915A0210916E
:104070005B0220915C0230915D023A932A931A937D
:104080000A930E94EB04DF91CF911095112311F454
:104090000C9464200E94F507CF93DF9318E0412A27
:1040A00000ED1EE31A930A93E5E6FCE80E94D14076
:1040B0001DE00E9499431AE00E949943DF91CF913D
:1040C0000C94CA210C9466200E9419090C94A22118
:1040D000163211F00C94D320053D11F00C94D3202E
:1040E0000E94A8091095112311F40C94D12000917D
:1040F0005A0210915B0220915C0230915D020C5AD1
:104100001F4F2F4F3F4F00935A0210935B02209393
:104110005C0230935D0200915A0210915B02209183
:104120005C0230915D02ECE00E949A4400935A02D6
:1041300010935B0220935C0230935D02CF93DF9378
:1041400000915A0210915B0220915C0230915D0255
:104150003A932A931A930A930E94EB04DF91CF912A
:104160001095112311F40C94CF200E94F507CF93E2
:10417000DF9318E0412A00ED1EE31A930A93E5E667
:10418000FCE80E94D1401DE00E9499431AE00E9481
:104190009943DF91CF910C94CA210C94D1200E94B5
:1041A00019090C94A221163211F00C941321063D2A
:1041B00011F00C9413210E94A8091095112311F4F9
:1041C0000C9411210E942B051095112311F40C94CD
:1041D00003210E94F507CF93DF9318E0412A00EDF9
:1041E0001EE31A930A93EEE7FCE80E94D1401DE01B
:1041F0000E9499431AE00E949943DF91CF910C9459
:10420000CA210C94112100E010E020E030E000937E
:104210005A0210935B0220935C0230935D020E946D
:1042200019090C94A221163211F00C941D210E3D97
:1042300011F00C941D210C942521163211F00C94D0
:104240006B210F3D11F00C946B210091E4031127B9
:1042500004FD1FEF112311F40C945F21198110301C
:1042600010E009F41FEF112311F40C94492100917F
:104270005A0210915B0220915C0230915D02EAE0EB
:10428000F0E0D8010E943D3F31960E949F060C94B9
:10429000592100915A0210915B0220915C023091E9
:1042A0005D02EEE0F0E0D8010E943D3F31960E94B1
:1042B0009F0613E008EE0E94003F0C946921CF9303
:1042C000DF9316E01A930E943808DF91CF910C9487
:1042D000CA210C94A221163211F00C947E21083EC2
:1042E00011F00C947E21CF93DF93109160021A930A
:1042F0000E940911DF91CF910C94A221163211F086
:104300000C949821023F11F00C949821CF93DF93E5
:1043100000915702109158021A930A930E949A032F
:10432000DF91CF91109360020E940E090C94A2219C
:10433000CF93DF9315E01A930E943808DF91CF9155
:104340000C94CA211091E4031F7E1093E4030091A2
:10435000520210915302A0E81A27103809F40A3FBC
:1043600010E009F41FEF112311F40C94BC211091FB
:10437000E40310611093E40310915602112311F429
:104380000C94CA21CF93DF9310E01A930E9438084F
:10439000DF91CF9108952197E0E9F3E0EF93FF9348
:1043A0003196FA93EA9318E21A9317EF41221FEB22
:1043B0004122E0E9F3E00E94AE4018E21F93188129
:1043C0000F91011B102FFF91EF9110832396FE0197
:1043D000FA93EA9310E010831EE01A93108108818B
:1043E00001171FEF08F01127112311F00C94272259
:1043F000E0E9F3E0EF93FF93ECE9FDE8EF93FF933F
:104400001B81012F1127A4E0B0E0E89445F80E9439
:10441000F243FF91EF91E00FF11FBF91AF916894CC
:1044200044F80E94734310E009F41FEF112311F4C4
:104430000C941E221B8123960C942922E981FA8177
:10444000108113951083112311F00C94EF21239602
:104450001FE008952297E0E9F3E0EF93FF93319690
:10446000FA93EA9318E21A9317EF41221FEB4122C5
:1044700018E21F9318810F91011B102FFF91EF91EC
:104480001083239610E01093590210E01883E9EB93
:10449000F3E01091DA03012F1127E00FF11F1191C2
:1044A000103210E009F41FEF112311F40C945F2275
:1044B0001091DA0313951093DA030C944722E9EB79
:1044C000F3E01091DA03012F1127E00FF11F119192
:1044D000193339F028F41A3218F040E0189401C06A
:1044E00041E010E009F41FEF112311F40C94D222E3
:1044F0001FEF1883E8E0F0E0FA93EA931091DA03F3
:104500001083EF93FF93E9EBF3E01081FF91EF91BC
:104510001A931081088101171FEF08F0112711234A
:1045200011F00C94CF22E9EBF3E0182D012F1127A5
:10453000E00FF11F11911C831C81193339F028F40D
:104540001A3218F040E0189401C041E010E009F47C
:104550001FEF112311F40C94BF221C81712F61E015
:1045600010E006E10F931F93E0E9F3E0EF93FF9370
:1045700018E21F9390E00E946E3F0C94C622182D03
:104580001093DA031B8123960C945223E981FA815C
:10459000108113951083112311F00C948A22239615
:1045A0000C945123E8E0F0E0FA93EA931091DA03D7
:1045B0001083EF93FF93E9EBF3E01081FF91EF910C
:1045C0001A931081088101171FEF08F0112711239A
:1045D00011F00C945023E9EBF3E0182D012F112773
:1045E000E00FF11F11911C831C81123210E009F4BD
:1045F0001FEF112311F40C9402231FEF10935902A3
:104600000C9447231C81113410E008F01FEF1F9316
:10461000109159020F91102B112311F40C94412386
:104620001C81113221F01F3311F0143201F010E01F
:1046300009F41FEF112311F40C942723182D109364
:10464000DA031B8123960C9452230C9437231C818C
:10465000712F61E010E006E10F931F93E0E9F3E0B2
:10466000EF93FF9318E21F9390E00E946E3F1D812D
:10467000112311F40C943F231FEF109359020C9453
:104680004723182D1093DA031B810C945223E981E0
:10469000FA81108113951083112311F00C94E222FA
:1046A0002396188108952197E0E9F3E01FEB41225A
:1046B000E89441F800E00E94ED3F00935A02109305
:1046C0005B0220935C0230935D0200915A021091CC
:1046D0005B0220915C0230915D02009357021093BF
:1046E00058020091570210915802102F1093600247
:1046F00008952C97E9EBF3E0EF93FF93E6E9FCE8EC
:10470000BF91AF91689444F80E94734310E009F49C
:104710001FEF112311F40C949723CF93DF9310E034
:104720001A930E943808DF91CF910C945A2511E218
:104730001F93E9EBF3E0EF93FF9361E0FF91EF91BB
:104740000F910E949840103010E011F008F01FEF18
:10475000109356021AE31F93E9EBF3E0EF93FF93F4
:1047600061E0FF91EF910F910E949840103010E0AE
:1047700011F008F01FEF1C831DE31F93E9EBF3E03A
:10478000EF93FF9361E0FF91EF910F910E949840AA
:104790001B871B85103010E009F41FEF1883E9EB2D
:1047A000F3E0319611911D831D811A3210E009F456
:1047B0001FEF19831D81133210E009F41FEF1A83D4
:1047C00011E01093DA031A81112311F40C94EB23F6
:1047D00012E01093DA031C81112311F40C941224BB
:1047E000CF93DF9310E01A930E942A22DF91CF919A
:1047F0001091DA0313951093DA031981112311F440
:104800000C9406240E9427080C941224E0E9F3E09B
:104810001FEB4122E89441F800E00E94ED3F102F89
:1048200010935402198110951F93109154021F93F5
:10483000109133020F91011710E009F01FEF0F9153
:1048400010231F931C810F911023112311F40C943A
:104850002D240E9427080C945A2514E21F93E9EB9B
:10486000F3E0EF93FF9361E0FF91EF910F910E94CE
:1048700098401A871A85103010E011F008F01FEFE9
:104880001B831B81112311F40C94BD24E0E9F3E098
:10489000EF93FF933196FA93EA9318E21A9317EF86
:1048A00041221FEB4122E9EBF3E0EF93FF931D85DB
:1048B0001F5F1F9312E00F91FF91EF910E94BD4087
:1048C00018E21F9318810F91011B102FFF91EF9198
:1048D00010832396E0E9F3E01FEB4122E89441F8CE
:1048E0000FEF0E94ED3F102F188710E01987E8E0C6
:1048F000F0E0FA93EA9311E01083EF93FF931C85A5
:104900001150FF91EF911A931081088101171FEF49
:1049100008F01127112311F00C94A624E9EBF3E021
:10492000182D012F1127E00FF11F119118871C85F9
:104930001F9318850F9110271C87E981FA81108138
:1049400013951083112311F00C9485242396198557
:104950001F9318850F91011710E009F01FEF112325
:1049600011F40C94BD24CF93DF9317E01A930E94A7
:104970003808DF91CF910C945A25CF93DF9310E044
:104980001A930E942A22DF91CF91112311F40C94E3
:10499000CF2410E000E01F830E830C940525CF93F5
:1049A000DF930E94CB21DF91CF9110934D021091A4
:1049B0004D021F3010E009F41FEF112311F40C9485
:1049C000EB24CF93DF9314E01A930E943808DF9111
:1049D000CF910C945A25E8EDFDE8EF93FF931091E9
:1049E0004D02012F1127000F111FFF91EF91E00FD2
:1049F000F11F059114911F830E83CF93DF9310E075
:104A00001A930E942A22DF91CF91E0E9F3E01FEB95
:104A10004122E89441F800E00E94ED3F0F931F937C
:104A20000E811F813F912F91020F131F009352029D
:104A3000109353021881112311F40C942725CF935E
:104A4000DF930E945417DF91CF910C945A251B8558
:104A50001F5F1093DA03CF93DF931FEF1A930E9427
:104A60002A22DF91CF91112311F40C943F25CF938B
:104A7000DF930E945323DF91CF910C94542500E0E3
:104A800010E020E030E000935A0210935B02209384
:104A90005C0230935D0210E000E000935702109337
:104AA000580210E010936002CF93DF930E94181B0E
:104AB000DF91CF9108952A9710919A02103010E05B
:104AC00009F41FEF112311F40C946C2510919B0233
:104AD000109333030C947025109108041093330342
:104AE00010919C02103010E009F41FEF112311F413
:104AF0000C94812510919D021695169518830C949F
:104B00008D2519E0EDEFF3E01F710027E10FF01F95
:104B100010811695169516951883109133031F93DF
:104B2000109134030F91011B102F1A83109133033E
:104B3000109334031A811A3010E011F008F01FEFBF
:104B4000112311F40C94A72510E010933C0310914D
:104B50003C03112311F40C94B125109135031093EB
:104B600033031091330316951F831F8116951E83FF
:104B70001E8116951D831F811F9310919E0216950D
:104B8000169516950F91100F188710919E021F937E
:104B90001F810F91100F19831D811C8310916E02CC
:104BA0001F93109181020F91102B112311F40C947B
:104BB0000B2610916D021170113010E009F41FEFF7
:104BC000112311F40C94FB25CF93DF931F811A93CB
:104BD00019811A9316E41A930E94F23EDF91CF9145
:104BE0001E5E19871C811F931D8116950F91100F52
:104BF0001C830C940926CF93DF931F811A9319818C
:104C00001A9310E51A930E94F23EDF91CF91145F40
:104C100019870C941926CF93DF931E811A9319815B
:104C20001A9318E71A930E94F23EDF91CF91185F12
:104C300019871F81105E1B83CF93DF931C811A930A
:104C400010E41A930E944E06DF91CF91CF93DF9329
:104C500019811A9311E41A930E944E06DF91CF91A5
:104C6000CF93DF9318851A9312E41A930E944E068D
:104C7000DF91CF91CF93DF9319851A9313E41A93A1
:104C80000E944E06DF91CF91CF93DF931B811A9341
:104C900014E41A930E944E06DF91CF910895219754
:104CA0001091D6021F9300919902112701FD1FEF69
:104CB0000F91102B1095112311F40C948A2610914A
:104CC000CE02103010E009F01FEF112311F40C9404
:104CD0007E26109107041883CF93DF9318811A93CF
:104CE000198116951A9311E81A930E94F23EDF91EA
:104CF000CF911F5F1093AF020C9482261091CF02C8
:104D00001093AF0200916E03112706FD1FEF117083
:104D10001093D0021091D402112311F40C949A260E
:104D20001091C802109331031091C90210933203FD
:104D30000C94A2261091C602109331031091C70261
:104D4000109332031091D5021095112311F40C9495
:104D5000AF2610E01093310310E0109332031FEFE1
:104D600000914B02002309F01095112311F40C94CB
:104D7000EA2610912F031F93109131030F91011711
:104D800010E009F01FEF112311F40C94EA261091A2
:104D900031031F9310912F030F91011710E011F0B1
:104DA00008F01FEF112311F40C94E12610912F034A
:104DB000139510932F031091CA0210934B020C9479
:104DC000EA2610912F031A9510932F031091CC020D
:104DD00010934B021FEF00914C02002309F0109535
:104DE000112311F40C942527109130031F93109177
:104DF00032030F91011710E009F01FEF112311F496
:104E00000C942527109132031F93109130030F91BA
:104E1000011710E011F008F01FEF112311F40C94AA
:104E20001C27109130031395109330031091CB027F
:104E300010934C020C942527109130031A9510936F
:104E400030031091CD0210934C0200912D0310916C
:104E50002E030F931F9310912F03012F11273F91C2
:104E60002F91020F131F00932D0310932E03109107
:104E70002F031093A402109130031093B4021091E9
:104E80002C03112311F40C945027CF93DF930E942D
:104E90007607DF91CF9110E010932C030C947C27C0
:104EA000CF93DF931091AF021A931BEC1A930E94D9
:104EB0004E06DF91CF91CF93DF931091D0021A93DA
:104EC0001CEC1A930E944E06DF91CF91CF93DF9393
:104ED0001091A4021A9310EC1A930E944E06DF91CF
:104EE000CF91CF93DF931091B4021A9310ED1A93E0
:104EF0000E944E06DF91CF9108951BB11F701F9342
:104F00001091FB03110F110F110F110F0F91102BA7
:104F10001BB90E94EE031091FC0314301FEF08F040
:104F20001127112311F40C94982710E01093FC031F
:104F30001091FB031F931091FC03EDEFF3E0AF9191
:104F4000AF71BB27EA0FFB1F108308951498159AC1
:104F5000169AEBEFF3E0FA93EA9310E0108317E070
:104F60001A931081088101171FEF08F011271123F0
:104F700011F00C94C6270E947D27E981FA811081E7
:104F800013951083112311F00C94B2272396149AD1
:104F90001598169AEBEFF3E0FA93EA9318E0108372
:104FA0001FE01A931081088101171FEF08F01127E5
:104FB000112311F00C94E7270E947D27E981FA81E3
:104FC000108113951083112311F00C94D32723968D
:104FD000149A159A1698EBEFF3E0FA93EA9310E11E
:104FE000108317E11A931081088101171FEF08F051
:104FF0001127112311F00C9408280E947D27E981C4
:10500000FA81108113951083112311F00C94F42769
:105010002396089519E1109347025A9808951AE0CB
:10502000109347025A980895219719811F70ECE850
:10503000FDE81F700027E10FF01F14911883009105
:105040006D03112700FD1FEF1095112311F40C942F
:105050002C281881110F18831881089522971A811E
:105060001F70ECE8FDE81F700027E10FF01F14919E
:1050700019831981110F188300912E03112703FD45
:105080001FEF112311F40C944D2819811F7C1F93DD
:10509000188110730F91102B198319810895279788
:1050A00010E01C8314E6198310E010937D0319852A
:1050B000103010E009F01FEF112311F40C94642854
:1050C00018E11A830C94662816E11A8310E000E0B8
:1050D0001E830D831A851F931A811F93E89440F84D
:1050E000FE013596A2E0B0E03F914F9150E00E9462
:1050F000703E1A851F931985312FE89440F84F911F
:10510000A0E0B0E050E00E94703E1A851F93FE01BF
:105110003396A1E0B0E04F910E944D3E1B811F3FAE
:1051200010E009F01FEF18831A851F931A811F934F
:10513000E89440F8FE013796A2E0B0E03F914F912D
:1051400050E00E94703E1881112311F40C94D12874
:10515000109199021D7F1093990210E01093D602CE
:105160001B8110951C8310E00AE00E94003FFE01A5
:10517000319610811A9510831985103010E009F4CA
:105180001FEF112311F40C94CE281981103010E078
:1051900009F41FEF10937D030C94D12810E01093B5
:1051A0007D03188110951F9310917D030F91102B93
:1051B000112311F40C9466281C81089527971091EF
:1051C000DE031095112311F40C94E92810E00C94DF
:1051D00021291F811F7019831F8116951695169519
:1051E00016951883FE013396EF93FF93CF93DF93C9
:1051F00019811A930E941428DF91CF91FF91EF91AA
:105200001193FE0133963196EF93FF93CF93DF9383
:1052100018811A930E942E28DF91CF91FF91EF9170
:105220001193CF93DF9312E61A9311E01A930D8135
:105230001E811A930A930E944F28DF91CF911A83FF
:105240001A81089527971091DE031095112311F408
:105250000C942D2910E00C9465291F811F7019836F
:105260001F8116951695169516951883FE0133968F
:10527000EF93FF931981ECE8FDE81F700027E10F21
:10528000F01F1491FF91EF911193FE013396319627
:10529000EF93FF931881ECE8FDE81F700027E10F02
:1052A000F01F1491FF91EF911193CF93DF9312E6CA
:1052B0001A9310E01A930D811E811A930A930E948B
:1052C0004F28DF91CF911A831A8108952597CF93A4
:1052D000DF9310916B031A930E94DE28DF91CF9128
:1052E0001C831C811F93109166030F91102710934C
:1052F000660300916D03112706FD1FEF1095112322
:1053000011F40C94882910916D031F7710936D038D
:10531000CF93DF9310916C031A930E942229DF919F
:10532000CF911C831C81107F1F93109167030F91F5
:105330001027109367031C811F701A831A81103085
:1053400010E009F01FEF112311F40C94C4291091FF
:1053500067031F701B8310916703107F109367030F
:105360001B811F931A810F91011710E009F01FEFA5
:10537000112311F40C94C429109167031F931C810D
:105380000F91102B109367030895249711E21F9338
:1053900010E0312FE89440F84F91A0E0B0E050E0E9
:1053A0000E94703E11E21F93FE013296A1E0B0E030
:1053B0004F910E944D3E1A8110951093690311E29E
:1053C0001F9311E0312FE89440F84F91A0E0B0E036
:1053D00050E00E94703E11E21F93FE013296A1E060
:1053E000B0E04F910E944D3E1A81109510936A03D0
:1053F00048E330E00E94BE3D109510936803089585
:105400001091DB03112311F40C94B32ACF93DF9393
:1054100010E01A9310E01A9310E01A930E94763D60
:10542000DF91CF91E0E9F3E0EF93FF933196FA93A8
:10543000EA9318E21A9317EF41221FEB4122E6EF9D
:10544000FDE8EF93FF931C811F70012F1127A3E04C
:10545000B0E0E89445F80E94F243FF91EF91E00F2D
:10546000F11F0E94D14018E21F9318810F91011B78
:10547000102FFF91EF9110832396CF93DF9318E0C5
:10548000412A00E51DE31A930A93E0E9F3E00E9444
:10549000DA40DF91CF91CF93DF9318E0412A00E506
:1054A0001DE31A930A93E7E9FCE80E94D140DF91DB
:1054B000CF9111E004EFE8E4F2E0B1E00E94AA44E9
:1054C000CF93DF9310E01A9310E01A9311E01A9330
:1054D0000E94763DDF91CF91CF93DF9318E0412A70
:1054E00000E51DE31A930A93EEE9FCE80E94D1401F
:1054F000DF91CF91E0E9F3E0EF93FF933196FA93D8
:10550000EA9318E21A9317EF41221FEB4122E6EFCC
:10551000FDE8EF93FF931B811F70012F1127A3E07C
:10552000B0E0E89445F80E94F243FF91EF91E00F5C
:10553000F11F0E94D14018E21F9318810F91011BA7
:10554000102FFF91EF9110832396CF93DF9318E0F4
:10555000412A00E51DE31A930A93E0E9F3E00E9473
:10556000DA40DF91CF910895E8E0F0E0FA93EA9312
:1055700010E0108313E01A931081088101171FEFC8
:1055800008F01127112311F00C94E72ACF93DF9331
:105590001FEF1A930E94DF00DF91CF9110E004E625
:1055A0000E94003FCF93DF9310E01A930E94DF0028
:1055B000DF91CF9110E004E60E94003FE981FA817B
:1055C000108113951083112311F00C94BD2A23969A
:1055D000089525971D81110F1D831D81E12F01E085
:1055E00010E020E030E00E949A443B832A83198334
:1055F00008831E811F9316E11F93E89440F8FE0173
:10560000A4E0B0E03F914F9150E00E94703E0895B9
:1056100018811F9316E11F93E89440F8E6E1F0E04B
:105620003F914F91A4E0B0E065E575E585E595E52E
:1056300050E00E94703E10E004E60E94003F089592
:10564000CF93DF931A811A930E94082BDF91CF9199
:10565000E8E0F0E0FA93EA9310E0108313E01A9385
:105660001081088101171FEF08F01127112311F095
:105670000C946F2BCF93DF931FEF1A930E94DF00E0
:10568000DF91CF91CF93DF931D811A931D811A93E0
:105690000E94E92ADF91CF9110E008EC0E94003FC0
:1056A000CF93DF9310E01A930E94DF00DF91CF9138
:1056B000CF93DF931D811A931C811A930E94E92ACC
:1056C000DF91CF9110E008EC0E94003FE981FA8160
:1056D000108113951083112311F00C94312B239614
:1056E000089527971F811B8310E010937E0310E01D
:1056F00010937F0314E61A831885105A18831881B3
:105700001F9316E11F93E89440F800E010E020E0BA
:1057100030E0A4E0B0E0B801C901E6E1F0E03F917B
:105720004F9150E00E94703E18811F9310E0312F7E
:10573000E89440F84F91A0E0B0E050E00E94703E45
:1057400018811F93FE013696A1E0B0E04F910E94B0
:105750004D3EFE013496EF93FF931E81FF91EF9132
:10576000119318811F9311E0312FE89440F84F9165
:10577000A0E0B0E050E00E94703E18811F93FE014F
:105780003696A1E0B0E04F910E944D3EFE01349666
:105790003196EF93FF931E81FF91EF9111930C814E
:1057A0001D811F3F09F40F3F10E009F01FEF19831F
:1057B0001981112311F40C941A2CE8E0F0E0FA930B
:1057C000EA9310E010831FE01A93108108810117FB
:1057D0001FEF08F01127112311F00C94102C0F81EA
:1057E000188501701070103009F4003010E009F4D1
:1057F0001FEF112311F40C94012C182D1E830C940F
:10580000102C0F8118851695079518870F83E9814D
:10581000FA81108113951083112311F00C94E62B5B
:10582000239610E00AE00E94003FFE0132961081AC
:105830001A951083198110951F931A81103010E06A
:1058400009F41FEF0F91102B112311F40C947C2BF2
:10585000CF93DF9318811A931C811A930E94E92A2F
:10586000DF91CF911A81103010E009F41FEF11235E
:1058700011F40C94552C1885103010E009F41FEF2A
:10588000112311F40C94492C1FEF10937E030C94F8
:10589000552C1885113010E009F41FEF112311F475
:1058A0000C94552C1FEF10937F031B8108952397B1
:1058B00010E0198310E01A8310E018831D81103066
:1058C00010E009F01FEF112311F40C94A62CE8E06E
:1058D000F0E0FA93EA9310E0108317E01A93108136
:1058E000088101171FEF08F01127112311F00C9404
:1058F000982C18851170103010E009F01FEF11235B
:1059000011F40C948C2C182D1C831FEF1B83FE01AB
:105910003596108113951083188516951887E9819F
:10592000FA81108113951083112311F00C94702CBF
:1059300023961A81113010E011F008F01FEF1123A7
:1059400011F40C94A62C1981185F198318811F93E8
:10595000EB81FC8110811F9319810F91011710E0D9
:1059600009F01FEF0F911023112311F40C94C22C96
:1059700019811F70EB81FC8111931FEF0C94C62CD1
:105980000C94C52C10E00C94C62C18810895219716
:10599000E8E0F0E0FA93EA9310E0108318E01A933D
:1059A0001081088101171FEF08F01127112311F052
:1059B0000C94F82C182DEDEFF3E01F710027E10F88
:1059C000F01F108116951B83182D1F931B81E4E691
:1059D000F2E0AF91AF73BB27EA0FFB1F1083E981A1
:1059E000FA81108113951083112311F00C94D12C9E
:1059F000239608952197E8E0F0E0FA93EA9310E007
:105A0000108318E01A931081088101171FEF08F026
:105A10001127112311F00C942D2D182D145FEDEF8B
:105A2000F3E01F710027E10FF01F108116951B8313
:105A3000182D105F1F931B81E4E6F2E0AF91AF7366
:105A4000BB27EA0FFB1F1083E981FA8110811395B0
:105A50001083112311F00C94042D2396089521979F
:105A600015E1EDEFF3E01F710027E10FF01F10814A
:105A7000169510937D0210917D02169510937E026B
:105A800016E1EDEFF3E01F710027E10FF01F108129
:105A9000169510937F0217E1EDEFF3E01F710027D9
:105AA000E10FF01F10810FEF011B102F18831881D9
:105AB000169516951E5F1093800208952A971091EF
:105AC000DE03112311F40C94B22D109167031F70A3
:105AD0001093D70210917D03112311F40C94B22D71
