:10007C0010B11370B12E1B2D1F931C2D0F91011756
:10008C0010E009F01FEF112311F40C9481001B2DCB
:10009C00103010E009F41FEF112311F40C947D00C3
:1000AC001D2D133010E009F41FEF112311F40C94E3
:1000BC007D001C2D113010E009F41FEF112311F4F9
:1000CC000C946F0010913D02139510933D020C940B
:1000DC007D001C2D123010E009F41FEF112311F4D8
:1000EC000C947D0010913D021A9510933D021C2D2D
:1000FC00D12E1B2DC12E089510E015BF10E01093CA
:10010C00690010E01DBB10E01093680010E0109324
:10011C00600010E01093610010E014BF1124F894FB
:10012C00A8951FBACFEFD0E1DEBBCDBB11E0A0E0AC
:10013C00B1E0ECEFFFEF02C005900D92A230B107D9
:10014C00D9F712E0A2E0B1E001C01D92AD30B107C9
:10015C00E1F70E94B300F894FFCF14BEA8958091EC
:10016C0060008861809360001092600005B7102FCA
:10017C00016005BF12E015BF0C945A7D08951091D3
:10018C00380213951093380210913802183010E091
:10019C0009F41FEF112311F40C94DC0010E0109300
:1001AC003802109139021095109339020895188174
:1001BC001F9316E11F93E89440F8E8E1F4E0A4E003
:1001CC00B0E03F914F9150E00E949B6B089500E08E
:1001DC0010E020E030E000931804109319042093F1
:1001EC001A0430931B04CF93DF9318811A930E9447
:1001FC00DD00DF91CF9118811F9312E01F93E894DB
:10020C0040F8E6E1F0E03F914F91A1E0B0E060E012
:10021C0050E00E949B6B18811F9313E01F93E8948E
:10022C0040F8E6E1F0E03F914F91A1E0B0E068E2E8
:10023C0050E00E949B6B18811F9314E01F93E8946D
:10024C0040F8E6E1F0E03F914F91A1E0B0E064E1CD
:10025C0050E00E949B6B18811F9315E01F93E8944C
:10026C0040F8E6E1F0E03F914F91A1E0B0E060E8AA
:10027C0050E00E949B6B00E010E020E030E0009327
:10028C0018041093190420931A0430931B04CF9371
:10029C00DF9318811A930E94DD00DF91CF910895AE
:1002AC0016E9109333025A9808951AE0109333020A
:1002BC005A980895219710E51F9309811A811F936D
:1002CC00E89440F809811A81102FE6E1F0E0612FE3
:1002DC00A1E0B0E03F914F9150E00E949B6B10E584
:1002EC001F93FE01A1E0B0E04F910E94786B188142
:1002FC000895CF93DF9310E51A930A811B811A930B
:10030C000A93FE0133968F011A930A9310E001E0D1
:10031C001A930A930E94916BDF91CF9110E007E042
:10032C000E942B6C08952297CF93DF9310E51A93BC
:10033C000F8118851A930A93FE0135968F011A9333
:10034C000A9310E004E01A930A930E94916BDF91D8
:10035C00CF9110E007E00E942B6C08952B9713E9C6
:10036C0010937A0011E00E943A6C13EC10937A000F
:10037C0010917A001071103010E009F01FEF11236A
:10038C0011F40C94BE0113E810937A001C851B30F9
:10039C0010E009F41FEF112311F40C94D90113E0B0
:1003AC0018830C94E2011C85E5E8F2E01F7100272C
:1003BC00E10FF01F108118831881012F11271E8364
:1003CC000D830D811E81015010401C830B831C85F5
:1003DC00E5E6F2E01F710027E10FF01F1081012FFD
:1003EC00112718870F8310917900012F11270F9374
:1003FC001F930B811C81019509F41A9510953F915F
:10040C002F91020F131F1A87098709851A850F93DD
:10041C001F930F8118850F931F930D811E813F91A0
:10042C002F91020F131F98011F910F91A0E81A270B
:10043C003A27131709F4021710E011F008F01FEF18
:10044C001F9309851A850F931F930F8118850F939E
:10045C001F930B811C81019509F41A9510953F91FE
:10046C002F91020F131F98011F910F91A0E81A27CB
:10047C003A27131709F402171FEF08F011270F91F1
:10048C00102B112311F40C94720212E319831C85A6
:10049C001F931981E5ECF2E0AF91AF71BB27EA0F26
:1004AC00FB1F10831C851F931B85E5EAF2E0AF91BF
:1004BC00AF71BB27EA0FFB1F10831C851F9313E042
:1004CC00E5E8F2E0AF91AF71BB27EA0FFB1F108399
:1004DC001FEF1A830C947D021C85E5ECF2E01F7172
:1004EC000027E10FF01F1081198310E01A83198186
:1004FC00103010E009F41FEF112311F40C94930247
:10050C001C851F9317E0E5E8F2E0AF91AF71BB27B4
:10051C00EA0FFB1F10830C94C2021A81112311F4F1
:10052C000C94C20209851A85A0E81A27103809F420
:10053C0002301FEF08F01127112311F40C94AA02BA
:10054C0010E000E01A8709871C851F931B85E5EADC
:10055C00F2E0AF91AF71BB27EA0FFB1F10831C8534
:10056C001F9309851A85102FE5E6F2E0AF91AF7164
:10057C00BB27EA0FFB1F108308952297149A159836
:10058C00169A1BB11F7810631BB9CF93DF931BE036
:10059C001A931FEF1A930E94B401DF91CF9110911F
:1005AC003802103011F00C9413031498159A169A03
:1005BC001BB11F78712EFE013196FA93EA9310E06D
:1005CC00108317E01A931081088101171FEF08F0B0
:1005DC001127112311F00C941003172D1F931C815C
:1005EC00110F110F110F110F0F91102B1BB9CF936E
:1005FC00DF931C811A931E811A930E94B401DF9120
:10060C00CF91E981FA81108113951083112311F098
:10061C000C94EA0223960C940D04113011F00C94F6
:10062C008503149A1598169A1BB11F78712EFE012A
:10063C003196FA93EA9318E010831AE01A9310811A
:10064C00088101171FEF08F01127112311F00C94EA
:10065C004F031C811850912E172D1F93192D110F1C
:10066C00110F110F110F0F91102B1BB9CF93DF939B
:10067C001C811A931E811A930E94B401DF91CF91B1
:10068C00E981FA81108113951083112311F00C94D8
:10069C0026032396FE013196FA93EA931CE010830D
:1006AC001FE01A931081088101171FEF08F0112722
:1006BC00112311F00C9482031C811850912E172DCC
:1006CC001F93192D110F110F110F110F0F91102BCB
:1006DC001BB9CF93DF931C811A931E811A930E942E
:1006EC00B401DF91CF91E981FA81108113951083C8
:1006FC00112311F00C94590323960C940D04123011
:10070C0011F00C94C403149A159A16981BB11F7807
:10071C00712EFE013196FA93EA9310E1108317E1E2
:10072C001A931081088101171FEF08F0112711236C
:10073C0011F00C94C1031C811051912E172D1F9395
:10074C00192D110F110F110F110F0F91102B1BB928
:10075C00CF93DF931C811A931E811A930E94B401CC
:10076C00DF91CF91E981FA811081139510831123C8
:10077C0011F00C94980323960C940D04133011F083
:10078C000C940D041FEF00913502002309F0109515
:10079C00112311F40C940B0419E110933502FE0192
:1007AC003196FA93EA9310E0108317E11A931081B3
:1007BC00088101171FEF08F01127112311F00C9479
:1007CC000A041C81E5ECF2E01F710027E10FF01F19
:1007DC001081712E112770E0771510F47A941FEFA9
:1007EC001C811F93172DE5ECF2E0AF91AF71BB2785
:1007FC00EA0FFB1F1083E981FA8110811395108396
:10080C00112311F00C94DE0323960C940D0408951F
:10081C001091F7042B981EBD1DB517FFFDCF1EB50B
:10082C001093F8042B9A08951091F4042B981EBD84
:10083C001DB517FFFDCF1EB51093F6041091F304F0
:10084C001EBD1DB517FFFDCF1EB51093F5042B9AD9
:10085C0008951091EA042B981EBD1DB517FFFDCF0E
:10086C001EB51093EE041091E9041EBD1DB517FFC3
:10087C00FDCF1EB51093ED041091E8041EBD1DB5FF
:10088C0017FFFDCF1EB51093EC041091E7041EBDAD
:10089C001DB517FFFDCF1EB51093EB042B9A0895D1
:1008AC001091E50429981EBD1DB517FFFDCF1091C1
:1008BC00E4041EBD1DB517FFFDCF299A08951091B4
:1008CC00FA041EBD1DB517FFFDCF1EB51093FB041A
:1008DC000895289815E01093FA040E9465040E946C
:1008EC006504289A1091FB040895289815E010933C
:1008FC00FA040E9465040E9465041091FB041170B7
:10090C00103010E009F41FEF112311F40C94810442
:10091C00289A0895289816E01093FA040E9465040A
:10092C00289A08950E949004289811E01093FA04D4
:10093C000E94650410E01093FA040E946504289A42
:10094C000E947B0408950E949004289811E0109353
:10095C00FA040E9465041FE31093FA040E946504D4
:10096C00289A0E947B0408950E94900428983B8149
:10097C002A81198108810093FC041093FD042093B3
:10098C00FE043093FF0410E21093FA040E946504F5
:10099C001091FE041093FA040E9465041091FD045A
:1009AC001093FA040E9465041091FC041093FA044D
:1009BC000E946504289A0E947B041091FB0410721B
:1009CC00103010E009F01FEFE894112309F068943F
:1009DC001091DB0412F91093DB040091DB04112756
:1009EC0002FD1FEF109508950E949004289817ECB3
:1009FC001093FA040E946504289A0E947B041091BB
:100A0C00FB041072103010E009F01FEFE894112372
:100A1C0009F068941091DB0412F91093DB04009137
:100A2C00DB04112702FD1FEF109508952197098112
:100A3C001A8101501040102F18830E94900428989E
:100A4C003E812D811C810B810093FC041093FD04CD
:100A5C002093FE043093FF0412E01093FA040E94DA
:100A6C0065041091FE041093FA040E946504109121
:100A7C00FD041093FA040E9465041091FC04109379
:100A8C00FA040E946504E7E0F0E0FA93EA9310E0C0
:100A9C001083EF93FF931A81FF91EF911A931081BA
:100AAC00088101171FEF08F01127112311F00C9486
:100ABC007405172DE0E0FFE01F7F0027E10FF01F0A
:100ACC0010811093FA040E946504E981FA81108167
:100ADC0013951083112311F00C9456052396289A24
:100AEC000E947B041091FB041072103010E009F08E
:100AFC001FEFE894112309F068941091DB0412F9AC
:100B0C001093DB040091DB04112702FD1FEF1095FD
:100B1C00089521970E947B040A811B81015010408B
:100B2C00102F18833F812E811D810C810093FC04B2
:100B3C001093FD042093FE043093FF0428981BE0CF
:100B4C001093FA040E9465041091FE041093FA04A9
:100B5C000E9465041091FD041093FA040E94650430
:100B6C001091FC041093FA040E94650410E0109399
:100B7C00FA040E946504E7E0F0E0FA93EA9310E0CF
:100B8C001083EF93FF931A81FF91EF911A931081C9
:100B9C00088101171FEF08F01127112311F00C9495
:100BAC0001060E9465041C81112311F40C94EC05C0
:100BBC00172D1F931091FB04E0E0FEE0AF91AF7F87
:100BCC00BB27EA0FFB1F10830C94F805172D1F93FE
:100BDC001091FB04E0E0FFE0AF91AF7FBB27EA0F81
:100BEC00FB1F1083E981FA81108113951083112367
:100BFC0011F00C94CE052396289A0895E4EEF4E0B7
:100C0C00EF93FF931881FF91EF911193E5EEF4E0D0
:100C1C0010E011930E9456040E942F040091EB04E3
:100C2C001091EC042091ED043091EE040895E4EE63
:100C3C00F4E0EF93FF931881FF91EF911193E5EEA0
:100C4C00F4E010E811930E945604E3EFF4E0EF9304
:100C5C00FF931981FF91EF911193E4EFF4E010E011
:100C6C0011930E941A040895E4EEF4E0EF93FF93BD
:100C7C001881FF91EF911193E5EEF4E010E81193D8
:100C8C000E94560409811A810093F3041093F40412
:100C9C000E941A040895E4EEF4E0EF93FF93188198
:100CAC00FF91EF911193E5EEF4E010E811930E949F
:100CBC0056043C812B811A8109810093E70410931F
:100CCC00E8042093E9043093EA040E942F04089569
:100CDC00CF93DF9310EF1A930E940406DF91CF910C
:100CEC000093D0041093D1042093D2043093D304F6
:100CFC00E8E0F0E00E94826C0093D0041093D104E1
:100D0C002093D2043093D304CF93DF930091D0047B
:100D1C001091D1042091D2043091D3043A932A93A8
:100D2C001A930A9310EF1A930E945106DF91CF91F8
:100D3C00ECE0F0E00E94826C0093D0041093D1049C
:100D4C002093D2043093D304CF93DF930091D0043B
:100D5C001091D1042091D2043091D3043A932A9368
:100D6C001A930A9311EF1A930E945106DF91CF91B7
:100D7C0008951DE00E94FB6B1AE00E94FB6B089526
:100D8C0013E20E94FB6B10914202105D0E94FB6B00
:100D9C001AE30E94FB6BCF93DF9318E0412A0BEF11
:100DAC001BE61A930A930091C9041091CA04CF93BD
:100DBC00DF931A930A9310E01A9310E01A9310E23F
:100DCC001A93689443F8689445F8E89454F855F8E5
:100DDC000E945670DF91CF91DF91CF911DE30E945D
:100DEC00FB6B0895CF93DF9318E0412A0BEF1BE6C2
:100DFC001A930A93E2E8F4E00E94056EDF91CF911A
:100E0C000E94BF060895229710E00FEF0093C904CB
:100E1C001093CA040E94C6061A81103010E009F023
:100E2C001FEF112311F40C941E071DE20E94FB6BA3
:100E3C00CF93DF9318E0412A0BEF1BE61A930A932A
:100E4C001C81CF93DF931A9310E01A9310E01A933E
:100E5C0010E21A93689443F80E941D6EDF91CF91B3
:100E6C00DF91CF9110E20E94FB6BCF93DF9318E0E0
:100E7C00412A0BEF1BE61A930A93E1EAF7EEEF9384
:100E8C00FF931C81012F1127ADE0B0E0E89445F8E9
:100E9C000E943471FF91EF91E00FF11F0E94FC6DE5
:100EAC00DF91CF910E94BF0608950E94C606CF9392
:100EBC00DF9318E0412A0BEF1BE61A930A93E9E53E
:100ECC00F4E00E94056EDF91CF910E94BF06089559
:100EDC00E9E5F4E0EF93FF933196FA93EA9318E285
:100EEC001A9317EF41221FEB41220091D00410916D
:100EFC00D1042091D2043091D304CF93DF933A9351
:100F0C002A931A930A9310E01A9310E01A9310E2A2
:100F1C001A93689445F8E89454F855F842F80E94EE
:100F2C005D6EDF91CF9118E21F9318810F91011B19
:100F3C00102FFF91EF91108323960E945B07089569
:100F4C000091CD041091CE0417FF03C03FEF2FEF9B
:100F5C0002C0332722270093D0041093D10420938E
:100F6C00D2043093D3040E946E0708951091D604D6
:100F7C00012F11270093CD041093CE040E94A607D5
:100F8C0008950E94C606E9E5F4E0EF93FF933196CD
:100F9C00FA93EA9318E21A9317EF41221FEB4122BE
:100FAC000091D0041091D1042091D2043091D3043B
:100FBC00CF93DF933A932A931A930A9310E01A93E0
:100FCC0010E01A9310E21A93689445F8E89454F8D8
:100FDC0055F842F80E945D6EDF91CF9118E21F9395
:100FEC0018810F91011B102FFF91EF911083239605
:100FFC00CF93DF9318E0412A0BEF1BE61A930A9369
:10100C00E9E5F4E00E94056EDF91CF9110E20E94B9
:10101C00FB6B1BE50E94FB6B14E20E94FB6BE9E58A
:10102C00F4E0EF93FF933196FA93EA9318E21A9354
:10103C0017EF41221FEB41220091D0041091D104F3
:10104C002091D2043091D304B801C901492F0E94D8
:10105C00C570482F0E94C570472F0E94C570462F3F
:10106C000E94C57018E21F9318810F91011B102F5D
:10107C00FF91EF9110832396CF93DF9318E0412AD1
:10108C000BEF1BE61A930A93E9E5F4E00E94056E58
:10109C00DF91CF911DE50E94FB6B0E94BF06089566
:1010AC000E94C606E9E5F4E0EF93FF933196FA93BC
:1010BC00EA9318E21A9317EF41221FEB4122009199
:1010CC00D0041091D1042091D2043091D304CF9349
:1010DC00DF933A932A931A930A9310E01A9310E031
:1010EC001A9310E21A93689445F8E89454F855F85A
:1010FC0042F80E945D6EDF91CF9118E21F93188128
:10110C000F91011B102FFF91EF9110832396CF931A
:10111C00DF9318E0412A0BEF1BE61A930A93E9E5DB
:10112C00F4E00E94056EDF91CF91CF93DF9318E02E
:10113C00412A0BEF1BE61A930A93EFE7F4EE0E9499
:10114C00FC6DDF91CF91CF93DF9318E0412A0BEF29
:10115C001BE61A930A93E2EAF4E00E94056EDF9113
:10116C00CF911DE50E94FB6B0E94BF0608951AEFFC
:10117C00109334021AEF1093330210913E02109325
:10118C00400210E01093410208950E946F041F7EEC
:10119C00103010E009F01FEF112311F40C94F1083A
:1011AC000E94C606CF93DF9318E0412A0BEF1BE693
:1011BC001A930A93E2E8F4EE0E94FC6D1DE00E9483
:1011CC00D2701AE00E94D270DF91CF911FEF0C9475
:1011DC00F4080C94F40810E00C94F4080895229789
:1011EC001AE314B91FE915B91091DB041B7F109396
:1011FC00DB04469815E00E943A6C469A10E019837D
:10120C0010E00AE00E942B6CFE01319610811395C0
:10121C001083112737991FEF1F931981143610E093
:10122C0011F008F01FEF0F91102B112311F40C94F7
:10123C0006091BEB14B91FE915B916E206EB00936E
:10124C00C9041093CA040E94C606112737991FEFD0
:10125C00112311F40C94CD09CF93DF9313E01A935F
:10126C000E940406DF91CF911091EB041093F104CE
:10127C001091EC041093F2041091ED041093F0040F
:10128C001091EE041093EF040091EF041091F00410
:10129C002091F1043091F20440E83427303A29F4DB
:1012AC00243119F4173009F400321FEF08F011271C
:1012BC0018831881112311F40C947409CF93DF93C4
:1012CC0018E0412A0BEF1BE61A930A93E4E9F4EEBB
:1012DC000E94FC6DDF91CF910C948209CF93DF9328
:1012EC0018E0412A0BEF1BE61A930A93E1EAF4EE9D
:1012FC000E94FC6DDF91CF91CF93DF9318E0412AD0
:10130C000BEF1BE61A930A930091EB041091EC047B
:10131C002091ED043091EE04689443F8B801C901B2
:10132C00492F0E94C570482F0E94C570472F0E94FC
:10133C00C570462F0E94C570DF91CF911881112383
:10134C0011F40C94B909CF93DF9318E0412A0BEFF9
:10135C001BE61A930A93ECEAF4EE0E94FC6DDF9103
:10136C00CF910C94C709CF93DF9318E0412A0BEF70
:10137C001BE61A930A93EAEBF4EE0E94FC6DDF91E4
:10138C00CF910E94BF060E946E060C94E309CF9386
:10139C00DF9318E0412A0BEF1BE61A930A93EFEB4D
:1013AC00F4EE0E94FC6DDF91CF911091DB04146080
:1013BC001093DB040E94BF06469808952497CF93A0
:1013CC00DF930E94F508DF91CF911091DB04103070
:1013DC0010E009F01FEF112311F40C942E0AA091C8
:1013EC00DC04B091DD041196A093DC04B093DD0411
:1013FC0010915104112311F40C94240ACF93DF9310
:10140C0010E01A9310E01A9311E01A930E94986A54
:10141C00DF91CF91CF93DF9318E0412A02E71AE6D0
:10142C001A930A93EBEDF4EE0E94FC6DDF91CF91D1
:10143C0011E004EF0E942B6C0E94BD08CF93DF9348
:10144C0017E01A930E94A534DF91CF910C94050BF1
:10145C001FEF1093E60410915104112311F40C9416
:10146C00890ACF93DF9313E01A930E940406DF914D
:10147C00CF910091EB041091EC042091ED0430918C
:10148C00EE043B832A8319830883CF93DF9310E008
:10149C001A9310E01A9311E01A930E94986ADF9144
:1014AC00CF91CF93DF9318E0412A02E71AE61A9303
:1014BC000A93E9EEF4EE0E94FC6DDF91CF91CF938D
:1014CC00DF9318E0412A02E71AE61A930A933D814A
:1014DC002C811B810A81689443F8B801C901492FFA
:1014EC000E94C570482F0E94C570472F0E94C5707E
:1014FC00462F0E94C570DF91CF9111E004EF0E943E
:10150C002B6C0E94BD0811271A991FEF10951123FF
:10151C0011F40C94050BE8E0F0E0FA93EA9310E078
:10152C0010831FEF1A931081088101171FEF08F029
:10153C001127112311F00C94BC0ACF93DF9312E006
:10154C001A930E940406DF91CF91CF93DF9312E0A0
:10155C001A930E940406DF91CF91E981FA811081E0
:10156C0013951083112311F00C949A0A23961127CA
:10157C001A991FEF1095112311F40C94050B10E020
:10158C001093E60410E00FEF0093C9041093CA0403
:10159C0002E110E020E030E00093D0041093D1047D
:1015AC002093D2043093D304E2EAF4E0EF93FF9358
:1015BC003196FA93EA931FE11A9317EF41221FEB2E
:1015CC004122E0EFF4EE0E94FC6D1FE11F931881A5
:1015DC000F91011B102FFF91EF91108323960E9406
:1015EC005608CF93DF9319E01A930E94A534DF912C
:1015FC00CF9111E004EF0E942B6C0E94BD0808955E
:10160C00E5EEF4E010E81193E4EEF4E0EF93FF93D1
:10161C00109100051F5FFF91EF9111930E945604EA
:10162C00109101051093F7040E940E04E4EEF4E00F
:10163C001091000511930E9456040895E5EEF4E014
:10164C0010E81193E4EEF4E0EF93FF931091000592
:10165C001F5FFF91EF9111930E94560410910105A9
:10166C001093F7040E940E04089510915104112355
:10167C0011F40C94710B10E00E94B06ACF93DF93BD
:10168C0018E0412A02E71AE61A930A93EEEFF4EEF9
:10169C000E94FC6DDF91CF91CF93DF9310E01A93F2
:1016AC0010E01A9311E01A930E94986ADF91CF917F
:1016BC00CF93DF9318E0412A02E71AE61A930A93B4
:1016CC00E7E0F5EE0E94FC6DDF91CF9110E00E94F7
:1016DC00B96A0E94BD08089510915104112311F4A8
:1016EC000C94CE0B1FEF00913402002309F01095DF
:1016FC00112311F40C94CC0BCF93DF9310E01A93BD
:10170C0010E01A9311E01A930E94986ADF91CF911E
:10171C00CF93DF9318E0412A02E71AE61A930A9353
:10172C00E0E1F5EE0E94FC6DDF91CF91CF93DF935A
:10173C0018E0412A02E71AE61A930A930091DF0493
:10174C001091E0042091E1043091E204CF93DF93F7
:10175C003A932A931A930A9318E01A9300E00A9387
:10176C0010E21A93689443F8689445F8E89454F896
:10177C0055F842F80E945D6EDF91CF91DF91CF91C9
:10178C0010E00E94B96A12E3109334020C94D20B4D
:10179C0010E002E00E942B6C08951091510411236B
:1017AC0011F40C94F50BCF93DF9310E01A9310E027
:1017BC001A9311E01A930E94986ADF91CF91CF93FC
:1017CC00DF9318E0412A02E71AE61A930A93E9E13B
:1017DC00F5EE0E94FC6DDF91CF910E94BD0808953B
:1017EC0010915104112311F40C94180CCF93DF9326
:1017FC0010E01A9310E01A9311E01A930E94986A61
:10180C00DF91CF91CF93DF9318E0412A02E71AE6DC
:10181C001A930A93E3E2F5EE0E94FC6DDF91CF91EF
:10182C000E94BD08089565970E94C606CF93DF936A
:10183C0018E0412A0BEF1BE61A930A93EAE2F5EE45
:10184C000E94FC6D1DE00E94D2701AE00E94D270C2
:10185C00DF91CF9110E01A8710E0188710E01C8BF5
:10186C0010E0198B1FEF188B00E010E020E030E047
:10187C000093DF041093E0042093E1043093E2041E
:10188C0010E000E01C870B870E943B0B10E000E08F
:10189C001983088310E000E01B830A83388D2F899D
:1018AC001E890D893F832E831D830C831A85109509
:1018BC00112311F40C94CB0C10E000E01C870B8767
:1018CC0011275A991FEF1095E894112309F0689489
:1018DC001BB112F91BB9CF93DF93FE017496FA93E7
:1018EC00EA9314E61A930E94C46BDF91CF911A8786
:1018FC001A85112311F40C949C0C1C89113010E0E6
:10190C0009F41FEF1F931C89143010E009F41FEF2A
:10191C000F91102B112311F40C949A0C10E000E091
:10192C001C870B870C94CB0C0C94A60C15E10E9415
:10193C00FB6BFE013B96A081B1811196A083B18314
:10194C001C89113010E009F41FEF1F931C8914300F
:10195C0010E009F41FEF0F91102B1F931C89183105
:10196C0010E009F41FEF0F91102B1F930B851C85B2
:10197C00103009F4043110E011F008F01FEF0F9152
:10198C00102B112311F40C94710C18851095112344
:10199C0011F40C94D50C0E94720B1FEF18871C8944
:1019AC00113010E009F41FEF112311F40C94090EFF
:1019BC00CF93DF93FE017396FA93EA9314E61A938E
:1019CC000E94C46BDF91CF9119871985112311F4F3
:1019DC000C94030ECF93DF93FE017296FA93EA9365
:1019EC001AE01A930E94C46BDF91CF9119871B895F
:1019FC000FEF011B102F1F931A890F91011710E085
:101A0C0009F41FEF112311F40C94010E10E0198B43
:101A1C00E8E0F0E0FA93EA9310E010831FE71A93E2
:101A2C001081088101171FEF08F01127112311F005
:101A3C000C94470DCF93DF93EAE0F0E0FA93EA932E
:101A4C001AE01A930E94C46BDF91CF911C871C89FA
:101A5C001F931A2D0F91100F1C8B182D1F931A2DDD
:101A6C00E0E0FFE0AF91AF7FBB27EA0FFB1F1083D5
:101A7C00E981FA81108113951083112311F00C94D4
:101A8C00170D2396CF93DF93FE017096FA93EA938A
:101A9C001AE01A930E94C46BDF91CF911987CF93F0
:101AAC00DF933F812E811D810C813A932A931A93E7
:101ABC000A9310E000E81A930A930E941C05DF9128
:101ACC00CF911095112311F40C94730DFE013296E5
:101ADC00A081B1811196A083B183CF93DF933F8115
:101AEC002E811D810C813A932A931A930A9310E04C
:101AFC0000E81A930A931FEF1A930E948F05DF9147
:101B0C00CF91E8E0F0E0FA93EA9310E010831FE73E
:101B1C001A931081088101171FEF08F01127112368
:101B2C0011F00C94C30D182DE0E0FEE01F7F002790
:101B3C00E10FF01F10811F93182DE0E0FFE01F7FD5
:101B4C000027E10FF01F10810F91011710E009F031
:101B5C001FEF112311F40C94BA0DFE013396A081E2
:101B6C00B1811196A083B183E981FA81108113951B
:101B7C001083112311F00C94900D239619891F9347
:101B8C0018890F91011710E009F41FEF112311F4BC
:101B9C000C94F70D16E00E94FB6B3F812E811D818A
:101BAC000C8100581F4F2F4F3F4F3F832E831D83B7
:101BBC000C830091DF041091E0042091E10430913A
:101BCC00E20400581F4F2F4F3F4F0093DF04109338
:101BDC00E0042093E1043093E2040E94720B0C9415
:101BEC00010EFE013B96A081B1811196A083B183B9
:101BFC0015E10E94FB6B0C94070E10E00FEF1C8795
:101C0C000B8710E01C8B10E01A871C89143010E035
:101C1C0009F41FEF1F931C89183110E009F41FEF12
:101C2C000F91102B1F930B851C85103009F4043178
:101C3C0010E011F008F01FEF0F91102B112311F48D
:101C4C000C945C0C16E00E94FB6B18891F9319898D
:101C5C000F91011710E009F01FEF112311F40C94F0
:101C6C005D0E0FEF1FEF2FEF3FEF0093D00410939B
:101C7C00D1042093D2043093D3040E94C606CF9390
:101C8C00DF9318E0412A0BEF1BE61A930A93EDE35E
:101C9C00F5EE0E94FC6D1DE00E94D2701AE00E94CD
:101CAC00D270DF91CF910E94D30B0C946F0E0091E8
:101CBC00DF041091E0042091E1043091E2040093E0
:101CCC00D0041093D1042093D2043093D3040E94F7
:101CDC00720B08811981103009F4003010E009F002
:101CEC001FEF112311F40C94D10E0FEF1FEF2FEFF8
:101CFC003FEF0093D0041093D1042093D20430937F
:101D0C00D3040E94C606CF93DF9318E0412A0BEF51
:101D1C001BE61A930A93E5E5F5EE0E94FC6DDF9144
:101D2C00CF91CF93DF9318E0412A0BEF1BE61A9368
:101D3C000A930A811B81CF93DF931A930A9310E0C5
:101D4C001A9310E01A9310E21A93689443F8E894EB
:101D5C0045F8E89454F855F80E945670DF91CF91ED
:101D6C00DF91CF91CF93DF9318E0412A0BEF1BE665
:101D7C001A930A93E6E6F5EE0E94FC6D1DE00E94B4
:101D8C00D2701AE00E94D270DF91CF911AEF1093AB
:101D9C0034020E94F60B0A811B81103009F40030CA
:101DAC0010E009F01FEF112311F40C94330F0FEF17
:101DBC001FEF2FEF3FEF0093D0041093D10420932B
:101DCC00D2043093D3040E94C606CF93DF9318E05D
:101DDC00412A0BEF1BE61A930A93EFE6F5EE0E94ED
:101DEC00FC6DDF91CF91CF93DF9318E0412A0BEF7D
:101DFC001BE61A930A930C811D81CF93DF931A93E0
:101E0C000A9310E01A9310E01A9310E21A93689454
:101E1C0043F8E89445F8E89454F855F80E94567045
:101E2C00DF91CF91DF91CF91CF93DF9318E0412ACF
:101E3C000BEF1BE61A930A93E6E6F5EE0E94FC6D97
:101E4C001DE00E94D2701AE00E94D270DF91CF91F7
:101E5C001AEF109334020E94F60B08952297CF9339
:101E6C00DF9312E01A930E940406DF91CF911127A1
:101E7C001A991FEF112311F40C94350F0E94C6060A
:101E8C001091ED041A3A10E009F41FEF112311F42C
:101E9C000C945710CF93DF9318E0412A0BEF1BE6FD
:101EAC001A930A9310910105CF93DF931A9310E0C4
:101EBC001A9310E01A9310E21A93689443F80E9454
:101ECC001D6EDF91CF91DF91CF91CF93DF9318E00F
:101EDC00412A0BEF1BE61A930A93EFE7F5EE0E94EB
:101EEC00FC6DDF91CF911091EB04103511F00C9437
:101EFC008F0FCF93DF9318E0412A0BEF1BE61A9359
:101F0C000A93E8E8F5EE0E94FC6DDF91CF910C94FA
:101F1C002610113511F00C94A30FCF93DF9318E01A
:101F2C00412A0BEF1BE61A930A93EFE8F5EE0E9499
:101F3C00FC6DDF91CF910C942610123511F00C949E
:101F4C00B70FCF93DF9318E0412A0BEF1BE61A93E0
:101F5C000A93E5E9F5EE0E94FC6DDF91CF910C94AC
:101F6C002610133511F00C94CB0FCF93DF9318E0A0
:101F7C00412A0BEF1BE61A930A93EAE9F5EE0E944D
:101F8C00FC6DDF91CF910C942610143511F00C944C
:101F9C00DF0FCF93DF9318E0412A0BEF1BE61A9368
:101FAC000A93E3EAF5EE0E94FC6DDF91CF910C945D
:101FBC002610183511F00C94F30FCF93DF9318E023
:101FCC00412A0BEF1BE61A930A93EAEAF5EE0E94FC
:101FDC00FC6DDF91CF910C9426101F3511F00C94F1
:101FEC000710CF93DF9318E0412A0BEF1BE61A93EF
:101FFC000A93EFEAF5EE0E94FC6DDF91CF910C9401
:10200C002610CF93DF9318E0412A0BEF1BE61A93AF
:10201C000A93E7EBF5EE0E94FC6DDF91CF91CF9325
:10202C00DF9318E0412A0BEF1BE61A930A931091E9
:10203C00EB04689443F8412F0E94C570DF91CF9157
:10204C00CF93DF9318E0412A0BEF1BE61A930A9308
:10205C00E1ECF5EE0E94FC6DDF91CF91CF93DF9315
:10206C0018E0412A0BEF1BE61A930A931091EC042B
:10207C00689443F8412F0E94C570DF91CF91CF93A4
:10208C00DF9318E0412A0BEF1BE61A930A93EAEB55
:10209C00F4EE0E94FC6DDF91CF910E94BF060C9470
:1020AC006710CF93DF9318E0412A0BEF1BE61A93CE
:1020BC000A93E8ECF5EE0E94FC6DDF91CF910E9443
:1020CC00BF06089525971E811455109301050E9493
:1020DC00060B1E81012F11273327222740E050E1E8
:1020EC0060E070E0689445F80E9490713C832B830B
:1020FC001A83098300E010E020E030E00093DF0455
:10210C001093E0042093E1043093E204E8E0F0E063
:10211C00FA93EA9310E010831FE01A931081088160
:10212C0001171FEF08F01127112311F00C944E1119
:10213C00CF93DF933F812E811D810C813A932A939B
:10214C001A930A9311E000E01A930A9310E01A9381
:10215C000E948F05DF91CF911885112311F40C94F7
:10216C00EC10EAE0F0E0FA93EA9310E010831FEF32
:10217C001A931081088101171FEF08F01127112302
:10218C0011F00C94EB101A2DE0E0FFE01F7F0027FC
:10219C00E10FF01F10811E83CF93DF9318E0412ACB
:1021AC000BEF1BE61A930A931885689443F8412F9A
:1021BC000E94C570DF91CF91E981FA81108113954E
:1021CC001083112311F00C94C0102396EAE0F0E078
:1021DC00FA93EA9310E010831FE31A93108108819D
:1021EC0001171FEF08F01127112311F00C94241183
:1021FC00E0E0FFE0EF93FF931A2D012F1127000F62
:10220C00111F000F111FFF91EF91E00FF11F0191B2
:10221C001191219131910093E7041093E8042093DC
:10222C00E9043093EA040E942F04E981FA811081B9
:10223C0013951083112311F00C94F51023963F8104
:10224C002E811D810C8100501F4F2F4F3F4F3F831C
:10225C002E831D830C830091DF041091E0042091E8
:10226C00E1043091E20400501F4F2F4F3F4F009379
:10227C00DF041093E0042093E1043093E204E9813D
:10228C00FA81108113951083112311F00C94951081
:10229C0023960E94240B1AEF109334020091DF0452
:1022AC001091E0042091E1043091E2040093D004F9
:1022BC001093D1042093D2043093D3041FEF1093C6
:1022CC00350410E002E30E942B6CCF93DF930E9445
:1022DC00340FDF91CF9108952D970E94C606CF93AE
:1022EC00DF9318E0412A0BEF1BE61A930A931F8524
:1022FC00CF93DF931A9310E01A9310E01A9310E225
:10230C001A93689443F80E941D6EDF91CF91DF9170
:10231C00CF91CF93DF9318E0412A0BEF1BE61A9372
:10232C000A93ECEDF5EE0E94FC6DDF91CF91CF930B
:10233C00DF9310E01A9318E41A930E941D06DF91A4
:10234C00CF9110E004E60E942B6C1D851C5A012FC6
:10235C0011273327222740E050E160E070E06894B9
:10236C0045F80E9490713C872B871A87098710E0EB
:10237C0000E018870F8310E000E019830883E8E081
:10238C00F0E0FA93EA9310E010831FE01A931081A7
:10239C00088101171FEF08F01127112311F00C947D
:1023AC00C912CF93DF933F852E851D850C853A93FB
:1023BC002A931A930A9311E000E01A930A9310E0FF
:1023CC001A930E948F05DF91CF9110E000E01E83DD
:1023DC000D8310E000E01C830B830A851B85198795
:1023EC000887EAE0F0E0FA93EA9310E0108317E034
:1023FC001A931081088101171FEF08F01127112380
:10240C0011F00C943E12CF93DF9310E51A930E85C6
:10241C001F851A930A931FE000E00F931F930B85FF
:10242C001C853F912F91020F131F1A930A9310E0F2
:10243C0000E21A930A930E94916BDF91CF9110E006
:10244C000AE00E942B6C08851985005E1F4F1987C6
:10245C0008870D851E85005E1F4F1E870D87E9813D
:10246C00FA81108113951083112311F00C94001232
:10247C00239610E51F93088519851F93E89440F85F
:10248C0008851985102FE6E1F0E0612FA1E0B0E09E
:10249C003F914F9150E00E949B6BCF93DF9310E5DF
:1024AC001A931EE000E01A930A9311E000E01A93CD
:1024BC000A930E94736BDF91CF91EAE0F0E0FA93FC
:1024CC00EA9310E010831FEF1A9310810881011713
:1024DC001FEF08F01127112311F00C949F121A2DE5
:1024EC00E0E0FFE01F7F0027E10FF01F10811F933A
:1024FC001A2DE0E0FEE01F7F0027E10FF01F108196
:10250C000F91011710E009F01FEF112311F40C9437
:10251C009612FE013696A081B1811196A083B183EB
:10252C00E981FA81108113951083112311F00C9419
:10253C006C1223960B811C81103009F4003010E0D2
:10254C0009F41FEF112311F40C94B1121EE20E9436
:10255C00FB6B0C94B41213E20E94FB6B3F852E852F
:10256C001D850C8500501F4F2F4F3F4F3F872E87E7
:10257C001D870C87E981FA81108113951083112333
:10258C0011F00C94CE112396CF93DF9318E0412ACF
:10259C000BEF1BE61A930A931DE50E94D2701DE007
:1025AC000E94D2701AE00E94D270DF91CF911AEF84
:1025BC00109334020091DF041091E0042091E104A7
:1025CC003091E2040093D0041093D1042093D204F0
:1025DC003093D3041FEF1093350408811981103008
:1025EC0009F4003010E009F01FEF112311F40C94E2
:1025FC0044130E94C606CF93DF9318E0412A0BEFD9
:10260C001BE61A930A93E8EFF5EE0E94FC6DDF913E
:10261C00CF91CF93DF9318E0412A0BEF1BE61A936F
:10262C000A930A811B81CF93DF931A930A9310E0CC
:10263C001A9310E01A9310E21A93689443F8E894F2
:10264C0045F8E89454F855F80E945670DF91CF91F4
:10265C00DF91CF91CF93DF9318E0412A0BEF1BE66C
:10266C001A930A93E6E6F5EE0E94FC6D1DE00E94BB
:10267C00D2701AE00E94D270DF91CF910895109120
:10268C00E503103010E009F01FEF112311F40C9446
:10269C006913CF93DF931091E40310541F931981A6
:1026AC000F91100F1A931CE01A930E941D06DF91D4
:1026BC00CF91CF93DF9318811A931CE01A930E9449
:1026CC001D06DF91CF91089521971091E5031030ED
:1026DC0010E009F01FEF112311F40C94B9131A81B7
:1026EC00E4E2F3E01F770027E10FF01F108118835D
:1026FC0018811F9319810F91011710E009F01FEF3A
:10270C00112311F40C94B913CF93DF931091E403BC
:10271C0010551F931B810F91100F1A931CE01A93E5
:10272C000E941D06DF91CF91CF93DF931A811A93EC
:10273C001CE01A930E941D06DF91CF91CF93DF937B
:10274C0019811A931CE01A930E941D06DF91CF91F8
:10275C001A811F931981E4E2F3E0AF91AF77BB27A5
:10276C00EA0FFB1F10830895CF93DF9310E01A93A9
:10277C001A811A931A8116951A930E946A13DF9183
:10278C00CF910895219710E018830091AC03112785
:10279C0004FD1FEF112311F40C94D813FE011081CA
:1027AC00139510830091AC03112705FD1FEF112326
:1027BC0011F40C94E913FE01108113951083FE01A2
:1027CC00108113951083CF93DF9318811A931EE415
:1027DC001A930E941D06DF91CF911091CD031030FA
:1027EC0011F00C94FB130C940514123011F00C9492
:1027FC0001140C940514143011F00C941B14CF9389
:10280C00DF931FEF1A931BE41A930E941D06DF91AE
:10281C00CF91CF93DF9310E01A931CE41A930E948C
:10282C001D06DF91CF910C944314113011F00C94D0
:10283C0021140C942B14133011F00C9427140C94B9
:10284C002B14153011F00C944314CF93DF9310918B
:10285C00F2031A931BE41A930E941D06DF91CF9189
:10286C00CF93DF931091F1031A931CE41A930E94F7
:10287C001D06DF91CF910C9443141091CD031030B1
:10288C0011F00C944B140C944F14113011F00C9457
:10289C006714CF93DF931091EB031A931DE41A93F3
:1028AC000E941D06DF91CF91CF93DF931091EC0323
:1028BC001A931AE41A930E941D06DF91CF910C947F
:1028CC00AB14123011F00C946D140C947114133071
:1028DC0011F00C948914CF93DF931091ED031A939C
:1028EC001DE41A930E941D06DF91CF91CF93DF93C5
:1028FC001091EE031A931AE41A930E941D06DF91AD
:10290C00CF910C94AB14143011F00C948F140C94D4
:10291C009314153011F00C94AB14CF93DF931091EA
:10292C00EF031A931DE41A930E941D06DF91CF91B9
:10293C00CF93DF931091F0031A931AE41A930E9429
:10294C001D06DF91CF910C94AB1408952497009140
:10295C00AC03112700FD1FEF1F930091AC0311274F
:10296C0001FD1FEF10950F9110231883E8E0F0E0A4
:10297C00FA93EA9310E0108317E01A931081088100
:10298C0001171FEF08F01127112311F00C940415F7
:10299C00E4ECF3E0EF93FF93182D012F1127FF9137
:1029AC00EF91E00FF11F11911C83CF93DF9310E097
:1029BC001A93182D145F1A931E811A930E946A138E
:1029CC00DF91CF911B81112311F40C94F0141C8115
:1029DC0016951C83CF93DF931C811A93182D105FCF
:1029EC001A930E941D06DF91CF91E981FA81108123
:1029FC0013951083112311F00C94C5142396CF93C7
:102A0C00DF9310E01A9314E11A931091CC031A93EC
:102A1C000E946A13DF91CF910091AC03112700FD46
:102A2C001FEF1F9310910D0310950F91102311237D
:102A3C0011F40C94AE151091FA03112311F40C94AB
:102A4C003315CF93DF9310E01A9318E11A930E9479
:102A5C001D06DF91CF910C944B151881112311F4A5
:102A6C000C943E151091CC03169519830C944115BA
:102A7C001091CC031983CF93DF9319811A9318E12A
:102A8C001A930E941D06DF91CF910091AC03112780
:102A9C0003FD1FEF112311F40C946015CF93DF93FA
:102AAC0011E01A931BE11A930E941D06DF91CF913E
:102ABC000C946A15CF93DF9310E01A931BE11A93D1
:102ACC000E941D06DF91CF910091AC03112701FDEF
:102ADC001FEF112311F40C948015CF93DF931091F9
:102AEC00F4031A931AE11A930E941D06DF91CF91F9
:102AFC000C948B15CF93DF931091F3031A931AE177
:102B0C001A930E941D06DF91CF910091AC031127FF
:102B1C0002FD1FEF112311F40C94A115CF93DF9339
:102B2C001091F6031A9319E11A930E941D06DF9176
:102B3C00CF910C94AC15CF93DF931091F5031A93AE
:102B4C0019E11A930E941D06DF91CF910C94C515C3
:102B5C001091CC031983CF93DF9319811A9318E149
:102B6C001A930E941D06DF91CF91CF93DF9310E053
:102B7C001A931AE11A930E941D06DF91CF910895C2
:102B8C002197E8E0F0E0FA93EA9310E0108318E064
:102B9C001A931081088101171FEF08F011271123D8
:102BAC0011F00C940716E3EDF3E0EF93FF93182D5F
:102BBC00012F1127FF91EF91E00FF11F11911B8352
:102BCC00CF93DF931B811A93182D105E1A930E94DA
:102BDC001D06DF91CF91CF93DF9310E01A93182D40
:102BEC001B5E1A931D811A930E946A13DF91CF9179
:102BFC00E981FA81108113951083112311F00C9443
:102C0C00D015239608952197CF93DF9310E01A9354
:102C1C0011E21A931091DC031A930E946A13DF914C
:102C2C00CF91CF93DF9310E01A9312E21A93109185
:102C3C00DD031A930E946A13DF91CF91CF93DF9338
:102C4C0010E01A9313E21A931091DE031A930E9468
:102C5C006A13DF91CF911091DC0316951883CF93F3
:102C6C00DF931091DC031F9318810F91100F1A93AF
:102C7C0019E21A930E941D06DF91CF911091DD038A
:102C8C0016951883CF93DF931091DD031F93188152
:102C9C000F91100F1A931AE21A930E941D06DF91DE
:102CAC00CF911091DE0316951883CF93DF9310917B
:102CBC00DE031F9318810F91100F1A931BE21A93C6
:102CCC000E941D06DF91CF91CF93DF9310E01A93F2
:102CDC001BE41A931091DF0316951A930E946A1342
:102CEC00DF91CF911091DF031695E5E3FFEE1F7393
:102CFC000027E10FF01F14911883CF93DF931881F5
:102D0C001A931FE01A930E941D06DF91CF91CF9367
:102D1C00DF931091E7031A9316E01A930E941D0695
:102D2C00DF91CF91CF93DF930091BD03112707FD66
:102D3C001FEF11701A9317E01A930E941D06DF9172
:102D4C00CF910091BD03112706FD1FEF112311F444
:102D5C000C94B5161091EA0318830C94B8161091C4
:102D6C00E9031883CF93DF9318811A9313EB1A930B
:102D7C000E941D06DF91CF91089521971091E303D6
:102D8C00137018601883CF93DF9318811A9318E48B
:102D9C001A930E941D06DF91CF911091E3031370DB
:102DAC00110F110F110F1883CF93DF931881105649
:102DBC001A9315E41A930E941D06DF91CF9110917E
:102DCC00E303103010E009F41FEF112311F40C94FD
:102DDC000517CF93DF9310E01A9316E41A930E9411
:102DEC001D06DF91CF91CF93DF9310E01A9317E478
:102DFC001A930E941D06DF91CF910C942817E1E0E5
:102E0C00F4E0EF93FF931091E3031150012F11277E
:102E1C00FF91EF91E00FF11F11911883CF93DF9386
:102E2C0018811A9316E41A930E941D06DF91CF9114
:102E3C00CF93DF9318811A9317E41A930E941D06FF
:102E4C00DF91CF9110E01093360408952197CF9322
:102E5C00DF931091FB031A931AE01A930E941D063C
:102E6C00DF91CF91CF93DF931091E4031A9314E089
:102E7C001A930E941D06DF91CF91CF93DF9310918F
:102E8C00E5031A9315E01A930E941D06DF91CF916A
:102E9C00CF93DF931091E7031A9316E01A930E94D5
:102EAC001D06DF91CF911091FF03110F110F110F20
:102EBC00110F1F93109100041F700F91102B18838A
:102ECC00CF93DF9318811A9319E01A930E941D0671
:102EDC00DF91CF911091F7031F931091F9031170AB
:102EEC0025E00E9411710F91102B1F931091F80384
:102EFC0026E00E9411710F91102B1883CF93DF9352
:102F0C0018811A931BE01A930E941D06DF91CF9132
:102F1C00CF93DF931091E8031A931DE01A930E944C
:102F2C001D06DF91CF91CF93DF931091FE031A937F
:102F3C0019E41A930E941D06DF91CF91CF93DF9372
:102F4C0018EC1A931FE41A930E941D06DF91CF917F
:102F5C0010E0109335040895229710E01883E8E0F0
:102F6C00F0E0FA93EA9310E0108318E01A931081C2
:102F7C00088101171FEF08F01127112311F00C9491
:102F8C0011181D811F93182DE5EAF2E01F70002720
:102F9C00E10FF01F10810F91102B112311F40C94E1
:102FAC000818182DE5E6F2E01F700027E10FF01F5E
:102FBC00108116951C83E4ECF3E0EF93FF93182D2E
:102FCC00012F1127FF91EF91E00FF11FEF93FF936A
:102FDC001C81FF91EF911193182D1F9310E0E5EADE
:102FEC00F2E0AF91AF70BB27EA0FFB1F10831FEF0E
:102FFC001B831D811095112311F40C9408181DE0EE
:10300C0010934002E981FA811081139510831123EA
:10301C0011F00C94BE1723961881112311F40C9403
:10302C001D18CF93DF930E94AC14DF91CF910895BC
:10303C00229710E01883E8E0F0E0FA93EA9310E0AE
:10304C00108318E01A931081088101171FEF08F004
:10305C001127112311F00C947D181D811F93182D2D
:10306C00E1EBF2E01F700027E10FF01F10810F91D0
:10307C00102B112311F40C947418182DE1E7F2E0C5
:10308C001F700027E10FF01F108116951C83E3EDD4
:10309C00F3E0EF93FF93182D012F1127FF91EF9180
:1030AC00E00FF11FEF93FF931C81FF91EF911193B0
:1030BC00182D1F9310E0E1EBF2E0AF91AF70BB273E
:1030CC00EA0FFB1F10831FEF1B831D81109511232B
:1030DC0011F40C9474181EE010934002E981FA81EB
:1030EC00108113951083112311F00C942A18239638
:1030FC001881112311F40C948918CF93DF930E943B
:10310C00C615DF91CF91089522971A811F931091C4
:10311C00BA020F91102B112311F40C94AB181091CF
:10312C007A0216951093DC031091DC03169510931C
:10313C00DD0310E01093BA02CF93DF930E940916BF
:10314C00DF91CF911EE0109340021A811F931091D2
:10315C00BB020F91102B112311F40C94C618109173
:10316C007B0216951093DE0310E01093BB02CF93F5
:10317C00DF930E940916DF91CF911EE0109340025D
:10318C001A811F931091BC020F91102B112311F473
:10319C000C94E11810917C0216951093DF0310E04B
:1031AC001093BC02CF93DF930E940916DF91CF914D
:1031BC001CE110934002089521971091C103112333
:1031CC0011F40C942B1910E01093C1031AE0109316
:1031DC0040021FEF1093AE021091CD03169500E341
:1031EC000E941B71115E1883CF93DF9310E01A932A
:1031FC001AE41A931A811A930E946A13DF91CF91E1
:10320C001091CD031170113010E009F41FEF112350
:10321C0011F40C941F19CF93DF9310E01A9319E457
:10322C001A931FE31A930E946A13DF91CF910C94A7
:10323C002B19CF93DF9310E01A9319E41A931FE71D
:10324C001A930E946A13DF91CF91CF93DF930E9460
:10325C00C813DF91CF91089523971091BF031F934B
:10326C001091C0030F91102B103010E009F41FEFD8
:10327C00112311F40C9444190C94801A0091BF037F
:10328C00112700FD1FEF112311F40C946419CF9337
:10329C00DF930E94AC14DF91CF911CE0109340029D
:1032AC00CF93DF9312E41A930091AC03112700FD26
:1032BC001FEF1A930E94BA13DF91CF910091BF03B5
:1032CC00112701FD1FEF112311F40C948419CF93D6
:1032DC00DF930E94AC14DF91CF911CE0109340025D
:1032EC00CF93DF9316E41A930091AC03112701FDE1
:1032FC001FEF1A930E94BA13DF91CF910091BF0375
:10330C00112702FD1FEF112311F40C94A419CF9374
:10331C00DF930E94AC14DF91CF911CE0109340021C
:10332C00CF93DF9317E41A930091AC03112702FD9E
:10333C001FEF1A930E94BA13DF91CF910091BF0334
:10334C00112703FD1FEF112311F40C94C419CF9313
:10335C00DF930E94AC14DF91CF911CE010934002DC
:10336C00CF93DF9318E41A930091AC03112703FD5C
:10337C001FEF1A930E94BA13DF91CF910091BF03F4
:10338C00112704FD1FEF112311F40C94E719CF93AF
:10339C00DF930E94C813DF91CF911FEF1093AE0201
:1033AC001BE010934002CF93DF931FE11A9300911F
:1033BC00AC03112704FD1FEF1A930E94BA13DF917F
:1033CC00CF910091BF03112705FD1FEF112311F4BD
:1033DC000C940A1ACF93DF930E94C813DF91CF91FC
:1033EC001FEF1093AE021FE010934002CF93DF93B8
:1033FC001EE11A930091AC03112705FD1FEF1A93E0
:10340C000E94BA13DF91CF910091C003112704FDE4
:10341C001FEF1F930091C003112705FD1FEF0F91A4
:10342C00102B1F93109136040F91102B112311F4B4
:10343C000C94481A10E01093E3030091BD0311277C
:10344C0004FD1FEF112311F40C94311A1091E303B6
:10345C0013951093E3030091BD03112705FD1FEF96
:10346C00112311F40C943F1A1091E3031E5F109377
:10347C00E303CF93DF930E94C316DF91CF9110E249
:10348C00109340020091C003112706FD1FEF11237A
:10349C0011F40C94611A0091BD03112706FD1FEF66
:1034AC001093E003CF93DF930E940916DF91CF9125
:1034BC001DE1109340020091C003112707FD1FEF7F
:1034CC00112311F40C947A1A0091BD03112707FDF6
:1034DC001FEF1093E103CF93DF930E940916DF9146
:1034EC00CF911EE11093400210E01093BF0310E047
:1034FC001093C00308952197E8E0F0E0FA93EA9363
:10350C0010E0108319E01A931081088101171FEF46
:10351C0008F01127112311F00C94C21A182DE4E4B1
:10352C00F2E01F700027E10FF01F10811B83E4EC09
:10353C00F3E0EF93FF93182D012F1127FF91EF91DB
:10354C00E00FF11FEF93FF931B81FF91EF9111930C
:10355C00182D1F9319E0E5E8F2E0AF91AF70BB278F
:10356C00EA0FFB1F1083E981FA81108113951083F8
:10357C00112311F00C948B1A23961091AC03107E2E
:10358C001F9310914E020F91102B1093AC031FE15F
:10359C001093BF0308952197E8E0F0E0FA93EA93C3
:1035AC0010E0108319E01A931081088101171FEFA6
:1035BC0008F01127112311F00C94051BE4ECF3E037
:1035CC00EF93FF93182D012F1127FF91EF91E00F2F
:1035DC00F11F11911B83182D1F931B81E4E4F2E062
:1035EC00AF91AF70BB27EA0FFB1F1083E981FA8103
:1035FC00108113951083112311F00C94DB1A239670
:10360C001091AC031F7110934E02CF93DF9310E017
:10361C001A930E948934DF91CF9108952197E8E0A5
:10362C00F0E0FA93EA9310E010831CE01A931081F7
:10363C00088101171FEF08F01127112311F00C94CA
:10364C00551B182DE4E5F2E01F700027E10FF01F69
:10365C0010811B83E3EDF3E0EF93FF93182D012F03
:10366C001127FF91EF91E00FF11FEF93FF931B8157
:10367C00FF91EF911193182D1F9319E0E1E9F2E0FE
:10368C00AF91AF70BB27EA0FFB1F1083E981FA8162
:10369C00108113951083112311F00C941E1B23968B
:1036AC001091AC031F7D1F93109161020F91102B91
:1036BC001093AC0310E21093BF0308952197E8E038
:1036CC00F0E0FA93EA9310E010831CE01A93108157
:1036DC00088101171FEF08F01127112311F00C942A
:1036EC00981BE3EDF3E0EF93FF93182D012F1127B7
:1036FC00FF91EF91E00FF11F11911B83182D1F9378
:10370C001B81E4E5F2E0AF91AF70BB27EA0FFB1F22
:10371C001083E981FA81108113951083112311F024
:10372C000C946E1B23961091AC03107210936102D3
:10373C000895CF93DF931FEF1A930E948934DF9182
:10374C00CF91E8E0F0E0FA93EA9310E0108318E0F0
:10375C001A931081088101171FEF08F0112711230C
:10376C0011F00C94F91BE4ECF3E0EF93FF93182D9C
:10377C00012F1127FF91EF91E00FF11FEF93FF93B2
:10378C00E4EAF0E0EF93FF931B81012F1127A0E1F6
:10379C00B0E0E89445F80E9434710F931F93182DF4
:1037AC00012F11273F912F91020F131FFF91EF91C2
:1037BC00E00FF11F0E94746CFF91EF911193182D83
:1037CC001F9319E0E5E8F2E0AF91AF70BB27EA0F69
:1037DC00FB1F1083E981FA8110811395108311234B
:1037EC0011F00C94B01B2396E4EAF0E0EF93FF93F6
:1037FC001881012F1127A0E1B0E0E89445F80E9450
:10380C003471075F1F4FFF91EF91E00FF11F0E9482
:10381C00746C1093CD031091AC03107E1F93E4EAEB
:10382C00F0E0EF93FF931881012F1127A0E1B0E096
:10383C00E89445F80E943471065F1F4FFF91EF9199
:10384C00E00FF11F0E94746C1F710F91102B1093DD
:10385C00AC031FE11093BF0310E00AE00E942B6C35
:10386C00CF93DF9310E01A930E948934DF91CF91AC
:10387C000895CF93DF931FEF1A930E948934DF9141
:10388C00CF9118811F701883E8E0F0E0FA93EA9367
:10389C0010E0108319E01A931081088101171FEFB3
:1038AC0008F01127112311F00C94911CE4EAF0E0BC
:1038BC00EF93FF931B81012F1127A0E1B0E0E89457
:1038CC0045F80E9434710F931F93182D012F112767
:1038DC003F912F91020F131FFF91EF91E00FF11FFA
:1038EC00EF93FF93E4ECF3E0EF93FF93182D012F8C
:1038FC001127FF91EF91E00FF11F1191FF91EF91C3
:10390C000E94526CE981FA81108113951083112366
:10391C0011F00C94531C2396E4EAF0E0EF93FF9320
:10392C001881012F1127A0E1B0E0E89445F80E941E
:10393C003471065F1F4FFF91EF91E00FF11FEF9372
:10394C00FF931091AC031F71FF91EF910E94526C89
:10395C00CF93DF9310E01A930E948934DF91CF91BB
:10396C000E94BD081DE0109340020895CF93DF9391
:10397C001FEF1A930E948934DF91CF91E8E0F0E0B9
:10398C00FA93EA9310E010831CE01A9310810881DB
:10399C0001171FEF08F01127112311F00C94161DBD
:1039AC00E3EDF3E0EF93FF93182D012F1127FF9117
:1039BC00EF91E00FF11FEF93FF93E4EAF1E0EF9347
:1039CC00FF931B81012F1127A0E1B0E0E89445F88B
:1039DC000E9434710F931F93182D012F11273F91C3
:1039EC002F91020F131FFF91EF91E00FF11F0E9417
:1039FC00746CFF91EF911193182D1F9319E0E1E96D
:103A0C00F2E0AF91AF70BB27EA0FFB1F1083E98187
:103A1C00FA81108113951083112311F00C94CD1C95
:103A2C0023961091AC031F7D1F93E4EAF1E0EF9312
:103A3C00FF931881012F1127A0E1B0E0E89445F81D
:103A4C000E943471035F1F4FFF91EF91E00FF11F44
:103A5C000E94746C10720F91102B1093AC0310E237
:103A6C001093BF0310E00AE00E942B6CCF93DF93FE
:103A7C0010E01A930E948934DF91CF910895CF936F
:103A8C00DF931FEF1A930E948934DF91CF91188135
:103A9C001F701883E8E0F0E0FA93EA9310E01083CB
:103AAC001CE01A931081088101171FEF08F01127F1
:103ABC00112311F00C94971DE4EAF1E0EF93FF93BE
:103ACC001B81012F1127A0E1B0E0E89445F80E947A
:103ADC0034710F931F93182D012F11273F912F91A4
:103AEC00020F131FFF91EF91E00FF11FEF93FF9364
:103AFC00E3EDF3E0EF93FF93182D012F1127FF91C6
:103B0C00EF91E00FF11F1191FF91EF910E94526C18
:103B1C00E981FA81108113951083112311F00C9413
:103B2C00591D2396E4EAF1E0EF93FF931881012FDE
:103B3C001127A0E1B0E0E89445F80E943471035FCE
:103B4C001F4FFF91EF91E00FF11FEF93FF93109137
:103B5C00AC031072FF91EF910E94526CCF93DF93E4
:103B6C0010E01A930E948934DF91CF910E94BD0816
:103B7C001EE0109340020895E8E0F0E0FA93EA9317
:103B8C0010E0108311E51A931081088101171FEFC3
:103B9C0008F01127112311F00C94FA1DE3ECF3E05B
:103BAC00EF93FF93182D012F1127FF91EF91E00F49
:103BBC00F11FEF93FF93E2E1F0E0EF93FF93182DE9
:103BCC00012F1127FF91EF91E00FF11F0E94746CF0
:103BDC00FF91EF911193E981FA8110811395108374
:103BEC00112311F00C94CB1D2396E8E0F0E0FA932E
:103BFC00EA9310E010831FE01A93108108810117DB
:103C0C001FEF08F01127112311F00C94441E182DEE
:103C1C001F93E4EAF0E0EF93FF93182D012F112787
:103C2C00FF91EF91E00FF11F0E94746CE4E4F2E05D
:103C3C00AF91AF70BB27EA0FFB1F1083182D1F939A
:103C4C00E4EAF1E0EF93FF93182D012F1127FF9178
:103C5C00EF91E00FF11F0E94746CE4E5F2E0AF917C
:103C6C00AF70BB27EA0FFB1F1083E981FA8110812B
:103C7C0013951083112311F00C94041E23961091AC
:103C8C00E3031170113010E009F41FEF112311F44C
:103C9C000C94551E1091BD0310611093BD0310912F
:103CAC00E3031270123010E009F41FEF112311F42A
:103CBC000C94651E1091BD0310621093BD031091FE
:103CCC00E003E894112309F068941091BD0316F9F0
:103CDC001093BD031091E103E894112309F068944B
:103CEC001091BD0317F91093BD031091F4031093B9
:103CFC0021031091F303109322031FEF1093C203BF
:103D0C001FE71093140310E008EC009308031093C2
:103D1C00090308952797CF93DF9310E01A9317EFB9
:103D2C001A930E941D06DF91CF91FE013596FA93EE
:103D3C00EA9310E000E01183008311E00FEF1A9377
:103D4C000A93A081B18128813981B31709F4A21794
:103D5C0010E011F008F01FEF112311F00C94EC1E81
:103D6C00E1EDF3E0EF93FF9309851A85000F111F26
:103D7C00FF91EF91E00FF11F0E947D6C17FF03C0C4
:103D8C003FEF2FEF02C03327222738872F831E8364
:103D9C000D83CF93DF9338852F811E810D813A934C
:103DAC002A931A930A9316EF1A930E945106DF91E5
:103DBC00CF91EA81FB81A081B1811196A083B1835F
:103DCC00BB2311F4AA2311F00C94A91E2496E8E04D
:103DDC00F0E0FA93EA9310E010831FE31A9310813A
:103DEC00088101171FEF08F01127112311F00C9413
:103DFC00211FE4E6F0E0EF93FF93182D012F11271C
:103E0C00FF91EF91E00FF11F0E94746C1B83CF9315
:103E1C00DF931B811A93182D10551A930E941D06BF
:103E2C00DF91CF91E981FA811081139510831123D1
:103E3C0011F00C94F61E239608952E971091B00253
:103E4C00112311F40C942D1F10E010930B031091FF
:103E5C000C03112311F40C94361F1FEF10930B035A
:103E6C0010910B03112311F40C944E1F1091140399
:103E7C001F93109123030F91100F188310911403AB
:103E8C001093230310910C0310930A030C94901FAE
:103E9C00109170021F930091060310910703102FCD
:103EAC000F91011710E009F01FEF10930A03109106
:103EBC007002012F11270F931F930091060310918D
:103ECC0007033F912F91020F131F112312F40F5F61
:103EDC001F4F159507950093080310930903109134
:103EEC007002012F11270093060310930703009112
:103EFC00080310910903102F1883CF93DF9310E060
:103F0C001A931BE01A931A8116951A930E946A133E
:103F1C00DF91CF9110910A031F931091AE020F9174
:103F2C00102B112311F40C9493201091CD0311300C
:103F3C0021F0133011F0153001F010E009F41FEFEF
:103F4C001A830091AC03112704FD1FEF1F930091FE
:103F5C00AC03112705FD1FEF0F91102B198318814E
:103F6C001695198719851695188710911304112326
:103F7C0011F40C94C71F10916E0216951E830C94AD
:103F8C00CA1F1091FC031E831091FD031695169504
:103F9C001F93CF93DF9318811A931091FD031A93FB
:103FAC001EEB1A930E941D6CDF91CF910F91100F95
:103FBC001C871091FD031695169516951F93CF939C
:103FCC00DF9318811A931091FD031A9316EE1A932E
:103FDC000E941D6CDF91CF910F91100F1B871A81DE
:103FEC00112311F40C9410201E811695169516951C
:103FFC001F93CF93DF9318811A931F811A9310EAA2
:10400C001A930E941D6CDF91CF910F91100F1A879C
:10401C000C9424201E811695169516951F93CF93FC
:10402C00DF9318811A931F811A931EEB1A930E9427
:10403C001D6CDF91CF910F91100F1A871A811123EC
:10404C0011F40C943920CF93DF9318811A9318EC48
:10405C001A931FEF1A930E941D6CDF91CF911F5F73
:10406C001D870C944720CF93DF9318811A9314EB80
:10407C001A931FEF1A930E941D6CDF91CF911F5F53
:10408C001D87CF93DF931EEB1A931FE41A930E94A4
:10409C001D06DF91CF911985105C1F9318850F9128
:1040AC00100F1F83CF93DF931D851A9310E41A937F
:1040BC000E941D06DF91CF91CF93DF931C851A933D
:1040CC0011E41A930E941D06DF91CF91CF93DF93D9
:1040DC001B851A9312E41A930E941D06DF91CF914F
:1040EC00CF93DF931A851A9313E41A930E941D063B
:1040FC00DF91CF91CF93DF931F811A9314E41A931E
:10410C000E941D06DF91CF9110E01093AE0210E0DB
:10411C0010930A0310E010930C0310913802143022
:10412C0010E009F41FEF112311F40C94D02110911D
:10413C0014041F931091AF020F911023112311F44B
:10414C000C94AC2010916F021093E20310E01093CA
:10415C00AF021091A603112311F40C94BD20109101
:10416C0006041C83109107041B830C94C32010912C
:10417C0004041C83109105041B83CF93DF9314E478
:10418C001A931091A7031A930E94BA13DF91CF913F
:10419C00CF93DF9311E01A931091A6031A930E9408
:1041AC00BA13DF91CF911091A7031095112311F43D
:1041BC000C94E42010E01C8310E01B831FEF009193
:1041CC003602002309F01095112311F40C941D21D3
:1041DC001091A8031F931C810F91011710E009F097
:1041EC001FEF112311F40C941D211C811F931091AE
:1041FC00A8030F91011710E011F008F01FEF112325
:10420C0011F40C9414211091A80313951093A80386
:10421C0010910804109336020C941D211091A803E0
:10422C001A951093A80310910A04109336021FEFED
:10423C0000913702002309F01095112311F40C940E
:10424C0056211091A9031F931B810F91011710E0A8
:10425C0009F01FEF112311F40C9456211B811F93AD
:10426C001091A9030F91011710E011F008F01FEF46
:10427C00112311F40C944D211091A9031395109353
:10428C00A90310910904109337020C945621109134
:10429C00A9031A951093A90310910B0410933702DC
:1042AC0000914004109141040F931F931091A803A7
:1042BC00012F11273F912F91020F131F00934004E0
:1042CC0010934104CF93DF931091A8031A9311EB31
:1042DC001A930E941D06DF91CF91CF93DF9310911B
:1042EC00A9031A9312EB1A930E941D06DF91CF912A
:1042FC00CF93DF931091E2031A9310EB1A930E9461
:10430C001D06DF91CF911091A6031F931091A70367
:10431C000F911023E894112309F06894109115045F
:10432C0011F9109315041091A60310951F93109179
:10433C00A7030F911023E894112309F068941091AE
:10434C00150410F9109315040091BD03112706FDF7
:10435C001FEFE894112309F068941091150413F9D8
:10436C001093150410915704112311F40C94D021BF
:10437C00CF93DF9311E21A9313E01A9314E005E143
:10438C001A930A9310E001E01A930A930E94876B28
:10439C00DF91CF9110913802153010E009F41FEF26
:1043AC00112311F40C945122CF93DF9310910C0430
:1043BC001A9317EC1A930E941D06DF91CF91CF939D
:1043CC00DF9310910C041A9318EC1A930E941D069B
:1043DC00DF91CF91CF93DF9310910C041695105869
:1043EC001A931BEC1A930E941D06DF91CF91E4E601
:1043FC00F0E0F0960E94746C1F9310910D040F91D5
:10440C00100F1D83CF93DF931D811A9311EE1A9316
:10441C000E941D06DF91CF91E4E6F0E0F3960E9436
:10442C00746C1F9310910D040F91100F1D83CF937B
:10443C00DF931D811A9314EE1A930E941D06DF91CF
:10444C00CF91E4E6F0E0F5960E94746C1F93109106
:10445C000D040F91100F1D83CF93DF931D811A93C1
:10446C0016EE1A930E941D06DF91CF91E4E6F0E060
:10447C00F7960E94746C1F9310910D040F91100FFE
:10448C001D83CF93DF931D811A9318EE1A930E940C
:10449C001D06DF91CF9110913802163010E009F40F
:1044AC001FEF112311F40C943C2310910E041436BD
:1044BC0010E008F01FEF112311F40C94BE22CF93DF
:1044CC00DF93E4E6F0E038960E94746C1A93109136
:1044DC000E0408EC011B102F1A9314E61A930E9479
:1044EC001D6CDF91CF911D83CF93DF931D811A93A8
:1044FC0018EB1A930E941D06DF91CF91CF93DF9397
:10450C00E4E6F0E034960E94746C1A9314EB1A9360
:10451C000E941D06DF91CF91CF93DF93E4E6F0E08C
:10452C0035960E94746C1A9315EB1A930E941D0613
:10453C00DF91CF91CF93DF93E4E6F0E036960E94C3
:10454C00746C1A9316EB1A930E941D06DF91CF918F
:10455C00CF93DF93E4E6F0E03C960E94746C1A93E0
:10456C001CEB1A930E941D06DF91CF910C943C23F7
:10457C00CF93DF93E4E6F0E034960E94746C1A93C8
:10458C0010910E041A9314E61A930E941D6CDF917D
:10459C00CF911D83CF93DF931D811A9314EB1A9344
:1045AC000E941D06DF91CF91CF93DF93E4E6F0E0FC
:1045BC0035960E94746C1A9310910E041A9314E69B
:1045CC001A930E941D6CDF91CF911D83CF93DF93C3
:1045DC001D811A9315EB1A930E941D06DF91CF9142
:1045EC00CF93DF93E4E6F0E036960E94746C1A9356
:1045FC0010910E041A9314E61A930E941D6CDF910D
:10460C00CF911D83CF93DF931D811A9316EB1A93D1
:10461C000E941D06DF91CF91CF93DF93E4E6F0E08B
:10462C003C960E94746C1A9310910E041A9314E623
:10463C001A930E941D6CDF91CF911D83CF93DF9352
:10464C001D811A931CEB1A930E941D06DF91CF91CA
:10465C00CF93DF93E4E6F0E038960E94746C1A93E3
:10466C0018EB1A930E941D06DF91CF910895CF93FA
:10467C00DF930E942C17DF91CF91CF93DF930E9491
:10468C00901EDF91CF91CF93DF930E94C316DF91E1
:10469C00CF91CF93DF930E94AC14DF91CF91CF9346
:1046AC00DF930E94C615DF91CF91CF93DF930E94C9
:1046BC000916DF91CF91CF93DF930E94C813DF913E
:1046CC00CF9110E01093AF021FEF1093AE02CF9377
:1046DC00DF930E94231FDF91CF9108950E94C6069D
:1046EC00CF93DF9318E0412A0BEF1BE61A930A9342
:1046FC00EEE0F6EE0E94FC6DDF91CF910E94BF06BA
:10470C0010915404112311F40C94BD2301E010E01A
:10471C0020E030E00093D0041093D1042093D20415
:10472C003093D304E2EAF4E0EF93FF933196FA93DB
:10473C00EA931FE11A9317EF41221FEB4122EBE1A1
:10474C00F6EE0E94FC6D1FE11F9318810F91011B67
:10475C00102FFF91EF91108323960E945608CF9350
:10476C00DF9312E61A930E94ED00DF91CF91109126
:10477C005204112311F40C94F42302E010E020E015
:10478C0030E00093D0041093D1042093D2043093E2
:10479C00D304E2EAF4E0EF93FF933196FA93EA93B1
:1047AC001FE11A9317EF41221FEB4122EDE2F6EEC7
:1047BC000E94FC6D1FE11F9318810F91011B102F9C
:1047CC00FF91EF91108323960E945608CF93DF93AD
:1047DC0010E61A930E94ED00DF91CF9110915304D3
:1047EC00112311F40C942B2403E010E020E030E0B2
:1047FC000093D0041093D1042093D2043093D304AB
:10480C00E2EAF4E0EF93FF933196FA93EA931FE117
:10481C001A9317EF41221FEB4122E0E4F6EE0E94BF
:10482C00FC6D1FE11F9318810F91011B102FFF913D
:10483C00EF91108323960E945608CF93DF9311E6D5
:10484C001A930E94ED00DF91CF9100E010E020E080
:10485C0030E0009318041093190420931A04309339
:10486C001B0410915704112311F40C94662404E0DA
:10487C0010E020E030E00093D0041093D10420939A
:10488C00D2043093D304E2EAF4E0EF93FF93319631
:10489C00FA93EA931FE11A9317EF41221FEB41227F
:1048AC00E3E5F6EE0E94FC6D1FE11F9318810F915A
:1048BC00011B102FFF91EF91108323960E94560835
:1048CC0010915604112311F40C94952405E010E07A
:1048DC0020E030E00093D0041093D1042093D20454
:1048EC003093D304E2EAF4E0EF93FF933196FA931A
:1048FC00EA931FE11A9317EF41221FEB4122E0E6E6
:10490C00F6EE0E94FC6D1FE11F9318810F91011BA5
:10491C00102FFF91EF91108323960E94560810914F
:10492C005104112311F40C94C42406E010E020E08F
:10493C0030E00093D0041093D1042093D204309330
:10494C00D304E2EAF4E0EF93FF933196FA93EA93FF
:10495C001FE11A9317EF41221FEB4122ECE6F6EE12
:10496C000E94FC6D1FE11F9318810F91011B102FEA
:10497C00FF91EF91108323960E94560810915004DA
:10498C00112311F40C94F32407E010E020E030E044
:10499C000093D0041093D1042093D2043093D30409
:1049AC00E2EAF4E0EF93FF933196FA93EA931FE176
:1049BC001A9317EF41221FEB4122E7E7F6EE0E9414
:1049CC00FC6D1FE11F9318810F91011B102FFF919C
:1049DC00EF91108323960E945608109158041123CE
:1049EC0011F40C94222508E010E020E030E0009354
:1049FC00D0041093D1042093D2043093D304E2EA70
:104A0C00F4E0EF93FF933196FA93EA931FE11A9334
:104A1C0017EF41221FEB4122E4E8F6EE0E94FC6DF9
:104A2C001FE11F9318810F91011B102FFF91EF9124
:104A3C00108323960E94560810914F04112311F4F1
:104A4C000C94512509E010E020E030E00093D004F4
:104A5C001093D1042093D2043093D304E2EAF4E00F
:104A6C00EF93FF933196FA93EA931FE11A9317EFA2
:104A7C0041221FEB4122E3E9F6EE0E94FC6D1FE19F
:104A8C001F9318810F91011B102FFF91EF91108331
:104A9C0023960E9456080895CF93DF931FEF1A9325
:104AAC000E948934DF91CF9110E004E60E942B6CB8
:104ABC00CF93DF9310E01A9318E41A930E941D060B
:104ACC00DF91CF9110E004E60E942B6CCF93DF9323
:104ADC000E94C316DF91CF91CF93DF9310E01A930E
:104AEC000E948934DF91CF910895CF93DF9310E02A
:104AFC001A9310E01A9310E01A930E94986ADF91AF
:104B0C00CF91CF93DF9318E0412A02E71AE61A936C
:104B1C000A93E5E7F8EEEF93FF931A81012F112723
:104B2C00AEE0B0E0E89445F80E943471FF91EF914B
:104B3C00E00FF11F0E94FC6DDF91CF9110E00E94FD
:104B4C00B96ACF93DF9310E01A9310E01A9311E037
:104B5C001A930E94986ADF91CF9108952197CF9371
:104B6C00DF9310E01A9310E01A9311E01A930E944D
:104B7C00986ADF91CF9119811E3210E011F008F084
:104B8C001FEF18831881112311F40C94D02519816F
:104B9C0010511983CF93DF9318E0412A02E71AE6EC
:104BAC001A930A93E1EFFCEEEF93FF931B81012F15
:104BBC001127ACE0B0E0E89445F80E943471FF9105
:104BCC00EF91E00FF11F0E94FC6DDF91CF911881E6
:104BDC00112311F40C94FA251BE20E94726A12E460
:104BEC000E94726A0C94FD2510E20E94726A16E013
:104BFC000E94726A10E00E94B96A0895188111230C
:104C0C0011F40C941926CF93DF9318E0412A02E794
:104C1C001AE61A930A93E3EAF6EE0E94FC6DDF9112
:104C2C00CF910C942726CF93DF9318E0412A02E70B
:104C3C001AE61A930A93E7EAF6EE0E94FC6DDF91EE
:104C4C00CF910895E8E0F0E0FA93EA9310E0108336
:104C5C0013E01A931081088101171FEF08F0112738
:104C6C00112311F00C944F265A9A5B9810E004E62D
:104C7C000E942B6C5A985B9A10E004E60E942B6CF5
:104C8C00E981FA81108113951083112311F00C9492
:104C9C00312623965A9A5B9A089510915104112348
:104CAC0011F40C943B2710E00E94B06AE9E5F4E0A3
:104CBC00EF93FF933196FA93EA9318E21A9317EF56
:104CCC0041221FEB41221C81CF93DF931A9312E0F8
:104CDC001A9300E00A9310E21A930E941D6EDF9162
:104CEC00CF9118E21F9318810F91011B102FFF9188
:104CFC00EF9110832396CF93DF9318E0412A02E7BC
:104D0C001AE61A930A93EBEAF6EE0E94FC6DDF9119
:104D1C00CF9119811F9318810F91011710E009F0A1
:104D2C001FEF112311F40C94AC26CF93DF9318E0F2
:104D3C00412A02E71AE61A930A93E9E5F4E00E9485
:104D4C00056EDF91CF9110E20E94726ACF93DF93D0
:104D5C0018E0412A02E71AE61A930A93E2EBF6EE00
:104D6C000E94FC6DDF91CF91CF93DF9310E01A93EB
:104D7C0010E01A9311E01A930E94986ADF91CF9178
:104D8C00CF93DF9318E0412A02E71AE61A930A93AD
:104D9C00E5EBF6EE0E94FC6DDF91CF91E9E5F4E0D6
:104DAC00EF93FF933196FA93EA9318E21A9317EF65
:104DBC0041221FEB41221B81CF93DF931A9312E008
:104DCC001A9300E00A9310E21A930E941D6EDF9171
:104DDC00CF9118E21F9318810F91011B102FFF9197
:104DEC00EF9110832396CF93DF9310E01A9316E084
:104DFC001A9311E01A930E94986ADF91CF91CF9386
:104E0C00DF9318E0412A02E71AE61A930A93E9E5C0
:104E1C00F4E00E94056EDF91CF911091A403103045
:104E2C0010E009F41FEF112311F40C942D27CF93EC
:104E3C00DF9318E0412A02E71AE61A930A93ECEB87
:104E4C00F6EE0E94FC6DDF91CF910C943B27CF9333
:104E5C00DF9318E0412A02E71AE61A930A93E3EC6F
:104E6C00F6EE0E94FC6DDF91CF910E9428260895EA
:104E7C0010915104112311F40C946F2710E00E942F
:104E8C00B06ACF93DF9318E0412A02E71AE61A932F
:104E9C000A93EAECF6EE0E94FC6DDF91CF91CF9372
:104EAC00DF9310E01A9310E01A9311E01A930E940A
:104EBC00986ADF91CF91CF93DF9318E0412A02E7F4
:104ECC001AE61A930A93ECEDF6EE0E94FC6DDF9154
:104EDC00CF910E942826089510915104109511230A
:104EEC0011F40C947B270C94D227CF93DF9310E012
:104EFC001A930E947B25DF91CF911881112311F415
:104F0C000C94BB27CF93DF9318E0412A02E71AE6F3
:104F1C001A930A93EBEEF6EE0E94FC6DDF91CF91A3
:104F2C001981112311F40C94AB27CF93DF9318E064
:104F3C00412A02E71AE61A930A93E0EFF6EE0E9472
:104F4C00FC6DDF91CF910C94B927CF93DF9318E0D0
:104F5C00412A02E71AE61A930A93E5EFF6EE0E944D
:104F6C00FC6DDF91CF910C94C927CF93DF9318E0A0
:104F7C00412A02E71AE61A930A93EAEFF6EE0E9428
:104F8C00FC6DDF91CF9110E00E94B96A16E9109385
:104F9C00330210E0109341020895CF93DF931881F0
:104FAC001A930E940426DF91CF9116E00E94726A38
:104FBC0010E00E94B96A0895CF93DF9318E0412A5C
:104FCC0002E71AE61A930A931A81CF93DF931A9386
:104FDC0013E01A9300E00A9310E21A93689443F8D2
:104FEC000E941D6EDF91CF91DF91CF9116E00E9450
:104FFC00726A10E00E94B96A0895CF93DF9318E0AB
:10500C00412A02E71AE61A930A930A811B81CF936D
:10501C00DF931A930A9313E01A9300E00A9310E2B9
:10502C001A93689443F8689445F8E89454F855F842
:10503C000E945670DF91CF91DF91CF9116E00E94C4
:10504C00726A10E00E94B96A0895CF93DF930091C1
:10505C00AC03112700FD1FEF1A930E940426DF9169
:10506C00CF910091AC03112700FD1FEF1095112378
:10507C0011F40C94462810E00E94B96A0C94BE28D6
:10508C0010E20E94726A0091AC03112701FD1FEF20
:10509C00112311F40C946228CF93DF9318E0412A6A
:1050AC0002E71AE61A930A93EFEFF6EE0E94FC6DF4
:1050BC00DF91CF910C947028CF93DF9318E0412AA5
:1050CC0002E71AE61A930A93E4E0F7EE0E94FC6DED
:1050DC00DF91CF910091AC03112702FD1FEF11233B
:1050EC0011F40C948928CF93DF9318E0412A02E73E
:1050FC001AE61A930A93E9E0F7EE0E94FC6DDF9131
:10510C00CF910C949728CF93DF9318E0412A02E7B4
:10511C001AE61A930A93EEE0F7EE0E94FC6DDF910B
:10512C00CF910091AC03112703FD1FEF112311F454
:10513C000C94B028CF93DF9318E0412A02E71AE6CB
:10514C001A930A93E3E1F7EE0E94FC6DDF91CF9185
:10515C000C94BE28CF93DF9318E0412A02E71AE69D
:10516C001A930A93E6E1F7EE0E94FC6DDF91CF9162
:10517C0008952197CF93DF930091AC03112704FD81
:10518C001FEF1A930E940426DF91CF9110E20E9428
:10519C00726ACF93DF930091AC03112705FD1FEFCB
:1051AC001A930E940426DF91CF9110E20E94726A3A
:1051BC001091CD031170113010E009F41FEF112381
:1051CC0011F40C94EE2813E40E94726A0C94F128EA
:1051DC0016E50E94726A1091CD0316951F5C188318
:1051EC0018810E94726A10E00E94B96A0895219792
:1051FC0019811170113010E009F41FEF112311F413
:10520C000C945329198116951983E8E0F0E0FA9370
:10521C00EA9310E01083EF93FF931B81FF91EF91C2
:10522C001A931081088101171FEF08F01127112321
:10523C0011F00C942D2910E00E94726AE981FA8118
:10524C00108113951083112311F00C9418292396B7
:10525C00E8E0F0E0FA93EA93EF93FF931B81FF9160
:10526C00EF91108316E01A931081088101171FEF3C
:10527C0008F01127112311F00C94502917E00E940B
:10528C00726AE981FA81108113951083112311F050
:10529C000C943B2923960C949F29198116951983FC
:1052AC00E8E0F0E0FA93EA9311E01083EF93FF93B8
:1052BC001B81FF91EF911A931081088101171FEF49
:1052CC0008F01127112311F00C94782910E00E949A
:1052DC00726AE981FA81108113951083112311F000
:1052EC000C946329239611E00E94726AE8E0F0E0C6
:1052FC00FA93EA93EF93FF931B81FF91EF91108345
:10530C0016E01A931081088101171FEF08F011277E
:10531C00112311F00C949E2917E00E94726AE98106
:10532C00FA81108113951083112311F00C948929A3
:10533C00239612E00E94726A16E00E94726A10E0D4
:10534C000E94B96ACF93DF9310E01A931AE01A9374
:10535C0011E01A930E94986ADF91CF910895CF9330
:10536C00DF931881195F1A9310E11A9310EF1A93B7
:10537C000E941D6CDF91CF9108952297CF93DF93FC
:10538C0010E01A9310E01A9310E01A930E94986A96
:10539C00DF91CF91CF93DF9318E0412A02E71AE611
:1053AC001A930A9310912F04CF93DF931A9312E060
:1053BC001A9300E00A9310E21A93689443F80E943F
:1053CC001D6EDF91CF91DF91CF9110E20E94726A36
:1053DC00CF93DF9310E01A9312E01A9310E01A9314
:1053EC000E94986ADF91CF911091A403103010E0C5
:1053FC0009F41FEF112311F40C94092A16E00E94F2
:10540C00726A0C940C2A10E20E94726ACF93DF939A
:10541C0018E0412A02E71AE61A930A93E9E1F7EE3B
:10542C000E94FC6DDF91CF91E8E0F0E0FA93EA93F3
:10543C0010E0108318E01A931081088101171FEFF8
:10544C0008F01127112311F00C944F2ACF93DF93FE
:10545C00E4ECF3E0EF93FF93182D012F1127FF914C
:10546C00EF91E00FF11F11911A930E94B529DF9172
:10547C00CF911B831B81105D1C831C810E94726A5F
:10548C00E981FA81108113951083112311F00C948A
:10549C00232A2396CF93DF9310E01A9310E01A93EC
:1054AC0011E01A930E94986ADF91CF91CF93DF930A
:1054BC0018E0412A02E71AE61A930A931091300475
:1054CC00CF93DF931A9312E01A9300E00A9310E241
:1054DC001A93689443F80E941D6EDF91CF91DF916F
:1054EC00CF9110E20E94726ACF93DF9310E01A936F
:1054FC0012E01A9311E01A930E94986ADF91CF91EF
:10550C001091A403103010E009F41FEF112311F4D3
:10551C000C94952A10E20E94726A0C94982A16E058
:10552C000E94726A10E50E94726ACF93DF93109109
:10553C00DC031A930E94B529DF91CF91188318814F
:10554C00105D198319810E94726ACF93DF931091B9
:10555C00DE031A930E94B529DF91CF91188318812D
:10556C00105D198319810E94726A1CE40E94726A90
:10557C00E8E0F0E0FA93EA9310E0108318E01A9355
:10558C001081088101171FEF08F01127112311F06A
:10559C000C94F32ACF93DF93E3EDF3E0EF93FF93B7
:1055AC00182D012F1127FF91EF91E00FF11F119191
:1055BC001A930E94B529DF91CF911B831B81105D3B
:1055CC001C831C810E94726AE981FA8110811395F7
:1055DC001083112311F00C94C72A23960895269753
:1055EC001985163910E008F01FEF112311F40C94F3
:1055FC00052B10E00AE01D830C830C94272B1985D6
:10560C00103510E008F01FEF112311F40C94142B3B
:10561C0010E005E01D830C830C94272B19851832A0
:10562C0010E008F01FEF112311F40C94232B10E061
:10563C0002E01D830C830C94272B10E001E01D83EA
:10564C000C83FE01EF93FF931E81FF91EF91119359
:10565C001E811F3710E011F008F01FEF112311F419
:10566C000C943E2BFE0131961FEF11930C94422BA0
:10567C00FE01319610E01193088119810F931F934D
:10568C000C811D81689445F8BF91AF910E943471D3
:10569C00198308831985012F11270F931F930881F4
:1056AC0019813F912F91020F131F1B830A830A81CB
:1056BC001B810F931F930C811D81689445F8BF913A
:1056CC00AF910E9455710F931F930C811D816894AB
:1056DC0045F8BF91AF910E9434711B830A830A81F4
:1056EC001B811A930A931A85012F11271A930A9377
:1056FC001B85012F11271A930A930E940F7226966D
:10570C00102F0895CF93DF9310E01A931FE01A9394
:10571C0010E01A930E94986ADF91CF911A811F931F
:10572C0018810F9101171FEF08F01127112311F4A5
:10573C000C94A52B13E00E94726A0C94A82B10E217
:10574C000E94726ACF93DF9310E01A931FE01A93B2
:10575C0011E01A930E94986ADF91CF911A811F93DE
:10576C0019810F91011710E011F008F01FEF1123B0
:10577C0011F40C94C62B14E00E94726A0C94C92B81
:10578C0010E20E94726A0895229710E00E94CA6A81
:10579C00176C10933A020A811B81103009F4003007
:1057AC0010E011F008F01FEF112311F40C94E22B10
:1057BC000A811B810E942B6C10913A021F3F10E052
:1057CC0009F41FEF112311F40C94F12B10E00C943D
:1057DC00F42B0C94F42B1FEF0C94F42B08952297BC
:1057EC0010913D0219831981188319811F9310910F
:1057FC003C020F91011B102F1983188110933C024E
:10580C0019810895CF93DF9310E01A931EE01A9339
:10581C0010E01A930E94986ADF91CF91188111239E
:10582C0011F40C941E2C1AE20E94726A0C94212C16
:10583C0010E20E94726A08952897109151041095F5
:10584C001F931985103010E009F41FEF0F91102BE6
:10585C00112311F40C94342C0C94E931188510306C
:10586C0010E009F01FEF1883E3E2F8EEEF93FF93DB
:10587C001985012F1127FF91EF91E00FF11F149162
:10588C001D831D81113010E009F41FEF1983198558
:10589C001D3010E009F41FEF112311F40C94712C3E
:1058AC00CF93DF9310912F041A9310E01A931FE0FB
:1058BC001A931B851A930E94F52ADF91CF911093AE
:1058CC002F04CF93DF930E94C329DF91CF910C94C7
:1058DC00E9310C94932C19851E3010E009F41FEF5C
:1058EC00112311F40C94932CCF93DF93109130046B
:1058FC001A9310E01A931FE01A931B851A930E94B7
:10590C00F52ADF91CF9110933004CF93DF930E944F
:10591C00C329DF91CF910C94E931CF93DF93198593
:10592C001A930E947B25DF91CF911FEF1C83E3EC30
:10593C00F3E0EF93FF931985012F1127FF91EF915E
:10594C00E00FF11F11911F8310E01B83198511309B
:10595C0010F40C94B82C193019F010F00C94B82CDD
:10596C000C94C12C103110F40C94012D1B3119F036
:10597C0010F00C94012D1F811695169516951F830A
:10598C00CF93DF931F811A9310E01A931FE01A93A1
:10599C001B851A930E94F52ADF91CF911F83CF9319
:1059AC00DF931F811A930E94FD28DF91CF91CF9333
:1059BC00DF931F811A9310E01A931FE01A930E9431
:1059CC00882BDF91CF91E3ECF3E0EF93FF931985F4
:1059DC00012F1127FF91EF91E00FF11FEF93FF9330
:1059EC001F81110F110F110FFF91EF9111931FEFE9
:1059FC001B830C948F2F1A3011F00C94492DCF93DC
:105A0C00DF931F811A9310E01A931F811A931B8541
:105A1C001A930E94F52ADF91CF911093CD03CF9367
:105A2C00DF930E94BF28DF91CF91CF93DF9310E0DB
:105A3C001A931FE01A9310E01A930E94986ADF9150
:105A4C00CF9110E20E94726ACF93DF9310E01A9309
:105A5C001AE01A9311E01A930E94986ADF91CF9181
:105A6C0016E00E94726ACF93DF931F811A9310E0A5
:105A7C001A931F811A930E94882BDF91CF911FEFED
:105A8C001B830C948F2F1B3011F00C94812D1881DB
:105A9C00112311F40C94612D0091AC03112704FD1A
:105AAC001FEF1095E894112309F068941091AC0342
:105ABC0014F91093AC030091AC03112704FD1FEFF4
:105ACC001093CE03CF93DF930E94BF28DF91CF9129
:105ADC00CF93DF9310E01A9313E01A9311E01A930B
:105AEC000E94986ADF91CF9116E00E94726A1FEFB4
:105AFC001B830C948F2F1C3011F00C94ED2D1091F6
:105B0C00AC031F701F831F81012F11E00695111F1D
:105B1C00E8F716951695169516951F83CF93DF9378
:105B2C001F811A9317E01A931FE01A931B851A937F
:105B3C000E94F52ADF91CF911F831F811E831F8145
:105B4C00012F11E00695111FE8F71695169516957D
