:10007C0010B11370B12E1B2D1F931C2D0F91011756
:10008C0010E009F01FEF112311F40C9481001B2DCB
:10009C00103010E009F41FEF112311F40C947D00C3
:1000AC001D2D133010E009F41FEF112311F40C94E3
:1000BC007D001C2D113010E009F41FEF112311F4F9
:1000CC000C946F0010913D02139510933D020C940B
:1000DC007D001C2D123010E009F41FEF112311F4D8
:1000EC000C947D0010913D021A9510933D021C2D2D
:1000FC00D12E1B2DC12E089510E015BF10E01093CA
:10010C00690010E01DBB10E01093680010E0109324
:10011C00600010E01093610010E014BF1124F894FB
:10012C00A8951FBACFEFD0E1DEBBCDBB11E0A0E0AC
:10013C00B1E0ECEFFFEF02C005900D92A230B107D9
:10014C00D9F712E0A2E0B1E001C01D92AD30B107C9
:10015C00E1F70E94B300F894FFCF14BEA8958091EC
:10016C0060008861809360001092600005B7102FCA
:10017C00016005BF12E015BF0C945A7D08951091D3
:10018C00380213951093380210913802183010E091
:10019C0009F41FEF112311F40C94DC0010E0109300
:1001AC003802109139021095109339020895188174
:1001BC001F9316E11F93E89440F8E7E1F4E0A4E004
:1001CC00B0E03F914F9150E00E94906B089500E099
:1001DC0010E020E030E000931704109318042093F3
:1001EC00190430931A04CF93DF9318811A930E9449
:1001FC00DD00DF91CF9118811F9312E01F93E894DB
:10020C0040F8E6E1F0E03F914F91A1E0B0E060E012
:10021C0050E00E94906B18811F9313E01F93E89499
:10022C0040F8E6E1F0E03F914F91A1E0B0E068E2E8
:10023C0050E00E94906B18811F9314E01F93E89478
:10024C0040F8E6E1F0E03F914F91A1E0B0E064E1CD
:10025C0050E00E94906B18811F9315E01F93E89457
:10026C0040F8E6E1F0E03F914F91A1E0B0E060E8AA
:10027C0050E00E94906B00E010E020E030E0009332
:10028C001704109318042093190430931A04CF9375
:10029C00DF9318811A930E94DD00DF91CF910895AE
:1002AC0016E9109333025A9808951AE0109333020A
:1002BC005A980895219710E51F9309811A811F936D
:1002CC00E89440F809811A81102FE6E1F0E0612FE3
:1002DC00A1E0B0E03F914F9150E00E94906B10E58F
:1002EC001F93FE01A1E0B0E04F910E946D6B18814D
:1002FC000895CF93DF9310E51A930A811B811A930B
:10030C000A93FE0133968F011A930A9310E001E0D1
:10031C001A930A930E94866BDF91CF9110E007E04D
:10032C000E94206C08952297CF93DF9310E51A93C7
:10033C000F8118851A930A93FE0135968F011A9333
:10034C000A9310E004E01A930A930E94866BDF91E3
:10035C00CF9110E007E00E94206C08952B9713E9D1
:10036C0010937A0011E00E942F6C13EC10937A001A
:10037C0010917A001071103010E009F01FEF11236A
:10038C0011F40C94BE0113E810937A001C851B30F9
:10039C0010E009F41FEF112311F40C94D90113E0B0
:1003AC0018830C94E2011C85E5E8F2E01F7100272C
:1003BC00E10FF01F108118831881012F11271E8364
:1003CC000D830D811E81015010401C830B831C85F5
:1003DC00E5E6F2E01F710027E10FF01F1081012FFD
:1003EC00112718870F8310917900012F11270F9374
:1003FC001F930B811C81019509F41A9510953F915F
:10040C002F91020F131F1A87098709851A850F93DD
:10041C001F930F8118850F931F930D811E813F91A0
:10042C002F91020F131F98011F910F91A0E81A270B
:10043C003A27131709F4021710E011F008F01FEF18
:10044C001F9309851A850F931F930F8118850F939E
:10045C001F930B811C81019509F41A9510953F91FE
:10046C002F91020F131F98011F910F91A0E81A27CB
:10047C003A27131709F402171FEF08F011270F91F1
:10048C00102B112311F40C94720212E319831C85A6
:10049C001F931981E5ECF2E0AF91AF71BB27EA0F26
:1004AC00FB1F10831C851F931B85E5EAF2E0AF91BF
:1004BC00AF71BB27EA0FFB1F10831C851F9313E042
:1004CC00E5E8F2E0AF91AF71BB27EA0FFB1F108399
:1004DC001FEF1A830C947D021C85E5ECF2E01F7172
:1004EC000027E10FF01F1081198310E01A83198186
:1004FC00103010E009F41FEF112311F40C94930247
:10050C001C851F9317E0E5E8F2E0AF91AF71BB27B4
:10051C00EA0FFB1F10830C94C2021A81112311F4F1
:10052C000C94C20209851A85A0E81A27103809F420
:10053C0002301FEF08F01127112311F40C94AA02BA
:10054C0010E000E01A8709871C851F931B85E5EADC
:10055C00F2E0AF91AF71BB27EA0FFB1F10831C8534
:10056C001F9309851A85102FE5E6F2E0AF91AF7164
:10057C00BB27EA0FFB1F108308952297149A159836
:10058C00169A1BB11F7810631BB9CF93DF931BE036
:10059C001A931FEF1A930E94B401DF91CF9110911F
:1005AC003802103011F00C9413031498159A169A03
:1005BC001BB11F78712EFE013196FA93EA9310E06D
:1005CC00108317E01A931081088101171FEF08F0B0
:1005DC001127112311F00C941003172D1F931C815C
:1005EC00110F110F110F110F0F91102B1BB9CF936E
:1005FC00DF931C811A931E811A930E94B401DF9120
:10060C00CF91E981FA81108113951083112311F098
:10061C000C94EA0223960C940D04113011F00C94F6
:10062C008503149A1598169A1BB11F78712EFE012A
:10063C003196FA93EA9318E010831AE01A9310811A
:10064C00088101171FEF08F01127112311F00C94EA
:10065C004F031C811850912E172D1F93192D110F1C
:10066C00110F110F110F0F91102B1BB9CF93DF939B
:10067C001C811A931E811A930E94B401DF91CF91B1
:10068C00E981FA81108113951083112311F00C94D8
:10069C0026032396FE013196FA93EA931CE010830D
:1006AC001FE01A931081088101171FEF08F0112722
:1006BC00112311F00C9482031C811850912E172DCC
:1006CC001F93192D110F110F110F110F0F91102BCB
:1006DC001BB9CF93DF931C811A931E811A930E942E
:1006EC00B401DF91CF91E981FA81108113951083C8
:1006FC00112311F00C94590323960C940D04123011
:10070C0011F00C94C403149A159A16981BB11F7807
:10071C00712EFE013196FA93EA9310E1108317E1E2
:10072C001A931081088101171FEF08F0112711236C
:10073C0011F00C94C1031C811051912E172D1F9395
:10074C00192D110F110F110F110F0F91102B1BB928
:10075C00CF93DF931C811A931E811A930E94B401CC
:10076C00DF91CF91E981FA811081139510831123C8
:10077C0011F00C94980323960C940D04133011F083
:10078C000C940D041FEF00913502002309F0109515
:10079C00112311F40C940B0419E110933502FE0192
:1007AC003196FA93EA9310E0108317E11A931081B3
:1007BC00088101171FEF08F01127112311F00C9479
:1007CC000A041C81E5ECF2E01F710027E10FF01F19
:1007DC001081712E112770E0771510F47A941FEFA9
:1007EC001C811F93172DE5ECF2E0AF91AF71BB2785
:1007FC00EA0FFB1F1083E981FA8110811395108396
:10080C00112311F00C94DE0323960C940D0408951F
:10081C001091F6042B981EBD1DB517FFFDCF1EB50C
:10082C001093F7042B9A08951091F3042B981EBD86
:10083C001DB517FFFDCF1EB51093F5041091F204F2
:10084C001EBD1DB517FFFDCF1EB51093F4042B9ADA
:10085C0008951091E9042B981EBD1DB517FFFDCF0F
:10086C001EB51093ED041091E8041EBD1DB517FFC5
:10087C00FDCF1EB51093EC041091E7041EBD1DB501
:10088C0017FFFDCF1EB51093EB041091E6041EBDAF
:10089C001DB517FFFDCF1EB51093EA042B9A0895D2
:1008AC001091E40429981EBD1DB517FFFDCF1091C2
:1008BC00E3041EBD1DB517FFFDCF299A08951091B5
:1008CC00F9041EBD1DB517FFFDCF1EB51093FA041C
:1008DC000895289815E01093F9040E9465040E946D
:1008EC006504289A1091FA040895289815E010933D
:1008FC00F9040E9465040E9465041091FA041170B9
:10090C00103010E009F41FEF112311F40C94810442
:10091C00289A0895289816E01093F9040E9465040B
:10092C00289A08950E949004289811E01093F904D5
:10093C000E94650410E01093F9040E946504289A43
:10094C000E947B0408950E949004289811E0109353
:10095C00F9040E9465041FE31093F9040E946504D6
:10096C00289A0E947B0408950E94900428983B8149
:10097C002A81198108810093FB041093FC042093B5
:10098C00FD043093FE0410E21093F9040E946504F8
:10099C001091FD041093F9040E9465041091FC045D
:1009AC001093F9040E9465041091FB041093F90450
:1009BC000E946504289A0E947B041091FA0410721C
:1009CC00103010E009F01FEFE894112309F068943F
:1009DC001091DA0412F91093DA040091DA04112759
:1009EC0002FD1FEF109508950E949004289817ECB3
:1009FC001093F9040E946504289A0E947B041091BC
:100A0C00FA041072103010E009F01FEFE894112373
:100A1C0009F068941091DA0412F91093DA04009139
:100A2C00DA04112702FD1FEF109508952197098113
:100A3C001A8101501040102F18830E94900428989E
:100A4C003E812D811C810B810093FB041093FC04CF
:100A5C002093FD043093FE0412E01093F9040E94DD
:100A6C0065041091FD041093F9040E946504109123
:100A7C00FC041093F9040E9465041091FB0410937C
:100A8C00F9040E946504E7E0F0E0FA93EA9310E0C1
:100A9C001083EF93FF931A81FF91EF911A931081BA
:100AAC00088101171FEF08F01127112311F00C9486
:100ABC007405172DE0E0FFE01F7F0027E10FF01F0A
:100ACC0010811093F9040E946504E981FA81108168
:100ADC0013951083112311F00C9456052396289A24
:100AEC000E947B041091FA041072103010E009F08F
:100AFC001FEFE894112309F068941091DA0412F9AD
:100B0C001093DA040091DA04112702FD1FEF1095FF
:100B1C00089521970E947B040A811B81015010408B
:100B2C00102F18833F812E811D810C810093FB04B3
:100B3C001093FC042093FD043093FE0428981BE0D2
:100B4C001093F9040E9465041091FD041093F904AC
:100B5C000E9465041091FC041093F9040E94650432
:100B6C001091FB041093F9040E94650410E010939B
:100B7C00F9040E946504E7E0F0E0FA93EA9310E0D0
:100B8C001083EF93FF931A81FF91EF911A931081C9
:100B9C00088101171FEF08F01127112311F00C9495
:100BAC0001060E9465041C81112311F40C94EC05C0
:100BBC00172D1F931091FA04E0E0FEE0AF91AF7F88
:100BCC00BB27EA0FFB1F10830C94F805172D1F93FE
:100BDC001091FA04E0E0FFE0AF91AF7FBB27EA0F82
:100BEC00FB1F1083E981FA81108113951083112367
:100BFC0011F00C94CE052396289A0895E3EEF4E0B8
:100C0C00EF93FF931881FF91EF911193E4EEF4E0D1
:100C1C0010E011930E9456040E942F040091EA04E4
:100C2C001091EB042091EC043091ED040895E3EE67
:100C3C00F4E0EF93FF931881FF91EF911193E4EEA1
:100C4C00F4E010E811930E945604E2EFF4E0EF9305
:100C5C00FF931981FF91EF911193E3EFF4E010E012
:100C6C0011930E941A040895E3EEF4E0EF93FF93BE
:100C7C001881FF91EF911193E4EEF4E010E81193D9
:100C8C000E94560409811A810093F2041093F30414
:100C9C000E941A040895E3EEF4E0EF93FF93188199
:100CAC00FF91EF911193E4EEF4E010E811930E94A0
:100CBC0056043C812B811A8109810093E604109320
:100CCC00E7042093E8043093E9040E942F0408956C
:100CDC00CF93DF9310EF1A930E940406DF91CF910C
:100CEC000093CF041093D0042093D1043093D204FA
:100CFC00E8E0F0E00E94776C0093CF041093D004EE
:100D0C002093D1043093D204CF93DF930091CF047E
:100D1C001091D0042091D1043091D2043A932A93AB
:100D2C001A930A9310EF1A930E945106DF91CF91F8
:100D3C00ECE0F0E00E94776C0093CF041093D004A9
:100D4C002093D1043093D204CF93DF930091CF043E
:100D5C001091D0042091D1043091D2043A932A936B
:100D6C001A930A9311EF1A930E945106DF91CF91B7
:100D7C0008951DE00E94F06B1AE00E94F06B08953C
:100D8C0013E20E94F06B10914202105D0E94F06B16
:100D9C001AE30E94F06BCF93DF9318E0412A00EF27
:100DAC001BE61A930A930091C8041091C904CF93BF
:100DBC00DF931A930A9310E01A9310E01A9310E23F
:100DCC001A93689443F8689445F8E89454F855F8E5
:100DDC000E944B70DF91CF91DF91CF911DE30E9468
:100DEC00F06B0895CF93DF9318E0412A00EF1BE6D8
:100DFC001A930A93E1E8F4E00E94FA6DDF91CF9127
:100E0C000E94BF060895229710E00FEF0093C804CC
:100E1C001093C9040E94C6061A81103010E009F024
:100E2C001FEF112311F40C941E071DE20E94F06BAE
:100E3C00CF93DF9318E0412A00EF1BE61A930A9335
:100E4C001C81CF93DF931A9310E01A9310E01A933E
:100E5C0010E21A93689443F80E94126EDF91CF91BE
:100E6C00DF91CF9110E20E94F06BCF93DF9318E0EB
:100E7C00412A00EF1BE61A930A93EBE8F7EEEF9387
:100E8C00FF931C81012F1127ADE0B0E0E89445F8E9
:100E9C000E942971FF91EF91E00FF11F0E94F16DFB
:100EAC00DF91CF910E94BF0608950E94C606CF9392
:100EBC00DF9318E0412A00EF1BE61A930A93E8E54A
:100ECC00F4E00E94FA6DDF91CF910E94BF06089565
:100EDC00E8E5F4E0EF93FF933196FA93EA9318E286
:100EEC001A9317EF41221FEB41220091CF0410916E
:100EFC00D0042091D1043091D204CF93DF933A9354
:100F0C002A931A930A9310E01A9310E01A9310E2A2
:100F1C001A93689445F8E89454F855F842F80E94EE
:100F2C00526EDF91CF9118E21F9318810F91011B24
:100F3C00102FFF91EF91108323960E945B07089569
:100F4C000091CC041091CD0417FF03C03FEF2FEF9D
:100F5C0002C0332722270093CF041093D004209390
:100F6C00D1043093D2040E946E0708951091D504D9
:100F7C00012F11270093CC041093CD040E94A607D7
:100F8C0008950E94C606E8E5F4E0EF93FF933196CE
:100F9C00FA93EA9318E21A9317EF41221FEB4122BE
:100FAC000091CF041091D0042091D1043091D2043F
:100FBC00CF93DF933A932A931A930A9310E01A93E0
:100FCC0010E01A9310E21A93689445F8E89454F8D8
:100FDC0055F842F80E94526EDF91CF9118E21F93A0
:100FEC0018810F91011B102FFF91EF911083239605
:100FFC00CF93DF9318E0412A00EF1BE61A930A9374
:10100C00E8E5F4E00E94FA6DDF91CF9110E20E94C6
:10101C00F06B1BE50E94F06B14E20E94F06BE8E5AC
:10102C00F4E0EF93FF933196FA93EA9318E21A9354
:10103C0017EF41221FEB41220091CF041091D004F5
:10104C002091D1043091D204B801C901492F0E94DA
:10105C00BA70482F0E94BA70472F0E94BA70462F60
:10106C000E94BA7018E21F9318810F91011B102F68
:10107C00FF91EF9110832396CF93DF9318E0412AD1
:10108C0000EF1BE61A930A93E8E5F4E00E94FA6D70
:10109C00DF91CF911DE50E94F06B0E94BF06089571
:1010AC000E94C606E8E5F4E0EF93FF933196FA93BD
:1010BC00EA9318E21A9317EF41221FEB4122009199
:1010CC00CF041091D0042091D1043091D204CF934D
:1010DC00DF933A932A931A930A9310E01A9310E031
:1010EC001A9310E21A93689445F8E89454F855F85A
:1010FC0042F80E94526EDF91CF9118E21F93188133
:10110C000F91011B102FFF91EF9110832396CF931A
:10111C00DF9318E0412A00EF1BE61A930A93E8E5E7
:10112C00F4E00E94FA6DDF91CF91CF93DF9318E03A
:10113C00412A00EF1BE61A930A93E9E6F4EE0E94AB
:10114C00F16DDF91CF91CF93DF9318E0412A00EF3F
:10115C001BE61A930A93E1EAF4E00E94FA6DDF9120
:10116C00CF911DE50E94F06B0E94BF0608951AEF07
:10117C00109334021AEF1093330210913E02109325
:10118C00400210E01093410208950E946F041F7EEC
:10119C00103010E009F01FEF112311F40C94F1083A
:1011AC000E94C606CF93DF9318E0412A00EF1BE69E
:1011BC001A930A93ECE6F4EE0E94F16D1DE00E9486
:1011CC00C7701AE00E94C770DF91CF911FEF0C948B
:1011DC00F4080C94F40810E00C94F4080895229789
:1011EC001AE314B91FE915B91091DA041B7F109397
:1011FC00DA04469815E00E942F6C469A10E0198389
:10120C0010E00AE00E94206CFE01319610811395CB
:10121C001083112737991FEF1F931981143610E093
:10122C0011F008F01FEF0F91102B112311F40C94F7
:10123C0006091BEB14B91FE915B916E206EB00936E
:10124C00C8041093C9040E94C606112737991FEFD2
:10125C00112311F40C94CD09CF93DF9313E01A935F
:10126C000E940406DF91CF911091EA041093F004D0
:10127C001091EB041093F1041091EC041093EF0413
:10128C001091ED041093EE040091EE041091EF0414
:10129C002091F0043091F10440E83427303A29F4DD
:1012AC00243119F4173009F400321FEF08F011271C
:1012BC0018831881112311F40C947409CF93DF93C4
:1012CC0018E0412A00EF1BE61A930A93EEE7F4EEBE
:1012DC000E94F16DDF91CF910C948209CF93DF9333
:1012EC0018E0412A00EF1BE61A930A93EBE8F4EEA0
:1012FC000E94F16DDF91CF91CF93DF9318E0412ADB
:10130C0000EF1BE61A930A930091EA041091EB0488
:10131C002091EC043091ED04689443F8B801C901B4
:10132C00492F0E94BA70482F0E94BA70472F0E9412
:10133C00BA70462F0E94BA70DF91CF911881112399
:10134C0011F40C94B909CF93DF9318E0412A00EF04
:10135C001BE61A930A93E6E9F4EE0E94F16DDF9115
:10136C00CF910C94C709CF93DF9318E0412A00EF7B
:10137C001BE61A930A93E4EAF4EE0E94F16DDF91F6
:10138C00CF910E94BF060E946E060C94E309CF9386
:10139C00DF9318E0412A00EF1BE61A930A93E9EA5F
:1013AC00F4EE0E94F16DDF91CF911091DA0414608C
:1013BC001093DA040E94BF06469808952497CF93A1
:1013CC00DF930E94F508DF91CF911091DA04103071
:1013DC0010E009F01FEF112311F40C942E0AA091C8
:1013EC00DB04B091DC041196A093DB04B093DC0415
:1013FC0010915004112311F40C94240ACF93DF9311
:10140C0010E01A9310E01A9311E01A930E948D6A5F
:10141C00DF91CF91CF93DF9318E0412A07E61AE6CC
:10142C001A930A93E5ECF4EE0E94F16DDF91CF91E3
:10143C0011E004EF0E94206C0E94BD08CF93DF9353
:10144C0017E01A930E949A34DF91CF910C94050BFC
:10145C001FEF1093E50410915004112311F40C9418
:10146C00890ACF93DF9313E01A930E940406DF914D
:10147C00CF910091EA041091EB042091EC0430918F
:10148C00ED043B832A8319830883CF93DF9310E009
:10149C001A9310E01A9311E01A930E948D6ADF914F
:1014AC00CF91CF93DF9318E0412A07E61AE61A93FF
:1014BC000A93E3EDF4EE0E94F16DDF91CF91CF939F
:1014CC00DF9318E0412A07E61AE61A930A933D8146
:1014DC002C811B810A81689443F8B801C901492FFA
:1014EC000E94BA70482F0E94BA70472F0E94BA709F
:1014FC00462F0E94BA70DF91CF9111E004EF0E9449
:10150C00206C0E94BD0811271A991FEF109511230A
:10151C0011F40C94050BE8E0F0E0FA93EA9310E078
:10152C0010831FEF1A931081088101171FEF08F029
:10153C001127112311F00C94BC0ACF93DF9312E006
:10154C001A930E940406DF91CF91CF93DF9312E0A0
:10155C001A930E940406DF91CF91E981FA811081E0
:10156C0013951083112311F00C949A0A23961127CA
:10157C001A991FEF1095112311F40C94050B10E020
:10158C001093E50410E00FEF0093C8041093C90406
:10159C0002E110E020E030E00093CF041093D0047F
:1015AC002093D1043093D204E1EAF4E0EF93FF935B
:1015BC003196FA93EA931FE11A9317EF41221FEB2E
:1015CC004122EAEDF4EE0E94F16D1FE11F931881A8
:1015DC000F91011B102FFF91EF91108323960E9406
:1015EC005608CF93DF9319E01A930E949A34DF9137
:1015FC00CF9111E004EF0E94206C0E94BD08089569
:10160C00E4EEF4E010E81193E3EEF4E0EF93FF93D3
:10161C001091FF041F5FFF91EF9111930E945604EC
:10162C00109100051093F6040E940E04E3EEF4E012
:10163C001091FF0411930E9456040895E4EEF4E017
:10164C0010E81193E3EEF4E0EF93FF931091FF0495
:10165C001F5FFF91EF9111930E94560410910005AA
:10166C001093F6040E940E04089510915004112357
:10167C0011F40C94710B10E00E94A56ACF93DF93C8
:10168C0018E0412A07E61AE61A930A93E8EEF4EEFC
:10169C000E94F16DDF91CF91CF93DF9310E01A93FD
:1016AC0010E01A9311E01A930E948D6ADF91CF918A
:1016BC00CF93DF9318E0412A07E61AE61A930A93B0
:1016CC00E1EFF4EE0E94F16DDF91CF9110E00E94FA
:1016DC00AE6A0E94BD08089510915004112311F4B4
:1016EC000C94CE0B1FEF00913402002309F01095DF
:1016FC00112311F40C94CC0BCF93DF9310E01A93BD
:10170C0010E01A9311E01A930E948D6ADF91CF9129
:10171C00CF93DF9318E0412A07E61AE61A930A934F
:10172C00EAEFF4EE0E94F16DDF91CF91CF93DF934E
:10173C0018E0412A07E61AE61A930A930091DE0490
:10174C001091DF042091E0043091E104CF93DF93FA
:10175C003A932A931A930A9318E01A9300E00A9387
:10176C0010E21A93689443F8689445F8E89454F896
:10177C0055F842F80E94526EDF91CF91DF91CF91D4
:10178C0010E00E94AE6A12E3109334020C94D20B58
:10179C0010E002E00E94206C089510915004112377
:1017AC0011F40C94F50BCF93DF9310E01A9310E027
:1017BC001A9311E01A930E948D6ADF91CF91CF9307
:1017CC00DF9318E0412A07E61AE61A930A93E3E03E
:1017DC00F5EE0E94F16DDF91CF910E94BD08089546
:1017EC0010915004112311F40C94180CCF93DF9327
:1017FC0010E01A9310E01A9311E01A930E948D6A6C
:10180C00DF91CF91CF93DF9318E0412A07E61AE6D8
:10181C001A930A93EDE0F5EE0E94F16DDF91CF91F2
:10182C000E94BD08089565970E94C606CF93DF936A
:10183C0018E0412A00EF1BE61A930A93E4E1F5EE57
:10184C000E94F16D1DE00E94C7701AE00E94C770E3
:10185C00DF91CF9110E01A8710E0188710E01C8BF5
:10186C0010E0198B1FEF188B00E010E020E030E047
:10187C000093DE041093DF042093E0043093E10422
:10188C0010E000E01C870B870E943B0B10E000E08F
:10189C001983088310E000E01B830A83388D2F899D
:1018AC001E890D893F832E831D830C831A85109509
:1018BC00112311F40C94CB0C10E000E01C870B8767
:1018CC0011275A991FEF1095E894112309F0689489
:1018DC001BB112F91BB9CF93DF93FE017496FA93E7
:1018EC00EA9314E61A930E94B96BDF91CF911A8791
:1018FC001A85112311F40C949C0C1C89113010E0E6
:10190C0009F41FEF1F931C89143010E009F41FEF2A
:10191C000F91102B112311F40C949A0C10E000E091
:10192C001C870B870C94CB0C0C94A60C15E10E9415
:10193C00F06BFE013B96A081B1811196A083B1831F
:10194C001C89113010E009F41FEF1F931C8914300F
:10195C0010E009F41FEF0F91102B1F931C89183105
:10196C0010E009F41FEF0F91102B1F930B851C85B2
:10197C00103009F4043110E011F008F01FEF0F9152
:10198C00102B112311F40C94710C18851095112344
:10199C0011F40C94D50C0E94720B1FEF18871C8944
:1019AC00113010E009F41FEF112311F40C94090EFF
:1019BC00CF93DF93FE017396FA93EA9314E61A938E
:1019CC000E94B96BDF91CF9119871985112311F4FE
:1019DC000C94030ECF93DF93FE017296FA93EA9365
:1019EC001AE01A930E94B96BDF91CF9119871B896A
:1019FC000FEF011B102F1F931A890F91011710E085
:101A0C0009F41FEF112311F40C94010E10E0198B43
:101A1C00E8E0F0E0FA93EA9310E010831FE71A93E2
:101A2C001081088101171FEF08F01127112311F005
:101A3C000C94470DCF93DF93EAE0F0E0FA93EA932E
:101A4C001AE01A930E94B96BDF91CF911C871C8905
:101A5C001F931A2D0F91100F1C8B182D1F931A2DDD
:101A6C00E0E0FFE0AF91AF7FBB27EA0FFB1F1083D5
:101A7C00E981FA81108113951083112311F00C94D4
:101A8C00170D2396CF93DF93FE017096FA93EA938A
:101A9C001AE01A930E94B96BDF91CF911987CF93FB
:101AAC00DF933F812E811D810C813A932A931A93E7
:101ABC000A9310E000E81A930A930E941C05DF9128
:101ACC00CF911095112311F40C94730DFE013296E5
:101ADC00A081B1811196A083B183CF93DF933F8115
:101AEC002E811D810C813A932A931A930A9310E04C
:101AFC0000E81A930A931FEF1A930E948F05DF9147
:101B0C00CF91E8E0F0E0FA93EA9310E010831FE73E
:101B1C001A931081088101171FEF08F01127112368
:101B2C0011F00C94C30D182DE0E0FEE01F7F002790
:101B3C00E10FF01F10811F93182DE0E0FFE01F7FD5
:101B4C000027E10FF01F10810F91011710E009F031
:101B5C001FEF112311F40C94BA0DFE013396A081E2
:101B6C00B1811196A083B183E981FA81108113951B
:101B7C001083112311F00C94900D239619891F9347
:101B8C0018890F91011710E009F41FEF112311F4BC
:101B9C000C94F70D16E00E94F06B3F812E811D8195
:101BAC000C8100581F4F2F4F3F4F3F832E831D83B7
:101BBC000C830091DE041091DF042091E00430913D
:101BCC00E10400581F4F2F4F3F4F0093DE0410933A
:101BDC00DF042093E0043093E1040E94720B0C9418
:101BEC00010EFE013B96A081B1811196A083B183B9
:101BFC0015E10E94F06B0C94070E10E00FEF1C87A0
:101C0C000B8710E01C8B10E01A871C89143010E035
:101C1C0009F41FEF1F931C89183110E009F41FEF12
:101C2C000F91102B1F930B851C85103009F4043178
:101C3C0010E011F008F01FEF0F91102B112311F48D
:101C4C000C945C0C16E00E94F06B18891F93198998
:101C5C000F91011710E009F01FEF112311F40C94F0
:101C6C005D0E0FEF1FEF2FEF3FEF0093CF0410939C
:101C7C00D0042093D1043093D2040E94C606CF9393
:101C8C00DF9318E0412A00EF1BE61A930A93E7E270
:101C9C00F5EE0E94F16D1DE00E94C7701AE00E94E3
:101CAC00C770DF91CF910E94D30B0C946F0E0091F3
:101CBC00DE041091DF042091E0043091E1040093E4
:101CCC00CF041093D0042093D1043093D2040E94FB
:101CDC00720B08811981103009F4003010E009F002
:101CEC001FEF112311F40C94D10E0FEF1FEF2FEFF8
:101CFC003FEF0093CF041093D0042093D104309382
:101D0C00D2040E94C606CF93DF9318E0412A00EF5D
:101D1C001BE61A930A93EFE3F5EE0E94F16DDF9147
:101D2C00CF91CF93DF9318E0412A00EF1BE61A9373
:101D3C000A930A811B81CF93DF931A930A9310E0C5
:101D4C001A9310E01A9310E21A93689443F8E894EB
:101D5C0045F8E89454F855F80E944B70DF91CF91F8
:101D6C00DF91CF91CF93DF9318E0412A00EF1BE670
:101D7C001A930A93E0E5F5EE0E94F16D1DE00E94C6
:101D8C00C7701AE00E94C770DF91CF911AEF1093C1
:101D9C0034020E94F60B0A811B81103009F40030CA
:101DAC0010E009F01FEF112311F40C94330F0FEF17
:101DBC001FEF2FEF3FEF0093CF041093D00420932D
:101DCC00D1043093D2040E94C606CF93DF9318E05F
:101DDC00412A00EF1BE61A930A93E9E5F5EE0E94FF
:101DEC00F16DDF91CF91CF93DF9318E0412A00EF93
:101DFC001BE61A930A930C811D81CF93DF931A93E0
:101E0C000A9310E01A9310E01A9310E21A93689454
:101E1C0043F8E89445F8E89454F855F80E944B7050
:101E2C00DF91CF91DF91CF91CF93DF9318E0412ACF
:101E3C0000EF1BE61A930A93E0E5F5EE0E94F16DB4
:101E4C001DE00E94C7701AE00E94C770DF91CF910D
:101E5C001AEF109334020E94F60B08952297CF9339
:101E6C00DF9312E01A930E940406DF91CF911127A1
:101E7C001A991FEF112311F40C94350F0E94C6060A
:101E8C001091EC041A3A10E009F41FEF112311F42D
:101E9C000C945710CF93DF9318E0412A00EF1BE608
:101EAC001A930A9310910005CF93DF931A9310E0C5
:101EBC001A9310E01A9310E21A93689443F80E9454
:101ECC00126EDF91CF91DF91CF91CF93DF9318E01A
:101EDC00412A00EF1BE61A930A93E9E6F5EE0E94FD
:101EEC00F16DDF91CF911091EA04103511F00C9443
:101EFC008F0FCF93DF9318E0412A00EF1BE61A9364
:101F0C000A93E2E7F5EE0E94F16DDF91CF910C940C
:101F1C002610113511F00C94A30FCF93DF9318E01A
:101F2C00412A00EF1BE61A930A93E9E7F5EE0E94AB
:101F3C00F16DDF91CF910C942610123511F00C94A9
:101F4C00B70FCF93DF9318E0412A00EF1BE61A93EB
:101F5C000A93EFE7F5EE0E94F16DDF91CF910C94AF
:101F6C002610133511F00C94CB0FCF93DF9318E0A0
:101F7C00412A00EF1BE61A930A93E4E8F5EE0E945F
:101F8C00F16DDF91CF910C942610143511F00C9457
:101F9C00DF0FCF93DF9318E0412A00EF1BE61A9373
:101FAC000A93EDE8F5EE0E94F16DDF91CF910C9460
:101FBC002610183511F00C94F30FCF93DF9318E023
:101FCC00412A00EF1BE61A930A93E4E9F5EE0E940E
:101FDC00F16DDF91CF910C9426101F3511F00C94FC
:101FEC000710CF93DF9318E0412A00EF1BE61A93FA
:101FFC000A93E9E9F5EE0E94F16DDF91CF910C9413
:10200C002610CF93DF9318E0412A00EF1BE61A93BA
:10201C000A93E1EAF5EE0E94F16DDF91CF91CF9337
:10202C00DF9318E0412A00EF1BE61A930A931091F4
:10203C00EA04689443F8412F0E94BA70DF91CF9163
:10204C00CF93DF9318E0412A00EF1BE61A930A9313
:10205C00EBEAF5EE0E94F16DDF91CF91CF93DF9318
:10206C0018E0412A00EF1BE61A930A931091EB0437
:10207C00689443F8412F0E94BA70DF91CF91CF93AF
:10208C00DF9318E0412A00EF1BE61A930A93E4EA67
:10209C00F4EE0E94F16DDF91CF910E94BF060C947B
:1020AC006710CF93DF9318E0412A00EF1BE61A93D9
:1020BC000A93E2EBF5EE0E94F16DDF91CF910E9455
:1020CC00BF06089525971E811455109300050E9494
:1020DC00060B1E81012F11273327222740E050E1E8
:1020EC0060E070E0689445F80E9485713C832B8316
:1020FC001A83098300E010E020E030E00093DE0456
:10210C001093DF042093E0043093E104E8E0F0E066
:10211C00FA93EA9310E010831FE01A931081088160
:10212C0001171FEF08F01127112311F00C944E1119
:10213C00CF93DF933F812E811D810C813A932A939B
:10214C001A930A9311E000E01A930A9310E01A9381
:10215C000E948F05DF91CF911885112311F40C94F7
:10216C00EC10EAE0F0E0FA93EA9310E010831FEF32
:10217C001A931081088101171FEF08F01127112302
:10218C0011F00C94EB101A2DE0E0FFE01F7F0027FC
:10219C00E10FF01F10811E83CF93DF9318E0412ACB
:1021AC0000EF1BE61A930A931885689443F8412FA5
:1021BC000E94BA70DF91CF91E981FA811081139559
:1021CC001083112311F00C94C0102396EAE0F0E078
:1021DC00FA93EA9310E010831FE31A93108108819D
:1021EC0001171FEF08F01127112311F00C94241183
:1021FC00E0E0FFE0EF93FF931A2D012F1127000F62
:10220C00111F000F111FFF91EF91E00FF11F0191B2
:10221C001191219131910093E6041093E7042093DE
:10222C00E8043093E9040E942F04E981FA811081BB
:10223C0013951083112311F00C94F51023963F8104
:10224C002E811D810C8100501F4F2F4F3F4F3F831C
:10225C002E831D830C830091DE041091DF042091EA
:10226C00E0043091E10400501F4F2F4F3F4F00937B
:10227C00DE041093DF042093E0043093E104E98141
:10228C00FA81108113951083112311F00C94951081
:10229C0023960E94240B1AEF109334020091DE0453
:1022AC001091DF042091E0043091E1040093CF04FD
:1022BC001093D0042093D1043093D2041FEF1093C9
:1022CC00340410E002E30E94206CCF93DF930E9451
:1022DC00340FDF91CF9108952D970E94C606CF93AE
:1022EC00DF9318E0412A00EF1BE61A930A931F852F
:1022FC00CF93DF931A9310E01A9310E01A9310E225
:10230C001A93689443F80E94126EDF91CF91DF917B
:10231C00CF91CF93DF9318E0412A00EF1BE61A937D
:10232C000A93E6ECF5EE0E94F16DDF91CF91CF931D
:10233C00DF9310E01A9318E41A930E941D06DF91A4
:10234C00CF9110E004E60E94206C1D851C5A012FD1
:10235C0011273327222740E050E160E070E06894B9
:10236C0045F80E9485713C872B871A87098710E0F6
:10237C0000E018870F8310E000E019830883E8E081
:10238C00F0E0FA93EA9310E010831FE01A931081A7
:10239C00088101171FEF08F01127112311F00C947D
:1023AC00C912CF93DF933F852E851D850C853A93FB
:1023BC002A931A930A9311E000E01A930A9310E0FF
:1023CC001A930E948F05DF91CF9110E000E01E83DD
:1023DC000D8310E000E01C830B830A851B85198795
:1023EC000887EAE0F0E0FA93EA9310E0108317E034
:1023FC001A931081088101171FEF08F01127112380
:10240C0011F00C943E12CF93DF9310E51A930E85C6
:10241C001F851A930A931FE000E00F931F930B85FF
:10242C001C853F912F91020F131F1A930A9310E0F2
:10243C0000E21A930A930E94866BDF91CF9110E011
:10244C000AE00E94206C08851985005E1F4F1987D1
:10245C0008870D851E85005E1F4F1E870D87E9813D
:10246C00FA81108113951083112311F00C94001232
:10247C00239610E51F93088519851F93E89440F85F
:10248C0008851985102FE6E1F0E0612FA1E0B0E09E
:10249C003F914F9150E00E94906BCF93DF9310E5EA
:1024AC001A931EE000E01A930A9311E000E01A93CD
:1024BC000A930E94686BDF91CF91EAE0F0E0FA9307
:1024CC00EA9310E010831FEF1A9310810881011713
:1024DC001FEF08F01127112311F00C949F121A2DE5
:1024EC00E0E0FFE01F7F0027E10FF01F10811F933A
:1024FC001A2DE0E0FEE01F7F0027E10FF01F108196
:10250C000F91011710E009F01FEF112311F40C9437
:10251C009612FE013696A081B1811196A083B183EB
:10252C00E981FA81108113951083112311F00C9419
:10253C006C1223960B811C81103009F4003010E0D2
:10254C0009F41FEF112311F40C94B1121EE20E9436
:10255C00F06B0C94B41213E20E94F06B3F852E8545
:10256C001D850C8500501F4F2F4F3F4F3F872E87E7
:10257C001D870C87E981FA81108113951083112333
:10258C0011F00C94CE112396CF93DF9318E0412ACF
:10259C0000EF1BE61A930A931DE50E94C7701DE01D
:1025AC000E94C7701AE00E94C770DF91CF911AEF9A
:1025BC00109334020091DE041091DF042091E004AA
:1025CC003091E1040093CF041093D0042093D104F4
:1025DC003093D2041FEF109334040881198110300A
:1025EC0009F4003010E009F01FEF112311F40C94E2
:1025FC0044130E94C606CF93DF9318E0412A00EFE4
:10260C001BE61A930A93E2EEF5EE0E94F16DDF9150
:10261C00CF91CF93DF9318E0412A00EF1BE61A937A
:10262C000A930A811B81CF93DF931A930A9310E0CC
:10263C001A9310E01A9310E21A93689443F8E894F2
:10264C0045F8E89454F855F80E944B70DF91CF91FF
:10265C00DF91CF91CF93DF9318E0412A00EF1BE677
:10266C001A930A93E0E5F5EE0E94F16D1DE00E94CD
:10267C00C7701AE00E94C770DF91CF910895109136
:10268C00E403103010E009F01FEF112311F40C9447
:10269C006913CF93DF931091E30310541F931981A7
:1026AC000F91100F1A931CE01A930E941D06DF91D4
:1026BC00CF91CF93DF9318811A931CE01A930E9449
:1026CC001D06DF91CF91089521971091E4031030EE
:1026DC0010E009F01FEF112311F40C94B9131A81B7
:1026EC00E3E2F3E01F770027E10FF01F108118835E
:1026FC0018811F9319810F91011710E009F01FEF3A
:10270C00112311F40C94B913CF93DF931091E303BD
:10271C0010551F931B810F91100F1A931CE01A93E5
:10272C000E941D06DF91CF91CF93DF931A811A93EC
:10273C001CE01A930E941D06DF91CF91CF93DF937B
:10274C0019811A931CE01A930E941D06DF91CF91F8
:10275C001A811F931981E3E2F3E0AF91AF77BB27A6
:10276C00EA0FFB1F10830895CF93DF9310E01A93A9
:10277C001A811A931A8116951A930E946A13DF9183
:10278C00CF910895219710E018830091AB03112786
:10279C0004FD1FEF112311F40C94D813FE011081CA
:1027AC00139510830091AB03112705FD1FEF112327
:1027BC0011F40C94E913FE01108113951083FE01A2
:1027CC00108113951083CF93DF9318811A931EE415
:1027DC001A930E941D06DF91CF911091CC031030FB
:1027EC0011F00C94FB130C940514123011F00C9492
:1027FC0001140C940514143011F00C941B14CF9389
:10280C00DF931FEF1A931BE41A930E941D06DF91AE
:10281C00CF91CF93DF9310E01A931CE41A930E948C
:10282C001D06DF91CF910C944314113011F00C94D0
:10283C0021140C942B14133011F00C9427140C94B9
:10284C002B14153011F00C944314CF93DF9310918B
:10285C00F1031A931BE41A930E941D06DF91CF918A
:10286C00CF93DF931091F0031A931CE41A930E94F8
:10287C001D06DF91CF910C9443141091CC031030B2
:10288C0011F00C944B140C944F14113011F00C9457
:10289C006714CF93DF931091EA031A931DE41A93F4
:1028AC000E941D06DF91CF91CF93DF931091EB0324
:1028BC001A931AE41A930E941D06DF91CF910C947F
:1028CC00AB14123011F00C946D140C947114133071
:1028DC0011F00C948914CF93DF931091EC031A939D
:1028EC001DE41A930E941D06DF91CF91CF93DF93C5
:1028FC001091ED031A931AE41A930E941D06DF91AE
:10290C00CF910C94AB14143011F00C948F140C94D4
:10291C009314153011F00C94AB14CF93DF931091EA
:10292C00EE031A931DE41A930E941D06DF91CF91BA
:10293C00CF93DF931091EF031A931AE41A930E942A
:10294C001D06DF91CF910C94AB1408952497009140
:10295C00AB03112700FD1FEF1F930091AB03112751
:10296C0001FD1FEF10950F9110231883E8E0F0E0A4
:10297C00FA93EA9310E0108317E01A931081088100
:10298C0001171FEF08F01127112311F00C940415F7
:10299C00E3ECF3E0EF93FF93182D012F1127FF9138
:1029AC00EF91E00FF11F11911C83CF93DF9310E097
:1029BC001A93182D145F1A931E811A930E946A138E
:1029CC00DF91CF911B81112311F40C94F0141C8115
:1029DC0016951C83CF93DF931C811A93182D105FCF
:1029EC001A930E941D06DF91CF91E981FA81108123
:1029FC0013951083112311F00C94C5142396CF93C7
:102A0C00DF9310E01A9314E11A931091CB031A93ED
:102A1C000E946A13DF91CF910091AB03112700FD47
:102A2C001FEF1F9310910C0310950F91102311237E
:102A3C0011F40C94AE151091F903112311F40C94AC
:102A4C003315CF93DF9310E01A9318E11A930E9479
:102A5C001D06DF91CF910C944B151881112311F4A5
:102A6C000C943E151091CB03169519830C944115BB
:102A7C001091CB031983CF93DF9319811A9318E12B
:102A8C001A930E941D06DF91CF910091AB03112781
:102A9C0003FD1FEF112311F40C946015CF93DF93FA
:102AAC0011E01A931BE11A930E941D06DF91CF913E
:102ABC000C946A15CF93DF9310E01A931BE11A93D1
:102ACC000E941D06DF91CF910091AB03112701FDF0
:102ADC001FEF112311F40C948015CF93DF931091F9
:102AEC00F3031A931AE11A930E941D06DF91CF91FA
:102AFC000C948B15CF93DF931091F2031A931AE178
:102B0C001A930E941D06DF91CF910091AB03112700
:102B1C0002FD1FEF112311F40C94A115CF93DF9339
:102B2C001091F5031A9319E11A930E941D06DF9177
:102B3C00CF910C94AC15CF93DF931091F4031A93AF
:102B4C0019E11A930E941D06DF91CF910C94C515C3
:102B5C001091CB031983CF93DF9319811A9318E14A
:102B6C001A930E941D06DF91CF91CF93DF9310E053
:102B7C001A931AE11A930E941D06DF91CF910895C2
:102B8C002197E8E0F0E0FA93EA9310E0108318E064
:102B9C001A931081088101171FEF08F011271123D8
:102BAC0011F00C940716E2EDF3E0EF93FF93182D60
:102BBC00012F1127FF91EF91E00FF11F11911B8352
:102BCC00CF93DF931B811A93182D105E1A930E94DA
:102BDC001D06DF91CF91CF93DF9310E01A93182D40
:102BEC001B5E1A931D811A930E946A13DF91CF9179
:102BFC00E981FA81108113951083112311F00C9443
:102C0C00D015239608952197CF93DF9310E01A9354
:102C1C0011E21A931091DB031A930E946A13DF914D
:102C2C00CF91CF93DF9310E01A9312E21A93109185
:102C3C00DC031A930E946A13DF91CF91CF93DF9339
:102C4C0010E01A9313E21A931091DD031A930E9469
:102C5C006A13DF91CF911091DB0316951883CF93F4
:102C6C00DF931091DB031F9318810F91100F1A93B0
:102C7C0019E21A930E941D06DF91CF911091DC038B
:102C8C0016951883CF93DF931091DC031F93188153
:102C9C000F91100F1A931AE21A930E941D06DF91DE
:102CAC00CF911091DD0316951883CF93DF9310917C
:102CBC00DD031F9318810F91100F1A931BE21A93C7
:102CCC000E941D06DF91CF91CF93DF9310E01A93F2
:102CDC001BE41A931091DE0316951A930E946A1343
:102CEC00DF91CF911091DE031695EFE1FFEE1F738C
:102CFC000027E10FF01F14911883CF93DF931881F5
:102D0C001A931FE01A930E941D06DF91CF91CF9367
:102D1C00DF931091E6031A9316E01A930E941D0696
:102D2C00DF91CF91CF93DF930091BC03112707FD67
:102D3C001FEF11701A9317E01A930E941D06DF9172
:102D4C00CF910091BC03112706FD1FEF112311F445
:102D5C000C94B5161091E90318830C94B8161091C5
:102D6C00E8031883CF93DF9318811A9313EB1A930C
:102D7C000E941D06DF91CF91089521971091E203D7
:102D8C00137018601883CF93DF9318811A9318E48B
:102D9C001A930E941D06DF91CF911091E2031370DC
:102DAC00110F110F110F1883CF93DF931881105649
:102DBC001A9315E41A930E941D06DF91CF9110917E
:102DCC00E203103010E009F41FEF112311F40C94FE
:102DDC000517CF93DF9310E01A9316E41A930E9411
:102DEC001D06DF91CF91CF93DF9310E01A9317E478
:102DFC001A930E941D06DF91CF910C942817E0E0E6
:102E0C00F4E0EF93FF931091E2031150012F11277F
:102E1C00FF91EF91E00FF11F11911883CF93DF9386
:102E2C0018811A9316E41A930E941D06DF91CF9114
:102E3C00CF93DF9318811A9317E41A930E941D06FF
:102E4C00DF91CF9110E01093350408952197CF9323
:102E5C00DF931091FA031A931AE01A930E941D063D
:102E6C00DF91CF91CF93DF931091E3031A9314E08A
:102E7C001A930E941D06DF91CF91CF93DF9310918F
:102E8C00E4031A9315E01A930E941D06DF91CF916B
:102E9C00CF93DF931091E6031A9316E01A930E94D6
:102EAC001D06DF91CF911091FE03110F110F110F21
:102EBC00110F1F931091FF031F700F91102B18838C
:102ECC00CF93DF9318811A9319E01A930E941D0671
:102EDC00DF91CF911091F6031F931091F8031170AD
:102EEC0025E00E9406710F91102B1F931091F70390
:102EFC0026E00E9406710F91102B1883CF93DF935D
:102F0C0018811A931BE01A930E941D06DF91CF9132
:102F1C00CF93DF931091E7031A931DE01A930E944D
:102F2C001D06DF91CF91CF93DF931091FD031A9380
:102F3C0019E41A930E941D06DF91CF91CF93DF9372
:102F4C0018EC1A931FE41A930E941D06DF91CF917F
:102F5C0010E0109334040895229710E01883E8E0F1
:102F6C00F0E0FA93EA9310E0108318E01A931081C2
:102F7C00088101171FEF08F01127112311F00C9491
:102F8C0011181D811F93182DE5EAF2E01F70002720
:102F9C00E10FF01F10810F91102B112311F40C94E1
:102FAC000818182DE5E6F2E01F700027E10FF01F5E
:102FBC00108116951C83E3ECF3E0EF93FF93182D2F
:102FCC00012F1127FF91EF91E00FF11FEF93FF936A
:102FDC001C81FF91EF911193182D1F9310E0E5EADE
:102FEC00F2E0AF91AF70BB27EA0FFB1F10831FEF0E
:102FFC001B831D811095112311F40C9408181DE0EE
:10300C0010934002E981FA811081139510831123EA
:10301C0011F00C94BE1723961881112311F40C9403
:10302C001D18CF93DF930E94AC14DF91CF910895BC
:10303C00229710E01883E8E0F0E0FA93EA9310E0AE
:10304C00108318E01A931081088101171FEF08F004
:10305C001127112311F00C947D181D811F93182D2D
:10306C00E1EBF2E01F700027E10FF01F10810F91D0
:10307C00102B112311F40C947418182DE1E7F2E0C5
:10308C001F700027E10FF01F108116951C83E2EDD5
:10309C00F3E0EF93FF93182D012F1127FF91EF9180
:1030AC00E00FF11FEF93FF931C81FF91EF911193B0
:1030BC00182D1F9310E0E1EBF2E0AF91AF70BB273E
:1030CC00EA0FFB1F10831FEF1B831D81109511232B
:1030DC0011F40C9474181EE010934002E981FA81EB
:1030EC00108113951083112311F00C942A18239638
:1030FC001881112311F40C948918CF93DF930E943B
:10310C00C615DF91CF91089522971A811F931091C4
:10311C00BA020F91102B112311F40C94AB181091CF
:10312C007A0216951093DB031091DB03169510931E
:10313C00DC0310E01093BA02CF93DF930E940916C0
:10314C00DF91CF911EE0109340021A811F931091D2
:10315C00BB020F91102B112311F40C94C618109173
:10316C007B0216951093DD0310E01093BB02CF93F6
:10317C00DF930E940916DF91CF911EE0109340025D
:10318C001A811F931091BC020F91102B112311F473
:10319C000C94E11810917C0216951093DE0310E04C
:1031AC001093BC02CF93DF930E940916DF91CF914D
:1031BC001CE110934002089521971091C003112334
:1031CC0011F40C942B1910E01093C0031AE0109317
:1031DC0040021FEF1093AE021091CC03169500E342
:1031EC000E941071115E1883CF93DF9310E01A9335
:1031FC001AE41A931A811A930E946A13DF91CF91E1
:10320C001091CC031170113010E009F41FEF112351
:10321C0011F40C941F19CF93DF9310E01A9319E457
:10322C001A931FE31A930E946A13DF91CF910C94A7
:10323C002B19CF93DF9310E01A9319E41A931FE71D
:10324C001A930E946A13DF91CF91CF93DF930E9460
:10325C00C813DF91CF91089523971091BE031F934C
:10326C001091BF030F91102B103010E009F41FEFD9
:10327C00112311F40C9444190C94791A0091BE0387
:10328C00112700FD1FEF112311F40C946419CF9337
:10329C00DF930E94AC14DF91CF911CE0109340029D
:1032AC00CF93DF9312E41A930091AB03112700FD27
:1032BC001FEF1A930E94BA13DF91CF910091BE03B6
:1032CC00112701FD1FEF112311F40C948419CF93D6
:1032DC00DF930E94AC14DF91CF911CE0109340025D
:1032EC00CF93DF9316E41A930091AB03112701FDE2
:1032FC001FEF1A930E94BA13DF91CF910091BE0376
:10330C00112702FD1FEF112311F40C94A419CF9374
:10331C00DF930E94AC14DF91CF911CE0109340021C
:10332C00CF93DF9317E41A930091AB03112702FD9F
:10333C001FEF1A930E94BA13DF91CF910091BE0335
:10334C00112703FD1FEF112311F40C94C419CF9313
:10335C00DF930E94AC14DF91CF911CE010934002DC
:10336C00CF93DF9318E41A930091AB03112703FD5D
:10337C001FEF1A930E94BA13DF91CF910091BE03F5
:10338C00112704FD1FEF112311F40C94E719CF93AF
:10339C00DF930E94C813DF91CF911FEF1093AE0201
:1033AC001BE010934002CF93DF931FE11A9300911F
:1033BC00AB03112704FD1FEF1A930E94BA13DF9180
:1033CC00CF910091BE03112705FD1FEF112311F4BE
:1033DC000C940A1ACF93DF930E94C813DF91CF91FC
:1033EC001FEF1093AE021FE010934002CF93DF93B8
:1033FC001EE11A930091AB03112705FD1FEF1A93E1
:10340C000E94BA13DF91CF910091BF03112704FDE5
:10341C001FEF1F930091BF03112705FD1FEF0F91A5
:10342C00102B1F93109135040F91102B112311F4B5
:10343C000C94481A10E01093E2030091BC0311277E
:10344C0004FD1FEF112311F40C94311A1091E203B7
:10345C0013951093E2030091BC03112705FD1FEF98
:10346C00112311F40C943F1A1091E2031E5F109378
:10347C00E203CF93DF930E94C316DF91CF9110E24A
:10348C00109340020091BF03112706FD1FEF11237B
:10349C0011F40C94611A0091BC03112706FD1FEF67
:1034AC001093DF03CF93DF930E940916DF91CF9126
:1034BC001DE1109340020091BF03112707FD1FEF80
:1034CC00112311F40C94731ACF93DF930E940916F5
:1034DC00DF91CF911EE11093400210E01093BE03D8
:1034EC0010E01093BF0308952197E8E0F0E0FA9301
:1034FC00EA9310E0108319E01A93108108810117E8
:10350C001FEF08F01127112311F00C94BB1A182D82
:10351C00E4E4F2E01F700027E10FF01F10811B8321
:10352C00E3ECF3E0EF93FF93182D012F1127FF919C
:10353C00EF91E00FF11FEF93FF931B81FF91EF9140
:10354C001193182D1F9319E0E5E8F2E0AF91AF70DD
:10355C00BB27EA0FFB1F1083E981FA8110811395B9
:10356C001083112311F00C94841A23961091AB0341
:10357C00107E1F9310914E020F91102B1093AB03E2
:10358C001FE11093BE0308952197E8E0F0E0FA9351
:10359C00EA9310E0108319E01A9310810881011747
:1035AC001FEF08F01127112311F00C94FE1AE3EC15
:1035BC00F3E0EF93FF93182D012F1127FF91EF915B
:1035CC00E00FF11F11911B83182D1F931B81E4E455
:1035DC00F2E0AF91AF70BB27EA0FFB1F1083E981BC
:1035EC00FA81108113951083112311F00C94D41AC5
:1035FC0023961091AB031F7110934E02CF93DF9360
:10360C0010E01A930E947E34DF91CF910895219798
:10361C00E8E0F0E0FA93EA9310E010831CE01A93D0
:10362C001081088101171FEF08F01127112311F0E9
:10363C000C944E1B182DE4E5F2E01F700027E10FEF
:10364C00F01F10811B83E2EDF3E0EF93FF93182D35
:10365C00012F1127FF91EF91E00FF11FEF93FF93D3
:10366C001B81FF91EF911193182D1F9319E0E1E944
:10367C00F2E0AF91AF70BB27EA0FFB1F1083E9811B
:10368C00FA81108113951083112311F00C94171BE0
:10369C0023961091AB031F7D1F93109161020F9124
:1036AC00102B1093AB0310E21093BE0308952197D7
:1036BC00E8E0F0E0FA93EA9310E010831CE01A9330
:1036CC001081088101171FEF08F01127112311F049
:1036DC000C94911BE2EDF3E0EF93FF93182D012F67
:1036EC001127FF91EF91E00FF11F11911B83182D02
:1036FC001F931B81E4E5F2E0AF91AF70BB27EA0F9B
:10370C00FB1F1083E981FA8110811395108311231B
:10371C0011F00C94671B23961091AB03107210934D
:10372C0061020895CF93DF931FEF1A930E947E34AA
:10373C00DF91CF91E8E0F0E0FA93EA9310E0108388
:10374C0018E01A931081088101171FEF08F0112758
:10375C00112311F00C94F21BE3ECF3E0EF93FF93C5
:10376C00182D012F1127FF91EF91E00FF11FEF930F
:10377C00FF93E4EAF0E0EF93FF931B81012F1127F5
:10378C00A0E1B0E0E89445F80E9429710F931F93D3
:10379C00182D012F11273F912F91020F131FFF910D
:1037AC00EF91E00FF11F0E94696CFF91EF91119363
:1037BC00182D1F9319E0E5E8F2E0AF91AF70BB272D
:1037CC00EA0FFB1F1083E981FA8110811395108396
:1037DC00112311F00C94A91B2396E4EAF0E0EF936B
:1037EC00FF931881012F1127A0E1B0E0E89445F870
:1037FC000E942971075F1F4FFF91EF91E00FF11F9E
:10380C000E94696C1093CC031091AB03107E1F9334
:10381C00E4EAF0E0EF93FF931881012F1127A0E168
:10382C00B0E0E89445F80E942971065F1F4FFF91A4
:10383C00EF91E00FF11F0E94696C1F710F91102B1B
:10384C001093AB031FE11093BE0310E00AE00E943B
:10385C00206CCF93DF9310E01A930E947E34DF919B
:10386C00CF910895CF93DF931FEF1A930E947E346C
:10387C00DF91CF9118811F701883E8E0F0E0FA9384
:10388C00EA9310E0108319E01A9310810881011754
:10389C001FEF08F01127112311F00C948A1CE4EA95
:1038AC00F0E0EF93FF931B81012F1127A0E1B0E013
:1038BC00E89445F80E9429710F931F93182D012F3E
:1038CC0011273F912F91020F131FFF91EF91E00FE2
:1038DC00F11FEF93FF93E3ECF3E0EF93FF93182DBD
:1038EC00012F1127FF91EF91E00FF11F1191FF9123
:1038FC00EF910E94476CE981FA8110811395108336
:10390C00112311F00C944C1C2396E4EAF0E0EF9395
:10391C00FF931881012F1127A0E1B0E0E89445F83E
:10392C000E942971065F1F4FFF91EF91E00FF11F6D
:10393C00EF93FF931091AB031F71FF91EF910E94D6
:10394C00476CCF93DF9310E01A930E947E34DF9183
:10395C00CF910E94BD081DE0109340020895CF93B3
:10396C00DF931FEF1A930E947E34DF91CF91E8E032
:10397C00F0E0FA93EA9310E010831CE01A931081A4
:10398C00088101171FEF08F01127112311F00C9477
:10399C000F1DE2EDF3E0EF93FF93182D012F11278C
:1039AC00FF91EF91E00FF11FEF93FF93E4EAF1E049
:1039BC00EF93FF931B81012F1127A0E1B0E0E89456
:1039CC0045F80E9429710F931F93182D012F112771
:1039DC003F912F91020F131FFF91EF91E00FF11FF9
:1039EC000E94696CFF91EF911193182D1F9319E0B0
:1039FC00E1E9F2E0AF91AF70BB27EA0FFB1F108338
:103A0C00E981FA81108113951083112311F00C9424
:103A1C00C61C23961091AB031F7D1F93E4EAF1E0C3
:103A2C00EF93FF931881012F1127A0E1B0E0E894E8
:103A3C0045F80E942971035F1F4FFF91EF91E00F32
:103A4C00F11F0E94696C10720F91102B1093AB0335
:103A5C0010E21093BE0310E00AE00E94206CCF939A
:103A6C00DF9310E01A930E947E34DF91CF9108957A
:103A7C00CF93DF931FEF1A930E947E34DF91CF9187
:103A8C0018811F701883E8E0F0E0FA93EA9310E0D5
:103A9C0010831CE01A931081088101171FEF08F0A6
:103AAC001127112311F00C94901DE4EAF1E0EF932F
:103ABC00FF931B81012F1127A0E1B0E0E89445F89A
:103ACC000E9429710F931F93182D012F11273F91DD
:103ADC002F91020F131FFF91EF91E00FF11FEF9346
:103AEC00FF93E2EDF3E0EF93FF93182D012F1127D5
:103AFC00FF91EF91E00FF11F1191FF91EF910E9457
:103B0C00476CE981FA81108113951083112311F010
:103B1C000C94521D2396E4EAF1E0EF93FF93188185
:103B2C00012F1127A0E1B0E0E89445F80E9429711B
:103B3C00035F1F4FFF91EF91E00FF11FEF93FF9386
:103B4C001091AB031072FF91EF910E94476CCF93D1
:103B5C00DF9310E01A930E947E34DF91CF910E9484
:103B6C00BD081EE0109340020895E8E0F0E0FA93DF
:103B7C00EA9310E0108311E51A9310810881011764
:103B8C001FEF08F01127112311F00C94F31DE2EC38
:103B9C00F3E0EF93FF93182D012F1127FF91EF9175
:103BAC00E00FF11FEF93FF93E2E1F0E0EF93FF934F
:103BBC00182D012F1127FF91EF91E00FF11F0E949B
:103BCC00696CFF91EF911193E981FA811081139542
:103BDC001083112311F00C94C41D2396E8E0F0E03F
:103BEC00FA93EA9310E010831FE01A931081088176
:103BFC0001171FEF08F01127112311F00C943D1E33
:103C0C00182D1F93E4EAF0E0EF93FF93182D012F8A
:103C1C001127FF91EF91E00FF11F0E94696CE4E412
:103C2C00F2E0AF91AF70BB27EA0FFB1F1083182D8A
:103C3C001F93E4EAF1E0EF93FF93182D012F112766
:103C4C00FF91EF91E00FF11F0E94696CE4E5F2E047
:103C5C00AF91AF70BB27EA0FFB1F1083E981FA818C
:103C6C00108113951083112311F00C94FD1D2396D4
:103C7C001091E2031170113010E009F41FEF1123C1
:103C8C0011F40C944E1E1091BC0310611093BC03E4
:103C9C001091E2031270123010E009F41FEF11239F
:103CAC0011F40C945E1E1091BC0310621093BC03B3
:103CBC001091DF03E894112309F068941091BC0370
:103CCC0016F91093BC031091E003E894112309F04A
:103CDC0068941091BC0317F91093BC031091F30373
:103CEC00109320031091F203109321031FEF1093F4
:103CFC00C1031FE71093130310E008EC00930703B4
:103D0C001093080308952797CF93DF9310E01A932D
:103D1C0017EF1A930E941D06DF91CF91FE01359685
:103D2C00FA93EA9310E000E01183008311E00FEFA7
:103D3C001A930A93A081B18128813981B31709F4B0
:103D4C00A21710E011F008F01FEF112311F00C94E2
:103D5C00E51EE1EDF3E0EF93FF9309851A85000F63
:103D6C00111FFF91EF91E00FF11F0E94726C17FF72
:103D7C0003C03FEF2FEF02C03327222738872F8352
:103D8C001E830D83CF93DF9338852F811E810D8188
:103D9C003A932A931A930A9316EF1A930E94510698
:103DAC00DF91CF91EA81FB81A081B1811196A08333
:103DBC00B183BB2311F4AA2311F00C94A21E2496F8
:103DCC00E8E0F0E0FA93EA9310E010831FE31A9313
:103DDC001081088101171FEF08F01127112311F032
:103DEC000C941A1FE4E6F0E0EF93FF93182D012FCB
:103DFC001127FF91EF91E00FF11F0E94696C1B835B
:103E0C00CF93DF931B811A93182D10551A930E9490
:103E1C001D06DF91CF91E981FA81108113951083F2
:103E2C00112311F00C94EF1E239608952E971091E8
:103E3C00B002112311F40C94261F10E010930A0306
:103E4C0010910B03112311F40C942F1F1FEF1093DF
:103E5C000A0310910A03112311F40C94471F1091BB
:103E6C0013031F93109122030F91100F18831091BD
:103E7C0013031093220310910B03109309030C945A
:103E8C00891F109170021F93009105031091060376
:103E9C00102F0F91011710E009F01FEF1093090379
:103EAC0010917002012F11270F931F93009105039E
:103EBC00109106033F912F91020F131F112312F43F
:103ECC000F5F1F4F15950795009307031093080379
:103EDC0010917002012F1127009305031093060314
:103EEC000091070310910803102F1883CF93DF93D1
:103EFC0010E01A931BE01A931A8116951A930E94DC
:103F0C006A13DF91CF91109109031F931091AE02A8
:103F1C000F91102B112311F40C948C201091CC03C5
:103F2C00113021F0133011F0153001F010E009F4CC
:103F3C001FEF1A830091AB03112704FD1FEF1F9392
:103F4C000091AB03112705FD1FEF0F91102B198367
:103F5C0018811695198719851695188710911204D2
:103F6C00112311F40C94C01F10916E0216951E8330
:103F7C000C94C31F1091FB031E831091FC03169528
:103F8C0016951F93CF93DF9318811A931091FC030E
:103F9C001A931EEB1A930E94126CDF91CF910F9122
:103FAC00100F1C871091FC031695169516951F93F0
:103FBC00CF93DF9318811A931091FC031A9316EE8A
:103FCC001A930E94126CDF91CF910F91100F1B87E7
:103FDC001A81112311F40C9409201E811695169543
:103FEC0016951F93CF93DF9318811A931F811A9301
:103FFC0010EA1A930E94126CDF91CF910F91100F5F
:10400C001A870C941D201E811695169516951F93D4
:10401C00CF93DF9318811A931F811A931EEB1A9377
:10402C000E94126CDF91CF910F91100F1A871A8199
:10403C00112311F40C943220CF93DF9318811A932F
:10404C0018EC1A931FEF1A930E94126CDF91CF9108
:10405C001F5F1D870C944020CF93DF9318811A9318
:10406C0014EB1A931FEF1A930E94126CDF91CF91ED
:10407C001F5F1D87CF93DF931EEB1A931FE41A93D8
:10408C000E941D06DF91CF911985105C1F93188536
:10409C000F91100F1F83CF93DF931D851A9310E49C
:1040AC001A930E941D06DF91CF91CF93DF931C854D
:1040BC001A9311E41A930E941D06DF91CF91CF93AE
:1040CC00DF931B851A9312E41A930E941D06DF914D
:1040DC00CF91CF93DF931A851A9313E41A930E940E
:1040EC001D06DF91CF91CF93DF931F811A9314E4B8
:1040FC001A930E941D06DF91CF9110E01093AE022F
:10410C0010E01093090310E010930B031091380288
:10411C00143010E009F41FEF112311F40C94C92191
:10412C00109113041F931091AF020F9110231123C0
:10413C0011F40C94A52010916F021093E10310E080
:10414C001093AF021091A503112311F40C94B62017
:10415C00109105041C83109106041B830C94BC2045
:10416C00109103041C83109104041B83CF93DF93E1
:10417C0014E41A931091A6031A930E94BA13DF91B8
:10418C00CF91CF93DF9311E01A931091A5031A935B
:10419C000E94BA13DF91CF911091A60310951123B1
:1041AC0011F40C94DD2010E01C8310E01B831FEF36
:1041BC0000913602002309F01095112311F40C9490
:1041CC0016211091A7031F931C810F91011710E06A
:1041DC0009F01FEF112311F40C9416211C811F936D
:1041EC001091A7030F91011710E011F008F01FEFC9
:1041FC00112311F40C940D211091A7031395109316
:10420C00A70310910704109336020C9416211091F9
:10421C00A7031A951093A703109109041093360263
:10422C001FEF00913702002309F01095112311F4B0
:10423C000C944F211091A8031F931B810F91011710
:10424C0010E009F01FEF112311F40C944F211B8186
:10425C001F931091A8030F91011710E011F008F0B3
:10426C001FEF112311F40C9446211091A803139500
:10427C001093A80310910804109337020C944F214B
:10428C001091A8031A951093A80310910A04109387
:10429C00370200913F04109140040F931F9310912B
:1042AC00A703012F11273F912F91020F131F00938A
:1042BC003F0410934004CF93DF931091A7031A93FC
:1042CC0011EB1A930E941D06DF91CF91CF93DF93D0
:1042DC001091A8031A9312EB1A930E941D06DF91FA
:1042EC00CF91CF93DF931091E1031A9310EB1A93B4
:1042FC000E941D06DF91CF911091A5031F93109181
:10430C00A6030F911023E894112309F068941091DF
:10431C00140411F9109314041091A50310951F9314
:10432C001091A6030F911023E894112309F06894BF
:10433C001091140410F9109314040091BC0311276C
:10434C0006FD1FEFE894112309F0689410911404F2
:10435C0013F91093140410915604112311F40C94B6
:10436C00C921CF93DF9311E21A9313E01A9314E04F
:10437C0004E11A930A9310E001E01A930A930E9445
:10438C007C6BDF91CF9110913802153010E009F45D
:10439C001FEF112311F40C944A22CF93DF93109149
:1043AC000B041A9317EC1A930E941D06DF91CF9100
:1043BC00CF93DF9310910B041A9318EC1A930E946D
:1043CC001D06DF91CF91CF93DF9310910B041695BF
:1043DC0010581A931BEC1A930E941D06DF91CF9173
:1043EC00E4E6F0E0F0960E94696C1F9310910C04C7
:1043FC000F91100F1D83CF93DF931D811A9311EE34
:10440C001A930E941D06DF91CF91E4E6F0E0F3963B
:10441C000E94696C1F9310910C040F91100F1D8357
:10442C00CF93DF931D811A9314EE1A930E941D06ED
:10443C00DF91CF91E4E6F0E0F5960E94696C1F9352
:10444C0010910C040F91100F1D83CF93DF931D81DE
:10445C001A9316EE1A930E941D06DF91CF91E4E693
:10446C00F0E0F7960E94696C1F9310910C040F9169
:10447C00100F1D83CF93DF931D811A9318EE1A939F
:10448C000E941D06DF91CF9110913802163010E07A
:10449C0009F41FEF112311F40C94352310910D0422
:1044AC00143610E008F01FEF112311F40C94B7220E
:1044BC00CF93DF93E4E6F0E038960E94696C1A9390
:1044CC0010910D0408EC011B102F1A9314E61A938B
:1044DC000E94126CDF91CF911D83CF93DF931D81CE
:1044EC001A9318EB1A930E941D06DF91CF91CF936C
:1044FC00DF93E4E6F0E034960E94696C1A9314EBB7
:10450C001A930E941D06DF91CF91CF93DF93E4E6BF
:10451C00F0E035960E94696C1A9315EB1A930E9481
:10452C001D06DF91CF91CF93DF93E4E6F0E0369652
:10453C000E94696C1A9316EB1A930E941D06DF9168
:10454C00CF91CF93DF93E4E6F0E03C960E94696C48
:10455C001A931CEB1A930E941D06DF91CF910C94B9
:10456C003523CF93DF93E4E6F0E034960E94696C38
:10457C001A9310910D041A9314E61A930E94126C5C
:10458C00DF91CF911D83CF93DF931D811A9314EB91
:10459C001A930E941D06DF91CF91CF93DF93E4E62F
:1045AC00F0E035960E94696C1A9310910D041A93E1
:1045BC0014E61A930E94126CDF91CF911D83CF9356
:1045CC00DF931D811A9315EB1A930E941D06DF9140
:1045DC00CF91CF93DF93E4E6F0E036960E94696CBE
:1045EC001A9310910D041A9314E61A930E94126CEC
:1045FC00DF91CF911D83CF93DF931D811A9316EB1F
:10460C001A930E941D06DF91CF91CF93DF93E4E6BE
:10461C00F0E03C960E94696C1A9310910D041A9369
:10462C0014E61A930E94126CDF91CF911D83CF93E5
:10463C00DF931D811A931CEB1A930E941D06DF91C8
:10464C00CF91CF93DF93E4E6F0E038960E94696C4B
:10465C001A9318EB1A930E941D06DF91CF910895BF
:10466C00CF93DF930E942C17DF91CF91CF93DF93E1
:10467C000E94891EDF91CF91CF93DF930E94C316C6
:10468C00DF91CF91CF93DF930E94AC14DF91CF9148
:10469C00CF93DF930E94C615DF91CF91CF93DF9319
:1046AC000E940916DF91CF91CF93DF930E94C8131C
:1046BC00DF91CF9110E01093AF021FEF1093AE0279
:1046CC00CF93DF930E941C1FDF91CF9108950E941E
:1046DC00C606CF93DF9318E0412A00EF1BE61A932E
:1046EC000A93E8EFF5EE0E94F16DDF91CF910E94F5
:1046FC00BF0610915304112311F40C94B62301E05E
:10470C0010E020E030E00093CF041093D00420930D
:10471C00D1043093D204E1EAF4E0EF93FF933196A5
:10472C00FA93EA931FE11A9317EF41221FEB4122F0
:10473C00E5E0F6EE0E94F16D1FE11F9318810F91D9
:10474C00011B102FFF91EF91108323960E945608A6
:10475C00CF93DF9312E61A930E94ED00DF91CF9175
:10476C0010915104112311F40C94ED2302E010E08C
:10477C0020E030E00093CF041093D0042093D104B8
:10478C003093D204E1EAF4E0EF93FF933196FA937D
:10479C00EA931FE11A9317EF41221FEB4122E7E145
:1047AC00F6EE0E94F16D1FE11F9318810F91011B12
:1047BC00102FFF91EF91108323960E945608CF93F0
:1047CC00DF9310E61A930E94ED00DF91CF911091C8
:1047DC005204112311F40C94242403E010E020E083
:1047EC0030E00093CF041093D0042093D104309385
:1047FC00D204E1EAF4E0EF93FF933196FA93EA9353
:10480C001FE11A9317EF41221FEB4122EAE2F6EE69
:10481C000E94F16D1FE11F9318810F91011B102F46
:10482C00FF91EF91108323960E945608CF93DF934C
:10483C0011E61A930E94ED00DF91CF9100E010E099
:10484C0020E030E00093170410931804209319040F
:10485C0030931A0410915604112311F40C945F2414
:10486C0004E010E020E030E00093CF041093D0047B
:10487C002093D1043093D204E1EAF4E0EF93FF9358
:10488C003196FA93EA931FE11A9317EF41221FEB2B
:10489C004122EDE3F6EE0E94F16D1FE11F931881AA
:1048AC000F91011B102FFF91EF91108323960E9403
:1048BC00560810915504112311F40C948E2405E024
:1048CC0010E020E030E00093CF041093D00420934C
:1048DC00D1043093D204E1EAF4E0EF93FF933196E4
:1048EC00FA93EA931FE11A9317EF41221FEB41222F
:1048FC00EAE4F6EE0E94F16D1FE11F9318810F910F
:10490C00011B102FFF91EF91108323960E945608E4
:10491C0010915004112311F40C94BD2406E010E006
:10492C0020E030E00093CF041093D0042093D10406
:10493C003093D204E1EAF4E0EF93FF933196FA93CB
:10494C00EA931FE11A9317EF41221FEB4122E6E590
:10495C00F6EE0E94F16D1FE11F9318810F91011B60
:10496C00102FFF91EF91108323960E9456081091FF
:10497C004F04112311F40C94EC2407E010E020E018
:10498C0030E00093CF041093D0042093D1043093E3
:10499C00D204E1EAF4E0EF93FF933196FA93EA93B1
:1049AC001FE11A9317EF41221FEB4122E1E6F6EECD
:1049BC000E94F16D1FE11F9318810F91011B102FA5
:1049CC00FF91EF91108323960E9456081091570483
:1049DC00112311F40C941B2508E010E020E030E0CA
:1049EC000093CF041093D0042093D1043093D204BD
:1049FC00E1EAF4E0EF93FF933196FA93EA931FE127
:104A0C001A9317EF41221FEB4122EEE6F6EE0E94BD
:104A1C00F16D1FE11F9318810F91011B102FFF9156
:104A2C00EF91108323960E94560810914E04112387
:104A3C0011F40C944A2509E010E020E030E00093DA
:104A4C00CF041093D0042093D1043093D204E1EA24
:104A5C00F4E0EF93FF933196FA93EA931FE11A93E4
:104A6C0017EF41221FEB4122EDE7F6EE0E94F16DAC
:104A7C001FE11F9318810F91011B102FFF91EF91D4
:104A8C00108323960E9456080895CF93DF931FEF4F
:104A9C001A930E947E34DF91CF9110E004E60E94BD
:104AAC00206CCF93DF9310E01A9318E41A930E94B2
:104ABC001D06DF91CF9110E004E60E94206CCF938D
:104ACC00DF930E94C316DF91CF91CF93DF9310E059
:104ADC001A930E947E34DF91CF910895CF93DF9388
:104AEC0010E01A9310E01A9310E01A930E948D6A4A
:104AFC00DF91CF91CF93DF9318E0412A07E61AE6B6
:104B0C001A930A93EFE5F8EEEF93FF931A81012FB6
:104B1C001127AEE0B0E0E89445F80E942971FF91AE
:104B2C00EF91E00FF11F0E94F16DDF91CF9110E03A
:104B3C000E94AE6ACF93DF9310E01A9310E01A93A1
:104B4C0011E01A930E948D6ADF91CF9108952197FD
:104B5C00CF93DF9310E01A9310E01A9311E01A939D
:104B6C000E948D6ADF91CF9119811E3210E011F0F5
:104B7C0008F01FEF18831881112311F40C94C92528
:104B8C00198110511983CF93DF9318E0412A07E65E
:104B9C001AE61A930A93EBEDFCEEEF93FF931B814D
:104BAC00012F1127ACE0B0E0E89445F80E94297180
:104BBC00FF91EF91E00FF11F0E94F16DDF91CF910A
:104BCC001881112311F40C94F3251BE20E94676ADF
:104BDC0012E40E94676A0C94F62510E20E94676A40
:104BEC0016E00E94676A10E00E94AE6A0895188170
:104BFC00112311F40C941226CF93DF9318E0412A61
:104C0C0007E61AE61A930A93EDE8F6EE0E94F16DA8
:104C1C00DF91CF910C942026CF93DF9318E0412A9B
:104C2C0007E61AE61A930A93E1E9F6EE0E94F16D93
:104C3C00DF91CF910895E8E0F0E0FA93EA9310E069
:104C4C00108313E01A931081088101171FEF08F0ED
:104C5C001127112311F00C9448265A9A5B9810E0F6
:104C6C0004E60E94206C5A985B9A10E004E60E94BD
:104C7C00206CE981FA81108113951083112311F0B6
:104C8C000C942A2623965A9A5B9A089510915004F4
:104C9C00112311F40C94342710E00E94A56AE8E566
:104CAC00F4E0EF93FF933196FA93EA9318E21A9398
:104CBC0017EF41221FEB41221C81CF93DF931A93F4
:104CCC0012E01A9300E00A9310E21A930E94126EFB
:104CDC00DF91CF9118E21F9318810F91011B102FB8
:104CEC00FF91EF9110832396CF93DF9318E0412A25
:104CFC0007E61AE61A930A93E5E9F6EE0E94F16DBF
:104D0C00DF91CF9119811F9318810F91011710E03A
:104D1C0009F01FEF112311F40C94A526CF93DF9308
:104D2C0018E0412A07E61AE61A930A93E8E5F4E03C
:104D3C000E94FA6DDF91CF9110E20E94676ACF93C7
:104D4C00DF9318E0412A07E61AE61A930A93ECE976
:104D5C00F6EE0E94F16DDF91CF91CF93DF9310E0CF
:104D6C001A9310E01A9311E01A930E948D6ADF9146
:104D7C00CF91CF93DF9318E0412A07E61AE61A93F6
:104D8C000A93EFE9F6EE0E94F16DDF91CF91E8E521
:104D9C00F4E0EF93FF933196FA93EA9318E21A93A7
:104DAC0017EF41221FEB41221B81CF93DF931A9304
:104DBC0012E01A9300E00A9310E21A930E94126E0A
:104DCC00DF91CF9118E21F9318810F91011B102FC7
:104DDC00FF91EF9110832396CF93DF9310E01A93FA
:104DEC0016E01A9311E01A930E948D6ADF91CF910D
:104DFC00CF93DF9318E0412A07E61AE61A930A9339
:104E0C00E8E5F4E00E94FA6DDF91CF911091A303D5
:104E1C00103010E009F41FEF112311F40C94262725
:104E2C00CF93DF9318E0412A07E61AE61A930A9308
:104E3C00E6EAF6EE0E94F16DDF91CF910C943427E7
:104E4C00CF93DF9318E0412A07E61AE61A930A93E8
:104E5C00EDEAF6EE0E94F16DDF91CF910E942126D2
:104E6C00089510915004112311F40C94682710E04C
:104E7C000E94A56ACF93DF9318E0412A07E61AE651
:104E8C001A930A93E4EBF6EE0E94F16DDF91CF9149
:104E9C00CF93DF9310E01A9310E01A9311E01A935A
:104EAC000E948D6ADF91CF91CF93DF9318E0412A56
:104EBC0007E61AE61A930A93E6ECF6EE0E94F16DF9
:104ECC00DF91CF910895109150041095112311F496
:104EDC000C9472270C94C927CF93DF9310E01A938C
:104EEC000E947425DF91CF911881112311F40C9439
:104EFC00B227CF93DF9318E0412A07E61AE61A93FC
:104F0C000A93E5EDF6EE0E94F16DDF91CF911981D8
:104F1C00112311F40C94A227CF93DF9318E0412AAC
:104F2C0007E61AE61A930A93EAEDF6EE0E94F16D83
:104F3C00DF91CF910C94B027CF93DF9318E0412AE7
:104F4C0007E61AE61A930A93EFEDF6EE0E94F16D5E
:104F5C00DF91CF910C94C027CF93DF9318E0412AB7
:104F6C0007E61AE61A930A93E4EEF6EE0E94F16D48
:104F7C00DF91CF9110E00E94AE6A16E910933302D4
:104F8C0010E0109341020895CF93DF9318811A9388
:104F9C000E94FD25DF91CF9116E00E94676A10E018
:104FAC000E94AE6A0895CF93DF9318E0412A07E67A
:104FBC001AE61A930A931A81CF93DF931A9313E08C
:104FCC001A9300E00A9310E21A93689443F80E9433
:104FDC00126EDF91CF91DF91CF9116E00E94676A3C
:104FEC0010E00E94AE6A0895CF93DF9318E0412A37
:104FFC0007E61AE61A930A930A811B81CF93DF9373
:10500C001A930A9313E01A9300E00A9310E21A938E
:10501C00689443F8689445F8E89454F855F80E945D
:10502C004B70DF91CF91DF91CF9116E00E94676AB0
:10503C0010E00E94AE6A0895CF93DF930091AB030A
:10504C00112700FD1FEF1A930E94FD25DF91CF91D0
:10505C000091AB03112700FD1FEF1095112311F4E4
:10506C000C943D2810E00E94AE6A0C94B52810E216
:10507C000E94676A0091AB03112701FD1FEF1123FA
:10508C0011F40C945928CF93DF9318E0412A07E6CA
:10509C001AE61A930A93E9EEF6EE0E94F16DDF918F
:1050AC00CF910C946728CF93DF9318E0412A07E641
:1050BC001AE61A930A93EEEEF6EE0E94F16DDF916A
:1050CC00CF910091AB03112702FD1FEF112311F4B7
:1050DC000C948028CF93DF9318E0412A07E61AE658
:1050EC001A930A93E3EFF6EE0E94F16DDF91CF91E4
:1050FC000C948E28CF93DF9318E0412A07E61AE62A
:10510C001A930A93E8EFF6EE0E94F16DDF91CF91BE
:10511C000091AB03112703FD1FEF112311F40C9425
:10512C00A728CF93DF9318E0412A07E61AE61A93D3
:10513C000A93EDEFF6EE0E94F16DDF91CF910C9496
:10514C00B528CF93DF9318E0412A07E61AE61A93A5
:10515C000A93E0E0F7EE0E94F16DDF91CF91089594
:10516C002197CF93DF930091AB03112704FD1FEF21
:10517C001A930E94FD25DF91CF9110E20E94676A7D
:10518C00CF93DF930091AB03112705FD1FEF1A930B
:10519C000E94FD25DF91CF9110E20E94676A109169
:1051AC00CC031170113010E009F41FEF112311F42E
:1051BC000C94E52813E40E94676A0C94E82816E521
:1051CC000E94676A1091CC0316951F5C1883188196
:1051DC000E94676A10E00E94AE6A089521971981B7
:1051EC001170113010E009F41FEF112311F40C941D
:1051FC004A29198116951983E8E0F0E0FA93EA93AD
:10520C0010E01083EF93FF931B81FF91EF911A93A2
:10521C001081088101171FEF08F01127112311F0DD
:10522C000C94242910E00E94676AE981FA811081AC
:10523C0013951083112311F00C940F292396E8E099
:10524C00F0E0FA93EA93EF93FF931B81FF91EF91B8
:10525C00108316E01A931081088101171FEF08F0D4
:10526C001127112311F00C94472917E00E94676A4B
:10527C00E981FA81108113951083112311F00C949C
:10528C00322923960C949629198116951983E8E0F6
:10529C00F0E0FA93EA9311E01083EF93FF931B81F4
:1052AC00FF91EF911A931081088101171FEF08F0FD
:1052BC001127112311F00C946F2910E00E94676ADA
:1052CC00E981FA81108113951083112311F00C944C
:1052DC005A29239611E00E94676AE8E0F0E0FA93FD
:1052EC00EA93EF93FF931B81FF91EF91108316E0EC
:1052FC001A931081088101171FEF08F01127112351
:10530C0011F00C94952917E00E94676AE981FA81E3
:10531C00108113951083112311F00C94802923967E
:10532C0012E00E94676A16E00E94676A10E00E9411
:10533C00AE6ACF93DF9310E01A931AE01A9311E040
:10534C001A930E948D6ADF91CF910895CF93DF93CA
:10535C001881195F1A9310E11A9310EF1A930E9497
:10536C00126CDF91CF9108952297CF93DF9310E0C9
:10537C001A9310E01A9310E01A930E948D6ADF9131
:10538C00CF91CF93DF9318E0412A07E61AE61A93E0
:10539C000A9310912E04CF93DF931A9312E01A9371
:1053AC0000E00A9310E21A93689443F80E94126E7C
:1053BC00DF91CF91DF91CF9110E20E94676ACF937A
:1053CC00DF9310E01A9312E01A9310E01A930E94E4
:1053DC008D6ADF91CF911091A303103010E009F486
:1053EC001FEF112311F40C94002A16E00E94676A37
:1053FC000C94032A10E20E94676ACF93DF9318E0A3
:10540C00412A07E61AE61A930A93E3E0F7EE0E94A4
:10541C00F16DDF91CF91E8E0F0E0FA93EA9310E0C0
:10542C00108318E01A931081088101171FEF08F000
:10543C001127112311F00C94462ACF93DF93E3EC40
:10544C00F3E0EF93FF93182D012F1127FF91EF91AC
:10545C00E00FF11F11911A930E94AC29DF91CF91AB
:10546C001B831B81105D1C831C810E94676AE98170
:10547C00FA81108113951083112311F00C941A2AC0
:10548C002396CF93DF9310E01A9310E01A9311E058
:10549C001A930E948D6ADF91CF91CF93DF9318E01E
:1054AC00412A07E61AE61A930A9310912F04CF9318
:1054BC00DF931A9312E01A9300E00A9310E21A9306
:1054CC00689443F80E94126EDF91CF91DF91CF91D7
:1054DC0010E20E94676ACF93DF9310E01A9312E0F8
:1054EC001A9311E01A930E948D6ADF91CF9110915B
:1054FC00A303103010E009F41FEF112311F40C94E6
:10550C008C2A10E20E94676A0C948F2A16E00E9483
:10551C00676A10E50E94676ACF93DF931091DB03F3
:10552C001A930E94AC29DF91CF9118831881105DDA
:10553C00198319810E94676ACF93DF931091DD0361
:10554C001A930E94AC29DF91CF9118831881105DBA
:10555C00198319810E94676A1CE40E94676AE8E05B
:10556C00F0E0FA93EA9310E0108318E01A9310819C
:10557C00088101171FEF08F01127112311F00C946B
:10558C00EA2ACF93DF93E2EDF3E0EF93FF93182D2C
:10559C00012F1127FF91EF91E00FF11F11911A9339
:1055AC000E94AC29DF91CF911B831B81105D1C8362
:1055BC001C810E94676AE981FA811081139510831E
:1055CC00112311F00C94BE2A239608952697198561
:1055DC00163910E008F01FEF112311F40C94FC2A7B
:1055EC0010E00AE01D830C830C941E2B19851035DA
:1055FC0010E008F01FEF112311F40C940B2B10E0AA
:10560C0005E01D830C830C941E2B1985183210E0B9
:10561C0008F01FEF112311F40C941A2B10E002E088
:10562C001D830C830C941E2B10E001E01D830C8356
:10563C00FE01EF93FF931E81FF91EF9111931E8159
:10564C001F3710E011F008F01FEF112311F40C9428
:10565C00352BFE0131961FEF11930C94392BFE0163
:10566C00319610E01193088119810F931F930C81CF
:10567C001D81689445F8BF91AF910E9429711983DF
:10568C0008831985012F11270F931F930881198106
:10569C003F912F91020F131F1B830A830A811B81D9
:1056AC000F931F930C811D81689445F8BF91AF91A6
:1056BC000E944A710F931F930C811D81689445F8C9
:1056CC00BF91AF910E9429711B830A830A811B81B0
:1056DC001A930A931A85012F11271A930A931B8583
:1056EC00012F11271A930A930E9404722696102FE9
:1056FC000895CF93DF9310E01A931FE01A9310E0F4
:10570C001A930E948D6ADF91CF911A811F93188191
:10571C000F9101171FEF08F01127112311F40C94AE
:10572C009C2B13E00E94676A0C949F2B10E20E9442
:10573C00676ACF93DF9310E01A931FE01A9311E07E
:10574C001A930E948D6ADF91CF911A811F93198150
:10575C000F91011710E011F008F01FEF112311F455
:10576C000C94BD2B14E00E94676A0C94C02B10E2C1
:10577C000E94676A0895229710E00E94BF6A176C16
:10578C0010933A020A811B81103009F4003010E0AA
:10579C0011F008F01FEF112311F40C94D92B0A818E
:1057AC001B810E94206C10913A021F3F10E009F4FB
:1057BC001FEF112311F40C94E82B10E00C94EB2B3D
:1057CC000C94EB2B1FEF0C94EB2B0895229710915C
:1057DC003D0219831981188319811F9310913C0282
:1057EC000F91011B102F1983188110933C02198102
:1057FC000895CF93DF9310E01A931EE01A9310E0F4
:10580C001A930E948D6ADF91CF911881112311F4A4
:10581C000C94152C1AE20E94676A0C94182C10E256
:10582C000E94676A089528971091500410951F9351
:10583C001985103010E009F41FEF0F91102B112374
:10584C0011F40C942B2C0C94E0311885103010E0D2
:10585C0009F01FEF1883EDE0F8EEEF93FF93198535
:10586C00012F1127FF91EF91E00FF11F14911D8370
:10587C001D81113010E009F41FEF198319851D30BB
:10588C0010E009F41FEF112311F40C94682CCF9342
:10589C00DF9310912E041A9310E01A931FE01A93C1
:1058AC001B851A930E94EC2ADF91CF9110932E0442
:1058BC00CF93DF930E94BA29DF91CF910C94E03102
:1058CC000C948A2C19851E3010E009F41FEF11235B
:1058DC0011F40C948A2CCF93DF9310912F041A930C
:1058EC0010E01A931FE01A931B851A930E94EC2A5E
:1058FC00DF91CF9110932F04CF93DF930E94BA299D
:10590C00DF91CF910C94E031CF93DF9319851A93EB
:10591C000E947425DF91CF911FEF1C83E2ECF3E022
:10592C00EF93FF931985012F1127FF91EF91E00F52
:10593C00F11F11911F8310E01B831985113010F496
:10594C000C94AF2C193019F010F00C94AF2C0C9463
:10595C00B82C103110F40C94F82C1B3119F010F0F9
:10596C000C94F82C1F811695169516951F83CF93C2
:10597C00DF931F811A9310E01A931FE01A931B8573
:10598C001A930E94EC2ADF91CF911F83CF93DF9360
:10599C001F811A930E94F428DF91CF91CF93DF934C
:1059AC001F811A9310E01A931FE01A930E947F2B09
:1059BC00DF91CF91E2ECF3E0EF93FF931985012F88
:1059CC001127FF91EF91E00FF11FEF93FF931F81D0
:1059DC00110F110F110FFF91EF9111931FEF1B83FB
:1059EC000C94862F1A3011F00C94402DCF93DF932A
:1059FC001F811A9310E01A931F811A931B851A9317
:105A0C000E94EC2ADF91CF911093CC03CF93DF93BC
:105A1C000E94B628DF91CF91CF93DF9310E01A93B9
:105A2C001FE01A9310E01A930E948D6ADF91CF91B8
:105A3C0010E20E94676ACF93DF9310E01A931AE08A
:105A4C001A9311E01A930E948D6ADF91CF9116E0A0
:105A5C000E94676ACF93DF931F811A9310E01A9309
:105A6C001F811A930E947F2BDF91CF911FEF1B8315
:105A7C000C94862F1B3011F00C94782D1881112367
:105A8C0011F40C94582D0091AB03112704FD1FEF5A
:105A9C001095E894112309F068941091AB0314F954
:105AAC001093AB030091AB03112704FD1FEF109370
:105ABC00CD03CF93DF930E94B628DF91CF91CF9384
:105ACC00DF9310E01A9313E01A9311E01A930E94DB
:105ADC008D6ADF91CF9116E00E94676A1FEF1B83DE
:105AEC000C94862F1C3011F00C94E42D1091AB0308
:105AFC001F701F831F81012F11E00695111FE8F7FE
:105B0C0016951695169516951F83CF93DF931F81C7
:105B1C001A9317E01A931FE01A931B851A930E948D
:105B2C00EC2ADF91CF911F831F811E831F81012FD0
:105B3C0011E00695111FE8F7169516951695169512
:105B4C001F831881112311F40C94B52D1091AB0304
