:10007C0010B11370B12E1B2D1F931C2D0F91011756
:10008C0010E009F01FEF112311F40C9481001B2DCB
:10009C00103010E009F41FEF112311F40C947D00C3
:1000AC001D2D133010E009F41FEF112311F40C94E3
:1000BC007D001C2D113010E009F41FEF112311F4F9
:1000CC000C946F0010913D02139510933D020C940B
:1000DC007D001C2D123010E009F41FEF112311F4D8
:1000EC000C947D0010913D021A9510933D021C2D2D
:1000FC00D12E1B2DC12E089510E015BF10E01093CA
:10010C00690010E01DBB10E01093680010E0109324
:10011C00600010E01093610010E014BF1124F894FB
:10012C00A8951FBACFEFD0E1DEBBCDBB11E0A0E0AC
:10013C00B1E0ECEFFFEF02C005900D92A230B107D9
:10014C00D9F712E0A2E0B1E001C01D92AD30B107C9
:10015C00E1F70E94B300F894FFCF14BEA8958091EC
:10016C0060008861809360001092600005B7102FCA
:10017C00016005BF12E015BF0C945A7D08951091D3
:10018C00390213951093390210913902183010E08E
:10019C0009F41FEF112311F40C94D70010E0109305
:1001AC003902089518811F9316E11F93E89440F8C3
:1001BC00E1E1F3E0A4E0B0E03F914F9150E00E9408
:1001CC008B69089500E010E020E030E0009311030B
:1001DC00109312032093130330931403CF93DF93E4
:1001EC0018811A930E94D800DF91CF9118811F9328
:1001FC0012E01F93E89440F8E6E1F0E03F914F9154
:10020C00A1E0B0E060E050E00E948B6918811F9380
:10021C0013E01F93E89440F8E6E1F0E03F914F9132
:10022C00A1E0B0E068E250E00E948B6918811F9356
:10023C0014E01F93E89440F8E6E1F0E03F914F9111
:10024C00A1E0B0E064E150E00E948B6918811F933B
:10025C0015E01F93E89440F8E6E1F0E03F914F91F0
:10026C00A1E0B0E060E850E00E948B6900E010E093
:10027C0020E030E00093110310931203209313033A
:10028C0030931403CF93DF9318811A930E94D800F4
:10029C00DF91CF91089519E1109333025A98089584
:1002AC001AE0109333025A980895219710E51F9382
:1002BC0009811A811F93E89440F809811A81102F43
:1002CC00E6E1F0E0612FA1E0B0E03F914F9150E00A
:1002DC000E948B6910E51F93FE01A1E0B0E04F91E5
:1002EC000E94686918810895CF93DF9310E51A93E3
:1002FC000A811B811A930A93FE0133968F011A937C
:10030C000A9310E001E01A930A930E948169DF912D
:10031C00CF9110E007E00E941B6A08952297CF93BB
:10032C00DF9310E51A930F8118851A930A93FE0137
:10033C0035968F011A930A9310E004E01A930A93EE
:10034C000E948169DF91CF9110E007E00E941B6A47
:10035C0008952B971BB11F701F931C85110F110F44
:10036C00110F110F0F91102B1BB913E910937A0079
:10037C0011E00E942A6A13EC10937A0010917A0013
:10038C001071103010E009F01FEF112311F40C94D0
:10039C00C40113E810937A001C85E9E8F2E01F71A0
:1003AC000027E10FF01F108118831881012F1127EE
:1003BC001E830D830D811E81015010401C830B8305
:1003CC001C85E9E6F2E01F710027E10FF01F108198
:1003DC00012F112718870F8310917900012F1127F6
:1003EC000F931F930B811C81019509F41A9510959D
:1003FC003F912F91020F131F1A87098709851A85C0
:10040C00A0E81A27103809F400301FEF08F0112764
:10041C00112311F40C94160210E000E01A870987DE
:10042C0009851A850F931F930F8118850F931F93BE
:10043C000D811E813F912F91020F131F98011F9167
:10044C000F91A0E81A273A27131709F4021710E0A6
:10045C0011F008F01FEF1F9309851A850F931F9356
:10046C000F8118850F931F930B811C81019509F443
:10047C001A9510953F912F91020F131F98011F9100
:10048C000F91A0E81A273A27131709F402171FEF48
:10049C0008F011270F91102B112311F40C947B02EF
:1004AC0012E319831C851F931981E9ECF2E0AF91DB
:1004BC00AF71BB27EA0FFB1F10831C851F931B8595
:1004CC00E9EAF2E0AF91AF71BB27EA0FFB1F108393
:1004DC001C851F9313E0E9E8F2E0AF91AF71BB27E5
:1004EC00EA0FFB1F10830C9484021C85E9ECF2E0EC
:1004FC001F710027E10FF01F1081198309851A85E0
:10050C000F931F930F8118853F912F91020F131F8B
:10051C00112312F40F5F1F4F159507951A87098742
:10052C001981103010E009F41FEF112311F40C9411
:10053C00B502188115301FEF08F01127112311F4A3
:10054C000C94B3021C851F9315E0E9E8F2E0AF911F
:10055C00AF71BB27EA0FFB1F10830C94E3020985D4
:10056C001A850F931F930F81188598011F910F9176
:10057C00A0E81A273A27131709F4021710E009F01C
:10058C001FEF112311F40C94E3021C851F931B85A0
:10059C00E9EAF2E0AF91AF71BB27EA0FFB1F1083C2
:1005AC001C851F9309851A85102FE9E6F2E0AF919F
:1005BC00AF71BB27EA0FFB1F108308952397149A82
:1005CC001598169ACF93DF931BE01A931FEF1A938B
:1005DC000E94AF01DF91CF9110913902103011F0D0
:1005EC000C9423031498159A169AFE013296FA93DA
:1005FC00EA9310E0108317E01A9310810881011719
:10060C001FEF08F01127112311F00C942003CF9346
:10061C00DF931D811A931F811A930E94AF01DF9102
:10062C00CF91E981FA81108113951083112311F078
:10063C000C94040323960C94F403113011F00C94D5
:10064C007803149A1598169AFE013296FA93EA9347
:10065C0018E010831AE01A931081088101171FEF1C
:10066C0008F01127112311F00C944F03CF93DF9353
:10067C001D811A931F811A930E94AF01DF91CF91B4
:10068C00E981FA81108113951083112311F00C94D8
:10069C0033032396FE013296FA93EA931CE01083FF
:1006AC001FE01A931081088101171FEF08F0112722
:1006BC00112311F00C947503CF93DF931D811A93C2
:1006CC001F811A930E94AF01DF91CF91E981FA81CA
:1006DC00108113951083112311F00C945903239658
:1006EC000C94F403123011F00C94A703149A159A7D
:1006FC001698FE013296FA93EA9310E1108317E1F3
:10070C001A931081088101171FEF08F0112711238C
:10071C0011F00C94A403CF93DF931D811A931F81C6
:10072C001A930E94AF01DF91CF91E981FA81108178
:10073C0013951083112311F00C94880323960C94B9
:10074C00F403133011F00C94F4031FEF00913602F4
:10075C00002309F01095112311F40C94F20314E109
:10076C0010933602FE013296FA93EA9310E010834E
:10077C0017E11A931081088101171FEF08F0112758
:10078C00112311F00C94F1031D81E9ECF2E01F71BF
:10079C000027E10FF01F10811C83FE0134961127F6
:1007AC00008170E0701718F40A9500831FEF1D810B
:1007BC001F931C81E9ECF2E0AF91AF71BB27EA0FFC
:1007CC00FB1F1083E981FA8110811395108311238B
:1007DC0011F00C94C10323960C94F403089510911A
:1007EC0036042B981EBD1DB517FFFDCF1EB51093FB
:1007FC0037042B9A0895109133042B981EBD1DB508
:10080C0017FFFDCF1EB510933504109132041EBD99
:10081C001DB517FFFDCF1EB5109334042B9A089508
:10082C0010912D042B981EBD1DB517FFFDCF1EB5C5
:10083C001093310410912C041EBD1DB517FFFDCF74
:10084C001EB51093300410912B041EBD1DB517FF5F
:10085C00FDCF1EB510932F0410912A041EBD1DB59B
:10086C0017FFFDCF1EB510932E042B9A08951091EF
:10087C00280429981EBD1DB517FFFDCF1091270424
:10088C001EBD1DB517FFFDCF299A08951091380490
:10089C0008E0449817FD449A459A110F45980A951B
:1008AC00C1F70895E0E0FFE01081459808B117FB0F
:1008BC0004F908B9459A16FB04F908B9459A15FBD1
:1008CC0004F908B9459A14FB04F908B9459A13FBC5
:1008DC0004F908B9459A12FB04F908B9459A11FBB9
:1008EC0004F908B9459A10FB04F908B9459A4598DA
:1008FC00E395D1F60895109139041EBD1DB517FF6F
:10090C00FDCF1EB510933A040895289815E0109366
:10091C0039040E9481040E948104289A10913A049F
:10092C000895289815E0109339040E9481040E94C0
:10093C00810410913A041170103010E009F41FEF8B
:10094C00112311F40C949D04289A0895289816E00C
:10095C00109339040E948104289A08950E94AC04D3
:10096C00289811E0109339040E94810410E0109330
:10097C0039040E948104289A0E94970408950E94C9
:10098C00AC04289811E0109339040E9481041FE3F1
:10099C00109339040E948104289A0E9497040895A8
:1009AC000E94AC0428983B812A811981088100930C
:1009BC003B0410933C0420933D0430933E0410E21E
:1009CC00109339040E94810410913D041093390452
:1009DC000E94810410913C04109339040E948104FC
:1009EC0010913B04109339040E948104289A0E94B0
:1009FC00970410913A041072103010E009F01FEFB8
:100A0C00E894112309F0689410911E0412F91093C4
:100A1C001E0400911E04112702FD1FEF109508956E
:100A2C000E94AC04289817EC109339040E9481049E
:100A3C00289A0E94970410913A041072103010E01A
:100A4C0009F01FEFE894112309F0689410911E042B
:100A5C0012F910931E0400911E04112702FD1FEFC2
:100A6C0010950895219709811A8101501040102F7B
:100A7C0018830E94AC0428983E812D811C810B8127
:100A8C0000933B0410933C0420933D0430933E04AC
:100A9C0012E0109339040E94810410913D041093CC
:100AAC0039040E94810410913C04109339040E9473
:100ABC00810410913B04109339040E948104E7E0F7
:100ACC00F0E0FA93EA9310E01083EF93FF931A810E
:100ADC00FF91EF911A931081088101171FEF08F015
:100AEC001127112311F00C949005172DE0E0FFE075
:100AFC001F7F0027E10FF01F1081109339040E9413
:100B0C008104E981FA81108113951083112311F06E
:100B1C000C9472052396289A0E94970410913A041B
:100B2C001072103010E009F01FEFE894112309F057
:100B3C00689410911E0412F910931E0400911E0467
:100B4C00112702FD1FEF1095089521970E9497041D
:100B5C000A811B8101501040102F18833F812E8178
:100B6C001D810C8100933B0410933C0420933D04A5
:100B7C0030933E0428981BE0109339040E948104A2
:100B8C0010913D04109339040E94810410913C048F
:100B9C00109339040E94810410913B041093390482
:100BAC000E94810410E0109339040E948104E7E054
:100BBC00F0E0FA93EA9310E01083EF93FF931A811D
:100BCC00FF91EF911A931081088101171FEF08F024
:100BDC001127112311F00C941D060E9481041C8115
:100BEC00112311F40C940806172D1F9310913A043D
:100BFC00E0E0FEE0AF91AF7FBB27EA0FFB1F108355
:100C0C000C941406172D1F9310913A04E0E0FFE0AA
:100C1C00AF91AF7FBB27EA0FFB1F1083E981FA81ED
:100C2C00108113951083112311F00C94EA0523966F
:100C3C00289A0895E7E2F4E0EF93FF931881FF916F
:100C4C00EF911193E8E2F4E010E011930E943D045F
:100C5C000E94160400912E0410912F042091300450
:100C6C00309131040895E7E2F4E0EF93FF9318819B
:100C7C00FF91EF911193E8E2F4E010E811930E94D8
:100C8C003D04E2E3F4E0EF93FF931981FF91EF91C0
:100C9C001193E3E3F4E010E011930E940104089532
:100CAC00E7E2F4E0EF93FF931881FF91EF9111933A
:100CBC00E8E2F4E010E811930E943D0409811A81E6
:100CCC0000933204109333040E9401040895E7E268
:100CDC00F4E0EF93FF931881FF91EF911193E8E209
:100CEC00F4E010E811930E943D043C812B811A81A1
:100CFC00098100932A0410932B0420932C04309325
:100D0C002D040E9416040895CF93DF9310EF1A93CD
:100D1C000E942006DF91CF910093FE031093FF03F6
:100D2C002093000430930104E8E0F0E00E94726A22
:100D3C000093FE031093FF032093000430930104EF
:100D4C00CF93DF930091FE031091FF0320910004D9
:100D5C00309101043A932A931A930A9310EF1A9341
:100D6C000E946D06DF91CF91ECE0F0E00E94726A78
:100D7C000093FE031093FF032093000430930104AF
:100D8C00CF93DF930091FE031091FF032091000499
:100D9C00309101043A932A931A930A9311EF1A9300
:100DAC000E946D06DF91CF9108951DE00E94EB69C2
:100DBC001AE00E94EB69089513E20E94EB6910910E
:100DCC004702105D0E94EB691AE30E94EB69CF9316
:100DDC00DF9318E0412A0BEE19E61A930A9300915F
:100DEC00F7031091F803CF93DF931A930A9310E053
:100DFC001A9310E01A9310E21A93689443F86894CB
:100E0C0045F8E89454F855F80E94466EDF91CF915E
:100E1C00DF91CF911DE30E94EB690895CF93DF938F
:100E2C0018E0412A0BEE19E61A930A93E0EBF3E073
:100E3C000E94F56BDF91CF910E94DB0608952297FB
:100E4C0010910504112311F40C943A0716E00E943A
:100E5C00EB691A810E94EB6910E00E94EB6910E0CB
:100E6C000E94EB690C947E0710E00FEF0093F703E0
:100E7C001093F8030E94E206CF93DF9318E0412A07
:100E8C000BEE19E61A930A931C81CF93DF931A93F6
:100E9C0010E01A9310E01A9310E21A93689443F836
:100EAC000E940D6CDF91CF91DF91CF9110E20E94E7
:100EBC00EB69CF93DF9318E0412A0BEE19E61A93F6
:100ECC000A93EEEEF3EEEF93FF931C81012F1127A3
:100EDC00ADE0B0E0E89445F80E94306FFF91EF91DF
:100EEC00E00FF11F0E94EC6BDF91CF910E94DB06AB
:100EFC0008950E94E206CF93DF9318E0412A0BEE8F
:100F0C0019E61A930A93E7E8F3E00E94F56BDF9178
:100F1C00CF910E94DB06089510910504112311F462
:100F2C000C94AD0716E00E94EB6910E00E94EB698F
:100F3C000091FB031091FC030E94EB690091FB03F1
:100F4C001091FC03102F0E94EB690C94E407E7E866
:100F5C00F3E0EF93FF933196FA93EA9318E21A9326
:100F6C0017EF41221FEB41220091FE031091FF036A
:100F7C002091000430910104CF93DF933A932A938C
:100F8C001A930A9310E01A9310E01A9310E21A9332
:100F9C00689445F8E89454F855F842F80E944D6C62
:100FAC00DF91CF9118E21F9318810F91011B102F25
:100FBC00FF91EF91108323960E947F070895009173
:100FCC00FB031091FC0317FF03C03FEF2FEF02C090
:100FDC00332722270093FE031093FF032093000472
:100FEC00309301040E949207089510910404012F7C
:100FFC0011270093FB031093FC030E94E50708954F
:10100C000E94E206E7E8F3E0EF93FF933196FA9340
:10101C00EA9318E21A9317EF41221FEB4122009139
:10102C00FE031091FF032091000430910104CF9333
:10103C00DF933A932A931A930A9310E01A9310E0D1
:10104C001A9310E21A93689445F8E89454F855F8FA
:10105C0042F80E944D6CDF91CF9118E21F931881DA
:10106C000F91011B102FFF91EF9110832396CF93BB
:10107C00DF9318E0412A0BEE19E61A930A93E7E87E
:10108C00F3E00E94F56BDF91CF9110E20E94EB69C7
:10109C001BE50E94EB6914E20E94EB69E7E8F3E0C0
:1010AC00EF93FF933196FA93EA9318E21A9317EFA2
:1010BC0041221FEB41220091FE031091FF0320916E
:1010CC00000430910104B801C901492F0E94B56E8A
:1010DC00482F0E94B56E472F0E94B56E462F0E9476
:1010EC00B56E18E21F9318810F91011B102FFF9101
:1010FC00EF9110832396CF93DF9318E0412A0BEEE8
:10110C0019E61A930A93E7E8F3E00E94F56BDF9176
:10111C00CF911DE50E94EB690E94DB0608950E94A9
:10112C00E206E7E8F3E0EF93FF933196FA93EA9344
:10113C0018E21A9317EF41221FEB41220091FE0394
:10114C001091FF032091000430910104CF93DF93A1
:10115C003A932A931A930A9310E01A9310E01A9375
:10116C0010E21A93689445F8E89454F855F842F84C
:10117C000E944D6CDF91CF9118E21F9318810F9153
:10118C00011B102FFF91EF9110832396CF93DF93C8
:10119C0018E0412A0BEE19E61A930A93E7E8F3E0FC
:1011AC000E94F56BDF91CF91CF93DF9318E0412A2A
:1011BC000BEE19E61A930A93ECECF0EE0E94EC6B32
:1011CC00DF91CF91CF93DF9318E0412A0BEE19E614
:1011DC001A930A93E0EDF3E00E94F56BDF91CF9147
:1011EC001DE50E94EB690E94DB0608950E948B04AA
:1011FC001F7E103010E009F01FEF112311F40C9436
:10120C0022090E94E206CF93DF9318E0412A0BEEED
:10121C0019E61A930A93EFECF0EE0E94EC6B1DE0CA
:10122C000E94C26E1AE00E94C26EDF91CF911FEF36
:10123C000C9425090C94250910E00C9425090895AB
:10124C002C971AE314B91FE915B910E717B91FEC5D
:10125C0018B910911E041B7F10931E04469815E0BC
:10126C000E942A6A469A15E00E942A6A10E317B96E
:10127C0016E206EB0093F7031093F80311E004EF6A
:10128C000E941B6A1BEB14B91FE915B90E94E206F8
:10129C00112737991FEF112311F40C94A909CF933F
:1012AC00DF9313E01A930E942006DF91CF910091F7
:1012BC002E0410912F0420913004309131043F837F
:1012CC002E831D830C83CF93DF9318E0412A0BEE02
:1012DC0019E61A930A93E0EEF0EE0E94EC6BDF91A4
:1012EC00CF91CF93DF9318E0412A0BEE19E61A93B6
:1012FC000A93398528851F810E81689443F8B801BB
:10130C00C901492F0E94B56E482F0E94B56E472F18
:10131C000E94B56E462F0E94B56EDF91CF91CF9390
:10132C00DF9318E0412A0BEE19E61A930A93EBEEC1
:10133C00F0EE0E94EC6BDF91CF910E948A060E9426
:10134C00DB060C94BE09CF93DF9318E0412A0BEE19
:10135C0019E61A930A93E0EFF0EE0E94EC6BDF9122
:10136C00CF9110911E04146010931E040E94DB0692
:10137C000895E8E2F4E010E81193E7E2F4E0EF936B
:10138C00FF9310913F041F5FFF91EF9111930E9407
:10139C003D0410914004109336040E94F503E7E2DB
:1013AC00F4E010913F0411930E943D040895E8E28B
:1013BC00F4E010E81193E7E2F4E0EF93FF9310915F
:1013CC003F041F5FFF91EF9111930E943D04109118
:1013DC004004109336040E94F503089510911604EE
:1013EC00112311F40C94280A10E00E94A068CF93EA
:1013FC00DF9318E0412A02E618E61A930A93EBE011
:10140C00F1EE0E94EC6BDF91CF91CF93DF9310E064
:10141C001A9310E01A9311E01A930E948868DF91D6
:10142C00CF91CF93DF9318E0412A02E618E61A9386
:10143C000A93E4E1F1EE0E94EC6BDF91CF9110E0A6
:10144C000E94A968089510911604112311F40C94AC
:10145C00880A1127062D017009F41095112311F437
:10146C000C94860ACF93DF9310E01A9310E01A9332
:10147C0011E01A930E948868DF91CF91CF93DF938C
:10148C0018E0412A02E618E61A930A93EDE1F1EE10
:10149C000E94EC6BDF91CF91CF93DF9318E0412A40
:1014AC0002E618E61A930A93009122041091230481
:1014BC002091240430912504CF93DF933A932A93FF
:1014CC001A930A9318E01A9300E00A9310E21A9305
:1014DC00689443F8689445F8E89454F855F842F841
:1014EC000E944D6CDF91CF91DF91CF9110E00E9463
:1014FC00A96810E002E3E4E3F2E0B1E00E940270BC
:10150C000C948C0A10E002E00E941B6A0895109162
:10151C001604112311F40C94AD0ACF93DF9310E051
:10152C001A9310E01A9311E01A930E948868DF91C5
:10153C00CF91CF93DF9318E0412A02E618E61A9375
:10154C000A93E6E2F1EE0E94EC6BDF91CF910895E5
:10155C0010911604112311F40C94CE0ACF93DF933F
:10156C0010E01A9310E01A9311E01A930E94886805
:10157C00DF91CF91CF93DF9318E0412A02E618E672
:10158C001A930A93E0E3F1EE0E94EC6BDF91CF919A
:10159C00089565970E94E206CF93DF9318E0412AE5
:1015AC000BEE19E61A930A93E7E3F1EE0E94EC6B4B
:1015BC001DE00E94C26E1AE00E94C26EDF91CF91B4
:1015CC0010E01A8710E0188710E01C8B10E0198BC4
:1015DC001FEF188B00E010E020E030E000932204B5
:1015EC0010932304209324043093250410E000E08E
:1015FC001C870B870E94F40910E000E01983088314
:10160C0010E000E01B830A83388D2F891E890D8919
:10161C003F832E831D830C831A851095112311F49F
:10162C000C94810B10E000E01C870B8711275A9952
:10163C001FEF1095E894112309F068941BB112F96F
:10164C001BB9CF93DF93FE017496FA93EA9314E6D9
:10165C001A930E94B469DF91CF911A871A851123CE
:10166C0011F40C94520B1C89113010E009F41FEF8B
:10167C001F931C89143010E009F41FEF0F91102BED
:10168C00112311F40C94500B10E000E01C870B8715
:10169C000C94810B0C945C0B15E10E94EB69FE0120
:1016AC003B96A081B1811196A083B1831C89113026
:1016BC0010E009F41FEF1F931C89143010E009F49B
:1016CC001FEF0F91102B1F931C89183110E009F498
:1016DC001FEF0F91102B1F930B851C85103009F4F5
:1016EC00043110E011F008F01FEF0F91102B1123B3
:1016FC0011F40C94270B18851095112311F40C94EC
:10170C008B0B0E94290A1FEF18871C89113010E0DF
:10171C0009F41FEF112311F40C94BF0CCF93DF933A
:10172C00FE017396FA93EA9314E61A930E94B46935
:10173C00DF91CF9119871985112311F40C94B90CF1
:10174C00CF93DF93FE017296FA93EA931AE01A9301
:10175C000E94B469DF91CF9119871B890FEF011B90
:10176C00102F1F931A890F91011710E009F41FEF26
:10177C00112311F40C94B70C10E0198BE8E0F0E095
:10178C00FA93EA9310E010831FE71A9310810881F3
:10179C0001171FEF08F01127112311F00C94FD0B0A
:1017AC00CF93DF93EAE0F0E0FA93EA931AE01A930E
:1017BC000E94B469DF91CF911C871C891F931A2D4D
:1017CC000F91100F1C8B182D1F931A2DE0E0FFE0CA
:1017DC00AF91AF7FBB27EA0FFB1F1083E981FA8122
:1017EC00108113951083112311F00C94CD0B2396BB
:1017FC00CF93DF93FE017096FA93EA931AE01A9353
:10180C000E94B469DF91CF911987CF93DF933F8109
:10181C002E811D810C813A932A931A930A9310E01E
:10182C0000E81A930A930E943805DF91CF91109526
:10183C00112311F40C94290CFE013296A081B18174
:10184C001196A083B183CF93DF933F812E811D81AD
:10185C000C813A932A931A930A9310E000E81A9396
:10186C000A931FEF1A930E94AB05DF91CF91E8E02A
:10187C00F0E0FA93EA9310E010831FE71A931081BB
:10188C00088101171FEF08F01127112311F00C9498
:10189C00790C182DE0E0FEE01F7F0027E10FF01F10
:1018AC0010811F93182DE0E0FFE01F7F0027E10F50
:1018BC00F01F10810F91011710E009F01FEF112399
:1018CC0011F40C94700CFE013396A081B181119629
:1018DC00A083B183E981FA811081139510831123C0
:1018EC0011F00C94460C239619891F9318890F91AB
:1018FC00011710E009F41FEF112311F40C94AD0C37
:10190C0016E00E94EB693F812E811D810C810058ED
:10191C001F4F2F4F3F4F3F832E831D830C8300910E
:10192C0022041091230420912404309125040058A2
:10193C001F4F2F4F3F4F00932204109323042093EB
:10194C002404309325040E94290A0C94B70CFE0140
:10195C003B96A081B1811196A083B18315E10E94C1
:10196C00EB690C94BD0C10E00FEF1C870B8710E09B
:10197C001C8B10E01A871C89143010E009F41FEF3F
:10198C001F931C89183110E009F41FEF0F91102BD5
:10199C001F930B851C85103009F4043110E011F0F5
:1019AC0008F01FEF0F91102B112311F40C94120B54
:1019BC0016E00E94EB6918891F9319890F91011782
:1019CC0010E009F01FEF112311F40C94130D0FEF1D
:1019DC001FEF2FEF3FEF0093FE031093FF032093B5
:1019EC000004309301040E94E206CF93DF9318E0C9
:1019FC00412A0BEE19E61A930A93EAE4F1EE0E94DF
:101A0C00EC6B1DE00E94C26E1AE00E94C26EDF9168
:101A1C00CF910E948D0A0C942D0D009122041091EF
:101A2C00230420912404309125040093FE03109389
:101A3C00FF032093000430930104E4E3F2E00EEF83
:101A4C000E94F86F0E94290A10E010933E02088150
:101A5C001981103009F4003010E009F01FEF112348
:101A6C0011F40C948F0D0FEF1FEF2FEF3FEF00933E
:101A7C00FE031093FF0320930004309301040E9493
:101A8C00E206CF93DF9318E0412A0BEE19E61A9386
:101A9C000A93E1E6F1EE0E94EC6BDF91CF91CF93CC
:101AAC00DF9318E0412A0BEE19E61A930A930A8188
:101ABC001B81CF93DF931A930A9310E01A9310E0D3
:101ACC001A9310E21A93689443F8E89445F8E89452
:101ADC0054F855F80E94466EDF91CF91DF91CF916B
:101AEC00CF93DF9318E0412A0BEE19E61A930A9371
:101AFC00E2E7F1EE0E94EC6B1DE00E94C26E1AE070
:101B0C000E94C26EDF91CF910E94AE0A10E010933A
:101B1C003E020A811B81103009F4003010E009F0FC
:101B2C001FEF112311F40C94F10D0FEF1FEF2FEF9A
:101B3C003FEF0093FE031093FF03209300043093B8
:101B4C0001040E94E206CF93DF9318E0412A0BEECA
:101B5C0019E61A930A93EBE7F1EE0E94EC6BDF9116
:101B6C00CF91CF93DF9318E0412A0BEE19E61A932D
:101B7C000A930C811D81CF93DF931A930A9310E083
:101B8C001A9310E01A9310E21A93689443F8E894AD
:101B9C0045F8E89454F855F80E94466EDF91CF91C1
:101BAC00DF91CF91CF93DF9318E0412A0BEE19E62A
:101BBC001A930A93E2E7F1EE0E94EC6B1DE00E948F
:101BCC00C26E1AE00E94C26EDF91CF910E94AE0AE3
:101BDC0010E010933E0208952297CF93DF9312E00A
:101BEC001A930E942006DF91CF9111271A991FEFAB
:101BFC00112311F40C94F30D0E94E206CF93DF93A2
:101C0C0018E0412A0BEE19E61A930A93109140043E
:101C1C00CF93DF931A9310E01A9310E01A9310E20B
:101C2C001A93689443F80E940D6CDF91CF91DF9169
:101C3C00CF91CF93DF9318E0412A0BEE19E61A935C
:101C4C000A93EBE8F1EE0E94EC6BDF91CF911091CF
:101C5C0030041A3A10E009F41FEF112311F40C941C
:101C6C00150F10912E04103511F00C944D0ECF93CE
:101C7C00DF9318E0412A0BEE19E61A930A93E4E974
:101C8C00F1EE0E94EC6BDF91CF910C94E40E1135C8
:101C9C0011F00C94610ECF93DF9318E0412A0BEEF8
:101CAC0019E61A930A93EBE9F1EE0E94EC6BDF91C3
:101CBC00CF910C94E40E123511F00C94750ECF9359
:101CCC00DF9318E0412A0BEE19E61A930A93E1EA26
:101CDC00F1EE0E94EC6BDF91CF910C94E40E133576
:101CEC0011F00C94890ECF93DF9318E0412A0BEE80
:101CFC0019E61A930A93E6EAF1EE0E94EC6BDF9177
:101D0C00CF910C94E40E143511F00C949D0ECF93DE
:101D1C00DF9318E0412A0BEE19E61A930A93EFEAC7
:101D2C00F1EE0E94EC6BDF91CF910C94E40E183520
:101D3C0011F00C94B10ECF93DF9318E0412A0BEE07
:101D4C0019E61A930A93E6EBF1EE0E94EC6BDF9125
:101D5C00CF910C94E40E1F3511F00C94C50ECF935B
:101D6C00DF9318E0412A0BEE19E61A930A93EBEB7A
:101D7C00F1EE0E94EC6BDF91CF910C94E40ECF93BB
:101D8C00DF9318E0412A0BEE19E61A930A93E3EC61
:101D9C00F1EE0E94EC6BDF91CF91CF93DF9318E0C3
:101DAC00412A0BEE19E61A930A9310912E046894AB
:101DBC0043F8412F0E94B56EDF91CF91CF93DF9303
:101DCC0018E0412A0BEE19E61A930A93EDECF1EEAA
:101DDC000E94EC6BDF91CF91CF93DF9318E0412AF7
:101DEC000BEE19E61A930A9310912F04689443F89A
:101DFC00412F0E94B56EDF91CF91CF93DF9318E006
:101E0C00412A0BEE19E61A930A93EBEEF0EE0E94C0
:101E1C00EC6BDF91CF910E94DB060C94250FCF93D6
:101E2C00DF9318E0412A0BEE19E61A930A93E4EDBE
:101E3C00F1EE0E94EC6BDF91CF910E94DB060895CE
:101E4C0025971E811455109340040E94BF091E81D2
:101E5C00012F11273327222740E050E160E070E08A
:101E6C00689445F80E948C6F3C832B831A830983FA
:101E7C0000E010E020E030E00093220410932304F3
:101E8C002093240430932504E8E0F0E0FA93EA93DD
:101E9C0010E010831FE01A931081088101171FEFC7
:101EAC0008F01127112311F00C940C10CF93DF9331
:101EBC003F812E811D810C813A932A931A930A93A8
:101ECC0011E000E01A930A9310E01A930E94AB05FC
:101EDC00DF91CF911885112311F40C94AA0FEAE02D
:101EEC00F0E0FA93EA9310E010831FEF1A9310813D
:101EFC00088101171FEF08F01127112311F00C9422
:101F0C00A90F1A2DE0E0FFE01F7F0027E10FF01F63
:101F1C0010811E83CF93DF9318E0412A0BEE19E654
:101F2C001A930A931885689443F8412F0E94B56E52
:101F3C00DF91CF91E981FA811081139510831123E0
:101F4C0011F00C947E0F2396EAE0F0E0FA93EA93FA
:101F5C0010E010831FE31A931081088101171FEF03
:101F6C0008F01127112311F00C94E20FE0E0FFE0D0
:101F7C00EF93FF931A2D012F1127000F111F000F44
:101F8C00111FFF91EF91E00FF11F01911191219120
:101F9C00319100932A0410932B0420932C0430933A
:101FAC002D040E941604E981FA8110811395108387
:101FBC00112311F00C94B30F23963F812E811D81B8
:101FCC000C8100501F4F2F4F3F4F3F832E831D839B
:101FDC000C8300912204109123042091240430914D
:101FEC00250400501F4F2F4F3F4F00932204109396
:101FFC0023042093240430932504E981FA81108171
:10200C0013951083112311F00C94530F23960E94F7
:10201C00DD0911E004EFE4E3F2E0B1E00E940270AC
:10202C000091220410912304209124043091250462
:10203C000093FE031093FF032093000430930104DC
:10204C001FEF10932C0310E002E30E941B6ACF9346
:10205C00DF930E94F20DDF91CF9108952D970E948E
:10206C00E206CF93DF9318E0412A0BEE19E61A93A0
:10207C000A931F85CF93DF931A9310E01A9310E005
:10208C001A9310E21A93689443F80E940D6CDF9136
:10209C00CF91DF91CF91CF93DF9318E0412A0BEED4
:1020AC0019E61A930A93EEEDF1EE0E94EC6BDF91B8
:1020BC00CF91CF93DF9310E01A9318E41A930E94F8
:1020CC003906DF91CF9110E004E60E941B6A1D8552
:1020DC001C5A012F11273327222740E050E160E0E2
:1020EC0070E0689445F80E948C6F3C872B871A87A8
:1020FC00098710E000E018870F8310E000E01983D7
:10210C000883E8E0F0E0FA93EA9310E010831FE014
:10211C001A931081088101171FEF08F01127112362
:10212C0011F00C948B11CF93DF933F852E851D8579
:10213C000C853A932A931A930A9311E000E01A93B0
:10214C000A9310E01A930E94AB05DF91CF9110E037
:10215C0000E01E830D8310E000E01C830B830A85D6
:10216C001B8519870887EAE0F0E0FA93EA9310E000
:10217C00108317E01A931081088101171FEF08F0E4
:10218C001127112311F00C940011CF93DF9310E55C
:10219C001A930E851F851A930A931FE000E00F9384
:1021AC001F930B851C853F912F91020F131F1A93C0
:1021BC000A9310E000E21A930A930E948169DF915E
:1021CC00CF9110E00AE00E941B6A08851985005E19
:1021DC001F4F198708870D851E85005E1F4F1E87B0
:1021EC000D87E981FA81108113951083112311F069
:1021FC000C94C210239610E51F93088519851F9324
:10220C00E89440F808851985102FE6E1F0E0612F7D
:10221C00A1E0B0E03F914F9150E00E948B69CF93C9
:10222C00DF9310E51A931EE000E01A930A9311E075
:10223C0000E01A930A930E946369DF91CF91EAE060
:10224C00F0E0FA93EA9310E010831FEF1A931081D9
:10225C00088101171FEF08F01127112311F00C94BE
:10226C0061111A2DE0E0FFE01F7F0027E10FF01F46
:10227C0010811F931A2DE0E0FEE01F7F0027E10F75
:10228C00F01F10810F91011710E009F01FEF1123BF
:10229C0011F40C945811FE013696A081B18111965F
:1022AC00A083B183E981FA811081139510831123E6
:1022BC0011F00C942E1123960B811C81103009F413
:1022CC00003010E009F41FEF112311F40C9473117A
:1022DC001EE20E94EB690C94761113E20E94EB69EA
:1022EC003F852E851D850C8500501F4F2F4F3F4F6E
:1022FC003F872E871D870C87E981FA811081139502
:10230C001083112311F00C9490102396CF93DF932C
:10231C0018E0412A0BEE19E61A930A931DE50E9468
:10232C00C26E1DE00E94C26E1AE00E94C26EDF9166
:10233C00CF9111E004EFE4E3F2E0B1E00E9402700F
:10234C00009122041091230420912404309125043F
:10235C000093FE031093FF032093000430930104B9
:10236C001FEF10932C0308811981103009F40030F1
:10237C0010E009F01FEF112311F40C940A120E94C3
:10238C00E206CF93DF9318E0412A0BEE19E61A937D
:10239C000A93EAEFF1EE0E94EC6BDF91CF91CF93B1
:1023AC00DF9318E0412A0BEE19E61A930A930A817F
:1023BC001B81CF93DF931A930A9310E01A9310E0CA
:1023CC001A9310E21A93689443F8E89445F8E89449
:1023DC0054F855F80E94466EDF91CF91DF91CF9162
:1023EC00CF93DF9318E0412A0BEE19E61A930A9368
:1023FC00E2E7F1EE0E94EC6B1DE00E94C26E1AE067
:10240C000E94C26EDF91CF910895219710E018833E
:10241C0000910203112704FD1FEF112311F40C94FA
:10242C001B12FE01108113951083009102031127DA
:10243C0005FD1FEF112311F40C942C12FE011081D9
:10244C0013951083FE01108113951083CF93DF93A6
:10245C0018811A931EE41A930E943906DF91CF91CA
:10246C0010913F03103011F00C943E120C94481252
:10247C00123011F00C9444120C944812143011F0D8
:10248C000C945E12CF93DF931FEF1A931BE41A93F5
:10249C000E943906DF91CF91CF93DF9310E01A930E
:1024AC001CE41A930E943906DF91CF910C9486128A
:1024BC00113011F00C9464120C946E12133011F054
:1024CC000C946A120C946E12153011F00C94861246
:1024DC00CF93DF93109164031A931BE41A930E9419
:1024EC003906DF91CF91CF93DF93109163031A9349
:1024FC001CE41A930E943906DF91CF910C9486123A
:10250C0010913F03103011F00C948E120C94921217
:10251C00113011F00C94AA12CF93DF9310915D033C
:10252C001A931DE41A930E943906DF91CF91CF9331
:10253C00DF9310915E031A931AE41A930E943906E2
:10254C00DF91CF910C94EE12123011F00C94B0126A
:10255C000C94B412133011F00C94CC12CF93DF9373
:10256C0010915F031A931DE41A930E943906DF91B0
:10257C00CF91CF93DF93109160031A931AE41A93BF
:10258C000E943906DF91CF910C94EE12143011F0A9
:10259C000C94D2120C94D612153011F00C94EE123D
:1025AC00CF93DF93109161031A931DE41A930E9449
:1025BC003906DF91CF91CF93DF93109162031A9379
:1025CC001AE41A930E943906DF91CF910C94EE1203
:1025DC000895239700910203112700FD1FEF1F930D
:1025EC0000910203112701FD1FEF10950F9110238D
:1025FC001F9310916C030F911023112311F40C9461
:10260C003E13E8E0F0E0FA93EA9310E0108317E051
:10261C001A931081088101171FEF08F0112711235D
:10262C0011F00C943B13E6E3F3E0EF93FF93182DBA
:10263C00012F1127FF91EF91E00FF11F11911695CA
:10264C001B83CF93DF931B811A93182D105F1A9362
:10265C000E943906DF91CF91E981FA81108113959F
:10266C001083112311F00C94101323960C947213F5
:10267C00E8E0F0E0FA93EA9310E0108317E01A9385
:10268C001081088101171FEF08F01127112311F099
:10269C000C947113E6E3F3E0EF93FF93182D012FE5
:1026AC001127FF91EF91E00FF11F11911B83CF9335
:1026BC00DF931B811A93182D105F1A930E94390611
:1026CC00DF91CF91E981FA81108113951083112349
:1026DC0011F00C944713239600910203112700FD6F
:1026EC001FEF1F93109126031F3010E009F01FEF0E
:1026FC000F911023112311F40C94151410916C03E9
:10270C00112311F40C949613CF93DF9310E01A93CA
:10271C0018E11A930E943906DF91CF910C94B213F1
:10272C0000910203112701FD1FEF112311F40C94EA
:10273C00A41310913E0318830C94A81310913E031C
:10274C0016951883CF93DF9318811A9318E11A9377
:10275C000E943906DF91CF9100910203112703FDEE
:10276C001FEF112311F40C94C713CF93DF9311E0D7
:10277C001A931BE11A930E943906DF91CF910C94A6
:10278C00D113CF93DF9310E01A931BE11A930E949D
:10279C003906DF91CF9100910203112701FD1FEF44
:1027AC00112311F40C94E713CF93DF93109166036C
:1027BC001A931AE11A930E943906DF91CF910C9467
:1027CC00F213CF93DF93109165031A931AE11A93C6
:1027DC000E943906DF91CF9100910203112702FD6F
:1027EC001FEF112311F40C940814CF93DF93109165
:1027FC0068031A9319E11A930E943906DF91CF915D
:10280C000C941314CF93DF93109167031A9319E16F
:10281C001A930E943906DF91CF910C942C141091CD
:10282C003E031883CF93DF9318811A9318E11A9300
:10283C000E943906DF91CF91CF93DF9310E01A936A
:10284C001AE11A930E943906DF91CF9108952197CE
:10285C00E8E0F0E0FA93EA9310E0108318E01A93A2
:10286C001081088101171FEF08F01127112311F0B7
:10287C000C946114E5E4F3E0EF93FF93182D012F12
:10288C001127FF91EF91E00FF11F11911B83CF9353
:10289C00DF931B811A93182D105E1A930E94390630
:1028AC00DF91CF91E981FA81108113951083112367
:1028BC0011F00C943714239608952197CF93DF933E
:1028CC0010914E031F9310914E0316950F91100FFC
:1028DC001A9319E21A930E943906DF91CF91CF9384
:1028EC00DF9310914F031F9310914F0316950F9187
:1028FC00100F1A931AE21A930E943906DF91CF91A6
:10290C00CF93DF93109150031F93109150031695A2
:10291C000F91100F1A931BE21A930E943906DF9144
:10292C00CF91109151031695EDE1FBEE1F7300272B
:10293C00E10FF01F14911883CF93DF9318811A9332
:10294C001FE01A930E943906DF91CF91CF93DF934A
:10295C00109159031A9316E01A930E943906DF91CD
:10296C00CF91CF93DF9300910703112707FD1FEF42
:10297C0011701A9317E01A930E943906DF91CF91C8
:10298C0000910703112706FD1FEF112311F40C947E
:10299C00DB1410915C03E0E7F4EE17700027E10FF5
:1029AC00F01F149118830C94E51410915B03E0E76D
:1029BC00F4EE17700027E10FF01F14911883CF93DA
:1029CC00DF9318811A9313EB1A930E943906DF9147
:1029DC00CF910895219710915503137018601883A7
:1029EC00CF93DF9318811A9318E41A930E94390637
:1029FC00DF91CF91109155031370110F110F110F1F
:102A0C001883CF93DF93188110561A9315E41A93F9
:102A1C000E943906DF91CF9110915503103010E0D0
:102A2C0009F41FEF112311F40C943215CF93DF939B
:102A3C0010E01A9316E41A930E943906DF91CF9195
:102A4C00CF93DF9310E01A9317E41A930E94390680
:102A5C00DF91CF910C945515E3E7F3E0EF93FF93DF
:102A6C00109155031150012F1127FF91EF91E00F99
:102A7C00F11F11911883CF93DF9318811A9316E4E9
:102A8C001A930E943906DF91CF91CF93DF9318816F
:102A9C001A9317E41A930E943906DF91CF9110E034
:102AAC0010932D0308952197CF93DF9310916D030D
:102ABC001A931AE01A930E943906DF91CF91CF93A3
:102ACC00DF93109156031A9314E01A930E9439065F
:102ADC00DF91CF91CF93DF93109157031A9315E0A9
:102AEC001A930E943906DF91CF91CF93DF93109107
:102AFC0059031A9316E01A930E943906DF91CF916D
:102B0C0010917103110F110F110F110F1F931091D1
:102B1C0072031F700F91102B1883CF93DF931881C2
:102B2C001A9319E01A930E943906DF91CF911091F4
:102B3C0069031F9310916B03117025E00E94016FC4
:102B4C000F91102B1F9310916A0326E00E94016FC6
:102B5C000F91102B1883CF93DF9318811A931BE0DE
:102B6C001A930E943906DF91CF91CF93DF93109186
:102B7C005A031A931DE01A930E943906DF91CF91E4
:102B8C00CF93DF93109170031A9319E41A930E9458
:102B9C003906DF91CF91CF93DF9318EC1A931FE492
:102BAC001A930E943906DF91CF9110E010932C03F9
:102BBC000895239710E01883E8E0F0E0FA93EA9385
:102BCC0010E0108318E01A931081088101171FEF91
:102BDC0008F01127112311F00C9441161E811F933C
:102BEC00182DE9EAF2E01F700027E10FF01F1081A9
:102BFC000F91102B112311F40C943816182DE9E6B3
:102C0C00F2E01F700027E10FF01F108116951D8355
:102C1C00E6E3F3E0EF93FF93182D012F1127FF91BB
:102C2C00EF91E00FF11FEF93FF931D81FF91EF9157
:102C3C001193182D1F9310E0E9EAF2E0AF91AF70F9
:102C4C00BB27EA0FFB1F10831DE0109341021FEFFF
:102C5C001B831E811095112311F40C9438161FEF51
:102C6C0010934202E981FA8110811395108311238C
:102C7C0011F00C94EB1523961881112311F40C947C
:102C8C004D16CF93DF930E94EF12DF91CF910895F1
:102C9C00229710E01883E8E0F0E0FA93EA9310E052
:102CAC00108318E01A931081088101171FEF08F0A8
:102CBC001127112311F00C94B0161D811F93182DA0
:102CCC00E5EBF2E01F700027E10FF01F10810F9170
:102CDC00102B112311F40C94A716182DE5E7F2E034
:102CEC001F700027E10FF01F108116951C83E5E47F
:102CFC00F3E0EF93FF93182D012F1127FF91EF9124
:102D0C00E00FF11FEF93FF931C81FF91EF91119353
:102D1C00182D1F9310E0E5EBF2E0AF91AF70BB27DD
:102D2C00EA0FFB1F10831EE0109341021FEF1B8361
:102D3C001D811095112311F40C94A7161FEF1093FD
:102D4C004302E981FA81108113951083112311F04C
:102D5C000C945A1623961881112311F40C94BC165A
:102D6C00CF93DF930E942D14DF91CF91089522977A
:102D7C001A811F931091BE020F91102B112311F485
:102D8C000C94DE1610917E02169510934E03109142
:102D9C004E03169510934F0310E01093BE02CF9381
:102DAC00DF930E946314DF91CF911FEF10934302C6
:102DBC001A811F931091BF020F91102B112311F444
:102DCC000C94F91610917F0216951093500310E095
:102DDC001093BF02CF93DF930E946314DF91CF91C6
:102DEC001FEF109343021A811F931091C0020F9191
:102DFC00102B112311F40C941417109180021695BA
:102E0C001093510310E01093C002CF93DF930E94F4
:102E1C006314DF91CF911CE110934102089510913E
:102E2C000B03112311F40C94241710E010930B03D3
:102E3C001AE0109341021FEF1093B202CF93DF936D
:102E4C000E940B12DF91CF910895239710910903E3
:102E5C001F9310910A030F91102B103010E009F4FE
:102E6C001FEF112311F40C943D170C941E180091B4
:102E7C000903112700FD1FEF112311F40C944F17B8
:102E8C00CF93DF930E94EF12DF91CF911CE0109350
:102E9C00410200910903112701FD1FEF112311F4C9
:102EAC000C946117CF93DF930E94EF12DF91CF91B7
:102EBC001CE01093410200910903112702FD1FEF42
:102ECC00112311F40C947317CF93DF930E94EF121C
:102EDC00DF91CF911CE0109341020091090311275F
:102EEC0003FD1FEF112311F40C948517CF93DF937F
:102EFC000E94EF12DF91CF911CE0109341020091E0
:102F0C000903112704FD1FEF112311F40C949A17D8
:102F1C00CF93DF930E940B12DF91CF911FEF109391
:102F2C00B2021BE01093410200910903112705FD29
:102F3C001FEF112311F40C94AF17CF93DF930E9462
:102F4C000B12DF91CF911FEF1093B2021FE0109381
:102F5C00410200910A03112704FD1FEF1F930091FA
:102F6C000A03112705FD1FEF0F91102B1F931091D2
:102F7C002D030F91102B112311F40C94ED1710E06D
:102F8C001093550300910703112704FD1FEF112324
:102F9C0011F40C94D61710915503139510935503F7
:102FAC0000910703112705FD1FEF112311F40C9459
:102FBC00E417109155031E5F10935503CF93DF93C5
:102FCC000E94F014DF91CF9110E210934102009116
:102FDC000A03112706FD1FEF112311F40C94061898
:102FEC0000910703112706FD1FEF10935203CF9397
:102FFC00DF930E946314DF91CF911DE11093410286
:10300C0000910A03112707FD1FEF112311F40C94F3
:10301C001818CF93DF930E946314DF91CF911EE1B8
:10302C001093410210E01093090310E010930A036F
:10303C0008952197E8E0F0E0FA93EA9310E010830A
:10304C0019E01A931081088101171FEF08F011275E
:10305C00112311F00C946018182DE9E4F2E01F70A4
:10306C000027E10FF01F10811B83E6E3F3E0EF93E1
:10307C00FF93182D012F1127FF91EF91E00FF11FF6
:10308C00EF93FF931B81FF91EF911193182D1F93D9
:10309C0019E0E9E8F2E0AF91AF70BB27EA0FFB1F34
:1030AC001083E981FA81108113951083112311F09B
:1030BC000C942918239610910203107E1F931091E3
:1030CC0053020F91102B109302031FE1109309036D
:1030DC0008952197E8E0F0E0FA93EA9310E010836A
:1030EC0019E01A931081088101171FEF08F01127BE
:1030FC00112311F00C94A318E6E3F3E0EF93FF9384
:10310C00182D012F1127FF91EF91E00FF11F119155
:10311C001B83182D1F931B81E9E4F2E0AF91AF7074
:10312C00BB27EA0FFB1F1083E981FA8110811395ED
:10313C001083112311F00C9479182396109102032B
:10314C001F7110935302CF93DF9310E01A930E94D8
:10315C00F52FDF91CF9108952197E8E0F0E0FA93F5
:10316C00EA9310E010831CE01A9310810881011778
:10317C001FEF08F01127112311F00C94F318182DE0
:10318C00E9E5F2E01F700027E10FF01F10811B83AF
:10319C00E5E4F3E0EF93FF93182D012F1127FF9136
:1031AC00EF91E00FF11FEF93FF931B81FF91EF91D4
:1031BC001193182D1F9319E0E5E9F2E0AF91AF7070
:1031CC00BB27EA0FFB1F1083E981FA81108113954D
:1031DC001083112311F00C94BC1823961091020348
:1031EC001F7D1F93109166020F91102B10930203F9
:1031FC0010E210930903109107031F731F93109192
:10320C0067020F91102B1093070310EC10930A0315
:10321C0008952197E8E0F0E0FA93EA9310E0108328
:10322C001CE01A931081088101171FEF08F0112779
:10323C00112311F00C944319E5E4F3E0EF93FF93A1
:10324C00182D012F1127FF91EF91E00FF11F119114
:10325C001B83182D1F931B81E9E5F2E0AF91AF7032
:10326C00BB27EA0FFB1F1083E981FA8110811395AC
:10327C001083112311F00C94191923961091020349
:10328C0010721093660210910703107C1093670262
:10329C000895CF93DF931FEF1A930E94F52FDF91C0
:1032AC00CF91E8E0F0E0FA93EA9310E0108319E094
:1032BC001A931081088101171FEF08F011271123B1
:1032CC0011F00C94A919E6E3F3E0EF93FF93182D9A
:1032DC00012F1127FF91EF91E00FF11FEF93FF9357
:1032EC00E4EAF0E0EF93FF931B81012F1127A0E19B
:1032FC00B0E0E89445F80E94306F0F931F93182D9F
:10330C00012F11273F912F91020F131FFF91EF9166
:10331C00E00FF11F0E94646AFF91EF911193182D39
:10332C001F9319E0E9E8F2E0AF91AF70BB27EA0F09
:10333C00FB1F1083E981FA811081139510831123EF
:10334C0011F00C946019239610910203107E1F93B8
:10335C00E4EAF0E0EF93FF931881012F1127A0E12D
:10336C00B0E0E89445F80E94306F065F1F4FFF9164
:10337C00EF91E00FF11F0E94646A0F91102B1093D4
:10338C0002031FE11093090310E00AE00E941B6A7C
:10339C00CF93DF9310E01A930E94F52FDF91CF911A
:1033AC000895CF93DF931FEF1A930E94F52FDF91AF
:1033BC00CF9118811F701883E8E0F0E0FA93EA933C
:1033CC0010E0108319E01A931081088101171FEF88
:1033DC0008F01127112311F00C94291AE4EAF0E0FB
:1033EC00EF93FF931B81012F1127A0E1B0E0E8942C
:1033FC0045F80E94306F0F931F93182D012F112742
:10340C003F912F91020F131FFF91EF91E00FF11FCE
:10341C00EF93FF93E6E3F3E0EF93FF93182D012F67
:10342C001127FF91EF91E00FF11F1191FF91EF9197
:10343C000E94426AE981FA8110811395108311234D
:10344C0011F00C94EB192396E4EAF0E0EF93FF9360
:10345C001881012F1127A0E1B0E0E89445F80E94F3
:10346C00306F065F1F4FFF91EF91E00FF11FEF934D
:10347C00FF93109102031F71FF91EF910E94426A1A
:10348C00CF93DF9310E01A930E94F52FDF91CF9129
:10349C000895CF93DF931FEF1A930E94F52FDF91BE
:1034AC00CF91E8E0F0E0FA93EA9310E010831CE08F
:1034BC001A931081088101171FEF08F011271123AF
:1034CC0011F00C94A91AE5E4F3E0EF93FF93182D97
:1034DC00012F1127FF91EF91E00FF11FEF93FF9355
:1034EC00E4EAF1E0EF93FF931B81012F1127A0E198
:1034FC00B0E0E89445F80E94306F0F931F93182D9D
:10350C00012F11273F912F91020F131FFF91EF9164
:10351C00E00FF11F0E94646AFF91EF911193182D37
:10352C001F9319E0E5E9F2E0AF91AF70BB27EA0F0A
:10353C00FB1F1083E981FA811081139510831123ED
:10354C0011F00C94601A2396109102031F7D1F93A7
:10355C00E4EAF1E0EF93FF931881012F1127A0E12A
:10356C00B0E0E89445F80E94306F035F1F4FFF9165
:10357C00EF91E00FF11F0E94646A0F91102B1093D2
:10358C00020310E210930903109107031F731F939A
:10359C00E4EAF1E0EF93FF931881012F1127A0E1EA
:1035AC00B0E0E89445F80E94306F025F1F4FFF9126
:1035BC00EF91E00FF11F0E94646A0F91102B109392
:1035CC00070310EC10930A0310E00AE00E941B6A38
:1035DC00CF93DF9310E01A930E94F52FDF91CF91D8
:1035EC000895CF93DF931FEF1A930E94F52FDF916D
:1035FC00CF9118811F701883E8E0F0E0FA93EA93FA
:10360C0010E010831CE01A931081088101171FEF42
:10361C0008F01127112311F00C94491BE4EAF1E096
:10362C00EF93FF931B81012F1127A0E1B0E0E894E9
:10363C0045F80E94306F0F931F93182D012F1127FF
:10364C003F912F91020F131FFF91EF91E00FF11F8C
:10365C00EF93FF93E5E4F3E0EF93FF93182D012F25
:10366C001127FF91EF91E00FF11F1191FF91EF9155
:10367C000E94426AE981FA8110811395108311230B
:10368C0011F00C940B1B2396E4EAF1E0EF93FF93FB
:10369C001881012F1127A0E1B0E0E89445F80E94B1
:1036AC00306F035F1F4FFF91EF91E00FF11FEF930E
:1036BC00FF93109102031072FF91EF910E94426AE6
:1036CC00E4EAF1E0EF93FF931881012F1127A0E1B9
:1036DC00B0E0E89445F80E94306F025F1F4FFF91F5
:1036EC00EF91E00FF11FEF93FF9310910703107C04
:1036FC00FF91EF910E94426ACF93DF9310E01A93EF
:10370C000E94F52FDF91CF910895E8E0F0E0FA9355
:10371C00EA9310E0108311E51A93108108810117C8
:10372C001FEF08F01127112311F00C94C31BE5E3D4
:10373C00F3E0EF93FF93182D012F1127FF91EF91D9
:10374C00E00FF11FEF93FF93E2E1F0E0EF93FF93B3
:10375C00182D012F1127FF91EF91E00FF11F0E94FF
:10376C00646AFF91EF911193E981FA8110811395AD
:10377C001083112311F00C94941B23961091550374
:10378C001170113010E009F41FEF112311F40C9497
:10379C00D41B10910703106110930703109155036C
:1037AC001270123010E009F41FEF112311F40C9475
:1037BC00E41B10910703106210930703109166032A
:1037CC001093F802109165031093F9021FEF1093F8
:1037DC000C0308952797CF93DF9310E01A9317EFFC
:1037EC001A930E943906DF91CF91FE013596FA9318
:1037FC00EA9310E000E01183008311E00FEF1A93BD
:10380C000A93A081B18128813981B31709F4A217D9
:10381C0010E011F008F01FEF112311F00C944C1C68
:10382C00E1EDF2E0EF93FF9309851A85000F111F6C
:10383C00FF91EF91E00FF11F0E946D6A17FF03C01B
:10384C003FEF2FEF02C03327222738872F831E83A9
:10385C000D83CF93DF9338852F811E810D813A9391
:10386C002A931A930A9316EF1A930E946D06DF910E
:10387C00CF91EA81FB81A081B1811196A083B183A4
:10388C00BB2311F4AA2311F00C94091C2496E8E034
:10389C00F0E0FA93EA9310E010831FE31A9310817F
:1038AC00088101171FEF08F01127112311F00C9458
:1038BC00811CE4E6F0E0EF93FF93182D012F112704
:1038CC00FF91EF91E00FF11F0E94646A1B83CF936D
:1038DC00DF931B811A93182D10551A930E943906E9
:1038EC00DF91CF91E981FA81108113951083112317
:1038FC0011F00C94561C239608952B971091EA0204
:10390C001F931091B4020F91102B1F931091B202C0
:10391C000F91102B112311F40C94711D1091830332
:10392C001095112311F40C94A11C10918403109385
:10393C00E9020C94AB1C1091B402112311F40C94F9
:10394C00AB1C109174021093E9021091EA0211233E
:10395C0011F40C94BE1C1091EB021F931091FA02FF
:10396C000F91100F1093E9021091EB021093FA02D1
:10397C0010E01093B20210E01093B40210E0109318
:10398C00EA021091E90216951E831E8116951D837D
:10399C0010918503112311F40C94DA1C109172020E
:1039AC0016951B830C94DD1C10916E031B831091D8
:1039BC006F03169516951F93CF93DF931091E90221
:1039CC001A9310916F031A931EEB1A930E940D6AAF
:1039DC00DF91CF910F91100F198710916F031695EE
:1039EC00169516951F93CF93DF931091E9021A93B6
:1039FC0010916F031A9316EE1A930E940D6ADF91C1
:103A0C00CF910F91100F18871B811695169516954F
:103A1C001F93CF93DF931091E9021A931C811A9391
:103A2C001EEB1A930E940D6ADF91CF910F91100F2C
:103A3C001F83CF93DF931091E9021A931EEB1A9315
:103A4C001FEF1A930E940D6ADF91CF911F5F1A87A7
:103A5C00CF93DF9318EC1A931FE41A930E94390644
:103A6C00DF91CF911E81105C1F931D810F91100F60
:103A7C001C83CF93DF931A851A9310E41A930E9438
:103A8C003906DF91CF91CF93DF9319851A9311E407
:103A9C001A930E943906DF91CF91CF93DF9318854B
:103AAC001A9312E41A930E943906DF91CF91CF93A7
:103ABC00DF931F811A9313E41A930E943906DF9146
:103ACC00CF91CF93DF931C811A9314E41A930E9425
:103ADC003906DF91CF9110913902143010E009F4BE
:103AEC001FEF112311F40C94961E109186031F9353
:103AFC001091B3020F911023112311F40C948A1D11
:103B0C00109173021093540310E01093B3021091B0
:103B1C00FC02112311F40C949B1D10917803198352
:103B2C001091790318830C94A11D109176031983BD
:103B3C001091770318831091FD021095112311F445
:103B4C000C94AC1D10E0198310E018831FEF00914A
:103B5C003702002309F01095112311F40C94E51D84
:103B6C001091FE021F9319810F91011710E009F0BB
:103B7C001FEF112311F40C94E51D19811F93109163
:103B8C00FE020F91011710E011F008F01FEF112346
:103B9C0011F40C94DC1D1091FE0213951093FE028F
:103BAC0010917A03109337020C94E51D1091FE02CC
:103BBC001A951093FE0210917C03109337021FEF9D
:103BCC0000913802002309F01095112311F40C9484
:103BDC001E1E1091FF021F9318810F91011710E008
:103BEC0009F01FEF112311F40C941E1E18811F9362
:103BFC001091FF020F91011710E011F008F01FEF68
:103C0C00112311F40C94151E1091FF0213951093AF
:103C1C00FF0210917B03109338020C941E1E10911E
:103C2C00FF021A951093FF0210917D031093380236
:103C3C0000913303109134030F931F931091FE02E4
:103C4C00012F11273F912F91020F131F0093330364
:103C5C0010933403CF93DF931091FE021A9311EB60
:103C6C001A930E943906DF91CF91CF93DF93109175
:103C7C00FF021A9312EB1A930E943906DF91CF912F
:103C8C00CF93DF93109154031A9310EB1A930E9465
:103C9C003906DF91CF911091FC021F931091FD0218
:103CAC000F911023E894112309F0689410910D03DF
:103CBC0011F910930D031091FC0210951F931091A4
:103CCC00FD020F911023E894112309F068941091D0
:103CDC000D0310F910930D0300910703112706FD36
:103CEC001FEFE894112309F0689410910D0313F958
:103CFC0010930D0310910D0310930E03CF93DF93CC
:103D0C0011E21A9313E01A9313E00EE01A930A933C
:103D1C0010E001E01A930A930E947769DF91CF912A
:103D2C0010913902153010E009F41FEF112311F432
:103D3C000C94171FCF93DF9310917E031A9317ECFB
:103D4C001A930E943906DF91CF91CF93DF93109194
:103D5C007E031A9318EC1A930E943906DF91CF91C7
:103D6C00CF93DF9310917E03169510581A931BEC8A
:103D7C001A930E943906DF91CF91E4E6F0E0F096B9
:103D8C000E94646A1F9310917F030F91100F1A8386
:103D9C00CF93DF931A811A9311EE1A930E9439066E
:103DAC00DF91CF91E4E6F0E0F3960E94646A1F93F2
:103DBC0010917F030F91100F1A83CF93DF931A8109
:103DCC001A9314EE1A930E943906DF91CF91E4E610
:103DDC00F0E0F5960E94646A1F9310917F030F9197
:103DEC00100F1A83CF93DF931A811A9316EE1A933E
:103DFC000E943906DF91CF91E4E6F0E0F7960E943D
:103E0C00646A1F9310917F030F91100F1A83CF9345
:103E1C00DF931A811A9318EE1A930E943906DF91D8
:103E2C00CF9110913902163010E009F41FEF1123D5
:103E3C0011F40C94022010918003143610E008F059
:103E4C001FEF112311F40C94841FCF93DF93E4E63E
:103E5C00F0E038960E94646A1A931091800308EC83
:103E6C00011B102F1A9314E61A930E940D6ADF910E
:103E7C00CF911A83CF93DF931A811A9318EB1A936D
:103E8C000E943906DF91CF91CF93DF93E4E6F0E007
:103E9C0034960E94646A1A9314EB1A930E943906A2
:103EAC00DF91CF91CF93DF93E4E6F0E035960E945B
:103EBC00646A1A9315EB1A930E943906DF91CF911D
:103ECC00CF93DF93E4E6F0E036960E94646A1A938F
:103EDC0016EB1A930E943906DF91CF91CF93DF93A3
:103EEC00E4E6F0E03C960E94646A1A931CEB1A9389
:103EFC000E943906DF91CF910C940220CF93DF936F
:103F0C00E4E6F0E034960E94646A1A931091800300
:103F1C001A9314E61A930E940D6ADF91CF911A83BB
:103F2C00CF93DF931A811A9314EB1A930E943906DC
:103F3C00DF91CF91CF93DF93E4E6F0E035960E94CA
:103F4C00646A1A93109180031A9314E61A930E94D0
:103F5C000D6ADF91CF911A83CF93DF931A811A9355
:103F6C0015EB1A930E943906DF91CF91CF93DF9313
:103F7C00E4E6F0E036960E94646A1A93109180038E
:103F8C001A9314E61A930E940D6ADF91CF911A834B
:103F9C00CF93DF931A811A9316EB1A930E9439066A
:103FAC00DF91CF91CF93DF93E4E6F0E03C960E9453
:103FBC00646A1A93109180031A9314E61A930E9460
:103FCC000D6ADF91CF911A83CF93DF931A811A93E5
:103FDC001CEB1A930E943906DF91CF91CF93DF939C
:103FEC00E4E6F0E038960E94646A1A9318EB1A9390
:103FFC000E943906DF91CF910895CF93DF930E94F1
:10400C005915DF91CF91CF93DF930E94F01BDF9175
:10401C00CF91CF93DF930E94F014DF91CF91CF9388
:10402C00DF930E94EF12DF91CF91CF93DF930E9429
:10403C002D14DF91CF91CF93DF930E946314DF9106
:10404C00CF91CF93DF930E940B12DF91CF911FEF93
:10405C001093B202CF93DF930E94831CDF91CF9118
:10406C0008950E94E206CF93DF9318E0412A0BEEED
:10407C0019E61A930A93EFE0F2EE0E94EC6BDF91D3
:10408C00CF910E94DB0610911904112311F40C94AA
:10409C00802001E010E020E030E00093FE0310935C
:1040AC00FF032093000430930104E0EDF3E0EF9361
:1040BC00FF933196FA93EA931FE11A9317EF41227B
:1040CC001FEB4122ECE1F2EE0E94EC6B1FE11F931F
:1040DC0018810F91011B102FFF91EF9110832396E4
:1040EC000E949508CF93DF9312E61A930E94E80082
:1040FC00DF91CF9110911704112311F40C94B72078
:10410C0002E010E020E030E00093FE031093FF0388
:10411C002093000430930104E0EDF3E0EF93FF9360
:10412C003196FA93EA931FE11A9317EF41221FEB92
:10413C004122ECE2F2EE0E94EC6B1FE11F9318811E
:10414C000F91011B102FFF91EF91108323960E946A
:10415C009508CF93DF9310E61A930E94E800DF9145
:10416C00CF9110911804112311F40C94EE2003E05C
:10417C0010E020E030E00093FE031093FF03209347
:10418C00000430930104E0EDF3E0EF93FF933196DC
:10419C00FA93EA931FE11A9317EF41221FEB412286
:1041AC00E0E4F2EE0E94EC6B1FE11F9318810F917B
:1041BC00011B102FFF91EF91108323960E949508FD
:1041CC00CF93DF9311E61A930E94E800DF91CF9111
:1041DC0000E010E020E030E0009311031093120394
:1041EC00209313033093140310911C04112311F426
:1041FC000C94292104E010E020E030E00093FE0351
:10420C001093FF032093000430930104E0EDF3E0DE
:10421C00EF93FF933196FA93EA931FE11A9317EFFA
:10422C0041221FEB4122E4E5F2EE0E94EC6B1FE110
:10423C001F9318810F91011B102FFF91EF91108389
:10424C0023960E94950810911B04112311F40C94D1
:10425C005E2110E8109548E333E00E94D06805E039
:10426C0010E020E030E00093FE031093FF03209356
:10427C00000430930104E0EDF3E0EF93FF933196EB
:10428C00FA93EA931FE11A9317EF41221FEB412295
:10429C00E5E6F2EE0E94EC6B1FE11F9318810F9183
:1042AC00011B102FFF91EF91108323960E9495080C
:1042BC0010911604112311F40C948D2106E010E0DA
:1042CC0020E030E00093FE031093FF0320930004E2
:1042DC0030930104E0EDF3E0EF93FF933196FA9302
:1042EC00EA931FE11A9317EF41221FEB4122E6E7F5
:1042FC00F2EE0E94EC6B1FE11F9318810F91011BD2
:10430C00102FFF91EF91108323960E949508109126
:10431C001504112311F40C94BC2107E010E020E0EB
:10432C0030E00093FE031093FF03209300043093BE
:10433C000104E0EDF3E0EF93FF933196FA93EA93E7
:10434C001FE11A9317EF41221FEB4122E1E8F2EE35
:10435C000E94EC6B1FE11F9318810F91011B102F12
:10436C00FF91EF91108323960E949508089510E019
:10437C0004E60E941B6ACF93DF9310E01A9318E4B3
:10438C001A930E943906DF91CF9110E004E60E9447
:10439C001B6ACF93DF931FEF1A930E94F52FDF91C7
:1043AC00CF91CF93DF930E94F014DF91CF91CF93F5
:1043BC00DF9310E01A930E94F52FDF91CF910895AF
:1043CC00CF93DF9310E01A9310E01A9310E01A9336
:1043DC000E948868DF91CF91CF93DF9318E0412A38
:1043EC0002E618E61A930A93EAECF4EEEF93FF93C5
:1043FC001A81012F1127AEE0B0E0E89445F80E9435
:10440C00306FFF91EF91E00FF11F0E94EC6BDF9189
:10441C00CF9110E20E94626810E20E946268CF9312
:10442C00DF9310E01A9310E01A9311E01A930E9494
:10443C008868DF91CF910895CF93DF9310E01A93A2
:10444C0010E01A9311E01A930E948868DF91CF91C3
:10445C00CF93DF9318E0412A02E618E61A930A93E9
:10446C00E6E4F9EEEF93FF931A81012F1127ADE0EB
:10447C00B0E0E89445F80E94306FFF91EF91E00FA7
:10448C00F11F0E94EC6BDF91CF9116E00E946268E5
:10449C0010E00E94A96808951881112311F40C945E
:1044AC006722CF93DF9318E0412A02E618E61A93AD
:1044BC000A93EEE8F2EE0E94EC6BDF91CF910C9434
:1044CC007522CF93DF9318E0412A02E618E61A937F
:1044DC000A93E2E9F2EE0E94EC6BDF91CF91089522
:1044EC00E8E0F0E0FA93EA9310E0108313E01A93FB
:1044FC001081088101171FEF08F01127112311F00B
:10450C000C949D225A9A5B9810E004E60E941B6A58
:10451C005A985B9A10E004E60E941B6AE981FA81C2
:10452C00108113951083112311F00C947F22239684
:10453C005A9A5B9A089510911604112311F40C9455
:10454C00892310E00E94A068E7E8F3E0EF93FF9363
:10455C003196FA93EA9318E21A9317EF41221FEB64
:10456C0041221C81CF93DF931A9312E01A9300E03F
:10457C000A9310E21A930E940D6CDF91CF9118E20E
:10458C001F9318810F91011B102FFF91EF91108336
:10459C002396CF93DF9318E0412A02E618E61A938C
:1045AC000A93E6E9F2EE0E94EC6BDF91CF91198150
:1045BC001F9318810F91011710E009F01FEF1123C1
:1045CC0011F40C94FA22CF93DF9318E0412A02E6FF
:1045DC0018E61A930A93E7E8F3E00E94F56BDF9173
:1045EC00CF9110E20E946268CF93DF9318E0412ACA
:1045FC0002E618E61A930A93EDE9F2EE0E94EC6BD0
:10460C00DF91CF91CF93DF9310E01A9310E01A93C0
:10461C0011E01A930E948868DF91CF91CF93DF93BA
:10462C0018E0412A02E618E61A930A93E0EAF2EE41
:10463C000E94EC6BDF91CF91E7E8F3E0EF93FF93EF
:10464C003196FA93EA9318E21A9317EF41221FEB73
:10465C0041221B81CF93DF931A9312E01A9300E04F
:10466C000A9310E21A930E940D6CDF91CF9118E21D
:10467C001F9318810F91011B102FFF91EF91108345
:10468C002396CF93DF9310E01A9316E01A9311E060
:10469C001A930E948868DF91CF91CF93DF9318E033
:1046AC00412A02E618E61A930A93E7E8F3E00E941F
:1046BC00F56BDF91CF911091FB02103010E009F4F3
:1046CC001FEF112311F40C947B23CF93DF9318E08D
:1046DC00412A02E618E61A930A93E7EAF2EE0E94E0
:1046EC00EC6BDF91CF910C948923CF93DF9318E07F
:1046FC00412A02E618E61A930A93EEEAF2EE0E94B9
:10470C00EC6BDF91CF910E947622089510911604E4
:10471C00112311F40C94BD2310E00E94A068CF93D8
:10472C00DF9318E0412A02E618E61A930A93E5EBA8
:10473C00F2EE0E94EC6BDF91CF91CF93DF9310E000
:10474C001A9310E01A9311E01A930E948868DF9173
:10475C00CF91CF93DF9318E0412A02E618E61A9323
:10476C000A93E7ECF2EE0E94EC6BDF91CF91089587
:10477C00109116041095112311F40C94C7230C946A
:10478C001B24CF93DF9310E01A930E94E621DF9154
:10479C00CF911881112311F40C940724CF93DF933C
:1047AC0018E0412A02E618E61A930A93E6EDF2EEB7
:1047BC000E94EC6BDF91CF911981112311F40C94B1
:1047CC00F723CF93DF9318E0412A02E618E61A93F9
:1047DC000A93EBEDF2EE0E94EC6BDF91CF910C940F
:1047EC000524CF93DF9318E0412A02E618E61A93CA
:1047FC000A93E0EEF2EE0E94EC6BDF91CF910C94F9
:10480C001524CF93DF9318E0412A02E618E61A9399
:10481C000A93E5EEF2EE0E94EC6BDF91CF9110E083
:10482C000E94A96815E010933E020895CF93DF9380
:10483C0018811A930E945222DF91CF9116E00E94A8
:10484C00626810E00E94A9680895CF93DF9318E086
:10485C00412A02E618E61A930A931A81CF93DF9342
:10486C001A9313E01A9300E00A9310E21A936894D7
:10487C0043F80E940D6CDF91CF91DF91CF9116E040
:10488C000E94626810E00E94A9680895CF93DF939C
:10489C0018E0412A02E618E61A930A930A811B8152
:1048AC00CF93DF931A930A9313E01A9300E00A93C1
:1048BC0010E21A93689443F8689445F8E89454F815
:1048CC0055F80E94466EDF91CF91DF91CF9116E0A3
:1048DC000E94626810E00E94A9680895CF93DF934C
:1048EC0000910203112700FD1FEF1A930E94522220
:1048FC00DF91CF9100910203112700FD1FEF10955E
:10490C00112311F40C948F2410E00E94A9680C94CC
:10491C00072510E20E94626800910203112701FD35
:10492C001FEF112311F40C94AB24CF93DF9318E0F9
:10493C00412A02E618E61A930A93EAEEF2EE0E9476
:10494C00EC6BDF91CF910C94B924CF93DF9318E0EB
:10495C00412A02E618E61A930A93EFEEF2EE0E9451
:10496C00EC6BDF91CF9100910203112702FD1FEF39
:10497C00112311F40C94D224CF93DF9318E0412A25
:10498C0002E618E61A930A93E4EFF2EE0E94EC6B3F
:10499C00DF91CF910C94E024CF93DF9318E0412A60
:1049AC0002E618E61A930A93E9EFF2EE0E94EC6B1A
:1049BC00DF91CF9100910203112703FD1FEF11230B
:1049CC0011F40C94F924CF93DF9318E0412A02E6FA
:1049DC0018E61A930A93EEEFF2EE0E94EC6BDF915D
:1049EC00CF910C940725CF93DF9318E0412A02E670
:1049FC0018E61A930A93E2E0F3EE0E94EC6BDF9157
:104A0C00CF9108952197CF93DF9300910203112743
:104A1C0004FD1FEF1A930E945222DF91CF9110E2F6
:104A2C000E946268CF93DF9300910203112705FD6A
:104A3C001FEF1A930E945222DF91CF9110E20E9435
:104A4C00626810913F031170113010E009F41FEFF0
:104A5C00112311F40C94372513E40E9462680C9412
:104A6C003A2516E50E94626810913F0316951F5C6B
:104A7C00188318810E94626810E00E94A96808954A
:104A8C00219719811170113010E009F41FEF1123D7
:104A9C0011F40C949C25198116951983E8E0F0E02B
:104AAC00FA93EA9310E01083EF93FF931B81FF912D
:104ABC00EF911A931081088101171FEF08F011274D
:104ACC00112311F00C94762510E00E946268E981A4
:104ADC00FA81108113951083112311F00C94612528
:104AEC002396E8E0F0E0FA93EA93EF93FF931B81AF
:104AFC00FF91EF91108316E01A9310810881011732
:104B0C001FEF08F01127112311F00C94992517E0D1
:104B1C000E946268E981FA81108113951083112338
:104B2C0011F00C94842523960C94E8251981169584
:104B3C001983E8E0F0E0FA93EA9311E01083EF9325
:104B4C00FF931B81FF91EF911A931081088101173C
:104B5C001FEF08F01127112311F00C94C12510E060
:104B6C000E946268E981FA811081139510831123E8
:104B7C0011F00C94AC25239611E00E946268E8E0D9
:104B8C00F0E0FA93EA93EF93FF931B81FF91EF917F
:104B9C00108316E01A931081088101171FEF08F09B
:104BAC001127112311F00C94E72517E00E9462687D
:104BBC00E981FA81108113951083112311F00C9463
:104BCC00D225239612E00E94626816E00E94626869
:104BDC0010E00E94A968CF93DF9310E01A931AE0BB
:104BEC001A9311E01A930E948868DF91CF9108956F
:104BFC002297CF93DF9310E01A9310E01A9310E0F2
:104C0C001A930E948868DF91CF91CF93DF9318E0BD
:104C1C00412A02E618E61A930A9310912603CF93C1
:104C2C00DF931A9312E01A9300E00A9310E21A939E
:104C3C00689443F80E940D6CDF91CF91DF91CF9176
:104C4C0010E20E946268CF93DF9310E01A9312E097
:104C5C001A9310E01A930E948868DF91CF911091FB
:104C6C00FB02103010E009F41FEF112311F40C9427
:104C7C00442616E00E9462680C94472610E20E94BB
:104C8C006268CF93DF9318E0412A02E618E61A9384
:104C9C000A93E6E0F3EE0E94EC6BDF91CF91E8E033
:104CAC00F0E0FA93EA9310E0108318E01A93108165
:104CBC00088101171FEF08F01127112311F00C9434
:104CCC009126E6E3F3E0EF93FF93182D012F1127C4
:104CDC00FF91EF91E00FF11F1191195F1B83CF939F
:104CEC00DF931B811A9310E11A9310EF1A930E9411
:104CFC000D6ADF91CF911B831B81105D1C831C817E
:104D0C000E946268E981FA81108113951083112346
:104D1C0011F00C945E262396CF93DF9310E01A9338
:104D2C0010E01A9311E01A930E948868DF91CF91DA
:104D3C00CF93DF9318E0412A02E618E61A930A9300
:104D4C0010912703CF93DF931A9312E01A9300E08C
:104D5C000A9310E21A93689443F80E940D6CDF9149
:104D6C00CF91DF91CF9110E20E946268CF93DF93D5
:104D7C0010E01A9312E01A9311E01A930E948868BB
:104D8C00DF91CF911091FB02103010E009F41FEF6E
:104D9C00112311F40C94D72610E20E9462680C9433
:104DAC00DA2616E00E94626810E50E946268109193
:104DBC004E03195F1883CF93DF9318811A9310E178
:104DCC001A9310EF1A930E940D6ADF91CF911883FA
:104DDC001881105D198319810E946268109150032B
:104DEC00195F1883CF93DF9318811A9310E11A93EC
:104DFC0010EF1A930E940D6ADF91CF9118831881DE
:104E0C00105D198319810E9462681CE40E9462681B
:104E1C00E8E0F0E0FA93EA9310E0108318E01A93BC
:104E2C001081088101171FEF08F01127112311F0D1
:104E3C000C944A27E5E4F3E0EF93FF93182D012F30
:104E4C001127FF91EF91E00FF11F1191195F1B8357
:104E5C00CF93DF931B811A9310E11A9310EF1A93DF
:104E6C000E940D6ADF91CF911B831B81105D1C8307
:104E7C001C810E946268E981FA811081139510836C
:104E8C00112311F00C941727239608952697198552
:104E9C00143610E008F01FEF112311F40C945C276A
:104EAC0010E00AE01D830C830C947E2719851233C5
:104EBC0010E008F01FEF112311F40C946B2710E095
:104ECC0005E01D830C830C947E271985143110E0AA
:104EDC0008F01FEF112311F40C947A2710E002E074
:104EEC001D830C830C947E2710E001E01D830C8342
:104EFC00FE01EF93FF931E81FF91EF9111931E81A1
:104F0C001F3710E011F008F01FEF112311F40C946F
:104F1C009527FE0131961FEF11930C949927FE01F2
:104F2C00319610E01193088119810F931F930C8116
:104F3C001D81689445F8BF91AF910E94306F198321
:104F4C0008831985012F11270F931F93088119814D
:104F5C003F912F91020F131F1B830A830A811B8120
:104F6C000F931F930C811D81689445F8BF91AF91ED
:104F7C000E94516F0F931F930C811D81689445F80B
:104F8C00BF91AF910E94306F1B830A830A811B81F2
:104F9C001A930A931A85012F11271A930A931B85CA
:104FAC00012F11271A930A930E9438702696102FFE
:104FBC000895CF93DF9310E01A931FE01A9310E03B
:104FCC001A930E948868DF91CF911A811F931881E0
:104FDC000F9101171FEF08F01127112311F40C94F6
:104FEC00FC2713E00E9462680C94FF2710E20E94D9
:104FFC006268CF93DF9310E01A931FE01A9311E0CD
:10500C001A930E948868DF91CF911A811F9319819E
:10501C000F91011710E011F008F01FEF112311F49C
:10502C000C941D2814E00E9462680C94202810E255
:10503C000E9462680895229710E00E94BA68176C6B
:10504C0010933A020A811B81103009F4003010E0F1
:10505C0011F008F01FEF112311F40C9439280A8178
:10506C001B810E941B6A10913A021F3F10E009F449
:10507C001FEF112311F40C94482810E00C944B28CA
:10508C000C944B281FEF0C944B28089522971091E9
:10509C003D0219831981188319811F9310913C02C9
:1050AC000F91011B102F1983188110933C02198149
:1050BC00089528971091160410951F931985103098
:1050CC0010E009F41FEF0F91102B112311F40C9425
:1050DC0071280C94FD2C1885103010E009F01FEF8E
:1050EC001883E8E7F4EEEF93FF931985012F11274E
:1050FC00FF91EF91E00FF11F14911D831D81113071
:10510C0010E009F41FEF198319851D3010E009F424
:10511C001FEF112311F40C94AE28CF93DF93109151
:10512C0026031A9310E01A931FE01A931B851A9307
:10513C000E944C27DF91CF9110932603CF93DF93DE
:10514C000E94FE25DF91CF910C94FD2C0C94D0285D
:10515C0019851E3010E009F41FEF112311F40C9483
:10516C00D028CF93DF93109127031A9310E01A9352
:10517C001FE01A931B851A930E944C27DF91CF9145
:10518C0010932703CF93DF930E94FE25DF91CF91DD
:10519C000C94FD2CCF93DF9319851A930E94E62172
:1051AC00DF91CF911FEF1C83E5E3F3E0EF93FF93C7
:1051BC001985012F1127FF91EF91E00FF11F11912C
:1051CC001F8310E01B831985113010F40C94F52803
:1051DC00193019F010F00C94F5280C94FE281031AD
:1051EC0010F40C943E291B3119F010F00C943E294C
:1051FC001F811695169516951F83CF93DF931F81EC
:10520C001A9310E01A931FE01A931B851A930E94AD
:10521C004C27DF91CF911F83CF93DF931F811A937C
:10522C000E944625DF91CF91CF93DF931F811A9374
:10523C0010E01A931FE01A930E94DF27DF91CF91A1
:10524C00E5E3F3E0EF93FF931985012F1127FF910D
:10525C00EF91E00FF11FEF93FF931F81110F110FCF
:10526C00110FFF91EF9111931FEF1B830C94CC2B1B
:10527C001A3011F00C948629CF93DF931F811A9367
:10528C0010E01A931F811A931B851A930E944C27C6
:10529C00DF91CF9110933F03CF93DF930E940825AA
:1052AC00DF91CF91CF93DF9310E01A931FE01A9305
:1052BC0010E01A930E948868DF91CF9110E20E944F
:1052CC006268CF93DF9310E01A931AE01A9311E0FF
:1052DC001A930E948868DF91CF9116E00E94626851
:1052EC00CF93DF931F811A9310E01A931F811A93A7
:1052FC000E94DF27DF91CF911FEF1B830C94CC2BE7
:10530C001B3011F00C94BE291881112311F40C944C
:10531C009E2900910203112704FD1FEF1095E894BC
:10532C00112309F068941091020314F910930203ED
:10533C0000910203112704FD1FEF10934003CF933C
:10534C00DF930E940825DF91CF91CF93DF9310E07C
:10535C001A9313E01A9311E01A930E948868DF9154
:10536C00CF9116E00E9462681FEF1B830C94CC2B2C
:10537C001C3011F00C942A2A109102031F701F8309
:10538C001F81012F11E00695111FE8F71695169550
:10539C00169516951F83CF93DF931F811A9317E0F1
:1053AC001A931FE01A931B851A930E944C27DF91C6
:1053BC00CF911F831F811E831F81012F11E0069542
:1053CC00111FE8F716951695169516951F831881DB
:1053DC00112311F40C94FB2910910203107F1F93DD
:1053EC001F810F91102B109302030E947424CF93F2
:1053FC00DF931E811A9317E01A931FE01A930E94F1
:10540C00DF27DF91CF91CF93DF9310E01A9313E056
:10541C001A9311E01A930E948868DF91CF91009142
:10542C000203112700FD1FEF112311F40C94232A02
:10543C0015E00E9462680C94262A16E00E946268AD
:10544C001FEF1B830C94CC2B1F3011F00C946E2A85
:10545C001881112311F40C94422A00910203112794
:10546C0005FD1FEF1095E894112309F06894109135
:10547C00020315F91093020300910203112705FD95
:10548C001FEF10934403CF93DF930E940825DF9105
:10549C00CF91CF93DF9310E01A9317E01A9311E09A
:1054AC001A930E948868DF91CF9116E00E9462687F
:1054BC00CF93DF9311E01A9310E01A9312E01A9332
:1054CC000E94DF27DF91CF911FEF1B830C94CC2B15
:1054DC001D3111F00C94AA2A1881112311F40C948B
:1054EC00862A00910703112706FD1FEF1095E894FB
:1054FC00112309F068941091070316F91093070310
:10550C0000910703112706FD1FEF10935203109112
:10551C00520311701F83CF93DF931F81175E1A9371
:10552C000E942222DF91CF91CF93DF9311E01A9347
:10553C0010E01A9312E01A930E94DF27DF91CF91AB
:10554C001FEF1B830C94CC2B1E3111F00C94E52A0D
:10555C001881112311F40C94C22A0091070311270E
:10556C0007FD1FEF1095E894112309F06894109132
:10557C00070317F91093070300910703112707FD81
:10558C001FEF10935303CF93DF9300910703112761
:10559C0007FD1FEF1A930E941C24DF91CF91CF932C
:1055AC00DF9311E01A9310E01A9312E01A930E9401
:1055BC00DF27DF91CF911FEF1B830C94CC2B103284
:1055CC0011F00C94282B1091070310731695169557
:1055DC00169516951F83CF93DF931F811A9310E0B6
:1055EC001A9313E01A931B851A930E944C27DF9190
:1055FC00CF911F83CF93DF931F811A930E942B248B
:10560C00DF91CF911F8110935503109107031F7CDD
:10561C001F931F81110F110F110F110F0F91102BD1
:10562C0010930703CF93DF931F811A9310E01A9303
:10563C0013E01A930E94DF27DF91CF911FEF1B839A
:10564C000C94CC2B113211F00C94572BCF93DF937D
:10565C001F811A9310E01A931F811A931B851A93BA
:10566C000E944C27DF91CF911F83CF93DF931F8133
:10567C001F5F1A930E942B24DF91CF91CF93DF935E
:10568C001F811A9310E01A931F811A930E94DF272F
:10569C00DF91CF911F81109356031FEF1B830C9446
:1056AC00CC2B123211F00C945F2B15E11C830C9453
:1056BC00CC2B133211F00C94672B10E01C830C9440
:1056CC00CC2B143211F00C946F2B16E01C830C9421
:1056DC00CC2B153211F00C94A62B1F811A5F1F8353
:1056EC00CF93DF931F811A9310E01A931F811A93A3
:1056FC001B851A930E944C27DF91CF911F831F812A
:10570C00165010935A03CF93DF931F81012F11274B
:10571C00065010401A930A930E944C24DF91CF91AB
:10572C00CF93DF931F811A9310E01A931F811A9362
:10573C000E94DF27DF91CF911FEF1B830C94CC2BA2
:10574C00163211F00C94AC2B0C94B02B173211F0C8
:10575C000C94B42B1BE11C830C94CC2B153311F043
:10576C000C94BC2B11E11C830C94CC2B183311F032
:10577C000C94C42B1FE11C830C94CC2B1C3411F007
:10578C000C94CC2B19E01C830C94CC2B1B81109506
:10579C00112311F40C94612C1981112311F40C9424
:1057AC00162CE5E3F3E0EF93FF931985012F1127F6
:1057BC00FF91EF91E00FF11F1191112309F01FEFF1
:1057CC001A831881112311F40C94EF2B1A81109564
:1057DC001A83CF93DF931A811A930E941C24DF91B2
:1057EC00CF91CF93DF9311E01A9310E01A9312E04C
:1057FC001A930E94DF27DF91CF91E5E3F3E0EF935B
:10580C00FF931985012F1127FF91EF91E00FF11FE5
:10581C00EF93FF931A81FF91EF9111930C94612CEC
:10582C00CF93DF931F811A9310E01A931F811A9361
:10583C001B851A930E944C27DF91CF911F831C81EB
:10584C001F3F10E009F01FEF112311F40C943C2CB6
:10585C00CF93DF931C811F931F810F91100F1A930D
:10586C000E942222DF91CF910C94442CCF93DF9392
:10587C001F811A930E942B24DF91CF91E5E3F3E073
:10588C00EF93FF931985012F1127FF91EF91E00FF3
:10589C00F11FEF93FF931F81FF91EF911193CF9322
:1058AC00DF931F811A9310E01A931F811A930E94A1
:1058BC00DF27DF91CF91CF93DF9310E01A931EE097
:1058CC001A9311E01A930E948868DF91CF91198581
:1058DC001F3110E008F01FEF112311F40C94AD2CC4
:1058EC0014E40E946268E5E3F3E0EF93FF931985FB
:1058FC00012F1127FF91EF91E00FF11F11911F93D1
:10590C00E2E1F0E0EF93FF931985012F1127FF914E
:10591C00EF91E00FF11F0E94646A0F91011710E0E4
:10592C0009F01FEF112311F40C94AB2CCF93DF93E0
:10593C0010E01A931EE01A9310E01A930E948868E4
:10594C00DF91CF911AE20E9462680C94C82C1985E1
:10595C001E3010E011F008F01FEF112311F40C941D
:10596C00BC2C1CE40E9462680C94C82C19851D3058
:10597C001FEF08F01127112311F40C94C82C15E516
:10598C000E9462681881112311F40C94FD2C1FEFF6
:10599C001093B202CF93DF930E94EF12DF91CF915D
:1059AC00CF93DF930E942D14DF91CF91CF93DF9390
:1059BC000E946314DF91CF91CF93DF930E940B125F
:1059CC00DF91CF911985103210E008F01FEF1123F1
:1059DC0011F40C94FD2CCF93DF930E945915DF9199
:1059EC00CF91CF93DF930E94F014DF91CF91089564
:1059FC00219710E01883CF93DF93109182031095B9
:105A0C001A930E94E402DF91CF91CF93DF930E940F
:105A1C00831CDF91CF910E94C500FE01108113956C
:105A2C001083CF93DF9310E00AE01A930A930E943D
:105A3C002128DF91CF9110951F931881133610E018
:105A4C0011F008F01FEF0F91102B112311F40C948F
:105A5C00012D188114361FEF08F01127112311F4B2
:105A6C000C946C2D10913F021A931DE01A931EE0BA
:105A7C001A930E941F702396112311F40C944C2D31
:105A8C001091400210933F020C945C2D10913F0238
:105A9C001093400210913F021A931DE01A931EE0DE
:105AAC001A930E941570239610933F02CF93DF93A5
:105ABC0010913F021A9310E01A930E945F28DF9115
:105ACC00CF9111E010933E020C94132E10913F02D3
:105ADC00103010F40C94912D1D3019F010F00C9422
:105AEC00912DCF93DF93109126031A9310912603D7
:105AFC001A930E94A122DF91CF91CF93DF93109143
:105B0C0026031A930E94D719DF91CF911FEF1093A0
:105B1C0030030C94EB2D1E3010F40C94B42D1E316C
:105B2C0019F010F00C94B42DCF93DF931091270340
:105B3C001A93109127031A930E94A122DF91CF91FF
:105B4C00CF93DF93109127031A930E94F71ADF91DA
